{
	"/ds-stop/stop.sol": {
		"DSStop": {
			"abi": [
				{
					"anonymous": true,
					"inputs": [
						{
							"indexed": true,
							"internalType": "bytes4",
							"name": "sig",
							"type": "bytes4"
						},
						{
							"indexed": true,
							"internalType": "address",
							"name": "guy",
							"type": "address"
						},
						{
							"indexed": true,
							"internalType": "bytes32",
							"name": "foo",
							"type": "bytes32"
						},
						{
							"indexed": true,
							"internalType": "bytes32",
							"name": "bar",
							"type": "bytes32"
						},
						{
							"indexed": false,
							"internalType": "uint256",
							"name": "wad",
							"type": "uint256"
						},
						{
							"indexed": false,
							"internalType": "bytes",
							"name": "fax",
							"type": "bytes"
						}
					],
					"name": "LogNote",
					"type": "event"
				},
				{
					"anonymous": false,
					"inputs": [
						{
							"indexed": true,
							"internalType": "address",
							"name": "authority",
							"type": "address"
						}
					],
					"name": "LogSetAuthority",
					"type": "event"
				},
				{
					"anonymous": false,
					"inputs": [
						{
							"indexed": true,
							"internalType": "address",
							"name": "owner",
							"type": "address"
						}
					],
					"name": "LogSetOwner",
					"type": "event"
				},
				{
					"inputs": [],
					"name": "authority",
					"outputs": [
						{
							"internalType": "contract DSAuthority",
							"name": "",
							"type": "address"
						}
					],
					"stateMutability": "view",
					"type": "function"
				},
				{
					"inputs": [],
					"name": "owner",
					"outputs": [
						{
							"internalType": "address",
							"name": "",
							"type": "address"
						}
					],
					"stateMutability": "view",
					"type": "function"
				},
				{
					"inputs": [
						{
							"internalType": "contract DSAuthority",
							"name": "authority_",
							"type": "address"
						}
					],
					"name": "setAuthority",
					"outputs": [],
					"stateMutability": "nonpayable",
					"type": "function"
				},
				{
					"inputs": [
						{
							"internalType": "address",
							"name": "owner_",
							"type": "address"
						}
					],
					"name": "setOwner",
					"outputs": [],
					"stateMutability": "nonpayable",
					"type": "function"
				},
				{
					"inputs": [],
					"name": "start",
					"outputs": [],
					"stateMutability": "payable",
					"type": "function"
				},
				{
					"inputs": [],
					"name": "stop",
					"outputs": [],
					"stateMutability": "payable",
					"type": "function"
				},
				{
					"inputs": [],
					"name": "stopped",
					"outputs": [
						{
							"internalType": "bool",
							"name": "",
							"type": "bool"
						}
					],
					"stateMutability": "view",
					"type": "function"
				}
			],
			"devdoc": {
				"kind": "dev",
				"methods": {},
				"version": 1
			},
			"evm": {
				"assembly": "    /* \"/ds-stop/stop.sol\":818:1108  contract DSStop is DSNote, DSAuth {... */\n  mstore(0x40, 0x80)\n  callvalue\n  dup1\n  iszero\n  tag_1\n  jumpi\n  0x00\n  dup1\n  revert\ntag_1:\n  pop\n    /* \"/ds-auth/auth.sol\":1091:1101  msg.sender */\n  caller\n    /* \"/ds-auth/auth.sol\":1083:1088  owner */\n  0x01\n  0x00\n    /* \"/ds-auth/auth.sol\":1083:1101  owner = msg.sender */\n  0x0100\n  exp\n  dup2\n  sload\n  dup2\n  0xffffffffffffffffffffffffffffffffffffffff\n  mul\n  not\n  and\n  swap1\n  dup4\n  0xffffffffffffffffffffffffffffffffffffffff\n  and\n  mul\n  or\n  swap1\n  sstore\n  pop\n    /* \"/ds-auth/auth.sol\":1127:1137  msg.sender */\n  caller\n    /* \"/ds-auth/auth.sol\":1115:1138  LogSetOwner(msg.sender) */\n  0xffffffffffffffffffffffffffffffffffffffff\n  and\n  0xce241d7ca1f669fee44b6fc00b8eba2df3bb514eed0f6f668f8f89096e81ed94\n  mload(0x40)\n  mload(0x40)\n  dup1\n  swap2\n  sub\n  swap1\n  log2\n    /* \"/ds-stop/stop.sol\":818:1108  contract DSStop is DSNote, DSAuth {... */\n  dataSize(sub_0)\n  dup1\n  dataOffset(sub_0)\n  0x00\n  codecopy\n  0x00\n  return\nstop\n\nsub_0: assembly {\n        /* \"/ds-stop/stop.sol\":818:1108  contract DSStop is DSNote, DSAuth {... */\n      mstore(0x40, 0x80)\n      jumpi(tag_1, lt(calldatasize, 0x04))\n      shr(0xe0, calldataload(0x00))\n      dup1\n      0x7a9e5e4b\n      gt\n      tag_9\n      jumpi\n      dup1\n      0x7a9e5e4b\n      eq\n      tag_5\n      jumpi\n      dup1\n      0x8da5cb5b\n      eq\n      tag_6\n      jumpi\n      dup1\n      0xbe9a6555\n      eq\n      tag_7\n      jumpi\n      dup1\n      0xbf7e214f\n      eq\n      tag_8\n      jumpi\n      jump(tag_1)\n    tag_9:\n      dup1\n      0x07da68f5\n      eq\n      tag_2\n      jumpi\n      dup1\n      0x13af4035\n      eq\n      tag_3\n      jumpi\n      dup1\n      0x75f12b21\n      eq\n      tag_4\n      jumpi\n    tag_1:\n      0x00\n      dup1\n      revert\n        /* \"/ds-stop/stop.sol\":954:1026  function stop() public payable auth note {... */\n    tag_2:\n      tag_10\n      tag_11\n      jump\t// in\n    tag_10:\n      stop\n        /* \"/ds-auth/auth.sol\":1151:1280  function setOwner(address owner_)... */\n    tag_3:\n      callvalue\n      dup1\n      iszero\n      tag_12\n      jumpi\n      0x00\n      dup1\n      revert\n    tag_12:\n      pop\n      tag_13\n      0x04\n      dup1\n      calldatasize\n      sub\n      dup2\n      add\n      swap1\n      tag_14\n      swap2\n      swap1\n      tag_15\n      jump\t// in\n    tag_14:\n      tag_16\n      jump\t// in\n    tag_13:\n      stop\n        /* \"/ds-stop/stop.sol\":859:878  bool public stopped */\n    tag_4:\n      callvalue\n      dup1\n      iszero\n      tag_17\n      jumpi\n      0x00\n      dup1\n      revert\n    tag_17:\n      pop\n      tag_18\n      tag_19\n      jump\t// in\n    tag_18:\n      mload(0x40)\n      tag_20\n      swap2\n      swap1\n      tag_21\n      jump\t// in\n    tag_20:\n      mload(0x40)\n      dup1\n      swap2\n      sub\n      swap1\n      return\n        /* \"/ds-auth/auth.sol\":1286:1452  function setAuthority(DSAuthority authority_)... */\n    tag_5:\n      callvalue\n      dup1\n      iszero\n      tag_22\n      jumpi\n      0x00\n      dup1\n      revert\n    tag_22:\n      pop\n      tag_23\n      0x04\n      dup1\n      calldatasize\n      sub\n      dup2\n      add\n      swap1\n      tag_24\n      swap2\n      swap1\n      tag_25\n      jump\t// in\n    tag_24:\n      tag_26\n      jump\t// in\n    tag_23:\n      stop\n        /* \"/ds-auth/auth.sol\":1019:1045  address      public  owner */\n    tag_6:\n      callvalue\n      dup1\n      iszero\n      tag_27\n      jumpi\n      0x00\n      dup1\n      revert\n    tag_27:\n      pop\n      tag_28\n      tag_29\n      jump\t// in\n    tag_28:\n      mload(0x40)\n      tag_30\n      swap2\n      swap1\n      tag_31\n      jump\t// in\n    tag_30:\n      mload(0x40)\n      dup1\n      swap2\n      sub\n      swap1\n      return\n        /* \"/ds-stop/stop.sol\":1031:1105  function start() public payable auth note {... */\n    tag_7:\n      tag_32\n      tag_33\n      jump\t// in\n    tag_32:\n      stop\n        /* \"/ds-auth/auth.sol\":983:1013  DSAuthority  public  authority */\n    tag_8:\n      callvalue\n      dup1\n      iszero\n      tag_34\n      jumpi\n      0x00\n      dup1\n      revert\n    tag_34:\n      pop\n      tag_35\n      tag_36\n      jump\t// in\n    tag_35:\n      mload(0x40)\n      tag_37\n      swap2\n      swap1\n      tag_38\n      jump\t// in\n    tag_37:\n      mload(0x40)\n      dup1\n      swap2\n      sub\n      swap1\n      return\n        /* \"/ds-stop/stop.sol\":954:1026  function stop() public payable auth note {... */\n    tag_11:\n        /* \"/ds-auth/auth.sol\":1490:1523  isAuthorized(msg.sender, msg.sig) */\n      tag_40\n        /* \"/ds-auth/auth.sol\":1503:1513  msg.sender */\n      caller\n        /* \"/ds-auth/auth.sol\":1515:1522  msg.sig */\n      and(0xffffffff00000000000000000000000000000000000000000000000000000000, calldataload(0x00))\n        /* \"/ds-auth/auth.sol\":1490:1502  isAuthorized */\n      tag_41\n        /* \"/ds-auth/auth.sol\":1490:1523  isAuthorized(msg.sender, msg.sig) */\n      jump\t// in\n    tag_40:\n        /* \"/ds-auth/auth.sol\":1482:1524  require(isAuthorized(msg.sender, msg.sig)) */\n      tag_42\n      jumpi\n      0x00\n      dup1\n      revert\n    tag_42:\n        /* \"/ds-note/note.sol\":1002:1013  bytes32 foo */\n      0x00\n        /* \"/ds-note/note.sol\":1023:1034  bytes32 bar */\n      dup1\n        /* \"/ds-note/note.sol\":1088:1089  4 */\n      0x04\n        /* \"/ds-note/note.sol\":1075:1090  calldataload(4) */\n      calldataload\n        /* \"/ds-note/note.sol\":1068:1090  foo := calldataload(4) */\n      swap2\n      pop\n        /* \"/ds-note/note.sol\":1123:1125  36 */\n      0x24\n        /* \"/ds-note/note.sol\":1110:1126  calldataload(36) */\n      calldataload\n        /* \"/ds-note/note.sol\":1103:1126  bar := calldataload(36) */\n      swap1\n      pop\n        /* \"/ds-note/note.sol\":1185:1188  bar */\n      dup1\n        /* \"/ds-note/note.sol\":1180:1183  foo */\n      dup3\n        /* \"/ds-note/note.sol\":1168:1178  msg.sender */\n      caller\n        /* \"/ds-note/note.sol\":1151:1210  LogNote(msg.sig, msg.sender, foo, bar, msg.value, msg.data) */\n      0xffffffffffffffffffffffffffffffffffffffff\n      and\n        /* \"/ds-note/note.sol\":1159:1166  msg.sig */\n      and(0xffffffff00000000000000000000000000000000000000000000000000000000, calldataload(0x00))\n        /* \"/ds-note/note.sol\":1151:1210  LogNote(msg.sig, msg.sender, foo, bar, msg.value, msg.data) */\n      not(0xffffffffffffffffffffffffffffffffffffffffffffffffffffffff)\n      and\n        /* \"/ds-note/note.sol\":1190:1199  msg.value */\n      callvalue\n        /* \"/ds-note/note.sol\":1201:1209  msg.data */\n      0x00\n      calldatasize\n        /* \"/ds-note/note.sol\":1151:1210  LogNote(msg.sig, msg.sender, foo, bar, msg.value, msg.data) */\n      mload(0x40)\n      tag_44\n      swap4\n      swap3\n      swap2\n      swap1\n      tag_45\n      jump\t// in\n    tag_44:\n      mload(0x40)\n      dup1\n      swap2\n      sub\n      swap1\n      log4\n        /* \"/ds-stop/stop.sol\":1015:1019  true */\n      0x01\n        /* \"/ds-stop/stop.sol\":1005:1012  stopped */\n      dup1\n      0x14\n        /* \"/ds-stop/stop.sol\":1005:1019  stopped = true */\n      0x0100\n      exp\n      dup2\n      sload\n      dup2\n      0xff\n      mul\n      not\n      and\n      swap1\n      dup4\n      iszero\n      iszero\n      mul\n      or\n      swap1\n      sstore\n      pop\n        /* \"/ds-note/note.sol\":992:1229  {... */\n      pop\n      pop\n        /* \"/ds-stop/stop.sol\":954:1026  function stop() public payable auth note {... */\n      jump\t// out\n        /* \"/ds-auth/auth.sol\":1151:1280  function setOwner(address owner_)... */\n    tag_16:\n        /* \"/ds-auth/auth.sol\":1490:1523  isAuthorized(msg.sender, msg.sig) */\n      tag_48\n        /* \"/ds-auth/auth.sol\":1503:1513  msg.sender */\n      caller\n        /* \"/ds-auth/auth.sol\":1515:1522  msg.sig */\n      and(0xffffffff00000000000000000000000000000000000000000000000000000000, calldataload(0x00))\n        /* \"/ds-auth/auth.sol\":1490:1502  isAuthorized */\n      tag_41\n        /* \"/ds-auth/auth.sol\":1490:1523  isAuthorized(msg.sender, msg.sig) */\n      jump\t// in\n    tag_48:\n        /* \"/ds-auth/auth.sol\":1482:1524  require(isAuthorized(msg.sender, msg.sig)) */\n      tag_49\n      jumpi\n      0x00\n      dup1\n      revert\n    tag_49:\n        /* \"/ds-auth/auth.sol\":1235:1241  owner_ */\n      dup1\n        /* \"/ds-auth/auth.sol\":1227:1232  owner */\n      0x01\n      0x00\n        /* \"/ds-auth/auth.sol\":1227:1241  owner = owner_ */\n      0x0100\n      exp\n      dup2\n      sload\n      dup2\n      0xffffffffffffffffffffffffffffffffffffffff\n      mul\n      not\n      and\n      swap1\n      dup4\n      0xffffffffffffffffffffffffffffffffffffffff\n      and\n      mul\n      or\n      swap1\n      sstore\n      pop\n        /* \"/ds-auth/auth.sol\":1267:1272  owner */\n      0x01\n      0x00\n      swap1\n      sload\n      swap1\n      0x0100\n      exp\n      swap1\n      div\n      0xffffffffffffffffffffffffffffffffffffffff\n      and\n        /* \"/ds-auth/auth.sol\":1255:1273  LogSetOwner(owner) */\n      0xffffffffffffffffffffffffffffffffffffffff\n      and\n      0xce241d7ca1f669fee44b6fc00b8eba2df3bb514eed0f6f668f8f89096e81ed94\n      mload(0x40)\n      mload(0x40)\n      dup1\n      swap2\n      sub\n      swap1\n      log2\n        /* \"/ds-auth/auth.sol\":1151:1280  function setOwner(address owner_)... */\n      pop\n      jump\t// out\n        /* \"/ds-stop/stop.sol\":859:878  bool public stopped */\n    tag_19:\n      0x01\n      0x14\n      swap1\n      sload\n      swap1\n      0x0100\n      exp\n      swap1\n      div\n      0xff\n      and\n      dup2\n      jump\t// out\n        /* \"/ds-auth/auth.sol\":1286:1452  function setAuthority(DSAuthority authority_)... */\n    tag_26:\n        /* \"/ds-auth/auth.sol\":1490:1523  isAuthorized(msg.sender, msg.sig) */\n      tag_52\n        /* \"/ds-auth/auth.sol\":1503:1513  msg.sender */\n      caller\n        /* \"/ds-auth/auth.sol\":1515:1522  msg.sig */\n      and(0xffffffff00000000000000000000000000000000000000000000000000000000, calldataload(0x00))\n        /* \"/ds-auth/auth.sol\":1490:1502  isAuthorized */\n      tag_41\n        /* \"/ds-auth/auth.sol\":1490:1523  isAuthorized(msg.sender, msg.sig) */\n      jump\t// in\n    tag_52:\n        /* \"/ds-auth/auth.sol\":1482:1524  require(isAuthorized(msg.sender, msg.sig)) */\n      tag_53\n      jumpi\n      0x00\n      dup1\n      revert\n    tag_53:\n        /* \"/ds-auth/auth.sol\":1386:1396  authority_ */\n      dup1\n        /* \"/ds-auth/auth.sol\":1374:1383  authority */\n      0x00\n      dup1\n        /* \"/ds-auth/auth.sol\":1374:1396  authority = authority_ */\n      0x0100\n      exp\n      dup2\n      sload\n      dup2\n      0xffffffffffffffffffffffffffffffffffffffff\n      mul\n      not\n      and\n      swap1\n      dup4\n      0xffffffffffffffffffffffffffffffffffffffff\n      and\n      mul\n      or\n      swap1\n      sstore\n      pop\n        /* \"/ds-auth/auth.sol\":1434:1443  authority */\n      0x00\n      dup1\n      sload\n      swap1\n      0x0100\n      exp\n      swap1\n      div\n      0xffffffffffffffffffffffffffffffffffffffff\n      and\n        /* \"/ds-auth/auth.sol\":1410:1445  LogSetAuthority(address(authority)) */\n      0xffffffffffffffffffffffffffffffffffffffff\n      and\n      0x1abebea81bfa2637f28358c371278fb15ede7ea8dd28d2e03b112ff6d936ada4\n      mload(0x40)\n      mload(0x40)\n      dup1\n      swap2\n      sub\n      swap1\n      log2\n        /* \"/ds-auth/auth.sol\":1286:1452  function setAuthority(DSAuthority authority_)... */\n      pop\n      jump\t// out\n        /* \"/ds-auth/auth.sol\":1019:1045  address      public  owner */\n    tag_29:\n      0x01\n      0x00\n      swap1\n      sload\n      swap1\n      0x0100\n      exp\n      swap1\n      div\n      0xffffffffffffffffffffffffffffffffffffffff\n      and\n      dup2\n      jump\t// out\n        /* \"/ds-stop/stop.sol\":1031:1105  function start() public payable auth note {... */\n    tag_33:\n        /* \"/ds-auth/auth.sol\":1490:1523  isAuthorized(msg.sender, msg.sig) */\n      tag_56\n        /* \"/ds-auth/auth.sol\":1503:1513  msg.sender */\n      caller\n        /* \"/ds-auth/auth.sol\":1515:1522  msg.sig */\n      and(0xffffffff00000000000000000000000000000000000000000000000000000000, calldataload(0x00))\n        /* \"/ds-auth/auth.sol\":1490:1502  isAuthorized */\n      tag_41\n        /* \"/ds-auth/auth.sol\":1490:1523  isAuthorized(msg.sender, msg.sig) */\n      jump\t// in\n    tag_56:\n        /* \"/ds-auth/auth.sol\":1482:1524  require(isAuthorized(msg.sender, msg.sig)) */\n      tag_57\n      jumpi\n      0x00\n      dup1\n      revert\n    tag_57:\n        /* \"/ds-note/note.sol\":1002:1013  bytes32 foo */\n      0x00\n        /* \"/ds-note/note.sol\":1023:1034  bytes32 bar */\n      dup1\n        /* \"/ds-note/note.sol\":1088:1089  4 */\n      0x04\n        /* \"/ds-note/note.sol\":1075:1090  calldataload(4) */\n      calldataload\n        /* \"/ds-note/note.sol\":1068:1090  foo := calldataload(4) */\n      swap2\n      pop\n        /* \"/ds-note/note.sol\":1123:1125  36 */\n      0x24\n        /* \"/ds-note/note.sol\":1110:1126  calldataload(36) */\n      calldataload\n        /* \"/ds-note/note.sol\":1103:1126  bar := calldataload(36) */\n      swap1\n      pop\n        /* \"/ds-note/note.sol\":1185:1188  bar */\n      dup1\n        /* \"/ds-note/note.sol\":1180:1183  foo */\n      dup3\n        /* \"/ds-note/note.sol\":1168:1178  msg.sender */\n      caller\n        /* \"/ds-note/note.sol\":1151:1210  LogNote(msg.sig, msg.sender, foo, bar, msg.value, msg.data) */\n      0xffffffffffffffffffffffffffffffffffffffff\n      and\n        /* \"/ds-note/note.sol\":1159:1166  msg.sig */\n      and(0xffffffff00000000000000000000000000000000000000000000000000000000, calldataload(0x00))\n        /* \"/ds-note/note.sol\":1151:1210  LogNote(msg.sig, msg.sender, foo, bar, msg.value, msg.data) */\n      not(0xffffffffffffffffffffffffffffffffffffffffffffffffffffffff)\n      and\n        /* \"/ds-note/note.sol\":1190:1199  msg.value */\n      callvalue\n        /* \"/ds-note/note.sol\":1201:1209  msg.data */\n      0x00\n      calldatasize\n        /* \"/ds-note/note.sol\":1151:1210  LogNote(msg.sig, msg.sender, foo, bar, msg.value, msg.data) */\n      mload(0x40)\n      tag_59\n      swap4\n      swap3\n      swap2\n      swap1\n      tag_45\n      jump\t// in\n    tag_59:\n      mload(0x40)\n      dup1\n      swap2\n      sub\n      swap1\n      log4\n        /* \"/ds-stop/stop.sol\":1093:1098  false */\n      0x00\n        /* \"/ds-stop/stop.sol\":1083:1090  stopped */\n      0x01\n      0x14\n        /* \"/ds-stop/stop.sol\":1083:1098  stopped = false */\n      0x0100\n      exp\n      dup2\n      sload\n      dup2\n      0xff\n      mul\n      not\n      and\n      swap1\n      dup4\n      iszero\n      iszero\n      mul\n      or\n      swap1\n      sstore\n      pop\n        /* \"/ds-note/note.sol\":992:1229  {... */\n      pop\n      pop\n        /* \"/ds-stop/stop.sol\":1031:1105  function start() public payable auth note {... */\n      jump\t// out\n        /* \"/ds-auth/auth.sol\":983:1013  DSAuthority  public  authority */\n    tag_36:\n      0x00\n      dup1\n      sload\n      swap1\n      0x0100\n      exp\n      swap1\n      div\n      0xffffffffffffffffffffffffffffffffffffffff\n      and\n      dup2\n      jump\t// out\n        /* \"/ds-auth/auth.sol\":1548:1923  function isAuthorized(address src, bytes4 sig) internal view returns (bool) {... */\n    tag_41:\n        /* \"/ds-auth/auth.sol\":1618:1622  bool */\n      0x00\n        /* \"/ds-auth/auth.sol\":1653:1657  this */\n      address\n        /* \"/ds-auth/auth.sol\":1638:1658  src == address(this) */\n      0xffffffffffffffffffffffffffffffffffffffff\n      and\n        /* \"/ds-auth/auth.sol\":1638:1641  src */\n      dup4\n        /* \"/ds-auth/auth.sol\":1638:1658  src == address(this) */\n      0xffffffffffffffffffffffffffffffffffffffff\n      and\n      sub\n        /* \"/ds-auth/auth.sol\":1634:1917  if (src == address(this)) {... */\n      tag_62\n      jumpi\n        /* \"/ds-auth/auth.sol\":1681:1685  true */\n      0x01\n        /* \"/ds-auth/auth.sol\":1674:1685  return true */\n      swap1\n      pop\n      jump(tag_61)\n        /* \"/ds-auth/auth.sol\":1634:1917  if (src == address(this)) {... */\n    tag_62:\n        /* \"/ds-auth/auth.sol\":1713:1718  owner */\n      0x01\n      0x00\n      swap1\n      sload\n      swap1\n      0x0100\n      exp\n      swap1\n      div\n      0xffffffffffffffffffffffffffffffffffffffff\n      and\n        /* \"/ds-auth/auth.sol\":1706:1718  src == owner */\n      0xffffffffffffffffffffffffffffffffffffffff\n      and\n        /* \"/ds-auth/auth.sol\":1706:1709  src */\n      dup4\n        /* \"/ds-auth/auth.sol\":1706:1718  src == owner */\n      0xffffffffffffffffffffffffffffffffffffffff\n      and\n      sub\n        /* \"/ds-auth/auth.sol\":1702:1917  if (src == owner) {... */\n      tag_64\n      jumpi\n        /* \"/ds-auth/auth.sol\":1741:1745  true */\n      0x01\n        /* \"/ds-auth/auth.sol\":1734:1745  return true */\n      swap1\n      pop\n      jump(tag_61)\n        /* \"/ds-auth/auth.sol\":1702:1917  if (src == owner) {... */\n    tag_64:\n        /* \"/ds-auth/auth.sol\":1796:1797  0 */\n      0x00\n        /* \"/ds-auth/auth.sol\":1766:1798  address(authority) == address(0) */\n      0xffffffffffffffffffffffffffffffffffffffff\n      and\n        /* \"/ds-auth/auth.sol\":1774:1783  authority */\n      0x00\n      dup1\n      sload\n      swap1\n      0x0100\n      exp\n      swap1\n      div\n      0xffffffffffffffffffffffffffffffffffffffff\n      and\n        /* \"/ds-auth/auth.sol\":1766:1798  address(authority) == address(0) */\n      0xffffffffffffffffffffffffffffffffffffffff\n      and\n      sub\n        /* \"/ds-auth/auth.sol\":1762:1917  if (address(authority) == address(0)) {... */\n      tag_66\n      jumpi\n        /* \"/ds-auth/auth.sol\":1821:1826  false */\n      0x00\n        /* \"/ds-auth/auth.sol\":1814:1826  return false */\n      swap1\n      pop\n      jump(tag_61)\n        /* \"/ds-auth/auth.sol\":1762:1917  if (address(authority) == address(0)) {... */\n    tag_66:\n        /* \"/ds-auth/auth.sol\":1864:1873  authority */\n      0x00\n      dup1\n      sload\n      swap1\n      0x0100\n      exp\n      swap1\n      div\n      0xffffffffffffffffffffffffffffffffffffffff\n      and\n        /* \"/ds-auth/auth.sol\":1864:1881  authority.canCall */\n      0xffffffffffffffffffffffffffffffffffffffff\n      and\n      0xb7009613\n        /* \"/ds-auth/auth.sol\":1882:1885  src */\n      dup5\n        /* \"/ds-auth/auth.sol\":1895:1899  this */\n      address\n        /* \"/ds-auth/auth.sol\":1902:1905  sig */\n      dup6\n        /* \"/ds-auth/auth.sol\":1864:1906  authority.canCall(src, address(this), sig) */\n      mload(0x40)\n      dup5\n      0xffffffff\n      and\n      0xe0\n      shl\n      dup2\n      mstore\n      0x04\n      add\n      tag_68\n      swap4\n      swap3\n      swap2\n      swap1\n      tag_69\n      jump\t// in\n    tag_68:\n      0x20\n      mload(0x40)\n      dup1\n      dup4\n      sub\n      dup2\n      dup7\n      gas\n      staticcall\n      iszero\n      dup1\n      iszero\n      tag_71\n      jumpi\n      returndatasize\n      0x00\n      dup1\n      returndatacopy\n      revert(0x00, returndatasize)\n    tag_71:\n      pop\n      pop\n      pop\n      pop\n      mload(0x40)\n      returndatasize\n      not(0x1f)\n      0x1f\n      dup3\n      add\n      and\n      dup3\n      add\n      dup1\n      0x40\n      mstore\n      pop\n      dup2\n      add\n      swap1\n      tag_72\n      swap2\n      swap1\n      tag_73\n      jump\t// in\n    tag_72:\n        /* \"/ds-auth/auth.sol\":1857:1906  return authority.canCall(src, address(this), sig) */\n      swap1\n      pop\n        /* \"/ds-auth/auth.sol\":1548:1923  function isAuthorized(address src, bytes4 sig) internal view returns (bool) {... */\n    tag_61:\n      swap3\n      swap2\n      pop\n      pop\n      jump\t// out\n        /* \"#utility.yul\":88:205   */\n    tag_75:\n        /* \"#utility.yul\":197:198   */\n      0x00\n        /* \"#utility.yul\":194:195   */\n      dup1\n        /* \"#utility.yul\":187:199   */\n      revert\n        /* \"#utility.yul\":334:460   */\n    tag_77:\n        /* \"#utility.yul\":371:378   */\n      0x00\n        /* \"#utility.yul\":411:453   */\n      0xffffffffffffffffffffffffffffffffffffffff\n        /* \"#utility.yul\":404:409   */\n      dup3\n        /* \"#utility.yul\":400:454   */\n      and\n        /* \"#utility.yul\":389:454   */\n      swap1\n      pop\n        /* \"#utility.yul\":334:460   */\n      swap2\n      swap1\n      pop\n      jump\t// out\n        /* \"#utility.yul\":466:562   */\n    tag_78:\n        /* \"#utility.yul\":503:510   */\n      0x00\n        /* \"#utility.yul\":532:556   */\n      tag_108\n        /* \"#utility.yul\":550:555   */\n      dup3\n        /* \"#utility.yul\":532:556   */\n      tag_77\n      jump\t// in\n    tag_108:\n        /* \"#utility.yul\":521:556   */\n      swap1\n      pop\n        /* \"#utility.yul\":466:562   */\n      swap2\n      swap1\n      pop\n      jump\t// out\n        /* \"#utility.yul\":568:690   */\n    tag_79:\n        /* \"#utility.yul\":641:665   */\n      tag_110\n        /* \"#utility.yul\":659:664   */\n      dup2\n        /* \"#utility.yul\":641:665   */\n      tag_78\n      jump\t// in\n    tag_110:\n        /* \"#utility.yul\":634:639   */\n      dup2\n        /* \"#utility.yul\":631:666   */\n      eq\n        /* \"#utility.yul\":621:684   */\n      tag_111\n      jumpi\n        /* \"#utility.yul\":680:681   */\n      0x00\n        /* \"#utility.yul\":677:678   */\n      dup1\n        /* \"#utility.yul\":670:682   */\n      revert\n        /* \"#utility.yul\":621:684   */\n    tag_111:\n        /* \"#utility.yul\":568:690   */\n      pop\n      jump\t// out\n        /* \"#utility.yul\":696:835   */\n    tag_80:\n        /* \"#utility.yul\":742:747   */\n      0x00\n        /* \"#utility.yul\":780:786   */\n      dup2\n        /* \"#utility.yul\":767:787   */\n      calldataload\n        /* \"#utility.yul\":758:787   */\n      swap1\n      pop\n        /* \"#utility.yul\":796:829   */\n      tag_113\n        /* \"#utility.yul\":823:828   */\n      dup2\n        /* \"#utility.yul\":796:829   */\n      tag_79\n      jump\t// in\n    tag_113:\n        /* \"#utility.yul\":696:835   */\n      swap3\n      swap2\n      pop\n      pop\n      jump\t// out\n        /* \"#utility.yul\":841:1170   */\n    tag_15:\n        /* \"#utility.yul\":900:906   */\n      0x00\n        /* \"#utility.yul\":949:951   */\n      0x20\n        /* \"#utility.yul\":937:946   */\n      dup3\n        /* \"#utility.yul\":928:935   */\n      dup5\n        /* \"#utility.yul\":924:947   */\n      sub\n        /* \"#utility.yul\":920:952   */\n      slt\n        /* \"#utility.yul\":917:1036   */\n      iszero\n      tag_115\n      jumpi\n        /* \"#utility.yul\":955:1034   */\n      tag_116\n      tag_75\n      jump\t// in\n    tag_116:\n        /* \"#utility.yul\":917:1036   */\n    tag_115:\n        /* \"#utility.yul\":1075:1076   */\n      0x00\n        /* \"#utility.yul\":1100:1153   */\n      tag_117\n        /* \"#utility.yul\":1145:1152   */\n      dup5\n        /* \"#utility.yul\":1136:1142   */\n      dup3\n        /* \"#utility.yul\":1125:1134   */\n      dup6\n        /* \"#utility.yul\":1121:1143   */\n      add\n        /* \"#utility.yul\":1100:1153   */\n      tag_80\n      jump\t// in\n    tag_117:\n        /* \"#utility.yul\":1090:1153   */\n      swap2\n      pop\n        /* \"#utility.yul\":1046:1163   */\n      pop\n        /* \"#utility.yul\":841:1170   */\n      swap3\n      swap2\n      pop\n      pop\n      jump\t// out\n        /* \"#utility.yul\":1176:1266   */\n    tag_81:\n        /* \"#utility.yul\":1210:1217   */\n      0x00\n        /* \"#utility.yul\":1253:1258   */\n      dup2\n        /* \"#utility.yul\":1246:1259   */\n      iszero\n        /* \"#utility.yul\":1239:1260   */\n      iszero\n        /* \"#utility.yul\":1228:1260   */\n      swap1\n      pop\n        /* \"#utility.yul\":1176:1266   */\n      swap2\n      swap1\n      pop\n      jump\t// out\n        /* \"#utility.yul\":1272:1381   */\n    tag_82:\n        /* \"#utility.yul\":1353:1374   */\n      tag_120\n        /* \"#utility.yul\":1368:1373   */\n      dup2\n        /* \"#utility.yul\":1353:1374   */\n      tag_81\n      jump\t// in\n    tag_120:\n        /* \"#utility.yul\":1348:1351   */\n      dup3\n        /* \"#utility.yul\":1341:1375   */\n      mstore\n        /* \"#utility.yul\":1272:1381   */\n      pop\n      pop\n      jump\t// out\n        /* \"#utility.yul\":1387:1597   */\n    tag_21:\n        /* \"#utility.yul\":1474:1478   */\n      0x00\n        /* \"#utility.yul\":1512:1514   */\n      0x20\n        /* \"#utility.yul\":1501:1510   */\n      dup3\n        /* \"#utility.yul\":1497:1515   */\n      add\n        /* \"#utility.yul\":1489:1515   */\n      swap1\n      pop\n        /* \"#utility.yul\":1525:1590   */\n      tag_122\n        /* \"#utility.yul\":1587:1588   */\n      0x00\n        /* \"#utility.yul\":1576:1585   */\n      dup4\n        /* \"#utility.yul\":1572:1589   */\n      add\n        /* \"#utility.yul\":1563:1569   */\n      dup5\n        /* \"#utility.yul\":1525:1590   */\n      tag_82\n      jump\t// in\n    tag_122:\n        /* \"#utility.yul\":1387:1597   */\n      swap3\n      swap2\n      pop\n      pop\n      jump\t// out\n        /* \"#utility.yul\":1603:1717   */\n    tag_83:\n        /* \"#utility.yul\":1658:1665   */\n      0x00\n        /* \"#utility.yul\":1687:1711   */\n      tag_124\n        /* \"#utility.yul\":1705:1710   */\n      dup3\n        /* \"#utility.yul\":1687:1711   */\n      tag_78\n      jump\t// in\n    tag_124:\n        /* \"#utility.yul\":1676:1711   */\n      swap1\n      pop\n        /* \"#utility.yul\":1603:1717   */\n      swap2\n      swap1\n      pop\n      jump\t// out\n        /* \"#utility.yul\":1723:1881   */\n    tag_84:\n        /* \"#utility.yul\":1814:1856   */\n      tag_126\n        /* \"#utility.yul\":1850:1855   */\n      dup2\n        /* \"#utility.yul\":1814:1856   */\n      tag_83\n      jump\t// in\n    tag_126:\n        /* \"#utility.yul\":1807:1812   */\n      dup2\n        /* \"#utility.yul\":1804:1857   */\n      eq\n        /* \"#utility.yul\":1794:1875   */\n      tag_127\n      jumpi\n        /* \"#utility.yul\":1871:1872   */\n      0x00\n        /* \"#utility.yul\":1868:1869   */\n      dup1\n        /* \"#utility.yul\":1861:1873   */\n      revert\n        /* \"#utility.yul\":1794:1875   */\n    tag_127:\n        /* \"#utility.yul\":1723:1881   */\n      pop\n      jump\t// out\n        /* \"#utility.yul\":1887:2062   */\n    tag_85:\n        /* \"#utility.yul\":1951:1956   */\n      0x00\n        /* \"#utility.yul\":1989:1995   */\n      dup2\n        /* \"#utility.yul\":1976:1996   */\n      calldataload\n        /* \"#utility.yul\":1967:1996   */\n      swap1\n      pop\n        /* \"#utility.yul\":2005:2056   */\n      tag_129\n        /* \"#utility.yul\":2050:2055   */\n      dup2\n        /* \"#utility.yul\":2005:2056   */\n      tag_84\n      jump\t// in\n    tag_129:\n        /* \"#utility.yul\":1887:2062   */\n      swap3\n      swap2\n      pop\n      pop\n      jump\t// out\n        /* \"#utility.yul\":2068:2433   */\n    tag_25:\n        /* \"#utility.yul\":2145:2151   */\n      0x00\n        /* \"#utility.yul\":2194:2196   */\n      0x20\n        /* \"#utility.yul\":2182:2191   */\n      dup3\n        /* \"#utility.yul\":2173:2180   */\n      dup5\n        /* \"#utility.yul\":2169:2192   */\n      sub\n        /* \"#utility.yul\":2165:2197   */\n      slt\n        /* \"#utility.yul\":2162:2281   */\n      iszero\n      tag_131\n      jumpi\n        /* \"#utility.yul\":2200:2279   */\n      tag_132\n      tag_75\n      jump\t// in\n    tag_132:\n        /* \"#utility.yul\":2162:2281   */\n    tag_131:\n        /* \"#utility.yul\":2320:2321   */\n      0x00\n        /* \"#utility.yul\":2345:2416   */\n      tag_133\n        /* \"#utility.yul\":2408:2415   */\n      dup5\n        /* \"#utility.yul\":2399:2405   */\n      dup3\n        /* \"#utility.yul\":2388:2397   */\n      dup6\n        /* \"#utility.yul\":2384:2406   */\n      add\n        /* \"#utility.yul\":2345:2416   */\n      tag_85\n      jump\t// in\n    tag_133:\n        /* \"#utility.yul\":2335:2416   */\n      swap2\n      pop\n        /* \"#utility.yul\":2291:2426   */\n      pop\n        /* \"#utility.yul\":2068:2433   */\n      swap3\n      swap2\n      pop\n      pop\n      jump\t// out\n        /* \"#utility.yul\":2439:2557   */\n    tag_86:\n        /* \"#utility.yul\":2526:2550   */\n      tag_135\n        /* \"#utility.yul\":2544:2549   */\n      dup2\n        /* \"#utility.yul\":2526:2550   */\n      tag_78\n      jump\t// in\n    tag_135:\n        /* \"#utility.yul\":2521:2524   */\n      dup3\n        /* \"#utility.yul\":2514:2551   */\n      mstore\n        /* \"#utility.yul\":2439:2557   */\n      pop\n      pop\n      jump\t// out\n        /* \"#utility.yul\":2563:2785   */\n    tag_31:\n        /* \"#utility.yul\":2656:2660   */\n      0x00\n        /* \"#utility.yul\":2694:2696   */\n      0x20\n        /* \"#utility.yul\":2683:2692   */\n      dup3\n        /* \"#utility.yul\":2679:2697   */\n      add\n        /* \"#utility.yul\":2671:2697   */\n      swap1\n      pop\n        /* \"#utility.yul\":2707:2778   */\n      tag_137\n        /* \"#utility.yul\":2775:2776   */\n      0x00\n        /* \"#utility.yul\":2764:2773   */\n      dup4\n        /* \"#utility.yul\":2760:2777   */\n      add\n        /* \"#utility.yul\":2751:2757   */\n      dup5\n        /* \"#utility.yul\":2707:2778   */\n      tag_86\n      jump\t// in\n    tag_137:\n        /* \"#utility.yul\":2563:2785   */\n      swap3\n      swap2\n      pop\n      pop\n      jump\t// out\n        /* \"#utility.yul\":2791:2851   */\n    tag_87:\n        /* \"#utility.yul\":2819:2822   */\n      0x00\n        /* \"#utility.yul\":2840:2845   */\n      dup2\n        /* \"#utility.yul\":2833:2845   */\n      swap1\n      pop\n        /* \"#utility.yul\":2791:2851   */\n      swap2\n      swap1\n      pop\n      jump\t// out\n        /* \"#utility.yul\":2857:2999   */\n    tag_88:\n        /* \"#utility.yul\":2907:2916   */\n      0x00\n        /* \"#utility.yul\":2940:2993   */\n      tag_140\n        /* \"#utility.yul\":2958:2992   */\n      tag_141\n        /* \"#utility.yul\":2967:2991   */\n      tag_142\n        /* \"#utility.yul\":2985:2990   */\n      dup5\n        /* \"#utility.yul\":2967:2991   */\n      tag_77\n      jump\t// in\n    tag_142:\n        /* \"#utility.yul\":2958:2992   */\n      tag_87\n      jump\t// in\n    tag_141:\n        /* \"#utility.yul\":2940:2993   */\n      tag_77\n      jump\t// in\n    tag_140:\n        /* \"#utility.yul\":2927:2993   */\n      swap1\n      pop\n        /* \"#utility.yul\":2857:2999   */\n      swap2\n      swap1\n      pop\n      jump\t// out\n        /* \"#utility.yul\":3005:3131   */\n    tag_89:\n        /* \"#utility.yul\":3055:3064   */\n      0x00\n        /* \"#utility.yul\":3088:3125   */\n      tag_144\n        /* \"#utility.yul\":3119:3124   */\n      dup3\n        /* \"#utility.yul\":3088:3125   */\n      tag_88\n      jump\t// in\n    tag_144:\n        /* \"#utility.yul\":3075:3125   */\n      swap1\n      pop\n        /* \"#utility.yul\":3005:3131   */\n      swap2\n      swap1\n      pop\n      jump\t// out\n        /* \"#utility.yul\":3137:3281   */\n    tag_90:\n        /* \"#utility.yul\":3205:3214   */\n      0x00\n        /* \"#utility.yul\":3238:3275   */\n      tag_146\n        /* \"#utility.yul\":3269:3274   */\n      dup3\n        /* \"#utility.yul\":3238:3275   */\n      tag_89\n      jump\t// in\n    tag_146:\n        /* \"#utility.yul\":3225:3275   */\n      swap1\n      pop\n        /* \"#utility.yul\":3137:3281   */\n      swap2\n      swap1\n      pop\n      jump\t// out\n        /* \"#utility.yul\":3287:3454   */\n    tag_91:\n        /* \"#utility.yul\":3392:3447   */\n      tag_148\n        /* \"#utility.yul\":3441:3446   */\n      dup2\n        /* \"#utility.yul\":3392:3447   */\n      tag_90\n      jump\t// in\n    tag_148:\n        /* \"#utility.yul\":3387:3390   */\n      dup3\n        /* \"#utility.yul\":3380:3448   */\n      mstore\n        /* \"#utility.yul\":3287:3454   */\n      pop\n      pop\n      jump\t// out\n        /* \"#utility.yul\":3460:3718   */\n    tag_38:\n        /* \"#utility.yul\":3571:3575   */\n      0x00\n        /* \"#utility.yul\":3609:3611   */\n      0x20\n        /* \"#utility.yul\":3598:3607   */\n      dup3\n        /* \"#utility.yul\":3594:3612   */\n      add\n        /* \"#utility.yul\":3586:3612   */\n      swap1\n      pop\n        /* \"#utility.yul\":3622:3711   */\n      tag_150\n        /* \"#utility.yul\":3708:3709   */\n      0x00\n        /* \"#utility.yul\":3697:3706   */\n      dup4\n        /* \"#utility.yul\":3693:3710   */\n      add\n        /* \"#utility.yul\":3684:3690   */\n      dup5\n        /* \"#utility.yul\":3622:3711   */\n      tag_91\n      jump\t// in\n    tag_150:\n        /* \"#utility.yul\":3460:3718   */\n      swap3\n      swap2\n      pop\n      pop\n      jump\t// out\n        /* \"#utility.yul\":3724:3801   */\n    tag_92:\n        /* \"#utility.yul\":3761:3768   */\n      0x00\n        /* \"#utility.yul\":3790:3795   */\n      dup2\n        /* \"#utility.yul\":3779:3795   */\n      swap1\n      pop\n        /* \"#utility.yul\":3724:3801   */\n      swap2\n      swap1\n      pop\n      jump\t// out\n        /* \"#utility.yul\":3807:3925   */\n    tag_93:\n        /* \"#utility.yul\":3894:3918   */\n      tag_153\n        /* \"#utility.yul\":3912:3917   */\n      dup2\n        /* \"#utility.yul\":3894:3918   */\n      tag_92\n      jump\t// in\n    tag_153:\n        /* \"#utility.yul\":3889:3892   */\n      dup3\n        /* \"#utility.yul\":3882:3919   */\n      mstore\n        /* \"#utility.yul\":3807:3925   */\n      pop\n      pop\n      jump\t// out\n        /* \"#utility.yul\":3931:4099   */\n    tag_94:\n        /* \"#utility.yul\":4014:4025   */\n      0x00\n        /* \"#utility.yul\":4048:4054   */\n      dup3\n        /* \"#utility.yul\":4043:4046   */\n      dup3\n        /* \"#utility.yul\":4036:4055   */\n      mstore\n        /* \"#utility.yul\":4088:4092   */\n      0x20\n        /* \"#utility.yul\":4083:4086   */\n      dup3\n        /* \"#utility.yul\":4079:4093   */\n      add\n        /* \"#utility.yul\":4064:4093   */\n      swap1\n      pop\n        /* \"#utility.yul\":3931:4099   */\n      swap3\n      swap2\n      pop\n      pop\n      jump\t// out\n        /* \"#utility.yul\":4105:4251   */\n    tag_95:\n        /* \"#utility.yul\":4202:4208   */\n      dup3\n        /* \"#utility.yul\":4197:4200   */\n      dup2\n        /* \"#utility.yul\":4192:4195   */\n      dup4\n        /* \"#utility.yul\":4179:4209   */\n      calldatacopy\n        /* \"#utility.yul\":4243:4244   */\n      0x00\n        /* \"#utility.yul\":4234:4240   */\n      dup4\n        /* \"#utility.yul\":4229:4232   */\n      dup4\n        /* \"#utility.yul\":4225:4241   */\n      add\n        /* \"#utility.yul\":4218:4245   */\n      mstore\n        /* \"#utility.yul\":4105:4251   */\n      pop\n      pop\n      pop\n      jump\t// out\n        /* \"#utility.yul\":4257:4359   */\n    tag_96:\n        /* \"#utility.yul\":4298:4304   */\n      0x00\n        /* \"#utility.yul\":4349:4351   */\n      0x1f\n        /* \"#utility.yul\":4345:4352   */\n      not\n        /* \"#utility.yul\":4340:4342   */\n      0x1f\n        /* \"#utility.yul\":4333:4338   */\n      dup4\n        /* \"#utility.yul\":4329:4343   */\n      add\n        /* \"#utility.yul\":4325:4353   */\n      and\n        /* \"#utility.yul\":4315:4353   */\n      swap1\n      pop\n        /* \"#utility.yul\":4257:4359   */\n      swap2\n      swap1\n      pop\n      jump\t// out\n        /* \"#utility.yul\":4387:4701   */\n    tag_97:\n        /* \"#utility.yul\":4483:4486   */\n      0x00\n        /* \"#utility.yul\":4504:4574   */\n      tag_158\n        /* \"#utility.yul\":4567:4573   */\n      dup4\n        /* \"#utility.yul\":4562:4565   */\n      dup6\n        /* \"#utility.yul\":4504:4574   */\n      tag_94\n      jump\t// in\n    tag_158:\n        /* \"#utility.yul\":4497:4574   */\n      swap4\n      pop\n        /* \"#utility.yul\":4584:4640   */\n      tag_159\n        /* \"#utility.yul\":4633:4639   */\n      dup4\n        /* \"#utility.yul\":4628:4631   */\n      dup6\n        /* \"#utility.yul\":4621:4626   */\n      dup5\n        /* \"#utility.yul\":4584:4640   */\n      tag_95\n      jump\t// in\n    tag_159:\n        /* \"#utility.yul\":4665:4694   */\n      tag_160\n        /* \"#utility.yul\":4687:4693   */\n      dup4\n        /* \"#utility.yul\":4665:4694   */\n      tag_96\n      jump\t// in\n    tag_160:\n        /* \"#utility.yul\":4660:4663   */\n      dup5\n        /* \"#utility.yul\":4656:4695   */\n      add\n        /* \"#utility.yul\":4649:4695   */\n      swap1\n      pop\n        /* \"#utility.yul\":4387:4701   */\n      swap4\n      swap3\n      pop\n      pop\n      pop\n      jump\t// out\n        /* \"#utility.yul\":4707:5146   */\n    tag_45:\n        /* \"#utility.yul\":4856:4860   */\n      0x00\n        /* \"#utility.yul\":4894:4896   */\n      0x40\n        /* \"#utility.yul\":4883:4892   */\n      dup3\n        /* \"#utility.yul\":4879:4897   */\n      add\n        /* \"#utility.yul\":4871:4897   */\n      swap1\n      pop\n        /* \"#utility.yul\":4907:4978   */\n      tag_162\n        /* \"#utility.yul\":4975:4976   */\n      0x00\n        /* \"#utility.yul\":4964:4973   */\n      dup4\n        /* \"#utility.yul\":4960:4977   */\n      add\n        /* \"#utility.yul\":4951:4957   */\n      dup7\n        /* \"#utility.yul\":4907:4978   */\n      tag_93\n      jump\t// in\n    tag_162:\n        /* \"#utility.yul\":5025:5034   */\n      dup2\n        /* \"#utility.yul\":5019:5023   */\n      dup2\n        /* \"#utility.yul\":5015:5035   */\n      sub\n        /* \"#utility.yul\":5010:5012   */\n      0x20\n        /* \"#utility.yul\":4999:5008   */\n      dup4\n        /* \"#utility.yul\":4995:5013   */\n      add\n        /* \"#utility.yul\":4988:5036   */\n      mstore\n        /* \"#utility.yul\":5053:5139   */\n      tag_163\n        /* \"#utility.yul\":5134:5138   */\n      dup2\n        /* \"#utility.yul\":5125:5131   */\n      dup5\n        /* \"#utility.yul\":5117:5123   */\n      dup7\n        /* \"#utility.yul\":5053:5139   */\n      tag_97\n      jump\t// in\n    tag_163:\n        /* \"#utility.yul\":5045:5139   */\n      swap1\n      pop\n        /* \"#utility.yul\":4707:5146   */\n      swap5\n      swap4\n      pop\n      pop\n      pop\n      pop\n      jump\t// out\n        /* \"#utility.yul\":5152:5301   */\n    tag_98:\n        /* \"#utility.yul\":5188:5195   */\n      0x00\n        /* \"#utility.yul\":5228:5294   */\n      0xffffffff00000000000000000000000000000000000000000000000000000000\n        /* \"#utility.yul\":5221:5226   */\n      dup3\n        /* \"#utility.yul\":5217:5295   */\n      and\n        /* \"#utility.yul\":5206:5295   */\n      swap1\n      pop\n        /* \"#utility.yul\":5152:5301   */\n      swap2\n      swap1\n      pop\n      jump\t// out\n        /* \"#utility.yul\":5307:5422   */\n    tag_99:\n        /* \"#utility.yul\":5392:5415   */\n      tag_166\n        /* \"#utility.yul\":5409:5414   */\n      dup2\n        /* \"#utility.yul\":5392:5415   */\n      tag_98\n      jump\t// in\n    tag_166:\n        /* \"#utility.yul\":5387:5390   */\n      dup3\n        /* \"#utility.yul\":5380:5416   */\n      mstore\n        /* \"#utility.yul\":5307:5422   */\n      pop\n      pop\n      jump\t// out\n        /* \"#utility.yul\":5428:5866   */\n    tag_69:\n        /* \"#utility.yul\":5575:5579   */\n      0x00\n        /* \"#utility.yul\":5613:5615   */\n      0x60\n        /* \"#utility.yul\":5602:5611   */\n      dup3\n        /* \"#utility.yul\":5598:5616   */\n      add\n        /* \"#utility.yul\":5590:5616   */\n      swap1\n      pop\n        /* \"#utility.yul\":5626:5697   */\n      tag_168\n        /* \"#utility.yul\":5694:5695   */\n      0x00\n        /* \"#utility.yul\":5683:5692   */\n      dup4\n        /* \"#utility.yul\":5679:5696   */\n      add\n        /* \"#utility.yul\":5670:5676   */\n      dup7\n        /* \"#utility.yul\":5626:5697   */\n      tag_86\n      jump\t// in\n    tag_168:\n        /* \"#utility.yul\":5707:5779   */\n      tag_169\n        /* \"#utility.yul\":5775:5777   */\n      0x20\n        /* \"#utility.yul\":5764:5773   */\n      dup4\n        /* \"#utility.yul\":5760:5778   */\n      add\n        /* \"#utility.yul\":5751:5757   */\n      dup6\n        /* \"#utility.yul\":5707:5779   */\n      tag_86\n      jump\t// in\n    tag_169:\n        /* \"#utility.yul\":5789:5859   */\n      tag_170\n        /* \"#utility.yul\":5855:5857   */\n      0x40\n        /* \"#utility.yul\":5844:5853   */\n      dup4\n        /* \"#utility.yul\":5840:5858   */\n      add\n        /* \"#utility.yul\":5831:5837   */\n      dup5\n        /* \"#utility.yul\":5789:5859   */\n      tag_99\n      jump\t// in\n    tag_170:\n        /* \"#utility.yul\":5428:5866   */\n      swap5\n      swap4\n      pop\n      pop\n      pop\n      pop\n      jump\t// out\n        /* \"#utility.yul\":5872:5988   */\n    tag_100:\n        /* \"#utility.yul\":5942:5963   */\n      tag_172\n        /* \"#utility.yul\":5957:5962   */\n      dup2\n        /* \"#utility.yul\":5942:5963   */\n      tag_81\n      jump\t// in\n    tag_172:\n        /* \"#utility.yul\":5935:5940   */\n      dup2\n        /* \"#utility.yul\":5932:5964   */\n      eq\n        /* \"#utility.yul\":5922:5982   */\n      tag_173\n      jumpi\n        /* \"#utility.yul\":5978:5979   */\n      0x00\n        /* \"#utility.yul\":5975:5976   */\n      dup1\n        /* \"#utility.yul\":5968:5980   */\n      revert\n        /* \"#utility.yul\":5922:5982   */\n    tag_173:\n        /* \"#utility.yul\":5872:5988   */\n      pop\n      jump\t// out\n        /* \"#utility.yul\":5994:6131   */\n    tag_101:\n        /* \"#utility.yul\":6048:6053   */\n      0x00\n        /* \"#utility.yul\":6079:6085   */\n      dup2\n        /* \"#utility.yul\":6073:6086   */\n      mload\n        /* \"#utility.yul\":6064:6086   */\n      swap1\n      pop\n        /* \"#utility.yul\":6095:6125   */\n      tag_175\n        /* \"#utility.yul\":6119:6124   */\n      dup2\n        /* \"#utility.yul\":6095:6125   */\n      tag_100\n      jump\t// in\n    tag_175:\n        /* \"#utility.yul\":5994:6131   */\n      swap3\n      swap2\n      pop\n      pop\n      jump\t// out\n        /* \"#utility.yul\":6137:6482   */\n    tag_73:\n        /* \"#utility.yul\":6204:6210   */\n      0x00\n        /* \"#utility.yul\":6253:6255   */\n      0x20\n        /* \"#utility.yul\":6241:6250   */\n      dup3\n        /* \"#utility.yul\":6232:6239   */\n      dup5\n        /* \"#utility.yul\":6228:6251   */\n      sub\n        /* \"#utility.yul\":6224:6256   */\n      slt\n        /* \"#utility.yul\":6221:6340   */\n      iszero\n      tag_177\n      jumpi\n        /* \"#utility.yul\":6259:6338   */\n      tag_178\n      tag_75\n      jump\t// in\n    tag_178:\n        /* \"#utility.yul\":6221:6340   */\n    tag_177:\n        /* \"#utility.yul\":6379:6380   */\n      0x00\n        /* \"#utility.yul\":6404:6465   */\n      tag_179\n        /* \"#utility.yul\":6457:6464   */\n      dup5\n        /* \"#utility.yul\":6448:6454   */\n      dup3\n        /* \"#utility.yul\":6437:6446   */\n      dup6\n        /* \"#utility.yul\":6433:6455   */\n      add\n        /* \"#utility.yul\":6404:6465   */\n      tag_101\n      jump\t// in\n    tag_179:\n        /* \"#utility.yul\":6394:6465   */\n      swap2\n      pop\n        /* \"#utility.yul\":6350:6475   */\n      pop\n        /* \"#utility.yul\":6137:6482   */\n      swap3\n      swap2\n      pop\n      pop\n      jump\t// out\n\n    auxdata: 0xa264697066735822122076ecf68805728ed9cdb756764fbd4989184a35269afcc385c7cd7480412b822c64736f6c63430008140033\n}\n",
				"bytecode": {
					"linkReferences": {},
					"object": "608060405234801561000f575f80fd5b503360015f6101000a81548173ffffffffffffffffffffffffffffffffffffffff021916908373ffffffffffffffffffffffffffffffffffffffff1602179055503373ffffffffffffffffffffffffffffffffffffffff167fce241d7ca1f669fee44b6fc00b8eba2df3bb514eed0f6f668f8f89096e81ed9460405160405180910390a2610a01806100a05f395ff3fe60806040526004361061006f575f3560e01c80637a9e5e4b1161004d5780637a9e5e4b146100cf5780638da5cb5b146100f7578063be9a655514610121578063bf7e214f1461012b5761006f565b806307da68f51461007357806313af40351461007d57806375f12b21146100a5575b5f80fd5b61007b610155565b005b348015610088575f80fd5b506100a3600480360381019061009e9190610705565b61022a565b005b3480156100b0575f80fd5b506100b9610306565b6040516100c6919061074a565b60405180910390f35b3480156100da575f80fd5b506100f560048036038101906100f0919061079e565b610319565b005b348015610102575f80fd5b5061010b6103f2565b60405161011891906107d8565b60405180910390f35b610129610417565b005b348015610136575f80fd5b5061013f6104ec565b60405161014c919061084c565b60405180910390f35b610182335f357fffffffff000000000000000000000000000000000000000000000000000000001661050f565b61018a575f80fd5b5f806004359150602435905080823373ffffffffffffffffffffffffffffffffffffffff165f357fffffffff00000000000000000000000000000000000000000000000000000000167bffffffffffffffffffffffffffffffffffffffffffffffffffffffff1916345f36604051610204939291906108d7565b60405180910390a460018060146101000a81548160ff0219169083151502179055505050565b610257335f357fffffffff000000000000000000000000000000000000000000000000000000001661050f565b61025f575f80fd5b8060015f6101000a81548173ffffffffffffffffffffffffffffffffffffffff021916908373ffffffffffffffffffffffffffffffffffffffff16021790555060015f9054906101000a900473ffffffffffffffffffffffffffffffffffffffff1673ffffffffffffffffffffffffffffffffffffffff167fce241d7ca1f669fee44b6fc00b8eba2df3bb514eed0f6f668f8f89096e81ed9460405160405180910390a250565b600160149054906101000a900460ff1681565b610346335f357fffffffff000000000000000000000000000000000000000000000000000000001661050f565b61034e575f80fd5b805f806101000a81548173ffffffffffffffffffffffffffffffffffffffff021916908373ffffffffffffffffffffffffffffffffffffffff1602179055505f8054906101000a900473ffffffffffffffffffffffffffffffffffffffff1673ffffffffffffffffffffffffffffffffffffffff167f1abebea81bfa2637f28358c371278fb15ede7ea8dd28d2e03b112ff6d936ada460405160405180910390a250565b60015f9054906101000a900473ffffffffffffffffffffffffffffffffffffffff1681565b610444335f357fffffffff000000000000000000000000000000000000000000000000000000001661050f565b61044c575f80fd5b5f806004359150602435905080823373ffffffffffffffffffffffffffffffffffffffff165f357fffffffff00000000000000000000000000000000000000000000000000000000167bffffffffffffffffffffffffffffffffffffffffffffffffffffffff1916345f366040516104c6939291906108d7565b60405180910390a45f600160146101000a81548160ff0219169083151502179055505050565b5f8054906101000a900473ffffffffffffffffffffffffffffffffffffffff1681565b5f3073ffffffffffffffffffffffffffffffffffffffff168373ffffffffffffffffffffffffffffffffffffffff160361054c57600190506106a1565b60015f9054906101000a900473ffffffffffffffffffffffffffffffffffffffff1673ffffffffffffffffffffffffffffffffffffffff168373ffffffffffffffffffffffffffffffffffffffff16036105a957600190506106a1565b5f73ffffffffffffffffffffffffffffffffffffffff165f8054906101000a900473ffffffffffffffffffffffffffffffffffffffff1673ffffffffffffffffffffffffffffffffffffffff1603610603575f90506106a1565b5f8054906101000a900473ffffffffffffffffffffffffffffffffffffffff1673ffffffffffffffffffffffffffffffffffffffff1663b70096138430856040518463ffffffff1660e01b815260040161065f93929190610941565b602060405180830381865afa15801561067a573d5f803e3d5ffd5b505050506040513d601f19601f8201168201806040525081019061069e91906109a0565b90505b92915050565b5f80fd5b5f73ffffffffffffffffffffffffffffffffffffffff82169050919050565b5f6106d4826106ab565b9050919050565b6106e4816106ca565b81146106ee575f80fd5b50565b5f813590506106ff816106db565b92915050565b5f6020828403121561071a576107196106a7565b5b5f610727848285016106f1565b91505092915050565b5f8115159050919050565b61074481610730565b82525050565b5f60208201905061075d5f83018461073b565b92915050565b5f61076d826106ca565b9050919050565b61077d81610763565b8114610787575f80fd5b50565b5f8135905061079881610774565b92915050565b5f602082840312156107b3576107b26106a7565b5b5f6107c08482850161078a565b91505092915050565b6107d2816106ca565b82525050565b5f6020820190506107eb5f8301846107c9565b92915050565b5f819050919050565b5f61081461080f61080a846106ab565b6107f1565b6106ab565b9050919050565b5f610825826107fa565b9050919050565b5f6108368261081b565b9050919050565b6108468161082c565b82525050565b5f60208201905061085f5f83018461083d565b92915050565b5f819050919050565b61087781610865565b82525050565b5f82825260208201905092915050565b828183375f83830152505050565b5f601f19601f8301169050919050565b5f6108b6838561087d565b93506108c383858461088d565b6108cc8361089b565b840190509392505050565b5f6040820190506108ea5f83018661086e565b81810360208301526108fd8184866108ab565b9050949350505050565b5f7fffffffff0000000000000000000000000000000000000000000000000000000082169050919050565b61093b81610907565b82525050565b5f6060820190506109545f8301866107c9565b61096160208301856107c9565b61096e6040830184610932565b949350505050565b61097f81610730565b8114610989575f80fd5b50565b5f8151905061099a81610976565b92915050565b5f602082840312156109b5576109b46106a7565b5b5f6109c28482850161098c565b9150509291505056fea264697066735822122076ecf68805728ed9cdb756764fbd4989184a35269afcc385c7cd7480412b822c64736f6c63430008140033",
					"opcodes": "PUSH1 0x80 PUSH1 0x40 MSTORE CALLVALUE DUP1 ISZERO PUSH2 0xF JUMPI PUSH0 DUP1 REVERT JUMPDEST POP CALLER PUSH1 0x1 PUSH0 PUSH2 0x100 EXP DUP2 SLOAD DUP2 PUSH20 0xFFFFFFFFFFFFFFFFFFFFFFFFFFFFFFFFFFFFFFFF MUL NOT AND SWAP1 DUP4 PUSH20 0xFFFFFFFFFFFFFFFFFFFFFFFFFFFFFFFFFFFFFFFF AND MUL OR SWAP1 SSTORE POP CALLER PUSH20 0xFFFFFFFFFFFFFFFFFFFFFFFFFFFFFFFFFFFFFFFF AND PUSH32 0xCE241D7CA1F669FEE44B6FC00B8EBA2DF3BB514EED0F6F668F8F89096E81ED94 PUSH1 0x40 MLOAD PUSH1 0x40 MLOAD DUP1 SWAP2 SUB SWAP1 LOG2 PUSH2 0xA01 DUP1 PUSH2 0xA0 PUSH0 CODECOPY PUSH0 RETURN INVALID PUSH1 0x80 PUSH1 0x40 MSTORE PUSH1 0x4 CALLDATASIZE LT PUSH2 0x6F JUMPI PUSH0 CALLDATALOAD PUSH1 0xE0 SHR DUP1 PUSH4 0x7A9E5E4B GT PUSH2 0x4D JUMPI DUP1 PUSH4 0x7A9E5E4B EQ PUSH2 0xCF JUMPI DUP1 PUSH4 0x8DA5CB5B EQ PUSH2 0xF7 JUMPI DUP1 PUSH4 0xBE9A6555 EQ PUSH2 0x121 JUMPI DUP1 PUSH4 0xBF7E214F EQ PUSH2 0x12B JUMPI PUSH2 0x6F JUMP JUMPDEST DUP1 PUSH4 0x7DA68F5 EQ PUSH2 0x73 JUMPI DUP1 PUSH4 0x13AF4035 EQ PUSH2 0x7D JUMPI DUP1 PUSH4 0x75F12B21 EQ PUSH2 0xA5 JUMPI JUMPDEST PUSH0 DUP1 REVERT JUMPDEST PUSH2 0x7B PUSH2 0x155 JUMP JUMPDEST STOP JUMPDEST CALLVALUE DUP1 ISZERO PUSH2 0x88 JUMPI PUSH0 DUP1 REVERT JUMPDEST POP PUSH2 0xA3 PUSH1 0x4 DUP1 CALLDATASIZE SUB DUP2 ADD SWAP1 PUSH2 0x9E SWAP2 SWAP1 PUSH2 0x705 JUMP JUMPDEST PUSH2 0x22A JUMP JUMPDEST STOP JUMPDEST CALLVALUE DUP1 ISZERO PUSH2 0xB0 JUMPI PUSH0 DUP1 REVERT JUMPDEST POP PUSH2 0xB9 PUSH2 0x306 JUMP JUMPDEST PUSH1 0x40 MLOAD PUSH2 0xC6 SWAP2 SWAP1 PUSH2 0x74A JUMP JUMPDEST PUSH1 0x40 MLOAD DUP1 SWAP2 SUB SWAP1 RETURN JUMPDEST CALLVALUE DUP1 ISZERO PUSH2 0xDA JUMPI PUSH0 DUP1 REVERT JUMPDEST POP PUSH2 0xF5 PUSH1 0x4 DUP1 CALLDATASIZE SUB DUP2 ADD SWAP1 PUSH2 0xF0 SWAP2 SWAP1 PUSH2 0x79E JUMP JUMPDEST PUSH2 0x319 JUMP JUMPDEST STOP JUMPDEST CALLVALUE DUP1 ISZERO PUSH2 0x102 JUMPI PUSH0 DUP1 REVERT JUMPDEST POP PUSH2 0x10B PUSH2 0x3F2 JUMP JUMPDEST PUSH1 0x40 MLOAD PUSH2 0x118 SWAP2 SWAP1 PUSH2 0x7D8 JUMP JUMPDEST PUSH1 0x40 MLOAD DUP1 SWAP2 SUB SWAP1 RETURN JUMPDEST PUSH2 0x129 PUSH2 0x417 JUMP JUMPDEST STOP JUMPDEST CALLVALUE DUP1 ISZERO PUSH2 0x136 JUMPI PUSH0 DUP1 REVERT JUMPDEST POP PUSH2 0x13F PUSH2 0x4EC JUMP JUMPDEST PUSH1 0x40 MLOAD PUSH2 0x14C SWAP2 SWAP1 PUSH2 0x84C JUMP JUMPDEST PUSH1 0x40 MLOAD DUP1 SWAP2 SUB SWAP1 RETURN JUMPDEST PUSH2 0x182 CALLER PUSH0 CALLDATALOAD PUSH32 0xFFFFFFFF00000000000000000000000000000000000000000000000000000000 AND PUSH2 0x50F JUMP JUMPDEST PUSH2 0x18A JUMPI PUSH0 DUP1 REVERT JUMPDEST PUSH0 DUP1 PUSH1 0x4 CALLDATALOAD SWAP2 POP PUSH1 0x24 CALLDATALOAD SWAP1 POP DUP1 DUP3 CALLER PUSH20 0xFFFFFFFFFFFFFFFFFFFFFFFFFFFFFFFFFFFFFFFF AND PUSH0 CALLDATALOAD PUSH32 0xFFFFFFFF00000000000000000000000000000000000000000000000000000000 AND PUSH28 0xFFFFFFFFFFFFFFFFFFFFFFFFFFFFFFFFFFFFFFFFFFFFFFFFFFFFFFFF NOT AND CALLVALUE PUSH0 CALLDATASIZE PUSH1 0x40 MLOAD PUSH2 0x204 SWAP4 SWAP3 SWAP2 SWAP1 PUSH2 0x8D7 JUMP JUMPDEST PUSH1 0x40 MLOAD DUP1 SWAP2 SUB SWAP1 LOG4 PUSH1 0x1 DUP1 PUSH1 0x14 PUSH2 0x100 EXP DUP2 SLOAD DUP2 PUSH1 0xFF MUL NOT AND SWAP1 DUP4 ISZERO ISZERO MUL OR SWAP1 SSTORE POP POP POP JUMP JUMPDEST PUSH2 0x257 CALLER PUSH0 CALLDATALOAD PUSH32 0xFFFFFFFF00000000000000000000000000000000000000000000000000000000 AND PUSH2 0x50F JUMP JUMPDEST PUSH2 0x25F JUMPI PUSH0 DUP1 REVERT JUMPDEST DUP1 PUSH1 0x1 PUSH0 PUSH2 0x100 EXP DUP2 SLOAD DUP2 PUSH20 0xFFFFFFFFFFFFFFFFFFFFFFFFFFFFFFFFFFFFFFFF MUL NOT AND SWAP1 DUP4 PUSH20 0xFFFFFFFFFFFFFFFFFFFFFFFFFFFFFFFFFFFFFFFF AND MUL OR SWAP1 SSTORE POP PUSH1 0x1 PUSH0 SWAP1 SLOAD SWAP1 PUSH2 0x100 EXP SWAP1 DIV PUSH20 0xFFFFFFFFFFFFFFFFFFFFFFFFFFFFFFFFFFFFFFFF AND PUSH20 0xFFFFFFFFFFFFFFFFFFFFFFFFFFFFFFFFFFFFFFFF AND PUSH32 0xCE241D7CA1F669FEE44B6FC00B8EBA2DF3BB514EED0F6F668F8F89096E81ED94 PUSH1 0x40 MLOAD PUSH1 0x40 MLOAD DUP1 SWAP2 SUB SWAP1 LOG2 POP JUMP JUMPDEST PUSH1 0x1 PUSH1 0x14 SWAP1 SLOAD SWAP1 PUSH2 0x100 EXP SWAP1 DIV PUSH1 0xFF AND DUP2 JUMP JUMPDEST PUSH2 0x346 CALLER PUSH0 CALLDATALOAD PUSH32 0xFFFFFFFF00000000000000000000000000000000000000000000000000000000 AND PUSH2 0x50F JUMP JUMPDEST PUSH2 0x34E JUMPI PUSH0 DUP1 REVERT JUMPDEST DUP1 PUSH0 DUP1 PUSH2 0x100 EXP DUP2 SLOAD DUP2 PUSH20 0xFFFFFFFFFFFFFFFFFFFFFFFFFFFFFFFFFFFFFFFF MUL NOT AND SWAP1 DUP4 PUSH20 0xFFFFFFFFFFFFFFFFFFFFFFFFFFFFFFFFFFFFFFFF AND MUL OR SWAP1 SSTORE POP PUSH0 DUP1 SLOAD SWAP1 PUSH2 0x100 EXP SWAP1 DIV PUSH20 0xFFFFFFFFFFFFFFFFFFFFFFFFFFFFFFFFFFFFFFFF AND PUSH20 0xFFFFFFFFFFFFFFFFFFFFFFFFFFFFFFFFFFFFFFFF AND PUSH32 0x1ABEBEA81BFA2637F28358C371278FB15EDE7EA8DD28D2E03B112FF6D936ADA4 PUSH1 0x40 MLOAD PUSH1 0x40 MLOAD DUP1 SWAP2 SUB SWAP1 LOG2 POP JUMP JUMPDEST PUSH1 0x1 PUSH0 SWAP1 SLOAD SWAP1 PUSH2 0x100 EXP SWAP1 DIV PUSH20 0xFFFFFFFFFFFFFFFFFFFFFFFFFFFFFFFFFFFFFFFF AND DUP2 JUMP JUMPDEST PUSH2 0x444 CALLER PUSH0 CALLDATALOAD PUSH32 0xFFFFFFFF00000000000000000000000000000000000000000000000000000000 AND PUSH2 0x50F JUMP JUMPDEST PUSH2 0x44C JUMPI PUSH0 DUP1 REVERT JUMPDEST PUSH0 DUP1 PUSH1 0x4 CALLDATALOAD SWAP2 POP PUSH1 0x24 CALLDATALOAD SWAP1 POP DUP1 DUP3 CALLER PUSH20 0xFFFFFFFFFFFFFFFFFFFFFFFFFFFFFFFFFFFFFFFF AND PUSH0 CALLDATALOAD PUSH32 0xFFFFFFFF00000000000000000000000000000000000000000000000000000000 AND PUSH28 0xFFFFFFFFFFFFFFFFFFFFFFFFFFFFFFFFFFFFFFFFFFFFFFFFFFFFFFFF NOT AND CALLVALUE PUSH0 CALLDATASIZE PUSH1 0x40 MLOAD PUSH2 0x4C6 SWAP4 SWAP3 SWAP2 SWAP1 PUSH2 0x8D7 JUMP JUMPDEST PUSH1 0x40 MLOAD DUP1 SWAP2 SUB SWAP1 LOG4 PUSH0 PUSH1 0x1 PUSH1 0x14 PUSH2 0x100 EXP DUP2 SLOAD DUP2 PUSH1 0xFF MUL NOT AND SWAP1 DUP4 ISZERO ISZERO MUL OR SWAP1 SSTORE POP POP POP JUMP JUMPDEST PUSH0 DUP1 SLOAD SWAP1 PUSH2 0x100 EXP SWAP1 DIV PUSH20 0xFFFFFFFFFFFFFFFFFFFFFFFFFFFFFFFFFFFFFFFF AND DUP2 JUMP JUMPDEST PUSH0 ADDRESS PUSH20 0xFFFFFFFFFFFFFFFFFFFFFFFFFFFFFFFFFFFFFFFF AND DUP4 PUSH20 0xFFFFFFFFFFFFFFFFFFFFFFFFFFFFFFFFFFFFFFFF AND SUB PUSH2 0x54C JUMPI PUSH1 0x1 SWAP1 POP PUSH2 0x6A1 JUMP JUMPDEST PUSH1 0x1 PUSH0 SWAP1 SLOAD SWAP1 PUSH2 0x100 EXP SWAP1 DIV PUSH20 0xFFFFFFFFFFFFFFFFFFFFFFFFFFFFFFFFFFFFFFFF AND PUSH20 0xFFFFFFFFFFFFFFFFFFFFFFFFFFFFFFFFFFFFFFFF AND DUP4 PUSH20 0xFFFFFFFFFFFFFFFFFFFFFFFFFFFFFFFFFFFFFFFF AND SUB PUSH2 0x5A9 JUMPI PUSH1 0x1 SWAP1 POP PUSH2 0x6A1 JUMP JUMPDEST PUSH0 PUSH20 0xFFFFFFFFFFFFFFFFFFFFFFFFFFFFFFFFFFFFFFFF AND PUSH0 DUP1 SLOAD SWAP1 PUSH2 0x100 EXP SWAP1 DIV PUSH20 0xFFFFFFFFFFFFFFFFFFFFFFFFFFFFFFFFFFFFFFFF AND PUSH20 0xFFFFFFFFFFFFFFFFFFFFFFFFFFFFFFFFFFFFFFFF AND SUB PUSH2 0x603 JUMPI PUSH0 SWAP1 POP PUSH2 0x6A1 JUMP JUMPDEST PUSH0 DUP1 SLOAD SWAP1 PUSH2 0x100 EXP SWAP1 DIV PUSH20 0xFFFFFFFFFFFFFFFFFFFFFFFFFFFFFFFFFFFFFFFF AND PUSH20 0xFFFFFFFFFFFFFFFFFFFFFFFFFFFFFFFFFFFFFFFF AND PUSH4 0xB7009613 DUP5 ADDRESS DUP6 PUSH1 0x40 MLOAD DUP5 PUSH4 0xFFFFFFFF AND PUSH1 0xE0 SHL DUP2 MSTORE PUSH1 0x4 ADD PUSH2 0x65F SWAP4 SWAP3 SWAP2 SWAP1 PUSH2 0x941 JUMP JUMPDEST PUSH1 0x20 PUSH1 0x40 MLOAD DUP1 DUP4 SUB DUP2 DUP7 GAS STATICCALL ISZERO DUP1 ISZERO PUSH2 0x67A JUMPI RETURNDATASIZE PUSH0 DUP1 RETURNDATACOPY RETURNDATASIZE PUSH0 REVERT JUMPDEST POP POP POP POP PUSH1 0x40 MLOAD RETURNDATASIZE PUSH1 0x1F NOT PUSH1 0x1F DUP3 ADD AND DUP3 ADD DUP1 PUSH1 0x40 MSTORE POP DUP2 ADD SWAP1 PUSH2 0x69E SWAP2 SWAP1 PUSH2 0x9A0 JUMP JUMPDEST SWAP1 POP JUMPDEST SWAP3 SWAP2 POP POP JUMP JUMPDEST PUSH0 DUP1 REVERT JUMPDEST PUSH0 PUSH20 0xFFFFFFFFFFFFFFFFFFFFFFFFFFFFFFFFFFFFFFFF DUP3 AND SWAP1 POP SWAP2 SWAP1 POP JUMP JUMPDEST PUSH0 PUSH2 0x6D4 DUP3 PUSH2 0x6AB JUMP JUMPDEST SWAP1 POP SWAP2 SWAP1 POP JUMP JUMPDEST PUSH2 0x6E4 DUP2 PUSH2 0x6CA JUMP JUMPDEST DUP2 EQ PUSH2 0x6EE JUMPI PUSH0 DUP1 REVERT JUMPDEST POP JUMP JUMPDEST PUSH0 DUP2 CALLDATALOAD SWAP1 POP PUSH2 0x6FF DUP2 PUSH2 0x6DB JUMP JUMPDEST SWAP3 SWAP2 POP POP JUMP JUMPDEST PUSH0 PUSH1 0x20 DUP3 DUP5 SUB SLT ISZERO PUSH2 0x71A JUMPI PUSH2 0x719 PUSH2 0x6A7 JUMP JUMPDEST JUMPDEST PUSH0 PUSH2 0x727 DUP5 DUP3 DUP6 ADD PUSH2 0x6F1 JUMP JUMPDEST SWAP2 POP POP SWAP3 SWAP2 POP POP JUMP JUMPDEST PUSH0 DUP2 ISZERO ISZERO SWAP1 POP SWAP2 SWAP1 POP JUMP JUMPDEST PUSH2 0x744 DUP2 PUSH2 0x730 JUMP JUMPDEST DUP3 MSTORE POP POP JUMP JUMPDEST PUSH0 PUSH1 0x20 DUP3 ADD SWAP1 POP PUSH2 0x75D PUSH0 DUP4 ADD DUP5 PUSH2 0x73B JUMP JUMPDEST SWAP3 SWAP2 POP POP JUMP JUMPDEST PUSH0 PUSH2 0x76D DUP3 PUSH2 0x6CA JUMP JUMPDEST SWAP1 POP SWAP2 SWAP1 POP JUMP JUMPDEST PUSH2 0x77D DUP2 PUSH2 0x763 JUMP JUMPDEST DUP2 EQ PUSH2 0x787 JUMPI PUSH0 DUP1 REVERT JUMPDEST POP JUMP JUMPDEST PUSH0 DUP2 CALLDATALOAD SWAP1 POP PUSH2 0x798 DUP2 PUSH2 0x774 JUMP JUMPDEST SWAP3 SWAP2 POP POP JUMP JUMPDEST PUSH0 PUSH1 0x20 DUP3 DUP5 SUB SLT ISZERO PUSH2 0x7B3 JUMPI PUSH2 0x7B2 PUSH2 0x6A7 JUMP JUMPDEST JUMPDEST PUSH0 PUSH2 0x7C0 DUP5 DUP3 DUP6 ADD PUSH2 0x78A JUMP JUMPDEST SWAP2 POP POP SWAP3 SWAP2 POP POP JUMP JUMPDEST PUSH2 0x7D2 DUP2 PUSH2 0x6CA JUMP JUMPDEST DUP3 MSTORE POP POP JUMP JUMPDEST PUSH0 PUSH1 0x20 DUP3 ADD SWAP1 POP PUSH2 0x7EB PUSH0 DUP4 ADD DUP5 PUSH2 0x7C9 JUMP JUMPDEST SWAP3 SWAP2 POP POP JUMP JUMPDEST PUSH0 DUP2 SWAP1 POP SWAP2 SWAP1 POP JUMP JUMPDEST PUSH0 PUSH2 0x814 PUSH2 0x80F PUSH2 0x80A DUP5 PUSH2 0x6AB JUMP JUMPDEST PUSH2 0x7F1 JUMP JUMPDEST PUSH2 0x6AB JUMP JUMPDEST SWAP1 POP SWAP2 SWAP1 POP JUMP JUMPDEST PUSH0 PUSH2 0x825 DUP3 PUSH2 0x7FA JUMP JUMPDEST SWAP1 POP SWAP2 SWAP1 POP JUMP JUMPDEST PUSH0 PUSH2 0x836 DUP3 PUSH2 0x81B JUMP JUMPDEST SWAP1 POP SWAP2 SWAP1 POP JUMP JUMPDEST PUSH2 0x846 DUP2 PUSH2 0x82C JUMP JUMPDEST DUP3 MSTORE POP POP JUMP JUMPDEST PUSH0 PUSH1 0x20 DUP3 ADD SWAP1 POP PUSH2 0x85F PUSH0 DUP4 ADD DUP5 PUSH2 0x83D JUMP JUMPDEST SWAP3 SWAP2 POP POP JUMP JUMPDEST PUSH0 DUP2 SWAP1 POP SWAP2 SWAP1 POP JUMP JUMPDEST PUSH2 0x877 DUP2 PUSH2 0x865 JUMP JUMPDEST DUP3 MSTORE POP POP JUMP JUMPDEST PUSH0 DUP3 DUP3 MSTORE PUSH1 0x20 DUP3 ADD SWAP1 POP SWAP3 SWAP2 POP POP JUMP JUMPDEST DUP3 DUP2 DUP4 CALLDATACOPY PUSH0 DUP4 DUP4 ADD MSTORE POP POP POP JUMP JUMPDEST PUSH0 PUSH1 0x1F NOT PUSH1 0x1F DUP4 ADD AND SWAP1 POP SWAP2 SWAP1 POP JUMP JUMPDEST PUSH0 PUSH2 0x8B6 DUP4 DUP6 PUSH2 0x87D JUMP JUMPDEST SWAP4 POP PUSH2 0x8C3 DUP4 DUP6 DUP5 PUSH2 0x88D JUMP JUMPDEST PUSH2 0x8CC DUP4 PUSH2 0x89B JUMP JUMPDEST DUP5 ADD SWAP1 POP SWAP4 SWAP3 POP POP POP JUMP JUMPDEST PUSH0 PUSH1 0x40 DUP3 ADD SWAP1 POP PUSH2 0x8EA PUSH0 DUP4 ADD DUP7 PUSH2 0x86E JUMP JUMPDEST DUP2 DUP2 SUB PUSH1 0x20 DUP4 ADD MSTORE PUSH2 0x8FD DUP2 DUP5 DUP7 PUSH2 0x8AB JUMP JUMPDEST SWAP1 POP SWAP5 SWAP4 POP POP POP POP JUMP JUMPDEST PUSH0 PUSH32 0xFFFFFFFF00000000000000000000000000000000000000000000000000000000 DUP3 AND SWAP1 POP SWAP2 SWAP1 POP JUMP JUMPDEST PUSH2 0x93B DUP2 PUSH2 0x907 JUMP JUMPDEST DUP3 MSTORE POP POP JUMP JUMPDEST PUSH0 PUSH1 0x60 DUP3 ADD SWAP1 POP PUSH2 0x954 PUSH0 DUP4 ADD DUP7 PUSH2 0x7C9 JUMP JUMPDEST PUSH2 0x961 PUSH1 0x20 DUP4 ADD DUP6 PUSH2 0x7C9 JUMP JUMPDEST PUSH2 0x96E PUSH1 0x40 DUP4 ADD DUP5 PUSH2 0x932 JUMP JUMPDEST SWAP5 SWAP4 POP POP POP POP JUMP JUMPDEST PUSH2 0x97F DUP2 PUSH2 0x730 JUMP JUMPDEST DUP2 EQ PUSH2 0x989 JUMPI PUSH0 DUP1 REVERT JUMPDEST POP JUMP JUMPDEST PUSH0 DUP2 MLOAD SWAP1 POP PUSH2 0x99A DUP2 PUSH2 0x976 JUMP JUMPDEST SWAP3 SWAP2 POP POP JUMP JUMPDEST PUSH0 PUSH1 0x20 DUP3 DUP5 SUB SLT ISZERO PUSH2 0x9B5 JUMPI PUSH2 0x9B4 PUSH2 0x6A7 JUMP JUMPDEST JUMPDEST PUSH0 PUSH2 0x9C2 DUP5 DUP3 DUP6 ADD PUSH2 0x98C JUMP JUMPDEST SWAP2 POP POP SWAP3 SWAP2 POP POP JUMP INVALID LOG2 PUSH5 0x6970667358 0x22 SLT KECCAK256 PUSH23 0xECF68805728ED9CDB756764FBD4989184A35269AFCC385 0xC7 0xCD PUSH21 0x80412B822C64736F6C634300081400330000000000 "
				},
				"gasEstimates": {
					"creation": {
						"codeDepositCost": "512200",
						"executionCost": "25972",
						"totalCost": "538172"
					},
					"external": {
						"authority()": "infinite",
						"owner()": "2530",
						"setAuthority(address)": "infinite",
						"setOwner(address)": "infinite",
						"start()": "infinite",
						"stop()": "infinite",
						"stopped()": "2562"
					}
				},
				"methodIdentifiers": {
					"authority()": "bf7e214f",
					"owner()": "8da5cb5b",
					"setAuthority(address)": "7a9e5e4b",
					"setOwner(address)": "13af4035",
					"start()": "be9a6555",
					"stop()": "07da68f5",
					"stopped()": "75f12b21"
				}
			},
			"storageLayout": {
				"storage": [
					{
						"astId": 27,
						"contract": "/ds-stop/stop.sol:DSStop",
						"label": "authority",
						"offset": 0,
						"slot": "0",
						"type": "t_contract(DSAuthority)13"
					},
					{
						"astId": 29,
						"contract": "/ds-stop/stop.sol:DSStop",
						"label": "owner",
						"offset": 0,
						"slot": "1",
						"type": "t_address"
					},
					{
						"astId": 195,
						"contract": "/ds-stop/stop.sol:DSStop",
						"label": "stopped",
						"offset": 20,
						"slot": "1",
						"type": "t_bool"
					}
				],
				"types": {
					"t_address": {
						"encoding": "inplace",
						"label": "address",
						"numberOfBytes": "20"
					},
					"t_bool": {
						"encoding": "inplace",
						"label": "bool",
						"numberOfBytes": "1"
					},
					"t_contract(DSAuthority)13": {
						"encoding": "inplace",
						"label": "contract DSAuthority",
						"numberOfBytes": "20"
					}
				}
			},
			"userdoc": {
				"kind": "user",
				"methods": {},
				"version": 1
			}
		}
	}
}