{
	"ds-token/token.sol": {
		"DSToken": {
			"abi": [
				{
					"inputs": [
						{
							"internalType": "string",
							"name": "symbol_",
							"type": "string"
						}
					],
					"stateMutability": "nonpayable",
					"type": "constructor"
				},
				{
					"anonymous": false,
					"inputs": [
						{
							"indexed": true,
							"internalType": "address",
							"name": "src",
							"type": "address"
						},
						{
							"indexed": true,
							"internalType": "address",
							"name": "guy",
							"type": "address"
						},
						{
							"indexed": false,
							"internalType": "uint256",
							"name": "wad",
							"type": "uint256"
						}
					],
					"name": "Approval",
					"type": "event"
				},
				{
					"anonymous": false,
					"inputs": [
						{
							"indexed": true,
							"internalType": "address",
							"name": "guy",
							"type": "address"
						},
						{
							"indexed": false,
							"internalType": "uint256",
							"name": "wad",
							"type": "uint256"
						}
					],
					"name": "Burn",
					"type": "event"
				},
				{
					"anonymous": true,
					"inputs": [
						{
							"indexed": true,
							"internalType": "bytes4",
							"name": "sig",
							"type": "bytes4"
						},
						{
							"indexed": true,
							"internalType": "address",
							"name": "guy",
							"type": "address"
						},
						{
							"indexed": true,
							"internalType": "bytes32",
							"name": "foo",
							"type": "bytes32"
						},
						{
							"indexed": true,
							"internalType": "bytes32",
							"name": "bar",
							"type": "bytes32"
						},
						{
							"indexed": false,
							"internalType": "uint256",
							"name": "wad",
							"type": "uint256"
						},
						{
							"indexed": false,
							"internalType": "bytes",
							"name": "fax",
							"type": "bytes"
						}
					],
					"name": "LogNote",
					"type": "event"
				},
				{
					"anonymous": false,
					"inputs": [
						{
							"indexed": true,
							"internalType": "address",
							"name": "authority",
							"type": "address"
						}
					],
					"name": "LogSetAuthority",
					"type": "event"
				},
				{
					"anonymous": false,
					"inputs": [
						{
							"indexed": true,
							"internalType": "address",
							"name": "owner",
							"type": "address"
						}
					],
					"name": "LogSetOwner",
					"type": "event"
				},
				{
					"anonymous": false,
					"inputs": [
						{
							"indexed": true,
							"internalType": "address",
							"name": "guy",
							"type": "address"
						},
						{
							"indexed": false,
							"internalType": "uint256",
							"name": "wad",
							"type": "uint256"
						}
					],
					"name": "Mint",
					"type": "event"
				},
				{
					"anonymous": false,
					"inputs": [
						{
							"indexed": true,
							"internalType": "address",
							"name": "src",
							"type": "address"
						},
						{
							"indexed": true,
							"internalType": "address",
							"name": "dst",
							"type": "address"
						},
						{
							"indexed": false,
							"internalType": "uint256",
							"name": "wad",
							"type": "uint256"
						}
					],
					"name": "Transfer",
					"type": "event"
				},
				{
					"inputs": [
						{
							"internalType": "address",
							"name": "src",
							"type": "address"
						},
						{
							"internalType": "address",
							"name": "guy",
							"type": "address"
						}
					],
					"name": "allowance",
					"outputs": [
						{
							"internalType": "uint256",
							"name": "",
							"type": "uint256"
						}
					],
					"stateMutability": "view",
					"type": "function"
				},
				{
					"inputs": [
						{
							"internalType": "address",
							"name": "guy",
							"type": "address"
						},
						{
							"internalType": "uint256",
							"name": "wad",
							"type": "uint256"
						}
					],
					"name": "approve",
					"outputs": [
						{
							"internalType": "bool",
							"name": "",
							"type": "bool"
						}
					],
					"stateMutability": "nonpayable",
					"type": "function"
				},
				{
					"inputs": [
						{
							"internalType": "address",
							"name": "guy",
							"type": "address"
						}
					],
					"name": "approve",
					"outputs": [
						{
							"internalType": "bool",
							"name": "",
							"type": "bool"
						}
					],
					"stateMutability": "nonpayable",
					"type": "function"
				},
				{
					"inputs": [],
					"name": "authority",
					"outputs": [
						{
							"internalType": "contract DSAuthority",
							"name": "",
							"type": "address"
						}
					],
					"stateMutability": "view",
					"type": "function"
				},
				{
					"inputs": [
						{
							"internalType": "address",
							"name": "src",
							"type": "address"
						}
					],
					"name": "balanceOf",
					"outputs": [
						{
							"internalType": "uint256",
							"name": "",
							"type": "uint256"
						}
					],
					"stateMutability": "view",
					"type": "function"
				},
				{
					"inputs": [
						{
							"internalType": "uint256",
							"name": "wad",
							"type": "uint256"
						}
					],
					"name": "burn",
					"outputs": [],
					"stateMutability": "nonpayable",
					"type": "function"
				},
				{
					"inputs": [
						{
							"internalType": "address",
							"name": "guy",
							"type": "address"
						},
						{
							"internalType": "uint256",
							"name": "wad",
							"type": "uint256"
						}
					],
					"name": "burn",
					"outputs": [],
					"stateMutability": "nonpayable",
					"type": "function"
				},
				{
					"inputs": [],
					"name": "decimals",
					"outputs": [
						{
							"internalType": "uint256",
							"name": "",
							"type": "uint256"
						}
					],
					"stateMutability": "view",
					"type": "function"
				},
				{
					"inputs": [
						{
							"internalType": "address",
							"name": "guy",
							"type": "address"
						},
						{
							"internalType": "uint256",
							"name": "wad",
							"type": "uint256"
						}
					],
					"name": "mint",
					"outputs": [],
					"stateMutability": "nonpayable",
					"type": "function"
				},
				{
					"inputs": [
						{
							"internalType": "uint256",
							"name": "wad",
							"type": "uint256"
						}
					],
					"name": "mint",
					"outputs": [],
					"stateMutability": "nonpayable",
					"type": "function"
				},
				{
					"inputs": [
						{
							"internalType": "address",
							"name": "src",
							"type": "address"
						},
						{
							"internalType": "address",
							"name": "dst",
							"type": "address"
						},
						{
							"internalType": "uint256",
							"name": "wad",
							"type": "uint256"
						}
					],
					"name": "move",
					"outputs": [],
					"stateMutability": "nonpayable",
					"type": "function"
				},
				{
					"inputs": [],
					"name": "name",
					"outputs": [
						{
							"internalType": "string",
							"name": "",
							"type": "string"
						}
					],
					"stateMutability": "view",
					"type": "function"
				},
				{
					"inputs": [],
					"name": "owner",
					"outputs": [
						{
							"internalType": "address",
							"name": "",
							"type": "address"
						}
					],
					"stateMutability": "view",
					"type": "function"
				},
				{
					"inputs": [
						{
							"internalType": "address",
							"name": "src",
							"type": "address"
						},
						{
							"internalType": "uint256",
							"name": "wad",
							"type": "uint256"
						}
					],
					"name": "pull",
					"outputs": [],
					"stateMutability": "nonpayable",
					"type": "function"
				},
				{
					"inputs": [
						{
							"internalType": "address",
							"name": "dst",
							"type": "address"
						},
						{
							"internalType": "uint256",
							"name": "wad",
							"type": "uint256"
						}
					],
					"name": "push",
					"outputs": [],
					"stateMutability": "nonpayable",
					"type": "function"
				},
				{
					"inputs": [
						{
							"internalType": "contract DSAuthority",
							"name": "authority_",
							"type": "address"
						}
					],
					"name": "setAuthority",
					"outputs": [],
					"stateMutability": "nonpayable",
					"type": "function"
				},
				{
					"inputs": [
						{
							"internalType": "string",
							"name": "name_",
							"type": "string"
						}
					],
					"name": "setName",
					"outputs": [],
					"stateMutability": "nonpayable",
					"type": "function"
				},
				{
					"inputs": [
						{
							"internalType": "address",
							"name": "owner_",
							"type": "address"
						}
					],
					"name": "setOwner",
					"outputs": [],
					"stateMutability": "nonpayable",
					"type": "function"
				},
				{
					"inputs": [],
					"name": "start",
					"outputs": [],
					"stateMutability": "payable",
					"type": "function"
				},
				{
					"inputs": [],
					"name": "stop",
					"outputs": [],
					"stateMutability": "payable",
					"type": "function"
				},
				{
					"inputs": [],
					"name": "stopped",
					"outputs": [
						{
							"internalType": "bool",
							"name": "",
							"type": "bool"
						}
					],
					"stateMutability": "view",
					"type": "function"
				},
				{
					"inputs": [],
					"name": "symbol",
					"outputs": [
						{
							"internalType": "string",
							"name": "",
							"type": "string"
						}
					],
					"stateMutability": "view",
					"type": "function"
				},
				{
					"inputs": [],
					"name": "totalSupply",
					"outputs": [
						{
							"internalType": "uint256",
							"name": "",
							"type": "uint256"
						}
					],
					"stateMutability": "view",
					"type": "function"
				},
				{
					"inputs": [
						{
							"internalType": "address",
							"name": "dst",
							"type": "address"
						},
						{
							"internalType": "uint256",
							"name": "wad",
							"type": "uint256"
						}
					],
					"name": "transfer",
					"outputs": [
						{
							"internalType": "bool",
							"name": "",
							"type": "bool"
						}
					],
					"stateMutability": "nonpayable",
					"type": "function"
				},
				{
					"inputs": [
						{
							"internalType": "address",
							"name": "src",
							"type": "address"
						},
						{
							"internalType": "address",
							"name": "dst",
							"type": "address"
						},
						{
							"internalType": "uint256",
							"name": "wad",
							"type": "uint256"
						}
					],
					"name": "transferFrom",
					"outputs": [
						{
							"internalType": "bool",
							"name": "",
							"type": "bool"
						}
					],
					"stateMutability": "nonpayable",
					"type": "function"
				}
			],
			"devdoc": {
				"kind": "dev",
				"methods": {},
				"version": 1
			},
			"evm": {
				"assembly": "    /* \"ds-token/token.sol\":832:3065  contract DSToken is DSTokenBase(0), DSStop {... */\n  mstore(0x40, 0x80)\n    /* \"ds-token/token.sol\":938:940  18 */\n  0x12\n    /* \"ds-token/token.sol\":910:940  uint256  public  decimals = 18 */\n  0x06\n  sstore\n    /* \"ds-token/token.sol\":1022:1097  constructor(string memory symbol_) public {... */\n  callvalue\n  dup1\n  iszero\n  tag_1\n  jumpi\n  0x00\n  dup1\n  revert\ntag_1:\n  pop\n  mload(0x40)\n  sub(codesize, bytecodeSize)\n  dup1\n  bytecodeSize\n  dup4\n  codecopy\n  dup2\n  dup2\n  add\n  0x40\n  mstore\n  dup2\n  add\n  swap1\n  tag_2\n  swap2\n  swap1\n  tag_3\n  jump\t// in\ntag_2:\n    /* \"ds-token/token.sol\":864:865  0 */\n  0x00\n    /* \"ds-token/base.sol\":1129:1135  supply */\n  dup1\n    /* \"ds-token/base.sol\":1105:1114  _balances */\n  0x01\n    /* \"ds-token/base.sol\":1105:1126  _balances[msg.sender] */\n  0x00\n    /* \"ds-token/base.sol\":1115:1125  msg.sender */\n  caller\n    /* \"ds-token/base.sol\":1105:1126  _balances[msg.sender] */\n  0xffffffffffffffffffffffffffffffffffffffff\n  and\n  0xffffffffffffffffffffffffffffffffffffffff\n  and\n  dup2\n  mstore\n  0x20\n  add\n  swap1\n  dup2\n  mstore\n  0x20\n  add\n  0x00\n  keccak256\n    /* \"ds-token/base.sol\":1105:1135  _balances[msg.sender] = supply */\n  dup2\n  swap1\n  sstore\n  pop\n    /* \"ds-token/base.sol\":1155:1161  supply */\n  dup1\n    /* \"ds-token/base.sol\":1145:1152  _supply */\n  0x00\n    /* \"ds-token/base.sol\":1145:1161  _supply = supply */\n  dup2\n  swap1\n  sstore\n  pop\n    /* \"ds-token/base.sol\":1068:1168  constructor (uint supply)  {... */\n  pop\n    /* \"/ds-auth/auth.sol\":1091:1101  msg.sender */\n  caller\n    /* \"/ds-auth/auth.sol\":1083:1088  owner */\n  0x04\n  0x00\n    /* \"/ds-auth/auth.sol\":1083:1101  owner = msg.sender */\n  0x0100\n  exp\n  dup2\n  sload\n  dup2\n  0xffffffffffffffffffffffffffffffffffffffff\n  mul\n  not\n  and\n  swap1\n  dup4\n  0xffffffffffffffffffffffffffffffffffffffff\n  and\n  mul\n  or\n  swap1\n  sstore\n  pop\n    /* \"/ds-auth/auth.sol\":1127:1137  msg.sender */\n  caller\n    /* \"/ds-auth/auth.sol\":1115:1138  LogSetOwner(msg.sender) */\n  0xffffffffffffffffffffffffffffffffffffffff\n  and\n  0xce241d7ca1f669fee44b6fc00b8eba2df3bb514eed0f6f668f8f89096e81ed94\n  mload(0x40)\n  mload(0x40)\n  dup1\n  swap2\n  sub\n  swap1\n  log2\n    /* \"ds-token/token.sol\":1083:1090  symbol_ */\n  dup1\n    /* \"ds-token/token.sol\":1074:1080  symbol */\n  0x05\n    /* \"ds-token/token.sol\":1074:1090  symbol = symbol_ */\n  swap1\n  dup2\n  tag_10\n  swap2\n  swap1\n  tag_11\n  jump\t// in\ntag_10:\n  pop\n    /* \"ds-token/token.sol\":1022:1097  constructor(string memory symbol_) public {... */\n  pop\n    /* \"ds-token/token.sol\":832:3065  contract DSToken is DSTokenBase(0), DSStop {... */\n  jump(tag_12)\n    /* \"#utility.yul\":7:82   */\ntag_13:\n    /* \"#utility.yul\":40:46   */\n  0x00\n    /* \"#utility.yul\":73:75   */\n  0x40\n    /* \"#utility.yul\":67:76   */\n  mload\n    /* \"#utility.yul\":57:76   */\n  swap1\n  pop\n    /* \"#utility.yul\":7:82   */\n  swap1\n  jump\t// out\n    /* \"#utility.yul\":88:205   */\ntag_14:\n    /* \"#utility.yul\":197:198   */\n  0x00\n    /* \"#utility.yul\":194:195   */\n  dup1\n    /* \"#utility.yul\":187:199   */\n  revert\n    /* \"#utility.yul\":211:328   */\ntag_15:\n    /* \"#utility.yul\":320:321   */\n  0x00\n    /* \"#utility.yul\":317:318   */\n  dup1\n    /* \"#utility.yul\":310:322   */\n  revert\n    /* \"#utility.yul\":334:451   */\ntag_16:\n    /* \"#utility.yul\":443:444   */\n  0x00\n    /* \"#utility.yul\":440:441   */\n  dup1\n    /* \"#utility.yul\":433:445   */\n  revert\n    /* \"#utility.yul\":457:574   */\ntag_17:\n    /* \"#utility.yul\":566:567   */\n  0x00\n    /* \"#utility.yul\":563:564   */\n  dup1\n    /* \"#utility.yul\":556:568   */\n  revert\n    /* \"#utility.yul\":580:682   */\ntag_18:\n    /* \"#utility.yul\":621:627   */\n  0x00\n    /* \"#utility.yul\":672:674   */\n  0x1f\n    /* \"#utility.yul\":668:675   */\n  not\n    /* \"#utility.yul\":663:665   */\n  0x1f\n    /* \"#utility.yul\":656:661   */\n  dup4\n    /* \"#utility.yul\":652:666   */\n  add\n    /* \"#utility.yul\":648:676   */\n  and\n    /* \"#utility.yul\":638:676   */\n  swap1\n  pop\n    /* \"#utility.yul\":580:682   */\n  swap2\n  swap1\n  pop\n  jump\t// out\n    /* \"#utility.yul\":688:868   */\ntag_19:\n    /* \"#utility.yul\":736:813   */\n  0x4e487b7100000000000000000000000000000000000000000000000000000000\n    /* \"#utility.yul\":733:734   */\n  0x00\n    /* \"#utility.yul\":726:814   */\n  mstore\n    /* \"#utility.yul\":833:837   */\n  0x41\n    /* \"#utility.yul\":830:831   */\n  0x04\n    /* \"#utility.yul\":823:838   */\n  mstore\n    /* \"#utility.yul\":857:861   */\n  0x24\n    /* \"#utility.yul\":854:855   */\n  0x00\n    /* \"#utility.yul\":847:862   */\n  revert\n    /* \"#utility.yul\":874:1155   */\ntag_20:\n    /* \"#utility.yul\":957:984   */\n  tag_54\n    /* \"#utility.yul\":979:983   */\n  dup3\n    /* \"#utility.yul\":957:984   */\n  tag_18\n  jump\t// in\ntag_54:\n    /* \"#utility.yul\":949:955   */\n  dup2\n    /* \"#utility.yul\":945:985   */\n  add\n    /* \"#utility.yul\":1087:1093   */\n  dup2\n    /* \"#utility.yul\":1075:1085   */\n  dup2\n    /* \"#utility.yul\":1072:1094   */\n  lt\n    /* \"#utility.yul\":1051:1069   */\n  0xffffffffffffffff\n    /* \"#utility.yul\":1039:1049   */\n  dup3\n    /* \"#utility.yul\":1036:1070   */\n  gt\n    /* \"#utility.yul\":1033:1095   */\n  or\n    /* \"#utility.yul\":1030:1118   */\n  iszero\n  tag_55\n  jumpi\n    /* \"#utility.yul\":1098:1116   */\n  tag_56\n  tag_19\n  jump\t// in\ntag_56:\n    /* \"#utility.yul\":1030:1118   */\ntag_55:\n    /* \"#utility.yul\":1138:1148   */\n  dup1\n    /* \"#utility.yul\":1134:1136   */\n  0x40\n    /* \"#utility.yul\":1127:1149   */\n  mstore\n    /* \"#utility.yul\":917:1155   */\n  pop\n    /* \"#utility.yul\":874:1155   */\n  pop\n  pop\n  jump\t// out\n    /* \"#utility.yul\":1161:1290   */\ntag_21:\n    /* \"#utility.yul\":1195:1201   */\n  0x00\n    /* \"#utility.yul\":1222:1242   */\n  tag_58\n  tag_13\n  jump\t// in\ntag_58:\n    /* \"#utility.yul\":1212:1242   */\n  swap1\n  pop\n    /* \"#utility.yul\":1251:1284   */\n  tag_59\n    /* \"#utility.yul\":1279:1283   */\n  dup3\n    /* \"#utility.yul\":1271:1277   */\n  dup3\n    /* \"#utility.yul\":1251:1284   */\n  tag_20\n  jump\t// in\ntag_59:\n    /* \"#utility.yul\":1161:1290   */\n  swap2\n  swap1\n  pop\n  jump\t// out\n    /* \"#utility.yul\":1296:1604   */\ntag_22:\n    /* \"#utility.yul\":1358:1362   */\n  0x00\n    /* \"#utility.yul\":1448:1466   */\n  0xffffffffffffffff\n    /* \"#utility.yul\":1440:1446   */\n  dup3\n    /* \"#utility.yul\":1437:1467   */\n  gt\n    /* \"#utility.yul\":1434:1490   */\n  iszero\n  tag_61\n  jumpi\n    /* \"#utility.yul\":1470:1488   */\n  tag_62\n  tag_19\n  jump\t// in\ntag_62:\n    /* \"#utility.yul\":1434:1490   */\ntag_61:\n    /* \"#utility.yul\":1508:1537   */\n  tag_63\n    /* \"#utility.yul\":1530:1536   */\n  dup3\n    /* \"#utility.yul\":1508:1537   */\n  tag_18\n  jump\t// in\ntag_63:\n    /* \"#utility.yul\":1500:1537   */\n  swap1\n  pop\n    /* \"#utility.yul\":1592:1596   */\n  0x20\n    /* \"#utility.yul\":1586:1590   */\n  dup2\n    /* \"#utility.yul\":1582:1597   */\n  add\n    /* \"#utility.yul\":1574:1597   */\n  swap1\n  pop\n    /* \"#utility.yul\":1296:1604   */\n  swap2\n  swap1\n  pop\n  jump\t// out\n    /* \"#utility.yul\":1610:1856   */\ntag_23:\n    /* \"#utility.yul\":1691:1692   */\n  0x00\n    /* \"#utility.yul\":1701:1814   */\ntag_65:\n    /* \"#utility.yul\":1715:1721   */\n  dup4\n    /* \"#utility.yul\":1712:1713   */\n  dup2\n    /* \"#utility.yul\":1709:1722   */\n  lt\n    /* \"#utility.yul\":1701:1814   */\n  iszero\n  tag_67\n  jumpi\n    /* \"#utility.yul\":1800:1801   */\n  dup1\n    /* \"#utility.yul\":1795:1798   */\n  dup3\n    /* \"#utility.yul\":1791:1802   */\n  add\n    /* \"#utility.yul\":1785:1803   */\n  mload\n    /* \"#utility.yul\":1781:1782   */\n  dup2\n    /* \"#utility.yul\":1776:1779   */\n  dup5\n    /* \"#utility.yul\":1772:1783   */\n  add\n    /* \"#utility.yul\":1765:1804   */\n  mstore\n    /* \"#utility.yul\":1737:1739   */\n  0x20\n    /* \"#utility.yul\":1734:1735   */\n  dup2\n    /* \"#utility.yul\":1730:1740   */\n  add\n    /* \"#utility.yul\":1725:1740   */\n  swap1\n  pop\n    /* \"#utility.yul\":1701:1814   */\n  jump(tag_65)\ntag_67:\n    /* \"#utility.yul\":1848:1849   */\n  0x00\n    /* \"#utility.yul\":1839:1845   */\n  dup5\n    /* \"#utility.yul\":1834:1837   */\n  dup5\n    /* \"#utility.yul\":1830:1846   */\n  add\n    /* \"#utility.yul\":1823:1850   */\n  mstore\n    /* \"#utility.yul\":1672:1856   */\n  pop\n    /* \"#utility.yul\":1610:1856   */\n  pop\n  pop\n  pop\n  jump\t// out\n    /* \"#utility.yul\":1862:2296   */\ntag_24:\n    /* \"#utility.yul\":1951:1956   */\n  0x00\n    /* \"#utility.yul\":1976:2042   */\n  tag_69\n    /* \"#utility.yul\":1992:2041   */\n  tag_70\n    /* \"#utility.yul\":2034:2040   */\n  dup5\n    /* \"#utility.yul\":1992:2041   */\n  tag_22\n  jump\t// in\ntag_70:\n    /* \"#utility.yul\":1976:2042   */\n  tag_21\n  jump\t// in\ntag_69:\n    /* \"#utility.yul\":1967:2042   */\n  swap1\n  pop\n    /* \"#utility.yul\":2065:2071   */\n  dup3\n    /* \"#utility.yul\":2058:2063   */\n  dup2\n    /* \"#utility.yul\":2051:2072   */\n  mstore\n    /* \"#utility.yul\":2103:2107   */\n  0x20\n    /* \"#utility.yul\":2096:2101   */\n  dup2\n    /* \"#utility.yul\":2092:2108   */\n  add\n    /* \"#utility.yul\":2141:2144   */\n  dup5\n    /* \"#utility.yul\":2132:2138   */\n  dup5\n    /* \"#utility.yul\":2127:2130   */\n  dup5\n    /* \"#utility.yul\":2123:2139   */\n  add\n    /* \"#utility.yul\":2120:2145   */\n  gt\n    /* \"#utility.yul\":2117:2229   */\n  iszero\n  tag_71\n  jumpi\n    /* \"#utility.yul\":2148:2227   */\n  tag_72\n  tag_17\n  jump\t// in\ntag_72:\n    /* \"#utility.yul\":2117:2229   */\ntag_71:\n    /* \"#utility.yul\":2238:2290   */\n  tag_73\n    /* \"#utility.yul\":2283:2289   */\n  dup5\n    /* \"#utility.yul\":2278:2281   */\n  dup3\n    /* \"#utility.yul\":2273:2276   */\n  dup6\n    /* \"#utility.yul\":2238:2290   */\n  tag_23\n  jump\t// in\ntag_73:\n    /* \"#utility.yul\":1957:2296   */\n  pop\n    /* \"#utility.yul\":1862:2296   */\n  swap4\n  swap3\n  pop\n  pop\n  pop\n  jump\t// out\n    /* \"#utility.yul\":2316:2671   */\ntag_25:\n    /* \"#utility.yul\":2383:2388   */\n  0x00\n    /* \"#utility.yul\":2432:2435   */\n  dup3\n    /* \"#utility.yul\":2425:2429   */\n  0x1f\n    /* \"#utility.yul\":2417:2423   */\n  dup4\n    /* \"#utility.yul\":2413:2430   */\n  add\n    /* \"#utility.yul\":2409:2436   */\n  slt\n    /* \"#utility.yul\":2399:2521   */\n  tag_75\n  jumpi\n    /* \"#utility.yul\":2440:2519   */\n  tag_76\n  tag_16\n  jump\t// in\ntag_76:\n    /* \"#utility.yul\":2399:2521   */\ntag_75:\n    /* \"#utility.yul\":2550:2556   */\n  dup2\n    /* \"#utility.yul\":2544:2557   */\n  mload\n    /* \"#utility.yul\":2575:2665   */\n  tag_77\n    /* \"#utility.yul\":2661:2664   */\n  dup5\n    /* \"#utility.yul\":2653:2659   */\n  dup3\n    /* \"#utility.yul\":2646:2650   */\n  0x20\n    /* \"#utility.yul\":2638:2644   */\n  dup7\n    /* \"#utility.yul\":2634:2651   */\n  add\n    /* \"#utility.yul\":2575:2665   */\n  tag_24\n  jump\t// in\ntag_77:\n    /* \"#utility.yul\":2566:2665   */\n  swap2\n  pop\n    /* \"#utility.yul\":2389:2671   */\n  pop\n    /* \"#utility.yul\":2316:2671   */\n  swap3\n  swap2\n  pop\n  pop\n  jump\t// out\n    /* \"#utility.yul\":2677:3201   */\ntag_3:\n    /* \"#utility.yul\":2757:2763   */\n  0x00\n    /* \"#utility.yul\":2806:2808   */\n  0x20\n    /* \"#utility.yul\":2794:2803   */\n  dup3\n    /* \"#utility.yul\":2785:2792   */\n  dup5\n    /* \"#utility.yul\":2781:2804   */\n  sub\n    /* \"#utility.yul\":2777:2809   */\n  slt\n    /* \"#utility.yul\":2774:2893   */\n  iszero\n  tag_79\n  jumpi\n    /* \"#utility.yul\":2812:2891   */\n  tag_80\n  tag_14\n  jump\t// in\ntag_80:\n    /* \"#utility.yul\":2774:2893   */\ntag_79:\n    /* \"#utility.yul\":2953:2954   */\n  0x00\n    /* \"#utility.yul\":2942:2951   */\n  dup3\n    /* \"#utility.yul\":2938:2955   */\n  add\n    /* \"#utility.yul\":2932:2956   */\n  mload\n    /* \"#utility.yul\":2983:3001   */\n  0xffffffffffffffff\n    /* \"#utility.yul\":2975:2981   */\n  dup2\n    /* \"#utility.yul\":2972:3002   */\n  gt\n    /* \"#utility.yul\":2969:3086   */\n  iszero\n  tag_81\n  jumpi\n    /* \"#utility.yul\":3005:3084   */\n  tag_82\n  tag_15\n  jump\t// in\ntag_82:\n    /* \"#utility.yul\":2969:3086   */\ntag_81:\n    /* \"#utility.yul\":3110:3184   */\n  tag_83\n    /* \"#utility.yul\":3176:3183   */\n  dup5\n    /* \"#utility.yul\":3167:3173   */\n  dup3\n    /* \"#utility.yul\":3156:3165   */\n  dup6\n    /* \"#utility.yul\":3152:3174   */\n  add\n    /* \"#utility.yul\":3110:3184   */\n  tag_25\n  jump\t// in\ntag_83:\n    /* \"#utility.yul\":3100:3184   */\n  swap2\n  pop\n    /* \"#utility.yul\":2903:3194   */\n  pop\n    /* \"#utility.yul\":2677:3201   */\n  swap3\n  swap2\n  pop\n  pop\n  jump\t// out\n    /* \"#utility.yul\":3207:3306   */\ntag_26:\n    /* \"#utility.yul\":3259:3265   */\n  0x00\n    /* \"#utility.yul\":3293:3298   */\n  dup2\n    /* \"#utility.yul\":3287:3299   */\n  mload\n    /* \"#utility.yul\":3277:3299   */\n  swap1\n  pop\n    /* \"#utility.yul\":3207:3306   */\n  swap2\n  swap1\n  pop\n  jump\t// out\n    /* \"#utility.yul\":3312:3492   */\ntag_27:\n    /* \"#utility.yul\":3360:3437   */\n  0x4e487b7100000000000000000000000000000000000000000000000000000000\n    /* \"#utility.yul\":3357:3358   */\n  0x00\n    /* \"#utility.yul\":3350:3438   */\n  mstore\n    /* \"#utility.yul\":3457:3461   */\n  0x22\n    /* \"#utility.yul\":3454:3455   */\n  0x04\n    /* \"#utility.yul\":3447:3462   */\n  mstore\n    /* \"#utility.yul\":3481:3485   */\n  0x24\n    /* \"#utility.yul\":3478:3479   */\n  0x00\n    /* \"#utility.yul\":3471:3486   */\n  revert\n    /* \"#utility.yul\":3498:3818   */\ntag_28:\n    /* \"#utility.yul\":3542:3548   */\n  0x00\n    /* \"#utility.yul\":3579:3580   */\n  0x02\n    /* \"#utility.yul\":3573:3577   */\n  dup3\n    /* \"#utility.yul\":3569:3581   */\n  div\n    /* \"#utility.yul\":3559:3581   */\n  swap1\n  pop\n    /* \"#utility.yul\":3626:3627   */\n  0x01\n    /* \"#utility.yul\":3620:3624   */\n  dup3\n    /* \"#utility.yul\":3616:3628   */\n  and\n    /* \"#utility.yul\":3647:3665   */\n  dup1\n    /* \"#utility.yul\":3637:3718   */\n  tag_87\n  jumpi\n    /* \"#utility.yul\":3703:3707   */\n  0x7f\n    /* \"#utility.yul\":3695:3701   */\n  dup3\n    /* \"#utility.yul\":3691:3708   */\n  and\n    /* \"#utility.yul\":3681:3708   */\n  swap2\n  pop\n    /* \"#utility.yul\":3637:3718   */\ntag_87:\n    /* \"#utility.yul\":3765:3767   */\n  0x20\n    /* \"#utility.yul\":3757:3763   */\n  dup3\n    /* \"#utility.yul\":3754:3768   */\n  lt\n    /* \"#utility.yul\":3734:3752   */\n  dup2\n    /* \"#utility.yul\":3731:3769   */\n  sub\n    /* \"#utility.yul\":3728:3812   */\n  tag_88\n  jumpi\n    /* \"#utility.yul\":3784:3802   */\n  tag_89\n  tag_27\n  jump\t// in\ntag_89:\n    /* \"#utility.yul\":3728:3812   */\ntag_88:\n    /* \"#utility.yul\":3549:3818   */\n  pop\n    /* \"#utility.yul\":3498:3818   */\n  swap2\n  swap1\n  pop\n  jump\t// out\n    /* \"#utility.yul\":3824:3965   */\ntag_29:\n    /* \"#utility.yul\":3873:3877   */\n  0x00\n    /* \"#utility.yul\":3896:3899   */\n  dup2\n    /* \"#utility.yul\":3888:3899   */\n  swap1\n  pop\n    /* \"#utility.yul\":3919:3922   */\n  dup2\n    /* \"#utility.yul\":3916:3917   */\n  0x00\n    /* \"#utility.yul\":3909:3923   */\n  mstore\n    /* \"#utility.yul\":3953:3957   */\n  0x20\n    /* \"#utility.yul\":3950:3951   */\n  0x00\n    /* \"#utility.yul\":3940:3958   */\n  keccak256\n    /* \"#utility.yul\":3932:3958   */\n  swap1\n  pop\n    /* \"#utility.yul\":3824:3965   */\n  swap2\n  swap1\n  pop\n  jump\t// out\n    /* \"#utility.yul\":3971:4064   */\ntag_30:\n    /* \"#utility.yul\":4008:4014   */\n  0x00\n    /* \"#utility.yul\":4055:4057   */\n  0x20\n    /* \"#utility.yul\":4050:4052   */\n  0x1f\n    /* \"#utility.yul\":4043:4048   */\n  dup4\n    /* \"#utility.yul\":4039:4053   */\n  add\n    /* \"#utility.yul\":4035:4058   */\n  div\n    /* \"#utility.yul\":4025:4058   */\n  swap1\n  pop\n    /* \"#utility.yul\":3971:4064   */\n  swap2\n  swap1\n  pop\n  jump\t// out\n    /* \"#utility.yul\":4070:4177   */\ntag_31:\n    /* \"#utility.yul\":4114:4122   */\n  0x00\n    /* \"#utility.yul\":4164:4169   */\n  dup3\n    /* \"#utility.yul\":4158:4162   */\n  dup3\n    /* \"#utility.yul\":4154:4170   */\n  shl\n    /* \"#utility.yul\":4133:4170   */\n  swap1\n  pop\n    /* \"#utility.yul\":4070:4177   */\n  swap3\n  swap2\n  pop\n  pop\n  jump\t// out\n    /* \"#utility.yul\":4183:4576   */\ntag_32:\n    /* \"#utility.yul\":4252:4258   */\n  0x00\n    /* \"#utility.yul\":4302:4303   */\n  0x08\n    /* \"#utility.yul\":4290:4300   */\n  dup4\n    /* \"#utility.yul\":4286:4304   */\n  mul\n    /* \"#utility.yul\":4325:4422   */\n  tag_94\n    /* \"#utility.yul\":4355:4421   */\n  0xffffffffffffffffffffffffffffffffffffffffffffffffffffffffffffffff\n    /* \"#utility.yul\":4344:4353   */\n  dup3\n    /* \"#utility.yul\":4325:4422   */\n  tag_31\n  jump\t// in\ntag_94:\n    /* \"#utility.yul\":4443:4482   */\n  tag_95\n    /* \"#utility.yul\":4473:4481   */\n  dup7\n    /* \"#utility.yul\":4462:4471   */\n  dup4\n    /* \"#utility.yul\":4443:4482   */\n  tag_31\n  jump\t// in\ntag_95:\n    /* \"#utility.yul\":4431:4482   */\n  swap6\n  pop\n    /* \"#utility.yul\":4515:4519   */\n  dup1\n    /* \"#utility.yul\":4511:4520   */\n  not\n    /* \"#utility.yul\":4504:4509   */\n  dup5\n    /* \"#utility.yul\":4500:4521   */\n  and\n    /* \"#utility.yul\":4491:4521   */\n  swap4\n  pop\n    /* \"#utility.yul\":4564:4568   */\n  dup1\n    /* \"#utility.yul\":4554:4562   */\n  dup7\n    /* \"#utility.yul\":4550:4569   */\n  and\n    /* \"#utility.yul\":4543:4548   */\n  dup5\n    /* \"#utility.yul\":4540:4570   */\n  or\n    /* \"#utility.yul\":4530:4570   */\n  swap3\n  pop\n    /* \"#utility.yul\":4259:4576   */\n  pop\n  pop\n    /* \"#utility.yul\":4183:4576   */\n  swap4\n  swap3\n  pop\n  pop\n  pop\n  jump\t// out\n    /* \"#utility.yul\":4582:4659   */\ntag_33:\n    /* \"#utility.yul\":4619:4626   */\n  0x00\n    /* \"#utility.yul\":4648:4653   */\n  dup2\n    /* \"#utility.yul\":4637:4653   */\n  swap1\n  pop\n    /* \"#utility.yul\":4582:4659   */\n  swap2\n  swap1\n  pop\n  jump\t// out\n    /* \"#utility.yul\":4665:4725   */\ntag_34:\n    /* \"#utility.yul\":4693:4696   */\n  0x00\n    /* \"#utility.yul\":4714:4719   */\n  dup2\n    /* \"#utility.yul\":4707:4719   */\n  swap1\n  pop\n    /* \"#utility.yul\":4665:4725   */\n  swap2\n  swap1\n  pop\n  jump\t// out\n    /* \"#utility.yul\":4731:4873   */\ntag_35:\n    /* \"#utility.yul\":4781:4790   */\n  0x00\n    /* \"#utility.yul\":4814:4867   */\n  tag_99\n    /* \"#utility.yul\":4832:4866   */\n  tag_100\n    /* \"#utility.yul\":4841:4865   */\n  tag_101\n    /* \"#utility.yul\":4859:4864   */\n  dup5\n    /* \"#utility.yul\":4841:4865   */\n  tag_33\n  jump\t// in\ntag_101:\n    /* \"#utility.yul\":4832:4866   */\n  tag_34\n  jump\t// in\ntag_100:\n    /* \"#utility.yul\":4814:4867   */\n  tag_33\n  jump\t// in\ntag_99:\n    /* \"#utility.yul\":4801:4867   */\n  swap1\n  pop\n    /* \"#utility.yul\":4731:4873   */\n  swap2\n  swap1\n  pop\n  jump\t// out\n    /* \"#utility.yul\":4879:4954   */\ntag_36:\n    /* \"#utility.yul\":4922:4925   */\n  0x00\n    /* \"#utility.yul\":4943:4948   */\n  dup2\n    /* \"#utility.yul\":4936:4948   */\n  swap1\n  pop\n    /* \"#utility.yul\":4879:4954   */\n  swap2\n  swap1\n  pop\n  jump\t// out\n    /* \"#utility.yul\":4960:5229   */\ntag_37:\n    /* \"#utility.yul\":5070:5109   */\n  tag_104\n    /* \"#utility.yul\":5101:5108   */\n  dup4\n    /* \"#utility.yul\":5070:5109   */\n  tag_35\n  jump\t// in\ntag_104:\n    /* \"#utility.yul\":5131:5222   */\n  tag_105\n    /* \"#utility.yul\":5180:5221   */\n  tag_106\n    /* \"#utility.yul\":5204:5220   */\n  dup3\n    /* \"#utility.yul\":5180:5221   */\n  tag_36\n  jump\t// in\ntag_106:\n    /* \"#utility.yul\":5172:5178   */\n  dup5\n    /* \"#utility.yul\":5165:5169   */\n  dup5\n    /* \"#utility.yul\":5159:5170   */\n  sload\n    /* \"#utility.yul\":5131:5222   */\n  tag_32\n  jump\t// in\ntag_105:\n    /* \"#utility.yul\":5125:5129   */\n  dup3\n    /* \"#utility.yul\":5118:5223   */\n  sstore\n    /* \"#utility.yul\":5036:5229   */\n  pop\n    /* \"#utility.yul\":4960:5229   */\n  pop\n  pop\n  pop\n  jump\t// out\n    /* \"#utility.yul\":5235:5308   */\ntag_38:\n    /* \"#utility.yul\":5280:5283   */\n  0x00\n    /* \"#utility.yul\":5235:5308   */\n  swap1\n  jump\t// out\n    /* \"#utility.yul\":5314:5503   */\ntag_39:\n    /* \"#utility.yul\":5391:5423   */\n  tag_109\n  tag_38\n  jump\t// in\ntag_109:\n    /* \"#utility.yul\":5432:5497   */\n  tag_110\n    /* \"#utility.yul\":5490:5496   */\n  dup2\n    /* \"#utility.yul\":5482:5488   */\n  dup5\n    /* \"#utility.yul\":5476:5480   */\n  dup5\n    /* \"#utility.yul\":5432:5497   */\n  tag_37\n  jump\t// in\ntag_110:\n    /* \"#utility.yul\":5367:5503   */\n  pop\n    /* \"#utility.yul\":5314:5503   */\n  pop\n  pop\n  jump\t// out\n    /* \"#utility.yul\":5509:5695   */\ntag_40:\n    /* \"#utility.yul\":5569:5689   */\ntag_112:\n    /* \"#utility.yul\":5586:5589   */\n  dup2\n    /* \"#utility.yul\":5579:5584   */\n  dup2\n    /* \"#utility.yul\":5576:5590   */\n  lt\n    /* \"#utility.yul\":5569:5689   */\n  iszero\n  tag_114\n  jumpi\n    /* \"#utility.yul\":5640:5679   */\n  tag_115\n    /* \"#utility.yul\":5677:5678   */\n  0x00\n    /* \"#utility.yul\":5670:5675   */\n  dup3\n    /* \"#utility.yul\":5640:5679   */\n  tag_39\n  jump\t// in\ntag_115:\n    /* \"#utility.yul\":5613:5614   */\n  0x01\n    /* \"#utility.yul\":5606:5611   */\n  dup2\n    /* \"#utility.yul\":5602:5615   */\n  add\n    /* \"#utility.yul\":5593:5615   */\n  swap1\n  pop\n    /* \"#utility.yul\":5569:5689   */\n  jump(tag_112)\ntag_114:\n    /* \"#utility.yul\":5509:5695   */\n  pop\n  pop\n  jump\t// out\n    /* \"#utility.yul\":5701:6244   */\ntag_41:\n    /* \"#utility.yul\":5802:5804   */\n  0x1f\n    /* \"#utility.yul\":5797:5800   */\n  dup3\n    /* \"#utility.yul\":5794:5805   */\n  gt\n    /* \"#utility.yul\":5791:6237   */\n  iszero\n  tag_117\n  jumpi\n    /* \"#utility.yul\":5836:5874   */\n  tag_118\n    /* \"#utility.yul\":5868:5873   */\n  dup2\n    /* \"#utility.yul\":5836:5874   */\n  tag_29\n  jump\t// in\ntag_118:\n    /* \"#utility.yul\":5920:5949   */\n  tag_119\n    /* \"#utility.yul\":5938:5948   */\n  dup5\n    /* \"#utility.yul\":5920:5949   */\n  tag_30\n  jump\t// in\ntag_119:\n    /* \"#utility.yul\":5910:5918   */\n  dup2\n    /* \"#utility.yul\":5906:5950   */\n  add\n    /* \"#utility.yul\":6103:6105   */\n  0x20\n    /* \"#utility.yul\":6091:6101   */\n  dup6\n    /* \"#utility.yul\":6088:6106   */\n  lt\n    /* \"#utility.yul\":6085:6134   */\n  iszero\n  tag_120\n  jumpi\n    /* \"#utility.yul\":6124:6132   */\n  dup2\n    /* \"#utility.yul\":6109:6132   */\n  swap1\n  pop\n    /* \"#utility.yul\":6085:6134   */\ntag_120:\n    /* \"#utility.yul\":6147:6227   */\n  tag_121\n    /* \"#utility.yul\":6203:6225   */\n  tag_122\n    /* \"#utility.yul\":6221:6224   */\n  dup6\n    /* \"#utility.yul\":6203:6225   */\n  tag_30\n  jump\t// in\ntag_122:\n    /* \"#utility.yul\":6193:6201   */\n  dup4\n    /* \"#utility.yul\":6189:6226   */\n  add\n    /* \"#utility.yul\":6176:6187   */\n  dup3\n    /* \"#utility.yul\":6147:6227   */\n  tag_40\n  jump\t// in\ntag_121:\n    /* \"#utility.yul\":5806:6237   */\n  pop\n  pop\n    /* \"#utility.yul\":5791:6237   */\ntag_117:\n    /* \"#utility.yul\":5701:6244   */\n  pop\n  pop\n  pop\n  jump\t// out\n    /* \"#utility.yul\":6250:6367   */\ntag_42:\n    /* \"#utility.yul\":6304:6312   */\n  0x00\n    /* \"#utility.yul\":6354:6359   */\n  dup3\n    /* \"#utility.yul\":6348:6352   */\n  dup3\n    /* \"#utility.yul\":6344:6360   */\n  shr\n    /* \"#utility.yul\":6323:6360   */\n  swap1\n  pop\n    /* \"#utility.yul\":6250:6367   */\n  swap3\n  swap2\n  pop\n  pop\n  jump\t// out\n    /* \"#utility.yul\":6373:6542   */\ntag_43:\n    /* \"#utility.yul\":6417:6423   */\n  0x00\n    /* \"#utility.yul\":6450:6501   */\n  tag_125\n    /* \"#utility.yul\":6498:6499   */\n  0x00\n    /* \"#utility.yul\":6494:6500   */\n  not\n    /* \"#utility.yul\":6486:6491   */\n  dup5\n    /* \"#utility.yul\":6483:6484   */\n  0x08\n    /* \"#utility.yul\":6479:6492   */\n  mul\n    /* \"#utility.yul\":6450:6501   */\n  tag_42\n  jump\t// in\ntag_125:\n    /* \"#utility.yul\":6446:6502   */\n  not\n    /* \"#utility.yul\":6531:6535   */\n  dup1\n    /* \"#utility.yul\":6525:6529   */\n  dup4\n    /* \"#utility.yul\":6521:6536   */\n  and\n    /* \"#utility.yul\":6511:6536   */\n  swap2\n  pop\n    /* \"#utility.yul\":6424:6542   */\n  pop\n    /* \"#utility.yul\":6373:6542   */\n  swap3\n  swap2\n  pop\n  pop\n  jump\t// out\n    /* \"#utility.yul\":6547:6842   */\ntag_44:\n    /* \"#utility.yul\":6623:6627   */\n  0x00\n    /* \"#utility.yul\":6769:6798   */\n  tag_127\n    /* \"#utility.yul\":6794:6797   */\n  dup4\n    /* \"#utility.yul\":6788:6792   */\n  dup4\n    /* \"#utility.yul\":6769:6798   */\n  tag_43\n  jump\t// in\ntag_127:\n    /* \"#utility.yul\":6761:6798   */\n  swap2\n  pop\n    /* \"#utility.yul\":6831:6834   */\n  dup3\n    /* \"#utility.yul\":6828:6829   */\n  0x02\n    /* \"#utility.yul\":6824:6835   */\n  mul\n    /* \"#utility.yul\":6818:6822   */\n  dup3\n    /* \"#utility.yul\":6815:6836   */\n  or\n    /* \"#utility.yul\":6807:6836   */\n  swap1\n  pop\n    /* \"#utility.yul\":6547:6842   */\n  swap3\n  swap2\n  pop\n  pop\n  jump\t// out\n    /* \"#utility.yul\":6847:8242   */\ntag_11:\n    /* \"#utility.yul\":6964:7001   */\n  tag_129\n    /* \"#utility.yul\":6997:7000   */\n  dup3\n    /* \"#utility.yul\":6964:7001   */\n  tag_26\n  jump\t// in\ntag_129:\n    /* \"#utility.yul\":7066:7084   */\n  0xffffffffffffffff\n    /* \"#utility.yul\":7058:7064   */\n  dup2\n    /* \"#utility.yul\":7055:7085   */\n  gt\n    /* \"#utility.yul\":7052:7108   */\n  iszero\n  tag_130\n  jumpi\n    /* \"#utility.yul\":7088:7106   */\n  tag_131\n  tag_19\n  jump\t// in\ntag_131:\n    /* \"#utility.yul\":7052:7108   */\ntag_130:\n    /* \"#utility.yul\":7132:7170   */\n  tag_132\n    /* \"#utility.yul\":7164:7168   */\n  dup3\n    /* \"#utility.yul\":7158:7169   */\n  sload\n    /* \"#utility.yul\":7132:7170   */\n  tag_28\n  jump\t// in\ntag_132:\n    /* \"#utility.yul\":7217:7284   */\n  tag_133\n    /* \"#utility.yul\":7277:7283   */\n  dup3\n    /* \"#utility.yul\":7269:7275   */\n  dup3\n    /* \"#utility.yul\":7263:7267   */\n  dup6\n    /* \"#utility.yul\":7217:7284   */\n  tag_41\n  jump\t// in\ntag_133:\n    /* \"#utility.yul\":7311:7312   */\n  0x00\n    /* \"#utility.yul\":7335:7339   */\n  0x20\n    /* \"#utility.yul\":7322:7339   */\n  swap1\n  pop\n    /* \"#utility.yul\":7367:7369   */\n  0x1f\n    /* \"#utility.yul\":7359:7365   */\n  dup4\n    /* \"#utility.yul\":7356:7370   */\n  gt\n    /* \"#utility.yul\":7384:7385   */\n  0x01\n    /* \"#utility.yul\":7379:7997   */\n  dup2\n  eq\n  tag_135\n  jumpi\n    /* \"#utility.yul\":8041:8042   */\n  0x00\n    /* \"#utility.yul\":8058:8064   */\n  dup5\n    /* \"#utility.yul\":8055:8132   */\n  iszero\n  tag_136\n  jumpi\n    /* \"#utility.yul\":8107:8116   */\n  dup3\n    /* \"#utility.yul\":8102:8105   */\n  dup8\n    /* \"#utility.yul\":8098:8117   */\n  add\n    /* \"#utility.yul\":8092:8118   */\n  mload\n    /* \"#utility.yul\":8083:8118   */\n  swap1\n  pop\n    /* \"#utility.yul\":8055:8132   */\ntag_136:\n    /* \"#utility.yul\":8158:8225   */\n  tag_137\n    /* \"#utility.yul\":8218:8224   */\n  dup6\n    /* \"#utility.yul\":8211:8216   */\n  dup3\n    /* \"#utility.yul\":8158:8225   */\n  tag_44\n  jump\t// in\ntag_137:\n    /* \"#utility.yul\":8152:8156   */\n  dup7\n    /* \"#utility.yul\":8145:8226   */\n  sstore\n    /* \"#utility.yul\":8014:8236   */\n  pop\n    /* \"#utility.yul\":7349:8236   */\n  jump(tag_134)\n    /* \"#utility.yul\":7379:7997   */\ntag_135:\n    /* \"#utility.yul\":7431:7435   */\n  0x1f\n    /* \"#utility.yul\":7427:7436   */\n  not\n    /* \"#utility.yul\":7419:7425   */\n  dup5\n    /* \"#utility.yul\":7415:7437   */\n  and\n    /* \"#utility.yul\":7465:7502   */\n  tag_138\n    /* \"#utility.yul\":7497:7501   */\n  dup7\n    /* \"#utility.yul\":7465:7502   */\n  tag_29\n  jump\t// in\ntag_138:\n    /* \"#utility.yul\":7524:7525   */\n  0x00\n    /* \"#utility.yul\":7538:7746   */\ntag_139:\n    /* \"#utility.yul\":7552:7559   */\n  dup3\n    /* \"#utility.yul\":7549:7550   */\n  dup2\n    /* \"#utility.yul\":7546:7560   */\n  lt\n    /* \"#utility.yul\":7538:7746   */\n  iszero\n  tag_141\n  jumpi\n    /* \"#utility.yul\":7631:7640   */\n  dup5\n    /* \"#utility.yul\":7626:7629   */\n  dup10\n    /* \"#utility.yul\":7622:7641   */\n  add\n    /* \"#utility.yul\":7616:7642   */\n  mload\n    /* \"#utility.yul\":7608:7614   */\n  dup3\n    /* \"#utility.yul\":7601:7643   */\n  sstore\n    /* \"#utility.yul\":7682:7683   */\n  0x01\n    /* \"#utility.yul\":7674:7680   */\n  dup3\n    /* \"#utility.yul\":7670:7684   */\n  add\n    /* \"#utility.yul\":7660:7684   */\n  swap2\n  pop\n    /* \"#utility.yul\":7729:7731   */\n  0x20\n    /* \"#utility.yul\":7718:7727   */\n  dup6\n    /* \"#utility.yul\":7714:7732   */\n  add\n    /* \"#utility.yul\":7701:7732   */\n  swap5\n  pop\n    /* \"#utility.yul\":7575:7579   */\n  0x20\n    /* \"#utility.yul\":7572:7573   */\n  dup2\n    /* \"#utility.yul\":7568:7580   */\n  add\n    /* \"#utility.yul\":7563:7580   */\n  swap1\n  pop\n    /* \"#utility.yul\":7538:7746   */\n  jump(tag_139)\ntag_141:\n    /* \"#utility.yul\":7774:7780   */\n  dup7\n    /* \"#utility.yul\":7765:7772   */\n  dup4\n    /* \"#utility.yul\":7762:7781   */\n  lt\n    /* \"#utility.yul\":7759:7938   */\n  iszero\n  tag_142\n  jumpi\n    /* \"#utility.yul\":7832:7841   */\n  dup5\n    /* \"#utility.yul\":7827:7830   */\n  dup10\n    /* \"#utility.yul\":7823:7842   */\n  add\n    /* \"#utility.yul\":7817:7843   */\n  mload\n    /* \"#utility.yul\":7875:7923   */\n  tag_143\n    /* \"#utility.yul\":7917:7921   */\n  0x1f\n    /* \"#utility.yul\":7909:7915   */\n  dup10\n    /* \"#utility.yul\":7905:7922   */\n  and\n    /* \"#utility.yul\":7894:7903   */\n  dup3\n    /* \"#utility.yul\":7875:7923   */\n  tag_43\n  jump\t// in\ntag_143:\n    /* \"#utility.yul\":7867:7873   */\n  dup4\n    /* \"#utility.yul\":7860:7924   */\n  sstore\n    /* \"#utility.yul\":7782:7938   */\n  pop\n    /* \"#utility.yul\":7759:7938   */\ntag_142:\n    /* \"#utility.yul\":7984:7985   */\n  0x01\n    /* \"#utility.yul\":7980:7981   */\n  0x02\n    /* \"#utility.yul\":7972:7978   */\n  dup9\n    /* \"#utility.yul\":7968:7982   */\n  mul\n    /* \"#utility.yul\":7964:7986   */\n  add\n    /* \"#utility.yul\":7958:7962   */\n  dup9\n    /* \"#utility.yul\":7951:7987   */\n  sstore\n    /* \"#utility.yul\":7386:7997   */\n  pop\n  pop\n  pop\n    /* \"#utility.yul\":7349:8236   */\ntag_134:\n  pop\n    /* \"#utility.yul\":6939:8242   */\n  pop\n  pop\n  pop\n    /* \"#utility.yul\":6847:8242   */\n  pop\n  pop\n  jump\t// out\n    /* \"ds-token/token.sol\":832:3065  contract DSToken is DSTokenBase(0), DSStop {... */\ntag_12:\n  dataSize(sub_0)\n  dup1\n  dataOffset(sub_0)\n  0x00\n  codecopy\n  0x00\n  return\nstop\n\nsub_0: assembly {\n        /* \"ds-token/token.sol\":832:3065  contract DSToken is DSTokenBase(0), DSStop {... */\n      mstore(0x40, 0x80)\n      jumpi(tag_1, lt(calldatasize, 0x04))\n      shr(0xe0, calldataload(0x00))\n      dup1\n      0x8da5cb5b\n      gt\n      tag_27\n      jumpi\n      dup1\n      0xbb35783b\n      gt\n      tag_28\n      jumpi\n      dup1\n      0xc47f0027\n      gt\n      tag_29\n      jumpi\n      dup1\n      0xc47f0027\n      eq\n      tag_23\n      jumpi\n      dup1\n      0xdaea85c5\n      eq\n      tag_24\n      jumpi\n      dup1\n      0xdd62ed3e\n      eq\n      tag_25\n      jumpi\n      dup1\n      0xf2d5d56b\n      eq\n      tag_26\n      jumpi\n      jump(tag_1)\n    tag_29:\n      dup1\n      0xbb35783b\n      eq\n      tag_20\n      jumpi\n      dup1\n      0xbe9a6555\n      eq\n      tag_21\n      jumpi\n      dup1\n      0xbf7e214f\n      eq\n      tag_22\n      jumpi\n      jump(tag_1)\n    tag_28:\n      dup1\n      0x8da5cb5b\n      eq\n      tag_14\n      jumpi\n      dup1\n      0x95d89b41\n      eq\n      tag_15\n      jumpi\n      dup1\n      0x9dc29fac\n      eq\n      tag_16\n      jumpi\n      dup1\n      0xa0712d68\n      eq\n      tag_17\n      jumpi\n      dup1\n      0xa9059cbb\n      eq\n      tag_18\n      jumpi\n      dup1\n      0xb753a98c\n      eq\n      tag_19\n      jumpi\n      jump(tag_1)\n    tag_27:\n      dup1\n      0x313ce567\n      gt\n      tag_30\n      jumpi\n      dup1\n      0x313ce567\n      eq\n      tag_8\n      jumpi\n      dup1\n      0x40c10f19\n      eq\n      tag_9\n      jumpi\n      dup1\n      0x42966c68\n      eq\n      tag_10\n      jumpi\n      dup1\n      0x70a08231\n      eq\n      tag_11\n      jumpi\n      dup1\n      0x75f12b21\n      eq\n      tag_12\n      jumpi\n      dup1\n      0x7a9e5e4b\n      eq\n      tag_13\n      jumpi\n      jump(tag_1)\n    tag_30:\n      dup1\n      0x06fdde03\n      eq\n      tag_2\n      jumpi\n      dup1\n      0x07da68f5\n      eq\n      tag_3\n      jumpi\n      dup1\n      0x095ea7b3\n      eq\n      tag_4\n      jumpi\n      dup1\n      0x13af4035\n      eq\n      tag_5\n      jumpi\n      dup1\n      0x18160ddd\n      eq\n      tag_6\n      jumpi\n      dup1\n      0x23b872dd\n      eq\n      tag_7\n      jumpi\n    tag_1:\n      0x00\n      dup1\n      revert\n        /* \"ds-token/token.sol\":997:1015  string public name */\n    tag_2:\n      callvalue\n      dup1\n      iszero\n      tag_31\n      jumpi\n      0x00\n      dup1\n      revert\n    tag_31:\n      pop\n      tag_32\n      tag_33\n      jump\t// in\n    tag_32:\n      mload(0x40)\n      tag_34\n      swap2\n      swap1\n      tag_35\n      jump\t// in\n    tag_34:\n      mload(0x40)\n      dup1\n      swap2\n      sub\n      swap1\n      return\n        /* \"/ds-stop/stop.sol\":954:1026  function stop() public payable auth note {... */\n    tag_3:\n      tag_36\n      tag_37\n      jump\t// in\n    tag_36:\n      stop\n        /* \"ds-token/token.sol\":1327:1455  function approve(address guy, uint wad) public stoppable override returns (bool) {... */\n    tag_4:\n      callvalue\n      dup1\n      iszero\n      tag_38\n      jumpi\n      0x00\n      dup1\n      revert\n    tag_38:\n      pop\n      tag_39\n      0x04\n      dup1\n      calldatasize\n      sub\n      dup2\n      add\n      swap1\n      tag_40\n      swap2\n      swap1\n      tag_41\n      jump\t// in\n    tag_40:\n      tag_42\n      jump\t// in\n    tag_39:\n      mload(0x40)\n      tag_43\n      swap2\n      swap1\n      tag_44\n      jump\t// in\n    tag_43:\n      mload(0x40)\n      dup1\n      swap2\n      sub\n      swap1\n      return\n        /* \"/ds-auth/auth.sol\":1151:1280  function setOwner(address owner_)... */\n    tag_5:\n      callvalue\n      dup1\n      iszero\n      tag_45\n      jumpi\n      0x00\n      dup1\n      revert\n    tag_45:\n      pop\n      tag_46\n      0x04\n      dup1\n      calldatasize\n      sub\n      dup2\n      add\n      swap1\n      tag_47\n      swap2\n      swap1\n      tag_48\n      jump\t// in\n    tag_47:\n      tag_49\n      jump\t// in\n    tag_46:\n      stop\n        /* \"ds-token/base.sol\":1174:1264  function totalSupply() public view override returns (uint) {... */\n    tag_6:\n      callvalue\n      dup1\n      iszero\n      tag_50\n      jumpi\n      0x00\n      dup1\n      revert\n    tag_50:\n      pop\n      tag_51\n      tag_52\n      jump\t// in\n    tag_51:\n      mload(0x40)\n      tag_53\n      swap2\n      swap1\n      tag_54\n      jump\t// in\n    tag_53:\n      mload(0x40)\n      dup1\n      swap2\n      sub\n      swap1\n      return\n        /* \"ds-token/token.sol\":1461:1943  function transferFrom(address src, address dst, uint wad)... */\n    tag_7:\n      callvalue\n      dup1\n      iszero\n      tag_55\n      jumpi\n      0x00\n      dup1\n      revert\n    tag_55:\n      pop\n      tag_56\n      0x04\n      dup1\n      calldatasize\n      sub\n      dup2\n      add\n      swap1\n      tag_57\n      swap2\n      swap1\n      tag_58\n      jump\t// in\n    tag_57:\n      tag_59\n      jump\t// in\n    tag_56:\n      mload(0x40)\n      tag_60\n      swap2\n      swap1\n      tag_44\n      jump\t// in\n    tag_60:\n      mload(0x40)\n      dup1\n      swap2\n      sub\n      swap1\n      return\n        /* \"ds-token/token.sol\":910:940  uint256  public  decimals = 18 */\n    tag_8:\n      callvalue\n      dup1\n      iszero\n      tag_61\n      jumpi\n      0x00\n      dup1\n      revert\n    tag_61:\n      pop\n      tag_62\n      tag_63\n      jump\t// in\n    tag_62:\n      mload(0x40)\n      tag_64\n      swap2\n      swap1\n      tag_54\n      jump\t// in\n    tag_64:\n      mload(0x40)\n      dup1\n      swap2\n      sub\n      swap1\n      return\n        /* \"ds-token/token.sol\":2404:2586  function mint(address guy, uint wad) public auth stoppable {... */\n    tag_9:\n      callvalue\n      dup1\n      iszero\n      tag_65\n      jumpi\n      0x00\n      dup1\n      revert\n    tag_65:\n      pop\n      tag_66\n      0x04\n      dup1\n      calldatasize\n      sub\n      dup2\n      add\n      swap1\n      tag_67\n      swap2\n      swap1\n      tag_41\n      jump\t// in\n    tag_67:\n      tag_68\n      jump\t// in\n    tag_66:\n      stop\n        /* \"ds-token/token.sol\":2330:2399  function burn(uint wad) public {... */\n    tag_10:\n      callvalue\n      dup1\n      iszero\n      tag_69\n      jumpi\n      0x00\n      dup1\n      revert\n    tag_69:\n      pop\n      tag_70\n      0x04\n      dup1\n      calldatasize\n      sub\n      dup2\n      add\n      swap1\n      tag_71\n      swap2\n      swap1\n      tag_72\n      jump\t// in\n    tag_71:\n      tag_73\n      jump\t// in\n    tag_70:\n      stop\n        /* \"ds-token/base.sol\":1269:1375  function balanceOf(address src) public view override returns (uint) {... */\n    tag_11:\n      callvalue\n      dup1\n      iszero\n      tag_74\n      jumpi\n      0x00\n      dup1\n      revert\n    tag_74:\n      pop\n      tag_75\n      0x04\n      dup1\n      calldatasize\n      sub\n      dup2\n      add\n      swap1\n      tag_76\n      swap2\n      swap1\n      tag_48\n      jump\t// in\n    tag_76:\n      tag_77\n      jump\t// in\n    tag_75:\n      mload(0x40)\n      tag_78\n      swap2\n      swap1\n      tag_54\n      jump\t// in\n    tag_78:\n      mload(0x40)\n      dup1\n      swap2\n      sub\n      swap1\n      return\n        /* \"/ds-stop/stop.sol\":859:878  bool public stopped */\n    tag_12:\n      callvalue\n      dup1\n      iszero\n      tag_79\n      jumpi\n      0x00\n      dup1\n      revert\n    tag_79:\n      pop\n      tag_80\n      tag_81\n      jump\t// in\n    tag_80:\n      mload(0x40)\n      tag_82\n      swap2\n      swap1\n      tag_44\n      jump\t// in\n    tag_82:\n      mload(0x40)\n      dup1\n      swap2\n      sub\n      swap1\n      return\n        /* \"/ds-auth/auth.sol\":1286:1452  function setAuthority(DSAuthority authority_)... */\n    tag_13:\n      callvalue\n      dup1\n      iszero\n      tag_83\n      jumpi\n      0x00\n      dup1\n      revert\n    tag_83:\n      pop\n      tag_84\n      0x04\n      dup1\n      calldatasize\n      sub\n      dup2\n      add\n      swap1\n      tag_85\n      swap2\n      swap1\n      tag_86\n      jump\t// in\n    tag_85:\n      tag_87\n      jump\t// in\n    tag_84:\n      stop\n        /* \"/ds-auth/auth.sol\":1019:1045  address      public  owner */\n    tag_14:\n      callvalue\n      dup1\n      iszero\n      tag_88\n      jumpi\n      0x00\n      dup1\n      revert\n    tag_88:\n      pop\n      tag_89\n      tag_90\n      jump\t// in\n    tag_89:\n      mload(0x40)\n      tag_91\n      swap2\n      swap1\n      tag_92\n      jump\t// in\n    tag_91:\n      mload(0x40)\n      dup1\n      swap2\n      sub\n      swap1\n      return\n        /* \"ds-token/token.sol\":882:904  string  public  symbol */\n    tag_15:\n      callvalue\n      dup1\n      iszero\n      tag_93\n      jumpi\n      0x00\n      dup1\n      revert\n    tag_93:\n      pop\n      tag_94\n      tag_95\n      jump\t// in\n    tag_94:\n      mload(0x40)\n      tag_96\n      swap2\n      swap1\n      tag_35\n      jump\t// in\n    tag_96:\n      mload(0x40)\n      dup1\n      swap2\n      sub\n      swap1\n      return\n        /* \"ds-token/token.sol\":2591:2950  function burn(address guy, uint wad) public auth stoppable {... */\n    tag_16:\n      callvalue\n      dup1\n      iszero\n      tag_97\n      jumpi\n      0x00\n      dup1\n      revert\n    tag_97:\n      pop\n      tag_98\n      0x04\n      dup1\n      calldatasize\n      sub\n      dup2\n      add\n      swap1\n      tag_99\n      swap2\n      swap1\n      tag_41\n      jump\t// in\n    tag_99:\n      tag_100\n      jump\t// in\n    tag_98:\n      stop\n        /* \"ds-token/token.sol\":2256:2325  function mint(uint wad) public {... */\n    tag_17:\n      callvalue\n      dup1\n      iszero\n      tag_101\n      jumpi\n      0x00\n      dup1\n      revert\n    tag_101:\n      pop\n      tag_102\n      0x04\n      dup1\n      calldatasize\n      sub\n      dup2\n      add\n      swap1\n      tag_103\n      swap2\n      swap1\n      tag_72\n      jump\t// in\n    tag_103:\n      tag_104\n      jump\t// in\n    tag_102:\n      stop\n        /* \"ds-token/base.sol\":1511:1641  function transfer(address dst, uint wad) public override returns (bool) {... */\n    tag_18:\n      callvalue\n      dup1\n      iszero\n      tag_105\n      jumpi\n      0x00\n      dup1\n      revert\n    tag_105:\n      pop\n      tag_106\n      0x04\n      dup1\n      calldatasize\n      sub\n      dup2\n      add\n      swap1\n      tag_107\n      swap2\n      swap1\n      tag_41\n      jump\t// in\n    tag_107:\n      tag_108\n      jump\t// in\n    tag_106:\n      mload(0x40)\n      tag_109\n      swap2\n      swap1\n      tag_44\n      jump\t// in\n    tag_109:\n      mload(0x40)\n      dup1\n      swap2\n      sub\n      swap1\n      return\n        /* \"ds-token/token.sol\":1949:2044  function push(address dst, uint wad) public {... */\n    tag_19:\n      callvalue\n      dup1\n      iszero\n      tag_110\n      jumpi\n      0x00\n      dup1\n      revert\n    tag_110:\n      pop\n      tag_111\n      0x04\n      dup1\n      calldatasize\n      sub\n      dup2\n      add\n      swap1\n      tag_112\n      swap2\n      swap1\n      tag_41\n      jump\t// in\n    tag_112:\n      tag_113\n      jump\t// in\n    tag_111:\n      stop\n        /* \"ds-token/token.sol\":2149:2250  function move(address src, address dst, uint wad) public {... */\n    tag_20:\n      callvalue\n      dup1\n      iszero\n      tag_114\n      jumpi\n      0x00\n      dup1\n      revert\n    tag_114:\n      pop\n      tag_115\n      0x04\n      dup1\n      calldatasize\n      sub\n      dup2\n      add\n      swap1\n      tag_116\n      swap2\n      swap1\n      tag_58\n      jump\t// in\n    tag_116:\n      tag_117\n      jump\t// in\n    tag_115:\n      stop\n        /* \"/ds-stop/stop.sol\":1031:1105  function start() public payable auth note {... */\n    tag_21:\n      tag_118\n      tag_119\n      jump\t// in\n    tag_118:\n      stop\n        /* \"/ds-auth/auth.sol\":983:1013  DSAuthority  public  authority */\n    tag_22:\n      callvalue\n      dup1\n      iszero\n      tag_120\n      jumpi\n      0x00\n      dup1\n      revert\n    tag_120:\n      pop\n      tag_121\n      tag_122\n      jump\t// in\n    tag_121:\n      mload(0x40)\n      tag_123\n      swap2\n      swap1\n      tag_124\n      jump\t// in\n    tag_123:\n      mload(0x40)\n      dup1\n      swap2\n      sub\n      swap1\n      return\n        /* \"ds-token/token.sol\":2984:3063  function setName(string memory name_) public auth {... */\n    tag_23:\n      callvalue\n      dup1\n      iszero\n      tag_125\n      jumpi\n      0x00\n      dup1\n      revert\n    tag_125:\n      pop\n      tag_126\n      0x04\n      dup1\n      calldatasize\n      sub\n      dup2\n      add\n      swap1\n      tag_127\n      swap2\n      swap1\n      tag_128\n      jump\t// in\n    tag_127:\n      tag_129\n      jump\t// in\n    tag_126:\n      stop\n        /* \"ds-token/token.sol\":1198:1321  function approve(address guy) public stoppable returns (bool) {... */\n    tag_24:\n      callvalue\n      dup1\n      iszero\n      tag_130\n      jumpi\n      0x00\n      dup1\n      revert\n    tag_130:\n      pop\n      tag_131\n      0x04\n      dup1\n      calldatasize\n      sub\n      dup2\n      add\n      swap1\n      tag_132\n      swap2\n      swap1\n      tag_48\n      jump\t// in\n    tag_132:\n      tag_133\n      jump\t// in\n    tag_131:\n      mload(0x40)\n      tag_134\n      swap2\n      swap1\n      tag_44\n      jump\t// in\n    tag_134:\n      mload(0x40)\n      dup1\n      swap2\n      sub\n      swap1\n      return\n        /* \"ds-token/base.sol\":1380:1505  function allowance(address src, address guy) public override view returns (uint) {... */\n    tag_25:\n      callvalue\n      dup1\n      iszero\n      tag_135\n      jumpi\n      0x00\n      dup1\n      revert\n    tag_135:\n      pop\n      tag_136\n      0x04\n      dup1\n      calldatasize\n      sub\n      dup2\n      add\n      swap1\n      tag_137\n      swap2\n      swap1\n      tag_138\n      jump\t// in\n    tag_137:\n      tag_139\n      jump\t// in\n    tag_136:\n      mload(0x40)\n      tag_140\n      swap2\n      swap1\n      tag_54\n      jump\t// in\n    tag_140:\n      mload(0x40)\n      dup1\n      swap2\n      sub\n      swap1\n      return\n        /* \"ds-token/token.sol\":2049:2144  function pull(address src, uint wad) public {... */\n    tag_26:\n      callvalue\n      dup1\n      iszero\n      tag_141\n      jumpi\n      0x00\n      dup1\n      revert\n    tag_141:\n      pop\n      tag_142\n      0x04\n      dup1\n      calldatasize\n      sub\n      dup2\n      add\n      swap1\n      tag_143\n      swap2\n      swap1\n      tag_41\n      jump\t// in\n    tag_143:\n      tag_144\n      jump\t// in\n    tag_142:\n      stop\n        /* \"ds-token/token.sol\":997:1015  string public name */\n    tag_33:\n      0x07\n      dup1\n      sload\n      tag_145\n      swap1\n      tag_146\n      jump\t// in\n    tag_145:\n      dup1\n      0x1f\n      add\n      0x20\n      dup1\n      swap2\n      div\n      mul\n      0x20\n      add\n      mload(0x40)\n      swap1\n      dup2\n      add\n      0x40\n      mstore\n      dup1\n      swap3\n      swap2\n      swap1\n      dup2\n      dup2\n      mstore\n      0x20\n      add\n      dup3\n      dup1\n      sload\n      tag_147\n      swap1\n      tag_146\n      jump\t// in\n    tag_147:\n      dup1\n      iszero\n      tag_148\n      jumpi\n      dup1\n      0x1f\n      lt\n      tag_149\n      jumpi\n      0x0100\n      dup1\n      dup4\n      sload\n      div\n      mul\n      dup4\n      mstore\n      swap2\n      0x20\n      add\n      swap2\n      jump(tag_148)\n    tag_149:\n      dup3\n      add\n      swap2\n      swap1\n      0x00\n      mstore\n      keccak256(0x00, 0x20)\n      swap1\n    tag_150:\n      dup2\n      sload\n      dup2\n      mstore\n      swap1\n      0x01\n      add\n      swap1\n      0x20\n      add\n      dup1\n      dup4\n      gt\n      tag_150\n      jumpi\n      dup3\n      swap1\n      sub\n      0x1f\n      and\n      dup3\n      add\n      swap2\n    tag_148:\n      pop\n      pop\n      pop\n      pop\n      pop\n      dup2\n      jump\t// out\n        /* \"/ds-stop/stop.sol\":954:1026  function stop() public payable auth note {... */\n    tag_37:\n        /* \"/ds-auth/auth.sol\":1490:1523  isAuthorized(msg.sender, msg.sig) */\n      tag_152\n        /* \"/ds-auth/auth.sol\":1503:1513  msg.sender */\n      caller\n        /* \"/ds-auth/auth.sol\":1515:1522  msg.sig */\n      and(0xffffffff00000000000000000000000000000000000000000000000000000000, calldataload(0x00))\n        /* \"/ds-auth/auth.sol\":1490:1502  isAuthorized */\n      tag_153\n        /* \"/ds-auth/auth.sol\":1490:1523  isAuthorized(msg.sender, msg.sig) */\n      jump\t// in\n    tag_152:\n        /* \"/ds-auth/auth.sol\":1482:1524  require(isAuthorized(msg.sender, msg.sig)) */\n      tag_154\n      jumpi\n      0x00\n      dup1\n      revert\n    tag_154:\n        /* \"/ds-note/note.sol\":1002:1013  bytes32 foo */\n      0x00\n        /* \"/ds-note/note.sol\":1023:1034  bytes32 bar */\n      dup1\n        /* \"/ds-note/note.sol\":1088:1089  4 */\n      0x04\n        /* \"/ds-note/note.sol\":1075:1090  calldataload(4) */\n      calldataload\n        /* \"/ds-note/note.sol\":1068:1090  foo := calldataload(4) */\n      swap2\n      pop\n        /* \"/ds-note/note.sol\":1123:1125  36 */\n      0x24\n        /* \"/ds-note/note.sol\":1110:1126  calldataload(36) */\n      calldataload\n        /* \"/ds-note/note.sol\":1103:1126  bar := calldataload(36) */\n      swap1\n      pop\n        /* \"/ds-note/note.sol\":1185:1188  bar */\n      dup1\n        /* \"/ds-note/note.sol\":1180:1183  foo */\n      dup3\n        /* \"/ds-note/note.sol\":1168:1178  msg.sender */\n      caller\n        /* \"/ds-note/note.sol\":1151:1210  LogNote(msg.sig, msg.sender, foo, bar, msg.value, msg.data) */\n      0xffffffffffffffffffffffffffffffffffffffff\n      and\n        /* \"/ds-note/note.sol\":1159:1166  msg.sig */\n      and(0xffffffff00000000000000000000000000000000000000000000000000000000, calldataload(0x00))\n        /* \"/ds-note/note.sol\":1151:1210  LogNote(msg.sig, msg.sender, foo, bar, msg.value, msg.data) */\n      not(0xffffffffffffffffffffffffffffffffffffffffffffffffffffffff)\n      and\n        /* \"/ds-note/note.sol\":1190:1199  msg.value */\n      callvalue\n        /* \"/ds-note/note.sol\":1201:1209  msg.data */\n      0x00\n      calldatasize\n        /* \"/ds-note/note.sol\":1151:1210  LogNote(msg.sig, msg.sender, foo, bar, msg.value, msg.data) */\n      mload(0x40)\n      tag_156\n      swap4\n      swap3\n      swap2\n      swap1\n      tag_157\n      jump\t// in\n    tag_156:\n      mload(0x40)\n      dup1\n      swap2\n      sub\n      swap1\n      log4\n        /* \"/ds-stop/stop.sol\":1015:1019  true */\n      0x01\n        /* \"/ds-stop/stop.sol\":1005:1012  stopped */\n      0x04\n      0x14\n        /* \"/ds-stop/stop.sol\":1005:1019  stopped = true */\n      0x0100\n      exp\n      dup2\n      sload\n      dup2\n      0xff\n      mul\n      not\n      and\n      swap1\n      dup4\n      iszero\n      iszero\n      mul\n      or\n      swap1\n      sstore\n      pop\n        /* \"/ds-note/note.sol\":992:1229  {... */\n      pop\n      pop\n        /* \"/ds-stop/stop.sol\":954:1026  function stop() public payable auth note {... */\n      jump\t// out\n        /* \"ds-token/token.sol\":1327:1455  function approve(address guy, uint wad) public stoppable override returns (bool) {... */\n    tag_42:\n        /* \"ds-token/token.sol\":1402:1406  bool */\n      0x00\n        /* \"/ds-stop/stop.sol\":923:930  stopped */\n      0x04\n      0x14\n      swap1\n      sload\n      swap1\n      0x0100\n      exp\n      swap1\n      div\n      0xff\n      and\n        /* \"/ds-stop/stop.sol\":922:930  !stopped */\n      iszero\n        /* \"/ds-stop/stop.sol\":914:931  require(!stopped) */\n      tag_160\n      jumpi\n      0x00\n      dup1\n      revert\n    tag_160:\n        /* \"ds-token/token.sol\":1425:1448  super.approve(guy, wad) */\n      tag_162\n        /* \"ds-token/token.sol\":1439:1442  guy */\n      dup4\n        /* \"ds-token/token.sol\":1444:1447  wad */\n      dup4\n        /* \"ds-token/token.sol\":1425:1438  super.approve */\n      tag_163\n        /* \"ds-token/token.sol\":1425:1448  super.approve(guy, wad) */\n      jump\t// in\n    tag_162:\n        /* \"ds-token/token.sol\":1418:1448  return super.approve(guy, wad) */\n      swap1\n      pop\n        /* \"ds-token/token.sol\":1327:1455  function approve(address guy, uint wad) public stoppable override returns (bool) {... */\n      swap3\n      swap2\n      pop\n      pop\n      jump\t// out\n        /* \"/ds-auth/auth.sol\":1151:1280  function setOwner(address owner_)... */\n    tag_49:\n        /* \"/ds-auth/auth.sol\":1490:1523  isAuthorized(msg.sender, msg.sig) */\n      tag_165\n        /* \"/ds-auth/auth.sol\":1503:1513  msg.sender */\n      caller\n        /* \"/ds-auth/auth.sol\":1515:1522  msg.sig */\n      and(0xffffffff00000000000000000000000000000000000000000000000000000000, calldataload(0x00))\n        /* \"/ds-auth/auth.sol\":1490:1502  isAuthorized */\n      tag_153\n        /* \"/ds-auth/auth.sol\":1490:1523  isAuthorized(msg.sender, msg.sig) */\n      jump\t// in\n    tag_165:\n        /* \"/ds-auth/auth.sol\":1482:1524  require(isAuthorized(msg.sender, msg.sig)) */\n      tag_166\n      jumpi\n      0x00\n      dup1\n      revert\n    tag_166:\n        /* \"/ds-auth/auth.sol\":1235:1241  owner_ */\n      dup1\n        /* \"/ds-auth/auth.sol\":1227:1232  owner */\n      0x04\n      0x00\n        /* \"/ds-auth/auth.sol\":1227:1241  owner = owner_ */\n      0x0100\n      exp\n      dup2\n      sload\n      dup2\n      0xffffffffffffffffffffffffffffffffffffffff\n      mul\n      not\n      and\n      swap1\n      dup4\n      0xffffffffffffffffffffffffffffffffffffffff\n      and\n      mul\n      or\n      swap1\n      sstore\n      pop\n        /* \"/ds-auth/auth.sol\":1267:1272  owner */\n      0x04\n      0x00\n      swap1\n      sload\n      swap1\n      0x0100\n      exp\n      swap1\n      div\n      0xffffffffffffffffffffffffffffffffffffffff\n      and\n        /* \"/ds-auth/auth.sol\":1255:1273  LogSetOwner(owner) */\n      0xffffffffffffffffffffffffffffffffffffffff\n      and\n      0xce241d7ca1f669fee44b6fc00b8eba2df3bb514eed0f6f668f8f89096e81ed94\n      mload(0x40)\n      mload(0x40)\n      dup1\n      swap2\n      sub\n      swap1\n      log2\n        /* \"/ds-auth/auth.sol\":1151:1280  function setOwner(address owner_)... */\n      pop\n      jump\t// out\n        /* \"ds-token/base.sol\":1174:1264  function totalSupply() public view override returns (uint) {... */\n    tag_52:\n        /* \"ds-token/base.sol\":1227:1231  uint */\n      0x00\n        /* \"ds-token/base.sol\":1250:1257  _supply */\n      dup1\n      sload\n        /* \"ds-token/base.sol\":1243:1257  return _supply */\n      swap1\n      pop\n        /* \"ds-token/base.sol\":1174:1264  function totalSupply() public view override returns (uint) {... */\n      swap1\n      jump\t// out\n        /* \"ds-token/token.sol\":1461:1943  function transferFrom(address src, address dst, uint wad)... */\n    tag_59:\n        /* \"ds-token/token.sol\":1587:1591  bool */\n      0x00\n        /* \"/ds-stop/stop.sol\":923:930  stopped */\n      0x04\n      0x14\n      swap1\n      sload\n      swap1\n      0x0100\n      exp\n      swap1\n      div\n      0xff\n      and\n        /* \"/ds-stop/stop.sol\":922:930  !stopped */\n      iszero\n        /* \"/ds-stop/stop.sol\":914:931  require(!stopped) */\n      tag_170\n      jumpi\n      0x00\n      dup1\n      revert\n    tag_170:\n        /* \"ds-token/token.sol\":1618:1628  msg.sender */\n      caller\n        /* \"ds-token/token.sol\":1611:1628  src != msg.sender */\n      0xffffffffffffffffffffffffffffffffffffffff\n      and\n        /* \"ds-token/token.sol\":1611:1614  src */\n      dup5\n        /* \"ds-token/token.sol\":1611:1628  src != msg.sender */\n      0xffffffffffffffffffffffffffffffffffffffff\n      and\n      eq\n      iszero\n        /* \"ds-token/token.sol\":1611:1680  src != msg.sender && _approvals[src][msg.sender] != type(uint256).max */\n      dup1\n      iszero\n      tag_172\n      jumpi\n      pop\n        /* \"ds-token/token.sol\":1663:1680  type(uint256).max */\n      0xffffffffffffffffffffffffffffffffffffffffffffffffffffffffffffffff\n        /* \"ds-token/token.sol\":1632:1642  _approvals */\n      0x02\n        /* \"ds-token/token.sol\":1632:1647  _approvals[src] */\n      0x00\n        /* \"ds-token/token.sol\":1643:1646  src */\n      dup7\n        /* \"ds-token/token.sol\":1632:1647  _approvals[src] */\n      0xffffffffffffffffffffffffffffffffffffffff\n      and\n      0xffffffffffffffffffffffffffffffffffffffff\n      and\n      dup2\n      mstore\n      0x20\n      add\n      swap1\n      dup2\n      mstore\n      0x20\n      add\n      0x00\n      keccak256\n        /* \"ds-token/token.sol\":1632:1659  _approvals[src][msg.sender] */\n      0x00\n        /* \"ds-token/token.sol\":1648:1658  msg.sender */\n      caller\n        /* \"ds-token/token.sol\":1632:1659  _approvals[src][msg.sender] */\n      0xffffffffffffffffffffffffffffffffffffffff\n      and\n      0xffffffffffffffffffffffffffffffffffffffff\n      and\n      dup2\n      mstore\n      0x20\n      add\n      swap1\n      dup2\n      mstore\n      0x20\n      add\n      0x00\n      keccak256\n      sload\n        /* \"ds-token/token.sol\":1632:1680  _approvals[src][msg.sender] != type(uint256).max */\n      eq\n      iszero\n        /* \"ds-token/token.sol\":1611:1680  src != msg.sender && _approvals[src][msg.sender] != type(uint256).max */\n    tag_172:\n        /* \"ds-token/token.sol\":1607:1774  if (src != msg.sender && _approvals[src][msg.sender] != type(uint256).max) {... */\n      iszero\n      tag_173\n      jumpi\n        /* \"ds-token/token.sol\":1726:1763  sub(_approvals[src][msg.sender], wad) */\n      tag_174\n        /* \"ds-token/token.sol\":1730:1740  _approvals */\n      0x02\n        /* \"ds-token/token.sol\":1730:1745  _approvals[src] */\n      0x00\n        /* \"ds-token/token.sol\":1741:1744  src */\n      dup7\n        /* \"ds-token/token.sol\":1730:1745  _approvals[src] */\n      0xffffffffffffffffffffffffffffffffffffffff\n      and\n      0xffffffffffffffffffffffffffffffffffffffff\n      and\n      dup2\n      mstore\n      0x20\n      add\n      swap1\n      dup2\n      mstore\n      0x20\n      add\n      0x00\n      keccak256\n        /* \"ds-token/token.sol\":1730:1757  _approvals[src][msg.sender] */\n      0x00\n        /* \"ds-token/token.sol\":1746:1756  msg.sender */\n      caller\n        /* \"ds-token/token.sol\":1730:1757  _approvals[src][msg.sender] */\n      0xffffffffffffffffffffffffffffffffffffffff\n      and\n      0xffffffffffffffffffffffffffffffffffffffff\n      and\n      dup2\n      mstore\n      0x20\n      add\n      swap1\n      dup2\n      mstore\n      0x20\n      add\n      0x00\n      keccak256\n      sload\n        /* \"ds-token/token.sol\":1759:1762  wad */\n      dup4\n        /* \"ds-token/token.sol\":1726:1729  sub */\n      tag_175\n        /* \"ds-token/token.sol\":1726:1763  sub(_approvals[src][msg.sender], wad) */\n      jump\t// in\n    tag_174:\n        /* \"ds-token/token.sol\":1696:1706  _approvals */\n      0x02\n        /* \"ds-token/token.sol\":1696:1711  _approvals[src] */\n      0x00\n        /* \"ds-token/token.sol\":1707:1710  src */\n      dup7\n        /* \"ds-token/token.sol\":1696:1711  _approvals[src] */\n      0xffffffffffffffffffffffffffffffffffffffff\n      and\n      0xffffffffffffffffffffffffffffffffffffffff\n      and\n      dup2\n      mstore\n      0x20\n      add\n      swap1\n      dup2\n      mstore\n      0x20\n      add\n      0x00\n      keccak256\n        /* \"ds-token/token.sol\":1696:1723  _approvals[src][msg.sender] */\n      0x00\n        /* \"ds-token/token.sol\":1712:1722  msg.sender */\n      caller\n        /* \"ds-token/token.sol\":1696:1723  _approvals[src][msg.sender] */\n      0xffffffffffffffffffffffffffffffffffffffff\n      and\n      0xffffffffffffffffffffffffffffffffffffffff\n      and\n      dup2\n      mstore\n      0x20\n      add\n      swap1\n      dup2\n      mstore\n      0x20\n      add\n      0x00\n      keccak256\n        /* \"ds-token/token.sol\":1696:1763  _approvals[src][msg.sender] = sub(_approvals[src][msg.sender], wad) */\n      dup2\n      swap1\n      sstore\n      pop\n        /* \"ds-token/token.sol\":1607:1774  if (src != msg.sender && _approvals[src][msg.sender] != type(uint256).max) {... */\n    tag_173:\n        /* \"ds-token/token.sol\":1801:1825  sub(_balances[src], wad) */\n      tag_176\n        /* \"ds-token/token.sol\":1805:1814  _balances */\n      0x01\n        /* \"ds-token/token.sol\":1805:1819  _balances[src] */\n      0x00\n        /* \"ds-token/token.sol\":1815:1818  src */\n      dup7\n        /* \"ds-token/token.sol\":1805:1819  _balances[src] */\n      0xffffffffffffffffffffffffffffffffffffffff\n      and\n      0xffffffffffffffffffffffffffffffffffffffff\n      and\n      dup2\n      mstore\n      0x20\n      add\n      swap1\n      dup2\n      mstore\n      0x20\n      add\n      0x00\n      keccak256\n      sload\n        /* \"ds-token/token.sol\":1821:1824  wad */\n      dup4\n        /* \"ds-token/token.sol\":1801:1804  sub */\n      tag_175\n        /* \"ds-token/token.sol\":1801:1825  sub(_balances[src], wad) */\n      jump\t// in\n    tag_176:\n        /* \"ds-token/token.sol\":1784:1793  _balances */\n      0x01\n        /* \"ds-token/token.sol\":1784:1798  _balances[src] */\n      0x00\n        /* \"ds-token/token.sol\":1794:1797  src */\n      dup7\n        /* \"ds-token/token.sol\":1784:1798  _balances[src] */\n      0xffffffffffffffffffffffffffffffffffffffff\n      and\n      0xffffffffffffffffffffffffffffffffffffffff\n      and\n      dup2\n      mstore\n      0x20\n      add\n      swap1\n      dup2\n      mstore\n      0x20\n      add\n      0x00\n      keccak256\n        /* \"ds-token/token.sol\":1784:1825  _balances[src] = sub(_balances[src], wad) */\n      dup2\n      swap1\n      sstore\n      pop\n        /* \"ds-token/token.sol\":1852:1876  add(_balances[dst], wad) */\n      tag_177\n        /* \"ds-token/token.sol\":1856:1865  _balances */\n      0x01\n        /* \"ds-token/token.sol\":1856:1870  _balances[dst] */\n      0x00\n        /* \"ds-token/token.sol\":1866:1869  dst */\n      dup6\n        /* \"ds-token/token.sol\":1856:1870  _balances[dst] */\n      0xffffffffffffffffffffffffffffffffffffffff\n      and\n      0xffffffffffffffffffffffffffffffffffffffff\n      and\n      dup2\n      mstore\n      0x20\n      add\n      swap1\n      dup2\n      mstore\n      0x20\n      add\n      0x00\n      keccak256\n      sload\n        /* \"ds-token/token.sol\":1872:1875  wad */\n      dup4\n        /* \"ds-token/token.sol\":1852:1855  add */\n      tag_178\n        /* \"ds-token/token.sol\":1852:1876  add(_balances[dst], wad) */\n      jump\t// in\n    tag_177:\n        /* \"ds-token/token.sol\":1835:1844  _balances */\n      0x01\n        /* \"ds-token/token.sol\":1835:1849  _balances[dst] */\n      0x00\n        /* \"ds-token/token.sol\":1845:1848  dst */\n      dup6\n        /* \"ds-token/token.sol\":1835:1849  _balances[dst] */\n      0xffffffffffffffffffffffffffffffffffffffff\n      and\n      0xffffffffffffffffffffffffffffffffffffffff\n      and\n      dup2\n      mstore\n      0x20\n      add\n      swap1\n      dup2\n      mstore\n      0x20\n      add\n      0x00\n      keccak256\n        /* \"ds-token/token.sol\":1835:1876  _balances[dst] = add(_balances[dst], wad) */\n      dup2\n      swap1\n      sstore\n      pop\n        /* \"ds-token/token.sol\":1905:1908  dst */\n      dup3\n        /* \"ds-token/token.sol\":1891:1914  Transfer(src, dst, wad) */\n      0xffffffffffffffffffffffffffffffffffffffff\n      and\n        /* \"ds-token/token.sol\":1900:1903  src */\n      dup5\n        /* \"ds-token/token.sol\":1891:1914  Transfer(src, dst, wad) */\n      0xffffffffffffffffffffffffffffffffffffffff\n      and\n      0xddf252ad1be2c89b69c2b068fc378daa952ba7f163c4a11628f55a4df523b3ef\n        /* \"ds-token/token.sol\":1910:1913  wad */\n      dup5\n        /* \"ds-token/token.sol\":1891:1914  Transfer(src, dst, wad) */\n      mload(0x40)\n      tag_179\n      swap2\n      swap1\n      tag_54\n      jump\t// in\n    tag_179:\n      mload(0x40)\n      dup1\n      swap2\n      sub\n      swap1\n      log3\n        /* \"ds-token/token.sol\":1932:1936  true */\n      0x01\n        /* \"ds-token/token.sol\":1925:1936  return true */\n      swap1\n      pop\n        /* \"ds-token/token.sol\":1461:1943  function transferFrom(address src, address dst, uint wad)... */\n      swap4\n      swap3\n      pop\n      pop\n      pop\n      jump\t// out\n        /* \"ds-token/token.sol\":910:940  uint256  public  decimals = 18 */\n    tag_63:\n      sload(0x06)\n      dup2\n      jump\t// out\n        /* \"ds-token/token.sol\":2404:2586  function mint(address guy, uint wad) public auth stoppable {... */\n    tag_68:\n        /* \"/ds-auth/auth.sol\":1490:1523  isAuthorized(msg.sender, msg.sig) */\n      tag_181\n        /* \"/ds-auth/auth.sol\":1503:1513  msg.sender */\n      caller\n        /* \"/ds-auth/auth.sol\":1515:1522  msg.sig */\n      and(0xffffffff00000000000000000000000000000000000000000000000000000000, calldataload(0x00))\n        /* \"/ds-auth/auth.sol\":1490:1502  isAuthorized */\n      tag_153\n        /* \"/ds-auth/auth.sol\":1490:1523  isAuthorized(msg.sender, msg.sig) */\n      jump\t// in\n    tag_181:\n        /* \"/ds-auth/auth.sol\":1482:1524  require(isAuthorized(msg.sender, msg.sig)) */\n      tag_182\n      jumpi\n      0x00\n      dup1\n      revert\n    tag_182:\n        /* \"/ds-stop/stop.sol\":923:930  stopped */\n      0x04\n      0x14\n      swap1\n      sload\n      swap1\n      0x0100\n      exp\n      swap1\n      div\n      0xff\n      and\n        /* \"/ds-stop/stop.sol\":922:930  !stopped */\n      iszero\n        /* \"/ds-stop/stop.sol\":914:931  require(!stopped) */\n      tag_184\n      jumpi\n      0x00\n      dup1\n      revert\n    tag_184:\n        /* \"ds-token/token.sol\":2490:2514  add(_balances[guy], wad) */\n      tag_186\n        /* \"ds-token/token.sol\":2494:2503  _balances */\n      0x01\n        /* \"ds-token/token.sol\":2494:2508  _balances[guy] */\n      0x00\n        /* \"ds-token/token.sol\":2504:2507  guy */\n      dup5\n        /* \"ds-token/token.sol\":2494:2508  _balances[guy] */\n      0xffffffffffffffffffffffffffffffffffffffff\n      and\n      0xffffffffffffffffffffffffffffffffffffffff\n      and\n      dup2\n      mstore\n      0x20\n      add\n      swap1\n      dup2\n      mstore\n      0x20\n      add\n      0x00\n      keccak256\n      sload\n        /* \"ds-token/token.sol\":2510:2513  wad */\n      dup3\n        /* \"ds-token/token.sol\":2490:2493  add */\n      tag_178\n        /* \"ds-token/token.sol\":2490:2514  add(_balances[guy], wad) */\n      jump\t// in\n    tag_186:\n        /* \"ds-token/token.sol\":2473:2482  _balances */\n      0x01\n        /* \"ds-token/token.sol\":2473:2487  _balances[guy] */\n      0x00\n        /* \"ds-token/token.sol\":2483:2486  guy */\n      dup5\n        /* \"ds-token/token.sol\":2473:2487  _balances[guy] */\n      0xffffffffffffffffffffffffffffffffffffffff\n      and\n      0xffffffffffffffffffffffffffffffffffffffff\n      and\n      dup2\n      mstore\n      0x20\n      add\n      swap1\n      dup2\n      mstore\n      0x20\n      add\n      0x00\n      keccak256\n        /* \"ds-token/token.sol\":2473:2514  _balances[guy] = add(_balances[guy], wad) */\n      dup2\n      swap1\n      sstore\n      pop\n        /* \"ds-token/token.sol\":2534:2551  add(_supply, wad) */\n      tag_187\n        /* \"ds-token/token.sol\":2538:2545  _supply */\n      sload(0x00)\n        /* \"ds-token/token.sol\":2547:2550  wad */\n      dup3\n        /* \"ds-token/token.sol\":2534:2537  add */\n      tag_178\n        /* \"ds-token/token.sol\":2534:2551  add(_supply, wad) */\n      jump\t// in\n    tag_187:\n        /* \"ds-token/token.sol\":2524:2531  _supply */\n      0x00\n        /* \"ds-token/token.sol\":2524:2551  _supply = add(_supply, wad) */\n      dup2\n      swap1\n      sstore\n      pop\n        /* \"ds-token/token.sol\":2570:2573  guy */\n      dup2\n        /* \"ds-token/token.sol\":2565:2579  Mint(guy, wad) */\n      0xffffffffffffffffffffffffffffffffffffffff\n      and\n      0x0f6798a560793a54c3bcfe86a93cde1e73087d944c0ea20544137d4121396885\n        /* \"ds-token/token.sol\":2575:2578  wad */\n      dup3\n        /* \"ds-token/token.sol\":2565:2579  Mint(guy, wad) */\n      mload(0x40)\n      tag_188\n      swap2\n      swap1\n      tag_54\n      jump\t// in\n    tag_188:\n      mload(0x40)\n      dup1\n      swap2\n      sub\n      swap1\n      log2\n        /* \"ds-token/token.sol\":2404:2586  function mint(address guy, uint wad) public auth stoppable {... */\n      pop\n      pop\n      jump\t// out\n        /* \"ds-token/token.sol\":2330:2399  function burn(uint wad) public {... */\n    tag_73:\n        /* \"ds-token/token.sol\":2371:2392  burn(msg.sender, wad) */\n      tag_190\n        /* \"ds-token/token.sol\":2376:2386  msg.sender */\n      caller\n        /* \"ds-token/token.sol\":2388:2391  wad */\n      dup3\n        /* \"ds-token/token.sol\":2371:2375  burn */\n      tag_100\n        /* \"ds-token/token.sol\":2371:2392  burn(msg.sender, wad) */\n      jump\t// in\n    tag_190:\n        /* \"ds-token/token.sol\":2330:2399  function burn(uint wad) public {... */\n      pop\n      jump\t// out\n        /* \"ds-token/base.sol\":1269:1375  function balanceOf(address src) public view override returns (uint) {... */\n    tag_77:\n        /* \"ds-token/base.sol\":1331:1335  uint */\n      0x00\n        /* \"ds-token/base.sol\":1354:1363  _balances */\n      0x01\n        /* \"ds-token/base.sol\":1354:1368  _balances[src] */\n      0x00\n        /* \"ds-token/base.sol\":1364:1367  src */\n      dup4\n        /* \"ds-token/base.sol\":1354:1368  _balances[src] */\n      0xffffffffffffffffffffffffffffffffffffffff\n      and\n      0xffffffffffffffffffffffffffffffffffffffff\n      and\n      dup2\n      mstore\n      0x20\n      add\n      swap1\n      dup2\n      mstore\n      0x20\n      add\n      0x00\n      keccak256\n      sload\n        /* \"ds-token/base.sol\":1347:1368  return _balances[src] */\n      swap1\n      pop\n        /* \"ds-token/base.sol\":1269:1375  function balanceOf(address src) public view override returns (uint) {... */\n      swap2\n      swap1\n      pop\n      jump\t// out\n        /* \"/ds-stop/stop.sol\":859:878  bool public stopped */\n    tag_81:\n      0x04\n      0x14\n      swap1\n      sload\n      swap1\n      0x0100\n      exp\n      swap1\n      div\n      0xff\n      and\n      dup2\n      jump\t// out\n        /* \"/ds-auth/auth.sol\":1286:1452  function setAuthority(DSAuthority authority_)... */\n    tag_87:\n        /* \"/ds-auth/auth.sol\":1490:1523  isAuthorized(msg.sender, msg.sig) */\n      tag_193\n        /* \"/ds-auth/auth.sol\":1503:1513  msg.sender */\n      caller\n        /* \"/ds-auth/auth.sol\":1515:1522  msg.sig */\n      and(0xffffffff00000000000000000000000000000000000000000000000000000000, calldataload(0x00))\n        /* \"/ds-auth/auth.sol\":1490:1502  isAuthorized */\n      tag_153\n        /* \"/ds-auth/auth.sol\":1490:1523  isAuthorized(msg.sender, msg.sig) */\n      jump\t// in\n    tag_193:\n        /* \"/ds-auth/auth.sol\":1482:1524  require(isAuthorized(msg.sender, msg.sig)) */\n      tag_194\n      jumpi\n      0x00\n      dup1\n      revert\n    tag_194:\n        /* \"/ds-auth/auth.sol\":1386:1396  authority_ */\n      dup1\n        /* \"/ds-auth/auth.sol\":1374:1383  authority */\n      0x03\n      0x00\n        /* \"/ds-auth/auth.sol\":1374:1396  authority = authority_ */\n      0x0100\n      exp\n      dup2\n      sload\n      dup2\n      0xffffffffffffffffffffffffffffffffffffffff\n      mul\n      not\n      and\n      swap1\n      dup4\n      0xffffffffffffffffffffffffffffffffffffffff\n      and\n      mul\n      or\n      swap1\n      sstore\n      pop\n        /* \"/ds-auth/auth.sol\":1434:1443  authority */\n      0x03\n      0x00\n      swap1\n      sload\n      swap1\n      0x0100\n      exp\n      swap1\n      div\n      0xffffffffffffffffffffffffffffffffffffffff\n      and\n        /* \"/ds-auth/auth.sol\":1410:1445  LogSetAuthority(address(authority)) */\n      0xffffffffffffffffffffffffffffffffffffffff\n      and\n      0x1abebea81bfa2637f28358c371278fb15ede7ea8dd28d2e03b112ff6d936ada4\n      mload(0x40)\n      mload(0x40)\n      dup1\n      swap2\n      sub\n      swap1\n      log2\n        /* \"/ds-auth/auth.sol\":1286:1452  function setAuthority(DSAuthority authority_)... */\n      pop\n      jump\t// out\n        /* \"/ds-auth/auth.sol\":1019:1045  address      public  owner */\n    tag_90:\n      0x04\n      0x00\n      swap1\n      sload\n      swap1\n      0x0100\n      exp\n      swap1\n      div\n      0xffffffffffffffffffffffffffffffffffffffff\n      and\n      dup2\n      jump\t// out\n        /* \"ds-token/token.sol\":882:904  string  public  symbol */\n    tag_95:\n      0x05\n      dup1\n      sload\n      tag_196\n      swap1\n      tag_146\n      jump\t// in\n    tag_196:\n      dup1\n      0x1f\n      add\n      0x20\n      dup1\n      swap2\n      div\n      mul\n      0x20\n      add\n      mload(0x40)\n      swap1\n      dup2\n      add\n      0x40\n      mstore\n      dup1\n      swap3\n      swap2\n      swap1\n      dup2\n      dup2\n      mstore\n      0x20\n      add\n      dup3\n      dup1\n      sload\n      tag_197\n      swap1\n      tag_146\n      jump\t// in\n    tag_197:\n      dup1\n      iszero\n      tag_198\n      jumpi\n      dup1\n      0x1f\n      lt\n      tag_199\n      jumpi\n      0x0100\n      dup1\n      dup4\n      sload\n      div\n      mul\n      dup4\n      mstore\n      swap2\n      0x20\n      add\n      swap2\n      jump(tag_198)\n    tag_199:\n      dup3\n      add\n      swap2\n      swap1\n      0x00\n      mstore\n      keccak256(0x00, 0x20)\n      swap1\n    tag_200:\n      dup2\n      sload\n      dup2\n      mstore\n      swap1\n      0x01\n      add\n      swap1\n      0x20\n      add\n      dup1\n      dup4\n      gt\n      tag_200\n      jumpi\n      dup3\n      swap1\n      sub\n      0x1f\n      and\n      dup3\n      add\n      swap2\n    tag_198:\n      pop\n      pop\n      pop\n      pop\n      pop\n      dup2\n      jump\t// out\n        /* \"ds-token/token.sol\":2591:2950  function burn(address guy, uint wad) public auth stoppable {... */\n    tag_100:\n        /* \"/ds-auth/auth.sol\":1490:1523  isAuthorized(msg.sender, msg.sig) */\n      tag_202\n        /* \"/ds-auth/auth.sol\":1503:1513  msg.sender */\n      caller\n        /* \"/ds-auth/auth.sol\":1515:1522  msg.sig */\n      and(0xffffffff00000000000000000000000000000000000000000000000000000000, calldataload(0x00))\n        /* \"/ds-auth/auth.sol\":1490:1502  isAuthorized */\n      tag_153\n        /* \"/ds-auth/auth.sol\":1490:1523  isAuthorized(msg.sender, msg.sig) */\n      jump\t// in\n    tag_202:\n        /* \"/ds-auth/auth.sol\":1482:1524  require(isAuthorized(msg.sender, msg.sig)) */\n      tag_203\n      jumpi\n      0x00\n      dup1\n      revert\n    tag_203:\n        /* \"/ds-stop/stop.sol\":923:930  stopped */\n      0x04\n      0x14\n      swap1\n      sload\n      swap1\n      0x0100\n      exp\n      swap1\n      div\n      0xff\n      and\n        /* \"/ds-stop/stop.sol\":922:930  !stopped */\n      iszero\n        /* \"/ds-stop/stop.sol\":914:931  require(!stopped) */\n      tag_205\n      jumpi\n      0x00\n      dup1\n      revert\n    tag_205:\n        /* \"ds-token/token.sol\":2671:2681  msg.sender */\n      caller\n        /* \"ds-token/token.sol\":2664:2681  guy != msg.sender */\n      0xffffffffffffffffffffffffffffffffffffffff\n      and\n        /* \"ds-token/token.sol\":2664:2667  guy */\n      dup3\n        /* \"ds-token/token.sol\":2664:2681  guy != msg.sender */\n      0xffffffffffffffffffffffffffffffffffffffff\n      and\n      eq\n      iszero\n        /* \"ds-token/token.sol\":2664:2733  guy != msg.sender && _approvals[guy][msg.sender] != type(uint256).max */\n      dup1\n      iszero\n      tag_207\n      jumpi\n      pop\n        /* \"ds-token/token.sol\":2716:2733  type(uint256).max */\n      0xffffffffffffffffffffffffffffffffffffffffffffffffffffffffffffffff\n        /* \"ds-token/token.sol\":2685:2695  _approvals */\n      0x02\n        /* \"ds-token/token.sol\":2685:2700  _approvals[guy] */\n      0x00\n        /* \"ds-token/token.sol\":2696:2699  guy */\n      dup5\n        /* \"ds-token/token.sol\":2685:2700  _approvals[guy] */\n      0xffffffffffffffffffffffffffffffffffffffff\n      and\n      0xffffffffffffffffffffffffffffffffffffffff\n      and\n      dup2\n      mstore\n      0x20\n      add\n      swap1\n      dup2\n      mstore\n      0x20\n      add\n      0x00\n      keccak256\n        /* \"ds-token/token.sol\":2685:2712  _approvals[guy][msg.sender] */\n      0x00\n        /* \"ds-token/token.sol\":2701:2711  msg.sender */\n      caller\n        /* \"ds-token/token.sol\":2685:2712  _approvals[guy][msg.sender] */\n      0xffffffffffffffffffffffffffffffffffffffff\n      and\n      0xffffffffffffffffffffffffffffffffffffffff\n      and\n      dup2\n      mstore\n      0x20\n      add\n      swap1\n      dup2\n      mstore\n      0x20\n      add\n      0x00\n      keccak256\n      sload\n        /* \"ds-token/token.sol\":2685:2733  _approvals[guy][msg.sender] != type(uint256).max */\n      eq\n      iszero\n        /* \"ds-token/token.sol\":2664:2733  guy != msg.sender && _approvals[guy][msg.sender] != type(uint256).max */\n    tag_207:\n        /* \"ds-token/token.sol\":2660:2827  if (guy != msg.sender && _approvals[guy][msg.sender] != type(uint256).max) {... */\n      iszero\n      tag_208\n      jumpi\n        /* \"ds-token/token.sol\":2779:2816  sub(_approvals[guy][msg.sender], wad) */\n      tag_209\n        /* \"ds-token/token.sol\":2783:2793  _approvals */\n      0x02\n        /* \"ds-token/token.sol\":2783:2798  _approvals[guy] */\n      0x00\n        /* \"ds-token/token.sol\":2794:2797  guy */\n      dup5\n        /* \"ds-token/token.sol\":2783:2798  _approvals[guy] */\n      0xffffffffffffffffffffffffffffffffffffffff\n      and\n      0xffffffffffffffffffffffffffffffffffffffff\n      and\n      dup2\n      mstore\n      0x20\n      add\n      swap1\n      dup2\n      mstore\n      0x20\n      add\n      0x00\n      keccak256\n        /* \"ds-token/token.sol\":2783:2810  _approvals[guy][msg.sender] */\n      0x00\n        /* \"ds-token/token.sol\":2799:2809  msg.sender */\n      caller\n        /* \"ds-token/token.sol\":2783:2810  _approvals[guy][msg.sender] */\n      0xffffffffffffffffffffffffffffffffffffffff\n      and\n      0xffffffffffffffffffffffffffffffffffffffff\n      and\n      dup2\n      mstore\n      0x20\n      add\n      swap1\n      dup2\n      mstore\n      0x20\n      add\n      0x00\n      keccak256\n      sload\n        /* \"ds-token/token.sol\":2812:2815  wad */\n      dup3\n        /* \"ds-token/token.sol\":2779:2782  sub */\n      tag_175\n        /* \"ds-token/token.sol\":2779:2816  sub(_approvals[guy][msg.sender], wad) */\n      jump\t// in\n    tag_209:\n        /* \"ds-token/token.sol\":2749:2759  _approvals */\n      0x02\n        /* \"ds-token/token.sol\":2749:2764  _approvals[guy] */\n      0x00\n        /* \"ds-token/token.sol\":2760:2763  guy */\n      dup5\n        /* \"ds-token/token.sol\":2749:2764  _approvals[guy] */\n      0xffffffffffffffffffffffffffffffffffffffff\n      and\n      0xffffffffffffffffffffffffffffffffffffffff\n      and\n      dup2\n      mstore\n      0x20\n      add\n      swap1\n      dup2\n      mstore\n      0x20\n      add\n      0x00\n      keccak256\n        /* \"ds-token/token.sol\":2749:2776  _approvals[guy][msg.sender] */\n      0x00\n        /* \"ds-token/token.sol\":2765:2775  msg.sender */\n      caller\n        /* \"ds-token/token.sol\":2749:2776  _approvals[guy][msg.sender] */\n      0xffffffffffffffffffffffffffffffffffffffff\n      and\n      0xffffffffffffffffffffffffffffffffffffffff\n      and\n      dup2\n      mstore\n      0x20\n      add\n      swap1\n      dup2\n      mstore\n      0x20\n      add\n      0x00\n      keccak256\n        /* \"ds-token/token.sol\":2749:2816  _approvals[guy][msg.sender] = sub(_approvals[guy][msg.sender], wad) */\n      dup2\n      swap1\n      sstore\n      pop\n        /* \"ds-token/token.sol\":2660:2827  if (guy != msg.sender && _approvals[guy][msg.sender] != type(uint256).max) {... */\n    tag_208:\n        /* \"ds-token/token.sol\":2854:2878  sub(_balances[guy], wad) */\n      tag_210\n        /* \"ds-token/token.sol\":2858:2867  _balances */\n      0x01\n        /* \"ds-token/token.sol\":2858:2872  _balances[guy] */\n      0x00\n        /* \"ds-token/token.sol\":2868:2871  guy */\n      dup5\n        /* \"ds-token/token.sol\":2858:2872  _balances[guy] */\n      0xffffffffffffffffffffffffffffffffffffffff\n      and\n      0xffffffffffffffffffffffffffffffffffffffff\n      and\n      dup2\n      mstore\n      0x20\n      add\n      swap1\n      dup2\n      mstore\n      0x20\n      add\n      0x00\n      keccak256\n      sload\n        /* \"ds-token/token.sol\":2874:2877  wad */\n      dup3\n        /* \"ds-token/token.sol\":2854:2857  sub */\n      tag_175\n        /* \"ds-token/token.sol\":2854:2878  sub(_balances[guy], wad) */\n      jump\t// in\n    tag_210:\n        /* \"ds-token/token.sol\":2837:2846  _balances */\n      0x01\n        /* \"ds-token/token.sol\":2837:2851  _balances[guy] */\n      0x00\n        /* \"ds-token/token.sol\":2847:2850  guy */\n      dup5\n        /* \"ds-token/token.sol\":2837:2851  _balances[guy] */\n      0xffffffffffffffffffffffffffffffffffffffff\n      and\n      0xffffffffffffffffffffffffffffffffffffffff\n      and\n      dup2\n      mstore\n      0x20\n      add\n      swap1\n      dup2\n      mstore\n      0x20\n      add\n      0x00\n      keccak256\n        /* \"ds-token/token.sol\":2837:2878  _balances[guy] = sub(_balances[guy], wad) */\n      dup2\n      swap1\n      sstore\n      pop\n        /* \"ds-token/token.sol\":2898:2915  sub(_supply, wad) */\n      tag_211\n        /* \"ds-token/token.sol\":2902:2909  _supply */\n      sload(0x00)\n        /* \"ds-token/token.sol\":2911:2914  wad */\n      dup3\n        /* \"ds-token/token.sol\":2898:2901  sub */\n      tag_175\n        /* \"ds-token/token.sol\":2898:2915  sub(_supply, wad) */\n      jump\t// in\n    tag_211:\n        /* \"ds-token/token.sol\":2888:2895  _supply */\n      0x00\n        /* \"ds-token/token.sol\":2888:2915  _supply = sub(_supply, wad) */\n      dup2\n      swap1\n      sstore\n      pop\n        /* \"ds-token/token.sol\":2934:2937  guy */\n      dup2\n        /* \"ds-token/token.sol\":2929:2943  Burn(guy, wad) */\n      0xffffffffffffffffffffffffffffffffffffffff\n      and\n      0xcc16f5dbb4873280815c1ee09dbd06736cffcc184412cf7a71a0fdb75d397ca5\n        /* \"ds-token/token.sol\":2939:2942  wad */\n      dup3\n        /* \"ds-token/token.sol\":2929:2943  Burn(guy, wad) */\n      mload(0x40)\n      tag_212\n      swap2\n      swap1\n      tag_54\n      jump\t// in\n    tag_212:\n      mload(0x40)\n      dup1\n      swap2\n      sub\n      swap1\n      log2\n        /* \"ds-token/token.sol\":2591:2950  function burn(address guy, uint wad) public auth stoppable {... */\n      pop\n      pop\n      jump\t// out\n        /* \"ds-token/token.sol\":2256:2325  function mint(uint wad) public {... */\n    tag_104:\n        /* \"ds-token/token.sol\":2297:2318  mint(msg.sender, wad) */\n      tag_214\n        /* \"ds-token/token.sol\":2302:2312  msg.sender */\n      caller\n        /* \"ds-token/token.sol\":2314:2317  wad */\n      dup3\n        /* \"ds-token/token.sol\":2297:2301  mint */\n      tag_68\n        /* \"ds-token/token.sol\":2297:2318  mint(msg.sender, wad) */\n      jump\t// in\n    tag_214:\n        /* \"ds-token/token.sol\":2256:2325  function mint(uint wad) public {... */\n      pop\n      jump\t// out\n        /* \"ds-token/base.sol\":1511:1641  function transfer(address dst, uint wad) public override returns (bool) {... */\n    tag_108:\n        /* \"ds-token/base.sol\":1577:1581  bool */\n      0x00\n        /* \"ds-token/base.sol\":1600:1634  transferFrom(msg.sender, dst, wad) */\n      tag_216\n        /* \"ds-token/base.sol\":1613:1623  msg.sender */\n      caller\n        /* \"ds-token/base.sol\":1625:1628  dst */\n      dup5\n        /* \"ds-token/base.sol\":1630:1633  wad */\n      dup5\n        /* \"ds-token/base.sol\":1600:1612  transferFrom */\n      tag_59\n        /* \"ds-token/base.sol\":1600:1634  transferFrom(msg.sender, dst, wad) */\n      jump\t// in\n    tag_216:\n        /* \"ds-token/base.sol\":1593:1634  return transferFrom(msg.sender, dst, wad) */\n      swap1\n      pop\n        /* \"ds-token/base.sol\":1511:1641  function transfer(address dst, uint wad) public override returns (bool) {... */\n      swap3\n      swap2\n      pop\n      pop\n      jump\t// out\n        /* \"ds-token/token.sol\":1949:2044  function push(address dst, uint wad) public {... */\n    tag_113:\n        /* \"ds-token/token.sol\":2003:2037  transferFrom(msg.sender, dst, wad) */\n      tag_218\n        /* \"ds-token/token.sol\":2016:2026  msg.sender */\n      caller\n        /* \"ds-token/token.sol\":2028:2031  dst */\n      dup4\n        /* \"ds-token/token.sol\":2033:2036  wad */\n      dup4\n        /* \"ds-token/token.sol\":2003:2015  transferFrom */\n      tag_59\n        /* \"ds-token/token.sol\":2003:2037  transferFrom(msg.sender, dst, wad) */\n      jump\t// in\n    tag_218:\n      pop\n        /* \"ds-token/token.sol\":1949:2044  function push(address dst, uint wad) public {... */\n      pop\n      pop\n      jump\t// out\n        /* \"ds-token/token.sol\":2149:2250  function move(address src, address dst, uint wad) public {... */\n    tag_117:\n        /* \"ds-token/token.sol\":2216:2243  transferFrom(src, dst, wad) */\n      tag_220\n        /* \"ds-token/token.sol\":2229:2232  src */\n      dup4\n        /* \"ds-token/token.sol\":2234:2237  dst */\n      dup4\n        /* \"ds-token/token.sol\":2239:2242  wad */\n      dup4\n        /* \"ds-token/token.sol\":2216:2228  transferFrom */\n      tag_59\n        /* \"ds-token/token.sol\":2216:2243  transferFrom(src, dst, wad) */\n      jump\t// in\n    tag_220:\n      pop\n        /* \"ds-token/token.sol\":2149:2250  function move(address src, address dst, uint wad) public {... */\n      pop\n      pop\n      pop\n      jump\t// out\n        /* \"/ds-stop/stop.sol\":1031:1105  function start() public payable auth note {... */\n    tag_119:\n        /* \"/ds-auth/auth.sol\":1490:1523  isAuthorized(msg.sender, msg.sig) */\n      tag_222\n        /* \"/ds-auth/auth.sol\":1503:1513  msg.sender */\n      caller\n        /* \"/ds-auth/auth.sol\":1515:1522  msg.sig */\n      and(0xffffffff00000000000000000000000000000000000000000000000000000000, calldataload(0x00))\n        /* \"/ds-auth/auth.sol\":1490:1502  isAuthorized */\n      tag_153\n        /* \"/ds-auth/auth.sol\":1490:1523  isAuthorized(msg.sender, msg.sig) */\n      jump\t// in\n    tag_222:\n        /* \"/ds-auth/auth.sol\":1482:1524  require(isAuthorized(msg.sender, msg.sig)) */\n      tag_223\n      jumpi\n      0x00\n      dup1\n      revert\n    tag_223:\n        /* \"/ds-note/note.sol\":1002:1013  bytes32 foo */\n      0x00\n        /* \"/ds-note/note.sol\":1023:1034  bytes32 bar */\n      dup1\n        /* \"/ds-note/note.sol\":1088:1089  4 */\n      0x04\n        /* \"/ds-note/note.sol\":1075:1090  calldataload(4) */\n      calldataload\n        /* \"/ds-note/note.sol\":1068:1090  foo := calldataload(4) */\n      swap2\n      pop\n        /* \"/ds-note/note.sol\":1123:1125  36 */\n      0x24\n        /* \"/ds-note/note.sol\":1110:1126  calldataload(36) */\n      calldataload\n        /* \"/ds-note/note.sol\":1103:1126  bar := calldataload(36) */\n      swap1\n      pop\n        /* \"/ds-note/note.sol\":1185:1188  bar */\n      dup1\n        /* \"/ds-note/note.sol\":1180:1183  foo */\n      dup3\n        /* \"/ds-note/note.sol\":1168:1178  msg.sender */\n      caller\n        /* \"/ds-note/note.sol\":1151:1210  LogNote(msg.sig, msg.sender, foo, bar, msg.value, msg.data) */\n      0xffffffffffffffffffffffffffffffffffffffff\n      and\n        /* \"/ds-note/note.sol\":1159:1166  msg.sig */\n      and(0xffffffff00000000000000000000000000000000000000000000000000000000, calldataload(0x00))\n        /* \"/ds-note/note.sol\":1151:1210  LogNote(msg.sig, msg.sender, foo, bar, msg.value, msg.data) */\n      not(0xffffffffffffffffffffffffffffffffffffffffffffffffffffffff)\n      and\n        /* \"/ds-note/note.sol\":1190:1199  msg.value */\n      callvalue\n        /* \"/ds-note/note.sol\":1201:1209  msg.data */\n      0x00\n      calldatasize\n        /* \"/ds-note/note.sol\":1151:1210  LogNote(msg.sig, msg.sender, foo, bar, msg.value, msg.data) */\n      mload(0x40)\n      tag_225\n      swap4\n      swap3\n      swap2\n      swap1\n      tag_157\n      jump\t// in\n    tag_225:\n      mload(0x40)\n      dup1\n      swap2\n      sub\n      swap1\n      log4\n        /* \"/ds-stop/stop.sol\":1093:1098  false */\n      0x00\n        /* \"/ds-stop/stop.sol\":1083:1090  stopped */\n      0x04\n      0x14\n        /* \"/ds-stop/stop.sol\":1083:1098  stopped = false */\n      0x0100\n      exp\n      dup2\n      sload\n      dup2\n      0xff\n      mul\n      not\n      and\n      swap1\n      dup4\n      iszero\n      iszero\n      mul\n      or\n      swap1\n      sstore\n      pop\n        /* \"/ds-note/note.sol\":992:1229  {... */\n      pop\n      pop\n        /* \"/ds-stop/stop.sol\":1031:1105  function start() public payable auth note {... */\n      jump\t// out\n        /* \"/ds-auth/auth.sol\":983:1013  DSAuthority  public  authority */\n    tag_122:\n      0x03\n      0x00\n      swap1\n      sload\n      swap1\n      0x0100\n      exp\n      swap1\n      div\n      0xffffffffffffffffffffffffffffffffffffffff\n      and\n      dup2\n      jump\t// out\n        /* \"ds-token/token.sol\":2984:3063  function setName(string memory name_) public auth {... */\n    tag_129:\n        /* \"/ds-auth/auth.sol\":1490:1523  isAuthorized(msg.sender, msg.sig) */\n      tag_228\n        /* \"/ds-auth/auth.sol\":1503:1513  msg.sender */\n      caller\n        /* \"/ds-auth/auth.sol\":1515:1522  msg.sig */\n      and(0xffffffff00000000000000000000000000000000000000000000000000000000, calldataload(0x00))\n        /* \"/ds-auth/auth.sol\":1490:1502  isAuthorized */\n      tag_153\n        /* \"/ds-auth/auth.sol\":1490:1523  isAuthorized(msg.sender, msg.sig) */\n      jump\t// in\n    tag_228:\n        /* \"/ds-auth/auth.sol\":1482:1524  require(isAuthorized(msg.sender, msg.sig)) */\n      tag_229\n      jumpi\n      0x00\n      dup1\n      revert\n    tag_229:\n        /* \"ds-token/token.sol\":3051:3056  name_ */\n      dup1\n        /* \"ds-token/token.sol\":3044:3048  name */\n      0x07\n        /* \"ds-token/token.sol\":3044:3056  name = name_ */\n      swap1\n      dup2\n      tag_231\n      swap2\n      swap1\n      tag_232\n      jump\t// in\n    tag_231:\n      pop\n        /* \"ds-token/token.sol\":2984:3063  function setName(string memory name_) public auth {... */\n      pop\n      jump\t// out\n        /* \"ds-token/token.sol\":1198:1321  function approve(address guy) public stoppable returns (bool) {... */\n    tag_133:\n        /* \"ds-token/token.sol\":1254:1258  bool */\n      0x00\n        /* \"/ds-stop/stop.sol\":923:930  stopped */\n      0x04\n      0x14\n      swap1\n      sload\n      swap1\n      0x0100\n      exp\n      swap1\n      div\n      0xff\n      and\n        /* \"/ds-stop/stop.sol\":922:930  !stopped */\n      iszero\n        /* \"/ds-stop/stop.sol\":914:931  require(!stopped) */\n      tag_234\n      jumpi\n      0x00\n      dup1\n      revert\n    tag_234:\n        /* \"ds-token/token.sol\":1277:1314  super.approve(guy, type(uint256).max) */\n      tag_236\n        /* \"ds-token/token.sol\":1291:1294  guy */\n      dup3\n        /* \"ds-token/token.sol\":1296:1313  type(uint256).max */\n      0xffffffffffffffffffffffffffffffffffffffffffffffffffffffffffffffff\n        /* \"ds-token/token.sol\":1277:1290  super.approve */\n      tag_163\n        /* \"ds-token/token.sol\":1277:1314  super.approve(guy, type(uint256).max) */\n      jump\t// in\n    tag_236:\n        /* \"ds-token/token.sol\":1270:1314  return super.approve(guy, type(uint256).max) */\n      swap1\n      pop\n        /* \"ds-token/token.sol\":1198:1321  function approve(address guy) public stoppable returns (bool) {... */\n      swap2\n      swap1\n      pop\n      jump\t// out\n        /* \"ds-token/base.sol\":1380:1505  function allowance(address src, address guy) public override view returns (uint) {... */\n    tag_139:\n        /* \"ds-token/base.sol\":1455:1459  uint */\n      0x00\n        /* \"ds-token/base.sol\":1478:1488  _approvals */\n      0x02\n        /* \"ds-token/base.sol\":1478:1493  _approvals[src] */\n      0x00\n        /* \"ds-token/base.sol\":1489:1492  src */\n      dup5\n        /* \"ds-token/base.sol\":1478:1493  _approvals[src] */\n      0xffffffffffffffffffffffffffffffffffffffff\n      and\n      0xffffffffffffffffffffffffffffffffffffffff\n      and\n      dup2\n      mstore\n      0x20\n      add\n      swap1\n      dup2\n      mstore\n      0x20\n      add\n      0x00\n      keccak256\n        /* \"ds-token/base.sol\":1478:1498  _approvals[src][guy] */\n      0x00\n        /* \"ds-token/base.sol\":1494:1497  guy */\n      dup4\n        /* \"ds-token/base.sol\":1478:1498  _approvals[src][guy] */\n      0xffffffffffffffffffffffffffffffffffffffff\n      and\n      0xffffffffffffffffffffffffffffffffffffffff\n      and\n      dup2\n      mstore\n      0x20\n      add\n      swap1\n      dup2\n      mstore\n      0x20\n      add\n      0x00\n      keccak256\n      sload\n        /* \"ds-token/base.sol\":1471:1498  return _approvals[src][guy] */\n      swap1\n      pop\n        /* \"ds-token/base.sol\":1380:1505  function allowance(address src, address guy) public override view returns (uint) {... */\n      swap3\n      swap2\n      pop\n      pop\n      jump\t// out\n        /* \"ds-token/token.sol\":2049:2144  function pull(address src, uint wad) public {... */\n    tag_144:\n        /* \"ds-token/token.sol\":2103:2137  transferFrom(src, msg.sender, wad) */\n      tag_239\n        /* \"ds-token/token.sol\":2116:2119  src */\n      dup3\n        /* \"ds-token/token.sol\":2121:2131  msg.sender */\n      caller\n        /* \"ds-token/token.sol\":2133:2136  wad */\n      dup4\n        /* \"ds-token/token.sol\":2103:2115  transferFrom */\n      tag_59\n        /* \"ds-token/token.sol\":2103:2137  transferFrom(src, msg.sender, wad) */\n      jump\t// in\n    tag_239:\n      pop\n        /* \"ds-token/token.sol\":2049:2144  function pull(address src, uint wad) public {... */\n      pop\n      pop\n      jump\t// out\n        /* \"/ds-auth/auth.sol\":1548:1923  function isAuthorized(address src, bytes4 sig) internal view returns (bool) {... */\n    tag_153:\n        /* \"/ds-auth/auth.sol\":1618:1622  bool */\n      0x00\n        /* \"/ds-auth/auth.sol\":1653:1657  this */\n      address\n        /* \"/ds-auth/auth.sol\":1638:1658  src == address(this) */\n      0xffffffffffffffffffffffffffffffffffffffff\n      and\n        /* \"/ds-auth/auth.sol\":1638:1641  src */\n      dup4\n        /* \"/ds-auth/auth.sol\":1638:1658  src == address(this) */\n      0xffffffffffffffffffffffffffffffffffffffff\n      and\n      sub\n        /* \"/ds-auth/auth.sol\":1634:1917  if (src == address(this)) {... */\n      tag_241\n      jumpi\n        /* \"/ds-auth/auth.sol\":1681:1685  true */\n      0x01\n        /* \"/ds-auth/auth.sol\":1674:1685  return true */\n      swap1\n      pop\n      jump(tag_240)\n        /* \"/ds-auth/auth.sol\":1634:1917  if (src == address(this)) {... */\n    tag_241:\n        /* \"/ds-auth/auth.sol\":1713:1718  owner */\n      0x04\n      0x00\n      swap1\n      sload\n      swap1\n      0x0100\n      exp\n      swap1\n      div\n      0xffffffffffffffffffffffffffffffffffffffff\n      and\n        /* \"/ds-auth/auth.sol\":1706:1718  src == owner */\n      0xffffffffffffffffffffffffffffffffffffffff\n      and\n        /* \"/ds-auth/auth.sol\":1706:1709  src */\n      dup4\n        /* \"/ds-auth/auth.sol\":1706:1718  src == owner */\n      0xffffffffffffffffffffffffffffffffffffffff\n      and\n      sub\n        /* \"/ds-auth/auth.sol\":1702:1917  if (src == owner) {... */\n      tag_243\n      jumpi\n        /* \"/ds-auth/auth.sol\":1741:1745  true */\n      0x01\n        /* \"/ds-auth/auth.sol\":1734:1745  return true */\n      swap1\n      pop\n      jump(tag_240)\n        /* \"/ds-auth/auth.sol\":1702:1917  if (src == owner) {... */\n    tag_243:\n        /* \"/ds-auth/auth.sol\":1796:1797  0 */\n      0x00\n        /* \"/ds-auth/auth.sol\":1766:1798  address(authority) == address(0) */\n      0xffffffffffffffffffffffffffffffffffffffff\n      and\n        /* \"/ds-auth/auth.sol\":1774:1783  authority */\n      0x03\n      0x00\n      swap1\n      sload\n      swap1\n      0x0100\n      exp\n      swap1\n      div\n      0xffffffffffffffffffffffffffffffffffffffff\n      and\n        /* \"/ds-auth/auth.sol\":1766:1798  address(authority) == address(0) */\n      0xffffffffffffffffffffffffffffffffffffffff\n      and\n      sub\n        /* \"/ds-auth/auth.sol\":1762:1917  if (address(authority) == address(0)) {... */\n      tag_245\n      jumpi\n        /* \"/ds-auth/auth.sol\":1821:1826  false */\n      0x00\n        /* \"/ds-auth/auth.sol\":1814:1826  return false */\n      swap1\n      pop\n      jump(tag_240)\n        /* \"/ds-auth/auth.sol\":1762:1917  if (address(authority) == address(0)) {... */\n    tag_245:\n        /* \"/ds-auth/auth.sol\":1864:1873  authority */\n      0x03\n      0x00\n      swap1\n      sload\n      swap1\n      0x0100\n      exp\n      swap1\n      div\n      0xffffffffffffffffffffffffffffffffffffffff\n      and\n        /* \"/ds-auth/auth.sol\":1864:1881  authority.canCall */\n      0xffffffffffffffffffffffffffffffffffffffff\n      and\n      0xb7009613\n        /* \"/ds-auth/auth.sol\":1882:1885  src */\n      dup5\n        /* \"/ds-auth/auth.sol\":1895:1899  this */\n      address\n        /* \"/ds-auth/auth.sol\":1902:1905  sig */\n      dup6\n        /* \"/ds-auth/auth.sol\":1864:1906  authority.canCall(src, address(this), sig) */\n      mload(0x40)\n      dup5\n      0xffffffff\n      and\n      0xe0\n      shl\n      dup2\n      mstore\n      0x04\n      add\n      tag_247\n      swap4\n      swap3\n      swap2\n      swap1\n      tag_248\n      jump\t// in\n    tag_247:\n      0x20\n      mload(0x40)\n      dup1\n      dup4\n      sub\n      dup2\n      dup7\n      gas\n      staticcall\n      iszero\n      dup1\n      iszero\n      tag_250\n      jumpi\n      returndatasize\n      0x00\n      dup1\n      returndatacopy\n      revert(0x00, returndatasize)\n    tag_250:\n      pop\n      pop\n      pop\n      pop\n      mload(0x40)\n      returndatasize\n      not(0x1f)\n      0x1f\n      dup3\n      add\n      and\n      dup3\n      add\n      dup1\n      0x40\n      mstore\n      pop\n      dup2\n      add\n      swap1\n      tag_251\n      swap2\n      swap1\n      tag_252\n      jump\t// in\n    tag_251:\n        /* \"/ds-auth/auth.sol\":1857:1906  return authority.canCall(src, address(this), sig) */\n      swap1\n      pop\n        /* \"/ds-auth/auth.sol\":1548:1923  function isAuthorized(address src, bytes4 sig) internal view returns (bool) {... */\n    tag_240:\n      swap3\n      swap2\n      pop\n      pop\n      jump\t// out\n        /* \"ds-token/base.sol\":2065:2261  function approve(address guy, uint wad) public override virtual returns (bool) {... */\n    tag_163:\n        /* \"ds-token/base.sol\":2138:2142  bool */\n      0x00\n        /* \"ds-token/base.sol\":2184:2187  wad */\n      dup2\n        /* \"ds-token/base.sol\":2154:2164  _approvals */\n      0x02\n        /* \"ds-token/base.sol\":2154:2176  _approvals[msg.sender] */\n      0x00\n        /* \"ds-token/base.sol\":2165:2175  msg.sender */\n      caller\n        /* \"ds-token/base.sol\":2154:2176  _approvals[msg.sender] */\n      0xffffffffffffffffffffffffffffffffffffffff\n      and\n      0xffffffffffffffffffffffffffffffffffffffff\n      and\n      dup2\n      mstore\n      0x20\n      add\n      swap1\n      dup2\n      mstore\n      0x20\n      add\n      0x00\n      keccak256\n        /* \"ds-token/base.sol\":2154:2181  _approvals[msg.sender][guy] */\n      0x00\n        /* \"ds-token/base.sol\":2177:2180  guy */\n      dup6\n        /* \"ds-token/base.sol\":2154:2181  _approvals[msg.sender][guy] */\n      0xffffffffffffffffffffffffffffffffffffffff\n      and\n      0xffffffffffffffffffffffffffffffffffffffff\n      and\n      dup2\n      mstore\n      0x20\n      add\n      swap1\n      dup2\n      mstore\n      0x20\n      add\n      0x00\n      keccak256\n        /* \"ds-token/base.sol\":2154:2187  _approvals[msg.sender][guy] = wad */\n      dup2\n      swap1\n      sstore\n      pop\n        /* \"ds-token/base.sol\":2223:2226  guy */\n      dup3\n        /* \"ds-token/base.sol\":2202:2232  Approval(msg.sender, guy, wad) */\n      0xffffffffffffffffffffffffffffffffffffffff\n      and\n        /* \"ds-token/base.sol\":2211:2221  msg.sender */\n      caller\n        /* \"ds-token/base.sol\":2202:2232  Approval(msg.sender, guy, wad) */\n      0xffffffffffffffffffffffffffffffffffffffff\n      and\n      0x8c5be1e5ebec7d5bd14f71427d1e84f3dd0314c0f7b2291e5b200ac8c7c3b925\n        /* \"ds-token/base.sol\":2228:2231  wad */\n      dup5\n        /* \"ds-token/base.sol\":2202:2232  Approval(msg.sender, guy, wad) */\n      mload(0x40)\n      tag_254\n      swap2\n      swap1\n      tag_54\n      jump\t// in\n    tag_254:\n      mload(0x40)\n      dup1\n      swap2\n      sub\n      swap1\n      log3\n        /* \"ds-token/base.sol\":2250:2254  true */\n      0x01\n        /* \"ds-token/base.sol\":2243:2254  return true */\n      swap1\n      pop\n        /* \"ds-token/base.sol\":2065:2261  function approve(address guy, uint wad) public override virtual returns (bool) {... */\n      swap3\n      swap2\n      pop\n      pop\n      jump\t// out\n        /* \"ds-math/math.sol\":874:1001  function sub(uint x, uint y) internal pure returns (uint z) {... */\n    tag_175:\n        /* \"ds-math/math.sol\":926:932  uint z */\n      0x00\n        /* \"ds-math/math.sol\":967:968  x */\n      dup3\n        /* \"ds-math/math.sol\":961:962  y */\n      dup3\n        /* \"ds-math/math.sol\":957:958  x */\n      dup5\n        /* \"ds-math/math.sol\":957:962  x - y */\n      tag_256\n      swap2\n      swap1\n      tag_257\n      jump\t// in\n    tag_256:\n        /* \"ds-math/math.sol\":953:962  z = x - y */\n      swap2\n      pop\n      dup2\n        /* \"ds-math/math.sol\":952:968  (z = x - y) <= x */\n      gt\n      iszero\n        /* \"ds-math/math.sol\":944:994  require((z = x - y) <= x, \"ds-math-sub-underflow\") */\n      tag_258\n      jumpi\n      mload(0x40)\n      0x08c379a000000000000000000000000000000000000000000000000000000000\n      dup2\n      mstore\n      0x04\n      add\n      tag_259\n      swap1\n      tag_260\n      jump\t// in\n    tag_259:\n      mload(0x40)\n      dup1\n      swap2\n      sub\n      swap1\n      revert\n    tag_258:\n        /* \"ds-math/math.sol\":874:1001  function sub(uint x, uint y) internal pure returns (uint z) {... */\n      swap3\n      swap2\n      pop\n      pop\n      jump\t// out\n        /* \"ds-math/math.sol\":743:869  function add(uint x, uint y) internal pure returns (uint z) {... */\n    tag_178:\n        /* \"ds-math/math.sol\":795:801  uint z */\n      0x00\n        /* \"ds-math/math.sol\":836:837  x */\n      dup3\n        /* \"ds-math/math.sol\":830:831  y */\n      dup3\n        /* \"ds-math/math.sol\":826:827  x */\n      dup5\n        /* \"ds-math/math.sol\":826:831  x + y */\n      tag_262\n      swap2\n      swap1\n      tag_263\n      jump\t// in\n    tag_262:\n        /* \"ds-math/math.sol\":822:831  z = x + y */\n      swap2\n      pop\n      dup2\n        /* \"ds-math/math.sol\":821:837  (z = x + y) >= x */\n      lt\n      iszero\n        /* \"ds-math/math.sol\":813:862  require((z = x + y) >= x, \"ds-math-add-overflow\") */\n      tag_264\n      jumpi\n      mload(0x40)\n      0x08c379a000000000000000000000000000000000000000000000000000000000\n      dup2\n      mstore\n      0x04\n      add\n      tag_265\n      swap1\n      tag_266\n      jump\t// in\n    tag_265:\n      mload(0x40)\n      dup1\n      swap2\n      sub\n      swap1\n      revert\n    tag_264:\n        /* \"ds-math/math.sol\":743:869  function add(uint x, uint y) internal pure returns (uint z) {... */\n      swap3\n      swap2\n      pop\n      pop\n      jump\t// out\n        /* \"#utility.yul\":7:106   */\n    tag_267:\n        /* \"#utility.yul\":59:65   */\n      0x00\n        /* \"#utility.yul\":93:98   */\n      dup2\n        /* \"#utility.yul\":87:99   */\n      mload\n        /* \"#utility.yul\":77:99   */\n      swap1\n      pop\n        /* \"#utility.yul\":7:106   */\n      swap2\n      swap1\n      pop\n      jump\t// out\n        /* \"#utility.yul\":112:281   */\n    tag_268:\n        /* \"#utility.yul\":196:207   */\n      0x00\n        /* \"#utility.yul\":230:236   */\n      dup3\n        /* \"#utility.yul\":225:228   */\n      dup3\n        /* \"#utility.yul\":218:237   */\n      mstore\n        /* \"#utility.yul\":270:274   */\n      0x20\n        /* \"#utility.yul\":265:268   */\n      dup3\n        /* \"#utility.yul\":261:275   */\n      add\n        /* \"#utility.yul\":246:275   */\n      swap1\n      pop\n        /* \"#utility.yul\":112:281   */\n      swap3\n      swap2\n      pop\n      pop\n      jump\t// out\n        /* \"#utility.yul\":287:533   */\n    tag_269:\n        /* \"#utility.yul\":368:369   */\n      0x00\n        /* \"#utility.yul\":378:491   */\n    tag_333:\n        /* \"#utility.yul\":392:398   */\n      dup4\n        /* \"#utility.yul\":389:390   */\n      dup2\n        /* \"#utility.yul\":386:399   */\n      lt\n        /* \"#utility.yul\":378:491   */\n      iszero\n      tag_335\n      jumpi\n        /* \"#utility.yul\":477:478   */\n      dup1\n        /* \"#utility.yul\":472:475   */\n      dup3\n        /* \"#utility.yul\":468:479   */\n      add\n        /* \"#utility.yul\":462:480   */\n      mload\n        /* \"#utility.yul\":458:459   */\n      dup2\n        /* \"#utility.yul\":453:456   */\n      dup5\n        /* \"#utility.yul\":449:460   */\n      add\n        /* \"#utility.yul\":442:481   */\n      mstore\n        /* \"#utility.yul\":414:416   */\n      0x20\n        /* \"#utility.yul\":411:412   */\n      dup2\n        /* \"#utility.yul\":407:417   */\n      add\n        /* \"#utility.yul\":402:417   */\n      swap1\n      pop\n        /* \"#utility.yul\":378:491   */\n      jump(tag_333)\n    tag_335:\n        /* \"#utility.yul\":525:526   */\n      0x00\n        /* \"#utility.yul\":516:522   */\n      dup5\n        /* \"#utility.yul\":511:514   */\n      dup5\n        /* \"#utility.yul\":507:523   */\n      add\n        /* \"#utility.yul\":500:527   */\n      mstore\n        /* \"#utility.yul\":349:533   */\n      pop\n        /* \"#utility.yul\":287:533   */\n      pop\n      pop\n      pop\n      jump\t// out\n        /* \"#utility.yul\":539:641   */\n    tag_270:\n        /* \"#utility.yul\":580:586   */\n      0x00\n        /* \"#utility.yul\":631:633   */\n      0x1f\n        /* \"#utility.yul\":627:634   */\n      not\n        /* \"#utility.yul\":622:624   */\n      0x1f\n        /* \"#utility.yul\":615:620   */\n      dup4\n        /* \"#utility.yul\":611:625   */\n      add\n        /* \"#utility.yul\":607:635   */\n      and\n        /* \"#utility.yul\":597:635   */\n      swap1\n      pop\n        /* \"#utility.yul\":539:641   */\n      swap2\n      swap1\n      pop\n      jump\t// out\n        /* \"#utility.yul\":647:1024   */\n    tag_271:\n        /* \"#utility.yul\":735:738   */\n      0x00\n        /* \"#utility.yul\":763:802   */\n      tag_338\n        /* \"#utility.yul\":796:801   */\n      dup3\n        /* \"#utility.yul\":763:802   */\n      tag_267\n      jump\t// in\n    tag_338:\n        /* \"#utility.yul\":818:889   */\n      tag_339\n        /* \"#utility.yul\":882:888   */\n      dup2\n        /* \"#utility.yul\":877:880   */\n      dup6\n        /* \"#utility.yul\":818:889   */\n      tag_268\n      jump\t// in\n    tag_339:\n        /* \"#utility.yul\":811:889   */\n      swap4\n      pop\n        /* \"#utility.yul\":898:963   */\n      tag_340\n        /* \"#utility.yul\":956:962   */\n      dup2\n        /* \"#utility.yul\":951:954   */\n      dup6\n        /* \"#utility.yul\":944:948   */\n      0x20\n        /* \"#utility.yul\":937:942   */\n      dup7\n        /* \"#utility.yul\":933:949   */\n      add\n        /* \"#utility.yul\":898:963   */\n      tag_269\n      jump\t// in\n    tag_340:\n        /* \"#utility.yul\":988:1017   */\n      tag_341\n        /* \"#utility.yul\":1010:1016   */\n      dup2\n        /* \"#utility.yul\":988:1017   */\n      tag_270\n      jump\t// in\n    tag_341:\n        /* \"#utility.yul\":983:986   */\n      dup5\n        /* \"#utility.yul\":979:1018   */\n      add\n        /* \"#utility.yul\":972:1018   */\n      swap2\n      pop\n        /* \"#utility.yul\":739:1024   */\n      pop\n        /* \"#utility.yul\":647:1024   */\n      swap3\n      swap2\n      pop\n      pop\n      jump\t// out\n        /* \"#utility.yul\":1030:1343   */\n    tag_35:\n        /* \"#utility.yul\":1143:1147   */\n      0x00\n        /* \"#utility.yul\":1181:1183   */\n      0x20\n        /* \"#utility.yul\":1170:1179   */\n      dup3\n        /* \"#utility.yul\":1166:1184   */\n      add\n        /* \"#utility.yul\":1158:1184   */\n      swap1\n      pop\n        /* \"#utility.yul\":1230:1239   */\n      dup2\n        /* \"#utility.yul\":1224:1228   */\n      dup2\n        /* \"#utility.yul\":1220:1240   */\n      sub\n        /* \"#utility.yul\":1216:1217   */\n      0x00\n        /* \"#utility.yul\":1205:1214   */\n      dup4\n        /* \"#utility.yul\":1201:1218   */\n      add\n        /* \"#utility.yul\":1194:1241   */\n      mstore\n        /* \"#utility.yul\":1258:1336   */\n      tag_343\n        /* \"#utility.yul\":1331:1335   */\n      dup2\n        /* \"#utility.yul\":1322:1328   */\n      dup5\n        /* \"#utility.yul\":1258:1336   */\n      tag_271\n      jump\t// in\n    tag_343:\n        /* \"#utility.yul\":1250:1336   */\n      swap1\n      pop\n        /* \"#utility.yul\":1030:1343   */\n      swap3\n      swap2\n      pop\n      pop\n      jump\t// out\n        /* \"#utility.yul\":1349:1424   */\n    tag_272:\n        /* \"#utility.yul\":1382:1388   */\n      0x00\n        /* \"#utility.yul\":1415:1417   */\n      0x40\n        /* \"#utility.yul\":1409:1418   */\n      mload\n        /* \"#utility.yul\":1399:1418   */\n      swap1\n      pop\n        /* \"#utility.yul\":1349:1424   */\n      swap1\n      jump\t// out\n        /* \"#utility.yul\":1430:1547   */\n    tag_273:\n        /* \"#utility.yul\":1539:1540   */\n      0x00\n        /* \"#utility.yul\":1536:1537   */\n      dup1\n        /* \"#utility.yul\":1529:1541   */\n      revert\n        /* \"#utility.yul\":1553:1670   */\n    tag_274:\n        /* \"#utility.yul\":1662:1663   */\n      0x00\n        /* \"#utility.yul\":1659:1660   */\n      dup1\n        /* \"#utility.yul\":1652:1664   */\n      revert\n        /* \"#utility.yul\":1676:1802   */\n    tag_275:\n        /* \"#utility.yul\":1713:1720   */\n      0x00\n        /* \"#utility.yul\":1753:1795   */\n      0xffffffffffffffffffffffffffffffffffffffff\n        /* \"#utility.yul\":1746:1751   */\n      dup3\n        /* \"#utility.yul\":1742:1796   */\n      and\n        /* \"#utility.yul\":1731:1796   */\n      swap1\n      pop\n        /* \"#utility.yul\":1676:1802   */\n      swap2\n      swap1\n      pop\n      jump\t// out\n        /* \"#utility.yul\":1808:1904   */\n    tag_276:\n        /* \"#utility.yul\":1845:1852   */\n      0x00\n        /* \"#utility.yul\":1874:1898   */\n      tag_349\n        /* \"#utility.yul\":1892:1897   */\n      dup3\n        /* \"#utility.yul\":1874:1898   */\n      tag_275\n      jump\t// in\n    tag_349:\n        /* \"#utility.yul\":1863:1898   */\n      swap1\n      pop\n        /* \"#utility.yul\":1808:1904   */\n      swap2\n      swap1\n      pop\n      jump\t// out\n        /* \"#utility.yul\":1910:2032   */\n    tag_277:\n        /* \"#utility.yul\":1983:2007   */\n      tag_351\n        /* \"#utility.yul\":2001:2006   */\n      dup2\n        /* \"#utility.yul\":1983:2007   */\n      tag_276\n      jump\t// in\n    tag_351:\n        /* \"#utility.yul\":1976:1981   */\n      dup2\n        /* \"#utility.yul\":1973:2008   */\n      eq\n        /* \"#utility.yul\":1963:2026   */\n      tag_352\n      jumpi\n        /* \"#utility.yul\":2022:2023   */\n      0x00\n        /* \"#utility.yul\":2019:2020   */\n      dup1\n        /* \"#utility.yul\":2012:2024   */\n      revert\n        /* \"#utility.yul\":1963:2026   */\n    tag_352:\n        /* \"#utility.yul\":1910:2032   */\n      pop\n      jump\t// out\n        /* \"#utility.yul\":2038:2177   */\n    tag_278:\n        /* \"#utility.yul\":2084:2089   */\n      0x00\n        /* \"#utility.yul\":2122:2128   */\n      dup2\n        /* \"#utility.yul\":2109:2129   */\n      calldataload\n        /* \"#utility.yul\":2100:2129   */\n      swap1\n      pop\n        /* \"#utility.yul\":2138:2171   */\n      tag_354\n        /* \"#utility.yul\":2165:2170   */\n      dup2\n        /* \"#utility.yul\":2138:2171   */\n      tag_277\n      jump\t// in\n    tag_354:\n        /* \"#utility.yul\":2038:2177   */\n      swap3\n      swap2\n      pop\n      pop\n      jump\t// out\n        /* \"#utility.yul\":2183:2260   */\n    tag_279:\n        /* \"#utility.yul\":2220:2227   */\n      0x00\n        /* \"#utility.yul\":2249:2254   */\n      dup2\n        /* \"#utility.yul\":2238:2254   */\n      swap1\n      pop\n        /* \"#utility.yul\":2183:2260   */\n      swap2\n      swap1\n      pop\n      jump\t// out\n        /* \"#utility.yul\":2266:2388   */\n    tag_280:\n        /* \"#utility.yul\":2339:2363   */\n      tag_357\n        /* \"#utility.yul\":2357:2362   */\n      dup2\n        /* \"#utility.yul\":2339:2363   */\n      tag_279\n      jump\t// in\n    tag_357:\n        /* \"#utility.yul\":2332:2337   */\n      dup2\n        /* \"#utility.yul\":2329:2364   */\n      eq\n        /* \"#utility.yul\":2319:2382   */\n      tag_358\n      jumpi\n        /* \"#utility.yul\":2378:2379   */\n      0x00\n        /* \"#utility.yul\":2375:2376   */\n      dup1\n        /* \"#utility.yul\":2368:2380   */\n      revert\n        /* \"#utility.yul\":2319:2382   */\n    tag_358:\n        /* \"#utility.yul\":2266:2388   */\n      pop\n      jump\t// out\n        /* \"#utility.yul\":2394:2533   */\n    tag_281:\n        /* \"#utility.yul\":2440:2445   */\n      0x00\n        /* \"#utility.yul\":2478:2484   */\n      dup2\n        /* \"#utility.yul\":2465:2485   */\n      calldataload\n        /* \"#utility.yul\":2456:2485   */\n      swap1\n      pop\n        /* \"#utility.yul\":2494:2527   */\n      tag_360\n        /* \"#utility.yul\":2521:2526   */\n      dup2\n        /* \"#utility.yul\":2494:2527   */\n      tag_280\n      jump\t// in\n    tag_360:\n        /* \"#utility.yul\":2394:2533   */\n      swap3\n      swap2\n      pop\n      pop\n      jump\t// out\n        /* \"#utility.yul\":2539:3013   */\n    tag_41:\n        /* \"#utility.yul\":2607:2613   */\n      0x00\n        /* \"#utility.yul\":2615:2621   */\n      dup1\n        /* \"#utility.yul\":2664:2666   */\n      0x40\n        /* \"#utility.yul\":2652:2661   */\n      dup4\n        /* \"#utility.yul\":2643:2650   */\n      dup6\n        /* \"#utility.yul\":2639:2662   */\n      sub\n        /* \"#utility.yul\":2635:2667   */\n      slt\n        /* \"#utility.yul\":2632:2751   */\n      iszero\n      tag_362\n      jumpi\n        /* \"#utility.yul\":2670:2749   */\n      tag_363\n      tag_273\n      jump\t// in\n    tag_363:\n        /* \"#utility.yul\":2632:2751   */\n    tag_362:\n        /* \"#utility.yul\":2790:2791   */\n      0x00\n        /* \"#utility.yul\":2815:2868   */\n      tag_364\n        /* \"#utility.yul\":2860:2867   */\n      dup6\n        /* \"#utility.yul\":2851:2857   */\n      dup3\n        /* \"#utility.yul\":2840:2849   */\n      dup7\n        /* \"#utility.yul\":2836:2858   */\n      add\n        /* \"#utility.yul\":2815:2868   */\n      tag_278\n      jump\t// in\n    tag_364:\n        /* \"#utility.yul\":2805:2868   */\n      swap3\n      pop\n        /* \"#utility.yul\":2761:2878   */\n      pop\n        /* \"#utility.yul\":2917:2919   */\n      0x20\n        /* \"#utility.yul\":2943:2996   */\n      tag_365\n        /* \"#utility.yul\":2988:2995   */\n      dup6\n        /* \"#utility.yul\":2979:2985   */\n      dup3\n        /* \"#utility.yul\":2968:2977   */\n      dup7\n        /* \"#utility.yul\":2964:2986   */\n      add\n        /* \"#utility.yul\":2943:2996   */\n      tag_281\n      jump\t// in\n    tag_365:\n        /* \"#utility.yul\":2933:2996   */\n      swap2\n      pop\n        /* \"#utility.yul\":2888:3006   */\n      pop\n        /* \"#utility.yul\":2539:3013   */\n      swap3\n      pop\n      swap3\n      swap1\n      pop\n      jump\t// out\n        /* \"#utility.yul\":3019:3109   */\n    tag_282:\n        /* \"#utility.yul\":3053:3060   */\n      0x00\n        /* \"#utility.yul\":3096:3101   */\n      dup2\n        /* \"#utility.yul\":3089:3102   */\n      iszero\n        /* \"#utility.yul\":3082:3103   */\n      iszero\n        /* \"#utility.yul\":3071:3103   */\n      swap1\n      pop\n        /* \"#utility.yul\":3019:3109   */\n      swap2\n      swap1\n      pop\n      jump\t// out\n        /* \"#utility.yul\":3115:3224   */\n    tag_283:\n        /* \"#utility.yul\":3196:3217   */\n      tag_368\n        /* \"#utility.yul\":3211:3216   */\n      dup2\n        /* \"#utility.yul\":3196:3217   */\n      tag_282\n      jump\t// in\n    tag_368:\n        /* \"#utility.yul\":3191:3194   */\n      dup3\n        /* \"#utility.yul\":3184:3218   */\n      mstore\n        /* \"#utility.yul\":3115:3224   */\n      pop\n      pop\n      jump\t// out\n        /* \"#utility.yul\":3230:3440   */\n    tag_44:\n        /* \"#utility.yul\":3317:3321   */\n      0x00\n        /* \"#utility.yul\":3355:3357   */\n      0x20\n        /* \"#utility.yul\":3344:3353   */\n      dup3\n        /* \"#utility.yul\":3340:3358   */\n      add\n        /* \"#utility.yul\":3332:3358   */\n      swap1\n      pop\n        /* \"#utility.yul\":3368:3433   */\n      tag_370\n        /* \"#utility.yul\":3430:3431   */\n      0x00\n        /* \"#utility.yul\":3419:3428   */\n      dup4\n        /* \"#utility.yul\":3415:3432   */\n      add\n        /* \"#utility.yul\":3406:3412   */\n      dup5\n        /* \"#utility.yul\":3368:3433   */\n      tag_283\n      jump\t// in\n    tag_370:\n        /* \"#utility.yul\":3230:3440   */\n      swap3\n      swap2\n      pop\n      pop\n      jump\t// out\n        /* \"#utility.yul\":3446:3775   */\n    tag_48:\n        /* \"#utility.yul\":3505:3511   */\n      0x00\n        /* \"#utility.yul\":3554:3556   */\n      0x20\n        /* \"#utility.yul\":3542:3551   */\n      dup3\n        /* \"#utility.yul\":3533:3540   */\n      dup5\n        /* \"#utility.yul\":3529:3552   */\n      sub\n        /* \"#utility.yul\":3525:3557   */\n      slt\n        /* \"#utility.yul\":3522:3641   */\n      iszero\n      tag_372\n      jumpi\n        /* \"#utility.yul\":3560:3639   */\n      tag_373\n      tag_273\n      jump\t// in\n    tag_373:\n        /* \"#utility.yul\":3522:3641   */\n    tag_372:\n        /* \"#utility.yul\":3680:3681   */\n      0x00\n        /* \"#utility.yul\":3705:3758   */\n      tag_374\n        /* \"#utility.yul\":3750:3757   */\n      dup5\n        /* \"#utility.yul\":3741:3747   */\n      dup3\n        /* \"#utility.yul\":3730:3739   */\n      dup6\n        /* \"#utility.yul\":3726:3748   */\n      add\n        /* \"#utility.yul\":3705:3758   */\n      tag_278\n      jump\t// in\n    tag_374:\n        /* \"#utility.yul\":3695:3758   */\n      swap2\n      pop\n        /* \"#utility.yul\":3651:3768   */\n      pop\n        /* \"#utility.yul\":3446:3775   */\n      swap3\n      swap2\n      pop\n      pop\n      jump\t// out\n        /* \"#utility.yul\":3781:3899   */\n    tag_284:\n        /* \"#utility.yul\":3868:3892   */\n      tag_376\n        /* \"#utility.yul\":3886:3891   */\n      dup2\n        /* \"#utility.yul\":3868:3892   */\n      tag_279\n      jump\t// in\n    tag_376:\n        /* \"#utility.yul\":3863:3866   */\n      dup3\n        /* \"#utility.yul\":3856:3893   */\n      mstore\n        /* \"#utility.yul\":3781:3899   */\n      pop\n      pop\n      jump\t// out\n        /* \"#utility.yul\":3905:4127   */\n    tag_54:\n        /* \"#utility.yul\":3998:4002   */\n      0x00\n        /* \"#utility.yul\":4036:4038   */\n      0x20\n        /* \"#utility.yul\":4025:4034   */\n      dup3\n        /* \"#utility.yul\":4021:4039   */\n      add\n        /* \"#utility.yul\":4013:4039   */\n      swap1\n      pop\n        /* \"#utility.yul\":4049:4120   */\n      tag_378\n        /* \"#utility.yul\":4117:4118   */\n      0x00\n        /* \"#utility.yul\":4106:4115   */\n      dup4\n        /* \"#utility.yul\":4102:4119   */\n      add\n        /* \"#utility.yul\":4093:4099   */\n      dup5\n        /* \"#utility.yul\":4049:4120   */\n      tag_284\n      jump\t// in\n    tag_378:\n        /* \"#utility.yul\":3905:4127   */\n      swap3\n      swap2\n      pop\n      pop\n      jump\t// out\n        /* \"#utility.yul\":4133:4752   */\n    tag_58:\n        /* \"#utility.yul\":4210:4216   */\n      0x00\n        /* \"#utility.yul\":4218:4224   */\n      dup1\n        /* \"#utility.yul\":4226:4232   */\n      0x00\n        /* \"#utility.yul\":4275:4277   */\n      0x60\n        /* \"#utility.yul\":4263:4272   */\n      dup5\n        /* \"#utility.yul\":4254:4261   */\n      dup7\n        /* \"#utility.yul\":4250:4273   */\n      sub\n        /* \"#utility.yul\":4246:4278   */\n      slt\n        /* \"#utility.yul\":4243:4362   */\n      iszero\n      tag_380\n      jumpi\n        /* \"#utility.yul\":4281:4360   */\n      tag_381\n      tag_273\n      jump\t// in\n    tag_381:\n        /* \"#utility.yul\":4243:4362   */\n    tag_380:\n        /* \"#utility.yul\":4401:4402   */\n      0x00\n        /* \"#utility.yul\":4426:4479   */\n      tag_382\n        /* \"#utility.yul\":4471:4478   */\n      dup7\n        /* \"#utility.yul\":4462:4468   */\n      dup3\n        /* \"#utility.yul\":4451:4460   */\n      dup8\n        /* \"#utility.yul\":4447:4469   */\n      add\n        /* \"#utility.yul\":4426:4479   */\n      tag_278\n      jump\t// in\n    tag_382:\n        /* \"#utility.yul\":4416:4479   */\n      swap4\n      pop\n        /* \"#utility.yul\":4372:4489   */\n      pop\n        /* \"#utility.yul\":4528:4530   */\n      0x20\n        /* \"#utility.yul\":4554:4607   */\n      tag_383\n        /* \"#utility.yul\":4599:4606   */\n      dup7\n        /* \"#utility.yul\":4590:4596   */\n      dup3\n        /* \"#utility.yul\":4579:4588   */\n      dup8\n        /* \"#utility.yul\":4575:4597   */\n      add\n        /* \"#utility.yul\":4554:4607   */\n      tag_278\n      jump\t// in\n    tag_383:\n        /* \"#utility.yul\":4544:4607   */\n      swap3\n      pop\n        /* \"#utility.yul\":4499:4617   */\n      pop\n        /* \"#utility.yul\":4656:4658   */\n      0x40\n        /* \"#utility.yul\":4682:4735   */\n      tag_384\n        /* \"#utility.yul\":4727:4734   */\n      dup7\n        /* \"#utility.yul\":4718:4724   */\n      dup3\n        /* \"#utility.yul\":4707:4716   */\n      dup8\n        /* \"#utility.yul\":4703:4725   */\n      add\n        /* \"#utility.yul\":4682:4735   */\n      tag_281\n      jump\t// in\n    tag_384:\n        /* \"#utility.yul\":4672:4735   */\n      swap2\n      pop\n        /* \"#utility.yul\":4627:4745   */\n      pop\n        /* \"#utility.yul\":4133:4752   */\n      swap3\n      pop\n      swap3\n      pop\n      swap3\n      jump\t// out\n        /* \"#utility.yul\":4758:5087   */\n    tag_72:\n        /* \"#utility.yul\":4817:4823   */\n      0x00\n        /* \"#utility.yul\":4866:4868   */\n      0x20\n        /* \"#utility.yul\":4854:4863   */\n      dup3\n        /* \"#utility.yul\":4845:4852   */\n      dup5\n        /* \"#utility.yul\":4841:4864   */\n      sub\n        /* \"#utility.yul\":4837:4869   */\n      slt\n        /* \"#utility.yul\":4834:4953   */\n      iszero\n      tag_386\n      jumpi\n        /* \"#utility.yul\":4872:4951   */\n      tag_387\n      tag_273\n      jump\t// in\n    tag_387:\n        /* \"#utility.yul\":4834:4953   */\n    tag_386:\n        /* \"#utility.yul\":4992:4993   */\n      0x00\n        /* \"#utility.yul\":5017:5070   */\n      tag_388\n        /* \"#utility.yul\":5062:5069   */\n      dup5\n        /* \"#utility.yul\":5053:5059   */\n      dup3\n        /* \"#utility.yul\":5042:5051   */\n      dup6\n        /* \"#utility.yul\":5038:5060   */\n      add\n        /* \"#utility.yul\":5017:5070   */\n      tag_281\n      jump\t// in\n    tag_388:\n        /* \"#utility.yul\":5007:5070   */\n      swap2\n      pop\n        /* \"#utility.yul\":4963:5080   */\n      pop\n        /* \"#utility.yul\":4758:5087   */\n      swap3\n      swap2\n      pop\n      pop\n      jump\t// out\n        /* \"#utility.yul\":5093:5207   */\n    tag_285:\n        /* \"#utility.yul\":5148:5155   */\n      0x00\n        /* \"#utility.yul\":5177:5201   */\n      tag_390\n        /* \"#utility.yul\":5195:5200   */\n      dup3\n        /* \"#utility.yul\":5177:5201   */\n      tag_276\n      jump\t// in\n    tag_390:\n        /* \"#utility.yul\":5166:5201   */\n      swap1\n      pop\n        /* \"#utility.yul\":5093:5207   */\n      swap2\n      swap1\n      pop\n      jump\t// out\n        /* \"#utility.yul\":5213:5371   */\n    tag_286:\n        /* \"#utility.yul\":5304:5346   */\n      tag_392\n        /* \"#utility.yul\":5340:5345   */\n      dup2\n        /* \"#utility.yul\":5304:5346   */\n      tag_285\n      jump\t// in\n    tag_392:\n        /* \"#utility.yul\":5297:5302   */\n      dup2\n        /* \"#utility.yul\":5294:5347   */\n      eq\n        /* \"#utility.yul\":5284:5365   */\n      tag_393\n      jumpi\n        /* \"#utility.yul\":5361:5362   */\n      0x00\n        /* \"#utility.yul\":5358:5359   */\n      dup1\n        /* \"#utility.yul\":5351:5363   */\n      revert\n        /* \"#utility.yul\":5284:5365   */\n    tag_393:\n        /* \"#utility.yul\":5213:5371   */\n      pop\n      jump\t// out\n        /* \"#utility.yul\":5377:5552   */\n    tag_287:\n        /* \"#utility.yul\":5441:5446   */\n      0x00\n        /* \"#utility.yul\":5479:5485   */\n      dup2\n        /* \"#utility.yul\":5466:5486   */\n      calldataload\n        /* \"#utility.yul\":5457:5486   */\n      swap1\n      pop\n        /* \"#utility.yul\":5495:5546   */\n      tag_395\n        /* \"#utility.yul\":5540:5545   */\n      dup2\n        /* \"#utility.yul\":5495:5546   */\n      tag_286\n      jump\t// in\n    tag_395:\n        /* \"#utility.yul\":5377:5552   */\n      swap3\n      swap2\n      pop\n      pop\n      jump\t// out\n        /* \"#utility.yul\":5558:5923   */\n    tag_86:\n        /* \"#utility.yul\":5635:5641   */\n      0x00\n        /* \"#utility.yul\":5684:5686   */\n      0x20\n        /* \"#utility.yul\":5672:5681   */\n      dup3\n        /* \"#utility.yul\":5663:5670   */\n      dup5\n        /* \"#utility.yul\":5659:5682   */\n      sub\n        /* \"#utility.yul\":5655:5687   */\n      slt\n        /* \"#utility.yul\":5652:5771   */\n      iszero\n      tag_397\n      jumpi\n        /* \"#utility.yul\":5690:5769   */\n      tag_398\n      tag_273\n      jump\t// in\n    tag_398:\n        /* \"#utility.yul\":5652:5771   */\n    tag_397:\n        /* \"#utility.yul\":5810:5811   */\n      0x00\n        /* \"#utility.yul\":5835:5906   */\n      tag_399\n        /* \"#utility.yul\":5898:5905   */\n      dup5\n        /* \"#utility.yul\":5889:5895   */\n      dup3\n        /* \"#utility.yul\":5878:5887   */\n      dup6\n        /* \"#utility.yul\":5874:5896   */\n      add\n        /* \"#utility.yul\":5835:5906   */\n      tag_287\n      jump\t// in\n    tag_399:\n        /* \"#utility.yul\":5825:5906   */\n      swap2\n      pop\n        /* \"#utility.yul\":5781:5916   */\n      pop\n        /* \"#utility.yul\":5558:5923   */\n      swap3\n      swap2\n      pop\n      pop\n      jump\t// out\n        /* \"#utility.yul\":5929:6047   */\n    tag_288:\n        /* \"#utility.yul\":6016:6040   */\n      tag_401\n        /* \"#utility.yul\":6034:6039   */\n      dup2\n        /* \"#utility.yul\":6016:6040   */\n      tag_276\n      jump\t// in\n    tag_401:\n        /* \"#utility.yul\":6011:6014   */\n      dup3\n        /* \"#utility.yul\":6004:6041   */\n      mstore\n        /* \"#utility.yul\":5929:6047   */\n      pop\n      pop\n      jump\t// out\n        /* \"#utility.yul\":6053:6275   */\n    tag_92:\n        /* \"#utility.yul\":6146:6150   */\n      0x00\n        /* \"#utility.yul\":6184:6186   */\n      0x20\n        /* \"#utility.yul\":6173:6182   */\n      dup3\n        /* \"#utility.yul\":6169:6187   */\n      add\n        /* \"#utility.yul\":6161:6187   */\n      swap1\n      pop\n        /* \"#utility.yul\":6197:6268   */\n      tag_403\n        /* \"#utility.yul\":6265:6266   */\n      0x00\n        /* \"#utility.yul\":6254:6263   */\n      dup4\n        /* \"#utility.yul\":6250:6267   */\n      add\n        /* \"#utility.yul\":6241:6247   */\n      dup5\n        /* \"#utility.yul\":6197:6268   */\n      tag_288\n      jump\t// in\n    tag_403:\n        /* \"#utility.yul\":6053:6275   */\n      swap3\n      swap2\n      pop\n      pop\n      jump\t// out\n        /* \"#utility.yul\":6281:6341   */\n    tag_289:\n        /* \"#utility.yul\":6309:6312   */\n      0x00\n        /* \"#utility.yul\":6330:6335   */\n      dup2\n        /* \"#utility.yul\":6323:6335   */\n      swap1\n      pop\n        /* \"#utility.yul\":6281:6341   */\n      swap2\n      swap1\n      pop\n      jump\t// out\n        /* \"#utility.yul\":6347:6489   */\n    tag_290:\n        /* \"#utility.yul\":6397:6406   */\n      0x00\n        /* \"#utility.yul\":6430:6483   */\n      tag_406\n        /* \"#utility.yul\":6448:6482   */\n      tag_407\n        /* \"#utility.yul\":6457:6481   */\n      tag_408\n        /* \"#utility.yul\":6475:6480   */\n      dup5\n        /* \"#utility.yul\":6457:6481   */\n      tag_275\n      jump\t// in\n    tag_408:\n        /* \"#utility.yul\":6448:6482   */\n      tag_289\n      jump\t// in\n    tag_407:\n        /* \"#utility.yul\":6430:6483   */\n      tag_275\n      jump\t// in\n    tag_406:\n        /* \"#utility.yul\":6417:6483   */\n      swap1\n      pop\n        /* \"#utility.yul\":6347:6489   */\n      swap2\n      swap1\n      pop\n      jump\t// out\n        /* \"#utility.yul\":6495:6621   */\n    tag_291:\n        /* \"#utility.yul\":6545:6554   */\n      0x00\n        /* \"#utility.yul\":6578:6615   */\n      tag_410\n        /* \"#utility.yul\":6609:6614   */\n      dup3\n        /* \"#utility.yul\":6578:6615   */\n      tag_290\n      jump\t// in\n    tag_410:\n        /* \"#utility.yul\":6565:6615   */\n      swap1\n      pop\n        /* \"#utility.yul\":6495:6621   */\n      swap2\n      swap1\n      pop\n      jump\t// out\n        /* \"#utility.yul\":6627:6771   */\n    tag_292:\n        /* \"#utility.yul\":6695:6704   */\n      0x00\n        /* \"#utility.yul\":6728:6765   */\n      tag_412\n        /* \"#utility.yul\":6759:6764   */\n      dup3\n        /* \"#utility.yul\":6728:6765   */\n      tag_291\n      jump\t// in\n    tag_412:\n        /* \"#utility.yul\":6715:6765   */\n      swap1\n      pop\n        /* \"#utility.yul\":6627:6771   */\n      swap2\n      swap1\n      pop\n      jump\t// out\n        /* \"#utility.yul\":6777:6944   */\n    tag_293:\n        /* \"#utility.yul\":6882:6937   */\n      tag_414\n        /* \"#utility.yul\":6931:6936   */\n      dup2\n        /* \"#utility.yul\":6882:6937   */\n      tag_292\n      jump\t// in\n    tag_414:\n        /* \"#utility.yul\":6877:6880   */\n      dup3\n        /* \"#utility.yul\":6870:6938   */\n      mstore\n        /* \"#utility.yul\":6777:6944   */\n      pop\n      pop\n      jump\t// out\n        /* \"#utility.yul\":6950:7208   */\n    tag_124:\n        /* \"#utility.yul\":7061:7065   */\n      0x00\n        /* \"#utility.yul\":7099:7101   */\n      0x20\n        /* \"#utility.yul\":7088:7097   */\n      dup3\n        /* \"#utility.yul\":7084:7102   */\n      add\n        /* \"#utility.yul\":7076:7102   */\n      swap1\n      pop\n        /* \"#utility.yul\":7112:7201   */\n      tag_416\n        /* \"#utility.yul\":7198:7199   */\n      0x00\n        /* \"#utility.yul\":7187:7196   */\n      dup4\n        /* \"#utility.yul\":7183:7200   */\n      add\n        /* \"#utility.yul\":7174:7180   */\n      dup5\n        /* \"#utility.yul\":7112:7201   */\n      tag_293\n      jump\t// in\n    tag_416:\n        /* \"#utility.yul\":6950:7208   */\n      swap3\n      swap2\n      pop\n      pop\n      jump\t// out\n        /* \"#utility.yul\":7214:7331   */\n    tag_294:\n        /* \"#utility.yul\":7323:7324   */\n      0x00\n        /* \"#utility.yul\":7320:7321   */\n      dup1\n        /* \"#utility.yul\":7313:7325   */\n      revert\n        /* \"#utility.yul\":7337:7454   */\n    tag_295:\n        /* \"#utility.yul\":7446:7447   */\n      0x00\n        /* \"#utility.yul\":7443:7444   */\n      dup1\n        /* \"#utility.yul\":7436:7448   */\n      revert\n        /* \"#utility.yul\":7460:7640   */\n    tag_296:\n        /* \"#utility.yul\":7508:7585   */\n      0x4e487b7100000000000000000000000000000000000000000000000000000000\n        /* \"#utility.yul\":7505:7506   */\n      0x00\n        /* \"#utility.yul\":7498:7586   */\n      mstore\n        /* \"#utility.yul\":7605:7609   */\n      0x41\n        /* \"#utility.yul\":7602:7603   */\n      0x04\n        /* \"#utility.yul\":7595:7610   */\n      mstore\n        /* \"#utility.yul\":7629:7633   */\n      0x24\n        /* \"#utility.yul\":7626:7627   */\n      0x00\n        /* \"#utility.yul\":7619:7634   */\n      revert\n        /* \"#utility.yul\":7646:7927   */\n    tag_297:\n        /* \"#utility.yul\":7729:7756   */\n      tag_421\n        /* \"#utility.yul\":7751:7755   */\n      dup3\n        /* \"#utility.yul\":7729:7756   */\n      tag_270\n      jump\t// in\n    tag_421:\n        /* \"#utility.yul\":7721:7727   */\n      dup2\n        /* \"#utility.yul\":7717:7757   */\n      add\n        /* \"#utility.yul\":7859:7865   */\n      dup2\n        /* \"#utility.yul\":7847:7857   */\n      dup2\n        /* \"#utility.yul\":7844:7866   */\n      lt\n        /* \"#utility.yul\":7823:7841   */\n      0xffffffffffffffff\n        /* \"#utility.yul\":7811:7821   */\n      dup3\n        /* \"#utility.yul\":7808:7842   */\n      gt\n        /* \"#utility.yul\":7805:7867   */\n      or\n        /* \"#utility.yul\":7802:7890   */\n      iszero\n      tag_422\n      jumpi\n        /* \"#utility.yul\":7870:7888   */\n      tag_423\n      tag_296\n      jump\t// in\n    tag_423:\n        /* \"#utility.yul\":7802:7890   */\n    tag_422:\n        /* \"#utility.yul\":7910:7920   */\n      dup1\n        /* \"#utility.yul\":7906:7908   */\n      0x40\n        /* \"#utility.yul\":7899:7921   */\n      mstore\n        /* \"#utility.yul\":7689:7927   */\n      pop\n        /* \"#utility.yul\":7646:7927   */\n      pop\n      pop\n      jump\t// out\n        /* \"#utility.yul\":7933:8062   */\n    tag_298:\n        /* \"#utility.yul\":7967:7973   */\n      0x00\n        /* \"#utility.yul\":7994:8014   */\n      tag_425\n      tag_272\n      jump\t// in\n    tag_425:\n        /* \"#utility.yul\":7984:8014   */\n      swap1\n      pop\n        /* \"#utility.yul\":8023:8056   */\n      tag_426\n        /* \"#utility.yul\":8051:8055   */\n      dup3\n        /* \"#utility.yul\":8043:8049   */\n      dup3\n        /* \"#utility.yul\":8023:8056   */\n      tag_297\n      jump\t// in\n    tag_426:\n        /* \"#utility.yul\":7933:8062   */\n      swap2\n      swap1\n      pop\n      jump\t// out\n        /* \"#utility.yul\":8068:8376   */\n    tag_299:\n        /* \"#utility.yul\":8130:8134   */\n      0x00\n        /* \"#utility.yul\":8220:8238   */\n      0xffffffffffffffff\n        /* \"#utility.yul\":8212:8218   */\n      dup3\n        /* \"#utility.yul\":8209:8239   */\n      gt\n        /* \"#utility.yul\":8206:8262   */\n      iszero\n      tag_428\n      jumpi\n        /* \"#utility.yul\":8242:8260   */\n      tag_429\n      tag_296\n      jump\t// in\n    tag_429:\n        /* \"#utility.yul\":8206:8262   */\n    tag_428:\n        /* \"#utility.yul\":8280:8309   */\n      tag_430\n        /* \"#utility.yul\":8302:8308   */\n      dup3\n        /* \"#utility.yul\":8280:8309   */\n      tag_270\n      jump\t// in\n    tag_430:\n        /* \"#utility.yul\":8272:8309   */\n      swap1\n      pop\n        /* \"#utility.yul\":8364:8368   */\n      0x20\n        /* \"#utility.yul\":8358:8362   */\n      dup2\n        /* \"#utility.yul\":8354:8369   */\n      add\n        /* \"#utility.yul\":8346:8369   */\n      swap1\n      pop\n        /* \"#utility.yul\":8068:8376   */\n      swap2\n      swap1\n      pop\n      jump\t// out\n        /* \"#utility.yul\":8382:8528   */\n    tag_300:\n        /* \"#utility.yul\":8479:8485   */\n      dup3\n        /* \"#utility.yul\":8474:8477   */\n      dup2\n        /* \"#utility.yul\":8469:8472   */\n      dup4\n        /* \"#utility.yul\":8456:8486   */\n      calldatacopy\n        /* \"#utility.yul\":8520:8521   */\n      0x00\n        /* \"#utility.yul\":8511:8517   */\n      dup4\n        /* \"#utility.yul\":8506:8509   */\n      dup4\n        /* \"#utility.yul\":8502:8518   */\n      add\n        /* \"#utility.yul\":8495:8522   */\n      mstore\n        /* \"#utility.yul\":8382:8528   */\n      pop\n      pop\n      pop\n      jump\t// out\n        /* \"#utility.yul\":8534:8959   */\n    tag_301:\n        /* \"#utility.yul\":8612:8617   */\n      0x00\n        /* \"#utility.yul\":8637:8703   */\n      tag_433\n        /* \"#utility.yul\":8653:8702   */\n      tag_434\n        /* \"#utility.yul\":8695:8701   */\n      dup5\n        /* \"#utility.yul\":8653:8702   */\n      tag_299\n      jump\t// in\n    tag_434:\n        /* \"#utility.yul\":8637:8703   */\n      tag_298\n      jump\t// in\n    tag_433:\n        /* \"#utility.yul\":8628:8703   */\n      swap1\n      pop\n        /* \"#utility.yul\":8726:8732   */\n      dup3\n        /* \"#utility.yul\":8719:8724   */\n      dup2\n        /* \"#utility.yul\":8712:8733   */\n      mstore\n        /* \"#utility.yul\":8764:8768   */\n      0x20\n        /* \"#utility.yul\":8757:8762   */\n      dup2\n        /* \"#utility.yul\":8753:8769   */\n      add\n        /* \"#utility.yul\":8802:8805   */\n      dup5\n        /* \"#utility.yul\":8793:8799   */\n      dup5\n        /* \"#utility.yul\":8788:8791   */\n      dup5\n        /* \"#utility.yul\":8784:8800   */\n      add\n        /* \"#utility.yul\":8781:8806   */\n      gt\n        /* \"#utility.yul\":8778:8890   */\n      iszero\n      tag_435\n      jumpi\n        /* \"#utility.yul\":8809:8888   */\n      tag_436\n      tag_295\n      jump\t// in\n    tag_436:\n        /* \"#utility.yul\":8778:8890   */\n    tag_435:\n        /* \"#utility.yul\":8899:8953   */\n      tag_437\n        /* \"#utility.yul\":8946:8952   */\n      dup5\n        /* \"#utility.yul\":8941:8944   */\n      dup3\n        /* \"#utility.yul\":8936:8939   */\n      dup6\n        /* \"#utility.yul\":8899:8953   */\n      tag_300\n      jump\t// in\n    tag_437:\n        /* \"#utility.yul\":8618:8959   */\n      pop\n        /* \"#utility.yul\":8534:8959   */\n      swap4\n      swap3\n      pop\n      pop\n      pop\n      jump\t// out\n        /* \"#utility.yul\":8979:9319   */\n    tag_302:\n        /* \"#utility.yul\":9035:9040   */\n      0x00\n        /* \"#utility.yul\":9084:9087   */\n      dup3\n        /* \"#utility.yul\":9077:9081   */\n      0x1f\n        /* \"#utility.yul\":9069:9075   */\n      dup4\n        /* \"#utility.yul\":9065:9082   */\n      add\n        /* \"#utility.yul\":9061:9088   */\n      slt\n        /* \"#utility.yul\":9051:9173   */\n      tag_439\n      jumpi\n        /* \"#utility.yul\":9092:9171   */\n      tag_440\n      tag_294\n      jump\t// in\n    tag_440:\n        /* \"#utility.yul\":9051:9173   */\n    tag_439:\n        /* \"#utility.yul\":9209:9215   */\n      dup2\n        /* \"#utility.yul\":9196:9216   */\n      calldataload\n        /* \"#utility.yul\":9234:9313   */\n      tag_441\n        /* \"#utility.yul\":9309:9312   */\n      dup5\n        /* \"#utility.yul\":9301:9307   */\n      dup3\n        /* \"#utility.yul\":9294:9298   */\n      0x20\n        /* \"#utility.yul\":9286:9292   */\n      dup7\n        /* \"#utility.yul\":9282:9299   */\n      add\n        /* \"#utility.yul\":9234:9313   */\n      tag_301\n      jump\t// in\n    tag_441:\n        /* \"#utility.yul\":9225:9313   */\n      swap2\n      pop\n        /* \"#utility.yul\":9041:9319   */\n      pop\n        /* \"#utility.yul\":8979:9319   */\n      swap3\n      swap2\n      pop\n      pop\n      jump\t// out\n        /* \"#utility.yul\":9325:9834   */\n    tag_128:\n        /* \"#utility.yul\":9394:9400   */\n      0x00\n        /* \"#utility.yul\":9443:9445   */\n      0x20\n        /* \"#utility.yul\":9431:9440   */\n      dup3\n        /* \"#utility.yul\":9422:9429   */\n      dup5\n        /* \"#utility.yul\":9418:9441   */\n      sub\n        /* \"#utility.yul\":9414:9446   */\n      slt\n        /* \"#utility.yul\":9411:9530   */\n      iszero\n      tag_443\n      jumpi\n        /* \"#utility.yul\":9449:9528   */\n      tag_444\n      tag_273\n      jump\t// in\n    tag_444:\n        /* \"#utility.yul\":9411:9530   */\n    tag_443:\n        /* \"#utility.yul\":9597:9598   */\n      0x00\n        /* \"#utility.yul\":9586:9595   */\n      dup3\n        /* \"#utility.yul\":9582:9599   */\n      add\n        /* \"#utility.yul\":9569:9600   */\n      calldataload\n        /* \"#utility.yul\":9627:9645   */\n      0xffffffffffffffff\n        /* \"#utility.yul\":9619:9625   */\n      dup2\n        /* \"#utility.yul\":9616:9646   */\n      gt\n        /* \"#utility.yul\":9613:9730   */\n      iszero\n      tag_445\n      jumpi\n        /* \"#utility.yul\":9649:9728   */\n      tag_446\n      tag_274\n      jump\t// in\n    tag_446:\n        /* \"#utility.yul\":9613:9730   */\n    tag_445:\n        /* \"#utility.yul\":9754:9817   */\n      tag_447\n        /* \"#utility.yul\":9809:9816   */\n      dup5\n        /* \"#utility.yul\":9800:9806   */\n      dup3\n        /* \"#utility.yul\":9789:9798   */\n      dup6\n        /* \"#utility.yul\":9785:9807   */\n      add\n        /* \"#utility.yul\":9754:9817   */\n      tag_302\n      jump\t// in\n    tag_447:\n        /* \"#utility.yul\":9744:9817   */\n      swap2\n      pop\n        /* \"#utility.yul\":9540:9827   */\n      pop\n        /* \"#utility.yul\":9325:9834   */\n      swap3\n      swap2\n      pop\n      pop\n      jump\t// out\n        /* \"#utility.yul\":9840:10314   */\n    tag_138:\n        /* \"#utility.yul\":9908:9914   */\n      0x00\n        /* \"#utility.yul\":9916:9922   */\n      dup1\n        /* \"#utility.yul\":9965:9967   */\n      0x40\n        /* \"#utility.yul\":9953:9962   */\n      dup4\n        /* \"#utility.yul\":9944:9951   */\n      dup6\n        /* \"#utility.yul\":9940:9963   */\n      sub\n        /* \"#utility.yul\":9936:9968   */\n      slt\n        /* \"#utility.yul\":9933:10052   */\n      iszero\n      tag_449\n      jumpi\n        /* \"#utility.yul\":9971:10050   */\n      tag_450\n      tag_273\n      jump\t// in\n    tag_450:\n        /* \"#utility.yul\":9933:10052   */\n    tag_449:\n        /* \"#utility.yul\":10091:10092   */\n      0x00\n        /* \"#utility.yul\":10116:10169   */\n      tag_451\n        /* \"#utility.yul\":10161:10168   */\n      dup6\n        /* \"#utility.yul\":10152:10158   */\n      dup3\n        /* \"#utility.yul\":10141:10150   */\n      dup7\n        /* \"#utility.yul\":10137:10159   */\n      add\n        /* \"#utility.yul\":10116:10169   */\n      tag_278\n      jump\t// in\n    tag_451:\n        /* \"#utility.yul\":10106:10169   */\n      swap3\n      pop\n        /* \"#utility.yul\":10062:10179   */\n      pop\n        /* \"#utility.yul\":10218:10220   */\n      0x20\n        /* \"#utility.yul\":10244:10297   */\n      tag_452\n        /* \"#utility.yul\":10289:10296   */\n      dup6\n        /* \"#utility.yul\":10280:10286   */\n      dup3\n        /* \"#utility.yul\":10269:10278   */\n      dup7\n        /* \"#utility.yul\":10265:10287   */\n      add\n        /* \"#utility.yul\":10244:10297   */\n      tag_278\n      jump\t// in\n    tag_452:\n        /* \"#utility.yul\":10234:10297   */\n      swap2\n      pop\n        /* \"#utility.yul\":10189:10307   */\n      pop\n        /* \"#utility.yul\":9840:10314   */\n      swap3\n      pop\n      swap3\n      swap1\n      pop\n      jump\t// out\n        /* \"#utility.yul\":10320:10500   */\n    tag_303:\n        /* \"#utility.yul\":10368:10445   */\n      0x4e487b7100000000000000000000000000000000000000000000000000000000\n        /* \"#utility.yul\":10365:10366   */\n      0x00\n        /* \"#utility.yul\":10358:10446   */\n      mstore\n        /* \"#utility.yul\":10465:10469   */\n      0x22\n        /* \"#utility.yul\":10462:10463   */\n      0x04\n        /* \"#utility.yul\":10455:10470   */\n      mstore\n        /* \"#utility.yul\":10489:10493   */\n      0x24\n        /* \"#utility.yul\":10486:10487   */\n      0x00\n        /* \"#utility.yul\":10479:10494   */\n      revert\n        /* \"#utility.yul\":10506:10826   */\n    tag_146:\n        /* \"#utility.yul\":10550:10556   */\n      0x00\n        /* \"#utility.yul\":10587:10588   */\n      0x02\n        /* \"#utility.yul\":10581:10585   */\n      dup3\n        /* \"#utility.yul\":10577:10589   */\n      div\n        /* \"#utility.yul\":10567:10589   */\n      swap1\n      pop\n        /* \"#utility.yul\":10634:10635   */\n      0x01\n        /* \"#utility.yul\":10628:10632   */\n      dup3\n        /* \"#utility.yul\":10624:10636   */\n      and\n        /* \"#utility.yul\":10655:10673   */\n      dup1\n        /* \"#utility.yul\":10645:10726   */\n      tag_455\n      jumpi\n        /* \"#utility.yul\":10711:10715   */\n      0x7f\n        /* \"#utility.yul\":10703:10709   */\n      dup3\n        /* \"#utility.yul\":10699:10716   */\n      and\n        /* \"#utility.yul\":10689:10716   */\n      swap2\n      pop\n        /* \"#utility.yul\":10645:10726   */\n    tag_455:\n        /* \"#utility.yul\":10773:10775   */\n      0x20\n        /* \"#utility.yul\":10765:10771   */\n      dup3\n        /* \"#utility.yul\":10762:10776   */\n      lt\n        /* \"#utility.yul\":10742:10760   */\n      dup2\n        /* \"#utility.yul\":10739:10777   */\n      sub\n        /* \"#utility.yul\":10736:10820   */\n      tag_456\n      jumpi\n        /* \"#utility.yul\":10792:10810   */\n      tag_457\n      tag_303\n      jump\t// in\n    tag_457:\n        /* \"#utility.yul\":10736:10820   */\n    tag_456:\n        /* \"#utility.yul\":10557:10826   */\n      pop\n        /* \"#utility.yul\":10506:10826   */\n      swap2\n      swap1\n      pop\n      jump\t// out\n        /* \"#utility.yul\":10832:11000   */\n    tag_304:\n        /* \"#utility.yul\":10915:10926   */\n      0x00\n        /* \"#utility.yul\":10949:10955   */\n      dup3\n        /* \"#utility.yul\":10944:10947   */\n      dup3\n        /* \"#utility.yul\":10937:10956   */\n      mstore\n        /* \"#utility.yul\":10989:10993   */\n      0x20\n        /* \"#utility.yul\":10984:10987   */\n      dup3\n        /* \"#utility.yul\":10980:10994   */\n      add\n        /* \"#utility.yul\":10965:10994   */\n      swap1\n      pop\n        /* \"#utility.yul\":10832:11000   */\n      swap3\n      swap2\n      pop\n      pop\n      jump\t// out\n        /* \"#utility.yul\":11028:11342   */\n    tag_305:\n        /* \"#utility.yul\":11124:11127   */\n      0x00\n        /* \"#utility.yul\":11145:11215   */\n      tag_460\n        /* \"#utility.yul\":11208:11214   */\n      dup4\n        /* \"#utility.yul\":11203:11206   */\n      dup6\n        /* \"#utility.yul\":11145:11215   */\n      tag_304\n      jump\t// in\n    tag_460:\n        /* \"#utility.yul\":11138:11215   */\n      swap4\n      pop\n        /* \"#utility.yul\":11225:11281   */\n      tag_461\n        /* \"#utility.yul\":11274:11280   */\n      dup4\n        /* \"#utility.yul\":11269:11272   */\n      dup6\n        /* \"#utility.yul\":11262:11267   */\n      dup5\n        /* \"#utility.yul\":11225:11281   */\n      tag_300\n      jump\t// in\n    tag_461:\n        /* \"#utility.yul\":11306:11335   */\n      tag_462\n        /* \"#utility.yul\":11328:11334   */\n      dup4\n        /* \"#utility.yul\":11306:11335   */\n      tag_270\n      jump\t// in\n    tag_462:\n        /* \"#utility.yul\":11301:11304   */\n      dup5\n        /* \"#utility.yul\":11297:11336   */\n      add\n        /* \"#utility.yul\":11290:11336   */\n      swap1\n      pop\n        /* \"#utility.yul\":11028:11342   */\n      swap4\n      swap3\n      pop\n      pop\n      pop\n      jump\t// out\n        /* \"#utility.yul\":11348:11787   */\n    tag_157:\n        /* \"#utility.yul\":11497:11501   */\n      0x00\n        /* \"#utility.yul\":11535:11537   */\n      0x40\n        /* \"#utility.yul\":11524:11533   */\n      dup3\n        /* \"#utility.yul\":11520:11538   */\n      add\n        /* \"#utility.yul\":11512:11538   */\n      swap1\n      pop\n        /* \"#utility.yul\":11548:11619   */\n      tag_464\n        /* \"#utility.yul\":11616:11617   */\n      0x00\n        /* \"#utility.yul\":11605:11614   */\n      dup4\n        /* \"#utility.yul\":11601:11618   */\n      add\n        /* \"#utility.yul\":11592:11598   */\n      dup7\n        /* \"#utility.yul\":11548:11619   */\n      tag_284\n      jump\t// in\n    tag_464:\n        /* \"#utility.yul\":11666:11675   */\n      dup2\n        /* \"#utility.yul\":11660:11664   */\n      dup2\n        /* \"#utility.yul\":11656:11676   */\n      sub\n        /* \"#utility.yul\":11651:11653   */\n      0x20\n        /* \"#utility.yul\":11640:11649   */\n      dup4\n        /* \"#utility.yul\":11636:11654   */\n      add\n        /* \"#utility.yul\":11629:11677   */\n      mstore\n        /* \"#utility.yul\":11694:11780   */\n      tag_465\n        /* \"#utility.yul\":11775:11779   */\n      dup2\n        /* \"#utility.yul\":11766:11772   */\n      dup5\n        /* \"#utility.yul\":11758:11764   */\n      dup7\n        /* \"#utility.yul\":11694:11780   */\n      tag_305\n      jump\t// in\n    tag_465:\n        /* \"#utility.yul\":11686:11780   */\n      swap1\n      pop\n        /* \"#utility.yul\":11348:11787   */\n      swap5\n      swap4\n      pop\n      pop\n      pop\n      pop\n      jump\t// out\n        /* \"#utility.yul\":11793:11934   */\n    tag_306:\n        /* \"#utility.yul\":11842:11846   */\n      0x00\n        /* \"#utility.yul\":11865:11868   */\n      dup2\n        /* \"#utility.yul\":11857:11868   */\n      swap1\n      pop\n        /* \"#utility.yul\":11888:11891   */\n      dup2\n        /* \"#utility.yul\":11885:11886   */\n      0x00\n        /* \"#utility.yul\":11878:11892   */\n      mstore\n        /* \"#utility.yul\":11922:11926   */\n      0x20\n        /* \"#utility.yul\":11919:11920   */\n      0x00\n        /* \"#utility.yul\":11909:11927   */\n      keccak256\n        /* \"#utility.yul\":11901:11927   */\n      swap1\n      pop\n        /* \"#utility.yul\":11793:11934   */\n      swap2\n      swap1\n      pop\n      jump\t// out\n        /* \"#utility.yul\":11940:12033   */\n    tag_307:\n        /* \"#utility.yul\":11977:11983   */\n      0x00\n        /* \"#utility.yul\":12024:12026   */\n      0x20\n        /* \"#utility.yul\":12019:12021   */\n      0x1f\n        /* \"#utility.yul\":12012:12017   */\n      dup4\n        /* \"#utility.yul\":12008:12022   */\n      add\n        /* \"#utility.yul\":12004:12027   */\n      div\n        /* \"#utility.yul\":11994:12027   */\n      swap1\n      pop\n        /* \"#utility.yul\":11940:12033   */\n      swap2\n      swap1\n      pop\n      jump\t// out\n        /* \"#utility.yul\":12039:12146   */\n    tag_308:\n        /* \"#utility.yul\":12083:12091   */\n      0x00\n        /* \"#utility.yul\":12133:12138   */\n      dup3\n        /* \"#utility.yul\":12127:12131   */\n      dup3\n        /* \"#utility.yul\":12123:12139   */\n      shl\n        /* \"#utility.yul\":12102:12139   */\n      swap1\n      pop\n        /* \"#utility.yul\":12039:12146   */\n      swap3\n      swap2\n      pop\n      pop\n      jump\t// out\n        /* \"#utility.yul\":12152:12545   */\n    tag_309:\n        /* \"#utility.yul\":12221:12227   */\n      0x00\n        /* \"#utility.yul\":12271:12272   */\n      0x08\n        /* \"#utility.yul\":12259:12269   */\n      dup4\n        /* \"#utility.yul\":12255:12273   */\n      mul\n        /* \"#utility.yul\":12294:12391   */\n      tag_470\n        /* \"#utility.yul\":12324:12390   */\n      0xffffffffffffffffffffffffffffffffffffffffffffffffffffffffffffffff\n        /* \"#utility.yul\":12313:12322   */\n      dup3\n        /* \"#utility.yul\":12294:12391   */\n      tag_308\n      jump\t// in\n    tag_470:\n        /* \"#utility.yul\":12412:12451   */\n      tag_471\n        /* \"#utility.yul\":12442:12450   */\n      dup7\n        /* \"#utility.yul\":12431:12440   */\n      dup4\n        /* \"#utility.yul\":12412:12451   */\n      tag_308\n      jump\t// in\n    tag_471:\n        /* \"#utility.yul\":12400:12451   */\n      swap6\n      pop\n        /* \"#utility.yul\":12484:12488   */\n      dup1\n        /* \"#utility.yul\":12480:12489   */\n      not\n        /* \"#utility.yul\":12473:12478   */\n      dup5\n        /* \"#utility.yul\":12469:12490   */\n      and\n        /* \"#utility.yul\":12460:12490   */\n      swap4\n      pop\n        /* \"#utility.yul\":12533:12537   */\n      dup1\n        /* \"#utility.yul\":12523:12531   */\n      dup7\n        /* \"#utility.yul\":12519:12538   */\n      and\n        /* \"#utility.yul\":12512:12517   */\n      dup5\n        /* \"#utility.yul\":12509:12539   */\n      or\n        /* \"#utility.yul\":12499:12539   */\n      swap3\n      pop\n        /* \"#utility.yul\":12228:12545   */\n      pop\n      pop\n        /* \"#utility.yul\":12152:12545   */\n      swap4\n      swap3\n      pop\n      pop\n      pop\n      jump\t// out\n        /* \"#utility.yul\":12551:12693   */\n    tag_310:\n        /* \"#utility.yul\":12601:12610   */\n      0x00\n        /* \"#utility.yul\":12634:12687   */\n      tag_473\n        /* \"#utility.yul\":12652:12686   */\n      tag_474\n        /* \"#utility.yul\":12661:12685   */\n      tag_475\n        /* \"#utility.yul\":12679:12684   */\n      dup5\n        /* \"#utility.yul\":12661:12685   */\n      tag_279\n      jump\t// in\n    tag_475:\n        /* \"#utility.yul\":12652:12686   */\n      tag_289\n      jump\t// in\n    tag_474:\n        /* \"#utility.yul\":12634:12687   */\n      tag_279\n      jump\t// in\n    tag_473:\n        /* \"#utility.yul\":12621:12687   */\n      swap1\n      pop\n        /* \"#utility.yul\":12551:12693   */\n      swap2\n      swap1\n      pop\n      jump\t// out\n        /* \"#utility.yul\":12699:12774   */\n    tag_311:\n        /* \"#utility.yul\":12742:12745   */\n      0x00\n        /* \"#utility.yul\":12763:12768   */\n      dup2\n        /* \"#utility.yul\":12756:12768   */\n      swap1\n      pop\n        /* \"#utility.yul\":12699:12774   */\n      swap2\n      swap1\n      pop\n      jump\t// out\n        /* \"#utility.yul\":12780:13049   */\n    tag_312:\n        /* \"#utility.yul\":12890:12929   */\n      tag_478\n        /* \"#utility.yul\":12921:12928   */\n      dup4\n        /* \"#utility.yul\":12890:12929   */\n      tag_310\n      jump\t// in\n    tag_478:\n        /* \"#utility.yul\":12951:13042   */\n      tag_479\n        /* \"#utility.yul\":13000:13041   */\n      tag_480\n        /* \"#utility.yul\":13024:13040   */\n      dup3\n        /* \"#utility.yul\":13000:13041   */\n      tag_311\n      jump\t// in\n    tag_480:\n        /* \"#utility.yul\":12992:12998   */\n      dup5\n        /* \"#utility.yul\":12985:12989   */\n      dup5\n        /* \"#utility.yul\":12979:12990   */\n      sload\n        /* \"#utility.yul\":12951:13042   */\n      tag_309\n      jump\t// in\n    tag_479:\n        /* \"#utility.yul\":12945:12949   */\n      dup3\n        /* \"#utility.yul\":12938:13043   */\n      sstore\n        /* \"#utility.yul\":12856:13049   */\n      pop\n        /* \"#utility.yul\":12780:13049   */\n      pop\n      pop\n      pop\n      jump\t// out\n        /* \"#utility.yul\":13055:13128   */\n    tag_313:\n        /* \"#utility.yul\":13100:13103   */\n      0x00\n        /* \"#utility.yul\":13055:13128   */\n      swap1\n      jump\t// out\n        /* \"#utility.yul\":13134:13323   */\n    tag_314:\n        /* \"#utility.yul\":13211:13243   */\n      tag_483\n      tag_313\n      jump\t// in\n    tag_483:\n        /* \"#utility.yul\":13252:13317   */\n      tag_484\n        /* \"#utility.yul\":13310:13316   */\n      dup2\n        /* \"#utility.yul\":13302:13308   */\n      dup5\n        /* \"#utility.yul\":13296:13300   */\n      dup5\n        /* \"#utility.yul\":13252:13317   */\n      tag_312\n      jump\t// in\n    tag_484:\n        /* \"#utility.yul\":13187:13323   */\n      pop\n        /* \"#utility.yul\":13134:13323   */\n      pop\n      pop\n      jump\t// out\n        /* \"#utility.yul\":13329:13515   */\n    tag_315:\n        /* \"#utility.yul\":13389:13509   */\n    tag_486:\n        /* \"#utility.yul\":13406:13409   */\n      dup2\n        /* \"#utility.yul\":13399:13404   */\n      dup2\n        /* \"#utility.yul\":13396:13410   */\n      lt\n        /* \"#utility.yul\":13389:13509   */\n      iszero\n      tag_488\n      jumpi\n        /* \"#utility.yul\":13460:13499   */\n      tag_489\n        /* \"#utility.yul\":13497:13498   */\n      0x00\n        /* \"#utility.yul\":13490:13495   */\n      dup3\n        /* \"#utility.yul\":13460:13499   */\n      tag_314\n      jump\t// in\n    tag_489:\n        /* \"#utility.yul\":13433:13434   */\n      0x01\n        /* \"#utility.yul\":13426:13431   */\n      dup2\n        /* \"#utility.yul\":13422:13435   */\n      add\n        /* \"#utility.yul\":13413:13435   */\n      swap1\n      pop\n        /* \"#utility.yul\":13389:13509   */\n      jump(tag_486)\n    tag_488:\n        /* \"#utility.yul\":13329:13515   */\n      pop\n      pop\n      jump\t// out\n        /* \"#utility.yul\":13521:14064   */\n    tag_316:\n        /* \"#utility.yul\":13622:13624   */\n      0x1f\n        /* \"#utility.yul\":13617:13620   */\n      dup3\n        /* \"#utility.yul\":13614:13625   */\n      gt\n        /* \"#utility.yul\":13611:14057   */\n      iszero\n      tag_491\n      jumpi\n        /* \"#utility.yul\":13656:13694   */\n      tag_492\n        /* \"#utility.yul\":13688:13693   */\n      dup2\n        /* \"#utility.yul\":13656:13694   */\n      tag_306\n      jump\t// in\n    tag_492:\n        /* \"#utility.yul\":13740:13769   */\n      tag_493\n        /* \"#utility.yul\":13758:13768   */\n      dup5\n        /* \"#utility.yul\":13740:13769   */\n      tag_307\n      jump\t// in\n    tag_493:\n        /* \"#utility.yul\":13730:13738   */\n      dup2\n        /* \"#utility.yul\":13726:13770   */\n      add\n        /* \"#utility.yul\":13923:13925   */\n      0x20\n        /* \"#utility.yul\":13911:13921   */\n      dup6\n        /* \"#utility.yul\":13908:13926   */\n      lt\n        /* \"#utility.yul\":13905:13954   */\n      iszero\n      tag_494\n      jumpi\n        /* \"#utility.yul\":13944:13952   */\n      dup2\n        /* \"#utility.yul\":13929:13952   */\n      swap1\n      pop\n        /* \"#utility.yul\":13905:13954   */\n    tag_494:\n        /* \"#utility.yul\":13967:14047   */\n      tag_495\n        /* \"#utility.yul\":14023:14045   */\n      tag_496\n        /* \"#utility.yul\":14041:14044   */\n      dup6\n        /* \"#utility.yul\":14023:14045   */\n      tag_307\n      jump\t// in\n    tag_496:\n        /* \"#utility.yul\":14013:14021   */\n      dup4\n        /* \"#utility.yul\":14009:14046   */\n      add\n        /* \"#utility.yul\":13996:14007   */\n      dup3\n        /* \"#utility.yul\":13967:14047   */\n      tag_315\n      jump\t// in\n    tag_495:\n        /* \"#utility.yul\":13626:14057   */\n      pop\n      pop\n        /* \"#utility.yul\":13611:14057   */\n    tag_491:\n        /* \"#utility.yul\":13521:14064   */\n      pop\n      pop\n      pop\n      jump\t// out\n        /* \"#utility.yul\":14070:14187   */\n    tag_317:\n        /* \"#utility.yul\":14124:14132   */\n      0x00\n        /* \"#utility.yul\":14174:14179   */\n      dup3\n        /* \"#utility.yul\":14168:14172   */\n      dup3\n        /* \"#utility.yul\":14164:14180   */\n      shr\n        /* \"#utility.yul\":14143:14180   */\n      swap1\n      pop\n        /* \"#utility.yul\":14070:14187   */\n      swap3\n      swap2\n      pop\n      pop\n      jump\t// out\n        /* \"#utility.yul\":14193:14362   */\n    tag_318:\n        /* \"#utility.yul\":14237:14243   */\n      0x00\n        /* \"#utility.yul\":14270:14321   */\n      tag_499\n        /* \"#utility.yul\":14318:14319   */\n      0x00\n        /* \"#utility.yul\":14314:14320   */\n      not\n        /* \"#utility.yul\":14306:14311   */\n      dup5\n        /* \"#utility.yul\":14303:14304   */\n      0x08\n        /* \"#utility.yul\":14299:14312   */\n      mul\n        /* \"#utility.yul\":14270:14321   */\n      tag_317\n      jump\t// in\n    tag_499:\n        /* \"#utility.yul\":14266:14322   */\n      not\n        /* \"#utility.yul\":14351:14355   */\n      dup1\n        /* \"#utility.yul\":14345:14349   */\n      dup4\n        /* \"#utility.yul\":14341:14356   */\n      and\n        /* \"#utility.yul\":14331:14356   */\n      swap2\n      pop\n        /* \"#utility.yul\":14244:14362   */\n      pop\n        /* \"#utility.yul\":14193:14362   */\n      swap3\n      swap2\n      pop\n      pop\n      jump\t// out\n        /* \"#utility.yul\":14367:14662   */\n    tag_319:\n        /* \"#utility.yul\":14443:14447   */\n      0x00\n        /* \"#utility.yul\":14589:14618   */\n      tag_501\n        /* \"#utility.yul\":14614:14617   */\n      dup4\n        /* \"#utility.yul\":14608:14612   */\n      dup4\n        /* \"#utility.yul\":14589:14618   */\n      tag_318\n      jump\t// in\n    tag_501:\n        /* \"#utility.yul\":14581:14618   */\n      swap2\n      pop\n        /* \"#utility.yul\":14651:14654   */\n      dup3\n        /* \"#utility.yul\":14648:14649   */\n      0x02\n        /* \"#utility.yul\":14644:14655   */\n      mul\n        /* \"#utility.yul\":14638:14642   */\n      dup3\n        /* \"#utility.yul\":14635:14656   */\n      or\n        /* \"#utility.yul\":14627:14656   */\n      swap1\n      pop\n        /* \"#utility.yul\":14367:14662   */\n      swap3\n      swap2\n      pop\n      pop\n      jump\t// out\n        /* \"#utility.yul\":14667:16062   */\n    tag_232:\n        /* \"#utility.yul\":14784:14821   */\n      tag_503\n        /* \"#utility.yul\":14817:14820   */\n      dup3\n        /* \"#utility.yul\":14784:14821   */\n      tag_267\n      jump\t// in\n    tag_503:\n        /* \"#utility.yul\":14886:14904   */\n      0xffffffffffffffff\n        /* \"#utility.yul\":14878:14884   */\n      dup2\n        /* \"#utility.yul\":14875:14905   */\n      gt\n        /* \"#utility.yul\":14872:14928   */\n      iszero\n      tag_504\n      jumpi\n        /* \"#utility.yul\":14908:14926   */\n      tag_505\n      tag_296\n      jump\t// in\n    tag_505:\n        /* \"#utility.yul\":14872:14928   */\n    tag_504:\n        /* \"#utility.yul\":14952:14990   */\n      tag_506\n        /* \"#utility.yul\":14984:14988   */\n      dup3\n        /* \"#utility.yul\":14978:14989   */\n      sload\n        /* \"#utility.yul\":14952:14990   */\n      tag_146\n      jump\t// in\n    tag_506:\n        /* \"#utility.yul\":15037:15104   */\n      tag_507\n        /* \"#utility.yul\":15097:15103   */\n      dup3\n        /* \"#utility.yul\":15089:15095   */\n      dup3\n        /* \"#utility.yul\":15083:15087   */\n      dup6\n        /* \"#utility.yul\":15037:15104   */\n      tag_316\n      jump\t// in\n    tag_507:\n        /* \"#utility.yul\":15131:15132   */\n      0x00\n        /* \"#utility.yul\":15155:15159   */\n      0x20\n        /* \"#utility.yul\":15142:15159   */\n      swap1\n      pop\n        /* \"#utility.yul\":15187:15189   */\n      0x1f\n        /* \"#utility.yul\":15179:15185   */\n      dup4\n        /* \"#utility.yul\":15176:15190   */\n      gt\n        /* \"#utility.yul\":15204:15205   */\n      0x01\n        /* \"#utility.yul\":15199:15817   */\n      dup2\n      eq\n      tag_509\n      jumpi\n        /* \"#utility.yul\":15861:15862   */\n      0x00\n        /* \"#utility.yul\":15878:15884   */\n      dup5\n        /* \"#utility.yul\":15875:15952   */\n      iszero\n      tag_510\n      jumpi\n        /* \"#utility.yul\":15927:15936   */\n      dup3\n        /* \"#utility.yul\":15922:15925   */\n      dup8\n        /* \"#utility.yul\":15918:15937   */\n      add\n        /* \"#utility.yul\":15912:15938   */\n      mload\n        /* \"#utility.yul\":15903:15938   */\n      swap1\n      pop\n        /* \"#utility.yul\":15875:15952   */\n    tag_510:\n        /* \"#utility.yul\":15978:16045   */\n      tag_511\n        /* \"#utility.yul\":16038:16044   */\n      dup6\n        /* \"#utility.yul\":16031:16036   */\n      dup3\n        /* \"#utility.yul\":15978:16045   */\n      tag_319\n      jump\t// in\n    tag_511:\n        /* \"#utility.yul\":15972:15976   */\n      dup7\n        /* \"#utility.yul\":15965:16046   */\n      sstore\n        /* \"#utility.yul\":15834:16056   */\n      pop\n        /* \"#utility.yul\":15169:16056   */\n      jump(tag_508)\n        /* \"#utility.yul\":15199:15817   */\n    tag_509:\n        /* \"#utility.yul\":15251:15255   */\n      0x1f\n        /* \"#utility.yul\":15247:15256   */\n      not\n        /* \"#utility.yul\":15239:15245   */\n      dup5\n        /* \"#utility.yul\":15235:15257   */\n      and\n        /* \"#utility.yul\":15285:15322   */\n      tag_512\n        /* \"#utility.yul\":15317:15321   */\n      dup7\n        /* \"#utility.yul\":15285:15322   */\n      tag_306\n      jump\t// in\n    tag_512:\n        /* \"#utility.yul\":15344:15345   */\n      0x00\n        /* \"#utility.yul\":15358:15566   */\n    tag_513:\n        /* \"#utility.yul\":15372:15379   */\n      dup3\n        /* \"#utility.yul\":15369:15370   */\n      dup2\n        /* \"#utility.yul\":15366:15380   */\n      lt\n        /* \"#utility.yul\":15358:15566   */\n      iszero\n      tag_515\n      jumpi\n        /* \"#utility.yul\":15451:15460   */\n      dup5\n        /* \"#utility.yul\":15446:15449   */\n      dup10\n        /* \"#utility.yul\":15442:15461   */\n      add\n        /* \"#utility.yul\":15436:15462   */\n      mload\n        /* \"#utility.yul\":15428:15434   */\n      dup3\n        /* \"#utility.yul\":15421:15463   */\n      sstore\n        /* \"#utility.yul\":15502:15503   */\n      0x01\n        /* \"#utility.yul\":15494:15500   */\n      dup3\n        /* \"#utility.yul\":15490:15504   */\n      add\n        /* \"#utility.yul\":15480:15504   */\n      swap2\n      pop\n        /* \"#utility.yul\":15549:15551   */\n      0x20\n        /* \"#utility.yul\":15538:15547   */\n      dup6\n        /* \"#utility.yul\":15534:15552   */\n      add\n        /* \"#utility.yul\":15521:15552   */\n      swap5\n      pop\n        /* \"#utility.yul\":15395:15399   */\n      0x20\n        /* \"#utility.yul\":15392:15393   */\n      dup2\n        /* \"#utility.yul\":15388:15400   */\n      add\n        /* \"#utility.yul\":15383:15400   */\n      swap1\n      pop\n        /* \"#utility.yul\":15358:15566   */\n      jump(tag_513)\n    tag_515:\n        /* \"#utility.yul\":15594:15600   */\n      dup7\n        /* \"#utility.yul\":15585:15592   */\n      dup4\n        /* \"#utility.yul\":15582:15601   */\n      lt\n        /* \"#utility.yul\":15579:15758   */\n      iszero\n      tag_516\n      jumpi\n        /* \"#utility.yul\":15652:15661   */\n      dup5\n        /* \"#utility.yul\":15647:15650   */\n      dup10\n        /* \"#utility.yul\":15643:15662   */\n      add\n        /* \"#utility.yul\":15637:15663   */\n      mload\n        /* \"#utility.yul\":15695:15743   */\n      tag_517\n        /* \"#utility.yul\":15737:15741   */\n      0x1f\n        /* \"#utility.yul\":15729:15735   */\n      dup10\n        /* \"#utility.yul\":15725:15742   */\n      and\n        /* \"#utility.yul\":15714:15723   */\n      dup3\n        /* \"#utility.yul\":15695:15743   */\n      tag_318\n      jump\t// in\n    tag_517:\n        /* \"#utility.yul\":15687:15693   */\n      dup4\n        /* \"#utility.yul\":15680:15744   */\n      sstore\n        /* \"#utility.yul\":15602:15758   */\n      pop\n        /* \"#utility.yul\":15579:15758   */\n    tag_516:\n        /* \"#utility.yul\":15804:15805   */\n      0x01\n        /* \"#utility.yul\":15800:15801   */\n      0x02\n        /* \"#utility.yul\":15792:15798   */\n      dup9\n        /* \"#utility.yul\":15788:15802   */\n      mul\n        /* \"#utility.yul\":15784:15806   */\n      add\n        /* \"#utility.yul\":15778:15782   */\n      dup9\n        /* \"#utility.yul\":15771:15807   */\n      sstore\n        /* \"#utility.yul\":15206:15817   */\n      pop\n      pop\n      pop\n        /* \"#utility.yul\":15169:16056   */\n    tag_508:\n      pop\n        /* \"#utility.yul\":14759:16062   */\n      pop\n      pop\n      pop\n        /* \"#utility.yul\":14667:16062   */\n      pop\n      pop\n      jump\t// out\n        /* \"#utility.yul\":16068:16217   */\n    tag_320:\n        /* \"#utility.yul\":16104:16111   */\n      0x00\n        /* \"#utility.yul\":16144:16210   */\n      0xffffffff00000000000000000000000000000000000000000000000000000000\n        /* \"#utility.yul\":16137:16142   */\n      dup3\n        /* \"#utility.yul\":16133:16211   */\n      and\n        /* \"#utility.yul\":16122:16211   */\n      swap1\n      pop\n        /* \"#utility.yul\":16068:16217   */\n      swap2\n      swap1\n      pop\n      jump\t// out\n        /* \"#utility.yul\":16223:16338   */\n    tag_321:\n        /* \"#utility.yul\":16308:16331   */\n      tag_520\n        /* \"#utility.yul\":16325:16330   */\n      dup2\n        /* \"#utility.yul\":16308:16331   */\n      tag_320\n      jump\t// in\n    tag_520:\n        /* \"#utility.yul\":16303:16306   */\n      dup3\n        /* \"#utility.yul\":16296:16332   */\n      mstore\n        /* \"#utility.yul\":16223:16338   */\n      pop\n      pop\n      jump\t// out\n        /* \"#utility.yul\":16344:16782   */\n    tag_248:\n        /* \"#utility.yul\":16491:16495   */\n      0x00\n        /* \"#utility.yul\":16529:16531   */\n      0x60\n        /* \"#utility.yul\":16518:16527   */\n      dup3\n        /* \"#utility.yul\":16514:16532   */\n      add\n        /* \"#utility.yul\":16506:16532   */\n      swap1\n      pop\n        /* \"#utility.yul\":16542:16613   */\n      tag_522\n        /* \"#utility.yul\":16610:16611   */\n      0x00\n        /* \"#utility.yul\":16599:16608   */\n      dup4\n        /* \"#utility.yul\":16595:16612   */\n      add\n        /* \"#utility.yul\":16586:16592   */\n      dup7\n        /* \"#utility.yul\":16542:16613   */\n      tag_288\n      jump\t// in\n    tag_522:\n        /* \"#utility.yul\":16623:16695   */\n      tag_523\n        /* \"#utility.yul\":16691:16693   */\n      0x20\n        /* \"#utility.yul\":16680:16689   */\n      dup4\n        /* \"#utility.yul\":16676:16694   */\n      add\n        /* \"#utility.yul\":16667:16673   */\n      dup6\n        /* \"#utility.yul\":16623:16695   */\n      tag_288\n      jump\t// in\n    tag_523:\n        /* \"#utility.yul\":16705:16775   */\n      tag_524\n        /* \"#utility.yul\":16771:16773   */\n      0x40\n        /* \"#utility.yul\":16760:16769   */\n      dup4\n        /* \"#utility.yul\":16756:16774   */\n      add\n        /* \"#utility.yul\":16747:16753   */\n      dup5\n        /* \"#utility.yul\":16705:16775   */\n      tag_321\n      jump\t// in\n    tag_524:\n        /* \"#utility.yul\":16344:16782   */\n      swap5\n      swap4\n      pop\n      pop\n      pop\n      pop\n      jump\t// out\n        /* \"#utility.yul\":16788:16904   */\n    tag_322:\n        /* \"#utility.yul\":16858:16879   */\n      tag_526\n        /* \"#utility.yul\":16873:16878   */\n      dup2\n        /* \"#utility.yul\":16858:16879   */\n      tag_282\n      jump\t// in\n    tag_526:\n        /* \"#utility.yul\":16851:16856   */\n      dup2\n        /* \"#utility.yul\":16848:16880   */\n      eq\n        /* \"#utility.yul\":16838:16898   */\n      tag_527\n      jumpi\n        /* \"#utility.yul\":16894:16895   */\n      0x00\n        /* \"#utility.yul\":16891:16892   */\n      dup1\n        /* \"#utility.yul\":16884:16896   */\n      revert\n        /* \"#utility.yul\":16838:16898   */\n    tag_527:\n        /* \"#utility.yul\":16788:16904   */\n      pop\n      jump\t// out\n        /* \"#utility.yul\":16910:17047   */\n    tag_323:\n        /* \"#utility.yul\":16964:16969   */\n      0x00\n        /* \"#utility.yul\":16995:17001   */\n      dup2\n        /* \"#utility.yul\":16989:17002   */\n      mload\n        /* \"#utility.yul\":16980:17002   */\n      swap1\n      pop\n        /* \"#utility.yul\":17011:17041   */\n      tag_529\n        /* \"#utility.yul\":17035:17040   */\n      dup2\n        /* \"#utility.yul\":17011:17041   */\n      tag_322\n      jump\t// in\n    tag_529:\n        /* \"#utility.yul\":16910:17047   */\n      swap3\n      swap2\n      pop\n      pop\n      jump\t// out\n        /* \"#utility.yul\":17053:17398   */\n    tag_252:\n        /* \"#utility.yul\":17120:17126   */\n      0x00\n        /* \"#utility.yul\":17169:17171   */\n      0x20\n        /* \"#utility.yul\":17157:17166   */\n      dup3\n        /* \"#utility.yul\":17148:17155   */\n      dup5\n        /* \"#utility.yul\":17144:17167   */\n      sub\n        /* \"#utility.yul\":17140:17172   */\n      slt\n        /* \"#utility.yul\":17137:17256   */\n      iszero\n      tag_531\n      jumpi\n        /* \"#utility.yul\":17175:17254   */\n      tag_532\n      tag_273\n      jump\t// in\n    tag_532:\n        /* \"#utility.yul\":17137:17256   */\n    tag_531:\n        /* \"#utility.yul\":17295:17296   */\n      0x00\n        /* \"#utility.yul\":17320:17381   */\n      tag_533\n        /* \"#utility.yul\":17373:17380   */\n      dup5\n        /* \"#utility.yul\":17364:17370   */\n      dup3\n        /* \"#utility.yul\":17353:17362   */\n      dup6\n        /* \"#utility.yul\":17349:17371   */\n      add\n        /* \"#utility.yul\":17320:17381   */\n      tag_323\n      jump\t// in\n    tag_533:\n        /* \"#utility.yul\":17310:17381   */\n      swap2\n      pop\n        /* \"#utility.yul\":17266:17391   */\n      pop\n        /* \"#utility.yul\":17053:17398   */\n      swap3\n      swap2\n      pop\n      pop\n      jump\t// out\n        /* \"#utility.yul\":17404:17584   */\n    tag_324:\n        /* \"#utility.yul\":17452:17529   */\n      0x4e487b7100000000000000000000000000000000000000000000000000000000\n        /* \"#utility.yul\":17449:17450   */\n      0x00\n        /* \"#utility.yul\":17442:17530   */\n      mstore\n        /* \"#utility.yul\":17549:17553   */\n      0x11\n        /* \"#utility.yul\":17546:17547   */\n      0x04\n        /* \"#utility.yul\":17539:17554   */\n      mstore\n        /* \"#utility.yul\":17573:17577   */\n      0x24\n        /* \"#utility.yul\":17570:17571   */\n      0x00\n        /* \"#utility.yul\":17563:17578   */\n      revert\n        /* \"#utility.yul\":17590:17784   */\n    tag_257:\n        /* \"#utility.yul\":17630:17634   */\n      0x00\n        /* \"#utility.yul\":17650:17670   */\n      tag_536\n        /* \"#utility.yul\":17668:17669   */\n      dup3\n        /* \"#utility.yul\":17650:17670   */\n      tag_279\n      jump\t// in\n    tag_536:\n        /* \"#utility.yul\":17645:17670   */\n      swap2\n      pop\n        /* \"#utility.yul\":17684:17704   */\n      tag_537\n        /* \"#utility.yul\":17702:17703   */\n      dup4\n        /* \"#utility.yul\":17684:17704   */\n      tag_279\n      jump\t// in\n    tag_537:\n        /* \"#utility.yul\":17679:17704   */\n      swap3\n      pop\n        /* \"#utility.yul\":17728:17729   */\n      dup3\n        /* \"#utility.yul\":17725:17726   */\n      dup3\n        /* \"#utility.yul\":17721:17730   */\n      sub\n        /* \"#utility.yul\":17713:17730   */\n      swap1\n      pop\n        /* \"#utility.yul\":17752:17753   */\n      dup2\n        /* \"#utility.yul\":17746:17750   */\n      dup2\n        /* \"#utility.yul\":17743:17754   */\n      gt\n        /* \"#utility.yul\":17740:17777   */\n      iszero\n      tag_538\n      jumpi\n        /* \"#utility.yul\":17757:17775   */\n      tag_539\n      tag_324\n      jump\t// in\n    tag_539:\n        /* \"#utility.yul\":17740:17777   */\n    tag_538:\n        /* \"#utility.yul\":17590:17784   */\n      swap3\n      swap2\n      pop\n      pop\n      jump\t// out\n        /* \"#utility.yul\":17790:17961   */\n    tag_325:\n        /* \"#utility.yul\":17930:17953   */\n      0x64732d6d6174682d7375622d756e646572666c6f770000000000000000000000\n        /* \"#utility.yul\":17926:17927   */\n      0x00\n        /* \"#utility.yul\":17918:17924   */\n      dup3\n        /* \"#utility.yul\":17914:17928   */\n      add\n        /* \"#utility.yul\":17907:17954   */\n      mstore\n        /* \"#utility.yul\":17790:17961   */\n      pop\n      jump\t// out\n        /* \"#utility.yul\":17967:18333   */\n    tag_326:\n        /* \"#utility.yul\":18109:18112   */\n      0x00\n        /* \"#utility.yul\":18130:18197   */\n      tag_542\n        /* \"#utility.yul\":18194:18196   */\n      0x15\n        /* \"#utility.yul\":18189:18192   */\n      dup4\n        /* \"#utility.yul\":18130:18197   */\n      tag_268\n      jump\t// in\n    tag_542:\n        /* \"#utility.yul\":18123:18197   */\n      swap2\n      pop\n        /* \"#utility.yul\":18206:18299   */\n      tag_543\n        /* \"#utility.yul\":18295:18298   */\n      dup3\n        /* \"#utility.yul\":18206:18299   */\n      tag_325\n      jump\t// in\n    tag_543:\n        /* \"#utility.yul\":18324:18326   */\n      0x20\n        /* \"#utility.yul\":18319:18322   */\n      dup3\n        /* \"#utility.yul\":18315:18327   */\n      add\n        /* \"#utility.yul\":18308:18327   */\n      swap1\n      pop\n        /* \"#utility.yul\":17967:18333   */\n      swap2\n      swap1\n      pop\n      jump\t// out\n        /* \"#utility.yul\":18339:18758   */\n    tag_260:\n        /* \"#utility.yul\":18505:18509   */\n      0x00\n        /* \"#utility.yul\":18543:18545   */\n      0x20\n        /* \"#utility.yul\":18532:18541   */\n      dup3\n        /* \"#utility.yul\":18528:18546   */\n      add\n        /* \"#utility.yul\":18520:18546   */\n      swap1\n      pop\n        /* \"#utility.yul\":18592:18601   */\n      dup2\n        /* \"#utility.yul\":18586:18590   */\n      dup2\n        /* \"#utility.yul\":18582:18602   */\n      sub\n        /* \"#utility.yul\":18578:18579   */\n      0x00\n        /* \"#utility.yul\":18567:18576   */\n      dup4\n        /* \"#utility.yul\":18563:18580   */\n      add\n        /* \"#utility.yul\":18556:18603   */\n      mstore\n        /* \"#utility.yul\":18620:18751   */\n      tag_545\n        /* \"#utility.yul\":18746:18750   */\n      dup2\n        /* \"#utility.yul\":18620:18751   */\n      tag_326\n      jump\t// in\n    tag_545:\n        /* \"#utility.yul\":18612:18751   */\n      swap1\n      pop\n        /* \"#utility.yul\":18339:18758   */\n      swap2\n      swap1\n      pop\n      jump\t// out\n        /* \"#utility.yul\":18764:18955   */\n    tag_263:\n        /* \"#utility.yul\":18804:18807   */\n      0x00\n        /* \"#utility.yul\":18823:18843   */\n      tag_547\n        /* \"#utility.yul\":18841:18842   */\n      dup3\n        /* \"#utility.yul\":18823:18843   */\n      tag_279\n      jump\t// in\n    tag_547:\n        /* \"#utility.yul\":18818:18843   */\n      swap2\n      pop\n        /* \"#utility.yul\":18857:18877   */\n      tag_548\n        /* \"#utility.yul\":18875:18876   */\n      dup4\n        /* \"#utility.yul\":18857:18877   */\n      tag_279\n      jump\t// in\n    tag_548:\n        /* \"#utility.yul\":18852:18877   */\n      swap3\n      pop\n        /* \"#utility.yul\":18900:18901   */\n      dup3\n        /* \"#utility.yul\":18897:18898   */\n      dup3\n        /* \"#utility.yul\":18893:18902   */\n      add\n        /* \"#utility.yul\":18886:18902   */\n      swap1\n      pop\n        /* \"#utility.yul\":18921:18924   */\n      dup1\n        /* \"#utility.yul\":18918:18919   */\n      dup3\n        /* \"#utility.yul\":18915:18925   */\n      gt\n        /* \"#utility.yul\":18912:18948   */\n      iszero\n      tag_549\n      jumpi\n        /* \"#utility.yul\":18928:18946   */\n      tag_550\n      tag_324\n      jump\t// in\n    tag_550:\n        /* \"#utility.yul\":18912:18948   */\n    tag_549:\n        /* \"#utility.yul\":18764:18955   */\n      swap3\n      swap2\n      pop\n      pop\n      jump\t// out\n        /* \"#utility.yul\":18961:19131   */\n    tag_327:\n        /* \"#utility.yul\":19101:19123   */\n      0x64732d6d6174682d6164642d6f766572666c6f77000000000000000000000000\n        /* \"#utility.yul\":19097:19098   */\n      0x00\n        /* \"#utility.yul\":19089:19095   */\n      dup3\n        /* \"#utility.yul\":19085:19099   */\n      add\n        /* \"#utility.yul\":19078:19124   */\n      mstore\n        /* \"#utility.yul\":18961:19131   */\n      pop\n      jump\t// out\n        /* \"#utility.yul\":19137:19503   */\n    tag_328:\n        /* \"#utility.yul\":19279:19282   */\n      0x00\n        /* \"#utility.yul\":19300:19367   */\n      tag_553\n        /* \"#utility.yul\":19364:19366   */\n      0x14\n        /* \"#utility.yul\":19359:19362   */\n      dup4\n        /* \"#utility.yul\":19300:19367   */\n      tag_268\n      jump\t// in\n    tag_553:\n        /* \"#utility.yul\":19293:19367   */\n      swap2\n      pop\n        /* \"#utility.yul\":19376:19469   */\n      tag_554\n        /* \"#utility.yul\":19465:19468   */\n      dup3\n        /* \"#utility.yul\":19376:19469   */\n      tag_327\n      jump\t// in\n    tag_554:\n        /* \"#utility.yul\":19494:19496   */\n      0x20\n        /* \"#utility.yul\":19489:19492   */\n      dup3\n        /* \"#utility.yul\":19485:19497   */\n      add\n        /* \"#utility.yul\":19478:19497   */\n      swap1\n      pop\n        /* \"#utility.yul\":19137:19503   */\n      swap2\n      swap1\n      pop\n      jump\t// out\n        /* \"#utility.yul\":19509:19928   */\n    tag_266:\n        /* \"#utility.yul\":19675:19679   */\n      0x00\n        /* \"#utility.yul\":19713:19715   */\n      0x20\n        /* \"#utility.yul\":19702:19711   */\n      dup3\n        /* \"#utility.yul\":19698:19716   */\n      add\n        /* \"#utility.yul\":19690:19716   */\n      swap1\n      pop\n        /* \"#utility.yul\":19762:19771   */\n      dup2\n        /* \"#utility.yul\":19756:19760   */\n      dup2\n        /* \"#utility.yul\":19752:19772   */\n      sub\n        /* \"#utility.yul\":19748:19749   */\n      0x00\n        /* \"#utility.yul\":19737:19746   */\n      dup4\n        /* \"#utility.yul\":19733:19750   */\n      add\n        /* \"#utility.yul\":19726:19773   */\n      mstore\n        /* \"#utility.yul\":19790:19921   */\n      tag_556\n        /* \"#utility.yul\":19916:19920   */\n      dup2\n        /* \"#utility.yul\":19790:19921   */\n      tag_328\n      jump\t// in\n    tag_556:\n        /* \"#utility.yul\":19782:19921   */\n      swap1\n      pop\n        /* \"#utility.yul\":19509:19928   */\n      swap2\n      swap1\n      pop\n      jump\t// out\n\n    auxdata: 0xa2646970667358221220fb49731e0ad0c5564ded71cdb2be78196d11e989863bbd25af16ea46dc77cbcf64736f6c63430008140033\n}\n",
				"bytecode": {
					"linkReferences": {},
					"object": "6080604052601260065534801562000015575f80fd5b506040516200283b3803806200283b83398181016040528101906200003b9190620002a6565b5f8060015f3373ffffffffffffffffffffffffffffffffffffffff1673ffffffffffffffffffffffffffffffffffffffff1681526020019081526020015f2081905550805f81905550503360045f6101000a81548173ffffffffffffffffffffffffffffffffffffffff021916908373ffffffffffffffffffffffffffffffffffffffff1602179055503373ffffffffffffffffffffffffffffffffffffffff167fce241d7ca1f669fee44b6fc00b8eba2df3bb514eed0f6f668f8f89096e81ed9460405160405180910390a280600590816200011991906200052c565b505062000610565b5f604051905090565b5f80fd5b5f80fd5b5f80fd5b5f80fd5b5f601f19601f8301169050919050565b7f4e487b71000000000000000000000000000000000000000000000000000000005f52604160045260245ffd5b62000182826200013a565b810181811067ffffffffffffffff82111715620001a457620001a36200014a565b5b80604052505050565b5f620001b862000121565b9050620001c6828262000177565b919050565b5f67ffffffffffffffff821115620001e857620001e76200014a565b5b620001f3826200013a565b9050602081019050919050565b5f5b838110156200021f57808201518184015260208101905062000202565b5f8484015250505050565b5f620002406200023a84620001cb565b620001ad565b9050828152602081018484840111156200025f576200025e62000136565b5b6200026c84828562000200565b509392505050565b5f82601f8301126200028b576200028a62000132565b5b81516200029d8482602086016200022a565b91505092915050565b5f60208284031215620002be57620002bd6200012a565b5b5f82015167ffffffffffffffff811115620002de57620002dd6200012e565b5b620002ec8482850162000274565b91505092915050565b5f81519050919050565b7f4e487b71000000000000000000000000000000000000000000000000000000005f52602260045260245ffd5b5f60028204905060018216806200034457607f821691505b6020821081036200035a5762000359620002ff565b5b50919050565b5f819050815f5260205f209050919050565b5f6020601f8301049050919050565b5f82821b905092915050565b5f60088302620003be7fffffffffffffffffffffffffffffffffffffffffffffffffffffffffffffffff8262000381565b620003ca868362000381565b95508019841693508086168417925050509392505050565b5f819050919050565b5f819050919050565b5f620004146200040e6200040884620003e2565b620003eb565b620003e2565b9050919050565b5f819050919050565b6200042f83620003f4565b620004476200043e826200041b565b8484546200038d565b825550505050565b5f90565b6200045d6200044f565b6200046a81848462000424565b505050565b5b818110156200049157620004855f8262000453565b60018101905062000470565b5050565b601f821115620004e057620004aa8162000360565b620004b58462000372565b81016020851015620004c5578190505b620004dd620004d48562000372565b8301826200046f565b50505b505050565b5f82821c905092915050565b5f620005025f1984600802620004e5565b1980831691505092915050565b5f6200051c8383620004f1565b9150826002028217905092915050565b6200053782620002f5565b67ffffffffffffffff8111156200055357620005526200014a565b5b6200055f82546200032c565b6200056c82828562000495565b5f60209050601f831160018114620005a2575f84156200058d578287015190505b6200059985826200050f565b86555062000608565b601f198416620005b28662000360565b5f5b82811015620005db57848901518255600182019150602085019450602081019050620005b4565b86831015620005fb5784890151620005f7601f891682620004f1565b8355505b6001600288020188555050505b505050505050565b61221d806200061e5f395ff3fe608060405260043610610165575f3560e01c80638da5cb5b116100d0578063bb35783b11610089578063c47f002711610063578063c47f0027146104d3578063daea85c5146104fb578063dd62ed3e14610537578063f2d5d56b1461057357610165565b8063bb35783b14610477578063be9a65551461049f578063bf7e214f146104a957610165565b80638da5cb5b1461036f57806395d89b41146103995780639dc29fac146103c3578063a0712d68146103eb578063a9059cbb14610413578063b753a98c1461044f57610165565b8063313ce56711610122578063313ce5671461026757806340c10f191461029157806342966c68146102b957806370a08231146102e157806375f12b211461031d5780637a9e5e4b1461034757610165565b806306fdde031461016957806307da68f514610193578063095ea7b31461019d57806313af4035146101d957806318160ddd1461020157806323b872dd1461022b575b5f80fd5b348015610174575f80fd5b5061017d61059b565b60405161018a91906117e4565b60405180910390f35b61019b610627565b005b3480156101a8575f80fd5b506101c360048036038101906101be91906118a2565b6106fd565b6040516101d091906118fa565b60405180910390f35b3480156101e4575f80fd5b506101ff60048036038101906101fa9190611913565b610729565b005b34801561020c575f80fd5b50610215610805565b604051610222919061194d565b60405180910390f35b348015610236575f80fd5b50610251600480360381019061024c9190611966565b61080d565b60405161025e91906118fa565b60405180910390f35b348015610272575f80fd5b5061027b610b7f565b604051610288919061194d565b60405180910390f35b34801561029c575f80fd5b506102b760048036038101906102b291906118a2565b610b85565b005b3480156102c4575f80fd5b506102df60048036038101906102da91906119b6565b610cbd565b005b3480156102ec575f80fd5b5061030760048036038101906103029190611913565b610cca565b604051610314919061194d565b60405180910390f35b348015610328575f80fd5b50610331610d10565b60405161033e91906118fa565b60405180910390f35b348015610352575f80fd5b5061036d60048036038101906103689190611a1c565b610d23565b005b34801561037a575f80fd5b50610383610dff565b6040516103909190611a56565b60405180910390f35b3480156103a4575f80fd5b506103ad610e24565b6040516103ba91906117e4565b60405180910390f35b3480156103ce575f80fd5b506103e960048036038101906103e491906118a2565b610eb0565b005b3480156103f6575f80fd5b50610411600480360381019061040c91906119b6565b6111c0565b005b34801561041e575f80fd5b50610439600480360381019061043491906118a2565b6111cd565b60405161044691906118fa565b60405180910390f35b34801561045a575f80fd5b50610475600480360381019061047091906118a2565b6111e1565b005b348015610482575f80fd5b5061049d60048036038101906104989190611966565b6111f1565b005b6104a7611202565b005b3480156104b4575f80fd5b506104bd6112d7565b6040516104ca9190611aca565b60405180910390f35b3480156104de575f80fd5b506104f960048036038101906104f49190611c0f565b6112fc565b005b348015610506575f80fd5b50610521600480360381019061051c9190611913565b611344565b60405161052e91906118fa565b60405180910390f35b348015610542575f80fd5b5061055d60048036038101906105589190611c56565b61138f565b60405161056a919061194d565b60405180910390f35b34801561057e575f80fd5b50610599600480360381019061059491906118a2565b611411565b005b600780546105a890611cc1565b80601f01602080910402602001604051908101604052809291908181526020018280546105d490611cc1565b801561061f5780601f106105f65761010080835404028352916020019161061f565b820191905f5260205f20905b81548152906001019060200180831161060257829003601f168201915b505050505081565b610654335f357fffffffff0000000000000000000000000000000000000000000000000000000016611421565b61065c575f80fd5b5f806004359150602435905080823373ffffffffffffffffffffffffffffffffffffffff165f357fffffffff00000000000000000000000000000000000000000000000000000000167bffffffffffffffffffffffffffffffffffffffffffffffffffffffff1916345f366040516106d693929190611d2d565b60405180910390a46001600460146101000a81548160ff0219169083151502179055505050565b5f600460149054906101000a900460ff1615610717575f80fd5b61072183836115bd565b905092915050565b610756335f357fffffffff0000000000000000000000000000000000000000000000000000000016611421565b61075e575f80fd5b8060045f6101000a81548173ffffffffffffffffffffffffffffffffffffffff021916908373ffffffffffffffffffffffffffffffffffffffff16021790555060045f9054906101000a900473ffffffffffffffffffffffffffffffffffffffff1673ffffffffffffffffffffffffffffffffffffffff167fce241d7ca1f669fee44b6fc00b8eba2df3bb514eed0f6f668f8f89096e81ed9460405160405180910390a250565b5f8054905090565b5f600460149054906101000a900460ff1615610827575f80fd5b3373ffffffffffffffffffffffffffffffffffffffff168473ffffffffffffffffffffffffffffffffffffffff16141580156108fb57507fffffffffffffffffffffffffffffffffffffffffffffffffffffffffffffffff60025f8673ffffffffffffffffffffffffffffffffffffffff1673ffffffffffffffffffffffffffffffffffffffff1681526020019081526020015f205f3373ffffffffffffffffffffffffffffffffffffffff1673ffffffffffffffffffffffffffffffffffffffff1681526020019081526020015f205414155b156109ff5761098260025f8673ffffffffffffffffffffffffffffffffffffffff1673ffffffffffffffffffffffffffffffffffffffff1681526020019081526020015f205f3373ffffffffffffffffffffffffffffffffffffffff1673ffffffffffffffffffffffffffffffffffffffff1681526020019081526020015f2054836116aa565b60025f8673ffffffffffffffffffffffffffffffffffffffff1673ffffffffffffffffffffffffffffffffffffffff1681526020019081526020015f205f3373ffffffffffffffffffffffffffffffffffffffff1673ffffffffffffffffffffffffffffffffffffffff1681526020019081526020015f20819055505b610a4660015f8673ffffffffffffffffffffffffffffffffffffffff1673ffffffffffffffffffffffffffffffffffffffff1681526020019081526020015f2054836116aa565b60015f8673ffffffffffffffffffffffffffffffffffffffff1673ffffffffffffffffffffffffffffffffffffffff1681526020019081526020015f2081905550610ace60015f8573ffffffffffffffffffffffffffffffffffffffff1673ffffffffffffffffffffffffffffffffffffffff1681526020019081526020015f205483611702565b60015f8573ffffffffffffffffffffffffffffffffffffffff1673ffffffffffffffffffffffffffffffffffffffff1681526020019081526020015f20819055508273ffffffffffffffffffffffffffffffffffffffff168473ffffffffffffffffffffffffffffffffffffffff167fddf252ad1be2c89b69c2b068fc378daa952ba7f163c4a11628f55a4df523b3ef84604051610b6c919061194d565b60405180910390a3600190509392505050565b60065481565b610bb2335f357fffffffff0000000000000000000000000000000000000000000000000000000016611421565b610bba575f80fd5b600460149054906101000a900460ff1615610bd3575f80fd5b610c1a60015f8473ffffffffffffffffffffffffffffffffffffffff1673ffffffffffffffffffffffffffffffffffffffff1681526020019081526020015f205482611702565b60015f8473ffffffffffffffffffffffffffffffffffffffff1673ffffffffffffffffffffffffffffffffffffffff1681526020019081526020015f2081905550610c665f5482611702565b5f819055508173ffffffffffffffffffffffffffffffffffffffff167f0f6798a560793a54c3bcfe86a93cde1e73087d944c0ea20544137d412139688582604051610cb1919061194d565b60405180910390a25050565b610cc73382610eb0565b50565b5f60015f8373ffffffffffffffffffffffffffffffffffffffff1673ffffffffffffffffffffffffffffffffffffffff1681526020019081526020015f20549050919050565b600460149054906101000a900460ff1681565b610d50335f357fffffffff0000000000000000000000000000000000000000000000000000000016611421565b610d58575f80fd5b8060035f6101000a81548173ffffffffffffffffffffffffffffffffffffffff021916908373ffffffffffffffffffffffffffffffffffffffff16021790555060035f9054906101000a900473ffffffffffffffffffffffffffffffffffffffff1673ffffffffffffffffffffffffffffffffffffffff167f1abebea81bfa2637f28358c371278fb15ede7ea8dd28d2e03b112ff6d936ada460405160405180910390a250565b60045f9054906101000a900473ffffffffffffffffffffffffffffffffffffffff1681565b60058054610e3190611cc1565b80601f0160208091040260200160405190810160405280929190818152602001828054610e5d90611cc1565b8015610ea85780601f10610e7f57610100808354040283529160200191610ea8565b820191905f5260205f20905b815481529060010190602001808311610e8b57829003601f168201915b505050505081565b610edd335f357fffffffff0000000000000000000000000000000000000000000000000000000016611421565b610ee5575f80fd5b600460149054906101000a900460ff1615610efe575f80fd5b3373ffffffffffffffffffffffffffffffffffffffff168273ffffffffffffffffffffffffffffffffffffffff1614158015610fd257507fffffffffffffffffffffffffffffffffffffffffffffffffffffffffffffffff60025f8473ffffffffffffffffffffffffffffffffffffffff1673ffffffffffffffffffffffffffffffffffffffff1681526020019081526020015f205f3373ffffffffffffffffffffffffffffffffffffffff1673ffffffffffffffffffffffffffffffffffffffff1681526020019081526020015f205414155b156110d65761105960025f8473ffffffffffffffffffffffffffffffffffffffff1673ffffffffffffffffffffffffffffffffffffffff1681526020019081526020015f205f3373ffffffffffffffffffffffffffffffffffffffff1673ffffffffffffffffffffffffffffffffffffffff1681526020019081526020015f2054826116aa565b60025f8473ffffffffffffffffffffffffffffffffffffffff1673ffffffffffffffffffffffffffffffffffffffff1681526020019081526020015f205f3373ffffffffffffffffffffffffffffffffffffffff1673ffffffffffffffffffffffffffffffffffffffff1681526020019081526020015f20819055505b61111d60015f8473ffffffffffffffffffffffffffffffffffffffff1673ffffffffffffffffffffffffffffffffffffffff1681526020019081526020015f2054826116aa565b60015f8473ffffffffffffffffffffffffffffffffffffffff1673ffffffffffffffffffffffffffffffffffffffff1681526020019081526020015f20819055506111695f54826116aa565b5f819055508173ffffffffffffffffffffffffffffffffffffffff167fcc16f5dbb4873280815c1ee09dbd06736cffcc184412cf7a71a0fdb75d397ca5826040516111b4919061194d565b60405180910390a25050565b6111ca3382610b85565b50565b5f6111d933848461080d565b905092915050565b6111ec33838361080d565b505050565b6111fc83838361080d565b50505050565b61122f335f357fffffffff0000000000000000000000000000000000000000000000000000000016611421565b611237575f80fd5b5f806004359150602435905080823373ffffffffffffffffffffffffffffffffffffffff165f357fffffffff00000000000000000000000000000000000000000000000000000000167bffffffffffffffffffffffffffffffffffffffffffffffffffffffff1916345f366040516112b193929190611d2d565b60405180910390a45f600460146101000a81548160ff0219169083151502179055505050565b60035f9054906101000a900473ffffffffffffffffffffffffffffffffffffffff1681565b611329335f357fffffffff0000000000000000000000000000000000000000000000000000000016611421565b611331575f80fd5b80600790816113409190611ef1565b5050565b5f600460149054906101000a900460ff161561135e575f80fd5b611388827fffffffffffffffffffffffffffffffffffffffffffffffffffffffffffffffff6115bd565b9050919050565b5f60025f8473ffffffffffffffffffffffffffffffffffffffff1673ffffffffffffffffffffffffffffffffffffffff1681526020019081526020015f205f8373ffffffffffffffffffffffffffffffffffffffff1673ffffffffffffffffffffffffffffffffffffffff1681526020019081526020015f2054905092915050565b61141c82338361080d565b505050565b5f3073ffffffffffffffffffffffffffffffffffffffff168373ffffffffffffffffffffffffffffffffffffffff160361145e57600190506115b7565b60045f9054906101000a900473ffffffffffffffffffffffffffffffffffffffff1673ffffffffffffffffffffffffffffffffffffffff168373ffffffffffffffffffffffffffffffffffffffff16036114bb57600190506115b7565b5f73ffffffffffffffffffffffffffffffffffffffff1660035f9054906101000a900473ffffffffffffffffffffffffffffffffffffffff1673ffffffffffffffffffffffffffffffffffffffff1603611517575f90506115b7565b60035f9054906101000a900473ffffffffffffffffffffffffffffffffffffffff1673ffffffffffffffffffffffffffffffffffffffff1663b70096138430856040518463ffffffff1660e01b815260040161157593929190611ffa565b602060405180830381865afa158015611590573d5f803e3d5ffd5b505050506040513d601f19601f820116820180604052508101906115b49190612059565b90505b92915050565b5f8160025f3373ffffffffffffffffffffffffffffffffffffffff1673ffffffffffffffffffffffffffffffffffffffff1681526020019081526020015f205f8573ffffffffffffffffffffffffffffffffffffffff1673ffffffffffffffffffffffffffffffffffffffff1681526020019081526020015f20819055508273ffffffffffffffffffffffffffffffffffffffff163373ffffffffffffffffffffffffffffffffffffffff167f8c5be1e5ebec7d5bd14f71427d1e84f3dd0314c0f7b2291e5b200ac8c7c3b92584604051611698919061194d565b60405180910390a36001905092915050565b5f8282846116b891906120b1565b91508111156116fc576040517f08c379a00000000000000000000000000000000000000000000000000000000081526004016116f39061212e565b60405180910390fd5b92915050565b5f828284611710919061214c565b9150811015611754576040517f08c379a000000000000000000000000000000000000000000000000000000000815260040161174b906121c9565b60405180910390fd5b92915050565b5f81519050919050565b5f82825260208201905092915050565b5f5b83811015611791578082015181840152602081019050611776565b5f8484015250505050565b5f601f19601f8301169050919050565b5f6117b68261175a565b6117c08185611764565b93506117d0818560208601611774565b6117d98161179c565b840191505092915050565b5f6020820190508181035f8301526117fc81846117ac565b905092915050565b5f604051905090565b5f80fd5b5f80fd5b5f73ffffffffffffffffffffffffffffffffffffffff82169050919050565b5f61183e82611815565b9050919050565b61184e81611834565b8114611858575f80fd5b50565b5f8135905061186981611845565b92915050565b5f819050919050565b6118818161186f565b811461188b575f80fd5b50565b5f8135905061189c81611878565b92915050565b5f80604083850312156118b8576118b761180d565b5b5f6118c58582860161185b565b92505060206118d68582860161188e565b9150509250929050565b5f8115159050919050565b6118f4816118e0565b82525050565b5f60208201905061190d5f8301846118eb565b92915050565b5f602082840312156119285761192761180d565b5b5f6119358482850161185b565b91505092915050565b6119478161186f565b82525050565b5f6020820190506119605f83018461193e565b92915050565b5f805f6060848603121561197d5761197c61180d565b5b5f61198a8682870161185b565b935050602061199b8682870161185b565b92505060406119ac8682870161188e565b9150509250925092565b5f602082840312156119cb576119ca61180d565b5b5f6119d88482850161188e565b91505092915050565b5f6119eb82611834565b9050919050565b6119fb816119e1565b8114611a05575f80fd5b50565b5f81359050611a16816119f2565b92915050565b5f60208284031215611a3157611a3061180d565b5b5f611a3e84828501611a08565b91505092915050565b611a5081611834565b82525050565b5f602082019050611a695f830184611a47565b92915050565b5f819050919050565b5f611a92611a8d611a8884611815565b611a6f565b611815565b9050919050565b5f611aa382611a78565b9050919050565b5f611ab482611a99565b9050919050565b611ac481611aaa565b82525050565b5f602082019050611add5f830184611abb565b92915050565b5f80fd5b5f80fd5b7f4e487b71000000000000000000000000000000000000000000000000000000005f52604160045260245ffd5b611b218261179c565b810181811067ffffffffffffffff82111715611b4057611b3f611aeb565b5b80604052505050565b5f611b52611804565b9050611b5e8282611b18565b919050565b5f67ffffffffffffffff821115611b7d57611b7c611aeb565b5b611b868261179c565b9050602081019050919050565b828183375f83830152505050565b5f611bb3611bae84611b63565b611b49565b905082815260208101848484011115611bcf57611bce611ae7565b5b611bda848285611b93565b509392505050565b5f82601f830112611bf657611bf5611ae3565b5b8135611c06848260208601611ba1565b91505092915050565b5f60208284031215611c2457611c2361180d565b5b5f82013567ffffffffffffffff811115611c4157611c40611811565b5b611c4d84828501611be2565b91505092915050565b5f8060408385031215611c6c57611c6b61180d565b5b5f611c798582860161185b565b9250506020611c8a8582860161185b565b9150509250929050565b7f4e487b71000000000000000000000000000000000000000000000000000000005f52602260045260245ffd5b5f6002820490506001821680611cd857607f821691505b602082108103611ceb57611cea611c94565b5b50919050565b5f82825260208201905092915050565b5f611d0c8385611cf1565b9350611d19838584611b93565b611d228361179c565b840190509392505050565b5f604082019050611d405f83018661193e565b8181036020830152611d53818486611d01565b9050949350505050565b5f819050815f5260205f209050919050565b5f6020601f8301049050919050565b5f82821b905092915050565b5f60088302611db97fffffffffffffffffffffffffffffffffffffffffffffffffffffffffffffffff82611d7e565b611dc38683611d7e565b95508019841693508086168417925050509392505050565b5f611df5611df0611deb8461186f565b611a6f565b61186f565b9050919050565b5f819050919050565b611e0e83611ddb565b611e22611e1a82611dfc565b848454611d8a565b825550505050565b5f90565b611e36611e2a565b611e41818484611e05565b505050565b5b81811015611e6457611e595f82611e2e565b600181019050611e47565b5050565b601f821115611ea957611e7a81611d5d565b611e8384611d6f565b81016020851015611e92578190505b611ea6611e9e85611d6f565b830182611e46565b50505b505050565b5f82821c905092915050565b5f611ec95f1984600802611eae565b1980831691505092915050565b5f611ee18383611eba565b9150826002028217905092915050565b611efa8261175a565b67ffffffffffffffff811115611f1357611f12611aeb565b5b611f1d8254611cc1565b611f28828285611e68565b5f60209050601f831160018114611f59575f8415611f47578287015190505b611f518582611ed6565b865550611fb8565b601f198416611f6786611d5d565b5f5b82811015611f8e57848901518255600182019150602085019450602081019050611f69565b86831015611fab5784890151611fa7601f891682611eba565b8355505b6001600288020188555050505b505050505050565b5f7fffffffff0000000000000000000000000000000000000000000000000000000082169050919050565b611ff481611fc0565b82525050565b5f60608201905061200d5f830186611a47565b61201a6020830185611a47565b6120276040830184611feb565b949350505050565b612038816118e0565b8114612042575f80fd5b50565b5f815190506120538161202f565b92915050565b5f6020828403121561206e5761206d61180d565b5b5f61207b84828501612045565b91505092915050565b7f4e487b71000000000000000000000000000000000000000000000000000000005f52601160045260245ffd5b5f6120bb8261186f565b91506120c68361186f565b92508282039050818111156120de576120dd612084565b5b92915050565b7f64732d6d6174682d7375622d756e646572666c6f7700000000000000000000005f82015250565b5f612118601583611764565b9150612123826120e4565b602082019050919050565b5f6020820190508181035f8301526121458161210c565b9050919050565b5f6121568261186f565b91506121618361186f565b925082820190508082111561217957612178612084565b5b92915050565b7f64732d6d6174682d6164642d6f766572666c6f770000000000000000000000005f82015250565b5f6121b3601483611764565b91506121be8261217f565b602082019050919050565b5f6020820190508181035f8301526121e0816121a7565b905091905056fea2646970667358221220fb49731e0ad0c5564ded71cdb2be78196d11e989863bbd25af16ea46dc77cbcf64736f6c63430008140033",
					"opcodes": "PUSH1 0x80 PUSH1 0x40 MSTORE PUSH1 0x12 PUSH1 0x6 SSTORE CALLVALUE DUP1 ISZERO PUSH3 0x15 JUMPI PUSH0 DUP1 REVERT JUMPDEST POP PUSH1 0x40 MLOAD PUSH3 0x283B CODESIZE SUB DUP1 PUSH3 0x283B DUP4 CODECOPY DUP2 DUP2 ADD PUSH1 0x40 MSTORE DUP2 ADD SWAP1 PUSH3 0x3B SWAP2 SWAP1 PUSH3 0x2A6 JUMP JUMPDEST PUSH0 DUP1 PUSH1 0x1 PUSH0 CALLER PUSH20 0xFFFFFFFFFFFFFFFFFFFFFFFFFFFFFFFFFFFFFFFF AND PUSH20 0xFFFFFFFFFFFFFFFFFFFFFFFFFFFFFFFFFFFFFFFF AND DUP2 MSTORE PUSH1 0x20 ADD SWAP1 DUP2 MSTORE PUSH1 0x20 ADD PUSH0 KECCAK256 DUP2 SWAP1 SSTORE POP DUP1 PUSH0 DUP2 SWAP1 SSTORE POP POP CALLER PUSH1 0x4 PUSH0 PUSH2 0x100 EXP DUP2 SLOAD DUP2 PUSH20 0xFFFFFFFFFFFFFFFFFFFFFFFFFFFFFFFFFFFFFFFF MUL NOT AND SWAP1 DUP4 PUSH20 0xFFFFFFFFFFFFFFFFFFFFFFFFFFFFFFFFFFFFFFFF AND MUL OR SWAP1 SSTORE POP CALLER PUSH20 0xFFFFFFFFFFFFFFFFFFFFFFFFFFFFFFFFFFFFFFFF AND PUSH32 0xCE241D7CA1F669FEE44B6FC00B8EBA2DF3BB514EED0F6F668F8F89096E81ED94 PUSH1 0x40 MLOAD PUSH1 0x40 MLOAD DUP1 SWAP2 SUB SWAP1 LOG2 DUP1 PUSH1 0x5 SWAP1 DUP2 PUSH3 0x119 SWAP2 SWAP1 PUSH3 0x52C JUMP JUMPDEST POP POP PUSH3 0x610 JUMP JUMPDEST PUSH0 PUSH1 0x40 MLOAD SWAP1 POP SWAP1 JUMP JUMPDEST PUSH0 DUP1 REVERT JUMPDEST PUSH0 DUP1 REVERT JUMPDEST PUSH0 DUP1 REVERT JUMPDEST PUSH0 DUP1 REVERT JUMPDEST PUSH0 PUSH1 0x1F NOT PUSH1 0x1F DUP4 ADD AND SWAP1 POP SWAP2 SWAP1 POP JUMP JUMPDEST PUSH32 0x4E487B7100000000000000000000000000000000000000000000000000000000 PUSH0 MSTORE PUSH1 0x41 PUSH1 0x4 MSTORE PUSH1 0x24 PUSH0 REVERT JUMPDEST PUSH3 0x182 DUP3 PUSH3 0x13A JUMP JUMPDEST DUP2 ADD DUP2 DUP2 LT PUSH8 0xFFFFFFFFFFFFFFFF DUP3 GT OR ISZERO PUSH3 0x1A4 JUMPI PUSH3 0x1A3 PUSH3 0x14A JUMP JUMPDEST JUMPDEST DUP1 PUSH1 0x40 MSTORE POP POP POP JUMP JUMPDEST PUSH0 PUSH3 0x1B8 PUSH3 0x121 JUMP JUMPDEST SWAP1 POP PUSH3 0x1C6 DUP3 DUP3 PUSH3 0x177 JUMP JUMPDEST SWAP2 SWAP1 POP JUMP JUMPDEST PUSH0 PUSH8 0xFFFFFFFFFFFFFFFF DUP3 GT ISZERO PUSH3 0x1E8 JUMPI PUSH3 0x1E7 PUSH3 0x14A JUMP JUMPDEST JUMPDEST PUSH3 0x1F3 DUP3 PUSH3 0x13A JUMP JUMPDEST SWAP1 POP PUSH1 0x20 DUP2 ADD SWAP1 POP SWAP2 SWAP1 POP JUMP JUMPDEST PUSH0 JUMPDEST DUP4 DUP2 LT ISZERO PUSH3 0x21F JUMPI DUP1 DUP3 ADD MLOAD DUP2 DUP5 ADD MSTORE PUSH1 0x20 DUP2 ADD SWAP1 POP PUSH3 0x202 JUMP JUMPDEST PUSH0 DUP5 DUP5 ADD MSTORE POP POP POP POP JUMP JUMPDEST PUSH0 PUSH3 0x240 PUSH3 0x23A DUP5 PUSH3 0x1CB JUMP JUMPDEST PUSH3 0x1AD JUMP JUMPDEST SWAP1 POP DUP3 DUP2 MSTORE PUSH1 0x20 DUP2 ADD DUP5 DUP5 DUP5 ADD GT ISZERO PUSH3 0x25F JUMPI PUSH3 0x25E PUSH3 0x136 JUMP JUMPDEST JUMPDEST PUSH3 0x26C DUP5 DUP3 DUP6 PUSH3 0x200 JUMP JUMPDEST POP SWAP4 SWAP3 POP POP POP JUMP JUMPDEST PUSH0 DUP3 PUSH1 0x1F DUP4 ADD SLT PUSH3 0x28B JUMPI PUSH3 0x28A PUSH3 0x132 JUMP JUMPDEST JUMPDEST DUP2 MLOAD PUSH3 0x29D DUP5 DUP3 PUSH1 0x20 DUP7 ADD PUSH3 0x22A JUMP JUMPDEST SWAP2 POP POP SWAP3 SWAP2 POP POP JUMP JUMPDEST PUSH0 PUSH1 0x20 DUP3 DUP5 SUB SLT ISZERO PUSH3 0x2BE JUMPI PUSH3 0x2BD PUSH3 0x12A JUMP JUMPDEST JUMPDEST PUSH0 DUP3 ADD MLOAD PUSH8 0xFFFFFFFFFFFFFFFF DUP2 GT ISZERO PUSH3 0x2DE JUMPI PUSH3 0x2DD PUSH3 0x12E JUMP JUMPDEST JUMPDEST PUSH3 0x2EC DUP5 DUP3 DUP6 ADD PUSH3 0x274 JUMP JUMPDEST SWAP2 POP POP SWAP3 SWAP2 POP POP JUMP JUMPDEST PUSH0 DUP2 MLOAD SWAP1 POP SWAP2 SWAP1 POP JUMP JUMPDEST PUSH32 0x4E487B7100000000000000000000000000000000000000000000000000000000 PUSH0 MSTORE PUSH1 0x22 PUSH1 0x4 MSTORE PUSH1 0x24 PUSH0 REVERT JUMPDEST PUSH0 PUSH1 0x2 DUP3 DIV SWAP1 POP PUSH1 0x1 DUP3 AND DUP1 PUSH3 0x344 JUMPI PUSH1 0x7F DUP3 AND SWAP2 POP JUMPDEST PUSH1 0x20 DUP3 LT DUP2 SUB PUSH3 0x35A JUMPI PUSH3 0x359 PUSH3 0x2FF JUMP JUMPDEST JUMPDEST POP SWAP2 SWAP1 POP JUMP JUMPDEST PUSH0 DUP2 SWAP1 POP DUP2 PUSH0 MSTORE PUSH1 0x20 PUSH0 KECCAK256 SWAP1 POP SWAP2 SWAP1 POP JUMP JUMPDEST PUSH0 PUSH1 0x20 PUSH1 0x1F DUP4 ADD DIV SWAP1 POP SWAP2 SWAP1 POP JUMP JUMPDEST PUSH0 DUP3 DUP3 SHL SWAP1 POP SWAP3 SWAP2 POP POP JUMP JUMPDEST PUSH0 PUSH1 0x8 DUP4 MUL PUSH3 0x3BE PUSH32 0xFFFFFFFFFFFFFFFFFFFFFFFFFFFFFFFFFFFFFFFFFFFFFFFFFFFFFFFFFFFFFFFF DUP3 PUSH3 0x381 JUMP JUMPDEST PUSH3 0x3CA DUP7 DUP4 PUSH3 0x381 JUMP JUMPDEST SWAP6 POP DUP1 NOT DUP5 AND SWAP4 POP DUP1 DUP7 AND DUP5 OR SWAP3 POP POP POP SWAP4 SWAP3 POP POP POP JUMP JUMPDEST PUSH0 DUP2 SWAP1 POP SWAP2 SWAP1 POP JUMP JUMPDEST PUSH0 DUP2 SWAP1 POP SWAP2 SWAP1 POP JUMP JUMPDEST PUSH0 PUSH3 0x414 PUSH3 0x40E PUSH3 0x408 DUP5 PUSH3 0x3E2 JUMP JUMPDEST PUSH3 0x3EB JUMP JUMPDEST PUSH3 0x3E2 JUMP JUMPDEST SWAP1 POP SWAP2 SWAP1 POP JUMP JUMPDEST PUSH0 DUP2 SWAP1 POP SWAP2 SWAP1 POP JUMP JUMPDEST PUSH3 0x42F DUP4 PUSH3 0x3F4 JUMP JUMPDEST PUSH3 0x447 PUSH3 0x43E DUP3 PUSH3 0x41B JUMP JUMPDEST DUP5 DUP5 SLOAD PUSH3 0x38D JUMP JUMPDEST DUP3 SSTORE POP POP POP POP JUMP JUMPDEST PUSH0 SWAP1 JUMP JUMPDEST PUSH3 0x45D PUSH3 0x44F JUMP JUMPDEST PUSH3 0x46A DUP2 DUP5 DUP5 PUSH3 0x424 JUMP JUMPDEST POP POP POP JUMP JUMPDEST JUMPDEST DUP2 DUP2 LT ISZERO PUSH3 0x491 JUMPI PUSH3 0x485 PUSH0 DUP3 PUSH3 0x453 JUMP JUMPDEST PUSH1 0x1 DUP2 ADD SWAP1 POP PUSH3 0x470 JUMP JUMPDEST POP POP JUMP JUMPDEST PUSH1 0x1F DUP3 GT ISZERO PUSH3 0x4E0 JUMPI PUSH3 0x4AA DUP2 PUSH3 0x360 JUMP JUMPDEST PUSH3 0x4B5 DUP5 PUSH3 0x372 JUMP JUMPDEST DUP2 ADD PUSH1 0x20 DUP6 LT ISZERO PUSH3 0x4C5 JUMPI DUP2 SWAP1 POP JUMPDEST PUSH3 0x4DD PUSH3 0x4D4 DUP6 PUSH3 0x372 JUMP JUMPDEST DUP4 ADD DUP3 PUSH3 0x46F JUMP JUMPDEST POP POP JUMPDEST POP POP POP JUMP JUMPDEST PUSH0 DUP3 DUP3 SHR SWAP1 POP SWAP3 SWAP2 POP POP JUMP JUMPDEST PUSH0 PUSH3 0x502 PUSH0 NOT DUP5 PUSH1 0x8 MUL PUSH3 0x4E5 JUMP JUMPDEST NOT DUP1 DUP4 AND SWAP2 POP POP SWAP3 SWAP2 POP POP JUMP JUMPDEST PUSH0 PUSH3 0x51C DUP4 DUP4 PUSH3 0x4F1 JUMP JUMPDEST SWAP2 POP DUP3 PUSH1 0x2 MUL DUP3 OR SWAP1 POP SWAP3 SWAP2 POP POP JUMP JUMPDEST PUSH3 0x537 DUP3 PUSH3 0x2F5 JUMP JUMPDEST PUSH8 0xFFFFFFFFFFFFFFFF DUP2 GT ISZERO PUSH3 0x553 JUMPI PUSH3 0x552 PUSH3 0x14A JUMP JUMPDEST JUMPDEST PUSH3 0x55F DUP3 SLOAD PUSH3 0x32C JUMP JUMPDEST PUSH3 0x56C DUP3 DUP3 DUP6 PUSH3 0x495 JUMP JUMPDEST PUSH0 PUSH1 0x20 SWAP1 POP PUSH1 0x1F DUP4 GT PUSH1 0x1 DUP2 EQ PUSH3 0x5A2 JUMPI PUSH0 DUP5 ISZERO PUSH3 0x58D JUMPI DUP3 DUP8 ADD MLOAD SWAP1 POP JUMPDEST PUSH3 0x599 DUP6 DUP3 PUSH3 0x50F JUMP JUMPDEST DUP7 SSTORE POP PUSH3 0x608 JUMP JUMPDEST PUSH1 0x1F NOT DUP5 AND PUSH3 0x5B2 DUP7 PUSH3 0x360 JUMP JUMPDEST PUSH0 JUMPDEST DUP3 DUP2 LT ISZERO PUSH3 0x5DB JUMPI DUP5 DUP10 ADD MLOAD DUP3 SSTORE PUSH1 0x1 DUP3 ADD SWAP2 POP PUSH1 0x20 DUP6 ADD SWAP5 POP PUSH1 0x20 DUP2 ADD SWAP1 POP PUSH3 0x5B4 JUMP JUMPDEST DUP7 DUP4 LT ISZERO PUSH3 0x5FB JUMPI DUP5 DUP10 ADD MLOAD PUSH3 0x5F7 PUSH1 0x1F DUP10 AND DUP3 PUSH3 0x4F1 JUMP JUMPDEST DUP4 SSTORE POP JUMPDEST PUSH1 0x1 PUSH1 0x2 DUP9 MUL ADD DUP9 SSTORE POP POP POP JUMPDEST POP POP POP POP POP POP JUMP JUMPDEST PUSH2 0x221D DUP1 PUSH3 0x61E PUSH0 CODECOPY PUSH0 RETURN INVALID PUSH1 0x80 PUSH1 0x40 MSTORE PUSH1 0x4 CALLDATASIZE LT PUSH2 0x165 JUMPI PUSH0 CALLDATALOAD PUSH1 0xE0 SHR DUP1 PUSH4 0x8DA5CB5B GT PUSH2 0xD0 JUMPI DUP1 PUSH4 0xBB35783B GT PUSH2 0x89 JUMPI DUP1 PUSH4 0xC47F0027 GT PUSH2 0x63 JUMPI DUP1 PUSH4 0xC47F0027 EQ PUSH2 0x4D3 JUMPI DUP1 PUSH4 0xDAEA85C5 EQ PUSH2 0x4FB JUMPI DUP1 PUSH4 0xDD62ED3E EQ PUSH2 0x537 JUMPI DUP1 PUSH4 0xF2D5D56B EQ PUSH2 0x573 JUMPI PUSH2 0x165 JUMP JUMPDEST DUP1 PUSH4 0xBB35783B EQ PUSH2 0x477 JUMPI DUP1 PUSH4 0xBE9A6555 EQ PUSH2 0x49F JUMPI DUP1 PUSH4 0xBF7E214F EQ PUSH2 0x4A9 JUMPI PUSH2 0x165 JUMP JUMPDEST DUP1 PUSH4 0x8DA5CB5B EQ PUSH2 0x36F JUMPI DUP1 PUSH4 0x95D89B41 EQ PUSH2 0x399 JUMPI DUP1 PUSH4 0x9DC29FAC EQ PUSH2 0x3C3 JUMPI DUP1 PUSH4 0xA0712D68 EQ PUSH2 0x3EB JUMPI DUP1 PUSH4 0xA9059CBB EQ PUSH2 0x413 JUMPI DUP1 PUSH4 0xB753A98C EQ PUSH2 0x44F JUMPI PUSH2 0x165 JUMP JUMPDEST DUP1 PUSH4 0x313CE567 GT PUSH2 0x122 JUMPI DUP1 PUSH4 0x313CE567 EQ PUSH2 0x267 JUMPI DUP1 PUSH4 0x40C10F19 EQ PUSH2 0x291 JUMPI DUP1 PUSH4 0x42966C68 EQ PUSH2 0x2B9 JUMPI DUP1 PUSH4 0x70A08231 EQ PUSH2 0x2E1 JUMPI DUP1 PUSH4 0x75F12B21 EQ PUSH2 0x31D JUMPI DUP1 PUSH4 0x7A9E5E4B EQ PUSH2 0x347 JUMPI PUSH2 0x165 JUMP JUMPDEST DUP1 PUSH4 0x6FDDE03 EQ PUSH2 0x169 JUMPI DUP1 PUSH4 0x7DA68F5 EQ PUSH2 0x193 JUMPI DUP1 PUSH4 0x95EA7B3 EQ PUSH2 0x19D JUMPI DUP1 PUSH4 0x13AF4035 EQ PUSH2 0x1D9 JUMPI DUP1 PUSH4 0x18160DDD EQ PUSH2 0x201 JUMPI DUP1 PUSH4 0x23B872DD EQ PUSH2 0x22B JUMPI JUMPDEST PUSH0 DUP1 REVERT JUMPDEST CALLVALUE DUP1 ISZERO PUSH2 0x174 JUMPI PUSH0 DUP1 REVERT JUMPDEST POP PUSH2 0x17D PUSH2 0x59B JUMP JUMPDEST PUSH1 0x40 MLOAD PUSH2 0x18A SWAP2 SWAP1 PUSH2 0x17E4 JUMP JUMPDEST PUSH1 0x40 MLOAD DUP1 SWAP2 SUB SWAP1 RETURN JUMPDEST PUSH2 0x19B PUSH2 0x627 JUMP JUMPDEST STOP JUMPDEST CALLVALUE DUP1 ISZERO PUSH2 0x1A8 JUMPI PUSH0 DUP1 REVERT JUMPDEST POP PUSH2 0x1C3 PUSH1 0x4 DUP1 CALLDATASIZE SUB DUP2 ADD SWAP1 PUSH2 0x1BE SWAP2 SWAP1 PUSH2 0x18A2 JUMP JUMPDEST PUSH2 0x6FD JUMP JUMPDEST PUSH1 0x40 MLOAD PUSH2 0x1D0 SWAP2 SWAP1 PUSH2 0x18FA JUMP JUMPDEST PUSH1 0x40 MLOAD DUP1 SWAP2 SUB SWAP1 RETURN JUMPDEST CALLVALUE DUP1 ISZERO PUSH2 0x1E4 JUMPI PUSH0 DUP1 REVERT JUMPDEST POP PUSH2 0x1FF PUSH1 0x4 DUP1 CALLDATASIZE SUB DUP2 ADD SWAP1 PUSH2 0x1FA SWAP2 SWAP1 PUSH2 0x1913 JUMP JUMPDEST PUSH2 0x729 JUMP JUMPDEST STOP JUMPDEST CALLVALUE DUP1 ISZERO PUSH2 0x20C JUMPI PUSH0 DUP1 REVERT JUMPDEST POP PUSH2 0x215 PUSH2 0x805 JUMP JUMPDEST PUSH1 0x40 MLOAD PUSH2 0x222 SWAP2 SWAP1 PUSH2 0x194D JUMP JUMPDEST PUSH1 0x40 MLOAD DUP1 SWAP2 SUB SWAP1 RETURN JUMPDEST CALLVALUE DUP1 ISZERO PUSH2 0x236 JUMPI PUSH0 DUP1 REVERT JUMPDEST POP PUSH2 0x251 PUSH1 0x4 DUP1 CALLDATASIZE SUB DUP2 ADD SWAP1 PUSH2 0x24C SWAP2 SWAP1 PUSH2 0x1966 JUMP JUMPDEST PUSH2 0x80D JUMP JUMPDEST PUSH1 0x40 MLOAD PUSH2 0x25E SWAP2 SWAP1 PUSH2 0x18FA JUMP JUMPDEST PUSH1 0x40 MLOAD DUP1 SWAP2 SUB SWAP1 RETURN JUMPDEST CALLVALUE DUP1 ISZERO PUSH2 0x272 JUMPI PUSH0 DUP1 REVERT JUMPDEST POP PUSH2 0x27B PUSH2 0xB7F JUMP JUMPDEST PUSH1 0x40 MLOAD PUSH2 0x288 SWAP2 SWAP1 PUSH2 0x194D JUMP JUMPDEST PUSH1 0x40 MLOAD DUP1 SWAP2 SUB SWAP1 RETURN JUMPDEST CALLVALUE DUP1 ISZERO PUSH2 0x29C JUMPI PUSH0 DUP1 REVERT JUMPDEST POP PUSH2 0x2B7 PUSH1 0x4 DUP1 CALLDATASIZE SUB DUP2 ADD SWAP1 PUSH2 0x2B2 SWAP2 SWAP1 PUSH2 0x18A2 JUMP JUMPDEST PUSH2 0xB85 JUMP JUMPDEST STOP JUMPDEST CALLVALUE DUP1 ISZERO PUSH2 0x2C4 JUMPI PUSH0 DUP1 REVERT JUMPDEST POP PUSH2 0x2DF PUSH1 0x4 DUP1 CALLDATASIZE SUB DUP2 ADD SWAP1 PUSH2 0x2DA SWAP2 SWAP1 PUSH2 0x19B6 JUMP JUMPDEST PUSH2 0xCBD JUMP JUMPDEST STOP JUMPDEST CALLVALUE DUP1 ISZERO PUSH2 0x2EC JUMPI PUSH0 DUP1 REVERT JUMPDEST POP PUSH2 0x307 PUSH1 0x4 DUP1 CALLDATASIZE SUB DUP2 ADD SWAP1 PUSH2 0x302 SWAP2 SWAP1 PUSH2 0x1913 JUMP JUMPDEST PUSH2 0xCCA JUMP JUMPDEST PUSH1 0x40 MLOAD PUSH2 0x314 SWAP2 SWAP1 PUSH2 0x194D JUMP JUMPDEST PUSH1 0x40 MLOAD DUP1 SWAP2 SUB SWAP1 RETURN JUMPDEST CALLVALUE DUP1 ISZERO PUSH2 0x328 JUMPI PUSH0 DUP1 REVERT JUMPDEST POP PUSH2 0x331 PUSH2 0xD10 JUMP JUMPDEST PUSH1 0x40 MLOAD PUSH2 0x33E SWAP2 SWAP1 PUSH2 0x18FA JUMP JUMPDEST PUSH1 0x40 MLOAD DUP1 SWAP2 SUB SWAP1 RETURN JUMPDEST CALLVALUE DUP1 ISZERO PUSH2 0x352 JUMPI PUSH0 DUP1 REVERT JUMPDEST POP PUSH2 0x36D PUSH1 0x4 DUP1 CALLDATASIZE SUB DUP2 ADD SWAP1 PUSH2 0x368 SWAP2 SWAP1 PUSH2 0x1A1C JUMP JUMPDEST PUSH2 0xD23 JUMP JUMPDEST STOP JUMPDEST CALLVALUE DUP1 ISZERO PUSH2 0x37A JUMPI PUSH0 DUP1 REVERT JUMPDEST POP PUSH2 0x383 PUSH2 0xDFF JUMP JUMPDEST PUSH1 0x40 MLOAD PUSH2 0x390 SWAP2 SWAP1 PUSH2 0x1A56 JUMP JUMPDEST PUSH1 0x40 MLOAD DUP1 SWAP2 SUB SWAP1 RETURN JUMPDEST CALLVALUE DUP1 ISZERO PUSH2 0x3A4 JUMPI PUSH0 DUP1 REVERT JUMPDEST POP PUSH2 0x3AD PUSH2 0xE24 JUMP JUMPDEST PUSH1 0x40 MLOAD PUSH2 0x3BA SWAP2 SWAP1 PUSH2 0x17E4 JUMP JUMPDEST PUSH1 0x40 MLOAD DUP1 SWAP2 SUB SWAP1 RETURN JUMPDEST CALLVALUE DUP1 ISZERO PUSH2 0x3CE JUMPI PUSH0 DUP1 REVERT JUMPDEST POP PUSH2 0x3E9 PUSH1 0x4 DUP1 CALLDATASIZE SUB DUP2 ADD SWAP1 PUSH2 0x3E4 SWAP2 SWAP1 PUSH2 0x18A2 JUMP JUMPDEST PUSH2 0xEB0 JUMP JUMPDEST STOP JUMPDEST CALLVALUE DUP1 ISZERO PUSH2 0x3F6 JUMPI PUSH0 DUP1 REVERT JUMPDEST POP PUSH2 0x411 PUSH1 0x4 DUP1 CALLDATASIZE SUB DUP2 ADD SWAP1 PUSH2 0x40C SWAP2 SWAP1 PUSH2 0x19B6 JUMP JUMPDEST PUSH2 0x11C0 JUMP JUMPDEST STOP JUMPDEST CALLVALUE DUP1 ISZERO PUSH2 0x41E JUMPI PUSH0 DUP1 REVERT JUMPDEST POP PUSH2 0x439 PUSH1 0x4 DUP1 CALLDATASIZE SUB DUP2 ADD SWAP1 PUSH2 0x434 SWAP2 SWAP1 PUSH2 0x18A2 JUMP JUMPDEST PUSH2 0x11CD JUMP JUMPDEST PUSH1 0x40 MLOAD PUSH2 0x446 SWAP2 SWAP1 PUSH2 0x18FA JUMP JUMPDEST PUSH1 0x40 MLOAD DUP1 SWAP2 SUB SWAP1 RETURN JUMPDEST CALLVALUE DUP1 ISZERO PUSH2 0x45A JUMPI PUSH0 DUP1 REVERT JUMPDEST POP PUSH2 0x475 PUSH1 0x4 DUP1 CALLDATASIZE SUB DUP2 ADD SWAP1 PUSH2 0x470 SWAP2 SWAP1 PUSH2 0x18A2 JUMP JUMPDEST PUSH2 0x11E1 JUMP JUMPDEST STOP JUMPDEST CALLVALUE DUP1 ISZERO PUSH2 0x482 JUMPI PUSH0 DUP1 REVERT JUMPDEST POP PUSH2 0x49D PUSH1 0x4 DUP1 CALLDATASIZE SUB DUP2 ADD SWAP1 PUSH2 0x498 SWAP2 SWAP1 PUSH2 0x1966 JUMP JUMPDEST PUSH2 0x11F1 JUMP JUMPDEST STOP JUMPDEST PUSH2 0x4A7 PUSH2 0x1202 JUMP JUMPDEST STOP JUMPDEST CALLVALUE DUP1 ISZERO PUSH2 0x4B4 JUMPI PUSH0 DUP1 REVERT JUMPDEST POP PUSH2 0x4BD PUSH2 0x12D7 JUMP JUMPDEST PUSH1 0x40 MLOAD PUSH2 0x4CA SWAP2 SWAP1 PUSH2 0x1ACA JUMP JUMPDEST PUSH1 0x40 MLOAD DUP1 SWAP2 SUB SWAP1 RETURN JUMPDEST CALLVALUE DUP1 ISZERO PUSH2 0x4DE JUMPI PUSH0 DUP1 REVERT JUMPDEST POP PUSH2 0x4F9 PUSH1 0x4 DUP1 CALLDATASIZE SUB DUP2 ADD SWAP1 PUSH2 0x4F4 SWAP2 SWAP1 PUSH2 0x1C0F JUMP JUMPDEST PUSH2 0x12FC JUMP JUMPDEST STOP JUMPDEST CALLVALUE DUP1 ISZERO PUSH2 0x506 JUMPI PUSH0 DUP1 REVERT JUMPDEST POP PUSH2 0x521 PUSH1 0x4 DUP1 CALLDATASIZE SUB DUP2 ADD SWAP1 PUSH2 0x51C SWAP2 SWAP1 PUSH2 0x1913 JUMP JUMPDEST PUSH2 0x1344 JUMP JUMPDEST PUSH1 0x40 MLOAD PUSH2 0x52E SWAP2 SWAP1 PUSH2 0x18FA JUMP JUMPDEST PUSH1 0x40 MLOAD DUP1 SWAP2 SUB SWAP1 RETURN JUMPDEST CALLVALUE DUP1 ISZERO PUSH2 0x542 JUMPI PUSH0 DUP1 REVERT JUMPDEST POP PUSH2 0x55D PUSH1 0x4 DUP1 CALLDATASIZE SUB DUP2 ADD SWAP1 PUSH2 0x558 SWAP2 SWAP1 PUSH2 0x1C56 JUMP JUMPDEST PUSH2 0x138F JUMP JUMPDEST PUSH1 0x40 MLOAD PUSH2 0x56A SWAP2 SWAP1 PUSH2 0x194D JUMP JUMPDEST PUSH1 0x40 MLOAD DUP1 SWAP2 SUB SWAP1 RETURN JUMPDEST CALLVALUE DUP1 ISZERO PUSH2 0x57E JUMPI PUSH0 DUP1 REVERT JUMPDEST POP PUSH2 0x599 PUSH1 0x4 DUP1 CALLDATASIZE SUB DUP2 ADD SWAP1 PUSH2 0x594 SWAP2 SWAP1 PUSH2 0x18A2 JUMP JUMPDEST PUSH2 0x1411 JUMP JUMPDEST STOP JUMPDEST PUSH1 0x7 DUP1 SLOAD PUSH2 0x5A8 SWAP1 PUSH2 0x1CC1 JUMP JUMPDEST DUP1 PUSH1 0x1F ADD PUSH1 0x20 DUP1 SWAP2 DIV MUL PUSH1 0x20 ADD PUSH1 0x40 MLOAD SWAP1 DUP2 ADD PUSH1 0x40 MSTORE DUP1 SWAP3 SWAP2 SWAP1 DUP2 DUP2 MSTORE PUSH1 0x20 ADD DUP3 DUP1 SLOAD PUSH2 0x5D4 SWAP1 PUSH2 0x1CC1 JUMP JUMPDEST DUP1 ISZERO PUSH2 0x61F JUMPI DUP1 PUSH1 0x1F LT PUSH2 0x5F6 JUMPI PUSH2 0x100 DUP1 DUP4 SLOAD DIV MUL DUP4 MSTORE SWAP2 PUSH1 0x20 ADD SWAP2 PUSH2 0x61F JUMP JUMPDEST DUP3 ADD SWAP2 SWAP1 PUSH0 MSTORE PUSH1 0x20 PUSH0 KECCAK256 SWAP1 JUMPDEST DUP2 SLOAD DUP2 MSTORE SWAP1 PUSH1 0x1 ADD SWAP1 PUSH1 0x20 ADD DUP1 DUP4 GT PUSH2 0x602 JUMPI DUP3 SWAP1 SUB PUSH1 0x1F AND DUP3 ADD SWAP2 JUMPDEST POP POP POP POP POP DUP2 JUMP JUMPDEST PUSH2 0x654 CALLER PUSH0 CALLDATALOAD PUSH32 0xFFFFFFFF00000000000000000000000000000000000000000000000000000000 AND PUSH2 0x1421 JUMP JUMPDEST PUSH2 0x65C JUMPI PUSH0 DUP1 REVERT JUMPDEST PUSH0 DUP1 PUSH1 0x4 CALLDATALOAD SWAP2 POP PUSH1 0x24 CALLDATALOAD SWAP1 POP DUP1 DUP3 CALLER PUSH20 0xFFFFFFFFFFFFFFFFFFFFFFFFFFFFFFFFFFFFFFFF AND PUSH0 CALLDATALOAD PUSH32 0xFFFFFFFF00000000000000000000000000000000000000000000000000000000 AND PUSH28 0xFFFFFFFFFFFFFFFFFFFFFFFFFFFFFFFFFFFFFFFFFFFFFFFFFFFFFFFF NOT AND CALLVALUE PUSH0 CALLDATASIZE PUSH1 0x40 MLOAD PUSH2 0x6D6 SWAP4 SWAP3 SWAP2 SWAP1 PUSH2 0x1D2D JUMP JUMPDEST PUSH1 0x40 MLOAD DUP1 SWAP2 SUB SWAP1 LOG4 PUSH1 0x1 PUSH1 0x4 PUSH1 0x14 PUSH2 0x100 EXP DUP2 SLOAD DUP2 PUSH1 0xFF MUL NOT AND SWAP1 DUP4 ISZERO ISZERO MUL OR SWAP1 SSTORE POP POP POP JUMP JUMPDEST PUSH0 PUSH1 0x4 PUSH1 0x14 SWAP1 SLOAD SWAP1 PUSH2 0x100 EXP SWAP1 DIV PUSH1 0xFF AND ISZERO PUSH2 0x717 JUMPI PUSH0 DUP1 REVERT JUMPDEST PUSH2 0x721 DUP4 DUP4 PUSH2 0x15BD JUMP JUMPDEST SWAP1 POP SWAP3 SWAP2 POP POP JUMP JUMPDEST PUSH2 0x756 CALLER PUSH0 CALLDATALOAD PUSH32 0xFFFFFFFF00000000000000000000000000000000000000000000000000000000 AND PUSH2 0x1421 JUMP JUMPDEST PUSH2 0x75E JUMPI PUSH0 DUP1 REVERT JUMPDEST DUP1 PUSH1 0x4 PUSH0 PUSH2 0x100 EXP DUP2 SLOAD DUP2 PUSH20 0xFFFFFFFFFFFFFFFFFFFFFFFFFFFFFFFFFFFFFFFF MUL NOT AND SWAP1 DUP4 PUSH20 0xFFFFFFFFFFFFFFFFFFFFFFFFFFFFFFFFFFFFFFFF AND MUL OR SWAP1 SSTORE POP PUSH1 0x4 PUSH0 SWAP1 SLOAD SWAP1 PUSH2 0x100 EXP SWAP1 DIV PUSH20 0xFFFFFFFFFFFFFFFFFFFFFFFFFFFFFFFFFFFFFFFF AND PUSH20 0xFFFFFFFFFFFFFFFFFFFFFFFFFFFFFFFFFFFFFFFF AND PUSH32 0xCE241D7CA1F669FEE44B6FC00B8EBA2DF3BB514EED0F6F668F8F89096E81ED94 PUSH1 0x40 MLOAD PUSH1 0x40 MLOAD DUP1 SWAP2 SUB SWAP1 LOG2 POP JUMP JUMPDEST PUSH0 DUP1 SLOAD SWAP1 POP SWAP1 JUMP JUMPDEST PUSH0 PUSH1 0x4 PUSH1 0x14 SWAP1 SLOAD SWAP1 PUSH2 0x100 EXP SWAP1 DIV PUSH1 0xFF AND ISZERO PUSH2 0x827 JUMPI PUSH0 DUP1 REVERT JUMPDEST CALLER PUSH20 0xFFFFFFFFFFFFFFFFFFFFFFFFFFFFFFFFFFFFFFFF AND DUP5 PUSH20 0xFFFFFFFFFFFFFFFFFFFFFFFFFFFFFFFFFFFFFFFF AND EQ ISZERO DUP1 ISZERO PUSH2 0x8FB JUMPI POP PUSH32 0xFFFFFFFFFFFFFFFFFFFFFFFFFFFFFFFFFFFFFFFFFFFFFFFFFFFFFFFFFFFFFFFF PUSH1 0x2 PUSH0 DUP7 PUSH20 0xFFFFFFFFFFFFFFFFFFFFFFFFFFFFFFFFFFFFFFFF AND PUSH20 0xFFFFFFFFFFFFFFFFFFFFFFFFFFFFFFFFFFFFFFFF AND DUP2 MSTORE PUSH1 0x20 ADD SWAP1 DUP2 MSTORE PUSH1 0x20 ADD PUSH0 KECCAK256 PUSH0 CALLER PUSH20 0xFFFFFFFFFFFFFFFFFFFFFFFFFFFFFFFFFFFFFFFF AND PUSH20 0xFFFFFFFFFFFFFFFFFFFFFFFFFFFFFFFFFFFFFFFF AND DUP2 MSTORE PUSH1 0x20 ADD SWAP1 DUP2 MSTORE PUSH1 0x20 ADD PUSH0 KECCAK256 SLOAD EQ ISZERO JUMPDEST ISZERO PUSH2 0x9FF JUMPI PUSH2 0x982 PUSH1 0x2 PUSH0 DUP7 PUSH20 0xFFFFFFFFFFFFFFFFFFFFFFFFFFFFFFFFFFFFFFFF AND PUSH20 0xFFFFFFFFFFFFFFFFFFFFFFFFFFFFFFFFFFFFFFFF AND DUP2 MSTORE PUSH1 0x20 ADD SWAP1 DUP2 MSTORE PUSH1 0x20 ADD PUSH0 KECCAK256 PUSH0 CALLER PUSH20 0xFFFFFFFFFFFFFFFFFFFFFFFFFFFFFFFFFFFFFFFF AND PUSH20 0xFFFFFFFFFFFFFFFFFFFFFFFFFFFFFFFFFFFFFFFF AND DUP2 MSTORE PUSH1 0x20 ADD SWAP1 DUP2 MSTORE PUSH1 0x20 ADD PUSH0 KECCAK256 SLOAD DUP4 PUSH2 0x16AA JUMP JUMPDEST PUSH1 0x2 PUSH0 DUP7 PUSH20 0xFFFFFFFFFFFFFFFFFFFFFFFFFFFFFFFFFFFFFFFF AND PUSH20 0xFFFFFFFFFFFFFFFFFFFFFFFFFFFFFFFFFFFFFFFF AND DUP2 MSTORE PUSH1 0x20 ADD SWAP1 DUP2 MSTORE PUSH1 0x20 ADD PUSH0 KECCAK256 PUSH0 CALLER PUSH20 0xFFFFFFFFFFFFFFFFFFFFFFFFFFFFFFFFFFFFFFFF AND PUSH20 0xFFFFFFFFFFFFFFFFFFFFFFFFFFFFFFFFFFFFFFFF AND DUP2 MSTORE PUSH1 0x20 ADD SWAP1 DUP2 MSTORE PUSH1 0x20 ADD PUSH0 KECCAK256 DUP2 SWAP1 SSTORE POP JUMPDEST PUSH2 0xA46 PUSH1 0x1 PUSH0 DUP7 PUSH20 0xFFFFFFFFFFFFFFFFFFFFFFFFFFFFFFFFFFFFFFFF AND PUSH20 0xFFFFFFFFFFFFFFFFFFFFFFFFFFFFFFFFFFFFFFFF AND DUP2 MSTORE PUSH1 0x20 ADD SWAP1 DUP2 MSTORE PUSH1 0x20 ADD PUSH0 KECCAK256 SLOAD DUP4 PUSH2 0x16AA JUMP JUMPDEST PUSH1 0x1 PUSH0 DUP7 PUSH20 0xFFFFFFFFFFFFFFFFFFFFFFFFFFFFFFFFFFFFFFFF AND PUSH20 0xFFFFFFFFFFFFFFFFFFFFFFFFFFFFFFFFFFFFFFFF AND DUP2 MSTORE PUSH1 0x20 ADD SWAP1 DUP2 MSTORE PUSH1 0x20 ADD PUSH0 KECCAK256 DUP2 SWAP1 SSTORE POP PUSH2 0xACE PUSH1 0x1 PUSH0 DUP6 PUSH20 0xFFFFFFFFFFFFFFFFFFFFFFFFFFFFFFFFFFFFFFFF AND PUSH20 0xFFFFFFFFFFFFFFFFFFFFFFFFFFFFFFFFFFFFFFFF AND DUP2 MSTORE PUSH1 0x20 ADD SWAP1 DUP2 MSTORE PUSH1 0x20 ADD PUSH0 KECCAK256 SLOAD DUP4 PUSH2 0x1702 JUMP JUMPDEST PUSH1 0x1 PUSH0 DUP6 PUSH20 0xFFFFFFFFFFFFFFFFFFFFFFFFFFFFFFFFFFFFFFFF AND PUSH20 0xFFFFFFFFFFFFFFFFFFFFFFFFFFFFFFFFFFFFFFFF AND DUP2 MSTORE PUSH1 0x20 ADD SWAP1 DUP2 MSTORE PUSH1 0x20 ADD PUSH0 KECCAK256 DUP2 SWAP1 SSTORE POP DUP3 PUSH20 0xFFFFFFFFFFFFFFFFFFFFFFFFFFFFFFFFFFFFFFFF AND DUP5 PUSH20 0xFFFFFFFFFFFFFFFFFFFFFFFFFFFFFFFFFFFFFFFF AND PUSH32 0xDDF252AD1BE2C89B69C2B068FC378DAA952BA7F163C4A11628F55A4DF523B3EF DUP5 PUSH1 0x40 MLOAD PUSH2 0xB6C SWAP2 SWAP1 PUSH2 0x194D JUMP JUMPDEST PUSH1 0x40 MLOAD DUP1 SWAP2 SUB SWAP1 LOG3 PUSH1 0x1 SWAP1 POP SWAP4 SWAP3 POP POP POP JUMP JUMPDEST PUSH1 0x6 SLOAD DUP2 JUMP JUMPDEST PUSH2 0xBB2 CALLER PUSH0 CALLDATALOAD PUSH32 0xFFFFFFFF00000000000000000000000000000000000000000000000000000000 AND PUSH2 0x1421 JUMP JUMPDEST PUSH2 0xBBA JUMPI PUSH0 DUP1 REVERT JUMPDEST PUSH1 0x4 PUSH1 0x14 SWAP1 SLOAD SWAP1 PUSH2 0x100 EXP SWAP1 DIV PUSH1 0xFF AND ISZERO PUSH2 0xBD3 JUMPI PUSH0 DUP1 REVERT JUMPDEST PUSH2 0xC1A PUSH1 0x1 PUSH0 DUP5 PUSH20 0xFFFFFFFFFFFFFFFFFFFFFFFFFFFFFFFFFFFFFFFF AND PUSH20 0xFFFFFFFFFFFFFFFFFFFFFFFFFFFFFFFFFFFFFFFF AND DUP2 MSTORE PUSH1 0x20 ADD SWAP1 DUP2 MSTORE PUSH1 0x20 ADD PUSH0 KECCAK256 SLOAD DUP3 PUSH2 0x1702 JUMP JUMPDEST PUSH1 0x1 PUSH0 DUP5 PUSH20 0xFFFFFFFFFFFFFFFFFFFFFFFFFFFFFFFFFFFFFFFF AND PUSH20 0xFFFFFFFFFFFFFFFFFFFFFFFFFFFFFFFFFFFFFFFF AND DUP2 MSTORE PUSH1 0x20 ADD SWAP1 DUP2 MSTORE PUSH1 0x20 ADD PUSH0 KECCAK256 DUP2 SWAP1 SSTORE POP PUSH2 0xC66 PUSH0 SLOAD DUP3 PUSH2 0x1702 JUMP JUMPDEST PUSH0 DUP2 SWAP1 SSTORE POP DUP2 PUSH20 0xFFFFFFFFFFFFFFFFFFFFFFFFFFFFFFFFFFFFFFFF AND PUSH32 0xF6798A560793A54C3BCFE86A93CDE1E73087D944C0EA20544137D4121396885 DUP3 PUSH1 0x40 MLOAD PUSH2 0xCB1 SWAP2 SWAP1 PUSH2 0x194D JUMP JUMPDEST PUSH1 0x40 MLOAD DUP1 SWAP2 SUB SWAP1 LOG2 POP POP JUMP JUMPDEST PUSH2 0xCC7 CALLER DUP3 PUSH2 0xEB0 JUMP JUMPDEST POP JUMP JUMPDEST PUSH0 PUSH1 0x1 PUSH0 DUP4 PUSH20 0xFFFFFFFFFFFFFFFFFFFFFFFFFFFFFFFFFFFFFFFF AND PUSH20 0xFFFFFFFFFFFFFFFFFFFFFFFFFFFFFFFFFFFFFFFF AND DUP2 MSTORE PUSH1 0x20 ADD SWAP1 DUP2 MSTORE PUSH1 0x20 ADD PUSH0 KECCAK256 SLOAD SWAP1 POP SWAP2 SWAP1 POP JUMP JUMPDEST PUSH1 0x4 PUSH1 0x14 SWAP1 SLOAD SWAP1 PUSH2 0x100 EXP SWAP1 DIV PUSH1 0xFF AND DUP2 JUMP JUMPDEST PUSH2 0xD50 CALLER PUSH0 CALLDATALOAD PUSH32 0xFFFFFFFF00000000000000000000000000000000000000000000000000000000 AND PUSH2 0x1421 JUMP JUMPDEST PUSH2 0xD58 JUMPI PUSH0 DUP1 REVERT JUMPDEST DUP1 PUSH1 0x3 PUSH0 PUSH2 0x100 EXP DUP2 SLOAD DUP2 PUSH20 0xFFFFFFFFFFFFFFFFFFFFFFFFFFFFFFFFFFFFFFFF MUL NOT AND SWAP1 DUP4 PUSH20 0xFFFFFFFFFFFFFFFFFFFFFFFFFFFFFFFFFFFFFFFF AND MUL OR SWAP1 SSTORE POP PUSH1 0x3 PUSH0 SWAP1 SLOAD SWAP1 PUSH2 0x100 EXP SWAP1 DIV PUSH20 0xFFFFFFFFFFFFFFFFFFFFFFFFFFFFFFFFFFFFFFFF AND PUSH20 0xFFFFFFFFFFFFFFFFFFFFFFFFFFFFFFFFFFFFFFFF AND PUSH32 0x1ABEBEA81BFA2637F28358C371278FB15EDE7EA8DD28D2E03B112FF6D936ADA4 PUSH1 0x40 MLOAD PUSH1 0x40 MLOAD DUP1 SWAP2 SUB SWAP1 LOG2 POP JUMP JUMPDEST PUSH1 0x4 PUSH0 SWAP1 SLOAD SWAP1 PUSH2 0x100 EXP SWAP1 DIV PUSH20 0xFFFFFFFFFFFFFFFFFFFFFFFFFFFFFFFFFFFFFFFF AND DUP2 JUMP JUMPDEST PUSH1 0x5 DUP1 SLOAD PUSH2 0xE31 SWAP1 PUSH2 0x1CC1 JUMP JUMPDEST DUP1 PUSH1 0x1F ADD PUSH1 0x20 DUP1 SWAP2 DIV MUL PUSH1 0x20 ADD PUSH1 0x40 MLOAD SWAP1 DUP2 ADD PUSH1 0x40 MSTORE DUP1 SWAP3 SWAP2 SWAP1 DUP2 DUP2 MSTORE PUSH1 0x20 ADD DUP3 DUP1 SLOAD PUSH2 0xE5D SWAP1 PUSH2 0x1CC1 JUMP JUMPDEST DUP1 ISZERO PUSH2 0xEA8 JUMPI DUP1 PUSH1 0x1F LT PUSH2 0xE7F JUMPI PUSH2 0x100 DUP1 DUP4 SLOAD DIV MUL DUP4 MSTORE SWAP2 PUSH1 0x20 ADD SWAP2 PUSH2 0xEA8 JUMP JUMPDEST DUP3 ADD SWAP2 SWAP1 PUSH0 MSTORE PUSH1 0x20 PUSH0 KECCAK256 SWAP1 JUMPDEST DUP2 SLOAD DUP2 MSTORE SWAP1 PUSH1 0x1 ADD SWAP1 PUSH1 0x20 ADD DUP1 DUP4 GT PUSH2 0xE8B JUMPI DUP3 SWAP1 SUB PUSH1 0x1F AND DUP3 ADD SWAP2 JUMPDEST POP POP POP POP POP DUP2 JUMP JUMPDEST PUSH2 0xEDD CALLER PUSH0 CALLDATALOAD PUSH32 0xFFFFFFFF00000000000000000000000000000000000000000000000000000000 AND PUSH2 0x1421 JUMP JUMPDEST PUSH2 0xEE5 JUMPI PUSH0 DUP1 REVERT JUMPDEST PUSH1 0x4 PUSH1 0x14 SWAP1 SLOAD SWAP1 PUSH2 0x100 EXP SWAP1 DIV PUSH1 0xFF AND ISZERO PUSH2 0xEFE JUMPI PUSH0 DUP1 REVERT JUMPDEST CALLER PUSH20 0xFFFFFFFFFFFFFFFFFFFFFFFFFFFFFFFFFFFFFFFF AND DUP3 PUSH20 0xFFFFFFFFFFFFFFFFFFFFFFFFFFFFFFFFFFFFFFFF AND EQ ISZERO DUP1 ISZERO PUSH2 0xFD2 JUMPI POP PUSH32 0xFFFFFFFFFFFFFFFFFFFFFFFFFFFFFFFFFFFFFFFFFFFFFFFFFFFFFFFFFFFFFFFF PUSH1 0x2 PUSH0 DUP5 PUSH20 0xFFFFFFFFFFFFFFFFFFFFFFFFFFFFFFFFFFFFFFFF AND PUSH20 0xFFFFFFFFFFFFFFFFFFFFFFFFFFFFFFFFFFFFFFFF AND DUP2 MSTORE PUSH1 0x20 ADD SWAP1 DUP2 MSTORE PUSH1 0x20 ADD PUSH0 KECCAK256 PUSH0 CALLER PUSH20 0xFFFFFFFFFFFFFFFFFFFFFFFFFFFFFFFFFFFFFFFF AND PUSH20 0xFFFFFFFFFFFFFFFFFFFFFFFFFFFFFFFFFFFFFFFF AND DUP2 MSTORE PUSH1 0x20 ADD SWAP1 DUP2 MSTORE PUSH1 0x20 ADD PUSH0 KECCAK256 SLOAD EQ ISZERO JUMPDEST ISZERO PUSH2 0x10D6 JUMPI PUSH2 0x1059 PUSH1 0x2 PUSH0 DUP5 PUSH20 0xFFFFFFFFFFFFFFFFFFFFFFFFFFFFFFFFFFFFFFFF AND PUSH20 0xFFFFFFFFFFFFFFFFFFFFFFFFFFFFFFFFFFFFFFFF AND DUP2 MSTORE PUSH1 0x20 ADD SWAP1 DUP2 MSTORE PUSH1 0x20 ADD PUSH0 KECCAK256 PUSH0 CALLER PUSH20 0xFFFFFFFFFFFFFFFFFFFFFFFFFFFFFFFFFFFFFFFF AND PUSH20 0xFFFFFFFFFFFFFFFFFFFFFFFFFFFFFFFFFFFFFFFF AND DUP2 MSTORE PUSH1 0x20 ADD SWAP1 DUP2 MSTORE PUSH1 0x20 ADD PUSH0 KECCAK256 SLOAD DUP3 PUSH2 0x16AA JUMP JUMPDEST PUSH1 0x2 PUSH0 DUP5 PUSH20 0xFFFFFFFFFFFFFFFFFFFFFFFFFFFFFFFFFFFFFFFF AND PUSH20 0xFFFFFFFFFFFFFFFFFFFFFFFFFFFFFFFFFFFFFFFF AND DUP2 MSTORE PUSH1 0x20 ADD SWAP1 DUP2 MSTORE PUSH1 0x20 ADD PUSH0 KECCAK256 PUSH0 CALLER PUSH20 0xFFFFFFFFFFFFFFFFFFFFFFFFFFFFFFFFFFFFFFFF AND PUSH20 0xFFFFFFFFFFFFFFFFFFFFFFFFFFFFFFFFFFFFFFFF AND DUP2 MSTORE PUSH1 0x20 ADD SWAP1 DUP2 MSTORE PUSH1 0x20 ADD PUSH0 KECCAK256 DUP2 SWAP1 SSTORE POP JUMPDEST PUSH2 0x111D PUSH1 0x1 PUSH0 DUP5 PUSH20 0xFFFFFFFFFFFFFFFFFFFFFFFFFFFFFFFFFFFFFFFF AND PUSH20 0xFFFFFFFFFFFFFFFFFFFFFFFFFFFFFFFFFFFFFFFF AND DUP2 MSTORE PUSH1 0x20 ADD SWAP1 DUP2 MSTORE PUSH1 0x20 ADD PUSH0 KECCAK256 SLOAD DUP3 PUSH2 0x16AA JUMP JUMPDEST PUSH1 0x1 PUSH0 DUP5 PUSH20 0xFFFFFFFFFFFFFFFFFFFFFFFFFFFFFFFFFFFFFFFF AND PUSH20 0xFFFFFFFFFFFFFFFFFFFFFFFFFFFFFFFFFFFFFFFF AND DUP2 MSTORE PUSH1 0x20 ADD SWAP1 DUP2 MSTORE PUSH1 0x20 ADD PUSH0 KECCAK256 DUP2 SWAP1 SSTORE POP PUSH2 0x1169 PUSH0 SLOAD DUP3 PUSH2 0x16AA JUMP JUMPDEST PUSH0 DUP2 SWAP1 SSTORE POP DUP2 PUSH20 0xFFFFFFFFFFFFFFFFFFFFFFFFFFFFFFFFFFFFFFFF AND PUSH32 0xCC16F5DBB4873280815C1EE09DBD06736CFFCC184412CF7A71A0FDB75D397CA5 DUP3 PUSH1 0x40 MLOAD PUSH2 0x11B4 SWAP2 SWAP1 PUSH2 0x194D JUMP JUMPDEST PUSH1 0x40 MLOAD DUP1 SWAP2 SUB SWAP1 LOG2 POP POP JUMP JUMPDEST PUSH2 0x11CA CALLER DUP3 PUSH2 0xB85 JUMP JUMPDEST POP JUMP JUMPDEST PUSH0 PUSH2 0x11D9 CALLER DUP5 DUP5 PUSH2 0x80D JUMP JUMPDEST SWAP1 POP SWAP3 SWAP2 POP POP JUMP JUMPDEST PUSH2 0x11EC CALLER DUP4 DUP4 PUSH2 0x80D JUMP JUMPDEST POP POP POP JUMP JUMPDEST PUSH2 0x11FC DUP4 DUP4 DUP4 PUSH2 0x80D JUMP JUMPDEST POP POP POP POP JUMP JUMPDEST PUSH2 0x122F CALLER PUSH0 CALLDATALOAD PUSH32 0xFFFFFFFF00000000000000000000000000000000000000000000000000000000 AND PUSH2 0x1421 JUMP JUMPDEST PUSH2 0x1237 JUMPI PUSH0 DUP1 REVERT JUMPDEST PUSH0 DUP1 PUSH1 0x4 CALLDATALOAD SWAP2 POP PUSH1 0x24 CALLDATALOAD SWAP1 POP DUP1 DUP3 CALLER PUSH20 0xFFFFFFFFFFFFFFFFFFFFFFFFFFFFFFFFFFFFFFFF AND PUSH0 CALLDATALOAD PUSH32 0xFFFFFFFF00000000000000000000000000000000000000000000000000000000 AND PUSH28 0xFFFFFFFFFFFFFFFFFFFFFFFFFFFFFFFFFFFFFFFFFFFFFFFFFFFFFFFF NOT AND CALLVALUE PUSH0 CALLDATASIZE PUSH1 0x40 MLOAD PUSH2 0x12B1 SWAP4 SWAP3 SWAP2 SWAP1 PUSH2 0x1D2D JUMP JUMPDEST PUSH1 0x40 MLOAD DUP1 SWAP2 SUB SWAP1 LOG4 PUSH0 PUSH1 0x4 PUSH1 0x14 PUSH2 0x100 EXP DUP2 SLOAD DUP2 PUSH1 0xFF MUL NOT AND SWAP1 DUP4 ISZERO ISZERO MUL OR SWAP1 SSTORE POP POP POP JUMP JUMPDEST PUSH1 0x3 PUSH0 SWAP1 SLOAD SWAP1 PUSH2 0x100 EXP SWAP1 DIV PUSH20 0xFFFFFFFFFFFFFFFFFFFFFFFFFFFFFFFFFFFFFFFF AND DUP2 JUMP JUMPDEST PUSH2 0x1329 CALLER PUSH0 CALLDATALOAD PUSH32 0xFFFFFFFF00000000000000000000000000000000000000000000000000000000 AND PUSH2 0x1421 JUMP JUMPDEST PUSH2 0x1331 JUMPI PUSH0 DUP1 REVERT JUMPDEST DUP1 PUSH1 0x7 SWAP1 DUP2 PUSH2 0x1340 SWAP2 SWAP1 PUSH2 0x1EF1 JUMP JUMPDEST POP POP JUMP JUMPDEST PUSH0 PUSH1 0x4 PUSH1 0x14 SWAP1 SLOAD SWAP1 PUSH2 0x100 EXP SWAP1 DIV PUSH1 0xFF AND ISZERO PUSH2 0x135E JUMPI PUSH0 DUP1 REVERT JUMPDEST PUSH2 0x1388 DUP3 PUSH32 0xFFFFFFFFFFFFFFFFFFFFFFFFFFFFFFFFFFFFFFFFFFFFFFFFFFFFFFFFFFFFFFFF PUSH2 0x15BD JUMP JUMPDEST SWAP1 POP SWAP2 SWAP1 POP JUMP JUMPDEST PUSH0 PUSH1 0x2 PUSH0 DUP5 PUSH20 0xFFFFFFFFFFFFFFFFFFFFFFFFFFFFFFFFFFFFFFFF AND PUSH20 0xFFFFFFFFFFFFFFFFFFFFFFFFFFFFFFFFFFFFFFFF AND DUP2 MSTORE PUSH1 0x20 ADD SWAP1 DUP2 MSTORE PUSH1 0x20 ADD PUSH0 KECCAK256 PUSH0 DUP4 PUSH20 0xFFFFFFFFFFFFFFFFFFFFFFFFFFFFFFFFFFFFFFFF AND PUSH20 0xFFFFFFFFFFFFFFFFFFFFFFFFFFFFFFFFFFFFFFFF AND DUP2 MSTORE PUSH1 0x20 ADD SWAP1 DUP2 MSTORE PUSH1 0x20 ADD PUSH0 KECCAK256 SLOAD SWAP1 POP SWAP3 SWAP2 POP POP JUMP JUMPDEST PUSH2 0x141C DUP3 CALLER DUP4 PUSH2 0x80D JUMP JUMPDEST POP POP POP JUMP JUMPDEST PUSH0 ADDRESS PUSH20 0xFFFFFFFFFFFFFFFFFFFFFFFFFFFFFFFFFFFFFFFF AND DUP4 PUSH20 0xFFFFFFFFFFFFFFFFFFFFFFFFFFFFFFFFFFFFFFFF AND SUB PUSH2 0x145E JUMPI PUSH1 0x1 SWAP1 POP PUSH2 0x15B7 JUMP JUMPDEST PUSH1 0x4 PUSH0 SWAP1 SLOAD SWAP1 PUSH2 0x100 EXP SWAP1 DIV PUSH20 0xFFFFFFFFFFFFFFFFFFFFFFFFFFFFFFFFFFFFFFFF AND PUSH20 0xFFFFFFFFFFFFFFFFFFFFFFFFFFFFFFFFFFFFFFFF AND DUP4 PUSH20 0xFFFFFFFFFFFFFFFFFFFFFFFFFFFFFFFFFFFFFFFF AND SUB PUSH2 0x14BB JUMPI PUSH1 0x1 SWAP1 POP PUSH2 0x15B7 JUMP JUMPDEST PUSH0 PUSH20 0xFFFFFFFFFFFFFFFFFFFFFFFFFFFFFFFFFFFFFFFF AND PUSH1 0x3 PUSH0 SWAP1 SLOAD SWAP1 PUSH2 0x100 EXP SWAP1 DIV PUSH20 0xFFFFFFFFFFFFFFFFFFFFFFFFFFFFFFFFFFFFFFFF AND PUSH20 0xFFFFFFFFFFFFFFFFFFFFFFFFFFFFFFFFFFFFFFFF AND SUB PUSH2 0x1517 JUMPI PUSH0 SWAP1 POP PUSH2 0x15B7 JUMP JUMPDEST PUSH1 0x3 PUSH0 SWAP1 SLOAD SWAP1 PUSH2 0x100 EXP SWAP1 DIV PUSH20 0xFFFFFFFFFFFFFFFFFFFFFFFFFFFFFFFFFFFFFFFF AND PUSH20 0xFFFFFFFFFFFFFFFFFFFFFFFFFFFFFFFFFFFFFFFF AND PUSH4 0xB7009613 DUP5 ADDRESS DUP6 PUSH1 0x40 MLOAD DUP5 PUSH4 0xFFFFFFFF AND PUSH1 0xE0 SHL DUP2 MSTORE PUSH1 0x4 ADD PUSH2 0x1575 SWAP4 SWAP3 SWAP2 SWAP1 PUSH2 0x1FFA JUMP JUMPDEST PUSH1 0x20 PUSH1 0x40 MLOAD DUP1 DUP4 SUB DUP2 DUP7 GAS STATICCALL ISZERO DUP1 ISZERO PUSH2 0x1590 JUMPI RETURNDATASIZE PUSH0 DUP1 RETURNDATACOPY RETURNDATASIZE PUSH0 REVERT JUMPDEST POP POP POP POP PUSH1 0x40 MLOAD RETURNDATASIZE PUSH1 0x1F NOT PUSH1 0x1F DUP3 ADD AND DUP3 ADD DUP1 PUSH1 0x40 MSTORE POP DUP2 ADD SWAP1 PUSH2 0x15B4 SWAP2 SWAP1 PUSH2 0x2059 JUMP JUMPDEST SWAP1 POP JUMPDEST SWAP3 SWAP2 POP POP JUMP JUMPDEST PUSH0 DUP2 PUSH1 0x2 PUSH0 CALLER PUSH20 0xFFFFFFFFFFFFFFFFFFFFFFFFFFFFFFFFFFFFFFFF AND PUSH20 0xFFFFFFFFFFFFFFFFFFFFFFFFFFFFFFFFFFFFFFFF AND DUP2 MSTORE PUSH1 0x20 ADD SWAP1 DUP2 MSTORE PUSH1 0x20 ADD PUSH0 KECCAK256 PUSH0 DUP6 PUSH20 0xFFFFFFFFFFFFFFFFFFFFFFFFFFFFFFFFFFFFFFFF AND PUSH20 0xFFFFFFFFFFFFFFFFFFFFFFFFFFFFFFFFFFFFFFFF AND DUP2 MSTORE PUSH1 0x20 ADD SWAP1 DUP2 MSTORE PUSH1 0x20 ADD PUSH0 KECCAK256 DUP2 SWAP1 SSTORE POP DUP3 PUSH20 0xFFFFFFFFFFFFFFFFFFFFFFFFFFFFFFFFFFFFFFFF AND CALLER PUSH20 0xFFFFFFFFFFFFFFFFFFFFFFFFFFFFFFFFFFFFFFFF AND PUSH32 0x8C5BE1E5EBEC7D5BD14F71427D1E84F3DD0314C0F7B2291E5B200AC8C7C3B925 DUP5 PUSH1 0x40 MLOAD PUSH2 0x1698 SWAP2 SWAP1 PUSH2 0x194D JUMP JUMPDEST PUSH1 0x40 MLOAD DUP1 SWAP2 SUB SWAP1 LOG3 PUSH1 0x1 SWAP1 POP SWAP3 SWAP2 POP POP JUMP JUMPDEST PUSH0 DUP3 DUP3 DUP5 PUSH2 0x16B8 SWAP2 SWAP1 PUSH2 0x20B1 JUMP JUMPDEST SWAP2 POP DUP2 GT ISZERO PUSH2 0x16FC JUMPI PUSH1 0x40 MLOAD PUSH32 0x8C379A000000000000000000000000000000000000000000000000000000000 DUP2 MSTORE PUSH1 0x4 ADD PUSH2 0x16F3 SWAP1 PUSH2 0x212E JUMP JUMPDEST PUSH1 0x40 MLOAD DUP1 SWAP2 SUB SWAP1 REVERT JUMPDEST SWAP3 SWAP2 POP POP JUMP JUMPDEST PUSH0 DUP3 DUP3 DUP5 PUSH2 0x1710 SWAP2 SWAP1 PUSH2 0x214C JUMP JUMPDEST SWAP2 POP DUP2 LT ISZERO PUSH2 0x1754 JUMPI PUSH1 0x40 MLOAD PUSH32 0x8C379A000000000000000000000000000000000000000000000000000000000 DUP2 MSTORE PUSH1 0x4 ADD PUSH2 0x174B SWAP1 PUSH2 0x21C9 JUMP JUMPDEST PUSH1 0x40 MLOAD DUP1 SWAP2 SUB SWAP1 REVERT JUMPDEST SWAP3 SWAP2 POP POP JUMP JUMPDEST PUSH0 DUP2 MLOAD SWAP1 POP SWAP2 SWAP1 POP JUMP JUMPDEST PUSH0 DUP3 DUP3 MSTORE PUSH1 0x20 DUP3 ADD SWAP1 POP SWAP3 SWAP2 POP POP JUMP JUMPDEST PUSH0 JUMPDEST DUP4 DUP2 LT ISZERO PUSH2 0x1791 JUMPI DUP1 DUP3 ADD MLOAD DUP2 DUP5 ADD MSTORE PUSH1 0x20 DUP2 ADD SWAP1 POP PUSH2 0x1776 JUMP JUMPDEST PUSH0 DUP5 DUP5 ADD MSTORE POP POP POP POP JUMP JUMPDEST PUSH0 PUSH1 0x1F NOT PUSH1 0x1F DUP4 ADD AND SWAP1 POP SWAP2 SWAP1 POP JUMP JUMPDEST PUSH0 PUSH2 0x17B6 DUP3 PUSH2 0x175A JUMP JUMPDEST PUSH2 0x17C0 DUP2 DUP6 PUSH2 0x1764 JUMP JUMPDEST SWAP4 POP PUSH2 0x17D0 DUP2 DUP6 PUSH1 0x20 DUP7 ADD PUSH2 0x1774 JUMP JUMPDEST PUSH2 0x17D9 DUP2 PUSH2 0x179C JUMP JUMPDEST DUP5 ADD SWAP2 POP POP SWAP3 SWAP2 POP POP JUMP JUMPDEST PUSH0 PUSH1 0x20 DUP3 ADD SWAP1 POP DUP2 DUP2 SUB PUSH0 DUP4 ADD MSTORE PUSH2 0x17FC DUP2 DUP5 PUSH2 0x17AC JUMP JUMPDEST SWAP1 POP SWAP3 SWAP2 POP POP JUMP JUMPDEST PUSH0 PUSH1 0x40 MLOAD SWAP1 POP SWAP1 JUMP JUMPDEST PUSH0 DUP1 REVERT JUMPDEST PUSH0 DUP1 REVERT JUMPDEST PUSH0 PUSH20 0xFFFFFFFFFFFFFFFFFFFFFFFFFFFFFFFFFFFFFFFF DUP3 AND SWAP1 POP SWAP2 SWAP1 POP JUMP JUMPDEST PUSH0 PUSH2 0x183E DUP3 PUSH2 0x1815 JUMP JUMPDEST SWAP1 POP SWAP2 SWAP1 POP JUMP JUMPDEST PUSH2 0x184E DUP2 PUSH2 0x1834 JUMP JUMPDEST DUP2 EQ PUSH2 0x1858 JUMPI PUSH0 DUP1 REVERT JUMPDEST POP JUMP JUMPDEST PUSH0 DUP2 CALLDATALOAD SWAP1 POP PUSH2 0x1869 DUP2 PUSH2 0x1845 JUMP JUMPDEST SWAP3 SWAP2 POP POP JUMP JUMPDEST PUSH0 DUP2 SWAP1 POP SWAP2 SWAP1 POP JUMP JUMPDEST PUSH2 0x1881 DUP2 PUSH2 0x186F JUMP JUMPDEST DUP2 EQ PUSH2 0x188B JUMPI PUSH0 DUP1 REVERT JUMPDEST POP JUMP JUMPDEST PUSH0 DUP2 CALLDATALOAD SWAP1 POP PUSH2 0x189C DUP2 PUSH2 0x1878 JUMP JUMPDEST SWAP3 SWAP2 POP POP JUMP JUMPDEST PUSH0 DUP1 PUSH1 0x40 DUP4 DUP6 SUB SLT ISZERO PUSH2 0x18B8 JUMPI PUSH2 0x18B7 PUSH2 0x180D JUMP JUMPDEST JUMPDEST PUSH0 PUSH2 0x18C5 DUP6 DUP3 DUP7 ADD PUSH2 0x185B JUMP JUMPDEST SWAP3 POP POP PUSH1 0x20 PUSH2 0x18D6 DUP6 DUP3 DUP7 ADD PUSH2 0x188E JUMP JUMPDEST SWAP2 POP POP SWAP3 POP SWAP3 SWAP1 POP JUMP JUMPDEST PUSH0 DUP2 ISZERO ISZERO SWAP1 POP SWAP2 SWAP1 POP JUMP JUMPDEST PUSH2 0x18F4 DUP2 PUSH2 0x18E0 JUMP JUMPDEST DUP3 MSTORE POP POP JUMP JUMPDEST PUSH0 PUSH1 0x20 DUP3 ADD SWAP1 POP PUSH2 0x190D PUSH0 DUP4 ADD DUP5 PUSH2 0x18EB JUMP JUMPDEST SWAP3 SWAP2 POP POP JUMP JUMPDEST PUSH0 PUSH1 0x20 DUP3 DUP5 SUB SLT ISZERO PUSH2 0x1928 JUMPI PUSH2 0x1927 PUSH2 0x180D JUMP JUMPDEST JUMPDEST PUSH0 PUSH2 0x1935 DUP5 DUP3 DUP6 ADD PUSH2 0x185B JUMP JUMPDEST SWAP2 POP POP SWAP3 SWAP2 POP POP JUMP JUMPDEST PUSH2 0x1947 DUP2 PUSH2 0x186F JUMP JUMPDEST DUP3 MSTORE POP POP JUMP JUMPDEST PUSH0 PUSH1 0x20 DUP3 ADD SWAP1 POP PUSH2 0x1960 PUSH0 DUP4 ADD DUP5 PUSH2 0x193E JUMP JUMPDEST SWAP3 SWAP2 POP POP JUMP JUMPDEST PUSH0 DUP1 PUSH0 PUSH1 0x60 DUP5 DUP7 SUB SLT ISZERO PUSH2 0x197D JUMPI PUSH2 0x197C PUSH2 0x180D JUMP JUMPDEST JUMPDEST PUSH0 PUSH2 0x198A DUP7 DUP3 DUP8 ADD PUSH2 0x185B JUMP JUMPDEST SWAP4 POP POP PUSH1 0x20 PUSH2 0x199B DUP7 DUP3 DUP8 ADD PUSH2 0x185B JUMP JUMPDEST SWAP3 POP POP PUSH1 0x40 PUSH2 0x19AC DUP7 DUP3 DUP8 ADD PUSH2 0x188E JUMP JUMPDEST SWAP2 POP POP SWAP3 POP SWAP3 POP SWAP3 JUMP JUMPDEST PUSH0 PUSH1 0x20 DUP3 DUP5 SUB SLT ISZERO PUSH2 0x19CB JUMPI PUSH2 0x19CA PUSH2 0x180D JUMP JUMPDEST JUMPDEST PUSH0 PUSH2 0x19D8 DUP5 DUP3 DUP6 ADD PUSH2 0x188E JUMP JUMPDEST SWAP2 POP POP SWAP3 SWAP2 POP POP JUMP JUMPDEST PUSH0 PUSH2 0x19EB DUP3 PUSH2 0x1834 JUMP JUMPDEST SWAP1 POP SWAP2 SWAP1 POP JUMP JUMPDEST PUSH2 0x19FB DUP2 PUSH2 0x19E1 JUMP JUMPDEST DUP2 EQ PUSH2 0x1A05 JUMPI PUSH0 DUP1 REVERT JUMPDEST POP JUMP JUMPDEST PUSH0 DUP2 CALLDATALOAD SWAP1 POP PUSH2 0x1A16 DUP2 PUSH2 0x19F2 JUMP JUMPDEST SWAP3 SWAP2 POP POP JUMP JUMPDEST PUSH0 PUSH1 0x20 DUP3 DUP5 SUB SLT ISZERO PUSH2 0x1A31 JUMPI PUSH2 0x1A30 PUSH2 0x180D JUMP JUMPDEST JUMPDEST PUSH0 PUSH2 0x1A3E DUP5 DUP3 DUP6 ADD PUSH2 0x1A08 JUMP JUMPDEST SWAP2 POP POP SWAP3 SWAP2 POP POP JUMP JUMPDEST PUSH2 0x1A50 DUP2 PUSH2 0x1834 JUMP JUMPDEST DUP3 MSTORE POP POP JUMP JUMPDEST PUSH0 PUSH1 0x20 DUP3 ADD SWAP1 POP PUSH2 0x1A69 PUSH0 DUP4 ADD DUP5 PUSH2 0x1A47 JUMP JUMPDEST SWAP3 SWAP2 POP POP JUMP JUMPDEST PUSH0 DUP2 SWAP1 POP SWAP2 SWAP1 POP JUMP JUMPDEST PUSH0 PUSH2 0x1A92 PUSH2 0x1A8D PUSH2 0x1A88 DUP5 PUSH2 0x1815 JUMP JUMPDEST PUSH2 0x1A6F JUMP JUMPDEST PUSH2 0x1815 JUMP JUMPDEST SWAP1 POP SWAP2 SWAP1 POP JUMP JUMPDEST PUSH0 PUSH2 0x1AA3 DUP3 PUSH2 0x1A78 JUMP JUMPDEST SWAP1 POP SWAP2 SWAP1 POP JUMP JUMPDEST PUSH0 PUSH2 0x1AB4 DUP3 PUSH2 0x1A99 JUMP JUMPDEST SWAP1 POP SWAP2 SWAP1 POP JUMP JUMPDEST PUSH2 0x1AC4 DUP2 PUSH2 0x1AAA JUMP JUMPDEST DUP3 MSTORE POP POP JUMP JUMPDEST PUSH0 PUSH1 0x20 DUP3 ADD SWAP1 POP PUSH2 0x1ADD PUSH0 DUP4 ADD DUP5 PUSH2 0x1ABB JUMP JUMPDEST SWAP3 SWAP2 POP POP JUMP JUMPDEST PUSH0 DUP1 REVERT JUMPDEST PUSH0 DUP1 REVERT JUMPDEST PUSH32 0x4E487B7100000000000000000000000000000000000000000000000000000000 PUSH0 MSTORE PUSH1 0x41 PUSH1 0x4 MSTORE PUSH1 0x24 PUSH0 REVERT JUMPDEST PUSH2 0x1B21 DUP3 PUSH2 0x179C JUMP JUMPDEST DUP2 ADD DUP2 DUP2 LT PUSH8 0xFFFFFFFFFFFFFFFF DUP3 GT OR ISZERO PUSH2 0x1B40 JUMPI PUSH2 0x1B3F PUSH2 0x1AEB JUMP JUMPDEST JUMPDEST DUP1 PUSH1 0x40 MSTORE POP POP POP JUMP JUMPDEST PUSH0 PUSH2 0x1B52 PUSH2 0x1804 JUMP JUMPDEST SWAP1 POP PUSH2 0x1B5E DUP3 DUP3 PUSH2 0x1B18 JUMP JUMPDEST SWAP2 SWAP1 POP JUMP JUMPDEST PUSH0 PUSH8 0xFFFFFFFFFFFFFFFF DUP3 GT ISZERO PUSH2 0x1B7D JUMPI PUSH2 0x1B7C PUSH2 0x1AEB JUMP JUMPDEST JUMPDEST PUSH2 0x1B86 DUP3 PUSH2 0x179C JUMP JUMPDEST SWAP1 POP PUSH1 0x20 DUP2 ADD SWAP1 POP SWAP2 SWAP1 POP JUMP JUMPDEST DUP3 DUP2 DUP4 CALLDATACOPY PUSH0 DUP4 DUP4 ADD MSTORE POP POP POP JUMP JUMPDEST PUSH0 PUSH2 0x1BB3 PUSH2 0x1BAE DUP5 PUSH2 0x1B63 JUMP JUMPDEST PUSH2 0x1B49 JUMP JUMPDEST SWAP1 POP DUP3 DUP2 MSTORE PUSH1 0x20 DUP2 ADD DUP5 DUP5 DUP5 ADD GT ISZERO PUSH2 0x1BCF JUMPI PUSH2 0x1BCE PUSH2 0x1AE7 JUMP JUMPDEST JUMPDEST PUSH2 0x1BDA DUP5 DUP3 DUP6 PUSH2 0x1B93 JUMP JUMPDEST POP SWAP4 SWAP3 POP POP POP JUMP JUMPDEST PUSH0 DUP3 PUSH1 0x1F DUP4 ADD SLT PUSH2 0x1BF6 JUMPI PUSH2 0x1BF5 PUSH2 0x1AE3 JUMP JUMPDEST JUMPDEST DUP2 CALLDATALOAD PUSH2 0x1C06 DUP5 DUP3 PUSH1 0x20 DUP7 ADD PUSH2 0x1BA1 JUMP JUMPDEST SWAP2 POP POP SWAP3 SWAP2 POP POP JUMP JUMPDEST PUSH0 PUSH1 0x20 DUP3 DUP5 SUB SLT ISZERO PUSH2 0x1C24 JUMPI PUSH2 0x1C23 PUSH2 0x180D JUMP JUMPDEST JUMPDEST PUSH0 DUP3 ADD CALLDATALOAD PUSH8 0xFFFFFFFFFFFFFFFF DUP2 GT ISZERO PUSH2 0x1C41 JUMPI PUSH2 0x1C40 PUSH2 0x1811 JUMP JUMPDEST JUMPDEST PUSH2 0x1C4D DUP5 DUP3 DUP6 ADD PUSH2 0x1BE2 JUMP JUMPDEST SWAP2 POP POP SWAP3 SWAP2 POP POP JUMP JUMPDEST PUSH0 DUP1 PUSH1 0x40 DUP4 DUP6 SUB SLT ISZERO PUSH2 0x1C6C JUMPI PUSH2 0x1C6B PUSH2 0x180D JUMP JUMPDEST JUMPDEST PUSH0 PUSH2 0x1C79 DUP6 DUP3 DUP7 ADD PUSH2 0x185B JUMP JUMPDEST SWAP3 POP POP PUSH1 0x20 PUSH2 0x1C8A DUP6 DUP3 DUP7 ADD PUSH2 0x185B JUMP JUMPDEST SWAP2 POP POP SWAP3 POP SWAP3 SWAP1 POP JUMP JUMPDEST PUSH32 0x4E487B7100000000000000000000000000000000000000000000000000000000 PUSH0 MSTORE PUSH1 0x22 PUSH1 0x4 MSTORE PUSH1 0x24 PUSH0 REVERT JUMPDEST PUSH0 PUSH1 0x2 DUP3 DIV SWAP1 POP PUSH1 0x1 DUP3 AND DUP1 PUSH2 0x1CD8 JUMPI PUSH1 0x7F DUP3 AND SWAP2 POP JUMPDEST PUSH1 0x20 DUP3 LT DUP2 SUB PUSH2 0x1CEB JUMPI PUSH2 0x1CEA PUSH2 0x1C94 JUMP JUMPDEST JUMPDEST POP SWAP2 SWAP1 POP JUMP JUMPDEST PUSH0 DUP3 DUP3 MSTORE PUSH1 0x20 DUP3 ADD SWAP1 POP SWAP3 SWAP2 POP POP JUMP JUMPDEST PUSH0 PUSH2 0x1D0C DUP4 DUP6 PUSH2 0x1CF1 JUMP JUMPDEST SWAP4 POP PUSH2 0x1D19 DUP4 DUP6 DUP5 PUSH2 0x1B93 JUMP JUMPDEST PUSH2 0x1D22 DUP4 PUSH2 0x179C JUMP JUMPDEST DUP5 ADD SWAP1 POP SWAP4 SWAP3 POP POP POP JUMP JUMPDEST PUSH0 PUSH1 0x40 DUP3 ADD SWAP1 POP PUSH2 0x1D40 PUSH0 DUP4 ADD DUP7 PUSH2 0x193E JUMP JUMPDEST DUP2 DUP2 SUB PUSH1 0x20 DUP4 ADD MSTORE PUSH2 0x1D53 DUP2 DUP5 DUP7 PUSH2 0x1D01 JUMP JUMPDEST SWAP1 POP SWAP5 SWAP4 POP POP POP POP JUMP JUMPDEST PUSH0 DUP2 SWAP1 POP DUP2 PUSH0 MSTORE PUSH1 0x20 PUSH0 KECCAK256 SWAP1 POP SWAP2 SWAP1 POP JUMP JUMPDEST PUSH0 PUSH1 0x20 PUSH1 0x1F DUP4 ADD DIV SWAP1 POP SWAP2 SWAP1 POP JUMP JUMPDEST PUSH0 DUP3 DUP3 SHL SWAP1 POP SWAP3 SWAP2 POP POP JUMP JUMPDEST PUSH0 PUSH1 0x8 DUP4 MUL PUSH2 0x1DB9 PUSH32 0xFFFFFFFFFFFFFFFFFFFFFFFFFFFFFFFFFFFFFFFFFFFFFFFFFFFFFFFFFFFFFFFF DUP3 PUSH2 0x1D7E JUMP JUMPDEST PUSH2 0x1DC3 DUP7 DUP4 PUSH2 0x1D7E JUMP JUMPDEST SWAP6 POP DUP1 NOT DUP5 AND SWAP4 POP DUP1 DUP7 AND DUP5 OR SWAP3 POP POP POP SWAP4 SWAP3 POP POP POP JUMP JUMPDEST PUSH0 PUSH2 0x1DF5 PUSH2 0x1DF0 PUSH2 0x1DEB DUP5 PUSH2 0x186F JUMP JUMPDEST PUSH2 0x1A6F JUMP JUMPDEST PUSH2 0x186F JUMP JUMPDEST SWAP1 POP SWAP2 SWAP1 POP JUMP JUMPDEST PUSH0 DUP2 SWAP1 POP SWAP2 SWAP1 POP JUMP JUMPDEST PUSH2 0x1E0E DUP4 PUSH2 0x1DDB JUMP JUMPDEST PUSH2 0x1E22 PUSH2 0x1E1A DUP3 PUSH2 0x1DFC JUMP JUMPDEST DUP5 DUP5 SLOAD PUSH2 0x1D8A JUMP JUMPDEST DUP3 SSTORE POP POP POP POP JUMP JUMPDEST PUSH0 SWAP1 JUMP JUMPDEST PUSH2 0x1E36 PUSH2 0x1E2A JUMP JUMPDEST PUSH2 0x1E41 DUP2 DUP5 DUP5 PUSH2 0x1E05 JUMP JUMPDEST POP POP POP JUMP JUMPDEST JUMPDEST DUP2 DUP2 LT ISZERO PUSH2 0x1E64 JUMPI PUSH2 0x1E59 PUSH0 DUP3 PUSH2 0x1E2E JUMP JUMPDEST PUSH1 0x1 DUP2 ADD SWAP1 POP PUSH2 0x1E47 JUMP JUMPDEST POP POP JUMP JUMPDEST PUSH1 0x1F DUP3 GT ISZERO PUSH2 0x1EA9 JUMPI PUSH2 0x1E7A DUP2 PUSH2 0x1D5D JUMP JUMPDEST PUSH2 0x1E83 DUP5 PUSH2 0x1D6F JUMP JUMPDEST DUP2 ADD PUSH1 0x20 DUP6 LT ISZERO PUSH2 0x1E92 JUMPI DUP2 SWAP1 POP JUMPDEST PUSH2 0x1EA6 PUSH2 0x1E9E DUP6 PUSH2 0x1D6F JUMP JUMPDEST DUP4 ADD DUP3 PUSH2 0x1E46 JUMP JUMPDEST POP POP JUMPDEST POP POP POP JUMP JUMPDEST PUSH0 DUP3 DUP3 SHR SWAP1 POP SWAP3 SWAP2 POP POP JUMP JUMPDEST PUSH0 PUSH2 0x1EC9 PUSH0 NOT DUP5 PUSH1 0x8 MUL PUSH2 0x1EAE JUMP JUMPDEST NOT DUP1 DUP4 AND SWAP2 POP POP SWAP3 SWAP2 POP POP JUMP JUMPDEST PUSH0 PUSH2 0x1EE1 DUP4 DUP4 PUSH2 0x1EBA JUMP JUMPDEST SWAP2 POP DUP3 PUSH1 0x2 MUL DUP3 OR SWAP1 POP SWAP3 SWAP2 POP POP JUMP JUMPDEST PUSH2 0x1EFA DUP3 PUSH2 0x175A JUMP JUMPDEST PUSH8 0xFFFFFFFFFFFFFFFF DUP2 GT ISZERO PUSH2 0x1F13 JUMPI PUSH2 0x1F12 PUSH2 0x1AEB JUMP JUMPDEST JUMPDEST PUSH2 0x1F1D DUP3 SLOAD PUSH2 0x1CC1 JUMP JUMPDEST PUSH2 0x1F28 DUP3 DUP3 DUP6 PUSH2 0x1E68 JUMP JUMPDEST PUSH0 PUSH1 0x20 SWAP1 POP PUSH1 0x1F DUP4 GT PUSH1 0x1 DUP2 EQ PUSH2 0x1F59 JUMPI PUSH0 DUP5 ISZERO PUSH2 0x1F47 JUMPI DUP3 DUP8 ADD MLOAD SWAP1 POP JUMPDEST PUSH2 0x1F51 DUP6 DUP3 PUSH2 0x1ED6 JUMP JUMPDEST DUP7 SSTORE POP PUSH2 0x1FB8 JUMP JUMPDEST PUSH1 0x1F NOT DUP5 AND PUSH2 0x1F67 DUP7 PUSH2 0x1D5D JUMP JUMPDEST PUSH0 JUMPDEST DUP3 DUP2 LT ISZERO PUSH2 0x1F8E JUMPI DUP5 DUP10 ADD MLOAD DUP3 SSTORE PUSH1 0x1 DUP3 ADD SWAP2 POP PUSH1 0x20 DUP6 ADD SWAP5 POP PUSH1 0x20 DUP2 ADD SWAP1 POP PUSH2 0x1F69 JUMP JUMPDEST DUP7 DUP4 LT ISZERO PUSH2 0x1FAB JUMPI DUP5 DUP10 ADD MLOAD PUSH2 0x1FA7 PUSH1 0x1F DUP10 AND DUP3 PUSH2 0x1EBA JUMP JUMPDEST DUP4 SSTORE POP JUMPDEST PUSH1 0x1 PUSH1 0x2 DUP9 MUL ADD DUP9 SSTORE POP POP POP JUMPDEST POP POP POP POP POP POP JUMP JUMPDEST PUSH0 PUSH32 0xFFFFFFFF00000000000000000000000000000000000000000000000000000000 DUP3 AND SWAP1 POP SWAP2 SWAP1 POP JUMP JUMPDEST PUSH2 0x1FF4 DUP2 PUSH2 0x1FC0 JUMP JUMPDEST DUP3 MSTORE POP POP JUMP JUMPDEST PUSH0 PUSH1 0x60 DUP3 ADD SWAP1 POP PUSH2 0x200D PUSH0 DUP4 ADD DUP7 PUSH2 0x1A47 JUMP JUMPDEST PUSH2 0x201A PUSH1 0x20 DUP4 ADD DUP6 PUSH2 0x1A47 JUMP JUMPDEST PUSH2 0x2027 PUSH1 0x40 DUP4 ADD DUP5 PUSH2 0x1FEB JUMP JUMPDEST SWAP5 SWAP4 POP POP POP POP JUMP JUMPDEST PUSH2 0x2038 DUP2 PUSH2 0x18E0 JUMP JUMPDEST DUP2 EQ PUSH2 0x2042 JUMPI PUSH0 DUP1 REVERT JUMPDEST POP JUMP JUMPDEST PUSH0 DUP2 MLOAD SWAP1 POP PUSH2 0x2053 DUP2 PUSH2 0x202F JUMP JUMPDEST SWAP3 SWAP2 POP POP JUMP JUMPDEST PUSH0 PUSH1 0x20 DUP3 DUP5 SUB SLT ISZERO PUSH2 0x206E JUMPI PUSH2 0x206D PUSH2 0x180D JUMP JUMPDEST JUMPDEST PUSH0 PUSH2 0x207B DUP5 DUP3 DUP6 ADD PUSH2 0x2045 JUMP JUMPDEST SWAP2 POP POP SWAP3 SWAP2 POP POP JUMP JUMPDEST PUSH32 0x4E487B7100000000000000000000000000000000000000000000000000000000 PUSH0 MSTORE PUSH1 0x11 PUSH1 0x4 MSTORE PUSH1 0x24 PUSH0 REVERT JUMPDEST PUSH0 PUSH2 0x20BB DUP3 PUSH2 0x186F JUMP JUMPDEST SWAP2 POP PUSH2 0x20C6 DUP4 PUSH2 0x186F JUMP JUMPDEST SWAP3 POP DUP3 DUP3 SUB SWAP1 POP DUP2 DUP2 GT ISZERO PUSH2 0x20DE JUMPI PUSH2 0x20DD PUSH2 0x2084 JUMP JUMPDEST JUMPDEST SWAP3 SWAP2 POP POP JUMP JUMPDEST PUSH32 0x64732D6D6174682D7375622D756E646572666C6F770000000000000000000000 PUSH0 DUP3 ADD MSTORE POP JUMP JUMPDEST PUSH0 PUSH2 0x2118 PUSH1 0x15 DUP4 PUSH2 0x1764 JUMP JUMPDEST SWAP2 POP PUSH2 0x2123 DUP3 PUSH2 0x20E4 JUMP JUMPDEST PUSH1 0x20 DUP3 ADD SWAP1 POP SWAP2 SWAP1 POP JUMP JUMPDEST PUSH0 PUSH1 0x20 DUP3 ADD SWAP1 POP DUP2 DUP2 SUB PUSH0 DUP4 ADD MSTORE PUSH2 0x2145 DUP2 PUSH2 0x210C JUMP JUMPDEST SWAP1 POP SWAP2 SWAP1 POP JUMP JUMPDEST PUSH0 PUSH2 0x2156 DUP3 PUSH2 0x186F JUMP JUMPDEST SWAP2 POP PUSH2 0x2161 DUP4 PUSH2 0x186F JUMP JUMPDEST SWAP3 POP DUP3 DUP3 ADD SWAP1 POP DUP1 DUP3 GT ISZERO PUSH2 0x2179 JUMPI PUSH2 0x2178 PUSH2 0x2084 JUMP JUMPDEST JUMPDEST SWAP3 SWAP2 POP POP JUMP JUMPDEST PUSH32 0x64732D6D6174682D6164642D6F766572666C6F77000000000000000000000000 PUSH0 DUP3 ADD MSTORE POP JUMP JUMPDEST PUSH0 PUSH2 0x21B3 PUSH1 0x14 DUP4 PUSH2 0x1764 JUMP JUMPDEST SWAP2 POP PUSH2 0x21BE DUP3 PUSH2 0x217F JUMP JUMPDEST PUSH1 0x20 DUP3 ADD SWAP1 POP SWAP2 SWAP1 POP JUMP JUMPDEST PUSH0 PUSH1 0x20 DUP3 ADD SWAP1 POP DUP2 DUP2 SUB PUSH0 DUP4 ADD MSTORE PUSH2 0x21E0 DUP2 PUSH2 0x21A7 JUMP JUMPDEST SWAP1 POP SWAP2 SWAP1 POP JUMP INVALID LOG2 PUSH5 0x6970667358 0x22 SLT KECCAK256 0xFB 0x49 PUSH20 0x1E0AD0C5564DED71CDB2BE78196D11E989863BBD 0x25 0xAF AND 0xEA CHAINID 0xDC PUSH24 0xCBCF64736F6C634300081400330000000000000000000000 "
				},
				"gasEstimates": {
					"creation": {
						"codeDepositCost": "1746600",
						"executionCost": "infinite",
						"totalCost": "infinite"
					},
					"external": {
						"allowance(address,address)": "infinite",
						"approve(address)": "27204",
						"approve(address,uint256)": "infinite",
						"authority()": "infinite",
						"balanceOf(address)": "2918",
						"burn(address,uint256)": "infinite",
						"burn(uint256)": "infinite",
						"decimals()": "2448",
						"mint(address,uint256)": "infinite",
						"mint(uint256)": "infinite",
						"move(address,address,uint256)": "infinite",
						"name()": "infinite",
						"owner()": "2531",
						"pull(address,uint256)": "infinite",
						"push(address,uint256)": "infinite",
						"setAuthority(address)": "infinite",
						"setName(string)": "infinite",
						"setOwner(address)": "infinite",
						"start()": "infinite",
						"stop()": "infinite",
						"stopped()": "2628",
						"symbol()": "infinite",
						"totalSupply()": "2544",
						"transfer(address,uint256)": "infinite",
						"transferFrom(address,address,uint256)": "infinite"
					}
				},
				"methodIdentifiers": {
					"allowance(address,address)": "dd62ed3e",
					"approve(address)": "daea85c5",
					"approve(address,uint256)": "095ea7b3",
					"authority()": "bf7e214f",
					"balanceOf(address)": "70a08231",
					"burn(address,uint256)": "9dc29fac",
					"burn(uint256)": "42966c68",
					"decimals()": "313ce567",
					"mint(address,uint256)": "40c10f19",
					"mint(uint256)": "a0712d68",
					"move(address,address,uint256)": "bb35783b",
					"name()": "06fdde03",
					"owner()": "8da5cb5b",
					"pull(address,uint256)": "f2d5d56b",
					"push(address,uint256)": "b753a98c",
					"setAuthority(address)": "7a9e5e4b",
					"setName(string)": "c47f0027",
					"setOwner(address)": "13af4035",
					"start()": "be9a6555",
					"stop()": "07da68f5",
					"stopped()": "75f12b21",
					"symbol()": "95d89b41",
					"totalSupply()": "18160ddd",
					"transfer(address,uint256)": "a9059cbb",
					"transferFrom(address,address,uint256)": "23b872dd"
				}
			},
			"storageLayout": {
				"storage": [
					{
						"astId": 615,
						"contract": "ds-token/token.sol:DSToken",
						"label": "_supply",
						"offset": 0,
						"slot": "0",
						"type": "t_uint256"
					},
					{
						"astId": 619,
						"contract": "ds-token/token.sol:DSToken",
						"label": "_balances",
						"offset": 0,
						"slot": "1",
						"type": "t_mapping(t_address,t_uint256)"
					},
					{
						"astId": 625,
						"contract": "ds-token/token.sol:DSToken",
						"label": "_approvals",
						"offset": 0,
						"slot": "2",
						"type": "t_mapping(t_address,t_mapping(t_address,t_uint256))"
					},
					{
						"astId": 27,
						"contract": "ds-token/token.sol:DSToken",
						"label": "authority",
						"offset": 0,
						"slot": "3",
						"type": "t_contract(DSAuthority)13"
					},
					{
						"astId": 29,
						"contract": "ds-token/token.sol:DSToken",
						"label": "owner",
						"offset": 0,
						"slot": "4",
						"type": "t_address"
					},
					{
						"astId": 195,
						"contract": "ds-token/token.sol:DSToken",
						"label": "stopped",
						"offset": 20,
						"slot": "4",
						"type": "t_bool"
					},
					{
						"astId": 806,
						"contract": "ds-token/token.sol:DSToken",
						"label": "symbol",
						"offset": 0,
						"slot": "5",
						"type": "t_string_storage"
					},
					{
						"astId": 809,
						"contract": "ds-token/token.sol:DSToken",
						"label": "decimals",
						"offset": 0,
						"slot": "6",
						"type": "t_uint256"
					},
					{
						"astId": 811,
						"contract": "ds-token/token.sol:DSToken",
						"label": "name",
						"offset": 0,
						"slot": "7",
						"type": "t_string_storage"
					}
				],
				"types": {
					"t_address": {
						"encoding": "inplace",
						"label": "address",
						"numberOfBytes": "20"
					},
					"t_bool": {
						"encoding": "inplace",
						"label": "bool",
						"numberOfBytes": "1"
					},
					"t_contract(DSAuthority)13": {
						"encoding": "inplace",
						"label": "contract DSAuthority",
						"numberOfBytes": "20"
					},
					"t_mapping(t_address,t_mapping(t_address,t_uint256))": {
						"encoding": "mapping",
						"key": "t_address",
						"label": "mapping(address => mapping(address => uint256))",
						"numberOfBytes": "32",
						"value": "t_mapping(t_address,t_uint256)"
					},
					"t_mapping(t_address,t_uint256)": {
						"encoding": "mapping",
						"key": "t_address",
						"label": "mapping(address => uint256)",
						"numberOfBytes": "32",
						"value": "t_uint256"
					},
					"t_string_storage": {
						"encoding": "bytes",
						"label": "string",
						"numberOfBytes": "32"
					},
					"t_uint256": {
						"encoding": "inplace",
						"label": "uint256",
						"numberOfBytes": "32"
					}
				}
			},
			"userdoc": {
				"kind": "user",
				"methods": {},
				"version": 1
			}
		}
	}
}