{
	"ds-token/token.sol": {
		"DSToken": {
			"abi": [
				{
					"inputs": [
						{
							"internalType": "string",
							"name": "symbol_",
							"type": "string"
						}
					],
					"stateMutability": "nonpayable",
					"type": "constructor"
				},
				{
					"anonymous": false,
					"inputs": [
						{
							"indexed": true,
							"internalType": "address",
							"name": "src",
							"type": "address"
						},
						{
							"indexed": true,
							"internalType": "address",
							"name": "guy",
							"type": "address"
						},
						{
							"indexed": false,
							"internalType": "uint256",
							"name": "wad",
							"type": "uint256"
						}
					],
					"name": "Approval",
					"type": "event"
				},
				{
					"anonymous": false,
					"inputs": [
						{
							"indexed": true,
							"internalType": "address",
							"name": "guy",
							"type": "address"
						},
						{
							"indexed": false,
							"internalType": "uint256",
							"name": "wad",
							"type": "uint256"
						}
					],
					"name": "Burn",
					"type": "event"
				},
				{
					"anonymous": true,
					"inputs": [
						{
							"indexed": true,
							"internalType": "bytes4",
							"name": "sig",
							"type": "bytes4"
						},
						{
							"indexed": true,
							"internalType": "address",
							"name": "guy",
							"type": "address"
						},
						{
							"indexed": true,
							"internalType": "bytes32",
							"name": "foo",
							"type": "bytes32"
						},
						{
							"indexed": true,
							"internalType": "bytes32",
							"name": "bar",
							"type": "bytes32"
						},
						{
							"indexed": false,
							"internalType": "uint256",
							"name": "wad",
							"type": "uint256"
						},
						{
							"indexed": false,
							"internalType": "bytes",
							"name": "fax",
							"type": "bytes"
						}
					],
					"name": "LogNote",
					"type": "event"
				},
				{
					"anonymous": false,
					"inputs": [
						{
							"indexed": true,
							"internalType": "address",
							"name": "authority",
							"type": "address"
						}
					],
					"name": "LogSetAuthority",
					"type": "event"
				},
				{
					"anonymous": false,
					"inputs": [
						{
							"indexed": true,
							"internalType": "address",
							"name": "owner",
							"type": "address"
						}
					],
					"name": "LogSetOwner",
					"type": "event"
				},
				{
					"anonymous": false,
					"inputs": [
						{
							"indexed": true,
							"internalType": "address",
							"name": "guy",
							"type": "address"
						},
						{
							"indexed": false,
							"internalType": "uint256",
							"name": "wad",
							"type": "uint256"
						}
					],
					"name": "Mint",
					"type": "event"
				},
				{
					"anonymous": false,
					"inputs": [
						{
							"indexed": true,
							"internalType": "address",
							"name": "src",
							"type": "address"
						},
						{
							"indexed": true,
							"internalType": "address",
							"name": "dst",
							"type": "address"
						},
						{
							"indexed": false,
							"internalType": "uint256",
							"name": "wad",
							"type": "uint256"
						}
					],
					"name": "Transfer",
					"type": "event"
				},
				{
					"inputs": [
						{
							"internalType": "address",
							"name": "src",
							"type": "address"
						},
						{
							"internalType": "address",
							"name": "guy",
							"type": "address"
						}
					],
					"name": "allowance",
					"outputs": [
						{
							"internalType": "uint256",
							"name": "",
							"type": "uint256"
						}
					],
					"stateMutability": "view",
					"type": "function"
				},
				{
					"inputs": [
						{
							"internalType": "address",
							"name": "guy",
							"type": "address"
						},
						{
							"internalType": "uint256",
							"name": "wad",
							"type": "uint256"
						}
					],
					"name": "approve",
					"outputs": [
						{
							"internalType": "bool",
							"name": "",
							"type": "bool"
						}
					],
					"stateMutability": "nonpayable",
					"type": "function"
				},
				{
					"inputs": [
						{
							"internalType": "address",
							"name": "guy",
							"type": "address"
						}
					],
					"name": "approve",
					"outputs": [
						{
							"internalType": "bool",
							"name": "",
							"type": "bool"
						}
					],
					"stateMutability": "nonpayable",
					"type": "function"
				},
				{
					"inputs": [],
					"name": "authority",
					"outputs": [
						{
							"internalType": "contract DSAuthority",
							"name": "",
							"type": "address"
						}
					],
					"stateMutability": "view",
					"type": "function"
				},
				{
					"inputs": [
						{
							"internalType": "address",
							"name": "src",
							"type": "address"
						}
					],
					"name": "balanceOf",
					"outputs": [
						{
							"internalType": "uint256",
							"name": "",
							"type": "uint256"
						}
					],
					"stateMutability": "view",
					"type": "function"
				},
				{
					"inputs": [
						{
							"internalType": "uint256",
							"name": "wad",
							"type": "uint256"
						}
					],
					"name": "burn",
					"outputs": [],
					"stateMutability": "nonpayable",
					"type": "function"
				},
				{
					"inputs": [
						{
							"internalType": "address",
							"name": "guy",
							"type": "address"
						},
						{
							"internalType": "uint256",
							"name": "wad",
							"type": "uint256"
						}
					],
					"name": "burn",
					"outputs": [],
					"stateMutability": "nonpayable",
					"type": "function"
				},
				{
					"inputs": [],
					"name": "decimals",
					"outputs": [
						{
							"internalType": "uint256",
							"name": "",
							"type": "uint256"
						}
					],
					"stateMutability": "view",
					"type": "function"
				},
				{
					"inputs": [
						{
							"internalType": "address",
							"name": "guy",
							"type": "address"
						},
						{
							"internalType": "uint256",
							"name": "wad",
							"type": "uint256"
						}
					],
					"name": "mint",
					"outputs": [],
					"stateMutability": "nonpayable",
					"type": "function"
				},
				{
					"inputs": [
						{
							"internalType": "uint256",
							"name": "wad",
							"type": "uint256"
						}
					],
					"name": "mint",
					"outputs": [],
					"stateMutability": "nonpayable",
					"type": "function"
				},
				{
					"inputs": [
						{
							"internalType": "address",
							"name": "src",
							"type": "address"
						},
						{
							"internalType": "address",
							"name": "dst",
							"type": "address"
						},
						{
							"internalType": "uint256",
							"name": "wad",
							"type": "uint256"
						}
					],
					"name": "move",
					"outputs": [],
					"stateMutability": "nonpayable",
					"type": "function"
				},
				{
					"inputs": [],
					"name": "name",
					"outputs": [
						{
							"internalType": "string",
							"name": "",
							"type": "string"
						}
					],
					"stateMutability": "view",
					"type": "function"
				},
				{
					"inputs": [],
					"name": "owner",
					"outputs": [
						{
							"internalType": "address",
							"name": "",
							"type": "address"
						}
					],
					"stateMutability": "view",
					"type": "function"
				},
				{
					"inputs": [
						{
							"internalType": "address",
							"name": "src",
							"type": "address"
						},
						{
							"internalType": "uint256",
							"name": "wad",
							"type": "uint256"
						}
					],
					"name": "pull",
					"outputs": [],
					"stateMutability": "nonpayable",
					"type": "function"
				},
				{
					"inputs": [
						{
							"internalType": "address",
							"name": "dst",
							"type": "address"
						},
						{
							"internalType": "uint256",
							"name": "wad",
							"type": "uint256"
						}
					],
					"name": "push",
					"outputs": [],
					"stateMutability": "nonpayable",
					"type": "function"
				},
				{
					"inputs": [
						{
							"internalType": "contract DSAuthority",
							"name": "authority_",
							"type": "address"
						}
					],
					"name": "setAuthority",
					"outputs": [],
					"stateMutability": "nonpayable",
					"type": "function"
				},
				{
					"inputs": [
						{
							"internalType": "string",
							"name": "name_",
							"type": "string"
						}
					],
					"name": "setName",
					"outputs": [],
					"stateMutability": "nonpayable",
					"type": "function"
				},
				{
					"inputs": [
						{
							"internalType": "address",
							"name": "owner_",
							"type": "address"
						}
					],
					"name": "setOwner",
					"outputs": [],
					"stateMutability": "nonpayable",
					"type": "function"
				},
				{
					"inputs": [],
					"name": "start",
					"outputs": [],
					"stateMutability": "payable",
					"type": "function"
				},
				{
					"inputs": [],
					"name": "stop",
					"outputs": [],
					"stateMutability": "payable",
					"type": "function"
				},
				{
					"inputs": [],
					"name": "stopped",
					"outputs": [
						{
							"internalType": "bool",
							"name": "",
							"type": "bool"
						}
					],
					"stateMutability": "view",
					"type": "function"
				},
				{
					"inputs": [],
					"name": "symbol",
					"outputs": [
						{
							"internalType": "string",
							"name": "",
							"type": "string"
						}
					],
					"stateMutability": "view",
					"type": "function"
				},
				{
					"inputs": [],
					"name": "totalSupply",
					"outputs": [
						{
							"internalType": "uint256",
							"name": "",
							"type": "uint256"
						}
					],
					"stateMutability": "view",
					"type": "function"
				},
				{
					"inputs": [
						{
							"internalType": "address",
							"name": "dst",
							"type": "address"
						},
						{
							"internalType": "uint256",
							"name": "wad",
							"type": "uint256"
						}
					],
					"name": "transfer",
					"outputs": [
						{
							"internalType": "bool",
							"name": "",
							"type": "bool"
						}
					],
					"stateMutability": "nonpayable",
					"type": "function"
				},
				{
					"inputs": [
						{
							"internalType": "address",
							"name": "src",
							"type": "address"
						},
						{
							"internalType": "address",
							"name": "dst",
							"type": "address"
						},
						{
							"internalType": "uint256",
							"name": "wad",
							"type": "uint256"
						}
					],
					"name": "transferFrom",
					"outputs": [
						{
							"internalType": "bool",
							"name": "",
							"type": "bool"
						}
					],
					"stateMutability": "nonpayable",
					"type": "function"
				}
			],
			"devdoc": {
				"kind": "dev",
				"methods": {},
				"version": 1
			},
			"evm": {
				"assembly": "    /* \"ds-token/token.sol\":877:3082  contract DSToken is DSTokenBase(0), DSStop {... */\n  mstore(0x40, 0x80)\n    /* \"ds-token/token.sol\":983:985  18 */\n  0x12\n    /* \"ds-token/token.sol\":955:985  uint256  public  decimals = 18 */\n  0x06\n  sstore\n    /* \"ds-token/token.sol\":1067:1142  constructor(string memory symbol_) public {... */\n  callvalue\n  dup1\n  iszero\n  tag_1\n  jumpi\n  0x00\n  dup1\n  revert\ntag_1:\n  pop\n  mload(0x40)\n  sub(codesize, bytecodeSize)\n  dup1\n  bytecodeSize\n  dup4\n  codecopy\n  dup2\n  add\n  0x40\n  dup2\n  swap1\n  mstore\n  tag_2\n  swap2\n  tag_3\n  jump\t// in\ntag_2:\n    /* \"ds-token/base.sol\":1110:1120  msg.sender */\n  caller\n    /* \"ds-token/token.sol\":909:910  0 */\n  0x00\n    /* \"ds-token/base.sol\":1100:1121  _balances[msg.sender] */\n  dup2\n  dup2\n  mstore\n    /* \"ds-token/base.sol\":1100:1109  _balances */\n  0x01\n    /* \"ds-token/base.sol\":1100:1121  _balances[msg.sender] */\n  0x20\n  mstore\n  0x40\n  dup1\n  dup3\n  keccak256\n    /* \"ds-token/base.sol\":1100:1130  _balances[msg.sender] = supply */\n  dup3\n  swap1\n  sstore\n    /* \"ds-token/base.sol\":1140:1156  _supply = supply */\n  dup2\n  dup1\n  sstore\n    /* \"ds-auth/auth.sol\":1104:1109  owner */\n  0x04\n    /* \"ds-auth/auth.sol\":1104:1122  owner = msg.sender */\n  dup1\n  sload\n  not(sub(shl(0xa0, 0x01), 0x01))\n  and\n  dup5\n  or\n  swap1\n  sstore\n    /* \"ds-auth/auth.sol\":1137:1160  LogSetOwner(msg.sender) */\n  mload\n  0xce241d7ca1f669fee44b6fc00b8eba2df3bb514eed0f6f668f8f89096e81ed94\n  swap2\n    /* \"ds-token/token.sol\":909:910  0 */\n  swap1\n    /* \"ds-auth/auth.sol\":1137:1160  LogSetOwner(msg.sender) */\n  log2\n    /* \"ds-token/token.sol\":1119:1125  symbol */\n  0x05\n    /* \"ds-token/token.sol\":1119:1135  symbol = symbol_ */\n  tag_10\n    /* \"ds-token/token.sol\":1128:1135  symbol_ */\n  dup3\n    /* \"ds-token/token.sol\":1119:1125  symbol */\n  dup3\n    /* \"ds-token/token.sol\":1119:1135  symbol = symbol_ */\n  tag_11\n  jump\t// in\ntag_10:\n  pop\n    /* \"ds-token/token.sol\":1067:1142  constructor(string memory symbol_) public {... */\n  pop\n    /* \"ds-token/token.sol\":877:3082  contract DSToken is DSTokenBase(0), DSStop {... */\n  jump(tag_18)\n    /* \"#utility.yul\":14:141   */\ntag_13:\n    /* \"#utility.yul\":75:85   */\n  0x4e487b71\n    /* \"#utility.yul\":70:73   */\n  0xe0\n    /* \"#utility.yul\":66:86   */\n  shl\n    /* \"#utility.yul\":63:64   */\n  0x00\n    /* \"#utility.yul\":56:87   */\n  mstore\n    /* \"#utility.yul\":106:110   */\n  0x41\n    /* \"#utility.yul\":103:104   */\n  0x04\n    /* \"#utility.yul\":96:111   */\n  mstore\n    /* \"#utility.yul\":130:134   */\n  0x24\n    /* \"#utility.yul\":127:128   */\n  0x00\n    /* \"#utility.yul\":120:135   */\n  revert\n    /* \"#utility.yul\":146:1188   */\ntag_3:\n    /* \"#utility.yul\":226:232   */\n  0x00\n    /* \"#utility.yul\":257:259   */\n  0x20\n    /* \"#utility.yul\":300:302   */\n  dup1\n    /* \"#utility.yul\":288:297   */\n  dup4\n    /* \"#utility.yul\":279:286   */\n  dup6\n    /* \"#utility.yul\":275:298   */\n  sub\n    /* \"#utility.yul\":271:303   */\n  slt\n    /* \"#utility.yul\":268:320   */\n  iszero\n  tag_21\n  jumpi\n    /* \"#utility.yul\":316:317   */\n  0x00\n    /* \"#utility.yul\":313:314   */\n  dup1\n    /* \"#utility.yul\":306:318   */\n  revert\n    /* \"#utility.yul\":268:320   */\ntag_21:\n    /* \"#utility.yul\":343:359   */\n  dup3\n  mload\n  sub(shl(0x40, 0x01), 0x01)\n    /* \"#utility.yul\":408:422   */\n  dup1\n  dup3\n  gt\n    /* \"#utility.yul\":405:439   */\n  iszero\n  tag_22\n  jumpi\n    /* \"#utility.yul\":435:436   */\n  0x00\n    /* \"#utility.yul\":432:433   */\n  dup1\n    /* \"#utility.yul\":425:437   */\n  revert\n    /* \"#utility.yul\":405:439   */\ntag_22:\n    /* \"#utility.yul\":473:479   */\n  dup2\n    /* \"#utility.yul\":462:471   */\n  dup6\n    /* \"#utility.yul\":458:480   */\n  add\n    /* \"#utility.yul\":448:480   */\n  swap2\n  pop\n    /* \"#utility.yul\":518:525   */\n  dup6\n    /* \"#utility.yul\":511:515   */\n  0x1f\n    /* \"#utility.yul\":507:509   */\n  dup4\n    /* \"#utility.yul\":503:516   */\n  add\n    /* \"#utility.yul\":499:526   */\n  slt\n    /* \"#utility.yul\":489:544   */\n  tag_23\n  jumpi\n    /* \"#utility.yul\":540:541   */\n  0x00\n    /* \"#utility.yul\":537:538   */\n  dup1\n    /* \"#utility.yul\":530:542   */\n  revert\n    /* \"#utility.yul\":489:544   */\ntag_23:\n    /* \"#utility.yul\":569:571   */\n  dup2\n    /* \"#utility.yul\":563:572   */\n  mload\n    /* \"#utility.yul\":591:593   */\n  dup2\n    /* \"#utility.yul\":587:589   */\n  dup2\n    /* \"#utility.yul\":584:594   */\n  gt\n    /* \"#utility.yul\":581:617   */\n  iszero\n  tag_25\n  jumpi\n    /* \"#utility.yul\":597:615   */\n  tag_25\n  tag_13\n  jump\t// in\ntag_25:\n    /* \"#utility.yul\":672:674   */\n  0x40\n    /* \"#utility.yul\":666:675   */\n  mload\n    /* \"#utility.yul\":640:642   */\n  0x1f\n    /* \"#utility.yul\":726:739   */\n  dup3\n  add\n  not(0x1f)\n    /* \"#utility.yul\":722:744   */\n  swap1\n  dup2\n  and\n    /* \"#utility.yul\":746:748   */\n  0x3f\n    /* \"#utility.yul\":718:749   */\n  add\n    /* \"#utility.yul\":714:754   */\n  and\n    /* \"#utility.yul\":702:755   */\n  dup2\n  add\n  swap1\n    /* \"#utility.yul\":770:788   */\n  dup4\n  dup3\n  gt\n    /* \"#utility.yul\":790:812   */\n  dup2\n  dup4\n  lt\n    /* \"#utility.yul\":767:813   */\n  or\n    /* \"#utility.yul\":764:836   */\n  iszero\n  tag_27\n  jumpi\n    /* \"#utility.yul\":816:834   */\n  tag_27\n  tag_13\n  jump\t// in\ntag_27:\n    /* \"#utility.yul\":856:866   */\n  dup2\n    /* \"#utility.yul\":852:854   */\n  0x40\n    /* \"#utility.yul\":845:867   */\n  mstore\n    /* \"#utility.yul\":891:893   */\n  dup3\n    /* \"#utility.yul\":883:889   */\n  dup2\n    /* \"#utility.yul\":876:894   */\n  mstore\n    /* \"#utility.yul\":931:938   */\n  dup9\n    /* \"#utility.yul\":926:928   */\n  dup7\n    /* \"#utility.yul\":921:923   */\n  dup5\n    /* \"#utility.yul\":917:919   */\n  dup8\n    /* \"#utility.yul\":913:924   */\n  add\n    /* \"#utility.yul\":909:929   */\n  add\n    /* \"#utility.yul\":906:939   */\n  gt\n    /* \"#utility.yul\":903:956   */\n  iszero\n  tag_28\n  jumpi\n    /* \"#utility.yul\":952:953   */\n  0x00\n    /* \"#utility.yul\":949:950   */\n  dup1\n    /* \"#utility.yul\":942:954   */\n  revert\n    /* \"#utility.yul\":903:956   */\ntag_28:\n    /* \"#utility.yul\":974:975   */\n  0x00\n    /* \"#utility.yul\":965:975   */\n  swap4\n  pop\n    /* \"#utility.yul\":984:1113   */\ntag_29:\n    /* \"#utility.yul\":998:1000   */\n  dup3\n    /* \"#utility.yul\":995:996   */\n  dup5\n    /* \"#utility.yul\":992:1001   */\n  lt\n    /* \"#utility.yul\":984:1113   */\n  iszero\n  tag_31\n  jumpi\n    /* \"#utility.yul\":1086:1096   */\n  dup5\n  dup5\n  add\n    /* \"#utility.yul\":1082:1101   */\n  dup7\n  add\n    /* \"#utility.yul\":1076:1102   */\n  mload\n    /* \"#utility.yul\":1055:1069   */\n  dup2\n  dup6\n  add\n    /* \"#utility.yul\":1051:1074   */\n  dup8\n  add\n    /* \"#utility.yul\":1044:1103   */\n  mstore\n    /* \"#utility.yul\":1009:1019   */\n  swap3\n  dup6\n  add\n  swap3\n    /* \"#utility.yul\":984:1113   */\n  jump(tag_29)\ntag_31:\n    /* \"#utility.yul\":1155:1156   */\n  0x00\n    /* \"#utility.yul\":1150:1152   */\n  dup7\n    /* \"#utility.yul\":1145:1147   */\n  dup5\n    /* \"#utility.yul\":1137:1143   */\n  dup4\n    /* \"#utility.yul\":1133:1148   */\n  add\n    /* \"#utility.yul\":1129:1153   */\n  add\n    /* \"#utility.yul\":1122:1157   */\n  mstore\n    /* \"#utility.yul\":1176:1182   */\n  dup1\n    /* \"#utility.yul\":1166:1182   */\n  swap7\n  pop\n  pop\n  pop\n  pop\n  pop\n  pop\n  pop\n    /* \"#utility.yul\":146:1188   */\n  swap3\n  swap2\n  pop\n  pop\n  jump\t// out\n    /* \"#utility.yul\":1193:1573   */\ntag_14:\n    /* \"#utility.yul\":1272:1273   */\n  0x01\n    /* \"#utility.yul\":1268:1280   */\n  dup2\n  dup2\n  shr\n  swap1\n    /* \"#utility.yul\":1315:1327   */\n  dup3\n  and\n  dup1\n    /* \"#utility.yul\":1336:1397   */\n  tag_33\n  jumpi\n    /* \"#utility.yul\":1390:1394   */\n  0x7f\n    /* \"#utility.yul\":1382:1388   */\n  dup3\n    /* \"#utility.yul\":1378:1395   */\n  and\n    /* \"#utility.yul\":1368:1395   */\n  swap2\n  pop\n    /* \"#utility.yul\":1336:1397   */\ntag_33:\n    /* \"#utility.yul\":1443:1445   */\n  0x20\n    /* \"#utility.yul\":1435:1441   */\n  dup3\n    /* \"#utility.yul\":1432:1446   */\n  lt\n    /* \"#utility.yul\":1412:1430   */\n  dup2\n    /* \"#utility.yul\":1409:1447   */\n  sub\n    /* \"#utility.yul\":1406:1567   */\n  tag_34\n  jumpi\n    /* \"#utility.yul\":1489:1499   */\n  0x4e487b71\n    /* \"#utility.yul\":1484:1487   */\n  0xe0\n    /* \"#utility.yul\":1480:1500   */\n  shl\n    /* \"#utility.yul\":1477:1478   */\n  0x00\n    /* \"#utility.yul\":1470:1501   */\n  mstore\n    /* \"#utility.yul\":1524:1528   */\n  0x22\n    /* \"#utility.yul\":1521:1522   */\n  0x04\n    /* \"#utility.yul\":1514:1529   */\n  mstore\n    /* \"#utility.yul\":1552:1556   */\n  0x24\n    /* \"#utility.yul\":1549:1550   */\n  0x00\n    /* \"#utility.yul\":1542:1557   */\n  revert\n    /* \"#utility.yul\":1406:1567   */\ntag_34:\n  pop\n    /* \"#utility.yul\":1193:1573   */\n  swap2\n  swap1\n  pop\n  jump\t// out\n    /* \"#utility.yul\":1704:2249   */\ntag_16:\n    /* \"#utility.yul\":1806:1808   */\n  0x1f\n    /* \"#utility.yul\":1801:1804   */\n  dup3\n    /* \"#utility.yul\":1798:1809   */\n  gt\n    /* \"#utility.yul\":1795:2243   */\n  iszero\n  tag_37\n  jumpi\n    /* \"#utility.yul\":1842:1843   */\n  0x00\n    /* \"#utility.yul\":1867:1872   */\n  dup2\n    /* \"#utility.yul\":1863:1865   */\n  dup2\n    /* \"#utility.yul\":1856:1873   */\n  mstore\n    /* \"#utility.yul\":1912:1916   */\n  0x20\n    /* \"#utility.yul\":1908:1910   */\n  dup2\n    /* \"#utility.yul\":1898:1917   */\n  keccak256\n    /* \"#utility.yul\":1982:1984   */\n  0x1f\n    /* \"#utility.yul\":1970:1980   */\n  dup6\n    /* \"#utility.yul\":1966:1985   */\n  add\n    /* \"#utility.yul\":1963:1964   */\n  0x05\n    /* \"#utility.yul\":1959:1986   */\n  shr\n    /* \"#utility.yul\":1953:1957   */\n  dup2\n    /* \"#utility.yul\":1949:1987   */\n  add\n    /* \"#utility.yul\":2018:2022   */\n  0x20\n    /* \"#utility.yul\":2006:2016   */\n  dup7\n    /* \"#utility.yul\":2003:2023   */\n  lt\n    /* \"#utility.yul\":2000:2047   */\n  iszero\n  tag_38\n  jumpi\n  pop\n    /* \"#utility.yul\":2041:2045   */\n  dup1\n    /* \"#utility.yul\":2000:2047   */\ntag_38:\n    /* \"#utility.yul\":2096:2098   */\n  0x1f\n    /* \"#utility.yul\":2091:2094   */\n  dup6\n    /* \"#utility.yul\":2087:2099   */\n  add\n    /* \"#utility.yul\":2084:2085   */\n  0x05\n    /* \"#utility.yul\":2080:2100   */\n  shr\n    /* \"#utility.yul\":2074:2078   */\n  dup3\n    /* \"#utility.yul\":2070:2101   */\n  add\n    /* \"#utility.yul\":2060:2101   */\n  swap2\n  pop\n    /* \"#utility.yul\":2151:2233   */\ntag_39:\n    /* \"#utility.yul\":2169:2171   */\n  dup2\n    /* \"#utility.yul\":2162:2167   */\n  dup2\n    /* \"#utility.yul\":2159:2172   */\n  lt\n    /* \"#utility.yul\":2151:2233   */\n  iszero\n  tag_41\n  jumpi\n    /* \"#utility.yul\":2214:2231   */\n  dup3\n  dup2\n  sstore\n    /* \"#utility.yul\":2195:2196   */\n  0x01\n    /* \"#utility.yul\":2184:2197   */\n  add\n    /* \"#utility.yul\":2151:2233   */\n  jump(tag_39)\ntag_41:\n    /* \"#utility.yul\":2155:2158   */\n  pop\n  pop\n  pop\n    /* \"#utility.yul\":1795:2243   */\ntag_37:\n    /* \"#utility.yul\":1704:2249   */\n  pop\n  pop\n  pop\n  jump\t// out\n    /* \"#utility.yul\":2425:3777   */\ntag_11:\n    /* \"#utility.yul\":2545:2555   */\n  dup2\n  mload\n  sub(shl(0x40, 0x01), 0x01)\n    /* \"#utility.yul\":2567:2597   */\n  dup2\n  gt\n    /* \"#utility.yul\":2564:2620   */\n  iszero\n  tag_45\n  jumpi\n    /* \"#utility.yul\":2600:2618   */\n  tag_45\n  tag_13\n  jump\t// in\ntag_45:\n    /* \"#utility.yul\":2629:2726   */\n  tag_46\n    /* \"#utility.yul\":2719:2725   */\n  dup2\n    /* \"#utility.yul\":2679:2717   */\n  tag_47\n    /* \"#utility.yul\":2711:2715   */\n  dup5\n    /* \"#utility.yul\":2705:2716   */\n  sload\n    /* \"#utility.yul\":2679:2717   */\n  tag_14\n  jump\t// in\ntag_47:\n    /* \"#utility.yul\":2673:2677   */\n  dup5\n    /* \"#utility.yul\":2629:2726   */\n  tag_16\n  jump\t// in\ntag_46:\n    /* \"#utility.yul\":2781:2785   */\n  0x20\n  dup1\n    /* \"#utility.yul\":2845:2847   */\n  0x1f\n    /* \"#utility.yul\":2834:2848   */\n  dup4\n  gt\n    /* \"#utility.yul\":2862:2863   */\n  0x01\n    /* \"#utility.yul\":2857:3520   */\n  dup2\n  eq\n  tag_49\n  jumpi\n    /* \"#utility.yul\":3564:3565   */\n  0x00\n    /* \"#utility.yul\":3581:3587   */\n  dup5\n    /* \"#utility.yul\":3578:3667   */\n  iszero\n  tag_50\n  jumpi\n  pop\n    /* \"#utility.yul\":3633:3652   */\n  dup6\n  dup4\n  add\n    /* \"#utility.yul\":3627:3653   */\n  mload\n    /* \"#utility.yul\":3578:3667   */\ntag_50:\n  not(0x00)\n    /* \"#utility.yul\":2382:2383   */\n  0x03\n    /* \"#utility.yul\":2378:2389   */\n  dup7\n  swap1\n  shl\n    /* \"#utility.yul\":2374:2398   */\n  shr\n    /* \"#utility.yul\":2370:2399   */\n  not\n    /* \"#utility.yul\":2360:2400   */\n  and\n    /* \"#utility.yul\":2406:2407   */\n  0x01\n    /* \"#utility.yul\":2402:2413   */\n  dup6\n  swap1\n  shl\n    /* \"#utility.yul\":2357:2414   */\n  or\n    /* \"#utility.yul\":3680:3761   */\n  dup6\n  sstore\n    /* \"#utility.yul\":2827:3771   */\n  jump(tag_41)\n    /* \"#utility.yul\":2857:3520   */\ntag_49:\n    /* \"#utility.yul\":1651:1652   */\n  0x00\n    /* \"#utility.yul\":1644:1658   */\n  dup6\n  dup2\n  mstore\n    /* \"#utility.yul\":1688:1692   */\n  0x20\n    /* \"#utility.yul\":1675:1693   */\n  dup2\n  keccak256\n  not(0x1f)\n    /* \"#utility.yul\":2893:2913   */\n  dup7\n  and\n  swap2\n    /* \"#utility.yul\":3011:3247   */\ntag_53:\n    /* \"#utility.yul\":3025:3032   */\n  dup3\n    /* \"#utility.yul\":3022:3023   */\n  dup2\n    /* \"#utility.yul\":3019:3033   */\n  lt\n    /* \"#utility.yul\":3011:3247   */\n  iszero\n  tag_55\n  jumpi\n    /* \"#utility.yul\":3114:3133   */\n  dup9\n  dup7\n  add\n    /* \"#utility.yul\":3108:3134   */\n  mload\n    /* \"#utility.yul\":3093:3135   */\n  dup3\n  sstore\n    /* \"#utility.yul\":3206:3233   */\n  swap5\n  dup5\n  add\n  swap5\n    /* \"#utility.yul\":3174:3175   */\n  0x01\n    /* \"#utility.yul\":3162:3176   */\n  swap1\n  swap2\n  add\n  swap1\n    /* \"#utility.yul\":3041:3060   */\n  dup5\n  add\n    /* \"#utility.yul\":3011:3247   */\n  jump(tag_53)\ntag_55:\n    /* \"#utility.yul\":3015:3018   */\n  pop\n    /* \"#utility.yul\":3275:3281   */\n  dup6\n    /* \"#utility.yul\":3266:3273   */\n  dup3\n    /* \"#utility.yul\":3263:3282   */\n  lt\n    /* \"#utility.yul\":3260:3461   */\n  iszero\n  tag_56\n  jumpi\n    /* \"#utility.yul\":3336:3355   */\n  dup8\n  dup6\n  add\n    /* \"#utility.yul\":3330:3356   */\n  mload\n  not(0x00)\n    /* \"#utility.yul\":3419:3420   */\n  0x03\n    /* \"#utility.yul\":3415:3429   */\n  dup9\n  swap1\n  shl\n    /* \"#utility.yul\":3431:3434   */\n  0xf8\n    /* \"#utility.yul\":3411:3435   */\n  and\n    /* \"#utility.yul\":3407:3444   */\n  shr\n    /* \"#utility.yul\":3403:3445   */\n  not\n    /* \"#utility.yul\":3388:3446   */\n  and\n    /* \"#utility.yul\":3373:3447   */\n  dup2\n  sstore\n    /* \"#utility.yul\":3260:3461   */\ntag_56:\n  pop\n  pop\n  pop\n  pop\n  pop\n    /* \"#utility.yul\":3507:3508   */\n  0x01\n    /* \"#utility.yul\":3491:3505   */\n  swap1\n  dup2\n  shl\n    /* \"#utility.yul\":3487:3509   */\n  add\n    /* \"#utility.yul\":3474:3510   */\n  swap1\n  sstore\n  pop\n    /* \"#utility.yul\":2425:3777   */\n  jump\t// out\ntag_18:\n    /* \"ds-token/token.sol\":877:3082  contract DSToken is DSTokenBase(0), DSStop {... */\n  dataSize(sub_0)\n  dup1\n  dataOffset(sub_0)\n  0x00\n  codecopy\n  0x00\n  return\nstop\n\nsub_0: assembly {\n        /* \"ds-token/token.sol\":877:3082  contract DSToken is DSTokenBase(0), DSStop {... */\n      mstore(0x40, 0x80)\n      jumpi(tag_1, lt(calldatasize, 0x04))\n      shr(0xe0, calldataload(0x00))\n      dup1\n      0x8da5cb5b\n      gt\n      tag_27\n      jumpi\n      dup1\n      0xbb35783b\n      gt\n      tag_28\n      jumpi\n      dup1\n      0xc47f0027\n      gt\n      tag_29\n      jumpi\n      dup1\n      0xc47f0027\n      eq\n      tag_23\n      jumpi\n      dup1\n      0xdaea85c5\n      eq\n      tag_24\n      jumpi\n      dup1\n      0xdd62ed3e\n      eq\n      tag_25\n      jumpi\n      dup1\n      0xf2d5d56b\n      eq\n      tag_26\n      jumpi\n      0x00\n      dup1\n      revert\n    tag_29:\n      dup1\n      0xbb35783b\n      eq\n      tag_20\n      jumpi\n      dup1\n      0xbe9a6555\n      eq\n      tag_21\n      jumpi\n      dup1\n      0xbf7e214f\n      eq\n      tag_22\n      jumpi\n      0x00\n      dup1\n      revert\n    tag_28:\n      dup1\n      0x8da5cb5b\n      eq\n      tag_14\n      jumpi\n      dup1\n      0x95d89b41\n      eq\n      tag_15\n      jumpi\n      dup1\n      0x9dc29fac\n      eq\n      tag_16\n      jumpi\n      dup1\n      0xa0712d68\n      eq\n      tag_17\n      jumpi\n      dup1\n      0xa9059cbb\n      eq\n      tag_18\n      jumpi\n      dup1\n      0xb753a98c\n      eq\n      tag_19\n      jumpi\n      0x00\n      dup1\n      revert\n    tag_27:\n      dup1\n      0x313ce567\n      gt\n      tag_30\n      jumpi\n      dup1\n      0x313ce567\n      eq\n      tag_8\n      jumpi\n      dup1\n      0x40c10f19\n      eq\n      tag_9\n      jumpi\n      dup1\n      0x42966c68\n      eq\n      tag_10\n      jumpi\n      dup1\n      0x70a08231\n      eq\n      tag_11\n      jumpi\n      dup1\n      0x75f12b21\n      eq\n      tag_12\n      jumpi\n      dup1\n      0x7a9e5e4b\n      eq\n      tag_13\n      jumpi\n      0x00\n      dup1\n      revert\n    tag_30:\n      dup1\n      0x06fdde03\n      eq\n      tag_2\n      jumpi\n      dup1\n      0x07da68f5\n      eq\n      tag_3\n      jumpi\n      dup1\n      0x095ea7b3\n      eq\n      tag_4\n      jumpi\n      dup1\n      0x13af4035\n      eq\n      tag_5\n      jumpi\n      dup1\n      0x18160ddd\n      eq\n      tag_6\n      jumpi\n      dup1\n      0x23b872dd\n      eq\n      tag_7\n      jumpi\n    tag_1:\n      0x00\n      dup1\n      revert\n        /* \"ds-token/token.sol\":1042:1060  string public name */\n    tag_2:\n      callvalue\n      dup1\n      iszero\n      tag_31\n      jumpi\n      0x00\n      dup1\n      revert\n    tag_31:\n      pop\n      tag_32\n      tag_33\n      jump\t// in\n    tag_32:\n      mload(0x40)\n      tag_34\n      swap2\n      swap1\n      tag_35\n      jump\t// in\n    tag_34:\n      mload(0x40)\n      dup1\n      swap2\n      sub\n      swap1\n      return\n        /* \"ds-stop/stop.sol\":953:1025  function stop() public auth payable note {... */\n    tag_3:\n      tag_36\n      tag_37\n      jump\t// in\n    tag_36:\n      stop\n        /* \"ds-token/token.sol\":1372:1500  function approve(address guy, uint wad) public stoppable override returns (bool) {... */\n    tag_4:\n      callvalue\n      dup1\n      iszero\n      tag_38\n      jumpi\n      0x00\n      dup1\n      revert\n    tag_38:\n      pop\n      tag_39\n      tag_40\n      calldatasize\n      0x04\n      tag_41\n      jump\t// in\n    tag_40:\n      tag_42\n      jump\t// in\n    tag_39:\n      mload(0x40)\n        /* \"#utility.yul\":1188:1202   */\n      swap1\n      iszero\n        /* \"#utility.yul\":1181:1203   */\n      iszero\n        /* \"#utility.yul\":1163:1204   */\n      dup2\n      mstore\n        /* \"#utility.yul\":1151:1153   */\n      0x20\n        /* \"#utility.yul\":1136:1154   */\n      add\n        /* \"ds-token/token.sol\":1372:1500  function approve(address guy, uint wad) public stoppable override returns (bool) {... */\n      tag_34\n        /* \"#utility.yul\":1023:1210   */\n      jump\n        /* \"ds-auth/auth.sol\":1173:1303  function setOwner(address owner_)... */\n    tag_5:\n      callvalue\n      dup1\n      iszero\n      tag_45\n      jumpi\n      0x00\n      dup1\n      revert\n    tag_45:\n      pop\n      tag_36\n      tag_47\n      calldatasize\n      0x04\n      tag_48\n      jump\t// in\n    tag_47:\n      tag_49\n      jump\t// in\n        /* \"ds-token/base.sol\":1169:1259  function totalSupply() public view override returns (uint) {... */\n    tag_6:\n      callvalue\n      dup1\n      iszero\n      tag_50\n      jumpi\n      0x00\n      dup1\n      revert\n    tag_50:\n      pop\n        /* \"ds-token/base.sol\":1222:1226  uint */\n      0x00\n        /* \"ds-token/base.sol\":1245:1252  _supply */\n      sload\n        /* \"ds-token/base.sol\":1169:1259  function totalSupply() public view override returns (uint) {... */\n    tag_51:\n      mload(0x40)\n        /* \"#utility.yul\":1613:1638   */\n      swap1\n      dup2\n      mstore\n        /* \"#utility.yul\":1601:1603   */\n      0x20\n        /* \"#utility.yul\":1586:1604   */\n      add\n        /* \"ds-token/base.sol\":1169:1259  function totalSupply() public view override returns (uint) {... */\n      tag_34\n        /* \"#utility.yul\":1467:1644   */\n      jump\n        /* \"ds-token/token.sol\":1506:1978  function transferFrom(address src, address dst, uint wad)... */\n    tag_7:\n      callvalue\n      dup1\n      iszero\n      tag_55\n      jumpi\n      0x00\n      dup1\n      revert\n    tag_55:\n      pop\n      tag_39\n      tag_57\n      calldatasize\n      0x04\n      tag_58\n      jump\t// in\n    tag_57:\n      tag_59\n      jump\t// in\n        /* \"ds-token/token.sol\":955:985  uint256  public  decimals = 18 */\n    tag_8:\n      callvalue\n      dup1\n      iszero\n      tag_61\n      jumpi\n      0x00\n      dup1\n      revert\n    tag_61:\n      pop\n      tag_51\n      sload(0x06)\n      dup2\n      jump\n        /* \"ds-token/token.sol\":2439:2614  function mint(address guy, uint wad) public auth stoppable {... */\n    tag_9:\n      callvalue\n      dup1\n      iszero\n      tag_65\n      jumpi\n      0x00\n      dup1\n      revert\n    tag_65:\n      pop\n      tag_36\n      tag_67\n      calldatasize\n      0x04\n      tag_41\n      jump\t// in\n    tag_67:\n      tag_68\n      jump\t// in\n        /* \"ds-token/token.sol\":2365:2434  function burn(uint wad) public {... */\n    tag_10:\n      callvalue\n      dup1\n      iszero\n      tag_69\n      jumpi\n      0x00\n      dup1\n      revert\n    tag_69:\n      pop\n      tag_36\n      tag_71\n      calldatasize\n      0x04\n      tag_72\n      jump\t// in\n    tag_71:\n      tag_73\n      jump\t// in\n        /* \"ds-token/base.sol\":1264:1370  function balanceOf(address src) public view override returns (uint) {... */\n    tag_11:\n      callvalue\n      dup1\n      iszero\n      tag_74\n      jumpi\n      0x00\n      dup1\n      revert\n    tag_74:\n      pop\n      tag_51\n      tag_76\n      calldatasize\n      0x04\n      tag_48\n      jump\t// in\n    tag_76:\n      sub(shl(0xa0, 0x01), 0x01)\n        /* \"ds-token/base.sol\":1349:1363  _balances[src] */\n      and\n        /* \"ds-token/base.sol\":1326:1330  uint */\n      0x00\n        /* \"ds-token/base.sol\":1349:1363  _balances[src] */\n      swap1\n      dup2\n      mstore\n        /* \"ds-token/base.sol\":1349:1358  _balances */\n      0x01\n        /* \"ds-token/base.sol\":1349:1363  _balances[src] */\n      0x20\n      mstore\n      0x40\n      swap1\n      keccak256\n      sload\n      swap1\n        /* \"ds-token/base.sol\":1264:1370  function balanceOf(address src) public view override returns (uint) {... */\n      jump\n        /* \"ds-stop/stop.sol\":858:877  bool public stopped */\n    tag_12:\n      callvalue\n      dup1\n      iszero\n      tag_79\n      jumpi\n      0x00\n      dup1\n      revert\n    tag_79:\n      pop\n      sload(0x04)\n      tag_39\n      swap1\n      shl(0xa0, 0x01)\n      swap1\n      div\n      0xff\n      and\n      dup2\n      jump\n        /* \"ds-auth/auth.sol\":1309:1476  function setAuthority(DSAuthority authority_)... */\n    tag_13:\n      callvalue\n      dup1\n      iszero\n      tag_83\n      jumpi\n      0x00\n      dup1\n      revert\n    tag_83:\n      pop\n      tag_36\n      tag_85\n      calldatasize\n      0x04\n      tag_48\n      jump\t// in\n    tag_85:\n      tag_87\n      jump\t// in\n        /* \"ds-auth/auth.sol\":1040:1066  address      public  owner */\n    tag_14:\n      callvalue\n      dup1\n      iszero\n      tag_88\n      jumpi\n      0x00\n      dup1\n      revert\n    tag_88:\n      pop\n      sload(0x04)\n      tag_89\n      swap1\n      sub(shl(0xa0, 0x01), 0x01)\n      and\n      dup2\n      jump\n    tag_89:\n      mload(0x40)\n      sub(shl(0xa0, 0x01), 0x01)\n        /* \"#utility.yul\":2729:2761   */\n      swap1\n      swap2\n      and\n        /* \"#utility.yul\":2711:2762   */\n      dup2\n      mstore\n        /* \"#utility.yul\":2699:2701   */\n      0x20\n        /* \"#utility.yul\":2684:2702   */\n      add\n        /* \"ds-auth/auth.sol\":1040:1066  address      public  owner */\n      tag_34\n        /* \"#utility.yul\":2565:2768   */\n      jump\n        /* \"ds-token/token.sol\":927:949  string  public  symbol */\n    tag_15:\n      callvalue\n      dup1\n      iszero\n      tag_93\n      jumpi\n      0x00\n      dup1\n      revert\n    tag_93:\n      pop\n      tag_32\n      tag_95\n      jump\t// in\n        /* \"ds-token/token.sol\":2619:2967  function burn(address guy, uint wad) public auth stoppable {... */\n    tag_16:\n      callvalue\n      dup1\n      iszero\n      tag_97\n      jumpi\n      0x00\n      dup1\n      revert\n    tag_97:\n      pop\n      tag_36\n      tag_99\n      calldatasize\n      0x04\n      tag_41\n      jump\t// in\n    tag_99:\n      tag_100\n      jump\t// in\n        /* \"ds-token/token.sol\":2291:2360  function mint(uint wad) public {... */\n    tag_17:\n      callvalue\n      dup1\n      iszero\n      tag_101\n      jumpi\n      0x00\n      dup1\n      revert\n    tag_101:\n      pop\n      tag_36\n      tag_103\n      calldatasize\n      0x04\n      tag_72\n      jump\t// in\n    tag_103:\n      tag_104\n      jump\t// in\n        /* \"ds-token/base.sol\":1506:1636  function transfer(address dst, uint wad) public override returns (bool) {... */\n    tag_18:\n      callvalue\n      dup1\n      iszero\n      tag_105\n      jumpi\n      0x00\n      dup1\n      revert\n    tag_105:\n      pop\n      tag_39\n      tag_107\n      calldatasize\n      0x04\n      tag_41\n      jump\t// in\n    tag_107:\n      tag_108\n      jump\t// in\n        /* \"ds-token/token.sol\":1984:2079  function push(address dst, uint wad) public {... */\n    tag_19:\n      callvalue\n      dup1\n      iszero\n      tag_110\n      jumpi\n      0x00\n      dup1\n      revert\n    tag_110:\n      pop\n      tag_36\n      tag_112\n      calldatasize\n      0x04\n      tag_41\n      jump\t// in\n    tag_112:\n      tag_113\n      jump\t// in\n        /* \"ds-token/token.sol\":2184:2285  function move(address src, address dst, uint wad) public {... */\n    tag_20:\n      callvalue\n      dup1\n      iszero\n      tag_114\n      jumpi\n      0x00\n      dup1\n      revert\n    tag_114:\n      pop\n      tag_36\n      tag_116\n      calldatasize\n      0x04\n      tag_58\n      jump\t// in\n    tag_116:\n      tag_117\n      jump\t// in\n        /* \"ds-stop/stop.sol\":1030:1104  function start() public auth payable note {... */\n    tag_21:\n      tag_36\n      tag_119\n      jump\t// in\n        /* \"ds-auth/auth.sol\":1004:1034  DSAuthority  public  authority */\n    tag_22:\n      callvalue\n      dup1\n      iszero\n      tag_120\n      jumpi\n      0x00\n      dup1\n      revert\n    tag_120:\n      pop\n      sload(0x03)\n      tag_89\n      swap1\n      sub(shl(0xa0, 0x01), 0x01)\n      and\n      dup2\n      jump\n        /* \"ds-token/token.sol\":3001:3080  function setName(string memory name_) public auth {... */\n    tag_23:\n      callvalue\n      dup1\n      iszero\n      tag_125\n      jumpi\n      0x00\n      dup1\n      revert\n    tag_125:\n      pop\n      tag_36\n      tag_127\n      calldatasize\n      0x04\n      tag_128\n      jump\t// in\n    tag_127:\n      tag_129\n      jump\t// in\n        /* \"ds-token/token.sol\":1243:1366  function approve(address guy) public stoppable returns (bool) {... */\n    tag_24:\n      callvalue\n      dup1\n      iszero\n      tag_130\n      jumpi\n      0x00\n      dup1\n      revert\n    tag_130:\n      pop\n      tag_39\n      tag_132\n      calldatasize\n      0x04\n      tag_48\n      jump\t// in\n    tag_132:\n      tag_133\n      jump\t// in\n        /* \"ds-token/base.sol\":1375:1500  function allowance(address src, address guy) public view override returns (uint) {... */\n    tag_25:\n      callvalue\n      dup1\n      iszero\n      tag_135\n      jumpi\n      0x00\n      dup1\n      revert\n    tag_135:\n      pop\n      tag_51\n      tag_137\n      calldatasize\n      0x04\n      tag_138\n      jump\t// in\n    tag_137:\n      sub(shl(0xa0, 0x01), 0x01)\n        /* \"ds-token/base.sol\":1473:1488  _approvals[src] */\n      swap2\n      dup3\n      and\n        /* \"ds-token/base.sol\":1450:1454  uint */\n      0x00\n        /* \"ds-token/base.sol\":1473:1488  _approvals[src] */\n      swap1\n      dup2\n      mstore\n        /* \"ds-token/base.sol\":1473:1483  _approvals */\n      0x02\n        /* \"ds-token/base.sol\":1473:1488  _approvals[src] */\n      0x20\n      swap1\n      dup2\n      mstore\n      0x40\n      dup1\n      dup4\n      keccak256\n        /* \"ds-token/base.sol\":1473:1493  _approvals[src][guy] */\n      swap4\n      swap1\n      swap5\n      and\n      dup3\n      mstore\n      swap2\n      swap1\n      swap2\n      mstore\n      keccak256\n      sload\n      swap1\n        /* \"ds-token/base.sol\":1375:1500  function allowance(address src, address guy) public view override returns (uint) {... */\n      jump\n        /* \"ds-token/token.sol\":2084:2179  function pull(address src, uint wad) public {... */\n    tag_26:\n      callvalue\n      dup1\n      iszero\n      tag_141\n      jumpi\n      0x00\n      dup1\n      revert\n    tag_141:\n      pop\n      tag_36\n      tag_143\n      calldatasize\n      0x04\n      tag_41\n      jump\t// in\n    tag_143:\n      tag_144\n      jump\t// in\n        /* \"ds-token/token.sol\":1042:1060  string public name */\n    tag_33:\n      0x07\n      dup1\n      sload\n      tag_145\n      swap1\n      tag_146\n      jump\t// in\n    tag_145:\n      dup1\n      0x1f\n      add\n      0x20\n      dup1\n      swap2\n      div\n      mul\n      0x20\n      add\n      mload(0x40)\n      swap1\n      dup2\n      add\n      0x40\n      mstore\n      dup1\n      swap3\n      swap2\n      swap1\n      dup2\n      dup2\n      mstore\n      0x20\n      add\n      dup3\n      dup1\n      sload\n      tag_147\n      swap1\n      tag_146\n      jump\t// in\n    tag_147:\n      dup1\n      iszero\n      tag_148\n      jumpi\n      dup1\n      0x1f\n      lt\n      tag_149\n      jumpi\n      0x0100\n      dup1\n      dup4\n      sload\n      div\n      mul\n      dup4\n      mstore\n      swap2\n      0x20\n      add\n      swap2\n      jump(tag_148)\n    tag_149:\n      dup3\n      add\n      swap2\n      swap1\n      0x00\n      mstore\n      keccak256(0x00, 0x20)\n      swap1\n    tag_150:\n      dup2\n      sload\n      dup2\n      mstore\n      swap1\n      0x01\n      add\n      swap1\n      0x20\n      add\n      dup1\n      dup4\n      gt\n      tag_150\n      jumpi\n      dup3\n      swap1\n      sub\n      0x1f\n      and\n      dup3\n      add\n      swap2\n    tag_148:\n      pop\n      pop\n      pop\n      pop\n      pop\n      dup2\n      jump\t// out\n        /* \"ds-stop/stop.sol\":953:1025  function stop() public auth payable note {... */\n    tag_37:\n        /* \"ds-auth/auth.sol\":1514:1547  isAuthorized(msg.sender, msg.sig) */\n      tag_152\n        /* \"ds-auth/auth.sol\":1527:1537  msg.sender */\n      caller\n        /* \"ds-auth/auth.sol\":1539:1546  msg.sig */\n      and(not(sub(shl(0xe0, 0x01), 0x01)), calldataload(0x00))\n        /* \"ds-auth/auth.sol\":1514:1526  isAuthorized */\n      tag_153\n        /* \"ds-auth/auth.sol\":1514:1547  isAuthorized(msg.sender, msg.sig) */\n      jump\t// in\n    tag_152:\n        /* \"ds-auth/auth.sol\":1506:1572  require(isAuthorized(msg.sender, msg.sig), \"ds-auth-unauthorized\") */\n      tag_154\n      jumpi\n      mload(0x40)\n      shl(0xe5, 0x461bcd)\n      dup2\n      mstore\n      0x04\n      add\n      tag_155\n      swap1\n      tag_156\n      jump\t// in\n    tag_155:\n      mload(0x40)\n      dup1\n      swap2\n      sub\n      swap1\n      revert\n    tag_154:\n        /* \"ds-note/note.sol\":1152:1211  LogNote(msg.sig, msg.sender, foo, bar, msg.value, msg.data) */\n      mload(0x40)\n        /* \"ds-note/note.sol\":1089:1090  4 */\n      0x04\n        /* \"ds-note/note.sol\":1076:1091  calldataload(4) */\n      calldataload\n      swap1\n        /* \"ds-note/note.sol\":1124:1126  36 */\n      0x24\n        /* \"ds-note/note.sol\":1111:1127  calldataload(36) */\n      calldataload\n      swap1\n      dup2\n      swap1\n        /* \"ds-note/note.sol\":1076:1091  calldataload(4) */\n      dup4\n      swap1\n        /* \"ds-note/note.sol\":1169:1179  msg.sender */\n      caller\n      swap1\n        /* \"ds-note/note.sol\":1003:1014  bytes32 foo */\n      0x00\n        /* \"ds-note/note.sol\":1160:1167  msg.sig */\n      dup1\n      calldataload\n      not(sub(shl(0xe0, 0x01), 0x01))\n      and\n      swap2\n        /* \"ds-note/note.sol\":1152:1211  LogNote(msg.sig, msg.sender, foo, bar, msg.value, msg.data) */\n      tag_158\n      swap2\n        /* \"ds-note/note.sol\":1191:1200  msg.value */\n      callvalue\n      swap2\n        /* \"ds-note/note.sol\":1202:1210  msg.data */\n      calldatasize\n      swap1\n        /* \"ds-note/note.sol\":1152:1211  LogNote(msg.sig, msg.sender, foo, bar, msg.value, msg.data) */\n      tag_159\n      jump\t// in\n    tag_158:\n      mload(0x40)\n      dup1\n      swap2\n      sub\n      swap1\n      log4\n      pop\n      pop\n        /* \"ds-stop/stop.sol\":1004:1011  stopped */\n      0x04\n        /* \"ds-stop/stop.sol\":1004:1018  stopped = true */\n      dup1\n      sload\n      not(shl(0xa0, 0xff))\n      and\n      shl(0xa0, 0x01)\n      or\n      swap1\n      sstore\n        /* \"ds-stop/stop.sol\":953:1025  function stop() public auth payable note {... */\n      jump\t// out\n        /* \"ds-token/token.sol\":1372:1500  function approve(address guy, uint wad) public stoppable override returns (bool) {... */\n    tag_42:\n        /* \"ds-stop/stop.sol\":922:929  stopped */\n      sload(0x04)\n        /* \"ds-token/token.sol\":1447:1451  bool */\n      0x00\n      swap1\n      shl(0xa0, 0x01)\n        /* \"ds-stop/stop.sol\":922:929  stopped */\n      swap1\n      div\n      0xff\n      and\n        /* \"ds-stop/stop.sol\":921:929  !stopped */\n      iszero\n        /* \"ds-stop/stop.sol\":913:930  require(!stopped) */\n      tag_162\n      jumpi\n      0x00\n      dup1\n      revert\n    tag_162:\n        /* \"ds-token/token.sol\":1470:1493  super.approve(guy, wad) */\n      tag_164\n        /* \"ds-token/token.sol\":1484:1487  guy */\n      dup4\n        /* \"ds-token/token.sol\":1489:1492  wad */\n      dup4\n        /* \"ds-token/token.sol\":1470:1483  super.approve */\n      tag_165\n        /* \"ds-token/token.sol\":1470:1493  super.approve(guy, wad) */\n      jump\t// in\n    tag_164:\n        /* \"ds-token/token.sol\":1463:1493  return super.approve(guy, wad) */\n      swap1\n      pop\n        /* \"ds-stop/stop.sol\":940:941  _ */\n    tag_163:\n        /* \"ds-token/token.sol\":1372:1500  function approve(address guy, uint wad) public stoppable override returns (bool) {... */\n      swap3\n      swap2\n      pop\n      pop\n      jump\t// out\n        /* \"ds-auth/auth.sol\":1173:1303  function setOwner(address owner_)... */\n    tag_49:\n        /* \"ds-auth/auth.sol\":1514:1547  isAuthorized(msg.sender, msg.sig) */\n      tag_167\n        /* \"ds-auth/auth.sol\":1527:1537  msg.sender */\n      caller\n        /* \"ds-auth/auth.sol\":1539:1546  msg.sig */\n      and(not(sub(shl(0xe0, 0x01), 0x01)), calldataload(0x00))\n        /* \"ds-auth/auth.sol\":1514:1526  isAuthorized */\n      tag_153\n        /* \"ds-auth/auth.sol\":1514:1547  isAuthorized(msg.sender, msg.sig) */\n      jump\t// in\n    tag_167:\n        /* \"ds-auth/auth.sol\":1506:1572  require(isAuthorized(msg.sender, msg.sig), \"ds-auth-unauthorized\") */\n      tag_168\n      jumpi\n      mload(0x40)\n      shl(0xe5, 0x461bcd)\n      dup2\n      mstore\n      0x04\n      add\n      tag_155\n      swap1\n      tag_156\n      jump\t// in\n    tag_168:\n        /* \"ds-auth/auth.sol\":1249:1254  owner */\n      0x04\n        /* \"ds-auth/auth.sol\":1249:1263  owner = owner_ */\n      dup1\n      sload\n      not(sub(shl(0xa0, 0x01), 0x01))\n      and\n      sub(shl(0xa0, 0x01), 0x01)\n      dup4\n      and\n      swap1\n      dup2\n      or\n      swap1\n      swap2\n      sstore\n        /* \"ds-auth/auth.sol\":1278:1296  LogSetOwner(owner) */\n      mload(0x40)\n      0xce241d7ca1f669fee44b6fc00b8eba2df3bb514eed0f6f668f8f89096e81ed94\n      swap1\n      0x00\n      swap1\n      log2\n        /* \"ds-auth/auth.sol\":1173:1303  function setOwner(address owner_)... */\n      pop\n      jump\t// out\n        /* \"ds-token/token.sol\":1506:1978  function transferFrom(address src, address dst, uint wad)... */\n    tag_59:\n        /* \"ds-stop/stop.sol\":922:929  stopped */\n      sload(0x04)\n        /* \"ds-token/token.sol\":1633:1637  bool */\n      0x00\n      swap1\n      shl(0xa0, 0x01)\n        /* \"ds-stop/stop.sol\":922:929  stopped */\n      swap1\n      div\n      0xff\n      and\n        /* \"ds-stop/stop.sol\":921:929  !stopped */\n      iszero\n        /* \"ds-stop/stop.sol\":913:930  require(!stopped) */\n      tag_173\n      jumpi\n      0x00\n      dup1\n      revert\n    tag_173:\n      sub(shl(0xa0, 0x01), 0x01)\n        /* \"ds-token/token.sol\":1657:1674  src != msg.sender */\n      dup5\n      and\n        /* \"ds-token/token.sol\":1664:1674  msg.sender */\n      caller\n        /* \"ds-token/token.sol\":1657:1674  src != msg.sender */\n      eq\n      dup1\n      iszero\n      swap1\n        /* \"ds-token/token.sol\":1657:1726  src != msg.sender && _approvals[src][msg.sender] != type(uint256).max */\n      tag_175\n      jumpi\n      pop\n      sub(shl(0xa0, 0x01), 0x01)\n        /* \"ds-token/token.sol\":1678:1693  _approvals[src] */\n      dup5\n      and\n      0x00\n      swap1\n      dup2\n      mstore\n        /* \"ds-token/token.sol\":1678:1688  _approvals */\n      0x02\n        /* \"ds-token/token.sol\":1678:1693  _approvals[src] */\n      0x20\n      swap1\n      dup2\n      mstore\n      0x40\n      dup1\n      dup4\n      keccak256\n        /* \"ds-token/token.sol\":1694:1704  msg.sender */\n      caller\n        /* \"ds-token/token.sol\":1678:1705  _approvals[src][msg.sender] */\n      dup5\n      mstore\n      swap1\n      swap2\n      mstore\n      swap1\n      keccak256\n      sload\n      not(0x00)\n        /* \"ds-token/token.sol\":1678:1726  _approvals[src][msg.sender] != type(uint256).max */\n      eq\n      iszero\n        /* \"ds-token/token.sol\":1657:1726  src != msg.sender && _approvals[src][msg.sender] != type(uint256).max */\n    tag_175:\n        /* \"ds-token/token.sol\":1653:1816  if (src != msg.sender && _approvals[src][msg.sender] != type(uint256).max) {... */\n      iszero\n      tag_176\n      jumpi\n      sub(shl(0xa0, 0x01), 0x01)\n        /* \"ds-token/token.sol\":1772:1787  _approvals[src] */\n      dup5\n      and\n      0x00\n      swap1\n      dup2\n      mstore\n        /* \"ds-token/token.sol\":1772:1782  _approvals */\n      0x02\n        /* \"ds-token/token.sol\":1772:1787  _approvals[src] */\n      0x20\n      swap1\n      dup2\n      mstore\n      0x40\n      dup1\n      dup4\n      keccak256\n        /* \"ds-token/token.sol\":1788:1798  msg.sender */\n      caller\n        /* \"ds-token/token.sol\":1772:1799  _approvals[src][msg.sender] */\n      dup5\n      mstore\n      swap1\n      swap2\n      mstore\n      swap1\n      keccak256\n      sload\n        /* \"ds-token/token.sol\":1772:1805  _approvals[src][msg.sender] - wad */\n      tag_177\n      swap1\n        /* \"ds-token/token.sol\":1802:1805  wad */\n      dup4\n      swap1\n        /* \"ds-token/token.sol\":1772:1805  _approvals[src][msg.sender] - wad */\n      tag_178\n      jump\t// in\n    tag_177:\n      sub(shl(0xa0, 0x01), 0x01)\n        /* \"ds-token/token.sol\":1742:1757  _approvals[src] */\n      dup6\n      and\n      0x00\n      swap1\n      dup2\n      mstore\n        /* \"ds-token/token.sol\":1742:1752  _approvals */\n      0x02\n        /* \"ds-token/token.sol\":1742:1757  _approvals[src] */\n      0x20\n      swap1\n      dup2\n      mstore\n      0x40\n      dup1\n      dup4\n      keccak256\n        /* \"ds-token/token.sol\":1758:1768  msg.sender */\n      caller\n        /* \"ds-token/token.sol\":1742:1769  _approvals[src][msg.sender] */\n      dup5\n      mstore\n      swap1\n      swap2\n      mstore\n      swap1\n      keccak256\n        /* \"ds-token/token.sol\":1742:1805  _approvals[src][msg.sender] = _approvals[src][msg.sender] - wad */\n      sstore\n        /* \"ds-token/token.sol\":1653:1816  if (src != msg.sender && _approvals[src][msg.sender] != type(uint256).max) {... */\n    tag_176:\n      sub(shl(0xa0, 0x01), 0x01)\n        /* \"ds-token/token.sol\":1843:1857  _balances[src] */\n      dup5\n      and\n      0x00\n      swap1\n      dup2\n      mstore\n        /* \"ds-token/token.sol\":1843:1852  _balances */\n      0x01\n        /* \"ds-token/token.sol\":1843:1857  _balances[src] */\n      0x20\n      mstore\n      0x40\n      swap1\n      keccak256\n      sload\n        /* \"ds-token/token.sol\":1843:1863  _balances[src] - wad */\n      tag_179\n      swap1\n        /* \"ds-token/token.sol\":1860:1863  wad */\n      dup4\n      swap1\n        /* \"ds-token/token.sol\":1843:1863  _balances[src] - wad */\n      tag_178\n      jump\t// in\n    tag_179:\n      sub(shl(0xa0, 0x01), 0x01)\n        /* \"ds-token/token.sol\":1826:1840  _balances[src] */\n      dup1\n      dup7\n      and\n      0x00\n      swap1\n      dup2\n      mstore\n        /* \"ds-token/token.sol\":1826:1835  _balances */\n      0x01\n        /* \"ds-token/token.sol\":1826:1840  _balances[src] */\n      0x20\n      mstore\n      0x40\n      dup1\n      dup3\n      keccak256\n        /* \"ds-token/token.sol\":1826:1863  _balances[src] = _balances[src] - wad */\n      swap4\n      swap1\n      swap4\n      sstore\n        /* \"ds-token/token.sol\":1890:1904  _balances[dst] */\n      swap1\n      dup6\n      and\n      dup2\n      mstore\n      keccak256\n      sload\n        /* \"ds-token/token.sol\":1890:1910  _balances[dst] + wad */\n      tag_180\n      swap1\n        /* \"ds-token/token.sol\":1907:1910  wad */\n      dup4\n      swap1\n        /* \"ds-token/token.sol\":1890:1910  _balances[dst] + wad */\n      tag_181\n      jump\t// in\n    tag_180:\n      sub(shl(0xa0, 0x01), 0x01)\n        /* \"ds-token/token.sol\":1873:1887  _balances[dst] */\n      dup1\n      dup6\n      and\n      0x00\n      dup2\n      dup2\n      mstore\n        /* \"ds-token/token.sol\":1873:1882  _balances */\n      0x01\n        /* \"ds-token/token.sol\":1873:1887  _balances[dst] */\n      0x20\n      mstore\n      0x40\n      swap1\n      dup2\n      swap1\n      keccak256\n        /* \"ds-token/token.sol\":1873:1910  _balances[dst] = _balances[dst] + wad */\n      swap4\n      swap1\n      swap4\n      sstore\n        /* \"ds-token/token.sol\":1926:1949  Transfer(src, dst, wad) */\n      swap2\n      mload\n      swap1\n      dup7\n      and\n      swap1\n      0xddf252ad1be2c89b69c2b068fc378daa952ba7f163c4a11628f55a4df523b3ef\n      swap1\n      tag_182\n      swap1\n        /* \"ds-token/token.sol\":1945:1948  wad */\n      dup7\n        /* \"#utility.yul\":1613:1638   */\n      dup2\n      mstore\n        /* \"#utility.yul\":1601:1603   */\n      0x20\n        /* \"#utility.yul\":1586:1604   */\n      add\n      swap1\n        /* \"#utility.yul\":1467:1644   */\n      jump\n        /* \"ds-token/token.sol\":1926:1949  Transfer(src, dst, wad) */\n    tag_182:\n      mload(0x40)\n      dup1\n      swap2\n      sub\n      swap1\n      log3\n      pop\n        /* \"ds-token/token.sol\":1967:1971  true */\n      0x01\n        /* \"ds-token/token.sol\":1506:1978  function transferFrom(address src, address dst, uint wad)... */\n      swap4\n      swap3\n      pop\n      pop\n      pop\n      jump\t// out\n        /* \"ds-token/token.sol\":2439:2614  function mint(address guy, uint wad) public auth stoppable {... */\n    tag_68:\n        /* \"ds-auth/auth.sol\":1514:1547  isAuthorized(msg.sender, msg.sig) */\n      tag_184\n        /* \"ds-auth/auth.sol\":1527:1537  msg.sender */\n      caller\n        /* \"ds-auth/auth.sol\":1539:1546  msg.sig */\n      and(not(sub(shl(0xe0, 0x01), 0x01)), calldataload(0x00))\n        /* \"ds-auth/auth.sol\":1514:1526  isAuthorized */\n      tag_153\n        /* \"ds-auth/auth.sol\":1514:1547  isAuthorized(msg.sender, msg.sig) */\n      jump\t// in\n    tag_184:\n        /* \"ds-auth/auth.sol\":1506:1572  require(isAuthorized(msg.sender, msg.sig), \"ds-auth-unauthorized\") */\n      tag_185\n      jumpi\n      mload(0x40)\n      shl(0xe5, 0x461bcd)\n      dup2\n      mstore\n      0x04\n      add\n      tag_155\n      swap1\n      tag_156\n      jump\t// in\n    tag_185:\n        /* \"ds-stop/stop.sol\":922:929  stopped */\n      sload(0x04)\n      shl(0xa0, 0x01)\n      swap1\n      div\n      0xff\n      and\n        /* \"ds-stop/stop.sol\":921:929  !stopped */\n      iszero\n        /* \"ds-stop/stop.sol\":913:930  require(!stopped) */\n      tag_188\n      jumpi\n      0x00\n      dup1\n      revert\n    tag_188:\n      sub(shl(0xa0, 0x01), 0x01)\n        /* \"ds-token/token.sol\":2525:2539  _balances[guy] */\n      dup3\n      and\n      0x00\n      swap1\n      dup2\n      mstore\n        /* \"ds-token/token.sol\":2525:2534  _balances */\n      0x01\n        /* \"ds-token/token.sol\":2525:2539  _balances[guy] */\n      0x20\n      mstore\n      0x40\n      swap1\n      keccak256\n      sload\n        /* \"ds-token/token.sol\":2525:2545  _balances[guy] + wad */\n      tag_190\n      swap1\n        /* \"ds-token/token.sol\":2542:2545  wad */\n      dup3\n      swap1\n        /* \"ds-token/token.sol\":2525:2545  _balances[guy] + wad */\n      tag_181\n      jump\t// in\n    tag_190:\n      sub(shl(0xa0, 0x01), 0x01)\n        /* \"ds-token/token.sol\":2508:2522  _balances[guy] */\n      dup4\n      and\n      0x00\n      swap1\n      dup2\n      mstore\n        /* \"ds-token/token.sol\":2508:2517  _balances */\n      0x01\n        /* \"ds-token/token.sol\":2508:2522  _balances[guy] */\n      0x20\n      mstore\n      0x40\n      dup2\n      keccak256\n        /* \"ds-token/token.sol\":2508:2545  _balances[guy] = _balances[guy] + wad */\n      swap2\n      swap1\n      swap2\n      sstore\n        /* \"ds-token/token.sol\":2565:2572  _supply */\n      sload\n        /* \"ds-token/token.sol\":2565:2578  _supply + wad */\n      tag_191\n      swap1\n        /* \"ds-token/token.sol\":2575:2578  wad */\n      dup3\n      swap1\n        /* \"ds-token/token.sol\":2565:2578  _supply + wad */\n      tag_181\n      jump\t// in\n    tag_191:\n        /* \"ds-token/token.sol\":2555:2562  _supply */\n      0x00\n        /* \"ds-token/token.sol\":2555:2578  _supply = _supply + wad */\n      sstore\n        /* \"ds-token/token.sol\":2593:2607  Mint(guy, wad) */\n      mload(0x40)\n        /* \"#utility.yul\":1613:1638   */\n      dup2\n      dup2\n      mstore\n      sub(shl(0xa0, 0x01), 0x01)\n        /* \"ds-token/token.sol\":2593:2607  Mint(guy, wad) */\n      dup4\n      and\n      swap1\n      0x0f6798a560793a54c3bcfe86a93cde1e73087d944c0ea20544137d4121396885\n      swap1\n        /* \"#utility.yul\":1601:1603   */\n      0x20\n        /* \"#utility.yul\":1586:1604   */\n      add\n        /* \"ds-token/token.sol\":2593:2607  Mint(guy, wad) */\n    tag_192:\n      mload(0x40)\n      dup1\n      swap2\n      sub\n      swap1\n      log2\n        /* \"ds-token/token.sol\":2439:2614  function mint(address guy, uint wad) public auth stoppable {... */\n      pop\n      pop\n      jump\t// out\n        /* \"ds-token/token.sol\":2365:2434  function burn(uint wad) public {... */\n    tag_73:\n        /* \"ds-token/token.sol\":2406:2427  burn(msg.sender, wad) */\n      tag_194\n        /* \"ds-token/token.sol\":2411:2421  msg.sender */\n      caller\n        /* \"ds-token/token.sol\":2423:2426  wad */\n      dup3\n        /* \"ds-token/token.sol\":2406:2410  burn */\n      tag_100\n        /* \"ds-token/token.sol\":2406:2427  burn(msg.sender, wad) */\n      jump\t// in\n    tag_194:\n        /* \"ds-token/token.sol\":2365:2434  function burn(uint wad) public {... */\n      pop\n      jump\t// out\n        /* \"ds-auth/auth.sol\":1309:1476  function setAuthority(DSAuthority authority_)... */\n    tag_87:\n        /* \"ds-auth/auth.sol\":1514:1547  isAuthorized(msg.sender, msg.sig) */\n      tag_197\n        /* \"ds-auth/auth.sol\":1527:1537  msg.sender */\n      caller\n        /* \"ds-auth/auth.sol\":1539:1546  msg.sig */\n      and(not(sub(shl(0xe0, 0x01), 0x01)), calldataload(0x00))\n        /* \"ds-auth/auth.sol\":1514:1526  isAuthorized */\n      tag_153\n        /* \"ds-auth/auth.sol\":1514:1547  isAuthorized(msg.sender, msg.sig) */\n      jump\t// in\n    tag_197:\n        /* \"ds-auth/auth.sol\":1506:1572  require(isAuthorized(msg.sender, msg.sig), \"ds-auth-unauthorized\") */\n      tag_198\n      jumpi\n      mload(0x40)\n      shl(0xe5, 0x461bcd)\n      dup2\n      mstore\n      0x04\n      add\n      tag_155\n      swap1\n      tag_156\n      jump\t// in\n    tag_198:\n        /* \"ds-auth/auth.sol\":1397:1406  authority */\n      0x03\n        /* \"ds-auth/auth.sol\":1397:1419  authority = authority_ */\n      dup1\n      sload\n      not(sub(shl(0xa0, 0x01), 0x01))\n      and\n      sub(shl(0xa0, 0x01), 0x01)\n      dup4\n      and\n      swap1\n      dup2\n      or\n      swap1\n      swap2\n      sstore\n        /* \"ds-auth/auth.sol\":1434:1469  LogSetAuthority(address(authority)) */\n      mload(0x40)\n      0x1abebea81bfa2637f28358c371278fb15ede7ea8dd28d2e03b112ff6d936ada4\n      swap1\n      0x00\n      swap1\n      log2\n        /* \"ds-auth/auth.sol\":1309:1476  function setAuthority(DSAuthority authority_)... */\n      pop\n      jump\t// out\n        /* \"ds-token/token.sol\":927:949  string  public  symbol */\n    tag_95:\n      0x05\n      dup1\n      sload\n      tag_145\n      swap1\n      tag_146\n      jump\t// in\n        /* \"ds-token/token.sol\":2619:2967  function burn(address guy, uint wad) public auth stoppable {... */\n    tag_100:\n        /* \"ds-auth/auth.sol\":1514:1547  isAuthorized(msg.sender, msg.sig) */\n      tag_207\n        /* \"ds-auth/auth.sol\":1527:1537  msg.sender */\n      caller\n        /* \"ds-auth/auth.sol\":1539:1546  msg.sig */\n      and(not(sub(shl(0xe0, 0x01), 0x01)), calldataload(0x00))\n        /* \"ds-auth/auth.sol\":1514:1526  isAuthorized */\n      tag_153\n        /* \"ds-auth/auth.sol\":1514:1547  isAuthorized(msg.sender, msg.sig) */\n      jump\t// in\n    tag_207:\n        /* \"ds-auth/auth.sol\":1506:1572  require(isAuthorized(msg.sender, msg.sig), \"ds-auth-unauthorized\") */\n      tag_208\n      jumpi\n      mload(0x40)\n      shl(0xe5, 0x461bcd)\n      dup2\n      mstore\n      0x04\n      add\n      tag_155\n      swap1\n      tag_156\n      jump\t// in\n    tag_208:\n        /* \"ds-stop/stop.sol\":922:929  stopped */\n      sload(0x04)\n      shl(0xa0, 0x01)\n      swap1\n      div\n      0xff\n      and\n        /* \"ds-stop/stop.sol\":921:929  !stopped */\n      iszero\n        /* \"ds-stop/stop.sol\":913:930  require(!stopped) */\n      tag_211\n      jumpi\n      0x00\n      dup1\n      revert\n    tag_211:\n      sub(shl(0xa0, 0x01), 0x01)\n        /* \"ds-token/token.sol\":2692:2709  guy != msg.sender */\n      dup3\n      and\n        /* \"ds-token/token.sol\":2699:2709  msg.sender */\n      caller\n        /* \"ds-token/token.sol\":2692:2709  guy != msg.sender */\n      eq\n      dup1\n      iszero\n      swap1\n        /* \"ds-token/token.sol\":2692:2761  guy != msg.sender && _approvals[guy][msg.sender] != type(uint256).max */\n      tag_213\n      jumpi\n      pop\n      sub(shl(0xa0, 0x01), 0x01)\n        /* \"ds-token/token.sol\":2713:2728  _approvals[guy] */\n      dup3\n      and\n      0x00\n      swap1\n      dup2\n      mstore\n        /* \"ds-token/token.sol\":2713:2723  _approvals */\n      0x02\n        /* \"ds-token/token.sol\":2713:2728  _approvals[guy] */\n      0x20\n      swap1\n      dup2\n      mstore\n      0x40\n      dup1\n      dup4\n      keccak256\n        /* \"ds-token/token.sol\":2729:2739  msg.sender */\n      caller\n        /* \"ds-token/token.sol\":2713:2740  _approvals[guy][msg.sender] */\n      dup5\n      mstore\n      swap1\n      swap2\n      mstore\n      swap1\n      keccak256\n      sload\n      not(0x00)\n        /* \"ds-token/token.sol\":2713:2761  _approvals[guy][msg.sender] != type(uint256).max */\n      eq\n      iszero\n        /* \"ds-token/token.sol\":2692:2761  guy != msg.sender && _approvals[guy][msg.sender] != type(uint256).max */\n    tag_213:\n        /* \"ds-token/token.sol\":2688:2851  if (guy != msg.sender && _approvals[guy][msg.sender] != type(uint256).max) {... */\n      iszero\n      tag_214\n      jumpi\n      sub(shl(0xa0, 0x01), 0x01)\n        /* \"ds-token/token.sol\":2807:2822  _approvals[guy] */\n      dup3\n      and\n      0x00\n      swap1\n      dup2\n      mstore\n        /* \"ds-token/token.sol\":2807:2817  _approvals */\n      0x02\n        /* \"ds-token/token.sol\":2807:2822  _approvals[guy] */\n      0x20\n      swap1\n      dup2\n      mstore\n      0x40\n      dup1\n      dup4\n      keccak256\n        /* \"ds-token/token.sol\":2823:2833  msg.sender */\n      caller\n        /* \"ds-token/token.sol\":2807:2834  _approvals[guy][msg.sender] */\n      dup5\n      mstore\n      swap1\n      swap2\n      mstore\n      swap1\n      keccak256\n      sload\n        /* \"ds-token/token.sol\":2807:2840  _approvals[guy][msg.sender] - wad */\n      tag_215\n      swap1\n        /* \"ds-token/token.sol\":2837:2840  wad */\n      dup3\n      swap1\n        /* \"ds-token/token.sol\":2807:2840  _approvals[guy][msg.sender] - wad */\n      tag_178\n      jump\t// in\n    tag_215:\n      sub(shl(0xa0, 0x01), 0x01)\n        /* \"ds-token/token.sol\":2777:2792  _approvals[guy] */\n      dup4\n      and\n      0x00\n      swap1\n      dup2\n      mstore\n        /* \"ds-token/token.sol\":2777:2787  _approvals */\n      0x02\n        /* \"ds-token/token.sol\":2777:2792  _approvals[guy] */\n      0x20\n      swap1\n      dup2\n      mstore\n      0x40\n      dup1\n      dup4\n      keccak256\n        /* \"ds-token/token.sol\":2793:2803  msg.sender */\n      caller\n        /* \"ds-token/token.sol\":2777:2804  _approvals[guy][msg.sender] */\n      dup5\n      mstore\n      swap1\n      swap2\n      mstore\n      swap1\n      keccak256\n        /* \"ds-token/token.sol\":2777:2840  _approvals[guy][msg.sender] = _approvals[guy][msg.sender] - wad */\n      sstore\n        /* \"ds-token/token.sol\":2688:2851  if (guy != msg.sender && _approvals[guy][msg.sender] != type(uint256).max) {... */\n    tag_214:\n      sub(shl(0xa0, 0x01), 0x01)\n        /* \"ds-token/token.sol\":2878:2892  _balances[guy] */\n      dup3\n      and\n      0x00\n      swap1\n      dup2\n      mstore\n        /* \"ds-token/token.sol\":2878:2887  _balances */\n      0x01\n        /* \"ds-token/token.sol\":2878:2892  _balances[guy] */\n      0x20\n      mstore\n      0x40\n      swap1\n      keccak256\n      sload\n        /* \"ds-token/token.sol\":2878:2898  _balances[guy] - wad */\n      tag_216\n      swap1\n        /* \"ds-token/token.sol\":2895:2898  wad */\n      dup3\n      swap1\n        /* \"ds-token/token.sol\":2878:2898  _balances[guy] - wad */\n      tag_178\n      jump\t// in\n    tag_216:\n      sub(shl(0xa0, 0x01), 0x01)\n        /* \"ds-token/token.sol\":2861:2875  _balances[guy] */\n      dup4\n      and\n      0x00\n      swap1\n      dup2\n      mstore\n        /* \"ds-token/token.sol\":2861:2870  _balances */\n      0x01\n        /* \"ds-token/token.sol\":2861:2875  _balances[guy] */\n      0x20\n      mstore\n      0x40\n      dup2\n      keccak256\n        /* \"ds-token/token.sol\":2861:2898  _balances[guy] = _balances[guy] - wad */\n      swap2\n      swap1\n      swap2\n      sstore\n        /* \"ds-token/token.sol\":2918:2925  _supply */\n      sload\n        /* \"ds-token/token.sol\":2918:2931  _supply - wad */\n      tag_217\n      swap1\n        /* \"ds-token/token.sol\":2928:2931  wad */\n      dup3\n      swap1\n        /* \"ds-token/token.sol\":2918:2931  _supply - wad */\n      tag_178\n      jump\t// in\n    tag_217:\n        /* \"ds-token/token.sol\":2908:2915  _supply */\n      0x00\n        /* \"ds-token/token.sol\":2908:2931  _supply = _supply - wad */\n      sstore\n        /* \"ds-token/token.sol\":2946:2960  Burn(guy, wad) */\n      mload(0x40)\n        /* \"#utility.yul\":1613:1638   */\n      dup2\n      dup2\n      mstore\n      sub(shl(0xa0, 0x01), 0x01)\n        /* \"ds-token/token.sol\":2946:2960  Burn(guy, wad) */\n      dup4\n      and\n      swap1\n      0xcc16f5dbb4873280815c1ee09dbd06736cffcc184412cf7a71a0fdb75d397ca5\n      swap1\n        /* \"#utility.yul\":1601:1603   */\n      0x20\n        /* \"#utility.yul\":1586:1604   */\n      add\n        /* \"ds-token/token.sol\":2946:2960  Burn(guy, wad) */\n      tag_192\n        /* \"#utility.yul\":1467:1644   */\n      jump\n        /* \"ds-token/token.sol\":2291:2360  function mint(uint wad) public {... */\n    tag_104:\n        /* \"ds-token/token.sol\":2332:2353  mint(msg.sender, wad) */\n      tag_194\n        /* \"ds-token/token.sol\":2337:2347  msg.sender */\n      caller\n        /* \"ds-token/token.sol\":2349:2352  wad */\n      dup3\n        /* \"ds-token/token.sol\":2332:2336  mint */\n      tag_68\n        /* \"ds-token/token.sol\":2332:2353  mint(msg.sender, wad) */\n      jump\t// in\n        /* \"ds-token/base.sol\":1506:1636  function transfer(address dst, uint wad) public override returns (bool) {... */\n    tag_108:\n        /* \"ds-token/base.sol\":1572:1576  bool */\n      0x00\n        /* \"ds-token/base.sol\":1595:1629  transferFrom(msg.sender, dst, wad) */\n      tag_164\n        /* \"ds-token/base.sol\":1608:1618  msg.sender */\n      caller\n        /* \"ds-token/base.sol\":1620:1623  dst */\n      dup5\n        /* \"ds-token/base.sol\":1625:1628  wad */\n      dup5\n        /* \"ds-token/base.sol\":1595:1607  transferFrom */\n      tag_59\n        /* \"ds-token/base.sol\":1595:1629  transferFrom(msg.sender, dst, wad) */\n      jump\t// in\n        /* \"ds-token/token.sol\":1984:2079  function push(address dst, uint wad) public {... */\n    tag_113:\n        /* \"ds-token/token.sol\":2038:2072  transferFrom(msg.sender, dst, wad) */\n      tag_224\n        /* \"ds-token/token.sol\":2051:2061  msg.sender */\n      caller\n        /* \"ds-token/token.sol\":2063:2066  dst */\n      dup4\n        /* \"ds-token/token.sol\":2068:2071  wad */\n      dup4\n        /* \"ds-token/token.sol\":2038:2050  transferFrom */\n      tag_59\n        /* \"ds-token/token.sol\":2038:2072  transferFrom(msg.sender, dst, wad) */\n      jump\t// in\n    tag_224:\n      pop\n        /* \"ds-token/token.sol\":1984:2079  function push(address dst, uint wad) public {... */\n      pop\n      pop\n      jump\t// out\n        /* \"ds-token/token.sol\":2184:2285  function move(address src, address dst, uint wad) public {... */\n    tag_117:\n        /* \"ds-token/token.sol\":2251:2278  transferFrom(src, dst, wad) */\n      tag_226\n        /* \"ds-token/token.sol\":2264:2267  src */\n      dup4\n        /* \"ds-token/token.sol\":2269:2272  dst */\n      dup4\n        /* \"ds-token/token.sol\":2274:2277  wad */\n      dup4\n        /* \"ds-token/token.sol\":2251:2263  transferFrom */\n      tag_59\n        /* \"ds-token/token.sol\":2251:2278  transferFrom(src, dst, wad) */\n      jump\t// in\n    tag_226:\n      pop\n        /* \"ds-token/token.sol\":2184:2285  function move(address src, address dst, uint wad) public {... */\n      pop\n      pop\n      pop\n      jump\t// out\n        /* \"ds-stop/stop.sol\":1030:1104  function start() public auth payable note {... */\n    tag_119:\n        /* \"ds-auth/auth.sol\":1514:1547  isAuthorized(msg.sender, msg.sig) */\n      tag_228\n        /* \"ds-auth/auth.sol\":1527:1537  msg.sender */\n      caller\n        /* \"ds-auth/auth.sol\":1539:1546  msg.sig */\n      and(not(sub(shl(0xe0, 0x01), 0x01)), calldataload(0x00))\n        /* \"ds-auth/auth.sol\":1514:1526  isAuthorized */\n      tag_153\n        /* \"ds-auth/auth.sol\":1514:1547  isAuthorized(msg.sender, msg.sig) */\n      jump\t// in\n    tag_228:\n        /* \"ds-auth/auth.sol\":1506:1572  require(isAuthorized(msg.sender, msg.sig), \"ds-auth-unauthorized\") */\n      tag_229\n      jumpi\n      mload(0x40)\n      shl(0xe5, 0x461bcd)\n      dup2\n      mstore\n      0x04\n      add\n      tag_155\n      swap1\n      tag_156\n      jump\t// in\n    tag_229:\n        /* \"ds-note/note.sol\":1152:1211  LogNote(msg.sig, msg.sender, foo, bar, msg.value, msg.data) */\n      mload(0x40)\n        /* \"ds-note/note.sol\":1089:1090  4 */\n      0x04\n        /* \"ds-note/note.sol\":1076:1091  calldataload(4) */\n      calldataload\n      swap1\n        /* \"ds-note/note.sol\":1124:1126  36 */\n      0x24\n        /* \"ds-note/note.sol\":1111:1127  calldataload(36) */\n      calldataload\n      swap1\n      dup2\n      swap1\n        /* \"ds-note/note.sol\":1076:1091  calldataload(4) */\n      dup4\n      swap1\n        /* \"ds-note/note.sol\":1169:1179  msg.sender */\n      caller\n      swap1\n        /* \"ds-note/note.sol\":1003:1014  bytes32 foo */\n      0x00\n        /* \"ds-note/note.sol\":1160:1167  msg.sig */\n      dup1\n      calldataload\n      not(sub(shl(0xe0, 0x01), 0x01))\n      and\n      swap2\n        /* \"ds-note/note.sol\":1152:1211  LogNote(msg.sig, msg.sender, foo, bar, msg.value, msg.data) */\n      tag_232\n      swap2\n        /* \"ds-note/note.sol\":1191:1200  msg.value */\n      callvalue\n      swap2\n        /* \"ds-note/note.sol\":1202:1210  msg.data */\n      calldatasize\n      swap1\n        /* \"ds-note/note.sol\":1152:1211  LogNote(msg.sig, msg.sender, foo, bar, msg.value, msg.data) */\n      tag_159\n      jump\t// in\n    tag_232:\n      mload(0x40)\n      dup1\n      swap2\n      sub\n      swap1\n      log4\n      pop\n      pop\n        /* \"ds-stop/stop.sol\":1082:1089  stopped */\n      0x04\n        /* \"ds-stop/stop.sol\":1082:1097  stopped = false */\n      dup1\n      sload\n      not(shl(0xa0, 0xff))\n      and\n      swap1\n      sstore\n        /* \"ds-stop/stop.sol\":1030:1104  function start() public auth payable note {... */\n      jump\t// out\n        /* \"ds-token/token.sol\":3001:3080  function setName(string memory name_) public auth {... */\n    tag_129:\n        /* \"ds-auth/auth.sol\":1514:1547  isAuthorized(msg.sender, msg.sig) */\n      tag_235\n        /* \"ds-auth/auth.sol\":1527:1537  msg.sender */\n      caller\n        /* \"ds-auth/auth.sol\":1539:1546  msg.sig */\n      and(not(sub(shl(0xe0, 0x01), 0x01)), calldataload(0x00))\n        /* \"ds-auth/auth.sol\":1514:1526  isAuthorized */\n      tag_153\n        /* \"ds-auth/auth.sol\":1514:1547  isAuthorized(msg.sender, msg.sig) */\n      jump\t// in\n    tag_235:\n        /* \"ds-auth/auth.sol\":1506:1572  require(isAuthorized(msg.sender, msg.sig), \"ds-auth-unauthorized\") */\n      tag_236\n      jumpi\n      mload(0x40)\n      shl(0xe5, 0x461bcd)\n      dup2\n      mstore\n      0x04\n      add\n      tag_155\n      swap1\n      tag_156\n      jump\t// in\n    tag_236:\n        /* \"ds-token/token.sol\":3061:3065  name */\n      0x07\n        /* \"ds-token/token.sol\":3061:3073  name = name_ */\n      tag_239\n        /* \"ds-token/token.sol\":3068:3073  name_ */\n      dup3\n        /* \"ds-token/token.sol\":3061:3065  name */\n      dup3\n        /* \"ds-token/token.sol\":3061:3073  name = name_ */\n      tag_240\n      jump\t// in\n    tag_239:\n      pop\n        /* \"ds-token/token.sol\":3001:3080  function setName(string memory name_) public auth {... */\n      pop\n      jump\t// out\n        /* \"ds-token/token.sol\":1243:1366  function approve(address guy) public stoppable returns (bool) {... */\n    tag_133:\n        /* \"ds-stop/stop.sol\":922:929  stopped */\n      sload(0x04)\n        /* \"ds-token/token.sol\":1299:1303  bool */\n      0x00\n      swap1\n      shl(0xa0, 0x01)\n        /* \"ds-stop/stop.sol\":922:929  stopped */\n      swap1\n      div\n      0xff\n      and\n        /* \"ds-stop/stop.sol\":921:929  !stopped */\n      iszero\n        /* \"ds-stop/stop.sol\":913:930  require(!stopped) */\n      tag_242\n      jumpi\n      0x00\n      dup1\n      revert\n    tag_242:\n        /* \"ds-token/token.sol\":1322:1359  super.approve(guy, type(uint256).max) */\n      tag_163\n        /* \"ds-token/token.sol\":1336:1339  guy */\n      dup3\n      not(0x00)\n        /* \"ds-token/token.sol\":1322:1335  super.approve */\n      tag_165\n        /* \"ds-token/token.sol\":1322:1359  super.approve(guy, type(uint256).max) */\n      jump\t// in\n        /* \"ds-token/token.sol\":2084:2179  function pull(address src, uint wad) public {... */\n    tag_144:\n        /* \"ds-token/token.sol\":2138:2172  transferFrom(src, msg.sender, wad) */\n      tag_224\n        /* \"ds-token/token.sol\":2151:2154  src */\n      dup3\n        /* \"ds-token/token.sol\":2156:2166  msg.sender */\n      caller\n        /* \"ds-token/token.sol\":2168:2171  wad */\n      dup4\n        /* \"ds-token/token.sol\":2138:2150  transferFrom */\n      tag_59\n        /* \"ds-token/token.sol\":2138:2172  transferFrom(src, msg.sender, wad) */\n      jump\t// in\n        /* \"ds-auth/auth.sol\":1596:1975  function isAuthorized(address src, bytes4 sig) internal view returns (bool) {... */\n    tag_153:\n        /* \"ds-auth/auth.sol\":1666:1670  bool */\n      0x00\n        /* \"ds-auth/auth.sol\":1701:1705  this */\n      address\n      sub(shl(0xa0, 0x01), 0x01)\n        /* \"ds-auth/auth.sol\":1686:1706  src == address(this) */\n      dup5\n      and\n      sub\n        /* \"ds-auth/auth.sol\":1682:1969  if (src == address(this)) {... */\n      tag_249\n      jumpi\n      pop\n        /* \"ds-auth/auth.sol\":1729:1733  true */\n      0x01\n        /* \"ds-auth/auth.sol\":1722:1733  return true */\n      jump(tag_163)\n        /* \"ds-auth/auth.sol\":1682:1969  if (src == address(this)) {... */\n    tag_249:\n        /* \"ds-auth/auth.sol\":1761:1766  owner */\n      sload(0x04)\n      sub(shl(0xa0, 0x01), 0x01)\n      swap1\n      dup2\n      and\n        /* \"ds-auth/auth.sol\":1754:1766  src == owner */\n      swap1\n      dup5\n      and\n      sub\n        /* \"ds-auth/auth.sol\":1750:1969  if (src == owner) {... */\n      tag_251\n      jumpi\n      pop\n        /* \"ds-auth/auth.sol\":1789:1793  true */\n      0x01\n        /* \"ds-auth/auth.sol\":1782:1793  return true */\n      jump(tag_163)\n        /* \"ds-auth/auth.sol\":1750:1969  if (src == owner) {... */\n    tag_251:\n        /* \"ds-auth/auth.sol\":1814:1823  authority */\n      and(sub(shl(0xa0, 0x01), 0x01), sload(0x03))\n        /* \"ds-auth/auth.sol\":1810:1969  if (authority == DSAuthority(address(0))) {... */\n      tag_253\n      jumpi\n      pop\n        /* \"ds-auth/auth.sol\":1873:1878  false */\n      0x00\n        /* \"ds-auth/auth.sol\":1866:1878  return false */\n      jump(tag_163)\n        /* \"ds-auth/auth.sol\":1810:1969  if (authority == DSAuthority(address(0))) {... */\n    tag_253:\n        /* \"ds-auth/auth.sol\":1916:1925  authority */\n      sload(0x03)\n        /* \"ds-auth/auth.sol\":1916:1958  authority.canCall(src, address(this), sig) */\n      mload(0x40)\n      shl(0xe0, 0xb7009613)\n      dup2\n      mstore\n      sub(shl(0xa0, 0x01), 0x01)\n        /* \"#utility.yul\":8504:8519   */\n      dup6\n      dup2\n      and\n        /* \"ds-auth/auth.sol\":1916:1958  authority.canCall(src, address(this), sig) */\n      0x04\n      dup4\n      add\n        /* \"#utility.yul\":8486:8520   */\n      mstore\n        /* \"ds-auth/auth.sol\":1947:1951  this */\n      address\n        /* \"#utility.yul\":8536:8554   */\n      0x24\n      dup4\n      add\n        /* \"#utility.yul\":8529:8572   */\n      mstore\n      not(sub(shl(0xe0, 0x01), 0x01))\n        /* \"#utility.yul\":8608:8641   */\n      dup6\n      and\n        /* \"#utility.yul\":8588:8606   */\n      0x44\n      dup4\n      add\n        /* \"#utility.yul\":8581:8642   */\n      mstore\n        /* \"ds-auth/auth.sol\":1916:1925  authority */\n      swap1\n      swap2\n      and\n      swap1\n        /* \"ds-auth/auth.sol\":1916:1933  authority.canCall */\n      0xb7009613\n      swap1\n        /* \"#utility.yul\":8421:8439   */\n      0x64\n      add\n        /* \"ds-auth/auth.sol\":1916:1958  authority.canCall(src, address(this), sig) */\n      0x20\n      mload(0x40)\n      dup1\n      dup4\n      sub\n      dup2\n      dup7\n      gas\n      staticcall\n      iszero\n      dup1\n      iszero\n      tag_258\n      jumpi\n      returndatasize\n      0x00\n      dup1\n      returndatacopy\n      revert(0x00, returndatasize)\n    tag_258:\n      pop\n      pop\n      pop\n      pop\n      mload(0x40)\n      returndatasize\n      not(0x1f)\n      0x1f\n      dup3\n      add\n      and\n      dup3\n      add\n      dup1\n      0x40\n      mstore\n      pop\n      dup2\n      add\n      swap1\n      tag_259\n      swap2\n      swap1\n      tag_260\n      jump\t// in\n    tag_259:\n        /* \"ds-auth/auth.sol\":1909:1958  return authority.canCall(src, address(this), sig) */\n      swap1\n      pop\n      jump(tag_163)\n        /* \"ds-token/base.sol\":2068:2265  function approve(address guy, uint wad) public override virtual returns (bool) {... */\n    tag_165:\n        /* \"ds-token/base.sol\":2168:2178  msg.sender */\n      caller\n        /* \"ds-token/base.sol\":2141:2145  bool */\n      0x00\n        /* \"ds-token/base.sol\":2157:2179  _approvals[msg.sender] */\n      dup2\n      dup2\n      mstore\n        /* \"ds-token/base.sol\":2157:2167  _approvals */\n      0x02\n        /* \"ds-token/base.sol\":2157:2179  _approvals[msg.sender] */\n      0x20\n      swap1\n      dup2\n      mstore\n      0x40\n      dup1\n      dup4\n      keccak256\n      sub(shl(0xa0, 0x01), 0x01)\n        /* \"ds-token/base.sol\":2157:2184  _approvals[msg.sender][guy] */\n      dup8\n      and\n      dup1\n      dup6\n      mstore\n      swap3\n      mstore\n      dup1\n      dup4\n      keccak256\n        /* \"ds-token/base.sol\":2157:2190  _approvals[msg.sender][guy] = wad */\n      dup6\n      swap1\n      sstore\n        /* \"ds-token/base.sol\":2206:2236  Approval(msg.sender, guy, wad) */\n      mload\n        /* \"ds-token/base.sol\":2141:2145  bool */\n      swap2\n      swap3\n        /* \"ds-token/base.sol\":2157:2184  _approvals[msg.sender][guy] */\n      swap1\n      swap2\n        /* \"ds-token/base.sol\":2206:2236  Approval(msg.sender, guy, wad) */\n      0x8c5be1e5ebec7d5bd14f71427d1e84f3dd0314c0f7b2291e5b200ac8c7c3b925\n      swap1\n      tag_262\n      swap1\n        /* \"ds-token/base.sol\":2187:2190  wad */\n      dup7\n        /* \"#utility.yul\":1613:1638   */\n      dup2\n      mstore\n        /* \"#utility.yul\":1601:1603   */\n      0x20\n        /* \"#utility.yul\":1586:1604   */\n      add\n      swap1\n        /* \"#utility.yul\":1467:1644   */\n      jump\n        /* \"ds-token/base.sol\":2206:2236  Approval(msg.sender, guy, wad) */\n    tag_262:\n      mload(0x40)\n      dup1\n      swap2\n      sub\n      swap1\n      log3\n      pop\n        /* \"ds-token/base.sol\":2254:2258  true */\n      0x01\n        /* \"ds-token/base.sol\":2068:2265  function approve(address guy, uint wad) public override virtual returns (bool) {... */\n      swap3\n      swap2\n      pop\n      pop\n      jump\t// out\n        /* \"#utility.yul\":14:562   */\n    tag_35:\n        /* \"#utility.yul\":126:130   */\n      0x00\n        /* \"#utility.yul\":155:157   */\n      0x20\n        /* \"#utility.yul\":184:186   */\n      dup1\n        /* \"#utility.yul\":173:182   */\n      dup4\n        /* \"#utility.yul\":166:187   */\n      mstore\n        /* \"#utility.yul\":216:222   */\n      dup4\n        /* \"#utility.yul\":210:223   */\n      mload\n        /* \"#utility.yul\":259:265   */\n      dup1\n        /* \"#utility.yul\":254:256   */\n      dup3\n        /* \"#utility.yul\":243:252   */\n      dup6\n        /* \"#utility.yul\":239:257   */\n      add\n        /* \"#utility.yul\":232:266   */\n      mstore\n        /* \"#utility.yul\":284:285   */\n      0x00\n        /* \"#utility.yul\":294:434   */\n    tag_271:\n        /* \"#utility.yul\":308:314   */\n      dup2\n        /* \"#utility.yul\":305:306   */\n      dup2\n        /* \"#utility.yul\":302:315   */\n      lt\n        /* \"#utility.yul\":294:434   */\n      iszero\n      tag_273\n      jumpi\n        /* \"#utility.yul\":403:417   */\n      dup6\n      dup2\n      add\n        /* \"#utility.yul\":399:422   */\n      dup4\n      add\n        /* \"#utility.yul\":393:423   */\n      mload\n        /* \"#utility.yul\":369:386   */\n      dup6\n      dup3\n      add\n        /* \"#utility.yul\":388:390   */\n      0x40\n        /* \"#utility.yul\":365:391   */\n      add\n        /* \"#utility.yul\":358:424   */\n      mstore\n        /* \"#utility.yul\":323:333   */\n      dup3\n      add\n        /* \"#utility.yul\":294:434   */\n      jump(tag_271)\n    tag_273:\n        /* \"#utility.yul\":298:301   */\n      pop\n        /* \"#utility.yul\":483:484   */\n      0x00\n        /* \"#utility.yul\":478:480   */\n      0x40\n        /* \"#utility.yul\":469:475   */\n      dup3\n        /* \"#utility.yul\":458:467   */\n      dup7\n        /* \"#utility.yul\":454:476   */\n      add\n        /* \"#utility.yul\":450:481   */\n      add\n        /* \"#utility.yul\":443:485   */\n      mstore\n        /* \"#utility.yul\":553:555   */\n      0x40\n        /* \"#utility.yul\":546:548   */\n      0x1f\n        /* \"#utility.yul\":542:549   */\n      not\n        /* \"#utility.yul\":537:539   */\n      0x1f\n        /* \"#utility.yul\":529:535   */\n      dup4\n        /* \"#utility.yul\":525:540   */\n      add\n        /* \"#utility.yul\":521:550   */\n      and\n        /* \"#utility.yul\":510:519   */\n      dup6\n        /* \"#utility.yul\":506:551   */\n      add\n        /* \"#utility.yul\":502:556   */\n      add\n        /* \"#utility.yul\":494:556   */\n      swap3\n      pop\n      pop\n      pop\n        /* \"#utility.yul\":14:562   */\n      swap3\n      swap2\n      pop\n      pop\n      jump\t// out\n        /* \"#utility.yul\":567:698   */\n    tag_263:\n      sub(shl(0xa0, 0x01), 0x01)\n        /* \"#utility.yul\":642:673   */\n      dup2\n      and\n        /* \"#utility.yul\":632:674   */\n      dup2\n      eq\n        /* \"#utility.yul\":622:692   */\n      tag_194\n      jumpi\n        /* \"#utility.yul\":688:689   */\n      0x00\n        /* \"#utility.yul\":685:686   */\n      dup1\n        /* \"#utility.yul\":678:690   */\n      revert\n        /* \"#utility.yul\":703:1018   */\n    tag_41:\n        /* \"#utility.yul\":771:777   */\n      0x00\n        /* \"#utility.yul\":779:785   */\n      dup1\n        /* \"#utility.yul\":832:834   */\n      0x40\n        /* \"#utility.yul\":820:829   */\n      dup4\n        /* \"#utility.yul\":811:818   */\n      dup6\n        /* \"#utility.yul\":807:830   */\n      sub\n        /* \"#utility.yul\":803:835   */\n      slt\n        /* \"#utility.yul\":800:852   */\n      iszero\n      tag_277\n      jumpi\n        /* \"#utility.yul\":848:849   */\n      0x00\n        /* \"#utility.yul\":845:846   */\n      dup1\n        /* \"#utility.yul\":838:850   */\n      revert\n        /* \"#utility.yul\":800:852   */\n    tag_277:\n        /* \"#utility.yul\":887:896   */\n      dup3\n        /* \"#utility.yul\":874:897   */\n      calldataload\n        /* \"#utility.yul\":906:937   */\n      tag_278\n        /* \"#utility.yul\":931:936   */\n      dup2\n        /* \"#utility.yul\":906:937   */\n      tag_263\n      jump\t// in\n    tag_278:\n        /* \"#utility.yul\":956:961   */\n      swap5\n        /* \"#utility.yul\":1008:1010   */\n      0x20\n        /* \"#utility.yul\":993:1011   */\n      swap4\n      swap1\n      swap4\n      add\n        /* \"#utility.yul\":980:1012   */\n      calldataload\n      swap4\n      pop\n      pop\n      pop\n        /* \"#utility.yul\":703:1018   */\n      jump\t// out\n        /* \"#utility.yul\":1215:1462   */\n    tag_48:\n        /* \"#utility.yul\":1274:1280   */\n      0x00\n        /* \"#utility.yul\":1327:1329   */\n      0x20\n        /* \"#utility.yul\":1315:1324   */\n      dup3\n        /* \"#utility.yul\":1306:1313   */\n      dup5\n        /* \"#utility.yul\":1302:1325   */\n      sub\n        /* \"#utility.yul\":1298:1330   */\n      slt\n        /* \"#utility.yul\":1295:1347   */\n      iszero\n      tag_281\n      jumpi\n        /* \"#utility.yul\":1343:1344   */\n      0x00\n        /* \"#utility.yul\":1340:1341   */\n      dup1\n        /* \"#utility.yul\":1333:1345   */\n      revert\n        /* \"#utility.yul\":1295:1347   */\n    tag_281:\n        /* \"#utility.yul\":1382:1391   */\n      dup2\n        /* \"#utility.yul\":1369:1392   */\n      calldataload\n        /* \"#utility.yul\":1401:1432   */\n      tag_282\n        /* \"#utility.yul\":1426:1431   */\n      dup2\n        /* \"#utility.yul\":1401:1432   */\n      tag_263\n      jump\t// in\n    tag_282:\n        /* \"#utility.yul\":1451:1456   */\n      swap4\n        /* \"#utility.yul\":1215:1462   */\n      swap3\n      pop\n      pop\n      pop\n      jump\t// out\n        /* \"#utility.yul\":1649:2105   */\n    tag_58:\n        /* \"#utility.yul\":1726:1732   */\n      0x00\n        /* \"#utility.yul\":1734:1740   */\n      dup1\n        /* \"#utility.yul\":1742:1748   */\n      0x00\n        /* \"#utility.yul\":1795:1797   */\n      0x60\n        /* \"#utility.yul\":1783:1792   */\n      dup5\n        /* \"#utility.yul\":1774:1781   */\n      dup7\n        /* \"#utility.yul\":1770:1793   */\n      sub\n        /* \"#utility.yul\":1766:1798   */\n      slt\n        /* \"#utility.yul\":1763:1815   */\n      iszero\n      tag_285\n      jumpi\n        /* \"#utility.yul\":1811:1812   */\n      0x00\n        /* \"#utility.yul\":1808:1809   */\n      dup1\n        /* \"#utility.yul\":1801:1813   */\n      revert\n        /* \"#utility.yul\":1763:1815   */\n    tag_285:\n        /* \"#utility.yul\":1850:1859   */\n      dup4\n        /* \"#utility.yul\":1837:1860   */\n      calldataload\n        /* \"#utility.yul\":1869:1900   */\n      tag_286\n        /* \"#utility.yul\":1894:1899   */\n      dup2\n        /* \"#utility.yul\":1869:1900   */\n      tag_263\n      jump\t// in\n    tag_286:\n        /* \"#utility.yul\":1919:1924   */\n      swap3\n      pop\n        /* \"#utility.yul\":1976:1978   */\n      0x20\n        /* \"#utility.yul\":1961:1979   */\n      dup5\n      add\n        /* \"#utility.yul\":1948:1980   */\n      calldataload\n        /* \"#utility.yul\":1989:2022   */\n      tag_287\n        /* \"#utility.yul\":1948:1980   */\n      dup2\n        /* \"#utility.yul\":1989:2022   */\n      tag_263\n      jump\t// in\n    tag_287:\n        /* \"#utility.yul\":1649:2105   */\n      swap3\n      swap6\n        /* \"#utility.yul\":2041:2048   */\n      swap3\n      swap5\n      pop\n      pop\n      pop\n        /* \"#utility.yul\":2095:2097   */\n      0x40\n        /* \"#utility.yul\":2080:2098   */\n      swap2\n      swap1\n      swap2\n      add\n        /* \"#utility.yul\":2067:2099   */\n      calldataload\n      swap1\n        /* \"#utility.yul\":1649:2105   */\n      jump\t// out\n        /* \"#utility.yul\":2110:2290   */\n    tag_72:\n        /* \"#utility.yul\":2169:2175   */\n      0x00\n        /* \"#utility.yul\":2222:2224   */\n      0x20\n        /* \"#utility.yul\":2210:2219   */\n      dup3\n        /* \"#utility.yul\":2201:2208   */\n      dup5\n        /* \"#utility.yul\":2197:2220   */\n      sub\n        /* \"#utility.yul\":2193:2225   */\n      slt\n        /* \"#utility.yul\":2190:2242   */\n      iszero\n      tag_289\n      jumpi\n        /* \"#utility.yul\":2238:2239   */\n      0x00\n        /* \"#utility.yul\":2235:2236   */\n      dup1\n        /* \"#utility.yul\":2228:2240   */\n      revert\n        /* \"#utility.yul\":2190:2242   */\n    tag_289:\n      pop\n        /* \"#utility.yul\":2261:2284   */\n      calldataload\n      swap2\n        /* \"#utility.yul\":2110:2290   */\n      swap1\n      pop\n      jump\t// out\n        /* \"#utility.yul\":2999:3126   */\n    tag_264:\n        /* \"#utility.yul\":3060:3070   */\n      0x4e487b71\n        /* \"#utility.yul\":3055:3058   */\n      0xe0\n        /* \"#utility.yul\":3051:3071   */\n      shl\n        /* \"#utility.yul\":3048:3049   */\n      0x00\n        /* \"#utility.yul\":3041:3072   */\n      mstore\n        /* \"#utility.yul\":3091:3095   */\n      0x41\n        /* \"#utility.yul\":3088:3089   */\n      0x04\n        /* \"#utility.yul\":3081:3096   */\n      mstore\n        /* \"#utility.yul\":3115:3119   */\n      0x24\n        /* \"#utility.yul\":3112:3113   */\n      0x00\n        /* \"#utility.yul\":3105:3120   */\n      revert\n        /* \"#utility.yul\":3131:4053   */\n    tag_128:\n        /* \"#utility.yul\":3200:3206   */\n      0x00\n        /* \"#utility.yul\":3253:3255   */\n      0x20\n        /* \"#utility.yul\":3241:3250   */\n      dup3\n        /* \"#utility.yul\":3232:3239   */\n      dup5\n        /* \"#utility.yul\":3228:3251   */\n      sub\n        /* \"#utility.yul\":3224:3256   */\n      slt\n        /* \"#utility.yul\":3221:3273   */\n      iszero\n      tag_297\n      jumpi\n        /* \"#utility.yul\":3269:3270   */\n      0x00\n        /* \"#utility.yul\":3266:3267   */\n      dup1\n        /* \"#utility.yul\":3259:3271   */\n      revert\n        /* \"#utility.yul\":3221:3273   */\n    tag_297:\n        /* \"#utility.yul\":3309:3318   */\n      dup2\n        /* \"#utility.yul\":3296:3319   */\n      calldataload\n        /* \"#utility.yul\":3338:3356   */\n      0xffffffffffffffff\n        /* \"#utility.yul\":3379:3381   */\n      dup1\n        /* \"#utility.yul\":3371:3377   */\n      dup3\n        /* \"#utility.yul\":3368:3382   */\n      gt\n        /* \"#utility.yul\":3365:3399   */\n      iszero\n      tag_298\n      jumpi\n        /* \"#utility.yul\":3395:3396   */\n      0x00\n        /* \"#utility.yul\":3392:3393   */\n      dup1\n        /* \"#utility.yul\":3385:3397   */\n      revert\n        /* \"#utility.yul\":3365:3399   */\n    tag_298:\n        /* \"#utility.yul\":3433:3439   */\n      dup2\n        /* \"#utility.yul\":3422:3431   */\n      dup5\n        /* \"#utility.yul\":3418:3440   */\n      add\n        /* \"#utility.yul\":3408:3440   */\n      swap2\n      pop\n        /* \"#utility.yul\":3478:3485   */\n      dup5\n        /* \"#utility.yul\":3471:3475   */\n      0x1f\n        /* \"#utility.yul\":3467:3469   */\n      dup4\n        /* \"#utility.yul\":3463:3476   */\n      add\n        /* \"#utility.yul\":3459:3486   */\n      slt\n        /* \"#utility.yul\":3449:3504   */\n      tag_299\n      jumpi\n        /* \"#utility.yul\":3500:3501   */\n      0x00\n        /* \"#utility.yul\":3497:3498   */\n      dup1\n        /* \"#utility.yul\":3490:3502   */\n      revert\n        /* \"#utility.yul\":3449:3504   */\n    tag_299:\n        /* \"#utility.yul\":3536:3538   */\n      dup2\n        /* \"#utility.yul\":3523:3539   */\n      calldataload\n        /* \"#utility.yul\":3558:3560   */\n      dup2\n        /* \"#utility.yul\":3554:3556   */\n      dup2\n        /* \"#utility.yul\":3551:3561   */\n      gt\n        /* \"#utility.yul\":3548:3584   */\n      iszero\n      tag_301\n      jumpi\n        /* \"#utility.yul\":3564:3582   */\n      tag_301\n      tag_264\n      jump\t// in\n    tag_301:\n        /* \"#utility.yul\":3639:3641   */\n      0x40\n        /* \"#utility.yul\":3633:3642   */\n      mload\n        /* \"#utility.yul\":3607:3609   */\n      0x1f\n        /* \"#utility.yul\":3693:3706   */\n      dup3\n      add\n      not(0x1f)\n        /* \"#utility.yul\":3689:3711   */\n      swap1\n      dup2\n      and\n        /* \"#utility.yul\":3713:3715   */\n      0x3f\n        /* \"#utility.yul\":3685:3716   */\n      add\n        /* \"#utility.yul\":3681:3721   */\n      and\n        /* \"#utility.yul\":3669:3722   */\n      dup2\n      add\n      swap1\n        /* \"#utility.yul\":3737:3755   */\n      dup4\n      dup3\n      gt\n        /* \"#utility.yul\":3757:3779   */\n      dup2\n      dup4\n      lt\n        /* \"#utility.yul\":3734:3780   */\n      or\n        /* \"#utility.yul\":3731:3803   */\n      iszero\n      tag_303\n      jumpi\n        /* \"#utility.yul\":3783:3801   */\n      tag_303\n      tag_264\n      jump\t// in\n    tag_303:\n        /* \"#utility.yul\":3823:3833   */\n      dup2\n        /* \"#utility.yul\":3819:3821   */\n      0x40\n        /* \"#utility.yul\":3812:3834   */\n      mstore\n        /* \"#utility.yul\":3858:3860   */\n      dup3\n        /* \"#utility.yul\":3850:3856   */\n      dup2\n        /* \"#utility.yul\":3843:3861   */\n      mstore\n        /* \"#utility.yul\":3898:3905   */\n      dup8\n        /* \"#utility.yul\":3893:3895   */\n      0x20\n        /* \"#utility.yul\":3888:3890   */\n      dup5\n        /* \"#utility.yul\":3884:3886   */\n      dup8\n        /* \"#utility.yul\":3880:3891   */\n      add\n        /* \"#utility.yul\":3876:3896   */\n      add\n        /* \"#utility.yul\":3873:3906   */\n      gt\n        /* \"#utility.yul\":3870:3923   */\n      iszero\n      tag_304\n      jumpi\n        /* \"#utility.yul\":3919:3920   */\n      0x00\n        /* \"#utility.yul\":3916:3917   */\n      dup1\n        /* \"#utility.yul\":3909:3921   */\n      revert\n        /* \"#utility.yul\":3870:3923   */\n    tag_304:\n        /* \"#utility.yul\":3975:3977   */\n      dup3\n        /* \"#utility.yul\":3970:3972   */\n      0x20\n        /* \"#utility.yul\":3966:3968   */\n      dup7\n        /* \"#utility.yul\":3962:3973   */\n      add\n        /* \"#utility.yul\":3957:3959   */\n      0x20\n        /* \"#utility.yul\":3949:3955   */\n      dup4\n        /* \"#utility.yul\":3945:3960   */\n      add\n        /* \"#utility.yul\":3932:3978   */\n      calldatacopy\n        /* \"#utility.yul\":4020:4021   */\n      0x00\n        /* \"#utility.yul\":3998:4013   */\n      swap3\n      dup2\n      add\n        /* \"#utility.yul\":4015:4017   */\n      0x20\n        /* \"#utility.yul\":3994:4018   */\n      add\n        /* \"#utility.yul\":3987:4022   */\n      swap3\n      swap1\n      swap3\n      mstore\n      pop\n        /* \"#utility.yul\":4002:4008   */\n      swap6\n        /* \"#utility.yul\":3131:4053   */\n      swap5\n      pop\n      pop\n      pop\n      pop\n      pop\n      jump\t// out\n        /* \"#utility.yul\":4058:4446   */\n    tag_138:\n        /* \"#utility.yul\":4126:4132   */\n      0x00\n        /* \"#utility.yul\":4134:4140   */\n      dup1\n        /* \"#utility.yul\":4187:4189   */\n      0x40\n        /* \"#utility.yul\":4175:4184   */\n      dup4\n        /* \"#utility.yul\":4166:4173   */\n      dup6\n        /* \"#utility.yul\":4162:4185   */\n      sub\n        /* \"#utility.yul\":4158:4190   */\n      slt\n        /* \"#utility.yul\":4155:4207   */\n      iszero\n      tag_306\n      jumpi\n        /* \"#utility.yul\":4203:4204   */\n      0x00\n        /* \"#utility.yul\":4200:4201   */\n      dup1\n        /* \"#utility.yul\":4193:4205   */\n      revert\n        /* \"#utility.yul\":4155:4207   */\n    tag_306:\n        /* \"#utility.yul\":4242:4251   */\n      dup3\n        /* \"#utility.yul\":4229:4252   */\n      calldataload\n        /* \"#utility.yul\":4261:4292   */\n      tag_307\n        /* \"#utility.yul\":4286:4291   */\n      dup2\n        /* \"#utility.yul\":4261:4292   */\n      tag_263\n      jump\t// in\n    tag_307:\n        /* \"#utility.yul\":4311:4316   */\n      swap2\n      pop\n        /* \"#utility.yul\":4368:4370   */\n      0x20\n        /* \"#utility.yul\":4353:4371   */\n      dup4\n      add\n        /* \"#utility.yul\":4340:4372   */\n      calldataload\n        /* \"#utility.yul\":4381:4414   */\n      tag_308\n        /* \"#utility.yul\":4340:4372   */\n      dup2\n        /* \"#utility.yul\":4381:4414   */\n      tag_263\n      jump\t// in\n    tag_308:\n        /* \"#utility.yul\":4433:4440   */\n      dup1\n        /* \"#utility.yul\":4423:4440   */\n      swap2\n      pop\n      pop\n        /* \"#utility.yul\":4058:4446   */\n      swap3\n      pop\n      swap3\n      swap1\n      pop\n      jump\t// out\n        /* \"#utility.yul\":4451:4831   */\n    tag_146:\n        /* \"#utility.yul\":4530:4531   */\n      0x01\n        /* \"#utility.yul\":4526:4538   */\n      dup2\n      dup2\n      shr\n      swap1\n        /* \"#utility.yul\":4573:4585   */\n      dup3\n      and\n      dup1\n        /* \"#utility.yul\":4594:4655   */\n      tag_310\n      jumpi\n        /* \"#utility.yul\":4648:4652   */\n      0x7f\n        /* \"#utility.yul\":4640:4646   */\n      dup3\n        /* \"#utility.yul\":4636:4653   */\n      and\n        /* \"#utility.yul\":4626:4653   */\n      swap2\n      pop\n        /* \"#utility.yul\":4594:4655   */\n    tag_310:\n        /* \"#utility.yul\":4701:4703   */\n      0x20\n        /* \"#utility.yul\":4693:4699   */\n      dup3\n        /* \"#utility.yul\":4690:4704   */\n      lt\n        /* \"#utility.yul\":4670:4688   */\n      dup2\n        /* \"#utility.yul\":4667:4705   */\n      sub\n        /* \"#utility.yul\":4664:4825   */\n      tag_311\n      jumpi\n        /* \"#utility.yul\":4747:4757   */\n      0x4e487b71\n        /* \"#utility.yul\":4742:4745   */\n      0xe0\n        /* \"#utility.yul\":4738:4758   */\n      shl\n        /* \"#utility.yul\":4735:4736   */\n      0x00\n        /* \"#utility.yul\":4728:4759   */\n      mstore\n        /* \"#utility.yul\":4782:4786   */\n      0x22\n        /* \"#utility.yul\":4779:4780   */\n      0x04\n        /* \"#utility.yul\":4772:4787   */\n      mstore\n        /* \"#utility.yul\":4810:4814   */\n      0x24\n        /* \"#utility.yul\":4807:4808   */\n      0x00\n        /* \"#utility.yul\":4800:4815   */\n      revert\n        /* \"#utility.yul\":4664:4825   */\n    tag_311:\n      pop\n        /* \"#utility.yul\":4451:4831   */\n      swap2\n      swap1\n      pop\n      jump\t// out\n        /* \"#utility.yul\":4836:5180   */\n    tag_156:\n        /* \"#utility.yul\":5038:5040   */\n      0x20\n        /* \"#utility.yul\":5020:5041   */\n      dup1\n      dup3\n      mstore\n        /* \"#utility.yul\":5077:5079   */\n      0x14\n        /* \"#utility.yul\":5057:5075   */\n      swap1\n      dup3\n      add\n        /* \"#utility.yul\":5050:5080   */\n      mstore\n      shl(0x62, 0x191ccb585d5d1a0b5d5b985d5d1a1bdc9a5e9959)\n        /* \"#utility.yul\":5111:5113   */\n      0x40\n        /* \"#utility.yul\":5096:5114   */\n      dup3\n      add\n        /* \"#utility.yul\":5089:5139   */\n      mstore\n        /* \"#utility.yul\":5171:5173   */\n      0x60\n        /* \"#utility.yul\":5156:5174   */\n      add\n      swap1\n        /* \"#utility.yul\":4836:5180   */\n      jump\t// out\n        /* \"#utility.yul\":5185:5644   */\n    tag_159:\n        /* \"#utility.yul\":5370:5376   */\n      dup4\n        /* \"#utility.yul\":5359:5368   */\n      dup2\n        /* \"#utility.yul\":5352:5377   */\n      mstore\n        /* \"#utility.yul\":5413:5415   */\n      0x40\n        /* \"#utility.yul\":5408:5410   */\n      0x20\n        /* \"#utility.yul\":5397:5406   */\n      dup3\n        /* \"#utility.yul\":5393:5411   */\n      add\n        /* \"#utility.yul\":5386:5416   */\n      mstore\n        /* \"#utility.yul\":5452:5458   */\n      dup2\n        /* \"#utility.yul\":5447:5449   */\n      0x40\n        /* \"#utility.yul\":5436:5445   */\n      dup3\n        /* \"#utility.yul\":5432:5450   */\n      add\n        /* \"#utility.yul\":5425:5459   */\n      mstore\n        /* \"#utility.yul\":5509:5515   */\n      dup2\n        /* \"#utility.yul\":5501:5507   */\n      dup4\n        /* \"#utility.yul\":5496:5498   */\n      0x60\n        /* \"#utility.yul\":5485:5494   */\n      dup4\n        /* \"#utility.yul\":5481:5499   */\n      add\n        /* \"#utility.yul\":5468:5516   */\n      calldatacopy\n        /* \"#utility.yul\":5565:5566   */\n      0x00\n        /* \"#utility.yul\":5536:5558   */\n      dup2\n      dup4\n      add\n        /* \"#utility.yul\":5560:5562   */\n      0x60\n        /* \"#utility.yul\":5532:5563   */\n      swap1\n      dup2\n      add\n        /* \"#utility.yul\":5525:5567   */\n      swap2\n      swap1\n      swap2\n      mstore\n        /* \"#utility.yul\":5628:5630   */\n      0x1f\n        /* \"#utility.yul\":5607:5622   */\n      swap1\n      swap3\n      add\n      not(0x1f)\n        /* \"#utility.yul\":5603:5632   */\n      and\n        /* \"#utility.yul\":5588:5633   */\n      add\n        /* \"#utility.yul\":5584:5638   */\n      add\n      swap3\n        /* \"#utility.yul\":5185:5644   */\n      swap2\n      pop\n      pop\n      jump\t// out\n        /* \"#utility.yul\":5649:5776   */\n    tag_265:\n        /* \"#utility.yul\":5710:5720   */\n      0x4e487b71\n        /* \"#utility.yul\":5705:5708   */\n      0xe0\n        /* \"#utility.yul\":5701:5721   */\n      shl\n        /* \"#utility.yul\":5698:5699   */\n      0x00\n        /* \"#utility.yul\":5691:5722   */\n      mstore\n        /* \"#utility.yul\":5741:5745   */\n      0x11\n        /* \"#utility.yul\":5738:5739   */\n      0x04\n        /* \"#utility.yul\":5731:5746   */\n      mstore\n        /* \"#utility.yul\":5765:5769   */\n      0x24\n        /* \"#utility.yul\":5762:5763   */\n      0x00\n        /* \"#utility.yul\":5755:5770   */\n      revert\n        /* \"#utility.yul\":5781:5909   */\n    tag_178:\n        /* \"#utility.yul\":5848:5857   */\n      dup2\n      dup2\n      sub\n        /* \"#utility.yul\":5869:5880   */\n      dup2\n      dup2\n      gt\n        /* \"#utility.yul\":5866:5903   */\n      iszero\n      tag_163\n      jumpi\n        /* \"#utility.yul\":5883:5901   */\n      tag_163\n      tag_265\n      jump\t// in\n        /* \"#utility.yul\":5914:6039   */\n    tag_181:\n        /* \"#utility.yul\":5979:5988   */\n      dup1\n      dup3\n      add\n        /* \"#utility.yul\":6000:6010   */\n      dup1\n      dup3\n      gt\n        /* \"#utility.yul\":5997:6033   */\n      iszero\n      tag_163\n      jumpi\n        /* \"#utility.yul\":6013:6031   */\n      tag_163\n      tag_265\n      jump\t// in\n        /* \"#utility.yul\":6170:6715   */\n    tag_267:\n        /* \"#utility.yul\":6272:6274   */\n      0x1f\n        /* \"#utility.yul\":6267:6270   */\n      dup3\n        /* \"#utility.yul\":6264:6275   */\n      gt\n        /* \"#utility.yul\":6261:6709   */\n      iszero\n      tag_224\n      jumpi\n        /* \"#utility.yul\":6308:6309   */\n      0x00\n        /* \"#utility.yul\":6333:6338   */\n      dup2\n        /* \"#utility.yul\":6329:6331   */\n      dup2\n        /* \"#utility.yul\":6322:6339   */\n      mstore\n        /* \"#utility.yul\":6378:6382   */\n      0x20\n        /* \"#utility.yul\":6374:6376   */\n      dup2\n        /* \"#utility.yul\":6364:6383   */\n      keccak256\n        /* \"#utility.yul\":6448:6450   */\n      0x1f\n        /* \"#utility.yul\":6436:6446   */\n      dup6\n        /* \"#utility.yul\":6432:6451   */\n      add\n        /* \"#utility.yul\":6429:6430   */\n      0x05\n        /* \"#utility.yul\":6425:6452   */\n      shr\n        /* \"#utility.yul\":6419:6423   */\n      dup2\n        /* \"#utility.yul\":6415:6453   */\n      add\n        /* \"#utility.yul\":6484:6488   */\n      0x20\n        /* \"#utility.yul\":6472:6482   */\n      dup7\n        /* \"#utility.yul\":6469:6489   */\n      lt\n        /* \"#utility.yul\":6466:6513   */\n      iszero\n      tag_324\n      jumpi\n      pop\n        /* \"#utility.yul\":6507:6511   */\n      dup1\n        /* \"#utility.yul\":6466:6513   */\n    tag_324:\n        /* \"#utility.yul\":6562:6564   */\n      0x1f\n        /* \"#utility.yul\":6557:6560   */\n      dup6\n        /* \"#utility.yul\":6553:6565   */\n      add\n        /* \"#utility.yul\":6550:6551   */\n      0x05\n        /* \"#utility.yul\":6546:6566   */\n      shr\n        /* \"#utility.yul\":6540:6544   */\n      dup3\n        /* \"#utility.yul\":6536:6567   */\n      add\n        /* \"#utility.yul\":6526:6567   */\n      swap2\n      pop\n        /* \"#utility.yul\":6617:6699   */\n    tag_325:\n        /* \"#utility.yul\":6635:6637   */\n      dup2\n        /* \"#utility.yul\":6628:6633   */\n      dup2\n        /* \"#utility.yul\":6625:6638   */\n      lt\n        /* \"#utility.yul\":6617:6699   */\n      iszero\n      tag_327\n      jumpi\n        /* \"#utility.yul\":6680:6697   */\n      dup3\n      dup2\n      sstore\n        /* \"#utility.yul\":6661:6662   */\n      0x01\n        /* \"#utility.yul\":6650:6663   */\n      add\n        /* \"#utility.yul\":6617:6699   */\n      jump(tag_325)\n    tag_327:\n        /* \"#utility.yul\":6621:6624   */\n      pop\n      pop\n      pop\n        /* \"#utility.yul\":6170:6715   */\n      pop\n      pop\n      pop\n      jump\t// out\n        /* \"#utility.yul\":6891:8243   */\n    tag_240:\n        /* \"#utility.yul\":7017:7020   */\n      dup2\n        /* \"#utility.yul\":7011:7021   */\n      mload\n        /* \"#utility.yul\":7044:7062   */\n      0xffffffffffffffff\n        /* \"#utility.yul\":7036:7042   */\n      dup2\n        /* \"#utility.yul\":7033:7063   */\n      gt\n        /* \"#utility.yul\":7030:7086   */\n      iszero\n      tag_331\n      jumpi\n        /* \"#utility.yul\":7066:7084   */\n      tag_331\n      tag_264\n      jump\t// in\n    tag_331:\n        /* \"#utility.yul\":7095:7192   */\n      tag_332\n        /* \"#utility.yul\":7185:7191   */\n      dup2\n        /* \"#utility.yul\":7145:7183   */\n      tag_333\n        /* \"#utility.yul\":7177:7181   */\n      dup5\n        /* \"#utility.yul\":7171:7182   */\n      sload\n        /* \"#utility.yul\":7145:7183   */\n      tag_146\n      jump\t// in\n    tag_333:\n        /* \"#utility.yul\":7139:7143   */\n      dup5\n        /* \"#utility.yul\":7095:7192   */\n      tag_267\n      jump\t// in\n    tag_332:\n        /* \"#utility.yul\":7247:7251   */\n      0x20\n      dup1\n        /* \"#utility.yul\":7311:7313   */\n      0x1f\n        /* \"#utility.yul\":7300:7314   */\n      dup4\n      gt\n        /* \"#utility.yul\":7328:7329   */\n      0x01\n        /* \"#utility.yul\":7323:7986   */\n      dup2\n      eq\n      tag_335\n      jumpi\n        /* \"#utility.yul\":8030:8031   */\n      0x00\n        /* \"#utility.yul\":8047:8053   */\n      dup5\n        /* \"#utility.yul\":8044:8133   */\n      iszero\n      tag_336\n      jumpi\n      pop\n        /* \"#utility.yul\":8099:8118   */\n      dup6\n      dup4\n      add\n        /* \"#utility.yul\":8093:8119   */\n      mload\n        /* \"#utility.yul\":8044:8133   */\n    tag_336:\n      not(0x00)\n        /* \"#utility.yul\":6848:6849   */\n      0x03\n        /* \"#utility.yul\":6844:6855   */\n      dup7\n      swap1\n      shl\n        /* \"#utility.yul\":6840:6864   */\n      shr\n        /* \"#utility.yul\":6836:6865   */\n      not\n        /* \"#utility.yul\":6826:6866   */\n      and\n        /* \"#utility.yul\":6872:6873   */\n      0x01\n        /* \"#utility.yul\":6868:6879   */\n      dup6\n      swap1\n      shl\n        /* \"#utility.yul\":6823:6880   */\n      or\n        /* \"#utility.yul\":8146:8227   */\n      dup6\n      sstore\n        /* \"#utility.yul\":7293:8237   */\n      jump(tag_327)\n        /* \"#utility.yul\":7323:7986   */\n    tag_335:\n        /* \"#utility.yul\":6117:6118   */\n      0x00\n        /* \"#utility.yul\":6110:6124   */\n      dup6\n      dup2\n      mstore\n        /* \"#utility.yul\":6154:6158   */\n      0x20\n        /* \"#utility.yul\":6141:6159   */\n      dup2\n      keccak256\n      not(0x1f)\n        /* \"#utility.yul\":7359:7379   */\n      dup7\n      and\n      swap2\n        /* \"#utility.yul\":7477:7713   */\n    tag_339:\n        /* \"#utility.yul\":7491:7498   */\n      dup3\n        /* \"#utility.yul\":7488:7489   */\n      dup2\n        /* \"#utility.yul\":7485:7499   */\n      lt\n        /* \"#utility.yul\":7477:7713   */\n      iszero\n      tag_341\n      jumpi\n        /* \"#utility.yul\":7580:7599   */\n      dup9\n      dup7\n      add\n        /* \"#utility.yul\":7574:7600   */\n      mload\n        /* \"#utility.yul\":7559:7601   */\n      dup3\n      sstore\n        /* \"#utility.yul\":7672:7699   */\n      swap5\n      dup5\n      add\n      swap5\n        /* \"#utility.yul\":7640:7641   */\n      0x01\n        /* \"#utility.yul\":7628:7642   */\n      swap1\n      swap2\n      add\n      swap1\n        /* \"#utility.yul\":7507:7526   */\n      dup5\n      add\n        /* \"#utility.yul\":7477:7713   */\n      jump(tag_339)\n    tag_341:\n        /* \"#utility.yul\":7481:7484   */\n      pop\n        /* \"#utility.yul\":7741:7747   */\n      dup6\n        /* \"#utility.yul\":7732:7739   */\n      dup3\n        /* \"#utility.yul\":7729:7748   */\n      lt\n        /* \"#utility.yul\":7726:7927   */\n      iszero\n      tag_342\n      jumpi\n        /* \"#utility.yul\":7802:7821   */\n      dup8\n      dup6\n      add\n        /* \"#utility.yul\":7796:7822   */\n      mload\n      not(0x00)\n        /* \"#utility.yul\":7885:7886   */\n      0x03\n        /* \"#utility.yul\":7881:7895   */\n      dup9\n      swap1\n      shl\n        /* \"#utility.yul\":7897:7900   */\n      0xf8\n        /* \"#utility.yul\":7877:7901   */\n      and\n        /* \"#utility.yul\":7873:7910   */\n      shr\n        /* \"#utility.yul\":7869:7911   */\n      not\n        /* \"#utility.yul\":7854:7912   */\n      and\n        /* \"#utility.yul\":7839:7913   */\n      dup2\n      sstore\n        /* \"#utility.yul\":7726:7927   */\n    tag_342:\n      pop\n      pop\n      pop\n      pop\n      pop\n        /* \"#utility.yul\":7973:7974   */\n      0x01\n        /* \"#utility.yul\":7957:7971   */\n      swap1\n      dup2\n      shl\n        /* \"#utility.yul\":7953:7975   */\n      add\n        /* \"#utility.yul\":7940:7976   */\n      swap1\n      sstore\n      pop\n        /* \"#utility.yul\":6891:8243   */\n      jump\t// out\n        /* \"#utility.yul\":8653:8930   */\n    tag_260:\n        /* \"#utility.yul\":8720:8726   */\n      0x00\n        /* \"#utility.yul\":8773:8775   */\n      0x20\n        /* \"#utility.yul\":8761:8770   */\n      dup3\n        /* \"#utility.yul\":8752:8759   */\n      dup5\n        /* \"#utility.yul\":8748:8771   */\n      sub\n        /* \"#utility.yul\":8744:8776   */\n      slt\n        /* \"#utility.yul\":8741:8793   */\n      iszero\n      tag_345\n      jumpi\n        /* \"#utility.yul\":8789:8790   */\n      0x00\n        /* \"#utility.yul\":8786:8787   */\n      dup1\n        /* \"#utility.yul\":8779:8791   */\n      revert\n        /* \"#utility.yul\":8741:8793   */\n    tag_345:\n        /* \"#utility.yul\":8821:8830   */\n      dup2\n        /* \"#utility.yul\":8815:8831   */\n      mload\n        /* \"#utility.yul\":8874:8879   */\n      dup1\n        /* \"#utility.yul\":8867:8880   */\n      iszero\n        /* \"#utility.yul\":8860:8881   */\n      iszero\n        /* \"#utility.yul\":8853:8858   */\n      dup2\n        /* \"#utility.yul\":8850:8882   */\n      eq\n        /* \"#utility.yul\":8840:8900   */\n      tag_282\n      jumpi\n        /* \"#utility.yul\":8896:8897   */\n      0x00\n        /* \"#utility.yul\":8893:8894   */\n      dup1\n        /* \"#utility.yul\":8886:8898   */\n      revert\n\n    auxdata: 0xa26469706673582212207dc3d3817b109424b6c528b1b60252428f673bd696a6b70fc1dc3c454ac40c8364736f6c63430008150033\n}\n",
				"bytecode": {
					"linkReferences": {},
					"object": "6080604052601260065534801562000015575f80fd5b50604051620013df380380620013df8339810160408190526200003891620000ae565b335f81815260016020526040808220829055818055600480546001600160a01b03191684179055517fce241d7ca1f669fee44b6fc00b8eba2df3bb514eed0f6f668f8f89096e81ed949190a2600562000092828262000208565b5050620002d0565b634e487b7160e01b5f52604160045260245ffd5b5f6020808385031215620000c0575f80fd5b82516001600160401b0380821115620000d7575f80fd5b818501915085601f830112620000eb575f80fd5b8151818111156200010057620001006200009a565b604051601f8201601f19908116603f011681019083821181831017156200012b576200012b6200009a565b81604052828152888684870101111562000143575f80fd5b5f93505b8284101562000166578484018601518185018701529285019262000147565b5f86848301015280965050505050505092915050565b600181811c908216806200019157607f821691505b602082108103620001b057634e487b7160e01b5f52602260045260245ffd5b50919050565b601f82111562000203575f81815260208120601f850160051c81016020861015620001de5750805b601f850160051c820191505b81811015620001ff57828155600101620001ea565b5050505b505050565b81516001600160401b038111156200022457620002246200009a565b6200023c816200023584546200017c565b84620001b6565b602080601f83116001811462000272575f84156200025a5750858301515b5f19600386901b1c1916600185901b178555620001ff565b5f85815260208120601f198616915b82811015620002a25788860151825594840194600190910190840162000281565b5085821015620002c057878501515f19600388901b60f8161c191681555b5050505050600190811b01905550565b61110180620002de5f395ff3fe608060405260043610610161575f3560e01c80638da5cb5b116100cd578063bb35783b11610087578063c47f002711610062578063c47f0027146103f6578063daea85c514610415578063dd62ed3e14610434578063f2d5d56b14610478575f80fd5b8063bb35783b146103b0578063be9a6555146103cf578063bf7e214f146103d7575f80fd5b80638da5cb5b146102e957806395d89b41146103205780639dc29fac14610334578063a0712d6814610353578063a9059cbb14610372578063b753a98c14610391575f80fd5b8063313ce5671161011e578063313ce5671461022357806340c10f191461023857806342966c681461025757806370a082311461027657806375f12b21146102aa5780637a9e5e4b146102ca575f80fd5b806306fdde031461016557806307da68f51461018f578063095ea7b31461019957806313af4035146101c857806318160ddd146101e757806323b872dd14610204575b5f80fd5b348015610170575f80fd5b50610179610497565b6040516101869190610cd8565b60405180910390f35b610197610523565b005b3480156101a4575f80fd5b506101b86101b3366004610d37565b6105a8565b6040519015158152602001610186565b3480156101d3575f80fd5b506101976101e2366004610d61565b6105d3565b3480156101f2575f80fd5b505f545b604051908152602001610186565b34801561020f575f80fd5b506101b861021e366004610d83565b61064d565b34801561022e575f80fd5b506101f660065481565b348015610243575f80fd5b50610197610252366004610d37565b6107af565b348015610262575f80fd5b50610197610271366004610dc1565b610885565b348015610281575f80fd5b506101f6610290366004610d61565b6001600160a01b03165f9081526001602052604090205490565b3480156102b5575f80fd5b506004546101b890600160a01b900460ff1681565b3480156102d5575f80fd5b506101976102e4366004610d61565b610892565b3480156102f4575f80fd5b50600454610308906001600160a01b031681565b6040516001600160a01b039091168152602001610186565b34801561032b575f80fd5b5061017961090c565b34801561033f575f80fd5b5061019761034e366004610d37565b610919565b34801561035e575f80fd5b5061019761036d366004610dc1565b610a7a565b34801561037d575f80fd5b506101b861038c366004610d37565b610a84565b34801561039c575f80fd5b506101976103ab366004610d37565b610a90565b3480156103bb575f80fd5b506101976103ca366004610d83565b610aa0565b610197610ab1565b3480156103e2575f80fd5b50600354610308906001600160a01b031681565b348015610401575f80fd5b50610197610410366004610dec565b610b27565b348015610420575f80fd5b506101b861042f366004610d61565b610b68565b34801561043f575f80fd5b506101f661044e366004610e97565b6001600160a01b039182165f90815260026020908152604080832093909416825291909152205490565b348015610483575f80fd5b50610197610492366004610d37565b610b8b565b600780546104a490610ece565b80601f01602080910402602001604051908101604052809291908181526020018280546104d090610ece565b801561051b5780601f106104f25761010080835404028352916020019161051b565b820191905f5260205f20905b8154815290600101906020018083116104fe57829003601f168201915b505050505081565b610538335f356001600160e01b031916610b96565b61055d5760405162461bcd60e51b815260040161055490610f06565b60405180910390fd5b60405160043590602435908190839033905f80356001600160e01b031916916105899134913690610f34565b60405180910390a450506004805460ff60a01b1916600160a01b179055565b6004545f90600160a01b900460ff16156105c0575f80fd5b6105ca8383610c6d565b90505b92915050565b6105e8335f356001600160e01b031916610b96565b6106045760405162461bcd60e51b815260040161055490610f06565b600480546001600160a01b0319166001600160a01b0383169081179091556040517fce241d7ca1f669fee44b6fc00b8eba2df3bb514eed0f6f668f8f89096e81ed94905f90a250565b6004545f90600160a01b900460ff1615610665575f80fd5b6001600160a01b03841633148015906106a157506001600160a01b0384165f9081526002602090815260408083203384529091529020545f1914155b156106f8576001600160a01b0384165f9081526002602090815260408083203384529091529020546106d4908390610f7d565b6001600160a01b0385165f9081526002602090815260408083203384529091529020555b6001600160a01b0384165f9081526001602052604090205461071b908390610f7d565b6001600160a01b038086165f90815260016020526040808220939093559085168152205461074a908390610f90565b6001600160a01b038085165f8181526001602052604090819020939093559151908616907fddf252ad1be2c89b69c2b068fc378daa952ba7f163c4a11628f55a4df523b3ef9061079d9086815260200190565b60405180910390a35060019392505050565b6107c4335f356001600160e01b031916610b96565b6107e05760405162461bcd60e51b815260040161055490610f06565b600454600160a01b900460ff16156107f6575f80fd5b6001600160a01b0382165f90815260016020526040902054610819908290610f90565b6001600160a01b0383165f9081526001602052604081209190915554610840908290610f90565b5f556040518181526001600160a01b038316907f0f6798a560793a54c3bcfe86a93cde1e73087d944c0ea20544137d4121396885906020015b60405180910390a25050565b61088f3382610919565b50565b6108a7335f356001600160e01b031916610b96565b6108c35760405162461bcd60e51b815260040161055490610f06565b600380546001600160a01b0319166001600160a01b0383169081179091556040517f1abebea81bfa2637f28358c371278fb15ede7ea8dd28d2e03b112ff6d936ada4905f90a250565b600580546104a490610ece565b61092e335f356001600160e01b031916610b96565b61094a5760405162461bcd60e51b815260040161055490610f06565b600454600160a01b900460ff1615610960575f80fd5b6001600160a01b038216331480159061099c57506001600160a01b0382165f9081526002602090815260408083203384529091529020545f1914155b156109f3576001600160a01b0382165f9081526002602090815260408083203384529091529020546109cf908290610f7d565b6001600160a01b0383165f9081526002602090815260408083203384529091529020555b6001600160a01b0382165f90815260016020526040902054610a16908290610f7d565b6001600160a01b0383165f9081526001602052604081209190915554610a3d908290610f7d565b5f556040518181526001600160a01b038316907fcc16f5dbb4873280815c1ee09dbd06736cffcc184412cf7a71a0fdb75d397ca590602001610879565b61088f33826107af565b5f6105ca33848461064d565b610a9b33838361064d565b505050565b610aab83838361064d565b50505050565b610ac6335f356001600160e01b031916610b96565b610ae25760405162461bcd60e51b815260040161055490610f06565b60405160043590602435908190839033905f80356001600160e01b03191691610b0e9134913690610f34565b60405180910390a450506004805460ff60a01b19169055565b610b3c335f356001600160e01b031916610b96565b610b585760405162461bcd60e51b815260040161055490610f06565b6007610b648282610ff0565b5050565b6004545f90600160a01b900460ff1615610b80575f80fd5b6105cd825f19610c6d565b610a9b82338361064d565b5f306001600160a01b03841603610baf575060016105cd565b6004546001600160a01b0390811690841603610bcd575060016105cd565b6003546001600160a01b0316610be457505f6105cd565b60035460405163b700961360e01b81526001600160a01b0385811660048301523060248301526001600160e01b0319851660448301529091169063b700961390606401602060405180830381865afa158015610c42573d5f803e3d5ffd5b505050506040513d601f19601f82011682018060405250810190610c6691906110ac565b90506105cd565b335f8181526002602090815260408083206001600160a01b038716808552925280832085905551919290917f8c5be1e5ebec7d5bd14f71427d1e84f3dd0314c0f7b2291e5b200ac8c7c3b92590610cc79086815260200190565b60405180910390a350600192915050565b5f6020808352835180828501525f5b81811015610d0357858101830151858201604001528201610ce7565b505f604082860101526040601f19601f8301168501019250505092915050565b6001600160a01b038116811461088f575f80fd5b5f8060408385031215610d48575f80fd5b8235610d5381610d23565b946020939093013593505050565b5f60208284031215610d71575f80fd5b8135610d7c81610d23565b9392505050565b5f805f60608486031215610d95575f80fd5b8335610da081610d23565b92506020840135610db081610d23565b929592945050506040919091013590565b5f60208284031215610dd1575f80fd5b5035919050565b634e487b7160e01b5f52604160045260245ffd5b5f60208284031215610dfc575f80fd5b813567ffffffffffffffff80821115610e13575f80fd5b818401915084601f830112610e26575f80fd5b813581811115610e3857610e38610dd8565b604051601f8201601f19908116603f01168101908382118183101715610e6057610e60610dd8565b81604052828152876020848701011115610e78575f80fd5b826020860160208301375f928101602001929092525095945050505050565b5f8060408385031215610ea8575f80fd5b8235610eb381610d23565b91506020830135610ec381610d23565b809150509250929050565b600181811c90821680610ee257607f821691505b602082108103610f0057634e487b7160e01b5f52602260045260245ffd5b50919050565b602080825260149082015273191ccb585d5d1a0b5d5b985d5d1a1bdc9a5e995960621b604082015260600190565b83815260406020820152816040820152818360608301375f818301606090810191909152601f909201601f1916010192915050565b634e487b7160e01b5f52601160045260245ffd5b818103818111156105cd576105cd610f69565b808201808211156105cd576105cd610f69565b601f821115610a9b575f81815260208120601f850160051c81016020861015610fc95750805b601f850160051c820191505b81811015610fe857828155600101610fd5565b505050505050565b815167ffffffffffffffff81111561100a5761100a610dd8565b61101e816110188454610ece565b84610fa3565b602080601f831160018114611051575f841561103a5750858301515b5f19600386901b1c1916600185901b178555610fe8565b5f85815260208120601f198616915b8281101561107f57888601518255948401946001909101908401611060565b508582101561109c57878501515f19600388901b60f8161c191681555b5050505050600190811b01905550565b5f602082840312156110bc575f80fd5b81518015158114610d7c575f80fdfea26469706673582212207dc3d3817b109424b6c528b1b60252428f673bd696a6b70fc1dc3c454ac40c8364736f6c63430008150033",
					"opcodes": "PUSH1 0x80 PUSH1 0x40 MSTORE PUSH1 0x12 PUSH1 0x6 SSTORE CALLVALUE DUP1 ISZERO PUSH3 0x15 JUMPI PUSH0 DUP1 REVERT JUMPDEST POP PUSH1 0x40 MLOAD PUSH3 0x13DF CODESIZE SUB DUP1 PUSH3 0x13DF DUP4 CODECOPY DUP2 ADD PUSH1 0x40 DUP2 SWAP1 MSTORE PUSH3 0x38 SWAP2 PUSH3 0xAE JUMP JUMPDEST CALLER PUSH0 DUP2 DUP2 MSTORE PUSH1 0x1 PUSH1 0x20 MSTORE PUSH1 0x40 DUP1 DUP3 KECCAK256 DUP3 SWAP1 SSTORE DUP2 DUP1 SSTORE PUSH1 0x4 DUP1 SLOAD PUSH1 0x1 PUSH1 0x1 PUSH1 0xA0 SHL SUB NOT AND DUP5 OR SWAP1 SSTORE MLOAD PUSH32 0xCE241D7CA1F669FEE44B6FC00B8EBA2DF3BB514EED0F6F668F8F89096E81ED94 SWAP2 SWAP1 LOG2 PUSH1 0x5 PUSH3 0x92 DUP3 DUP3 PUSH3 0x208 JUMP JUMPDEST POP POP PUSH3 0x2D0 JUMP JUMPDEST PUSH4 0x4E487B71 PUSH1 0xE0 SHL PUSH0 MSTORE PUSH1 0x41 PUSH1 0x4 MSTORE PUSH1 0x24 PUSH0 REVERT JUMPDEST PUSH0 PUSH1 0x20 DUP1 DUP4 DUP6 SUB SLT ISZERO PUSH3 0xC0 JUMPI PUSH0 DUP1 REVERT JUMPDEST DUP3 MLOAD PUSH1 0x1 PUSH1 0x1 PUSH1 0x40 SHL SUB DUP1 DUP3 GT ISZERO PUSH3 0xD7 JUMPI PUSH0 DUP1 REVERT JUMPDEST DUP2 DUP6 ADD SWAP2 POP DUP6 PUSH1 0x1F DUP4 ADD SLT PUSH3 0xEB JUMPI PUSH0 DUP1 REVERT JUMPDEST DUP2 MLOAD DUP2 DUP2 GT ISZERO PUSH3 0x100 JUMPI PUSH3 0x100 PUSH3 0x9A JUMP JUMPDEST PUSH1 0x40 MLOAD PUSH1 0x1F DUP3 ADD PUSH1 0x1F NOT SWAP1 DUP2 AND PUSH1 0x3F ADD AND DUP2 ADD SWAP1 DUP4 DUP3 GT DUP2 DUP4 LT OR ISZERO PUSH3 0x12B JUMPI PUSH3 0x12B PUSH3 0x9A JUMP JUMPDEST DUP2 PUSH1 0x40 MSTORE DUP3 DUP2 MSTORE DUP9 DUP7 DUP5 DUP8 ADD ADD GT ISZERO PUSH3 0x143 JUMPI PUSH0 DUP1 REVERT JUMPDEST PUSH0 SWAP4 POP JUMPDEST DUP3 DUP5 LT ISZERO PUSH3 0x166 JUMPI DUP5 DUP5 ADD DUP7 ADD MLOAD DUP2 DUP6 ADD DUP8 ADD MSTORE SWAP3 DUP6 ADD SWAP3 PUSH3 0x147 JUMP JUMPDEST PUSH0 DUP7 DUP5 DUP4 ADD ADD MSTORE DUP1 SWAP7 POP POP POP POP POP POP POP SWAP3 SWAP2 POP POP JUMP JUMPDEST PUSH1 0x1 DUP2 DUP2 SHR SWAP1 DUP3 AND DUP1 PUSH3 0x191 JUMPI PUSH1 0x7F DUP3 AND SWAP2 POP JUMPDEST PUSH1 0x20 DUP3 LT DUP2 SUB PUSH3 0x1B0 JUMPI PUSH4 0x4E487B71 PUSH1 0xE0 SHL PUSH0 MSTORE PUSH1 0x22 PUSH1 0x4 MSTORE PUSH1 0x24 PUSH0 REVERT JUMPDEST POP SWAP2 SWAP1 POP JUMP JUMPDEST PUSH1 0x1F DUP3 GT ISZERO PUSH3 0x203 JUMPI PUSH0 DUP2 DUP2 MSTORE PUSH1 0x20 DUP2 KECCAK256 PUSH1 0x1F DUP6 ADD PUSH1 0x5 SHR DUP2 ADD PUSH1 0x20 DUP7 LT ISZERO PUSH3 0x1DE JUMPI POP DUP1 JUMPDEST PUSH1 0x1F DUP6 ADD PUSH1 0x5 SHR DUP3 ADD SWAP2 POP JUMPDEST DUP2 DUP2 LT ISZERO PUSH3 0x1FF JUMPI DUP3 DUP2 SSTORE PUSH1 0x1 ADD PUSH3 0x1EA JUMP JUMPDEST POP POP POP JUMPDEST POP POP POP JUMP JUMPDEST DUP2 MLOAD PUSH1 0x1 PUSH1 0x1 PUSH1 0x40 SHL SUB DUP2 GT ISZERO PUSH3 0x224 JUMPI PUSH3 0x224 PUSH3 0x9A JUMP JUMPDEST PUSH3 0x23C DUP2 PUSH3 0x235 DUP5 SLOAD PUSH3 0x17C JUMP JUMPDEST DUP5 PUSH3 0x1B6 JUMP JUMPDEST PUSH1 0x20 DUP1 PUSH1 0x1F DUP4 GT PUSH1 0x1 DUP2 EQ PUSH3 0x272 JUMPI PUSH0 DUP5 ISZERO PUSH3 0x25A JUMPI POP DUP6 DUP4 ADD MLOAD JUMPDEST PUSH0 NOT PUSH1 0x3 DUP7 SWAP1 SHL SHR NOT AND PUSH1 0x1 DUP6 SWAP1 SHL OR DUP6 SSTORE PUSH3 0x1FF JUMP JUMPDEST PUSH0 DUP6 DUP2 MSTORE PUSH1 0x20 DUP2 KECCAK256 PUSH1 0x1F NOT DUP7 AND SWAP2 JUMPDEST DUP3 DUP2 LT ISZERO PUSH3 0x2A2 JUMPI DUP9 DUP7 ADD MLOAD DUP3 SSTORE SWAP5 DUP5 ADD SWAP5 PUSH1 0x1 SWAP1 SWAP2 ADD SWAP1 DUP5 ADD PUSH3 0x281 JUMP JUMPDEST POP DUP6 DUP3 LT ISZERO PUSH3 0x2C0 JUMPI DUP8 DUP6 ADD MLOAD PUSH0 NOT PUSH1 0x3 DUP9 SWAP1 SHL PUSH1 0xF8 AND SHR NOT AND DUP2 SSTORE JUMPDEST POP POP POP POP POP PUSH1 0x1 SWAP1 DUP2 SHL ADD SWAP1 SSTORE POP JUMP JUMPDEST PUSH2 0x1101 DUP1 PUSH3 0x2DE PUSH0 CODECOPY PUSH0 RETURN INVALID PUSH1 0x80 PUSH1 0x40 MSTORE PUSH1 0x4 CALLDATASIZE LT PUSH2 0x161 JUMPI PUSH0 CALLDATALOAD PUSH1 0xE0 SHR DUP1 PUSH4 0x8DA5CB5B GT PUSH2 0xCD JUMPI DUP1 PUSH4 0xBB35783B GT PUSH2 0x87 JUMPI DUP1 PUSH4 0xC47F0027 GT PUSH2 0x62 JUMPI DUP1 PUSH4 0xC47F0027 EQ PUSH2 0x3F6 JUMPI DUP1 PUSH4 0xDAEA85C5 EQ PUSH2 0x415 JUMPI DUP1 PUSH4 0xDD62ED3E EQ PUSH2 0x434 JUMPI DUP1 PUSH4 0xF2D5D56B EQ PUSH2 0x478 JUMPI PUSH0 DUP1 REVERT JUMPDEST DUP1 PUSH4 0xBB35783B EQ PUSH2 0x3B0 JUMPI DUP1 PUSH4 0xBE9A6555 EQ PUSH2 0x3CF JUMPI DUP1 PUSH4 0xBF7E214F EQ PUSH2 0x3D7 JUMPI PUSH0 DUP1 REVERT JUMPDEST DUP1 PUSH4 0x8DA5CB5B EQ PUSH2 0x2E9 JUMPI DUP1 PUSH4 0x95D89B41 EQ PUSH2 0x320 JUMPI DUP1 PUSH4 0x9DC29FAC EQ PUSH2 0x334 JUMPI DUP1 PUSH4 0xA0712D68 EQ PUSH2 0x353 JUMPI DUP1 PUSH4 0xA9059CBB EQ PUSH2 0x372 JUMPI DUP1 PUSH4 0xB753A98C EQ PUSH2 0x391 JUMPI PUSH0 DUP1 REVERT JUMPDEST DUP1 PUSH4 0x313CE567 GT PUSH2 0x11E JUMPI DUP1 PUSH4 0x313CE567 EQ PUSH2 0x223 JUMPI DUP1 PUSH4 0x40C10F19 EQ PUSH2 0x238 JUMPI DUP1 PUSH4 0x42966C68 EQ PUSH2 0x257 JUMPI DUP1 PUSH4 0x70A08231 EQ PUSH2 0x276 JUMPI DUP1 PUSH4 0x75F12B21 EQ PUSH2 0x2AA JUMPI DUP1 PUSH4 0x7A9E5E4B EQ PUSH2 0x2CA JUMPI PUSH0 DUP1 REVERT JUMPDEST DUP1 PUSH4 0x6FDDE03 EQ PUSH2 0x165 JUMPI DUP1 PUSH4 0x7DA68F5 EQ PUSH2 0x18F JUMPI DUP1 PUSH4 0x95EA7B3 EQ PUSH2 0x199 JUMPI DUP1 PUSH4 0x13AF4035 EQ PUSH2 0x1C8 JUMPI DUP1 PUSH4 0x18160DDD EQ PUSH2 0x1E7 JUMPI DUP1 PUSH4 0x23B872DD EQ PUSH2 0x204 JUMPI JUMPDEST PUSH0 DUP1 REVERT JUMPDEST CALLVALUE DUP1 ISZERO PUSH2 0x170 JUMPI PUSH0 DUP1 REVERT JUMPDEST POP PUSH2 0x179 PUSH2 0x497 JUMP JUMPDEST PUSH1 0x40 MLOAD PUSH2 0x186 SWAP2 SWAP1 PUSH2 0xCD8 JUMP JUMPDEST PUSH1 0x40 MLOAD DUP1 SWAP2 SUB SWAP1 RETURN JUMPDEST PUSH2 0x197 PUSH2 0x523 JUMP JUMPDEST STOP JUMPDEST CALLVALUE DUP1 ISZERO PUSH2 0x1A4 JUMPI PUSH0 DUP1 REVERT JUMPDEST POP PUSH2 0x1B8 PUSH2 0x1B3 CALLDATASIZE PUSH1 0x4 PUSH2 0xD37 JUMP JUMPDEST PUSH2 0x5A8 JUMP JUMPDEST PUSH1 0x40 MLOAD SWAP1 ISZERO ISZERO DUP2 MSTORE PUSH1 0x20 ADD PUSH2 0x186 JUMP JUMPDEST CALLVALUE DUP1 ISZERO PUSH2 0x1D3 JUMPI PUSH0 DUP1 REVERT JUMPDEST POP PUSH2 0x197 PUSH2 0x1E2 CALLDATASIZE PUSH1 0x4 PUSH2 0xD61 JUMP JUMPDEST PUSH2 0x5D3 JUMP JUMPDEST CALLVALUE DUP1 ISZERO PUSH2 0x1F2 JUMPI PUSH0 DUP1 REVERT JUMPDEST POP PUSH0 SLOAD JUMPDEST PUSH1 0x40 MLOAD SWAP1 DUP2 MSTORE PUSH1 0x20 ADD PUSH2 0x186 JUMP JUMPDEST CALLVALUE DUP1 ISZERO PUSH2 0x20F JUMPI PUSH0 DUP1 REVERT JUMPDEST POP PUSH2 0x1B8 PUSH2 0x21E CALLDATASIZE PUSH1 0x4 PUSH2 0xD83 JUMP JUMPDEST PUSH2 0x64D JUMP JUMPDEST CALLVALUE DUP1 ISZERO PUSH2 0x22E JUMPI PUSH0 DUP1 REVERT JUMPDEST POP PUSH2 0x1F6 PUSH1 0x6 SLOAD DUP2 JUMP JUMPDEST CALLVALUE DUP1 ISZERO PUSH2 0x243 JUMPI PUSH0 DUP1 REVERT JUMPDEST POP PUSH2 0x197 PUSH2 0x252 CALLDATASIZE PUSH1 0x4 PUSH2 0xD37 JUMP JUMPDEST PUSH2 0x7AF JUMP JUMPDEST CALLVALUE DUP1 ISZERO PUSH2 0x262 JUMPI PUSH0 DUP1 REVERT JUMPDEST POP PUSH2 0x197 PUSH2 0x271 CALLDATASIZE PUSH1 0x4 PUSH2 0xDC1 JUMP JUMPDEST PUSH2 0x885 JUMP JUMPDEST CALLVALUE DUP1 ISZERO PUSH2 0x281 JUMPI PUSH0 DUP1 REVERT JUMPDEST POP PUSH2 0x1F6 PUSH2 0x290 CALLDATASIZE PUSH1 0x4 PUSH2 0xD61 JUMP JUMPDEST PUSH1 0x1 PUSH1 0x1 PUSH1 0xA0 SHL SUB AND PUSH0 SWAP1 DUP2 MSTORE PUSH1 0x1 PUSH1 0x20 MSTORE PUSH1 0x40 SWAP1 KECCAK256 SLOAD SWAP1 JUMP JUMPDEST CALLVALUE DUP1 ISZERO PUSH2 0x2B5 JUMPI PUSH0 DUP1 REVERT JUMPDEST POP PUSH1 0x4 SLOAD PUSH2 0x1B8 SWAP1 PUSH1 0x1 PUSH1 0xA0 SHL SWAP1 DIV PUSH1 0xFF AND DUP2 JUMP JUMPDEST CALLVALUE DUP1 ISZERO PUSH2 0x2D5 JUMPI PUSH0 DUP1 REVERT JUMPDEST POP PUSH2 0x197 PUSH2 0x2E4 CALLDATASIZE PUSH1 0x4 PUSH2 0xD61 JUMP JUMPDEST PUSH2 0x892 JUMP JUMPDEST CALLVALUE DUP1 ISZERO PUSH2 0x2F4 JUMPI PUSH0 DUP1 REVERT JUMPDEST POP PUSH1 0x4 SLOAD PUSH2 0x308 SWAP1 PUSH1 0x1 PUSH1 0x1 PUSH1 0xA0 SHL SUB AND DUP2 JUMP JUMPDEST PUSH1 0x40 MLOAD PUSH1 0x1 PUSH1 0x1 PUSH1 0xA0 SHL SUB SWAP1 SWAP2 AND DUP2 MSTORE PUSH1 0x20 ADD PUSH2 0x186 JUMP JUMPDEST CALLVALUE DUP1 ISZERO PUSH2 0x32B JUMPI PUSH0 DUP1 REVERT JUMPDEST POP PUSH2 0x179 PUSH2 0x90C JUMP JUMPDEST CALLVALUE DUP1 ISZERO PUSH2 0x33F JUMPI PUSH0 DUP1 REVERT JUMPDEST POP PUSH2 0x197 PUSH2 0x34E CALLDATASIZE PUSH1 0x4 PUSH2 0xD37 JUMP JUMPDEST PUSH2 0x919 JUMP JUMPDEST CALLVALUE DUP1 ISZERO PUSH2 0x35E JUMPI PUSH0 DUP1 REVERT JUMPDEST POP PUSH2 0x197 PUSH2 0x36D CALLDATASIZE PUSH1 0x4 PUSH2 0xDC1 JUMP JUMPDEST PUSH2 0xA7A JUMP JUMPDEST CALLVALUE DUP1 ISZERO PUSH2 0x37D JUMPI PUSH0 DUP1 REVERT JUMPDEST POP PUSH2 0x1B8 PUSH2 0x38C CALLDATASIZE PUSH1 0x4 PUSH2 0xD37 JUMP JUMPDEST PUSH2 0xA84 JUMP JUMPDEST CALLVALUE DUP1 ISZERO PUSH2 0x39C JUMPI PUSH0 DUP1 REVERT JUMPDEST POP PUSH2 0x197 PUSH2 0x3AB CALLDATASIZE PUSH1 0x4 PUSH2 0xD37 JUMP JUMPDEST PUSH2 0xA90 JUMP JUMPDEST CALLVALUE DUP1 ISZERO PUSH2 0x3BB JUMPI PUSH0 DUP1 REVERT JUMPDEST POP PUSH2 0x197 PUSH2 0x3CA CALLDATASIZE PUSH1 0x4 PUSH2 0xD83 JUMP JUMPDEST PUSH2 0xAA0 JUMP JUMPDEST PUSH2 0x197 PUSH2 0xAB1 JUMP JUMPDEST CALLVALUE DUP1 ISZERO PUSH2 0x3E2 JUMPI PUSH0 DUP1 REVERT JUMPDEST POP PUSH1 0x3 SLOAD PUSH2 0x308 SWAP1 PUSH1 0x1 PUSH1 0x1 PUSH1 0xA0 SHL SUB AND DUP2 JUMP JUMPDEST CALLVALUE DUP1 ISZERO PUSH2 0x401 JUMPI PUSH0 DUP1 REVERT JUMPDEST POP PUSH2 0x197 PUSH2 0x410 CALLDATASIZE PUSH1 0x4 PUSH2 0xDEC JUMP JUMPDEST PUSH2 0xB27 JUMP JUMPDEST CALLVALUE DUP1 ISZERO PUSH2 0x420 JUMPI PUSH0 DUP1 REVERT JUMPDEST POP PUSH2 0x1B8 PUSH2 0x42F CALLDATASIZE PUSH1 0x4 PUSH2 0xD61 JUMP JUMPDEST PUSH2 0xB68 JUMP JUMPDEST CALLVALUE DUP1 ISZERO PUSH2 0x43F JUMPI PUSH0 DUP1 REVERT JUMPDEST POP PUSH2 0x1F6 PUSH2 0x44E CALLDATASIZE PUSH1 0x4 PUSH2 0xE97 JUMP JUMPDEST PUSH1 0x1 PUSH1 0x1 PUSH1 0xA0 SHL SUB SWAP2 DUP3 AND PUSH0 SWAP1 DUP2 MSTORE PUSH1 0x2 PUSH1 0x20 SWAP1 DUP2 MSTORE PUSH1 0x40 DUP1 DUP4 KECCAK256 SWAP4 SWAP1 SWAP5 AND DUP3 MSTORE SWAP2 SWAP1 SWAP2 MSTORE KECCAK256 SLOAD SWAP1 JUMP JUMPDEST CALLVALUE DUP1 ISZERO PUSH2 0x483 JUMPI PUSH0 DUP1 REVERT JUMPDEST POP PUSH2 0x197 PUSH2 0x492 CALLDATASIZE PUSH1 0x4 PUSH2 0xD37 JUMP JUMPDEST PUSH2 0xB8B JUMP JUMPDEST PUSH1 0x7 DUP1 SLOAD PUSH2 0x4A4 SWAP1 PUSH2 0xECE JUMP JUMPDEST DUP1 PUSH1 0x1F ADD PUSH1 0x20 DUP1 SWAP2 DIV MUL PUSH1 0x20 ADD PUSH1 0x40 MLOAD SWAP1 DUP2 ADD PUSH1 0x40 MSTORE DUP1 SWAP3 SWAP2 SWAP1 DUP2 DUP2 MSTORE PUSH1 0x20 ADD DUP3 DUP1 SLOAD PUSH2 0x4D0 SWAP1 PUSH2 0xECE JUMP JUMPDEST DUP1 ISZERO PUSH2 0x51B JUMPI DUP1 PUSH1 0x1F LT PUSH2 0x4F2 JUMPI PUSH2 0x100 DUP1 DUP4 SLOAD DIV MUL DUP4 MSTORE SWAP2 PUSH1 0x20 ADD SWAP2 PUSH2 0x51B JUMP JUMPDEST DUP3 ADD SWAP2 SWAP1 PUSH0 MSTORE PUSH1 0x20 PUSH0 KECCAK256 SWAP1 JUMPDEST DUP2 SLOAD DUP2 MSTORE SWAP1 PUSH1 0x1 ADD SWAP1 PUSH1 0x20 ADD DUP1 DUP4 GT PUSH2 0x4FE JUMPI DUP3 SWAP1 SUB PUSH1 0x1F AND DUP3 ADD SWAP2 JUMPDEST POP POP POP POP POP DUP2 JUMP JUMPDEST PUSH2 0x538 CALLER PUSH0 CALLDATALOAD PUSH1 0x1 PUSH1 0x1 PUSH1 0xE0 SHL SUB NOT AND PUSH2 0xB96 JUMP JUMPDEST PUSH2 0x55D JUMPI PUSH1 0x40 MLOAD PUSH3 0x461BCD PUSH1 0xE5 SHL DUP2 MSTORE PUSH1 0x4 ADD PUSH2 0x554 SWAP1 PUSH2 0xF06 JUMP JUMPDEST PUSH1 0x40 MLOAD DUP1 SWAP2 SUB SWAP1 REVERT JUMPDEST PUSH1 0x40 MLOAD PUSH1 0x4 CALLDATALOAD SWAP1 PUSH1 0x24 CALLDATALOAD SWAP1 DUP2 SWAP1 DUP4 SWAP1 CALLER SWAP1 PUSH0 DUP1 CALLDATALOAD PUSH1 0x1 PUSH1 0x1 PUSH1 0xE0 SHL SUB NOT AND SWAP2 PUSH2 0x589 SWAP2 CALLVALUE SWAP2 CALLDATASIZE SWAP1 PUSH2 0xF34 JUMP JUMPDEST PUSH1 0x40 MLOAD DUP1 SWAP2 SUB SWAP1 LOG4 POP POP PUSH1 0x4 DUP1 SLOAD PUSH1 0xFF PUSH1 0xA0 SHL NOT AND PUSH1 0x1 PUSH1 0xA0 SHL OR SWAP1 SSTORE JUMP JUMPDEST PUSH1 0x4 SLOAD PUSH0 SWAP1 PUSH1 0x1 PUSH1 0xA0 SHL SWAP1 DIV PUSH1 0xFF AND ISZERO PUSH2 0x5C0 JUMPI PUSH0 DUP1 REVERT JUMPDEST PUSH2 0x5CA DUP4 DUP4 PUSH2 0xC6D JUMP JUMPDEST SWAP1 POP JUMPDEST SWAP3 SWAP2 POP POP JUMP JUMPDEST PUSH2 0x5E8 CALLER PUSH0 CALLDATALOAD PUSH1 0x1 PUSH1 0x1 PUSH1 0xE0 SHL SUB NOT AND PUSH2 0xB96 JUMP JUMPDEST PUSH2 0x604 JUMPI PUSH1 0x40 MLOAD PUSH3 0x461BCD PUSH1 0xE5 SHL DUP2 MSTORE PUSH1 0x4 ADD PUSH2 0x554 SWAP1 PUSH2 0xF06 JUMP JUMPDEST PUSH1 0x4 DUP1 SLOAD PUSH1 0x1 PUSH1 0x1 PUSH1 0xA0 SHL SUB NOT AND PUSH1 0x1 PUSH1 0x1 PUSH1 0xA0 SHL SUB DUP4 AND SWAP1 DUP2 OR SWAP1 SWAP2 SSTORE PUSH1 0x40 MLOAD PUSH32 0xCE241D7CA1F669FEE44B6FC00B8EBA2DF3BB514EED0F6F668F8F89096E81ED94 SWAP1 PUSH0 SWAP1 LOG2 POP JUMP JUMPDEST PUSH1 0x4 SLOAD PUSH0 SWAP1 PUSH1 0x1 PUSH1 0xA0 SHL SWAP1 DIV PUSH1 0xFF AND ISZERO PUSH2 0x665 JUMPI PUSH0 DUP1 REVERT JUMPDEST PUSH1 0x1 PUSH1 0x1 PUSH1 0xA0 SHL SUB DUP5 AND CALLER EQ DUP1 ISZERO SWAP1 PUSH2 0x6A1 JUMPI POP PUSH1 0x1 PUSH1 0x1 PUSH1 0xA0 SHL SUB DUP5 AND PUSH0 SWAP1 DUP2 MSTORE PUSH1 0x2 PUSH1 0x20 SWAP1 DUP2 MSTORE PUSH1 0x40 DUP1 DUP4 KECCAK256 CALLER DUP5 MSTORE SWAP1 SWAP2 MSTORE SWAP1 KECCAK256 SLOAD PUSH0 NOT EQ ISZERO JUMPDEST ISZERO PUSH2 0x6F8 JUMPI PUSH1 0x1 PUSH1 0x1 PUSH1 0xA0 SHL SUB DUP5 AND PUSH0 SWAP1 DUP2 MSTORE PUSH1 0x2 PUSH1 0x20 SWAP1 DUP2 MSTORE PUSH1 0x40 DUP1 DUP4 KECCAK256 CALLER DUP5 MSTORE SWAP1 SWAP2 MSTORE SWAP1 KECCAK256 SLOAD PUSH2 0x6D4 SWAP1 DUP4 SWAP1 PUSH2 0xF7D JUMP JUMPDEST PUSH1 0x1 PUSH1 0x1 PUSH1 0xA0 SHL SUB DUP6 AND PUSH0 SWAP1 DUP2 MSTORE PUSH1 0x2 PUSH1 0x20 SWAP1 DUP2 MSTORE PUSH1 0x40 DUP1 DUP4 KECCAK256 CALLER DUP5 MSTORE SWAP1 SWAP2 MSTORE SWAP1 KECCAK256 SSTORE JUMPDEST PUSH1 0x1 PUSH1 0x1 PUSH1 0xA0 SHL SUB DUP5 AND PUSH0 SWAP1 DUP2 MSTORE PUSH1 0x1 PUSH1 0x20 MSTORE PUSH1 0x40 SWAP1 KECCAK256 SLOAD PUSH2 0x71B SWAP1 DUP4 SWAP1 PUSH2 0xF7D JUMP JUMPDEST PUSH1 0x1 PUSH1 0x1 PUSH1 0xA0 SHL SUB DUP1 DUP7 AND PUSH0 SWAP1 DUP2 MSTORE PUSH1 0x1 PUSH1 0x20 MSTORE PUSH1 0x40 DUP1 DUP3 KECCAK256 SWAP4 SWAP1 SWAP4 SSTORE SWAP1 DUP6 AND DUP2 MSTORE KECCAK256 SLOAD PUSH2 0x74A SWAP1 DUP4 SWAP1 PUSH2 0xF90 JUMP JUMPDEST PUSH1 0x1 PUSH1 0x1 PUSH1 0xA0 SHL SUB DUP1 DUP6 AND PUSH0 DUP2 DUP2 MSTORE PUSH1 0x1 PUSH1 0x20 MSTORE PUSH1 0x40 SWAP1 DUP2 SWAP1 KECCAK256 SWAP4 SWAP1 SWAP4 SSTORE SWAP2 MLOAD SWAP1 DUP7 AND SWAP1 PUSH32 0xDDF252AD1BE2C89B69C2B068FC378DAA952BA7F163C4A11628F55A4DF523B3EF SWAP1 PUSH2 0x79D SWAP1 DUP7 DUP2 MSTORE PUSH1 0x20 ADD SWAP1 JUMP JUMPDEST PUSH1 0x40 MLOAD DUP1 SWAP2 SUB SWAP1 LOG3 POP PUSH1 0x1 SWAP4 SWAP3 POP POP POP JUMP JUMPDEST PUSH2 0x7C4 CALLER PUSH0 CALLDATALOAD PUSH1 0x1 PUSH1 0x1 PUSH1 0xE0 SHL SUB NOT AND PUSH2 0xB96 JUMP JUMPDEST PUSH2 0x7E0 JUMPI PUSH1 0x40 MLOAD PUSH3 0x461BCD PUSH1 0xE5 SHL DUP2 MSTORE PUSH1 0x4 ADD PUSH2 0x554 SWAP1 PUSH2 0xF06 JUMP JUMPDEST PUSH1 0x4 SLOAD PUSH1 0x1 PUSH1 0xA0 SHL SWAP1 DIV PUSH1 0xFF AND ISZERO PUSH2 0x7F6 JUMPI PUSH0 DUP1 REVERT JUMPDEST PUSH1 0x1 PUSH1 0x1 PUSH1 0xA0 SHL SUB DUP3 AND PUSH0 SWAP1 DUP2 MSTORE PUSH1 0x1 PUSH1 0x20 MSTORE PUSH1 0x40 SWAP1 KECCAK256 SLOAD PUSH2 0x819 SWAP1 DUP3 SWAP1 PUSH2 0xF90 JUMP JUMPDEST PUSH1 0x1 PUSH1 0x1 PUSH1 0xA0 SHL SUB DUP4 AND PUSH0 SWAP1 DUP2 MSTORE PUSH1 0x1 PUSH1 0x20 MSTORE PUSH1 0x40 DUP2 KECCAK256 SWAP2 SWAP1 SWAP2 SSTORE SLOAD PUSH2 0x840 SWAP1 DUP3 SWAP1 PUSH2 0xF90 JUMP JUMPDEST PUSH0 SSTORE PUSH1 0x40 MLOAD DUP2 DUP2 MSTORE PUSH1 0x1 PUSH1 0x1 PUSH1 0xA0 SHL SUB DUP4 AND SWAP1 PUSH32 0xF6798A560793A54C3BCFE86A93CDE1E73087D944C0EA20544137D4121396885 SWAP1 PUSH1 0x20 ADD JUMPDEST PUSH1 0x40 MLOAD DUP1 SWAP2 SUB SWAP1 LOG2 POP POP JUMP JUMPDEST PUSH2 0x88F CALLER DUP3 PUSH2 0x919 JUMP JUMPDEST POP JUMP JUMPDEST PUSH2 0x8A7 CALLER PUSH0 CALLDATALOAD PUSH1 0x1 PUSH1 0x1 PUSH1 0xE0 SHL SUB NOT AND PUSH2 0xB96 JUMP JUMPDEST PUSH2 0x8C3 JUMPI PUSH1 0x40 MLOAD PUSH3 0x461BCD PUSH1 0xE5 SHL DUP2 MSTORE PUSH1 0x4 ADD PUSH2 0x554 SWAP1 PUSH2 0xF06 JUMP JUMPDEST PUSH1 0x3 DUP1 SLOAD PUSH1 0x1 PUSH1 0x1 PUSH1 0xA0 SHL SUB NOT AND PUSH1 0x1 PUSH1 0x1 PUSH1 0xA0 SHL SUB DUP4 AND SWAP1 DUP2 OR SWAP1 SWAP2 SSTORE PUSH1 0x40 MLOAD PUSH32 0x1ABEBEA81BFA2637F28358C371278FB15EDE7EA8DD28D2E03B112FF6D936ADA4 SWAP1 PUSH0 SWAP1 LOG2 POP JUMP JUMPDEST PUSH1 0x5 DUP1 SLOAD PUSH2 0x4A4 SWAP1 PUSH2 0xECE JUMP JUMPDEST PUSH2 0x92E CALLER PUSH0 CALLDATALOAD PUSH1 0x1 PUSH1 0x1 PUSH1 0xE0 SHL SUB NOT AND PUSH2 0xB96 JUMP JUMPDEST PUSH2 0x94A JUMPI PUSH1 0x40 MLOAD PUSH3 0x461BCD PUSH1 0xE5 SHL DUP2 MSTORE PUSH1 0x4 ADD PUSH2 0x554 SWAP1 PUSH2 0xF06 JUMP JUMPDEST PUSH1 0x4 SLOAD PUSH1 0x1 PUSH1 0xA0 SHL SWAP1 DIV PUSH1 0xFF AND ISZERO PUSH2 0x960 JUMPI PUSH0 DUP1 REVERT JUMPDEST PUSH1 0x1 PUSH1 0x1 PUSH1 0xA0 SHL SUB DUP3 AND CALLER EQ DUP1 ISZERO SWAP1 PUSH2 0x99C JUMPI POP PUSH1 0x1 PUSH1 0x1 PUSH1 0xA0 SHL SUB DUP3 AND PUSH0 SWAP1 DUP2 MSTORE PUSH1 0x2 PUSH1 0x20 SWAP1 DUP2 MSTORE PUSH1 0x40 DUP1 DUP4 KECCAK256 CALLER DUP5 MSTORE SWAP1 SWAP2 MSTORE SWAP1 KECCAK256 SLOAD PUSH0 NOT EQ ISZERO JUMPDEST ISZERO PUSH2 0x9F3 JUMPI PUSH1 0x1 PUSH1 0x1 PUSH1 0xA0 SHL SUB DUP3 AND PUSH0 SWAP1 DUP2 MSTORE PUSH1 0x2 PUSH1 0x20 SWAP1 DUP2 MSTORE PUSH1 0x40 DUP1 DUP4 KECCAK256 CALLER DUP5 MSTORE SWAP1 SWAP2 MSTORE SWAP1 KECCAK256 SLOAD PUSH2 0x9CF SWAP1 DUP3 SWAP1 PUSH2 0xF7D JUMP JUMPDEST PUSH1 0x1 PUSH1 0x1 PUSH1 0xA0 SHL SUB DUP4 AND PUSH0 SWAP1 DUP2 MSTORE PUSH1 0x2 PUSH1 0x20 SWAP1 DUP2 MSTORE PUSH1 0x40 DUP1 DUP4 KECCAK256 CALLER DUP5 MSTORE SWAP1 SWAP2 MSTORE SWAP1 KECCAK256 SSTORE JUMPDEST PUSH1 0x1 PUSH1 0x1 PUSH1 0xA0 SHL SUB DUP3 AND PUSH0 SWAP1 DUP2 MSTORE PUSH1 0x1 PUSH1 0x20 MSTORE PUSH1 0x40 SWAP1 KECCAK256 SLOAD PUSH2 0xA16 SWAP1 DUP3 SWAP1 PUSH2 0xF7D JUMP JUMPDEST PUSH1 0x1 PUSH1 0x1 PUSH1 0xA0 SHL SUB DUP4 AND PUSH0 SWAP1 DUP2 MSTORE PUSH1 0x1 PUSH1 0x20 MSTORE PUSH1 0x40 DUP2 KECCAK256 SWAP2 SWAP1 SWAP2 SSTORE SLOAD PUSH2 0xA3D SWAP1 DUP3 SWAP1 PUSH2 0xF7D JUMP JUMPDEST PUSH0 SSTORE PUSH1 0x40 MLOAD DUP2 DUP2 MSTORE PUSH1 0x1 PUSH1 0x1 PUSH1 0xA0 SHL SUB DUP4 AND SWAP1 PUSH32 0xCC16F5DBB4873280815C1EE09DBD06736CFFCC184412CF7A71A0FDB75D397CA5 SWAP1 PUSH1 0x20 ADD PUSH2 0x879 JUMP JUMPDEST PUSH2 0x88F CALLER DUP3 PUSH2 0x7AF JUMP JUMPDEST PUSH0 PUSH2 0x5CA CALLER DUP5 DUP5 PUSH2 0x64D JUMP JUMPDEST PUSH2 0xA9B CALLER DUP4 DUP4 PUSH2 0x64D JUMP JUMPDEST POP POP POP JUMP JUMPDEST PUSH2 0xAAB DUP4 DUP4 DUP4 PUSH2 0x64D JUMP JUMPDEST POP POP POP POP JUMP JUMPDEST PUSH2 0xAC6 CALLER PUSH0 CALLDATALOAD PUSH1 0x1 PUSH1 0x1 PUSH1 0xE0 SHL SUB NOT AND PUSH2 0xB96 JUMP JUMPDEST PUSH2 0xAE2 JUMPI PUSH1 0x40 MLOAD PUSH3 0x461BCD PUSH1 0xE5 SHL DUP2 MSTORE PUSH1 0x4 ADD PUSH2 0x554 SWAP1 PUSH2 0xF06 JUMP JUMPDEST PUSH1 0x40 MLOAD PUSH1 0x4 CALLDATALOAD SWAP1 PUSH1 0x24 CALLDATALOAD SWAP1 DUP2 SWAP1 DUP4 SWAP1 CALLER SWAP1 PUSH0 DUP1 CALLDATALOAD PUSH1 0x1 PUSH1 0x1 PUSH1 0xE0 SHL SUB NOT AND SWAP2 PUSH2 0xB0E SWAP2 CALLVALUE SWAP2 CALLDATASIZE SWAP1 PUSH2 0xF34 JUMP JUMPDEST PUSH1 0x40 MLOAD DUP1 SWAP2 SUB SWAP1 LOG4 POP POP PUSH1 0x4 DUP1 SLOAD PUSH1 0xFF PUSH1 0xA0 SHL NOT AND SWAP1 SSTORE JUMP JUMPDEST PUSH2 0xB3C CALLER PUSH0 CALLDATALOAD PUSH1 0x1 PUSH1 0x1 PUSH1 0xE0 SHL SUB NOT AND PUSH2 0xB96 JUMP JUMPDEST PUSH2 0xB58 JUMPI PUSH1 0x40 MLOAD PUSH3 0x461BCD PUSH1 0xE5 SHL DUP2 MSTORE PUSH1 0x4 ADD PUSH2 0x554 SWAP1 PUSH2 0xF06 JUMP JUMPDEST PUSH1 0x7 PUSH2 0xB64 DUP3 DUP3 PUSH2 0xFF0 JUMP JUMPDEST POP POP JUMP JUMPDEST PUSH1 0x4 SLOAD PUSH0 SWAP1 PUSH1 0x1 PUSH1 0xA0 SHL SWAP1 DIV PUSH1 0xFF AND ISZERO PUSH2 0xB80 JUMPI PUSH0 DUP1 REVERT JUMPDEST PUSH2 0x5CD DUP3 PUSH0 NOT PUSH2 0xC6D JUMP JUMPDEST PUSH2 0xA9B DUP3 CALLER DUP4 PUSH2 0x64D JUMP JUMPDEST PUSH0 ADDRESS PUSH1 0x1 PUSH1 0x1 PUSH1 0xA0 SHL SUB DUP5 AND SUB PUSH2 0xBAF JUMPI POP PUSH1 0x1 PUSH2 0x5CD JUMP JUMPDEST PUSH1 0x4 SLOAD PUSH1 0x1 PUSH1 0x1 PUSH1 0xA0 SHL SUB SWAP1 DUP2 AND SWAP1 DUP5 AND SUB PUSH2 0xBCD JUMPI POP PUSH1 0x1 PUSH2 0x5CD JUMP JUMPDEST PUSH1 0x3 SLOAD PUSH1 0x1 PUSH1 0x1 PUSH1 0xA0 SHL SUB AND PUSH2 0xBE4 JUMPI POP PUSH0 PUSH2 0x5CD JUMP JUMPDEST PUSH1 0x3 SLOAD PUSH1 0x40 MLOAD PUSH4 0xB7009613 PUSH1 0xE0 SHL DUP2 MSTORE PUSH1 0x1 PUSH1 0x1 PUSH1 0xA0 SHL SUB DUP6 DUP2 AND PUSH1 0x4 DUP4 ADD MSTORE ADDRESS PUSH1 0x24 DUP4 ADD MSTORE PUSH1 0x1 PUSH1 0x1 PUSH1 0xE0 SHL SUB NOT DUP6 AND PUSH1 0x44 DUP4 ADD MSTORE SWAP1 SWAP2 AND SWAP1 PUSH4 0xB7009613 SWAP1 PUSH1 0x64 ADD PUSH1 0x20 PUSH1 0x40 MLOAD DUP1 DUP4 SUB DUP2 DUP7 GAS STATICCALL ISZERO DUP1 ISZERO PUSH2 0xC42 JUMPI RETURNDATASIZE PUSH0 DUP1 RETURNDATACOPY RETURNDATASIZE PUSH0 REVERT JUMPDEST POP POP POP POP PUSH1 0x40 MLOAD RETURNDATASIZE PUSH1 0x1F NOT PUSH1 0x1F DUP3 ADD AND DUP3 ADD DUP1 PUSH1 0x40 MSTORE POP DUP2 ADD SWAP1 PUSH2 0xC66 SWAP2 SWAP1 PUSH2 0x10AC JUMP JUMPDEST SWAP1 POP PUSH2 0x5CD JUMP JUMPDEST CALLER PUSH0 DUP2 DUP2 MSTORE PUSH1 0x2 PUSH1 0x20 SWAP1 DUP2 MSTORE PUSH1 0x40 DUP1 DUP4 KECCAK256 PUSH1 0x1 PUSH1 0x1 PUSH1 0xA0 SHL SUB DUP8 AND DUP1 DUP6 MSTORE SWAP3 MSTORE DUP1 DUP4 KECCAK256 DUP6 SWAP1 SSTORE MLOAD SWAP2 SWAP3 SWAP1 SWAP2 PUSH32 0x8C5BE1E5EBEC7D5BD14F71427D1E84F3DD0314C0F7B2291E5B200AC8C7C3B925 SWAP1 PUSH2 0xCC7 SWAP1 DUP7 DUP2 MSTORE PUSH1 0x20 ADD SWAP1 JUMP JUMPDEST PUSH1 0x40 MLOAD DUP1 SWAP2 SUB SWAP1 LOG3 POP PUSH1 0x1 SWAP3 SWAP2 POP POP JUMP JUMPDEST PUSH0 PUSH1 0x20 DUP1 DUP4 MSTORE DUP4 MLOAD DUP1 DUP3 DUP6 ADD MSTORE PUSH0 JUMPDEST DUP2 DUP2 LT ISZERO PUSH2 0xD03 JUMPI DUP6 DUP2 ADD DUP4 ADD MLOAD DUP6 DUP3 ADD PUSH1 0x40 ADD MSTORE DUP3 ADD PUSH2 0xCE7 JUMP JUMPDEST POP PUSH0 PUSH1 0x40 DUP3 DUP7 ADD ADD MSTORE PUSH1 0x40 PUSH1 0x1F NOT PUSH1 0x1F DUP4 ADD AND DUP6 ADD ADD SWAP3 POP POP POP SWAP3 SWAP2 POP POP JUMP JUMPDEST PUSH1 0x1 PUSH1 0x1 PUSH1 0xA0 SHL SUB DUP2 AND DUP2 EQ PUSH2 0x88F JUMPI PUSH0 DUP1 REVERT JUMPDEST PUSH0 DUP1 PUSH1 0x40 DUP4 DUP6 SUB SLT ISZERO PUSH2 0xD48 JUMPI PUSH0 DUP1 REVERT JUMPDEST DUP3 CALLDATALOAD PUSH2 0xD53 DUP2 PUSH2 0xD23 JUMP JUMPDEST SWAP5 PUSH1 0x20 SWAP4 SWAP1 SWAP4 ADD CALLDATALOAD SWAP4 POP POP POP JUMP JUMPDEST PUSH0 PUSH1 0x20 DUP3 DUP5 SUB SLT ISZERO PUSH2 0xD71 JUMPI PUSH0 DUP1 REVERT JUMPDEST DUP2 CALLDATALOAD PUSH2 0xD7C DUP2 PUSH2 0xD23 JUMP JUMPDEST SWAP4 SWAP3 POP POP POP JUMP JUMPDEST PUSH0 DUP1 PUSH0 PUSH1 0x60 DUP5 DUP7 SUB SLT ISZERO PUSH2 0xD95 JUMPI PUSH0 DUP1 REVERT JUMPDEST DUP4 CALLDATALOAD PUSH2 0xDA0 DUP2 PUSH2 0xD23 JUMP JUMPDEST SWAP3 POP PUSH1 0x20 DUP5 ADD CALLDATALOAD PUSH2 0xDB0 DUP2 PUSH2 0xD23 JUMP JUMPDEST SWAP3 SWAP6 SWAP3 SWAP5 POP POP POP PUSH1 0x40 SWAP2 SWAP1 SWAP2 ADD CALLDATALOAD SWAP1 JUMP JUMPDEST PUSH0 PUSH1 0x20 DUP3 DUP5 SUB SLT ISZERO PUSH2 0xDD1 JUMPI PUSH0 DUP1 REVERT JUMPDEST POP CALLDATALOAD SWAP2 SWAP1 POP JUMP JUMPDEST PUSH4 0x4E487B71 PUSH1 0xE0 SHL PUSH0 MSTORE PUSH1 0x41 PUSH1 0x4 MSTORE PUSH1 0x24 PUSH0 REVERT JUMPDEST PUSH0 PUSH1 0x20 DUP3 DUP5 SUB SLT ISZERO PUSH2 0xDFC JUMPI PUSH0 DUP1 REVERT JUMPDEST DUP2 CALLDATALOAD PUSH8 0xFFFFFFFFFFFFFFFF DUP1 DUP3 GT ISZERO PUSH2 0xE13 JUMPI PUSH0 DUP1 REVERT JUMPDEST DUP2 DUP5 ADD SWAP2 POP DUP5 PUSH1 0x1F DUP4 ADD SLT PUSH2 0xE26 JUMPI PUSH0 DUP1 REVERT JUMPDEST DUP2 CALLDATALOAD DUP2 DUP2 GT ISZERO PUSH2 0xE38 JUMPI PUSH2 0xE38 PUSH2 0xDD8 JUMP JUMPDEST PUSH1 0x40 MLOAD PUSH1 0x1F DUP3 ADD PUSH1 0x1F NOT SWAP1 DUP2 AND PUSH1 0x3F ADD AND DUP2 ADD SWAP1 DUP4 DUP3 GT DUP2 DUP4 LT OR ISZERO PUSH2 0xE60 JUMPI PUSH2 0xE60 PUSH2 0xDD8 JUMP JUMPDEST DUP2 PUSH1 0x40 MSTORE DUP3 DUP2 MSTORE DUP8 PUSH1 0x20 DUP5 DUP8 ADD ADD GT ISZERO PUSH2 0xE78 JUMPI PUSH0 DUP1 REVERT JUMPDEST DUP3 PUSH1 0x20 DUP7 ADD PUSH1 0x20 DUP4 ADD CALLDATACOPY PUSH0 SWAP3 DUP2 ADD PUSH1 0x20 ADD SWAP3 SWAP1 SWAP3 MSTORE POP SWAP6 SWAP5 POP POP POP POP POP JUMP JUMPDEST PUSH0 DUP1 PUSH1 0x40 DUP4 DUP6 SUB SLT ISZERO PUSH2 0xEA8 JUMPI PUSH0 DUP1 REVERT JUMPDEST DUP3 CALLDATALOAD PUSH2 0xEB3 DUP2 PUSH2 0xD23 JUMP JUMPDEST SWAP2 POP PUSH1 0x20 DUP4 ADD CALLDATALOAD PUSH2 0xEC3 DUP2 PUSH2 0xD23 JUMP JUMPDEST DUP1 SWAP2 POP POP SWAP3 POP SWAP3 SWAP1 POP JUMP JUMPDEST PUSH1 0x1 DUP2 DUP2 SHR SWAP1 DUP3 AND DUP1 PUSH2 0xEE2 JUMPI PUSH1 0x7F DUP3 AND SWAP2 POP JUMPDEST PUSH1 0x20 DUP3 LT DUP2 SUB PUSH2 0xF00 JUMPI PUSH4 0x4E487B71 PUSH1 0xE0 SHL PUSH0 MSTORE PUSH1 0x22 PUSH1 0x4 MSTORE PUSH1 0x24 PUSH0 REVERT JUMPDEST POP SWAP2 SWAP1 POP JUMP JUMPDEST PUSH1 0x20 DUP1 DUP3 MSTORE PUSH1 0x14 SWAP1 DUP3 ADD MSTORE PUSH20 0x191CCB585D5D1A0B5D5B985D5D1A1BDC9A5E9959 PUSH1 0x62 SHL PUSH1 0x40 DUP3 ADD MSTORE PUSH1 0x60 ADD SWAP1 JUMP JUMPDEST DUP4 DUP2 MSTORE PUSH1 0x40 PUSH1 0x20 DUP3 ADD MSTORE DUP2 PUSH1 0x40 DUP3 ADD MSTORE DUP2 DUP4 PUSH1 0x60 DUP4 ADD CALLDATACOPY PUSH0 DUP2 DUP4 ADD PUSH1 0x60 SWAP1 DUP2 ADD SWAP2 SWAP1 SWAP2 MSTORE PUSH1 0x1F SWAP1 SWAP3 ADD PUSH1 0x1F NOT AND ADD ADD SWAP3 SWAP2 POP POP JUMP JUMPDEST PUSH4 0x4E487B71 PUSH1 0xE0 SHL PUSH0 MSTORE PUSH1 0x11 PUSH1 0x4 MSTORE PUSH1 0x24 PUSH0 REVERT JUMPDEST DUP2 DUP2 SUB DUP2 DUP2 GT ISZERO PUSH2 0x5CD JUMPI PUSH2 0x5CD PUSH2 0xF69 JUMP JUMPDEST DUP1 DUP3 ADD DUP1 DUP3 GT ISZERO PUSH2 0x5CD JUMPI PUSH2 0x5CD PUSH2 0xF69 JUMP JUMPDEST PUSH1 0x1F DUP3 GT ISZERO PUSH2 0xA9B JUMPI PUSH0 DUP2 DUP2 MSTORE PUSH1 0x20 DUP2 KECCAK256 PUSH1 0x1F DUP6 ADD PUSH1 0x5 SHR DUP2 ADD PUSH1 0x20 DUP7 LT ISZERO PUSH2 0xFC9 JUMPI POP DUP1 JUMPDEST PUSH1 0x1F DUP6 ADD PUSH1 0x5 SHR DUP3 ADD SWAP2 POP JUMPDEST DUP2 DUP2 LT ISZERO PUSH2 0xFE8 JUMPI DUP3 DUP2 SSTORE PUSH1 0x1 ADD PUSH2 0xFD5 JUMP JUMPDEST POP POP POP POP POP POP JUMP JUMPDEST DUP2 MLOAD PUSH8 0xFFFFFFFFFFFFFFFF DUP2 GT ISZERO PUSH2 0x100A JUMPI PUSH2 0x100A PUSH2 0xDD8 JUMP JUMPDEST PUSH2 0x101E DUP2 PUSH2 0x1018 DUP5 SLOAD PUSH2 0xECE JUMP JUMPDEST DUP5 PUSH2 0xFA3 JUMP JUMPDEST PUSH1 0x20 DUP1 PUSH1 0x1F DUP4 GT PUSH1 0x1 DUP2 EQ PUSH2 0x1051 JUMPI PUSH0 DUP5 ISZERO PUSH2 0x103A JUMPI POP DUP6 DUP4 ADD MLOAD JUMPDEST PUSH0 NOT PUSH1 0x3 DUP7 SWAP1 SHL SHR NOT AND PUSH1 0x1 DUP6 SWAP1 SHL OR DUP6 SSTORE PUSH2 0xFE8 JUMP JUMPDEST PUSH0 DUP6 DUP2 MSTORE PUSH1 0x20 DUP2 KECCAK256 PUSH1 0x1F NOT DUP7 AND SWAP2 JUMPDEST DUP3 DUP2 LT ISZERO PUSH2 0x107F JUMPI DUP9 DUP7 ADD MLOAD DUP3 SSTORE SWAP5 DUP5 ADD SWAP5 PUSH1 0x1 SWAP1 SWAP2 ADD SWAP1 DUP5 ADD PUSH2 0x1060 JUMP JUMPDEST POP DUP6 DUP3 LT ISZERO PUSH2 0x109C JUMPI DUP8 DUP6 ADD MLOAD PUSH0 NOT PUSH1 0x3 DUP9 SWAP1 SHL PUSH1 0xF8 AND SHR NOT AND DUP2 SSTORE JUMPDEST POP POP POP POP POP PUSH1 0x1 SWAP1 DUP2 SHL ADD SWAP1 SSTORE POP JUMP JUMPDEST PUSH0 PUSH1 0x20 DUP3 DUP5 SUB SLT ISZERO PUSH2 0x10BC JUMPI PUSH0 DUP1 REVERT JUMPDEST DUP2 MLOAD DUP1 ISZERO ISZERO DUP2 EQ PUSH2 0xD7C JUMPI PUSH0 DUP1 REVERT INVALID LOG2 PUSH5 0x6970667358 0x22 SLT KECCAK256 PUSH30 0xC3D3817B109424B6C528B1B60252428F673BD696A6B70FC1DC3C454AC40C DUP4 PUSH5 0x736F6C6343 STOP ADDMOD ISZERO STOP CALLER "
				},
				"gasEstimates": {
					"creation": {
						"codeDepositCost": "870600",
						"executionCost": "infinite",
						"totalCost": "infinite"
					},
					"external": {
						"allowance(address,address)": "infinite",
						"approve(address)": "26725",
						"approve(address,uint256)": "26752",
						"authority()": "2425",
						"balanceOf(address)": "2617",
						"burn(address,uint256)": "infinite",
						"burn(uint256)": "infinite",
						"decimals()": "2317",
						"mint(address,uint256)": "infinite",
						"mint(uint256)": "infinite",
						"move(address,address,uint256)": "infinite",
						"name()": "infinite",
						"owner()": "2359",
						"pull(address,uint256)": "infinite",
						"push(address,uint256)": "infinite",
						"setAuthority(address)": "infinite",
						"setName(string)": "infinite",
						"setOwner(address)": "infinite",
						"start()": "infinite",
						"stop()": "infinite",
						"stopped()": "2437",
						"symbol()": "infinite",
						"totalSupply()": "2391",
						"transfer(address,uint256)": "infinite",
						"transferFrom(address,address,uint256)": "infinite"
					}
				},
				"methodIdentifiers": {
					"allowance(address,address)": "dd62ed3e",
					"approve(address)": "daea85c5",
					"approve(address,uint256)": "095ea7b3",
					"authority()": "bf7e214f",
					"balanceOf(address)": "70a08231",
					"burn(address,uint256)": "9dc29fac",
					"burn(uint256)": "42966c68",
					"decimals()": "313ce567",
					"mint(address,uint256)": "40c10f19",
					"mint(uint256)": "a0712d68",
					"move(address,address,uint256)": "bb35783b",
					"name()": "06fdde03",
					"owner()": "8da5cb5b",
					"pull(address,uint256)": "f2d5d56b",
					"push(address,uint256)": "b753a98c",
					"setAuthority(address)": "7a9e5e4b",
					"setName(string)": "c47f0027",
					"setOwner(address)": "13af4035",
					"start()": "be9a6555",
					"stop()": "07da68f5",
					"stopped()": "75f12b21",
					"symbol()": "95d89b41",
					"totalSupply()": "18160ddd",
					"transfer(address,uint256)": "a9059cbb",
					"transferFrom(address,address,uint256)": "23b872dd"
				}
			},
			"storageLayout": {
				"storage": [
					{
						"astId": 543,
						"contract": "ds-token/token.sol:DSToken",
						"label": "_supply",
						"offset": 0,
						"slot": "0",
						"type": "t_uint256"
					},
					{
						"astId": 547,
						"contract": "ds-token/token.sol:DSToken",
						"label": "_balances",
						"offset": 0,
						"slot": "1",
						"type": "t_mapping(t_address,t_uint256)"
					},
					{
						"astId": 553,
						"contract": "ds-token/token.sol:DSToken",
						"label": "_approvals",
						"offset": 0,
						"slot": "2",
						"type": "t_mapping(t_address,t_mapping(t_address,t_uint256))"
					},
					{
						"astId": 27,
						"contract": "ds-token/token.sol:DSToken",
						"label": "authority",
						"offset": 0,
						"slot": "3",
						"type": "t_contract(DSAuthority)13"
					},
					{
						"astId": 29,
						"contract": "ds-token/token.sol:DSToken",
						"label": "owner",
						"offset": 0,
						"slot": "4",
						"type": "t_address"
					},
					{
						"astId": 499,
						"contract": "ds-token/token.sol:DSToken",
						"label": "stopped",
						"offset": 20,
						"slot": "4",
						"type": "t_bool"
					},
					{
						"astId": 734,
						"contract": "ds-token/token.sol:DSToken",
						"label": "symbol",
						"offset": 0,
						"slot": "5",
						"type": "t_string_storage"
					},
					{
						"astId": 737,
						"contract": "ds-token/token.sol:DSToken",
						"label": "decimals",
						"offset": 0,
						"slot": "6",
						"type": "t_uint256"
					},
					{
						"astId": 739,
						"contract": "ds-token/token.sol:DSToken",
						"label": "name",
						"offset": 0,
						"slot": "7",
						"type": "t_string_storage"
					}
				],
				"types": {
					"t_address": {
						"encoding": "inplace",
						"label": "address",
						"numberOfBytes": "20"
					},
					"t_bool": {
						"encoding": "inplace",
						"label": "bool",
						"numberOfBytes": "1"
					},
					"t_contract(DSAuthority)13": {
						"encoding": "inplace",
						"label": "contract DSAuthority",
						"numberOfBytes": "20"
					},
					"t_mapping(t_address,t_mapping(t_address,t_uint256))": {
						"encoding": "mapping",
						"key": "t_address",
						"label": "mapping(address => mapping(address => uint256))",
						"numberOfBytes": "32",
						"value": "t_mapping(t_address,t_uint256)"
					},
					"t_mapping(t_address,t_uint256)": {
						"encoding": "mapping",
						"key": "t_address",
						"label": "mapping(address => uint256)",
						"numberOfBytes": "32",
						"value": "t_uint256"
					},
					"t_string_storage": {
						"encoding": "bytes",
						"label": "string",
						"numberOfBytes": "32"
					},
					"t_uint256": {
						"encoding": "inplace",
						"label": "uint256",
						"numberOfBytes": "32"
					}
				}
			},
			"userdoc": {
				"kind": "user",
				"methods": {},
				"version": 1
			}
		}
	}
}