{
	"ds-stop/stop.sol": {
		"DSStop": {
			"abi": [
				{
					"anonymous": true,
					"inputs": [
						{
							"indexed": true,
							"internalType": "bytes4",
							"name": "sig",
							"type": "bytes4"
						},
						{
							"indexed": true,
							"internalType": "address",
							"name": "guy",
							"type": "address"
						},
						{
							"indexed": true,
							"internalType": "bytes32",
							"name": "foo",
							"type": "bytes32"
						},
						{
							"indexed": true,
							"internalType": "bytes32",
							"name": "bar",
							"type": "bytes32"
						},
						{
							"indexed": false,
							"internalType": "uint256",
							"name": "wad",
							"type": "uint256"
						},
						{
							"indexed": false,
							"internalType": "bytes",
							"name": "fax",
							"type": "bytes"
						}
					],
					"name": "LogNote",
					"type": "event"
				},
				{
					"anonymous": false,
					"inputs": [
						{
							"indexed": true,
							"internalType": "address",
							"name": "authority",
							"type": "address"
						}
					],
					"name": "LogSetAuthority",
					"type": "event"
				},
				{
					"anonymous": false,
					"inputs": [
						{
							"indexed": true,
							"internalType": "address",
							"name": "owner",
							"type": "address"
						}
					],
					"name": "LogSetOwner",
					"type": "event"
				},
				{
					"inputs": [],
					"name": "authority",
					"outputs": [
						{
							"internalType": "contract DSAuthority",
							"name": "",
							"type": "address"
						}
					],
					"stateMutability": "view",
					"type": "function"
				},
				{
					"inputs": [],
					"name": "owner",
					"outputs": [
						{
							"internalType": "address",
							"name": "",
							"type": "address"
						}
					],
					"stateMutability": "view",
					"type": "function"
				},
				{
					"inputs": [
						{
							"internalType": "contract DSAuthority",
							"name": "authority_",
							"type": "address"
						}
					],
					"name": "setAuthority",
					"outputs": [],
					"stateMutability": "nonpayable",
					"type": "function"
				},
				{
					"inputs": [
						{
							"internalType": "address",
							"name": "owner_",
							"type": "address"
						}
					],
					"name": "setOwner",
					"outputs": [],
					"stateMutability": "nonpayable",
					"type": "function"
				},
				{
					"inputs": [],
					"name": "start",
					"outputs": [],
					"stateMutability": "payable",
					"type": "function"
				},
				{
					"inputs": [],
					"name": "stop",
					"outputs": [],
					"stateMutability": "payable",
					"type": "function"
				},
				{
					"inputs": [],
					"name": "stopped",
					"outputs": [
						{
							"internalType": "bool",
							"name": "",
							"type": "bool"
						}
					],
					"stateMutability": "view",
					"type": "function"
				}
			],
			"devdoc": {
				"kind": "dev",
				"methods": {},
				"version": 1
			},
			"evm": {
				"assembly": "    /* \"ds-stop/stop.sol\":817:1107  contract DSStop is DSNote, DSAuth {... */\n  mstore(0x40, 0x80)\n  callvalue\n  dup1\n  iszero\n  tag_1\n  jumpi\n  0x00\n  dup1\n  revert\ntag_1:\n  pop\n    /* \"ds-auth/auth.sol\":1104:1109  owner */\n  0x01\n    /* \"ds-auth/auth.sol\":1104:1122  owner = msg.sender */\n  dup1\n  sload\n  not(sub(shl(0xa0, 0x01), 0x01))\n  and\n    /* \"ds-auth/auth.sol\":1112:1122  msg.sender */\n  caller\n    /* \"ds-auth/auth.sol\":1104:1122  owner = msg.sender */\n  swap1\n  dup2\n  or\n  swap1\n  swap2\n  sstore\n    /* \"ds-auth/auth.sol\":1137:1160  LogSetOwner(msg.sender) */\n  mload(0x40)\n  0xce241d7ca1f669fee44b6fc00b8eba2df3bb514eed0f6f668f8f89096e81ed94\n  swap1\n    /* \"ds-auth/auth.sol\":1104:1109  owner */\n  0x00\n  swap1\n    /* \"ds-auth/auth.sol\":1137:1160  LogSetOwner(msg.sender) */\n  log2\n    /* \"ds-stop/stop.sol\":817:1107  contract DSStop is DSNote, DSAuth {... */\n  dataSize(sub_0)\n  dup1\n  dataOffset(sub_0)\n  0x00\n  codecopy\n  0x00\n  return\nstop\n\nsub_0: assembly {\n        /* \"ds-stop/stop.sol\":817:1107  contract DSStop is DSNote, DSAuth {... */\n      mstore(0x40, 0x80)\n      jumpi(tag_1, lt(calldatasize, 0x04))\n      shr(0xe0, calldataload(0x00))\n      dup1\n      0x7a9e5e4b\n      gt\n      tag_9\n      jumpi\n      dup1\n      0x7a9e5e4b\n      eq\n      tag_5\n      jumpi\n      dup1\n      0x8da5cb5b\n      eq\n      tag_6\n      jumpi\n      dup1\n      0xbe9a6555\n      eq\n      tag_7\n      jumpi\n      dup1\n      0xbf7e214f\n      eq\n      tag_8\n      jumpi\n      0x00\n      dup1\n      revert\n    tag_9:\n      dup1\n      0x07da68f5\n      eq\n      tag_2\n      jumpi\n      dup1\n      0x13af4035\n      eq\n      tag_3\n      jumpi\n      dup1\n      0x75f12b21\n      eq\n      tag_4\n      jumpi\n    tag_1:\n      0x00\n      dup1\n      revert\n        /* \"ds-stop/stop.sol\":953:1025  function stop() public auth payable note {... */\n    tag_2:\n      tag_10\n      tag_11\n      jump\t// in\n    tag_10:\n      stop\n        /* \"ds-auth/auth.sol\":1173:1303  function setOwner(address owner_)... */\n    tag_3:\n      callvalue\n      dup1\n      iszero\n      tag_12\n      jumpi\n      0x00\n      dup1\n      revert\n    tag_12:\n      pop\n      tag_10\n      tag_14\n      calldatasize\n      0x04\n      tag_15\n      jump\t// in\n    tag_14:\n      tag_16\n      jump\t// in\n        /* \"ds-stop/stop.sol\":858:877  bool public stopped */\n    tag_4:\n      callvalue\n      dup1\n      iszero\n      tag_17\n      jumpi\n      0x00\n      dup1\n      revert\n    tag_17:\n      pop\n      sload(0x01)\n      tag_18\n      swap1\n      shl(0xa0, 0x01)\n      swap1\n      div\n      0xff\n      and\n      dup2\n      jump\n    tag_18:\n      mload(0x40)\n        /* \"#utility.yul\":567:581   */\n      swap1\n      iszero\n        /* \"#utility.yul\":560:582   */\n      iszero\n        /* \"#utility.yul\":542:583   */\n      dup2\n      mstore\n        /* \"#utility.yul\":530:532   */\n      0x20\n        /* \"#utility.yul\":515:533   */\n      add\n        /* \"ds-stop/stop.sol\":858:877  bool public stopped */\n    tag_20:\n      mload(0x40)\n      dup1\n      swap2\n      sub\n      swap1\n      return\n        /* \"ds-auth/auth.sol\":1309:1476  function setAuthority(DSAuthority authority_)... */\n    tag_5:\n      callvalue\n      dup1\n      iszero\n      tag_22\n      jumpi\n      0x00\n      dup1\n      revert\n    tag_22:\n      pop\n      tag_10\n      tag_24\n      calldatasize\n      0x04\n      tag_15\n      jump\t// in\n    tag_24:\n      tag_26\n      jump\t// in\n        /* \"ds-auth/auth.sol\":1040:1066  address      public  owner */\n    tag_6:\n      callvalue\n      dup1\n      iszero\n      tag_27\n      jumpi\n      0x00\n      dup1\n      revert\n    tag_27:\n      pop\n      sload(0x01)\n      tag_28\n      swap1\n      sub(shl(0xa0, 0x01), 0x01)\n      and\n      dup2\n      jump\n    tag_28:\n      mload(0x40)\n      sub(shl(0xa0, 0x01), 0x01)\n        /* \"#utility.yul\":1028:1060   */\n      swap1\n      swap2\n      and\n        /* \"#utility.yul\":1010:1061   */\n      dup2\n      mstore\n        /* \"#utility.yul\":998:1000   */\n      0x20\n        /* \"#utility.yul\":983:1001   */\n      add\n        /* \"ds-auth/auth.sol\":1040:1066  address      public  owner */\n      tag_20\n        /* \"#utility.yul\":864:1067   */\n      jump\n        /* \"ds-stop/stop.sol\":1030:1104  function start() public auth payable note {... */\n    tag_7:\n      tag_10\n      tag_33\n      jump\t// in\n        /* \"ds-auth/auth.sol\":1004:1034  DSAuthority  public  authority */\n    tag_8:\n      callvalue\n      dup1\n      iszero\n      tag_34\n      jumpi\n      0x00\n      dup1\n      revert\n    tag_34:\n      pop\n      sload(0x00)\n      tag_28\n      swap1\n      sub(shl(0xa0, 0x01), 0x01)\n      and\n      dup2\n      jump\n        /* \"ds-stop/stop.sol\":953:1025  function stop() public auth payable note {... */\n    tag_11:\n        /* \"ds-auth/auth.sol\":1514:1547  isAuthorized(msg.sender, msg.sig) */\n      tag_40\n        /* \"ds-auth/auth.sol\":1527:1537  msg.sender */\n      caller\n        /* \"ds-auth/auth.sol\":1539:1546  msg.sig */\n      and(not(sub(shl(0xe0, 0x01), 0x01)), calldataload(0x00))\n        /* \"ds-auth/auth.sol\":1514:1526  isAuthorized */\n      tag_41\n        /* \"ds-auth/auth.sol\":1514:1547  isAuthorized(msg.sender, msg.sig) */\n      jump\t// in\n    tag_40:\n        /* \"ds-auth/auth.sol\":1506:1572  require(isAuthorized(msg.sender, msg.sig), \"ds-auth-unauthorized\") */\n      tag_42\n      jumpi\n      mload(0x40)\n      shl(0xe5, 0x461bcd)\n      dup2\n      mstore\n      0x04\n      add\n      tag_43\n      swap1\n      tag_44\n      jump\t// in\n    tag_43:\n      mload(0x40)\n      dup1\n      swap2\n      sub\n      swap1\n      revert\n    tag_42:\n        /* \"ds-note/note.sol\":1152:1211  LogNote(msg.sig, msg.sender, foo, bar, msg.value, msg.data) */\n      mload(0x40)\n        /* \"ds-note/note.sol\":1089:1090  4 */\n      0x04\n        /* \"ds-note/note.sol\":1076:1091  calldataload(4) */\n      calldataload\n      swap1\n        /* \"ds-note/note.sol\":1124:1126  36 */\n      0x24\n        /* \"ds-note/note.sol\":1111:1127  calldataload(36) */\n      calldataload\n      swap1\n      dup2\n      swap1\n        /* \"ds-note/note.sol\":1076:1091  calldataload(4) */\n      dup4\n      swap1\n        /* \"ds-note/note.sol\":1169:1179  msg.sender */\n      caller\n      swap1\n        /* \"ds-note/note.sol\":1003:1014  bytes32 foo */\n      0x00\n        /* \"ds-note/note.sol\":1160:1167  msg.sig */\n      dup1\n      calldataload\n      not(sub(shl(0xe0, 0x01), 0x01))\n      and\n      swap2\n        /* \"ds-note/note.sol\":1152:1211  LogNote(msg.sig, msg.sender, foo, bar, msg.value, msg.data) */\n      tag_46\n      swap2\n        /* \"ds-note/note.sol\":1191:1200  msg.value */\n      callvalue\n      swap2\n        /* \"ds-note/note.sol\":1202:1210  msg.data */\n      calldatasize\n      swap1\n        /* \"ds-note/note.sol\":1152:1211  LogNote(msg.sig, msg.sender, foo, bar, msg.value, msg.data) */\n      tag_47\n      jump\t// in\n    tag_46:\n      mload(0x40)\n      dup1\n      swap2\n      sub\n      swap1\n      log4\n      pop\n      pop\n        /* \"ds-stop/stop.sol\":1014:1018  true */\n      0x01\n        /* \"ds-stop/stop.sol\":1004:1018  stopped = true */\n      dup1\n      sload\n      not(shl(0xa0, 0xff))\n      and\n      shl(0xa0, 0x01)\n      or\n      swap1\n      sstore\n        /* \"ds-stop/stop.sol\":953:1025  function stop() public auth payable note {... */\n      jump\t// out\n        /* \"ds-auth/auth.sol\":1173:1303  function setOwner(address owner_)... */\n    tag_16:\n        /* \"ds-auth/auth.sol\":1514:1547  isAuthorized(msg.sender, msg.sig) */\n      tag_50\n        /* \"ds-auth/auth.sol\":1527:1537  msg.sender */\n      caller\n        /* \"ds-auth/auth.sol\":1539:1546  msg.sig */\n      and(not(sub(shl(0xe0, 0x01), 0x01)), calldataload(0x00))\n        /* \"ds-auth/auth.sol\":1514:1526  isAuthorized */\n      tag_41\n        /* \"ds-auth/auth.sol\":1514:1547  isAuthorized(msg.sender, msg.sig) */\n      jump\t// in\n    tag_50:\n        /* \"ds-auth/auth.sol\":1506:1572  require(isAuthorized(msg.sender, msg.sig), \"ds-auth-unauthorized\") */\n      tag_51\n      jumpi\n      mload(0x40)\n      shl(0xe5, 0x461bcd)\n      dup2\n      mstore\n      0x04\n      add\n      tag_43\n      swap1\n      tag_44\n      jump\t// in\n    tag_51:\n        /* \"ds-auth/auth.sol\":1249:1254  owner */\n      0x01\n        /* \"ds-auth/auth.sol\":1249:1263  owner = owner_ */\n      dup1\n      sload\n      not(sub(shl(0xa0, 0x01), 0x01))\n      and\n      sub(shl(0xa0, 0x01), 0x01)\n      dup4\n      and\n      swap1\n      dup2\n      or\n      swap1\n      swap2\n      sstore\n        /* \"ds-auth/auth.sol\":1278:1296  LogSetOwner(owner) */\n      mload(0x40)\n      0xce241d7ca1f669fee44b6fc00b8eba2df3bb514eed0f6f668f8f89096e81ed94\n      swap1\n      0x00\n      swap1\n      log2\n        /* \"ds-auth/auth.sol\":1173:1303  function setOwner(address owner_)... */\n      pop\n      jump\t// out\n        /* \"ds-auth/auth.sol\":1309:1476  function setAuthority(DSAuthority authority_)... */\n    tag_26:\n        /* \"ds-auth/auth.sol\":1514:1547  isAuthorized(msg.sender, msg.sig) */\n      tag_55\n        /* \"ds-auth/auth.sol\":1527:1537  msg.sender */\n      caller\n        /* \"ds-auth/auth.sol\":1539:1546  msg.sig */\n      and(not(sub(shl(0xe0, 0x01), 0x01)), calldataload(0x00))\n        /* \"ds-auth/auth.sol\":1514:1526  isAuthorized */\n      tag_41\n        /* \"ds-auth/auth.sol\":1514:1547  isAuthorized(msg.sender, msg.sig) */\n      jump\t// in\n    tag_55:\n        /* \"ds-auth/auth.sol\":1506:1572  require(isAuthorized(msg.sender, msg.sig), \"ds-auth-unauthorized\") */\n      tag_56\n      jumpi\n      mload(0x40)\n      shl(0xe5, 0x461bcd)\n      dup2\n      mstore\n      0x04\n      add\n      tag_43\n      swap1\n      tag_44\n      jump\t// in\n    tag_56:\n        /* \"ds-auth/auth.sol\":1397:1406  authority */\n      0x00\n        /* \"ds-auth/auth.sol\":1397:1419  authority = authority_ */\n      dup1\n      sload\n      not(sub(shl(0xa0, 0x01), 0x01))\n      and\n      sub(shl(0xa0, 0x01), 0x01)\n      dup4\n      and\n      swap1\n      dup2\n      or\n      dup3\n      sstore\n        /* \"ds-auth/auth.sol\":1434:1469  LogSetAuthority(address(authority)) */\n      mload(0x40)\n        /* \"ds-auth/auth.sol\":1397:1419  authority = authority_ */\n      swap1\n      swap2\n        /* \"ds-auth/auth.sol\":1434:1469  LogSetAuthority(address(authority)) */\n      0x1abebea81bfa2637f28358c371278fb15ede7ea8dd28d2e03b112ff6d936ada4\n      swap2\n      log2\n        /* \"ds-auth/auth.sol\":1309:1476  function setAuthority(DSAuthority authority_)... */\n      pop\n      jump\t// out\n        /* \"ds-stop/stop.sol\":1030:1104  function start() public auth payable note {... */\n    tag_33:\n        /* \"ds-auth/auth.sol\":1514:1547  isAuthorized(msg.sender, msg.sig) */\n      tag_60\n        /* \"ds-auth/auth.sol\":1527:1537  msg.sender */\n      caller\n        /* \"ds-auth/auth.sol\":1539:1546  msg.sig */\n      and(not(sub(shl(0xe0, 0x01), 0x01)), calldataload(0x00))\n        /* \"ds-auth/auth.sol\":1514:1526  isAuthorized */\n      tag_41\n        /* \"ds-auth/auth.sol\":1514:1547  isAuthorized(msg.sender, msg.sig) */\n      jump\t// in\n    tag_60:\n        /* \"ds-auth/auth.sol\":1506:1572  require(isAuthorized(msg.sender, msg.sig), \"ds-auth-unauthorized\") */\n      tag_61\n      jumpi\n      mload(0x40)\n      shl(0xe5, 0x461bcd)\n      dup2\n      mstore\n      0x04\n      add\n      tag_43\n      swap1\n      tag_44\n      jump\t// in\n    tag_61:\n        /* \"ds-note/note.sol\":1152:1211  LogNote(msg.sig, msg.sender, foo, bar, msg.value, msg.data) */\n      mload(0x40)\n        /* \"ds-note/note.sol\":1089:1090  4 */\n      0x04\n        /* \"ds-note/note.sol\":1076:1091  calldataload(4) */\n      calldataload\n      swap1\n        /* \"ds-note/note.sol\":1124:1126  36 */\n      0x24\n        /* \"ds-note/note.sol\":1111:1127  calldataload(36) */\n      calldataload\n      swap1\n      dup2\n      swap1\n        /* \"ds-note/note.sol\":1076:1091  calldataload(4) */\n      dup4\n      swap1\n        /* \"ds-note/note.sol\":1169:1179  msg.sender */\n      caller\n      swap1\n        /* \"ds-note/note.sol\":1003:1014  bytes32 foo */\n      0x00\n        /* \"ds-note/note.sol\":1160:1167  msg.sig */\n      dup1\n      calldataload\n      not(sub(shl(0xe0, 0x01), 0x01))\n      and\n      swap2\n        /* \"ds-note/note.sol\":1152:1211  LogNote(msg.sig, msg.sender, foo, bar, msg.value, msg.data) */\n      tag_64\n      swap2\n        /* \"ds-note/note.sol\":1191:1200  msg.value */\n      callvalue\n      swap2\n        /* \"ds-note/note.sol\":1202:1210  msg.data */\n      calldatasize\n      swap1\n        /* \"ds-note/note.sol\":1152:1211  LogNote(msg.sig, msg.sender, foo, bar, msg.value, msg.data) */\n      tag_47\n      jump\t// in\n    tag_64:\n      mload(0x40)\n      dup1\n      swap2\n      sub\n      swap1\n      log4\n      pop\n      pop\n        /* \"ds-stop/stop.sol\":1082:1089  stopped */\n      0x01\n        /* \"ds-stop/stop.sol\":1082:1097  stopped = false */\n      dup1\n      sload\n      not(shl(0xa0, 0xff))\n      and\n      swap1\n      sstore\n        /* \"ds-stop/stop.sol\":1030:1104  function start() public auth payable note {... */\n      jump\t// out\n        /* \"ds-auth/auth.sol\":1596:1975  function isAuthorized(address src, bytes4 sig) internal view returns (bool) {... */\n    tag_41:\n        /* \"ds-auth/auth.sol\":1666:1670  bool */\n      0x00\n        /* \"ds-auth/auth.sol\":1701:1705  this */\n      address\n      sub(shl(0xa0, 0x01), 0x01)\n        /* \"ds-auth/auth.sol\":1686:1706  src == address(this) */\n      dup5\n      and\n      sub\n        /* \"ds-auth/auth.sol\":1682:1969  if (src == address(this)) {... */\n      tag_67\n      jumpi\n      pop\n        /* \"ds-auth/auth.sol\":1729:1733  true */\n      0x01\n        /* \"ds-auth/auth.sol\":1722:1733  return true */\n      jump(tag_72)\n        /* \"ds-auth/auth.sol\":1682:1969  if (src == address(this)) {... */\n    tag_67:\n        /* \"ds-auth/auth.sol\":1761:1766  owner */\n      sload(0x01)\n      sub(shl(0xa0, 0x01), 0x01)\n      swap1\n      dup2\n      and\n        /* \"ds-auth/auth.sol\":1754:1766  src == owner */\n      swap1\n      dup5\n      and\n      sub\n        /* \"ds-auth/auth.sol\":1750:1969  if (src == owner) {... */\n      tag_69\n      jumpi\n      pop\n        /* \"ds-auth/auth.sol\":1789:1793  true */\n      0x01\n        /* \"ds-auth/auth.sol\":1782:1793  return true */\n      jump(tag_72)\n        /* \"ds-auth/auth.sol\":1750:1969  if (src == owner) {... */\n    tag_69:\n        /* \"ds-auth/auth.sol\":1847:1848  0 */\n      0x00\n        /* \"ds-auth/auth.sol\":1814:1823  authority */\n      sload\n      sub(shl(0xa0, 0x01), 0x01)\n      and\n        /* \"ds-auth/auth.sol\":1810:1969  if (authority == DSAuthority(address(0))) {... */\n      tag_71\n      jumpi\n      pop\n        /* \"ds-auth/auth.sol\":1873:1878  false */\n      0x00\n        /* \"ds-auth/auth.sol\":1866:1878  return false */\n      jump(tag_72)\n        /* \"ds-auth/auth.sol\":1810:1969  if (authority == DSAuthority(address(0))) {... */\n    tag_71:\n        /* \"ds-auth/auth.sol\":1916:1925  authority */\n      sload(0x00)\n        /* \"ds-auth/auth.sol\":1916:1958  authority.canCall(src, address(this), sig) */\n      mload(0x40)\n      shl(0xe0, 0xb7009613)\n      dup2\n      mstore\n      sub(shl(0xa0, 0x01), 0x01)\n        /* \"#utility.yul\":2367:2382   */\n      dup6\n      dup2\n      and\n        /* \"ds-auth/auth.sol\":1916:1958  authority.canCall(src, address(this), sig) */\n      0x04\n      dup4\n      add\n        /* \"#utility.yul\":2349:2383   */\n      mstore\n        /* \"ds-auth/auth.sol\":1947:1951  this */\n      address\n        /* \"#utility.yul\":2399:2417   */\n      0x24\n      dup4\n      add\n        /* \"#utility.yul\":2392:2435   */\n      mstore\n      not(sub(shl(0xe0, 0x01), 0x01))\n        /* \"#utility.yul\":2471:2504   */\n      dup6\n      and\n        /* \"#utility.yul\":2451:2469   */\n      0x44\n      dup4\n      add\n        /* \"#utility.yul\":2444:2505   */\n      mstore\n        /* \"ds-auth/auth.sol\":1916:1925  authority */\n      swap1\n      swap2\n      and\n      swap1\n        /* \"ds-auth/auth.sol\":1916:1933  authority.canCall */\n      0xb7009613\n      swap1\n        /* \"#utility.yul\":2284:2302   */\n      0x64\n      add\n        /* \"ds-auth/auth.sol\":1916:1958  authority.canCall(src, address(this), sig) */\n      0x20\n      mload(0x40)\n      dup1\n      dup4\n      sub\n      dup2\n      dup7\n      gas\n      staticcall\n      iszero\n      dup1\n      iszero\n      tag_76\n      jumpi\n      returndatasize\n      0x00\n      dup1\n      returndatacopy\n      revert(0x00, returndatasize)\n    tag_76:\n      pop\n      pop\n      pop\n      pop\n      mload(0x40)\n      returndatasize\n      not(0x1f)\n      0x1f\n      dup3\n      add\n      and\n      dup3\n      add\n      dup1\n      0x40\n      mstore\n      pop\n      dup2\n      add\n      swap1\n      tag_77\n      swap2\n      swap1\n      tag_78\n      jump\t// in\n    tag_77:\n        /* \"ds-auth/auth.sol\":1909:1958  return authority.canCall(src, address(this), sig) */\n      swap1\n      pop\n        /* \"ds-auth/auth.sol\":1810:1969  if (authority == DSAuthority(address(0))) {... */\n    tag_72:\n        /* \"ds-auth/auth.sol\":1596:1975  function isAuthorized(address src, bytes4 sig) internal view returns (bool) {... */\n      swap3\n      swap2\n      pop\n      pop\n      jump\t// out\n        /* \"#utility.yul\":14:145   */\n    tag_79:\n      sub(shl(0xa0, 0x01), 0x01)\n        /* \"#utility.yul\":89:120   */\n      dup2\n      and\n        /* \"#utility.yul\":79:121   */\n      dup2\n      eq\n        /* \"#utility.yul\":69:139   */\n      tag_82\n      jumpi\n        /* \"#utility.yul\":135:136   */\n      0x00\n        /* \"#utility.yul\":132:133   */\n      dup1\n        /* \"#utility.yul\":125:137   */\n      revert\n        /* \"#utility.yul\":69:139   */\n    tag_82:\n        /* \"#utility.yul\":14:145   */\n      pop\n      jump\t// out\n        /* \"#utility.yul\":150:397   */\n    tag_15:\n        /* \"#utility.yul\":209:215   */\n      0x00\n        /* \"#utility.yul\":262:264   */\n      0x20\n        /* \"#utility.yul\":250:259   */\n      dup3\n        /* \"#utility.yul\":241:248   */\n      dup5\n        /* \"#utility.yul\":237:260   */\n      sub\n        /* \"#utility.yul\":233:265   */\n      slt\n        /* \"#utility.yul\":230:282   */\n      iszero\n      tag_84\n      jumpi\n        /* \"#utility.yul\":278:279   */\n      0x00\n        /* \"#utility.yul\":275:276   */\n      dup1\n        /* \"#utility.yul\":268:280   */\n      revert\n        /* \"#utility.yul\":230:282   */\n    tag_84:\n        /* \"#utility.yul\":317:326   */\n      dup2\n        /* \"#utility.yul\":304:327   */\n      calldataload\n        /* \"#utility.yul\":336:367   */\n      tag_85\n        /* \"#utility.yul\":361:366   */\n      dup2\n        /* \"#utility.yul\":336:367   */\n      tag_79\n      jump\t// in\n    tag_85:\n        /* \"#utility.yul\":386:391   */\n      swap4\n        /* \"#utility.yul\":150:397   */\n      swap3\n      pop\n      pop\n      pop\n      jump\t// out\n        /* \"#utility.yul\":1298:1642   */\n    tag_44:\n        /* \"#utility.yul\":1500:1502   */\n      0x20\n        /* \"#utility.yul\":1482:1503   */\n      dup1\n      dup3\n      mstore\n        /* \"#utility.yul\":1539:1541   */\n      0x14\n        /* \"#utility.yul\":1519:1537   */\n      swap1\n      dup3\n      add\n        /* \"#utility.yul\":1512:1542   */\n      mstore\n      shl(0x62, 0x191ccb585d5d1a0b5d5b985d5d1a1bdc9a5e9959)\n        /* \"#utility.yul\":1573:1575   */\n      0x40\n        /* \"#utility.yul\":1558:1576   */\n      dup3\n      add\n        /* \"#utility.yul\":1551:1601   */\n      mstore\n        /* \"#utility.yul\":1633:1635   */\n      0x60\n        /* \"#utility.yul\":1618:1636   */\n      add\n      swap1\n        /* \"#utility.yul\":1298:1642   */\n      jump\t// out\n        /* \"#utility.yul\":1647:2106   */\n    tag_47:\n        /* \"#utility.yul\":1832:1838   */\n      dup4\n        /* \"#utility.yul\":1821:1830   */\n      dup2\n        /* \"#utility.yul\":1814:1839   */\n      mstore\n        /* \"#utility.yul\":1875:1877   */\n      0x40\n        /* \"#utility.yul\":1870:1872   */\n      0x20\n        /* \"#utility.yul\":1859:1868   */\n      dup3\n        /* \"#utility.yul\":1855:1873   */\n      add\n        /* \"#utility.yul\":1848:1878   */\n      mstore\n        /* \"#utility.yul\":1914:1920   */\n      dup2\n        /* \"#utility.yul\":1909:1911   */\n      0x40\n        /* \"#utility.yul\":1898:1907   */\n      dup3\n        /* \"#utility.yul\":1894:1912   */\n      add\n        /* \"#utility.yul\":1887:1921   */\n      mstore\n        /* \"#utility.yul\":1971:1977   */\n      dup2\n        /* \"#utility.yul\":1963:1969   */\n      dup4\n        /* \"#utility.yul\":1958:1960   */\n      0x60\n        /* \"#utility.yul\":1947:1956   */\n      dup4\n        /* \"#utility.yul\":1943:1961   */\n      add\n        /* \"#utility.yul\":1930:1978   */\n      calldatacopy\n        /* \"#utility.yul\":2027:2028   */\n      0x00\n        /* \"#utility.yul\":1998:2020   */\n      dup2\n      dup4\n      add\n        /* \"#utility.yul\":2022:2024   */\n      0x60\n        /* \"#utility.yul\":1994:2025   */\n      swap1\n      dup2\n      add\n        /* \"#utility.yul\":1987:2029   */\n      swap2\n      swap1\n      swap2\n      mstore\n        /* \"#utility.yul\":2090:2092   */\n      0x1f\n        /* \"#utility.yul\":2069:2084   */\n      swap1\n      swap3\n      add\n      not(0x1f)\n        /* \"#utility.yul\":2065:2094   */\n      and\n        /* \"#utility.yul\":2050:2095   */\n      add\n        /* \"#utility.yul\":2046:2100   */\n      add\n      swap3\n        /* \"#utility.yul\":1647:2106   */\n      swap2\n      pop\n      pop\n      jump\t// out\n        /* \"#utility.yul\":2516:2793   */\n    tag_78:\n        /* \"#utility.yul\":2583:2589   */\n      0x00\n        /* \"#utility.yul\":2636:2638   */\n      0x20\n        /* \"#utility.yul\":2624:2633   */\n      dup3\n        /* \"#utility.yul\":2615:2622   */\n      dup5\n        /* \"#utility.yul\":2611:2634   */\n      sub\n        /* \"#utility.yul\":2607:2639   */\n      slt\n        /* \"#utility.yul\":2604:2656   */\n      iszero\n      tag_96\n      jumpi\n        /* \"#utility.yul\":2652:2653   */\n      0x00\n        /* \"#utility.yul\":2649:2650   */\n      dup1\n        /* \"#utility.yul\":2642:2654   */\n      revert\n        /* \"#utility.yul\":2604:2656   */\n    tag_96:\n        /* \"#utility.yul\":2684:2693   */\n      dup2\n        /* \"#utility.yul\":2678:2694   */\n      mload\n        /* \"#utility.yul\":2737:2742   */\n      dup1\n        /* \"#utility.yul\":2730:2743   */\n      iszero\n        /* \"#utility.yul\":2723:2744   */\n      iszero\n        /* \"#utility.yul\":2716:2721   */\n      dup2\n        /* \"#utility.yul\":2713:2745   */\n      eq\n        /* \"#utility.yul\":2703:2763   */\n      tag_85\n      jumpi\n        /* \"#utility.yul\":2759:2760   */\n      0x00\n        /* \"#utility.yul\":2756:2757   */\n      dup1\n        /* \"#utility.yul\":2749:2761   */\n      revert\n\n    auxdata: 0xa26469706673582212201c14348e8e7cacf0e824cdf1bda76bc23ef0678b9b594c99274449d37cebe62e64736f6c63430008150033\n}\n",
				"bytecode": {
					"linkReferences": {},
					"object": "608060405234801561000f575f80fd5b50600180546001600160a01b031916339081179091556040517fce241d7ca1f669fee44b6fc00b8eba2df3bb514eed0f6f668f8f89096e81ed94905f90a26105018061005a5f395ff3fe60806040526004361061006e575f3560e01c80637a9e5e4b1161004c5780637a9e5e4b146100d05780638da5cb5b146100ef578063be9a655514610126578063bf7e214f1461012e575f80fd5b806307da68f51461007257806313af40351461007c57806375f12b211461009b575b5f80fd5b61007a61014c565b005b348015610087575f80fd5b5061007a610096366004610427565b6101d1565b3480156100a6575f80fd5b506001546100bb90600160a01b900460ff1681565b60405190151581526020015b60405180910390f35b3480156100db575f80fd5b5061007a6100ea366004610427565b61024b565b3480156100fa575f80fd5b5060015461010e906001600160a01b031681565b6040516001600160a01b0390911681526020016100c7565b61007a6102c3565b348015610139575f80fd5b505f5461010e906001600160a01b031681565b610161335f356001600160e01b031916610339565b6101865760405162461bcd60e51b815260040161017d90610449565b60405180910390fd5b60405160043590602435908190839033905f80356001600160e01b031916916101b29134913690610477565b60405180910390a450506001805460ff60a01b1916600160a01b179055565b6101e6335f356001600160e01b031916610339565b6102025760405162461bcd60e51b815260040161017d90610449565b600180546001600160a01b0319166001600160a01b0383169081179091556040517fce241d7ca1f669fee44b6fc00b8eba2df3bb514eed0f6f668f8f89096e81ed94905f90a250565b610260335f356001600160e01b031916610339565b61027c5760405162461bcd60e51b815260040161017d90610449565b5f80546001600160a01b0319166001600160a01b038316908117825560405190917f1abebea81bfa2637f28358c371278fb15ede7ea8dd28d2e03b112ff6d936ada491a250565b6102d8335f356001600160e01b031916610339565b6102f45760405162461bcd60e51b815260040161017d90610449565b60405160043590602435908190839033905f80356001600160e01b031916916103209134913690610477565b60405180910390a450506001805460ff60a01b19169055565b5f306001600160a01b038416036103525750600161040a565b6001546001600160a01b03908116908416036103705750600161040a565b5f546001600160a01b031661038657505f61040a565b5f5460405163b700961360e01b81526001600160a01b0385811660048301523060248301526001600160e01b0319851660448301529091169063b700961390606401602060405180830381865afa1580156103e3573d5f803e3d5ffd5b505050506040513d601f19601f8201168201806040525081019061040791906104ac565b90505b92915050565b6001600160a01b0381168114610424575f80fd5b50565b5f60208284031215610437575f80fd5b813561044281610410565b9392505050565b602080825260149082015273191ccb585d5d1a0b5d5b985d5d1a1bdc9a5e995960621b604082015260600190565b83815260406020820152816040820152818360608301375f818301606090810191909152601f909201601f1916010192915050565b5f602082840312156104bc575f80fd5b81518015158114610442575f80fdfea26469706673582212201c14348e8e7cacf0e824cdf1bda76bc23ef0678b9b594c99274449d37cebe62e64736f6c63430008150033",
					"opcodes": "PUSH1 0x80 PUSH1 0x40 MSTORE CALLVALUE DUP1 ISZERO PUSH2 0xF JUMPI PUSH0 DUP1 REVERT JUMPDEST POP PUSH1 0x1 DUP1 SLOAD PUSH1 0x1 PUSH1 0x1 PUSH1 0xA0 SHL SUB NOT AND CALLER SWAP1 DUP2 OR SWAP1 SWAP2 SSTORE PUSH1 0x40 MLOAD PUSH32 0xCE241D7CA1F669FEE44B6FC00B8EBA2DF3BB514EED0F6F668F8F89096E81ED94 SWAP1 PUSH0 SWAP1 LOG2 PUSH2 0x501 DUP1 PUSH2 0x5A PUSH0 CODECOPY PUSH0 RETURN INVALID PUSH1 0x80 PUSH1 0x40 MSTORE PUSH1 0x4 CALLDATASIZE LT PUSH2 0x6E JUMPI PUSH0 CALLDATALOAD PUSH1 0xE0 SHR DUP1 PUSH4 0x7A9E5E4B GT PUSH2 0x4C JUMPI DUP1 PUSH4 0x7A9E5E4B EQ PUSH2 0xD0 JUMPI DUP1 PUSH4 0x8DA5CB5B EQ PUSH2 0xEF JUMPI DUP1 PUSH4 0xBE9A6555 EQ PUSH2 0x126 JUMPI DUP1 PUSH4 0xBF7E214F EQ PUSH2 0x12E JUMPI PUSH0 DUP1 REVERT JUMPDEST DUP1 PUSH4 0x7DA68F5 EQ PUSH2 0x72 JUMPI DUP1 PUSH4 0x13AF4035 EQ PUSH2 0x7C JUMPI DUP1 PUSH4 0x75F12B21 EQ PUSH2 0x9B JUMPI JUMPDEST PUSH0 DUP1 REVERT JUMPDEST PUSH2 0x7A PUSH2 0x14C JUMP JUMPDEST STOP JUMPDEST CALLVALUE DUP1 ISZERO PUSH2 0x87 JUMPI PUSH0 DUP1 REVERT JUMPDEST POP PUSH2 0x7A PUSH2 0x96 CALLDATASIZE PUSH1 0x4 PUSH2 0x427 JUMP JUMPDEST PUSH2 0x1D1 JUMP JUMPDEST CALLVALUE DUP1 ISZERO PUSH2 0xA6 JUMPI PUSH0 DUP1 REVERT JUMPDEST POP PUSH1 0x1 SLOAD PUSH2 0xBB SWAP1 PUSH1 0x1 PUSH1 0xA0 SHL SWAP1 DIV PUSH1 0xFF AND DUP2 JUMP JUMPDEST PUSH1 0x40 MLOAD SWAP1 ISZERO ISZERO DUP2 MSTORE PUSH1 0x20 ADD JUMPDEST PUSH1 0x40 MLOAD DUP1 SWAP2 SUB SWAP1 RETURN JUMPDEST CALLVALUE DUP1 ISZERO PUSH2 0xDB JUMPI PUSH0 DUP1 REVERT JUMPDEST POP PUSH2 0x7A PUSH2 0xEA CALLDATASIZE PUSH1 0x4 PUSH2 0x427 JUMP JUMPDEST PUSH2 0x24B JUMP JUMPDEST CALLVALUE DUP1 ISZERO PUSH2 0xFA JUMPI PUSH0 DUP1 REVERT JUMPDEST POP PUSH1 0x1 SLOAD PUSH2 0x10E SWAP1 PUSH1 0x1 PUSH1 0x1 PUSH1 0xA0 SHL SUB AND DUP2 JUMP JUMPDEST PUSH1 0x40 MLOAD PUSH1 0x1 PUSH1 0x1 PUSH1 0xA0 SHL SUB SWAP1 SWAP2 AND DUP2 MSTORE PUSH1 0x20 ADD PUSH2 0xC7 JUMP JUMPDEST PUSH2 0x7A PUSH2 0x2C3 JUMP JUMPDEST CALLVALUE DUP1 ISZERO PUSH2 0x139 JUMPI PUSH0 DUP1 REVERT JUMPDEST POP PUSH0 SLOAD PUSH2 0x10E SWAP1 PUSH1 0x1 PUSH1 0x1 PUSH1 0xA0 SHL SUB AND DUP2 JUMP JUMPDEST PUSH2 0x161 CALLER PUSH0 CALLDATALOAD PUSH1 0x1 PUSH1 0x1 PUSH1 0xE0 SHL SUB NOT AND PUSH2 0x339 JUMP JUMPDEST PUSH2 0x186 JUMPI PUSH1 0x40 MLOAD PUSH3 0x461BCD PUSH1 0xE5 SHL DUP2 MSTORE PUSH1 0x4 ADD PUSH2 0x17D SWAP1 PUSH2 0x449 JUMP JUMPDEST PUSH1 0x40 MLOAD DUP1 SWAP2 SUB SWAP1 REVERT JUMPDEST PUSH1 0x40 MLOAD PUSH1 0x4 CALLDATALOAD SWAP1 PUSH1 0x24 CALLDATALOAD SWAP1 DUP2 SWAP1 DUP4 SWAP1 CALLER SWAP1 PUSH0 DUP1 CALLDATALOAD PUSH1 0x1 PUSH1 0x1 PUSH1 0xE0 SHL SUB NOT AND SWAP2 PUSH2 0x1B2 SWAP2 CALLVALUE SWAP2 CALLDATASIZE SWAP1 PUSH2 0x477 JUMP JUMPDEST PUSH1 0x40 MLOAD DUP1 SWAP2 SUB SWAP1 LOG4 POP POP PUSH1 0x1 DUP1 SLOAD PUSH1 0xFF PUSH1 0xA0 SHL NOT AND PUSH1 0x1 PUSH1 0xA0 SHL OR SWAP1 SSTORE JUMP JUMPDEST PUSH2 0x1E6 CALLER PUSH0 CALLDATALOAD PUSH1 0x1 PUSH1 0x1 PUSH1 0xE0 SHL SUB NOT AND PUSH2 0x339 JUMP JUMPDEST PUSH2 0x202 JUMPI PUSH1 0x40 MLOAD PUSH3 0x461BCD PUSH1 0xE5 SHL DUP2 MSTORE PUSH1 0x4 ADD PUSH2 0x17D SWAP1 PUSH2 0x449 JUMP JUMPDEST PUSH1 0x1 DUP1 SLOAD PUSH1 0x1 PUSH1 0x1 PUSH1 0xA0 SHL SUB NOT AND PUSH1 0x1 PUSH1 0x1 PUSH1 0xA0 SHL SUB DUP4 AND SWAP1 DUP2 OR SWAP1 SWAP2 SSTORE PUSH1 0x40 MLOAD PUSH32 0xCE241D7CA1F669FEE44B6FC00B8EBA2DF3BB514EED0F6F668F8F89096E81ED94 SWAP1 PUSH0 SWAP1 LOG2 POP JUMP JUMPDEST PUSH2 0x260 CALLER PUSH0 CALLDATALOAD PUSH1 0x1 PUSH1 0x1 PUSH1 0xE0 SHL SUB NOT AND PUSH2 0x339 JUMP JUMPDEST PUSH2 0x27C JUMPI PUSH1 0x40 MLOAD PUSH3 0x461BCD PUSH1 0xE5 SHL DUP2 MSTORE PUSH1 0x4 ADD PUSH2 0x17D SWAP1 PUSH2 0x449 JUMP JUMPDEST PUSH0 DUP1 SLOAD PUSH1 0x1 PUSH1 0x1 PUSH1 0xA0 SHL SUB NOT AND PUSH1 0x1 PUSH1 0x1 PUSH1 0xA0 SHL SUB DUP4 AND SWAP1 DUP2 OR DUP3 SSTORE PUSH1 0x40 MLOAD SWAP1 SWAP2 PUSH32 0x1ABEBEA81BFA2637F28358C371278FB15EDE7EA8DD28D2E03B112FF6D936ADA4 SWAP2 LOG2 POP JUMP JUMPDEST PUSH2 0x2D8 CALLER PUSH0 CALLDATALOAD PUSH1 0x1 PUSH1 0x1 PUSH1 0xE0 SHL SUB NOT AND PUSH2 0x339 JUMP JUMPDEST PUSH2 0x2F4 JUMPI PUSH1 0x40 MLOAD PUSH3 0x461BCD PUSH1 0xE5 SHL DUP2 MSTORE PUSH1 0x4 ADD PUSH2 0x17D SWAP1 PUSH2 0x449 JUMP JUMPDEST PUSH1 0x40 MLOAD PUSH1 0x4 CALLDATALOAD SWAP1 PUSH1 0x24 CALLDATALOAD SWAP1 DUP2 SWAP1 DUP4 SWAP1 CALLER SWAP1 PUSH0 DUP1 CALLDATALOAD PUSH1 0x1 PUSH1 0x1 PUSH1 0xE0 SHL SUB NOT AND SWAP2 PUSH2 0x320 SWAP2 CALLVALUE SWAP2 CALLDATASIZE SWAP1 PUSH2 0x477 JUMP JUMPDEST PUSH1 0x40 MLOAD DUP1 SWAP2 SUB SWAP1 LOG4 POP POP PUSH1 0x1 DUP1 SLOAD PUSH1 0xFF PUSH1 0xA0 SHL NOT AND SWAP1 SSTORE JUMP JUMPDEST PUSH0 ADDRESS PUSH1 0x1 PUSH1 0x1 PUSH1 0xA0 SHL SUB DUP5 AND SUB PUSH2 0x352 JUMPI POP PUSH1 0x1 PUSH2 0x40A JUMP JUMPDEST PUSH1 0x1 SLOAD PUSH1 0x1 PUSH1 0x1 PUSH1 0xA0 SHL SUB SWAP1 DUP2 AND SWAP1 DUP5 AND SUB PUSH2 0x370 JUMPI POP PUSH1 0x1 PUSH2 0x40A JUMP JUMPDEST PUSH0 SLOAD PUSH1 0x1 PUSH1 0x1 PUSH1 0xA0 SHL SUB AND PUSH2 0x386 JUMPI POP PUSH0 PUSH2 0x40A JUMP JUMPDEST PUSH0 SLOAD PUSH1 0x40 MLOAD PUSH4 0xB7009613 PUSH1 0xE0 SHL DUP2 MSTORE PUSH1 0x1 PUSH1 0x1 PUSH1 0xA0 SHL SUB DUP6 DUP2 AND PUSH1 0x4 DUP4 ADD MSTORE ADDRESS PUSH1 0x24 DUP4 ADD MSTORE PUSH1 0x1 PUSH1 0x1 PUSH1 0xE0 SHL SUB NOT DUP6 AND PUSH1 0x44 DUP4 ADD MSTORE SWAP1 SWAP2 AND SWAP1 PUSH4 0xB7009613 SWAP1 PUSH1 0x64 ADD PUSH1 0x20 PUSH1 0x40 MLOAD DUP1 DUP4 SUB DUP2 DUP7 GAS STATICCALL ISZERO DUP1 ISZERO PUSH2 0x3E3 JUMPI RETURNDATASIZE PUSH0 DUP1 RETURNDATACOPY RETURNDATASIZE PUSH0 REVERT JUMPDEST POP POP POP POP PUSH1 0x40 MLOAD RETURNDATASIZE PUSH1 0x1F NOT PUSH1 0x1F DUP3 ADD AND DUP3 ADD DUP1 PUSH1 0x40 MSTORE POP DUP2 ADD SWAP1 PUSH2 0x407 SWAP2 SWAP1 PUSH2 0x4AC JUMP JUMPDEST SWAP1 POP JUMPDEST SWAP3 SWAP2 POP POP JUMP JUMPDEST PUSH1 0x1 PUSH1 0x1 PUSH1 0xA0 SHL SUB DUP2 AND DUP2 EQ PUSH2 0x424 JUMPI PUSH0 DUP1 REVERT JUMPDEST POP JUMP JUMPDEST PUSH0 PUSH1 0x20 DUP3 DUP5 SUB SLT ISZERO PUSH2 0x437 JUMPI PUSH0 DUP1 REVERT JUMPDEST DUP2 CALLDATALOAD PUSH2 0x442 DUP2 PUSH2 0x410 JUMP JUMPDEST SWAP4 SWAP3 POP POP POP JUMP JUMPDEST PUSH1 0x20 DUP1 DUP3 MSTORE PUSH1 0x14 SWAP1 DUP3 ADD MSTORE PUSH20 0x191CCB585D5D1A0B5D5B985D5D1A1BDC9A5E9959 PUSH1 0x62 SHL PUSH1 0x40 DUP3 ADD MSTORE PUSH1 0x60 ADD SWAP1 JUMP JUMPDEST DUP4 DUP2 MSTORE PUSH1 0x40 PUSH1 0x20 DUP3 ADD MSTORE DUP2 PUSH1 0x40 DUP3 ADD MSTORE DUP2 DUP4 PUSH1 0x60 DUP4 ADD CALLDATACOPY PUSH0 DUP2 DUP4 ADD PUSH1 0x60 SWAP1 DUP2 ADD SWAP2 SWAP1 SWAP2 MSTORE PUSH1 0x1F SWAP1 SWAP3 ADD PUSH1 0x1F NOT AND ADD ADD SWAP3 SWAP2 POP POP JUMP JUMPDEST PUSH0 PUSH1 0x20 DUP3 DUP5 SUB SLT ISZERO PUSH2 0x4BC JUMPI PUSH0 DUP1 REVERT JUMPDEST DUP2 MLOAD DUP1 ISZERO ISZERO DUP2 EQ PUSH2 0x442 JUMPI PUSH0 DUP1 REVERT INVALID LOG2 PUSH5 0x6970667358 0x22 SLT KECCAK256 SHR EQ CALLVALUE DUP15 DUP15 PUSH29 0xACF0E824CDF1BDA76BC23EF0678B9B594C99274449D37CEBE62E64736F PUSH13 0x63430008150033000000000000 "
				},
				"gasEstimates": {
					"creation": {
						"codeDepositCost": "256200",
						"executionCost": "25684",
						"totalCost": "281884"
					},
					"external": {
						"authority()": "2401",
						"owner()": "2358",
						"setAuthority(address)": "infinite",
						"setOwner(address)": "infinite",
						"start()": "infinite",
						"stop()": "infinite",
						"stopped()": "2360"
					}
				},
				"methodIdentifiers": {
					"authority()": "bf7e214f",
					"owner()": "8da5cb5b",
					"setAuthority(address)": "7a9e5e4b",
					"setOwner(address)": "13af4035",
					"start()": "be9a6555",
					"stop()": "07da68f5",
					"stopped()": "75f12b21"
				}
			},
			"storageLayout": {
				"storage": [
					{
						"astId": 27,
						"contract": "ds-stop/stop.sol:DSStop",
						"label": "authority",
						"offset": 0,
						"slot": "0",
						"type": "t_contract(DSAuthority)13"
					},
					{
						"astId": 29,
						"contract": "ds-stop/stop.sol:DSStop",
						"label": "owner",
						"offset": 0,
						"slot": "1",
						"type": "t_address"
					},
					{
						"astId": 499,
						"contract": "ds-stop/stop.sol:DSStop",
						"label": "stopped",
						"offset": 20,
						"slot": "1",
						"type": "t_bool"
					}
				],
				"types": {
					"t_address": {
						"encoding": "inplace",
						"label": "address",
						"numberOfBytes": "20"
					},
					"t_bool": {
						"encoding": "inplace",
						"label": "bool",
						"numberOfBytes": "1"
					},
					"t_contract(DSAuthority)13": {
						"encoding": "inplace",
						"label": "contract DSAuthority",
						"numberOfBytes": "20"
					}
				}
			},
			"userdoc": {
				"kind": "user",
				"methods": {},
				"version": 1
			}
		}
	}
}