{
	"data": {
		"bytecode": {
			"linkReferences": {},
			"object": "60806040819052600580546c0100000000000000000000000060016001606060020a03199092168217606060020a60c060020a03191617909155805433600160a060020a03199091168117909155907fce241d7ca1f669fee44b6fc00b8eba2df3bb514eed0f6f668f8f89096e81ed9490600090a2610fd4806100836000396000f3006080604052600436106101115763ffffffff7c010000000000000000000000000000000000000000000000000000000060003504166313af403581146101165780631504460f1461013957806318178358146101515780631a43c338146101665780632801617e146101945780632966d1b9146101b55780632db78d93146101d65780634c8fe5261461021457806357de26a41461022957806359e02dd714610250578063651dd0de146102655780636ba5ef0d146102a35780637a9e5e4b146102c45780638da5cb5b146102e5578063ac4c25b2146102fa578063beb38b431461030f578063bf7e214f1461033d578063e0a1fdad14610352578063f2c5925d14610374578063f889794514610396575b600080fd5b34801561012257600080fd5b50610137600160a060020a03600435166103c7565b005b34801561014557600080fd5b50610137600435610435565b34801561015d57600080fd5b506101376104c3565b34801561017257600080fd5b5061017b6104cf565b6040805192835290151560208301528051918290030190f35b3480156101a057600080fd5b50610137600160a060020a03600435166108a3565b3480156101c157600080fd5b50610137600160a060020a036004351661091d565b3480156101e257600080fd5b506101f7600160a060020a036004351661094b565b60408051600160a060020a03199092168252519081900360200190f35b34801561022057600080fd5b506101f7610963565b34801561023557600080fd5b5061023e61096f565b60408051918252519081900360200190f35b34801561025c57600080fd5b5061017b61098f565b34801561027157600080fd5b50610287600160a060020a0319600435166109a4565b60408051600160a060020a039092168252519081900360200190f35b3480156102af57600080fd5b506101376001606060020a03600435166109bf565b3480156102d057600080fd5b50610137600160a060020a0360043516610a83565b3480156102f157600080fd5b50610287610ae8565b34801561030657600080fd5b50610137610af7565b34801561031b57600080fd5b50610137600160a060020a031960043516602435600160a060020a0316610b83565b34801561034957600080fd5b50610287610cfe565b34801561035e57600080fd5b50610137600160a060020a031960043516610d0d565b34801561038057600080fd5b50610137600160a060020a031960043516610d18565b3480156103a257600080fd5b506103ab610dbd565b604080516001606060020a039092168252519081900360200190f35b6103e56103e033600035600160e060020a031916610ddc565b610ee5565b60018054600160a060020a031916600160a060020a0383811691909117918290556040519116907fce241d7ca1f669fee44b6fc00b8eba2df3bb514eed0f6f668f8f89096e81ed9490600090a250565b60408051348082526020820183815236938301849052600435936024359384938693339360008035600160e060020a031916949092606082018484808284376040519201829003965090945050505050a461048e6104cf565b6001805491151560a060020a0274ff000000000000000000000000000000000000000019909216919091179055600255505050565b6104cd6000610435565b565b600080606060008060008060008060008060006001600560009054906101000a900460a060020a0260a060020a9004036001606060020a0316604051908082528060200260200182016040528015610531578160200160208202803883390190505b50995060009850600197505b60055460a060020a908102046001606060020a03908116908916101561078557600160a060020a031960a060020a890216600090815260036020526040902054600160a060020a03161561077a5760a060020a8802600160a060020a0319166000908152600360205260408082205481517f59e02dd70000000000000000000000000000000000000000000000000000000081528251600160a060020a03909216936359e02dd79360048084019491939192918390030190829087803b15801561060657600080fd5b505af115801561061a573d6000803e3d6000fd5b505050506040513d604081101561063057600080fd5b5080516020909101519097509550851561077a576001606060020a038916158061067d57508960018a036001606060020a031681518110151561066f57fe5b602090810290910101518710155b156106a957868a8a6001606060020a031681518110151561069a57fe5b60209081029091010152610773565b600094505b89856001606060020a03168151811015156106c557fe5b6020908102909101015187106106e0576001909401936106ae565b8893505b846001606060020a0316846001606060020a031611156107505789600185036001606060020a031681518110151561071857fe5b906020019060200201518a856001606060020a031681518110151561073957fe5b6020908102909101015260001993909301926106e4565b868a866001606060020a031681518110151561076857fe5b602090810290910101525b6001909801975b60019097019661053d565b6005546001606060020a036c010000000000000000000000009091048116908a1610156107ba5760025460009b509b50610895565b6001891615156108595789600160026001606060020a038c1604036001606060020a03168151811015156107ea57fe5b6020908102909101015191508960026001606060020a038b16046001606060020a031681518110151561081957fe5b6020908102909101015190506108406108328383610ef1565b671bc16d674ec80000610f13565b6fffffffffffffffffffffffffffffffff16925061088d565b8960026001606060020a036000198c0116046001606060020a031681518110151561088057fe5b9060200190602002015192505b8260019b509b505b505050505050505050509091565b60006108be6103e033600035600160e060020a031916610ddc565b5060055460a060020a908102819004600101026108e6600160a060020a031982161515610ee5565b6005546108f99060a060020a0283610b83565b600580546bffffffffffffffffffffffff191660a060020a90920491909117905550565b600160a060020a0381166000908152600460205260408120546109489160a060020a90910290610b83565b50565b60046020526000908152604090205460a060020a0281565b60055460a060020a0281565b600080600061097c61098f565b9150915061098981610ee5565b50919050565b60025460015460ff60a060020a909104169091565b600360205260009081526040902054600160a060020a031681565b60408051348082526020820183815236938301849052600435936024359384938693339360008035600160e060020a031916949092606082018484808284376040519201829003965090945050505050a4610a296103e033600035600160e060020a031916610ddc565b6001606060020a0383161515610a3e57600080fd5b5050600580546001606060020a039092166c010000000000000000000000000277ffffffffffffffffffffffff00000000000000000000000019909216919091179055565b610a9c6103e033600035600160e060020a031916610ddc565b60008054600160a060020a031916600160a060020a03838116919091178083556040519116917f1abebea81bfa2637f28358c371278fb15ede7ea8dd28d2e03b112ff6d936ada491a250565b600154600160a060020a031681565b60408051348082526020820183815236938301849052600435936024359384938693339360008035600160e060020a031916949092606082018484808284376040519201829003965090945050505050a4610b616103e033600035600160e060020a031916610ddc565b50506001805474ff000000000000000000000000000000000000000019169055565b60408051348082526020820183815236938301849052600435936024359384938693339360008035600160e060020a031916949092606082018484808284376040519201829003965090945050505050a4610bed6103e033600035600160e060020a031916610ddc565b600160a060020a031984161515610c0357600080fd5b600160a060020a03831615801590610c425750600160a060020a03831660009081526004602052604090205460a060020a02600160a060020a03191615155b15610c4c57600080fd5b600160a060020a03198416600090815260036020908152604080832054600160a060020a039081168452600490925290912080546bffffffffffffffffffffffff19169055831615610ccc57600160a060020a038316600090815260046020526040902080546bffffffffffffffffffffffff191660a060020a86041790555b5050600160a060020a031991821660009081526003602052604090208054600160a060020a0390921691909216179055565b600054600160a060020a031681565b610948816000610b83565b60408051348082526020820183815236938301849052600435936024359384938693339360008035600160e060020a031916949092606082018484808284376040519201829003965090945050505050a4610d826103e033600035600160e060020a031916610ddc565b600160a060020a031983161515610d9857600080fd5b5050600580546bffffffffffffffffffffffff191660a060020a909204919091179055565b6005546c0100000000000000000000000090046001606060020a031681565b6000600160a060020a038316301415610df757506001610edf565b600154600160a060020a0384811691161415610e1557506001610edf565b600054600160a060020a03161515610e2f57506000610edf565b60008054604080517fb7009613000000000000000000000000000000000000000000000000000000008152600160a060020a038781166004830152306024830152600160e060020a0319871660448301529151919092169263b700961392606480820193602093909283900390910190829087803b158015610eb057600080fd5b505af1158015610ec4573d6000803e3d6000fd5b505050506040513d6020811015610eda57600080fd5b505190505b92915050565b80151561094857600080fd5b8082016fffffffffffffffffffffffffffffffff8084169082161015610edf57fe5b6000610f806fffffffffffffffffffffffffffffffff8316600281046fffffffffffffffffffffffffffffffff16670de0b6b3a76400006fffffffffffffffffffffffffffffffff16866fffffffffffffffffffffffffffffffff160201811515610f7a57fe5b04610f87565b9392505050565b806fffffffffffffffffffffffffffffffff81168114610fa357fe5b9190505600a165627a7a72305820632d71523431728755d6c05449bf9da521bd062542999703f6061cdb4f41964a0029",
			"opcodes": "PUSH1 0x80 PUSH1 0x40 DUP2 SWAP1 MSTORE PUSH1 0x5 DUP1 SLOAD PUSH13 0x1000000000000000000000000 PUSH1 0x1 PUSH1 0x1 PUSH1 0x60 PUSH1 0x2 EXP SUB NOT SWAP1 SWAP3 AND DUP3 OR PUSH1 0x60 PUSH1 0x2 EXP PUSH1 0xC0 PUSH1 0x2 EXP SUB NOT AND OR SWAP1 SWAP2 SSTORE DUP1 SLOAD CALLER PUSH1 0x1 PUSH1 0xA0 PUSH1 0x2 EXP SUB NOT SWAP1 SWAP2 AND DUP2 OR SWAP1 SWAP2 SSTORE SWAP1 PUSH32 0xCE241D7CA1F669FEE44B6FC00B8EBA2DF3BB514EED0F6F668F8F89096E81ED94 SWAP1 PUSH1 0x0 SWAP1 LOG2 PUSH2 0xFD4 DUP1 PUSH2 0x83 PUSH1 0x0 CODECOPY PUSH1 0x0 RETURN STOP PUSH1 0x80 PUSH1 0x40 MSTORE PUSH1 0x4 CALLDATASIZE LT PUSH2 0x111 JUMPI PUSH4 0xFFFFFFFF PUSH29 0x100000000000000000000000000000000000000000000000000000000 PUSH1 0x0 CALLDATALOAD DIV AND PUSH4 0x13AF4035 DUP2 EQ PUSH2 0x116 JUMPI DUP1 PUSH4 0x1504460F EQ PUSH2 0x139 JUMPI DUP1 PUSH4 0x18178358 EQ PUSH2 0x151 JUMPI DUP1 PUSH4 0x1A43C338 EQ PUSH2 0x166 JUMPI DUP1 PUSH4 0x2801617E EQ PUSH2 0x194 JUMPI DUP1 PUSH4 0x2966D1B9 EQ PUSH2 0x1B5 JUMPI DUP1 PUSH4 0x2DB78D93 EQ PUSH2 0x1D6 JUMPI DUP1 PUSH4 0x4C8FE526 EQ PUSH2 0x214 JUMPI DUP1 PUSH4 0x57DE26A4 EQ PUSH2 0x229 JUMPI DUP1 PUSH4 0x59E02DD7 EQ PUSH2 0x250 JUMPI DUP1 PUSH4 0x651DD0DE EQ PUSH2 0x265 JUMPI DUP1 PUSH4 0x6BA5EF0D EQ PUSH2 0x2A3 JUMPI DUP1 PUSH4 0x7A9E5E4B EQ PUSH2 0x2C4 JUMPI DUP1 PUSH4 0x8DA5CB5B EQ PUSH2 0x2E5 JUMPI DUP1 PUSH4 0xAC4C25B2 EQ PUSH2 0x2FA JUMPI DUP1 PUSH4 0xBEB38B43 EQ PUSH2 0x30F JUMPI DUP1 PUSH4 0xBF7E214F EQ PUSH2 0x33D JUMPI DUP1 PUSH4 0xE0A1FDAD EQ PUSH2 0x352 JUMPI DUP1 PUSH4 0xF2C5925D EQ PUSH2 0x374 JUMPI DUP1 PUSH4 0xF8897945 EQ PUSH2 0x396 JUMPI JUMPDEST PUSH1 0x0 DUP1 REVERT JUMPDEST CALLVALUE DUP1 ISZERO PUSH2 0x122 JUMPI PUSH1 0x0 DUP1 REVERT JUMPDEST POP PUSH2 0x137 PUSH1 0x1 PUSH1 0xA0 PUSH1 0x2 EXP SUB PUSH1 0x4 CALLDATALOAD AND PUSH2 0x3C7 JUMP JUMPDEST STOP JUMPDEST CALLVALUE DUP1 ISZERO PUSH2 0x145 JUMPI PUSH1 0x0 DUP1 REVERT JUMPDEST POP PUSH2 0x137 PUSH1 0x4 CALLDATALOAD PUSH2 0x435 JUMP JUMPDEST CALLVALUE DUP1 ISZERO PUSH2 0x15D JUMPI PUSH1 0x0 DUP1 REVERT JUMPDEST POP PUSH2 0x137 PUSH2 0x4C3 JUMP JUMPDEST CALLVALUE DUP1 ISZERO PUSH2 0x172 JUMPI PUSH1 0x0 DUP1 REVERT JUMPDEST POP PUSH2 0x17B PUSH2 0x4CF JUMP JUMPDEST PUSH1 0x40 DUP1 MLOAD SWAP3 DUP4 MSTORE SWAP1 ISZERO ISZERO PUSH1 0x20 DUP4 ADD MSTORE DUP1 MLOAD SWAP2 DUP3 SWAP1 SUB ADD SWAP1 RETURN JUMPDEST CALLVALUE DUP1 ISZERO PUSH2 0x1A0 JUMPI PUSH1 0x0 DUP1 REVERT JUMPDEST POP PUSH2 0x137 PUSH1 0x1 PUSH1 0xA0 PUSH1 0x2 EXP SUB PUSH1 0x4 CALLDATALOAD AND PUSH2 0x8A3 JUMP JUMPDEST CALLVALUE DUP1 ISZERO PUSH2 0x1C1 JUMPI PUSH1 0x0 DUP1 REVERT JUMPDEST POP PUSH2 0x137 PUSH1 0x1 PUSH1 0xA0 PUSH1 0x2 EXP SUB PUSH1 0x4 CALLDATALOAD AND PUSH2 0x91D JUMP JUMPDEST CALLVALUE DUP1 ISZERO PUSH2 0x1E2 JUMPI PUSH1 0x0 DUP1 REVERT JUMPDEST POP PUSH2 0x1F7 PUSH1 0x1 PUSH1 0xA0 PUSH1 0x2 EXP SUB PUSH1 0x4 CALLDATALOAD AND PUSH2 0x94B JUMP JUMPDEST PUSH1 0x40 DUP1 MLOAD PUSH1 0x1 PUSH1 0xA0 PUSH1 0x2 EXP SUB NOT SWAP1 SWAP3 AND DUP3 MSTORE MLOAD SWAP1 DUP2 SWAP1 SUB PUSH1 0x20 ADD SWAP1 RETURN JUMPDEST CALLVALUE DUP1 ISZERO PUSH2 0x220 JUMPI PUSH1 0x0 DUP1 REVERT JUMPDEST POP PUSH2 0x1F7 PUSH2 0x963 JUMP JUMPDEST CALLVALUE DUP1 ISZERO PUSH2 0x235 JUMPI PUSH1 0x0 DUP1 REVERT JUMPDEST POP PUSH2 0x23E PUSH2 0x96F JUMP JUMPDEST PUSH1 0x40 DUP1 MLOAD SWAP2 DUP3 MSTORE MLOAD SWAP1 DUP2 SWAP1 SUB PUSH1 0x20 ADD SWAP1 RETURN JUMPDEST CALLVALUE DUP1 ISZERO PUSH2 0x25C JUMPI PUSH1 0x0 DUP1 REVERT JUMPDEST POP PUSH2 0x17B PUSH2 0x98F JUMP JUMPDEST CALLVALUE DUP1 ISZERO PUSH2 0x271 JUMPI PUSH1 0x0 DUP1 REVERT JUMPDEST POP PUSH2 0x287 PUSH1 0x1 PUSH1 0xA0 PUSH1 0x2 EXP SUB NOT PUSH1 0x4 CALLDATALOAD AND PUSH2 0x9A4 JUMP JUMPDEST PUSH1 0x40 DUP1 MLOAD PUSH1 0x1 PUSH1 0xA0 PUSH1 0x2 EXP SUB SWAP1 SWAP3 AND DUP3 MSTORE MLOAD SWAP1 DUP2 SWAP1 SUB PUSH1 0x20 ADD SWAP1 RETURN JUMPDEST CALLVALUE DUP1 ISZERO PUSH2 0x2AF JUMPI PUSH1 0x0 DUP1 REVERT JUMPDEST POP PUSH2 0x137 PUSH1 0x1 PUSH1 0x60 PUSH1 0x2 EXP SUB PUSH1 0x4 CALLDATALOAD AND PUSH2 0x9BF JUMP JUMPDEST CALLVALUE DUP1 ISZERO PUSH2 0x2D0 JUMPI PUSH1 0x0 DUP1 REVERT JUMPDEST POP PUSH2 0x137 PUSH1 0x1 PUSH1 0xA0 PUSH1 0x2 EXP SUB PUSH1 0x4 CALLDATALOAD AND PUSH2 0xA83 JUMP JUMPDEST CALLVALUE DUP1 ISZERO PUSH2 0x2F1 JUMPI PUSH1 0x0 DUP1 REVERT JUMPDEST POP PUSH2 0x287 PUSH2 0xAE8 JUMP JUMPDEST CALLVALUE DUP1 ISZERO PUSH2 0x306 JUMPI PUSH1 0x0 DUP1 REVERT JUMPDEST POP PUSH2 0x137 PUSH2 0xAF7 JUMP JUMPDEST CALLVALUE DUP1 ISZERO PUSH2 0x31B JUMPI PUSH1 0x0 DUP1 REVERT JUMPDEST POP PUSH2 0x137 PUSH1 0x1 PUSH1 0xA0 PUSH1 0x2 EXP SUB NOT PUSH1 0x4 CALLDATALOAD AND PUSH1 0x24 CALLDATALOAD PUSH1 0x1 PUSH1 0xA0 PUSH1 0x2 EXP SUB AND PUSH2 0xB83 JUMP JUMPDEST CALLVALUE DUP1 ISZERO PUSH2 0x349 JUMPI PUSH1 0x0 DUP1 REVERT JUMPDEST POP PUSH2 0x287 PUSH2 0xCFE JUMP JUMPDEST CALLVALUE DUP1 ISZERO PUSH2 0x35E JUMPI PUSH1 0x0 DUP1 REVERT JUMPDEST POP PUSH2 0x137 PUSH1 0x1 PUSH1 0xA0 PUSH1 0x2 EXP SUB NOT PUSH1 0x4 CALLDATALOAD AND PUSH2 0xD0D JUMP JUMPDEST CALLVALUE DUP1 ISZERO PUSH2 0x380 JUMPI PUSH1 0x0 DUP1 REVERT JUMPDEST POP PUSH2 0x137 PUSH1 0x1 PUSH1 0xA0 PUSH1 0x2 EXP SUB NOT PUSH1 0x4 CALLDATALOAD AND PUSH2 0xD18 JUMP JUMPDEST CALLVALUE DUP1 ISZERO PUSH2 0x3A2 JUMPI PUSH1 0x0 DUP1 REVERT JUMPDEST POP PUSH2 0x3AB PUSH2 0xDBD JUMP JUMPDEST PUSH1 0x40 DUP1 MLOAD PUSH1 0x1 PUSH1 0x60 PUSH1 0x2 EXP SUB SWAP1 SWAP3 AND DUP3 MSTORE MLOAD SWAP1 DUP2 SWAP1 SUB PUSH1 0x20 ADD SWAP1 RETURN JUMPDEST PUSH2 0x3E5 PUSH2 0x3E0 CALLER PUSH1 0x0 CALLDATALOAD PUSH1 0x1 PUSH1 0xE0 PUSH1 0x2 EXP SUB NOT AND PUSH2 0xDDC JUMP JUMPDEST PUSH2 0xEE5 JUMP JUMPDEST PUSH1 0x1 DUP1 SLOAD PUSH1 0x1 PUSH1 0xA0 PUSH1 0x2 EXP SUB NOT AND PUSH1 0x1 PUSH1 0xA0 PUSH1 0x2 EXP SUB DUP4 DUP2 AND SWAP2 SWAP1 SWAP2 OR SWAP2 DUP3 SWAP1 SSTORE PUSH1 0x40 MLOAD SWAP2 AND SWAP1 PUSH32 0xCE241D7CA1F669FEE44B6FC00B8EBA2DF3BB514EED0F6F668F8F89096E81ED94 SWAP1 PUSH1 0x0 SWAP1 LOG2 POP JUMP JUMPDEST PUSH1 0x40 DUP1 MLOAD CALLVALUE DUP1 DUP3 MSTORE PUSH1 0x20 DUP3 ADD DUP4 DUP2 MSTORE CALLDATASIZE SWAP4 DUP4 ADD DUP5 SWAP1 MSTORE PUSH1 0x4 CALLDATALOAD SWAP4 PUSH1 0x24 CALLDATALOAD SWAP4 DUP5 SWAP4 DUP7 SWAP4 CALLER SWAP4 PUSH1 0x0 DUP1 CALLDATALOAD PUSH1 0x1 PUSH1 0xE0 PUSH1 0x2 EXP SUB NOT AND SWAP5 SWAP1 SWAP3 PUSH1 0x60 DUP3 ADD DUP5 DUP5 DUP1 DUP3 DUP5 CALLDATACOPY PUSH1 0x40 MLOAD SWAP3 ADD DUP3 SWAP1 SUB SWAP7 POP SWAP1 SWAP5 POP POP POP POP POP LOG4 PUSH2 0x48E PUSH2 0x4CF JUMP JUMPDEST PUSH1 0x1 DUP1 SLOAD SWAP2 ISZERO ISZERO PUSH1 0xA0 PUSH1 0x2 EXP MUL PUSH21 0xFF0000000000000000000000000000000000000000 NOT SWAP1 SWAP3 AND SWAP2 SWAP1 SWAP2 OR SWAP1 SSTORE PUSH1 0x2 SSTORE POP POP POP JUMP JUMPDEST PUSH2 0x4CD PUSH1 0x0 PUSH2 0x435 JUMP JUMPDEST JUMP JUMPDEST PUSH1 0x0 DUP1 PUSH1 0x60 PUSH1 0x0 DUP1 PUSH1 0x0 DUP1 PUSH1 0x0 DUP1 PUSH1 0x0 DUP1 PUSH1 0x0 PUSH1 0x1 PUSH1 0x5 PUSH1 0x0 SWAP1 SLOAD SWAP1 PUSH2 0x100 EXP SWAP1 DIV PUSH1 0xA0 PUSH1 0x2 EXP MUL PUSH1 0xA0 PUSH1 0x2 EXP SWAP1 DIV SUB PUSH1 0x1 PUSH1 0x60 PUSH1 0x2 EXP SUB AND PUSH1 0x40 MLOAD SWAP1 DUP1 DUP3 MSTORE DUP1 PUSH1 0x20 MUL PUSH1 0x20 ADD DUP3 ADD PUSH1 0x40 MSTORE DUP1 ISZERO PUSH2 0x531 JUMPI DUP2 PUSH1 0x20 ADD PUSH1 0x20 DUP3 MUL DUP1 CODESIZE DUP4 CODECOPY ADD SWAP1 POP JUMPDEST POP SWAP10 POP PUSH1 0x0 SWAP9 POP PUSH1 0x1 SWAP8 POP JUMPDEST PUSH1 0x5 SLOAD PUSH1 0xA0 PUSH1 0x2 EXP SWAP1 DUP2 MUL DIV PUSH1 0x1 PUSH1 0x60 PUSH1 0x2 EXP SUB SWAP1 DUP2 AND SWAP1 DUP10 AND LT ISZERO PUSH2 0x785 JUMPI PUSH1 0x1 PUSH1 0xA0 PUSH1 0x2 EXP SUB NOT PUSH1 0xA0 PUSH1 0x2 EXP DUP10 MUL AND PUSH1 0x0 SWAP1 DUP2 MSTORE PUSH1 0x3 PUSH1 0x20 MSTORE PUSH1 0x40 SWAP1 KECCAK256 SLOAD PUSH1 0x1 PUSH1 0xA0 PUSH1 0x2 EXP SUB AND ISZERO PUSH2 0x77A JUMPI PUSH1 0xA0 PUSH1 0x2 EXP DUP9 MUL PUSH1 0x1 PUSH1 0xA0 PUSH1 0x2 EXP SUB NOT AND PUSH1 0x0 SWAP1 DUP2 MSTORE PUSH1 0x3 PUSH1 0x20 MSTORE PUSH1 0x40 DUP1 DUP3 KECCAK256 SLOAD DUP2 MLOAD PUSH32 0x59E02DD700000000000000000000000000000000000000000000000000000000 DUP2 MSTORE DUP3 MLOAD PUSH1 0x1 PUSH1 0xA0 PUSH1 0x2 EXP SUB SWAP1 SWAP3 AND SWAP4 PUSH4 0x59E02DD7 SWAP4 PUSH1 0x4 DUP1 DUP5 ADD SWAP5 SWAP2 SWAP4 SWAP2 SWAP3 SWAP2 DUP4 SWAP1 SUB ADD SWAP1 DUP3 SWAP1 DUP8 DUP1 EXTCODESIZE ISZERO DUP1 ISZERO PUSH2 0x606 JUMPI PUSH1 0x0 DUP1 REVERT JUMPDEST POP GAS CALL ISZERO DUP1 ISZERO PUSH2 0x61A JUMPI RETURNDATASIZE PUSH1 0x0 DUP1 RETURNDATACOPY RETURNDATASIZE PUSH1 0x0 REVERT JUMPDEST POP POP POP POP PUSH1 0x40 MLOAD RETURNDATASIZE PUSH1 0x40 DUP2 LT ISZERO PUSH2 0x630 JUMPI PUSH1 0x0 DUP1 REVERT JUMPDEST POP DUP1 MLOAD PUSH1 0x20 SWAP1 SWAP2 ADD MLOAD SWAP1 SWAP8 POP SWAP6 POP DUP6 ISZERO PUSH2 0x77A JUMPI PUSH1 0x1 PUSH1 0x60 PUSH1 0x2 EXP SUB DUP10 AND ISZERO DUP1 PUSH2 0x67D JUMPI POP DUP10 PUSH1 0x1 DUP11 SUB PUSH1 0x1 PUSH1 0x60 PUSH1 0x2 EXP SUB AND DUP2 MLOAD DUP2 LT ISZERO ISZERO PUSH2 0x66F JUMPI INVALID JUMPDEST PUSH1 0x20 SWAP1 DUP2 MUL SWAP1 SWAP2 ADD ADD MLOAD DUP8 LT ISZERO JUMPDEST ISZERO PUSH2 0x6A9 JUMPI DUP7 DUP11 DUP11 PUSH1 0x1 PUSH1 0x60 PUSH1 0x2 EXP SUB AND DUP2 MLOAD DUP2 LT ISZERO ISZERO PUSH2 0x69A JUMPI INVALID JUMPDEST PUSH1 0x20 SWAP1 DUP2 MUL SWAP1 SWAP2 ADD ADD MSTORE PUSH2 0x773 JUMP JUMPDEST PUSH1 0x0 SWAP5 POP JUMPDEST DUP10 DUP6 PUSH1 0x1 PUSH1 0x60 PUSH1 0x2 EXP SUB AND DUP2 MLOAD DUP2 LT ISZERO ISZERO PUSH2 0x6C5 JUMPI INVALID JUMPDEST PUSH1 0x20 SWAP1 DUP2 MUL SWAP1 SWAP2 ADD ADD MLOAD DUP8 LT PUSH2 0x6E0 JUMPI PUSH1 0x1 SWAP1 SWAP5 ADD SWAP4 PUSH2 0x6AE JUMP JUMPDEST DUP9 SWAP4 POP JUMPDEST DUP5 PUSH1 0x1 PUSH1 0x60 PUSH1 0x2 EXP SUB AND DUP5 PUSH1 0x1 PUSH1 0x60 PUSH1 0x2 EXP SUB AND GT ISZERO PUSH2 0x750 JUMPI DUP10 PUSH1 0x1 DUP6 SUB PUSH1 0x1 PUSH1 0x60 PUSH1 0x2 EXP SUB AND DUP2 MLOAD DUP2 LT ISZERO ISZERO PUSH2 0x718 JUMPI INVALID JUMPDEST SWAP1 PUSH1 0x20 ADD SWAP1 PUSH1 0x20 MUL ADD MLOAD DUP11 DUP6 PUSH1 0x1 PUSH1 0x60 PUSH1 0x2 EXP SUB AND DUP2 MLOAD DUP2 LT ISZERO ISZERO PUSH2 0x739 JUMPI INVALID JUMPDEST PUSH1 0x20 SWAP1 DUP2 MUL SWAP1 SWAP2 ADD ADD MSTORE PUSH1 0x0 NOT SWAP4 SWAP1 SWAP4 ADD SWAP3 PUSH2 0x6E4 JUMP JUMPDEST DUP7 DUP11 DUP7 PUSH1 0x1 PUSH1 0x60 PUSH1 0x2 EXP SUB AND DUP2 MLOAD DUP2 LT ISZERO ISZERO PUSH2 0x768 JUMPI INVALID JUMPDEST PUSH1 0x20 SWAP1 DUP2 MUL SWAP1 SWAP2 ADD ADD MSTORE JUMPDEST PUSH1 0x1 SWAP1 SWAP9 ADD SWAP8 JUMPDEST PUSH1 0x1 SWAP1 SWAP8 ADD SWAP7 PUSH2 0x53D JUMP JUMPDEST PUSH1 0x5 SLOAD PUSH1 0x1 PUSH1 0x60 PUSH1 0x2 EXP SUB PUSH13 0x1000000000000000000000000 SWAP1 SWAP2 DIV DUP2 AND SWAP1 DUP11 AND LT ISZERO PUSH2 0x7BA JUMPI PUSH1 0x2 SLOAD PUSH1 0x0 SWAP12 POP SWAP12 POP PUSH2 0x895 JUMP JUMPDEST PUSH1 0x1 DUP10 AND ISZERO ISZERO PUSH2 0x859 JUMPI DUP10 PUSH1 0x1 PUSH1 0x2 PUSH1 0x1 PUSH1 0x60 PUSH1 0x2 EXP SUB DUP13 AND DIV SUB PUSH1 0x1 PUSH1 0x60 PUSH1 0x2 EXP SUB AND DUP2 MLOAD DUP2 LT ISZERO ISZERO PUSH2 0x7EA JUMPI INVALID JUMPDEST PUSH1 0x20 SWAP1 DUP2 MUL SWAP1 SWAP2 ADD ADD MLOAD SWAP2 POP DUP10 PUSH1 0x2 PUSH1 0x1 PUSH1 0x60 PUSH1 0x2 EXP SUB DUP12 AND DIV PUSH1 0x1 PUSH1 0x60 PUSH1 0x2 EXP SUB AND DUP2 MLOAD DUP2 LT ISZERO ISZERO PUSH2 0x819 JUMPI INVALID JUMPDEST PUSH1 0x20 SWAP1 DUP2 MUL SWAP1 SWAP2 ADD ADD MLOAD SWAP1 POP PUSH2 0x840 PUSH2 0x832 DUP4 DUP4 PUSH2 0xEF1 JUMP JUMPDEST PUSH8 0x1BC16D674EC80000 PUSH2 0xF13 JUMP JUMPDEST PUSH16 0xFFFFFFFFFFFFFFFFFFFFFFFFFFFFFFFF AND SWAP3 POP PUSH2 0x88D JUMP JUMPDEST DUP10 PUSH1 0x2 PUSH1 0x1 PUSH1 0x60 PUSH1 0x2 EXP SUB PUSH1 0x0 NOT DUP13 ADD AND DIV PUSH1 0x1 PUSH1 0x60 PUSH1 0x2 EXP SUB AND DUP2 MLOAD DUP2 LT ISZERO ISZERO PUSH2 0x880 JUMPI INVALID JUMPDEST SWAP1 PUSH1 0x20 ADD SWAP1 PUSH1 0x20 MUL ADD MLOAD SWAP3 POP JUMPDEST DUP3 PUSH1 0x1 SWAP12 POP SWAP12 POP JUMPDEST POP POP POP POP POP POP POP POP POP POP SWAP1 SWAP2 JUMP JUMPDEST PUSH1 0x0 PUSH2 0x8BE PUSH2 0x3E0 CALLER PUSH1 0x0 CALLDATALOAD PUSH1 0x1 PUSH1 0xE0 PUSH1 0x2 EXP SUB NOT AND PUSH2 0xDDC JUMP JUMPDEST POP PUSH1 0x5 SLOAD PUSH1 0xA0 PUSH1 0x2 EXP SWAP1 DUP2 MUL DUP2 SWAP1 DIV PUSH1 0x1 ADD MUL PUSH2 0x8E6 PUSH1 0x1 PUSH1 0xA0 PUSH1 0x2 EXP SUB NOT DUP3 AND ISZERO ISZERO PUSH2 0xEE5 JUMP JUMPDEST PUSH1 0x5 SLOAD PUSH2 0x8F9 SWAP1 PUSH1 0xA0 PUSH1 0x2 EXP MUL DUP4 PUSH2 0xB83 JUMP JUMPDEST PUSH1 0x5 DUP1 SLOAD PUSH12 0xFFFFFFFFFFFFFFFFFFFFFFFF NOT AND PUSH1 0xA0 PUSH1 0x2 EXP SWAP1 SWAP3 DIV SWAP2 SWAP1 SWAP2 OR SWAP1 SSTORE POP JUMP JUMPDEST PUSH1 0x1 PUSH1 0xA0 PUSH1 0x2 EXP SUB DUP2 AND PUSH1 0x0 SWAP1 DUP2 MSTORE PUSH1 0x4 PUSH1 0x20 MSTORE PUSH1 0x40 DUP2 KECCAK256 SLOAD PUSH2 0x948 SWAP2 PUSH1 0xA0 PUSH1 0x2 EXP SWAP1 SWAP2 MUL SWAP1 PUSH2 0xB83 JUMP JUMPDEST POP JUMP JUMPDEST PUSH1 0x4 PUSH1 0x20 MSTORE PUSH1 0x0 SWAP1 DUP2 MSTORE PUSH1 0x40 SWAP1 KECCAK256 SLOAD PUSH1 0xA0 PUSH1 0x2 EXP MUL DUP2 JUMP JUMPDEST PUSH1 0x5 SLOAD PUSH1 0xA0 PUSH1 0x2 EXP MUL DUP2 JUMP JUMPDEST PUSH1 0x0 DUP1 PUSH1 0x0 PUSH2 0x97C PUSH2 0x98F JUMP JUMPDEST SWAP2 POP SWAP2 POP PUSH2 0x989 DUP2 PUSH2 0xEE5 JUMP JUMPDEST POP SWAP2 SWAP1 POP JUMP JUMPDEST PUSH1 0x2 SLOAD PUSH1 0x1 SLOAD PUSH1 0xFF PUSH1 0xA0 PUSH1 0x2 EXP SWAP1 SWAP2 DIV AND SWAP1 SWAP2 JUMP JUMPDEST PUSH1 0x3 PUSH1 0x20 MSTORE PUSH1 0x0 SWAP1 DUP2 MSTORE PUSH1 0x40 SWAP1 KECCAK256 SLOAD PUSH1 0x1 PUSH1 0xA0 PUSH1 0x2 EXP SUB AND DUP2 JUMP JUMPDEST PUSH1 0x40 DUP1 MLOAD CALLVALUE DUP1 DUP3 MSTORE PUSH1 0x20 DUP3 ADD DUP4 DUP2 MSTORE CALLDATASIZE SWAP4 DUP4 ADD DUP5 SWAP1 MSTORE PUSH1 0x4 CALLDATALOAD SWAP4 PUSH1 0x24 CALLDATALOAD SWAP4 DUP5 SWAP4 DUP7 SWAP4 CALLER SWAP4 PUSH1 0x0 DUP1 CALLDATALOAD PUSH1 0x1 PUSH1 0xE0 PUSH1 0x2 EXP SUB NOT AND SWAP5 SWAP1 SWAP3 PUSH1 0x60 DUP3 ADD DUP5 DUP5 DUP1 DUP3 DUP5 CALLDATACOPY PUSH1 0x40 MLOAD SWAP3 ADD DUP3 SWAP1 SUB SWAP7 POP SWAP1 SWAP5 POP POP POP POP POP LOG4 PUSH2 0xA29 PUSH2 0x3E0 CALLER PUSH1 0x0 CALLDATALOAD PUSH1 0x1 PUSH1 0xE0 PUSH1 0x2 EXP SUB NOT AND PUSH2 0xDDC JUMP JUMPDEST PUSH1 0x1 PUSH1 0x60 PUSH1 0x2 EXP SUB DUP4 AND ISZERO ISZERO PUSH2 0xA3E JUMPI PUSH1 0x0 DUP1 REVERT JUMPDEST POP POP PUSH1 0x5 DUP1 SLOAD PUSH1 0x1 PUSH1 0x60 PUSH1 0x2 EXP SUB SWAP1 SWAP3 AND PUSH13 0x1000000000000000000000000 MUL PUSH24 0xFFFFFFFFFFFFFFFFFFFFFFFF000000000000000000000000 NOT SWAP1 SWAP3 AND SWAP2 SWAP1 SWAP2 OR SWAP1 SSTORE JUMP JUMPDEST PUSH2 0xA9C PUSH2 0x3E0 CALLER PUSH1 0x0 CALLDATALOAD PUSH1 0x1 PUSH1 0xE0 PUSH1 0x2 EXP SUB NOT AND PUSH2 0xDDC JUMP JUMPDEST PUSH1 0x0 DUP1 SLOAD PUSH1 0x1 PUSH1 0xA0 PUSH1 0x2 EXP SUB NOT AND PUSH1 0x1 PUSH1 0xA0 PUSH1 0x2 EXP SUB DUP4 DUP2 AND SWAP2 SWAP1 SWAP2 OR DUP1 DUP4 SSTORE PUSH1 0x40 MLOAD SWAP2 AND SWAP2 PUSH32 0x1ABEBEA81BFA2637F28358C371278FB15EDE7EA8DD28D2E03B112FF6D936ADA4 SWAP2 LOG2 POP JUMP JUMPDEST PUSH1 0x1 SLOAD PUSH1 0x1 PUSH1 0xA0 PUSH1 0x2 EXP SUB AND DUP2 JUMP JUMPDEST PUSH1 0x40 DUP1 MLOAD CALLVALUE DUP1 DUP3 MSTORE PUSH1 0x20 DUP3 ADD DUP4 DUP2 MSTORE CALLDATASIZE SWAP4 DUP4 ADD DUP5 SWAP1 MSTORE PUSH1 0x4 CALLDATALOAD SWAP4 PUSH1 0x24 CALLDATALOAD SWAP4 DUP5 SWAP4 DUP7 SWAP4 CALLER SWAP4 PUSH1 0x0 DUP1 CALLDATALOAD PUSH1 0x1 PUSH1 0xE0 PUSH1 0x2 EXP SUB NOT AND SWAP5 SWAP1 SWAP3 PUSH1 0x60 DUP3 ADD DUP5 DUP5 DUP1 DUP3 DUP5 CALLDATACOPY PUSH1 0x40 MLOAD SWAP3 ADD DUP3 SWAP1 SUB SWAP7 POP SWAP1 SWAP5 POP POP POP POP POP LOG4 PUSH2 0xB61 PUSH2 0x3E0 CALLER PUSH1 0x0 CALLDATALOAD PUSH1 0x1 PUSH1 0xE0 PUSH1 0x2 EXP SUB NOT AND PUSH2 0xDDC JUMP JUMPDEST POP POP PUSH1 0x1 DUP1 SLOAD PUSH21 0xFF0000000000000000000000000000000000000000 NOT AND SWAP1 SSTORE JUMP JUMPDEST PUSH1 0x40 DUP1 MLOAD CALLVALUE DUP1 DUP3 MSTORE PUSH1 0x20 DUP3 ADD DUP4 DUP2 MSTORE CALLDATASIZE SWAP4 DUP4 ADD DUP5 SWAP1 MSTORE PUSH1 0x4 CALLDATALOAD SWAP4 PUSH1 0x24 CALLDATALOAD SWAP4 DUP5 SWAP4 DUP7 SWAP4 CALLER SWAP4 PUSH1 0x0 DUP1 CALLDATALOAD PUSH1 0x1 PUSH1 0xE0 PUSH1 0x2 EXP SUB NOT AND SWAP5 SWAP1 SWAP3 PUSH1 0x60 DUP3 ADD DUP5 DUP5 DUP1 DUP3 DUP5 CALLDATACOPY PUSH1 0x40 MLOAD SWAP3 ADD DUP3 SWAP1 SUB SWAP7 POP SWAP1 SWAP5 POP POP POP POP POP LOG4 PUSH2 0xBED PUSH2 0x3E0 CALLER PUSH1 0x0 CALLDATALOAD PUSH1 0x1 PUSH1 0xE0 PUSH1 0x2 EXP SUB NOT AND PUSH2 0xDDC JUMP JUMPDEST PUSH1 0x1 PUSH1 0xA0 PUSH1 0x2 EXP SUB NOT DUP5 AND ISZERO ISZERO PUSH2 0xC03 JUMPI PUSH1 0x0 DUP1 REVERT JUMPDEST PUSH1 0x1 PUSH1 0xA0 PUSH1 0x2 EXP SUB DUP4 AND ISZERO DUP1 ISZERO SWAP1 PUSH2 0xC42 JUMPI POP PUSH1 0x1 PUSH1 0xA0 PUSH1 0x2 EXP SUB DUP4 AND PUSH1 0x0 SWAP1 DUP2 MSTORE PUSH1 0x4 PUSH1 0x20 MSTORE PUSH1 0x40 SWAP1 KECCAK256 SLOAD PUSH1 0xA0 PUSH1 0x2 EXP MUL PUSH1 0x1 PUSH1 0xA0 PUSH1 0x2 EXP SUB NOT AND ISZERO ISZERO JUMPDEST ISZERO PUSH2 0xC4C JUMPI PUSH1 0x0 DUP1 REVERT JUMPDEST PUSH1 0x1 PUSH1 0xA0 PUSH1 0x2 EXP SUB NOT DUP5 AND PUSH1 0x0 SWAP1 DUP2 MSTORE PUSH1 0x3 PUSH1 0x20 SWAP1 DUP2 MSTORE PUSH1 0x40 DUP1 DUP4 KECCAK256 SLOAD PUSH1 0x1 PUSH1 0xA0 PUSH1 0x2 EXP SUB SWAP1 DUP2 AND DUP5 MSTORE PUSH1 0x4 SWAP1 SWAP3 MSTORE SWAP1 SWAP2 KECCAK256 DUP1 SLOAD PUSH12 0xFFFFFFFFFFFFFFFFFFFFFFFF NOT AND SWAP1 SSTORE DUP4 AND ISZERO PUSH2 0xCCC JUMPI PUSH1 0x1 PUSH1 0xA0 PUSH1 0x2 EXP SUB DUP4 AND PUSH1 0x0 SWAP1 DUP2 MSTORE PUSH1 0x4 PUSH1 0x20 MSTORE PUSH1 0x40 SWAP1 KECCAK256 DUP1 SLOAD PUSH12 0xFFFFFFFFFFFFFFFFFFFFFFFF NOT AND PUSH1 0xA0 PUSH1 0x2 EXP DUP7 DIV OR SWAP1 SSTORE JUMPDEST POP POP PUSH1 0x1 PUSH1 0xA0 PUSH1 0x2 EXP SUB NOT SWAP2 DUP3 AND PUSH1 0x0 SWAP1 DUP2 MSTORE PUSH1 0x3 PUSH1 0x20 MSTORE PUSH1 0x40 SWAP1 KECCAK256 DUP1 SLOAD PUSH1 0x1 PUSH1 0xA0 PUSH1 0x2 EXP SUB SWAP1 SWAP3 AND SWAP2 SWAP1 SWAP3 AND OR SWAP1 SSTORE JUMP JUMPDEST PUSH1 0x0 SLOAD PUSH1 0x1 PUSH1 0xA0 PUSH1 0x2 EXP SUB AND DUP2 JUMP JUMPDEST PUSH2 0x948 DUP2 PUSH1 0x0 PUSH2 0xB83 JUMP JUMPDEST PUSH1 0x40 DUP1 MLOAD CALLVALUE DUP1 DUP3 MSTORE PUSH1 0x20 DUP3 ADD DUP4 DUP2 MSTORE CALLDATASIZE SWAP4 DUP4 ADD DUP5 SWAP1 MSTORE PUSH1 0x4 CALLDATALOAD SWAP4 PUSH1 0x24 CALLDATALOAD SWAP4 DUP5 SWAP4 DUP7 SWAP4 CALLER SWAP4 PUSH1 0x0 DUP1 CALLDATALOAD PUSH1 0x1 PUSH1 0xE0 PUSH1 0x2 EXP SUB NOT AND SWAP5 SWAP1 SWAP3 PUSH1 0x60 DUP3 ADD DUP5 DUP5 DUP1 DUP3 DUP5 CALLDATACOPY PUSH1 0x40 MLOAD SWAP3 ADD DUP3 SWAP1 SUB SWAP7 POP SWAP1 SWAP5 POP POP POP POP POP LOG4 PUSH2 0xD82 PUSH2 0x3E0 CALLER PUSH1 0x0 CALLDATALOAD PUSH1 0x1 PUSH1 0xE0 PUSH1 0x2 EXP SUB NOT AND PUSH2 0xDDC JUMP JUMPDEST PUSH1 0x1 PUSH1 0xA0 PUSH1 0x2 EXP SUB NOT DUP4 AND ISZERO ISZERO PUSH2 0xD98 JUMPI PUSH1 0x0 DUP1 REVERT JUMPDEST POP POP PUSH1 0x5 DUP1 SLOAD PUSH12 0xFFFFFFFFFFFFFFFFFFFFFFFF NOT AND PUSH1 0xA0 PUSH1 0x2 EXP SWAP1 SWAP3 DIV SWAP2 SWAP1 SWAP2 OR SWAP1 SSTORE JUMP JUMPDEST PUSH1 0x5 SLOAD PUSH13 0x1000000000000000000000000 SWAP1 DIV PUSH1 0x1 PUSH1 0x60 PUSH1 0x2 EXP SUB AND DUP2 JUMP JUMPDEST PUSH1 0x0 PUSH1 0x1 PUSH1 0xA0 PUSH1 0x2 EXP SUB DUP4 AND ADDRESS EQ ISZERO PUSH2 0xDF7 JUMPI POP PUSH1 0x1 PUSH2 0xEDF JUMP JUMPDEST PUSH1 0x1 SLOAD PUSH1 0x1 PUSH1 0xA0 PUSH1 0x2 EXP SUB DUP5 DUP2 AND SWAP2 AND EQ ISZERO PUSH2 0xE15 JUMPI POP PUSH1 0x1 PUSH2 0xEDF JUMP JUMPDEST PUSH1 0x0 SLOAD PUSH1 0x1 PUSH1 0xA0 PUSH1 0x2 EXP SUB AND ISZERO ISZERO PUSH2 0xE2F JUMPI POP PUSH1 0x0 PUSH2 0xEDF JUMP JUMPDEST PUSH1 0x0 DUP1 SLOAD PUSH1 0x40 DUP1 MLOAD PUSH32 0xB700961300000000000000000000000000000000000000000000000000000000 DUP2 MSTORE PUSH1 0x1 PUSH1 0xA0 PUSH1 0x2 EXP SUB DUP8 DUP2 AND PUSH1 0x4 DUP4 ADD MSTORE ADDRESS PUSH1 0x24 DUP4 ADD MSTORE PUSH1 0x1 PUSH1 0xE0 PUSH1 0x2 EXP SUB NOT DUP8 AND PUSH1 0x44 DUP4 ADD MSTORE SWAP2 MLOAD SWAP2 SWAP1 SWAP3 AND SWAP3 PUSH4 0xB7009613 SWAP3 PUSH1 0x64 DUP1 DUP3 ADD SWAP4 PUSH1 0x20 SWAP4 SWAP1 SWAP3 DUP4 SWAP1 SUB SWAP1 SWAP2 ADD SWAP1 DUP3 SWAP1 DUP8 DUP1 EXTCODESIZE ISZERO DUP1 ISZERO PUSH2 0xEB0 JUMPI PUSH1 0x0 DUP1 REVERT JUMPDEST POP GAS CALL ISZERO DUP1 ISZERO PUSH2 0xEC4 JUMPI RETURNDATASIZE PUSH1 0x0 DUP1 RETURNDATACOPY RETURNDATASIZE PUSH1 0x0 REVERT JUMPDEST POP POP POP POP PUSH1 0x40 MLOAD RETURNDATASIZE PUSH1 0x20 DUP2 LT ISZERO PUSH2 0xEDA JUMPI PUSH1 0x0 DUP1 REVERT JUMPDEST POP MLOAD SWAP1 POP JUMPDEST SWAP3 SWAP2 POP POP JUMP JUMPDEST DUP1 ISZERO ISZERO PUSH2 0x948 JUMPI PUSH1 0x0 DUP1 REVERT JUMPDEST DUP1 DUP3 ADD PUSH16 0xFFFFFFFFFFFFFFFFFFFFFFFFFFFFFFFF DUP1 DUP5 AND SWAP1 DUP3 AND LT ISZERO PUSH2 0xEDF JUMPI INVALID JUMPDEST PUSH1 0x0 PUSH2 0xF80 PUSH16 0xFFFFFFFFFFFFFFFFFFFFFFFFFFFFFFFF DUP4 AND PUSH1 0x2 DUP2 DIV PUSH16 0xFFFFFFFFFFFFFFFFFFFFFFFFFFFFFFFF AND PUSH8 0xDE0B6B3A7640000 PUSH16 0xFFFFFFFFFFFFFFFFFFFFFFFFFFFFFFFF AND DUP7 PUSH16 0xFFFFFFFFFFFFFFFFFFFFFFFFFFFFFFFF AND MUL ADD DUP2 ISZERO ISZERO PUSH2 0xF7A JUMPI INVALID JUMPDEST DIV PUSH2 0xF87 JUMP JUMPDEST SWAP4 SWAP3 POP POP POP JUMP JUMPDEST DUP1 PUSH16 0xFFFFFFFFFFFFFFFFFFFFFFFFFFFFFFFF DUP2 AND DUP2 EQ PUSH2 0xFA3 JUMPI INVALID JUMPDEST SWAP2 SWAP1 POP JUMP STOP LOG1 PUSH6 0x627A7A723058 KECCAK256 PUSH4 0x2D715234 BALANCE PUSH19 0x8755D6C05449BF9DA521BD062542999703F606 SHR 0xdb 0x4f COINBASE SWAP7 0x4a STOP 0x29 "
		},
		"gasEstimates": {
			"creation": {
				"codeDepositCost": "810400",
				"executionCost": "42719",
				"totalCost": "853119"
			},
			"external": {
				"authority()": "889",
				"compute()": "infinite",
				"indexes(address)": "815",
				"min()": "966",
				"next()": "690",
				"owner()": "823",
				"peek()": "895",
				"poke()": "infinite",
				"poke(bytes32)": "infinite",
				"read()": "954",
				"set(address)": "infinite",
				"set(bytes12,address)": "infinite",
				"setAuthority(address)": "infinite",
				"setMin(uint96)": "infinite",
				"setNext(bytes12)": "infinite",
				"setOwner(address)": "infinite",
				"unset(address)": "infinite",
				"unset(bytes12)": "infinite",
				"values(bytes12)": "907",
				"void()": "infinite"
			}
		},
		"methodIdentifiers": {
			"authority()": "bf7e214f",
			"compute()": "1a43c338",
			"indexes(address)": "2db78d93",
			"min()": "f8897945",
			"next()": "4c8fe526",
			"owner()": "8da5cb5b",
			"peek()": "59e02dd7",
			"poke()": "18178358",
			"poke(bytes32)": "1504460f",
			"read()": "57de26a4",
			"set(address)": "2801617e",
			"set(bytes12,address)": "beb38b43",
			"setAuthority(address)": "7a9e5e4b",
			"setMin(uint96)": "6ba5ef0d",
			"setNext(bytes12)": "f2c5925d",
			"setOwner(address)": "13af4035",
			"unset(address)": "2966d1b9",
			"unset(bytes12)": "e0a1fdad",
			"values(bytes12)": "651dd0de",
			"void()": "ac4c25b2"
		}
	},
	"abi": [
		{
			"constant": false,
			"inputs": [
				{
					"name": "owner_",
					"type": "address"
				}
			],
			"name": "setOwner",
			"outputs": [],
			"payable": false,
			"stateMutability": "nonpayable",
			"type": "function"
		},
		{
			"constant": false,
			"inputs": [
				{
					"name": "",
					"type": "bytes32"
				}
			],
			"name": "poke",
			"outputs": [],
			"payable": false,
			"stateMutability": "nonpayable",
			"type": "function"
		},
		{
			"constant": false,
			"inputs": [],
			"name": "poke",
			"outputs": [],
			"payable": false,
			"stateMutability": "nonpayable",
			"type": "function"
		},
		{
			"constant": true,
			"inputs": [],
			"name": "compute",
			"outputs": [
				{
					"name": "",
					"type": "bytes32"
				},
				{
					"name": "",
					"type": "bool"
				}
			],
			"payable": false,
			"stateMutability": "view",
			"type": "function"
		},
		{
			"constant": false,
			"inputs": [
				{
					"name": "wat",
					"type": "address"
				}
			],
			"name": "set",
			"outputs": [],
			"payable": false,
			"stateMutability": "nonpayable",
			"type": "function"
		},
		{
			"constant": false,
			"inputs": [
				{
					"name": "wat",
					"type": "address"
				}
			],
			"name": "unset",
			"outputs": [],
			"payable": false,
			"stateMutability": "nonpayable",
			"type": "function"
		},
		{
			"constant": true,
			"inputs": [
				{
					"name": "",
					"type": "address"
				}
			],
			"name": "indexes",
			"outputs": [
				{
					"name": "",
					"type": "bytes12"
				}
			],
			"payable": false,
			"stateMutability": "view",
			"type": "function"
		},
		{
			"constant": true,
			"inputs": [],
			"name": "next",
			"outputs": [
				{
					"name": "",
					"type": "bytes12"
				}
			],
			"payable": false,
			"stateMutability": "view",
			"type": "function"
		},
		{
			"constant": true,
			"inputs": [],
			"name": "read",
			"outputs": [
				{
					"name": "",
					"type": "bytes32"
				}
			],
			"payable": false,
			"stateMutability": "view",
			"type": "function"
		},
		{
			"constant": true,
			"inputs": [],
			"name": "peek",
			"outputs": [
				{
					"name": "",
					"type": "bytes32"
				},
				{
					"name": "",
					"type": "bool"
				}
			],
			"payable": false,
			"stateMutability": "view",
			"type": "function"
		},
		{
			"constant": true,
			"inputs": [
				{
					"name": "",
					"type": "bytes12"
				}
			],
			"name": "values",
			"outputs": [
				{
					"name": "",
					"type": "address"
				}
			],
			"payable": false,
			"stateMutability": "view",
			"type": "function"
		},
		{
			"constant": false,
			"inputs": [
				{
					"name": "min_",
					"type": "uint96"
				}
			],
			"name": "setMin",
			"outputs": [],
			"payable": false,
			"stateMutability": "nonpayable",
			"type": "function"
		},
		{
			"constant": false,
			"inputs": [
				{
					"name": "authority_",
					"type": "address"
				}
			],
			"name": "setAuthority",
			"outputs": [],
			"payable": false,
			"stateMutability": "nonpayable",
			"type": "function"
		},
		{
			"constant": true,
			"inputs": [],
			"name": "owner",
			"outputs": [
				{
					"name": "",
					"type": "address"
				}
			],
			"payable": false,
			"stateMutability": "view",
			"type": "function"
		},
		{
			"constant": false,
			"inputs": [],
			"name": "void",
			"outputs": [],
			"payable": false,
			"stateMutability": "nonpayable",
			"type": "function"
		},
		{
			"constant": false,
			"inputs": [
				{
					"name": "pos",
					"type": "bytes12"
				},
				{
					"name": "wat",
					"type": "address"
				}
			],
			"name": "set",
			"outputs": [],
			"payable": false,
			"stateMutability": "nonpayable",
			"type": "function"
		},
		{
			"constant": true,
			"inputs": [],
			"name": "authority",
			"outputs": [
				{
					"name": "",
					"type": "address"
				}
			],
			"payable": false,
			"stateMutability": "view",
			"type": "function"
		},
		{
			"constant": false,
			"inputs": [
				{
					"name": "pos",
					"type": "bytes12"
				}
			],
			"name": "unset",
			"outputs": [],
			"payable": false,
			"stateMutability": "nonpayable",
			"type": "function"
		},
		{
			"constant": false,
			"inputs": [
				{
					"name": "next_",
					"type": "bytes12"
				}
			],
			"name": "setNext",
			"outputs": [],
			"payable": false,
			"stateMutability": "nonpayable",
			"type": "function"
		},
		{
			"constant": true,
			"inputs": [],
			"name": "min",
			"outputs": [
				{
					"name": "",
					"type": "uint96"
				}
			],
			"payable": false,
			"stateMutability": "view",
			"type": "function"
		},
		{
			"anonymous": true,
			"inputs": [
				{
					"indexed": true,
					"name": "sig",
					"type": "bytes4"
				},
				{
					"indexed": true,
					"name": "guy",
					"type": "address"
				},
				{
					"indexed": true,
					"name": "foo",
					"type": "bytes32"
				},
				{
					"indexed": true,
					"name": "bar",
					"type": "bytes32"
				},
				{
					"indexed": false,
					"name": "wad",
					"type": "uint256"
				},
				{
					"indexed": false,
					"name": "fax",
					"type": "bytes"
				}
			],
			"name": "LogNote",
			"type": "event"
		},
		{
			"anonymous": false,
			"inputs": [
				{
					"indexed": true,
					"name": "authority",
					"type": "address"
				}
			],
			"name": "LogSetAuthority",
			"type": "event"
		},
		{
			"anonymous": false,
			"inputs": [
				{
					"indexed": true,
					"name": "owner",
					"type": "address"
				}
			],
			"name": "LogSetOwner",
			"type": "event"
		}
	]
}