{
	"ds-roles/roles.sol": {
		"DSRoles": {
			"abi": [
				{
					"anonymous": false,
					"inputs": [
						{
							"indexed": true,
							"internalType": "address",
							"name": "authority",
							"type": "address"
						}
					],
					"name": "LogSetAuthority",
					"type": "event"
				},
				{
					"anonymous": false,
					"inputs": [
						{
							"indexed": true,
							"internalType": "address",
							"name": "owner",
							"type": "address"
						}
					],
					"name": "LogSetOwner",
					"type": "event"
				},
				{
					"inputs": [],
					"name": "authority",
					"outputs": [
						{
							"internalType": "contract DSAuthority",
							"name": "",
							"type": "address"
						}
					],
					"stateMutability": "view",
					"type": "function"
				},
				{
					"inputs": [
						{
							"internalType": "address",
							"name": "caller",
							"type": "address"
						},
						{
							"internalType": "address",
							"name": "code",
							"type": "address"
						},
						{
							"internalType": "bytes4",
							"name": "sig",
							"type": "bytes4"
						}
					],
					"name": "canCall",
					"outputs": [
						{
							"internalType": "bool",
							"name": "",
							"type": "bool"
						}
					],
					"stateMutability": "view",
					"type": "function"
				},
				{
					"inputs": [
						{
							"internalType": "address",
							"name": "code",
							"type": "address"
						},
						{
							"internalType": "bytes4",
							"name": "sig",
							"type": "bytes4"
						}
					],
					"name": "getCapabilityRoles",
					"outputs": [
						{
							"internalType": "bytes32",
							"name": "",
							"type": "bytes32"
						}
					],
					"stateMutability": "view",
					"type": "function"
				},
				{
					"inputs": [
						{
							"internalType": "address",
							"name": "who",
							"type": "address"
						}
					],
					"name": "getUserRoles",
					"outputs": [
						{
							"internalType": "bytes32",
							"name": "",
							"type": "bytes32"
						}
					],
					"stateMutability": "view",
					"type": "function"
				},
				{
					"inputs": [
						{
							"internalType": "address",
							"name": "who",
							"type": "address"
						},
						{
							"internalType": "uint8",
							"name": "role",
							"type": "uint8"
						}
					],
					"name": "hasUserRole",
					"outputs": [
						{
							"internalType": "bool",
							"name": "",
							"type": "bool"
						}
					],
					"stateMutability": "view",
					"type": "function"
				},
				{
					"inputs": [
						{
							"internalType": "address",
							"name": "code",
							"type": "address"
						},
						{
							"internalType": "bytes4",
							"name": "sig",
							"type": "bytes4"
						}
					],
					"name": "isCapabilityPublic",
					"outputs": [
						{
							"internalType": "bool",
							"name": "",
							"type": "bool"
						}
					],
					"stateMutability": "view",
					"type": "function"
				},
				{
					"inputs": [
						{
							"internalType": "address",
							"name": "who",
							"type": "address"
						}
					],
					"name": "isUserRoot",
					"outputs": [
						{
							"internalType": "bool",
							"name": "",
							"type": "bool"
						}
					],
					"stateMutability": "view",
					"type": "function"
				},
				{
					"inputs": [],
					"name": "owner",
					"outputs": [
						{
							"internalType": "address",
							"name": "",
							"type": "address"
						}
					],
					"stateMutability": "view",
					"type": "function"
				},
				{
					"inputs": [
						{
							"internalType": "contract DSAuthority",
							"name": "authority_",
							"type": "address"
						}
					],
					"name": "setAuthority",
					"outputs": [],
					"stateMutability": "nonpayable",
					"type": "function"
				},
				{
					"inputs": [
						{
							"internalType": "address",
							"name": "owner_",
							"type": "address"
						}
					],
					"name": "setOwner",
					"outputs": [],
					"stateMutability": "nonpayable",
					"type": "function"
				},
				{
					"inputs": [
						{
							"internalType": "address",
							"name": "code",
							"type": "address"
						},
						{
							"internalType": "bytes4",
							"name": "sig",
							"type": "bytes4"
						},
						{
							"internalType": "bool",
							"name": "enabled",
							"type": "bool"
						}
					],
					"name": "setPublicCapability",
					"outputs": [],
					"stateMutability": "nonpayable",
					"type": "function"
				},
				{
					"inputs": [
						{
							"internalType": "uint8",
							"name": "role",
							"type": "uint8"
						},
						{
							"internalType": "address",
							"name": "code",
							"type": "address"
						},
						{
							"internalType": "bytes4",
							"name": "sig",
							"type": "bytes4"
						},
						{
							"internalType": "bool",
							"name": "enabled",
							"type": "bool"
						}
					],
					"name": "setRoleCapability",
					"outputs": [],
					"stateMutability": "nonpayable",
					"type": "function"
				},
				{
					"inputs": [
						{
							"internalType": "address",
							"name": "who",
							"type": "address"
						},
						{
							"internalType": "bool",
							"name": "enabled",
							"type": "bool"
						}
					],
					"name": "setRootUser",
					"outputs": [],
					"stateMutability": "nonpayable",
					"type": "function"
				},
				{
					"inputs": [
						{
							"internalType": "address",
							"name": "who",
							"type": "address"
						},
						{
							"internalType": "uint8",
							"name": "role",
							"type": "uint8"
						},
						{
							"internalType": "bool",
							"name": "enabled",
							"type": "bool"
						}
					],
					"name": "setUserRole",
					"outputs": [],
					"stateMutability": "nonpayable",
					"type": "function"
				}
			],
			"devdoc": {
				"kind": "dev",
				"methods": {},
				"version": 1
			},
			"evm": {
				"assembly": "    /* \"ds-roles/roles.sol\":822:3566  contract DSRoles is DSAuth, DSAuthority... */\n  mstore(0x40, 0x80)\n  callvalue\n  dup1\n  iszero\n  tag_1\n  jumpi\n  0x00\n  dup1\n  revert\ntag_1:\n  pop\n    /* \"ds-auth/auth.sol\":1092:1102  msg.sender */\n  caller\n    /* \"ds-auth/auth.sol\":1084:1089  owner */\n  0x01\n  0x00\n    /* \"ds-auth/auth.sol\":1084:1102  owner = msg.sender */\n  0x0100\n  exp\n  dup2\n  sload\n  dup2\n  0xffffffffffffffffffffffffffffffffffffffff\n  mul\n  not\n  and\n  swap1\n  dup4\n  0xffffffffffffffffffffffffffffffffffffffff\n  and\n  mul\n  or\n  swap1\n  sstore\n  pop\n    /* \"ds-auth/auth.sol\":1129:1139  msg.sender */\n  caller\n    /* \"ds-auth/auth.sol\":1117:1140  LogSetOwner(msg.sender) */\n  0xffffffffffffffffffffffffffffffffffffffff\n  and\n  0xce241d7ca1f669fee44b6fc00b8eba2df3bb514eed0f6f668f8f89096e81ed94\n  mload(0x40)\n  mload(0x40)\n  dup1\n  swap2\n  sub\n  swap1\n  log2\n    /* \"ds-roles/roles.sol\":822:3566  contract DSRoles is DSAuth, DSAuthority... */\n  dataSize(sub_0)\n  dup1\n  dataOffset(sub_0)\n  0x00\n  codecopy\n  0x00\n  return\nstop\n\nsub_0: assembly {\n        /* \"ds-roles/roles.sol\":822:3566  contract DSRoles is DSAuth, DSAuthority... */\n      mstore(0x40, 0x80)\n      callvalue\n      dup1\n      iszero\n      tag_1\n      jumpi\n      0x00\n      dup1\n      revert\n    tag_1:\n      pop\n      jumpi(tag_2, lt(calldatasize, 0x04))\n      shr(0xe0, calldataload(0x00))\n      dup1\n      0x8da5cb5b\n      gt\n      tag_17\n      jumpi\n      dup1\n      0xbf7e214f\n      gt\n      tag_18\n      jumpi\n      dup1\n      0xbf7e214f\n      eq\n      tag_13\n      jumpi\n      dup1\n      0xc6b0263e\n      eq\n      tag_14\n      jumpi\n      dup1\n      0xd381ba7c\n      eq\n      tag_15\n      jumpi\n      dup1\n      0xfbf80773\n      eq\n      tag_16\n      jumpi\n      jump(tag_2)\n    tag_18:\n      dup1\n      0x8da5cb5b\n      eq\n      tag_10\n      jumpi\n      dup1\n      0xa078f737\n      eq\n      tag_11\n      jumpi\n      dup1\n      0xb7009613\n      eq\n      tag_12\n      jumpi\n      jump(tag_2)\n    tag_17:\n      dup1\n      0x2f47571f\n      gt\n      tag_19\n      jumpi\n      dup1\n      0x2f47571f\n      eq\n      tag_6\n      jumpi\n      dup1\n      0x67aff484\n      eq\n      tag_7\n      jumpi\n      dup1\n      0x7a9e5e4b\n      eq\n      tag_8\n      jumpi\n      dup1\n      0x7d40583d\n      eq\n      tag_9\n      jumpi\n      jump(tag_2)\n    tag_19:\n      dup1\n      0x06a36aee\n      eq\n      tag_3\n      jumpi\n      dup1\n      0x13af4035\n      eq\n      tag_4\n      jumpi\n      dup1\n      0x27538e90\n      eq\n      tag_5\n      jumpi\n    tag_2:\n      0x00\n      dup1\n      revert\n        /* \"ds-roles/roles.sol\":1084:1217  function getUserRoles(address who)... */\n    tag_3:\n      tag_20\n      0x04\n      dup1\n      calldatasize\n      sub\n      dup2\n      add\n      swap1\n      tag_21\n      swap2\n      swap1\n      tag_22\n      jump\t// in\n    tag_21:\n      tag_23\n      jump\t// in\n    tag_20:\n      mload(0x40)\n      tag_24\n      swap2\n      swap1\n      tag_25\n      jump\t// in\n    tag_24:\n      mload(0x40)\n      dup1\n      swap2\n      sub\n      swap1\n      return\n        /* \"ds-auth/auth.sol\":1153:1283  function setOwner(address owner_)... */\n    tag_4:\n      tag_26\n      0x04\n      dup1\n      calldatasize\n      sub\n      dup2\n      add\n      swap1\n      tag_27\n      swap2\n      swap1\n      tag_22\n      jump\t// in\n    tag_27:\n      tag_28\n      jump\t// in\n    tag_26:\n      stop\n        /* \"ds-roles/roles.sol\":1223:1387  function getCapabilityRoles(address code, bytes4 sig)... */\n    tag_5:\n      tag_29\n      0x04\n      dup1\n      calldatasize\n      sub\n      dup2\n      add\n      swap1\n      tag_30\n      swap2\n      swap1\n      tag_31\n      jump\t// in\n    tag_30:\n      tag_32\n      jump\t// in\n    tag_29:\n      mload(0x40)\n      tag_33\n      swap2\n      swap1\n      tag_25\n      jump\t// in\n    tag_33:\n      mload(0x40)\n      dup1\n      swap2\n      sub\n      swap1\n      return\n        /* \"ds-roles/roles.sol\":1527:1691  function isCapabilityPublic(address code, bytes4 sig)... */\n    tag_6:\n      tag_34\n      0x04\n      dup1\n      calldatasize\n      sub\n      dup2\n      add\n      swap1\n      tag_35\n      swap2\n      swap1\n      tag_31\n      jump\t// in\n    tag_35:\n      tag_36\n      jump\t// in\n    tag_34:\n      mload(0x40)\n      tag_37\n      swap2\n      swap1\n      tag_38\n      jump\t// in\n    tag_37:\n      mload(0x40)\n      dup1\n      swap2\n      sub\n      swap1\n      return\n        /* \"ds-roles/roles.sol\":2624:2981  function setUserRole(address who, uint8 role, bool enabled)... */\n    tag_7:\n      tag_39\n      0x04\n      dup1\n      calldatasize\n      sub\n      dup2\n      add\n      swap1\n      tag_40\n      swap2\n      swap1\n      tag_41\n      jump\t// in\n    tag_40:\n      tag_42\n      jump\t// in\n    tag_39:\n      stop\n        /* \"ds-auth/auth.sol\":1289:1456  function setAuthority(DSAuthority authority_)... */\n    tag_8:\n      tag_43\n      0x04\n      dup1\n      calldatasize\n      sub\n      dup2\n      add\n      swap1\n      tag_44\n      swap2\n      swap1\n      tag_45\n      jump\t// in\n    tag_44:\n      tag_46\n      jump\t// in\n    tag_43:\n      stop\n        /* \"ds-roles/roles.sol\":3152:3564  function setRoleCapability(uint8 role, address code, bytes4 sig, bool enabled)... */\n    tag_9:\n      tag_47\n      0x04\n      dup1\n      calldatasize\n      sub\n      dup2\n      add\n      swap1\n      tag_48\n      swap2\n      swap1\n      tag_49\n      jump\t// in\n    tag_48:\n      tag_50\n      jump\t// in\n    tag_47:\n      stop\n        /* \"ds-auth/auth.sol\":1020:1046  address      public  owner */\n    tag_10:\n      tag_51\n      tag_52\n      jump\t// in\n    tag_51:\n      mload(0x40)\n      tag_53\n      swap2\n      swap1\n      tag_54\n      jump\t// in\n    tag_53:\n      mload(0x40)\n      dup1\n      swap2\n      sub\n      swap1\n      return\n        /* \"ds-roles/roles.sol\":1697:1940  function hasUserRole(address who, uint8 role)... */\n    tag_11:\n      tag_55\n      0x04\n      dup1\n      calldatasize\n      sub\n      dup2\n      add\n      swap1\n      tag_56\n      swap2\n      swap1\n      tag_57\n      jump\t// in\n    tag_56:\n      tag_58\n      jump\t// in\n    tag_55:\n      mload(0x40)\n      tag_59\n      swap2\n      swap1\n      tag_38\n      jump\t// in\n    tag_59:\n      mload(0x40)\n      dup1\n      swap2\n      sub\n      swap1\n      return\n        /* \"ds-roles/roles.sol\":1946:2383  function canCall(address caller, address code, bytes4 sig)... */\n    tag_12:\n      tag_60\n      0x04\n      dup1\n      calldatasize\n      sub\n      dup2\n      add\n      swap1\n      tag_61\n      swap2\n      swap1\n      tag_62\n      jump\t// in\n    tag_61:\n      tag_63\n      jump\t// in\n    tag_60:\n      mload(0x40)\n      tag_64\n      swap2\n      swap1\n      tag_38\n      jump\t// in\n    tag_64:\n      mload(0x40)\n      dup1\n      swap2\n      sub\n      swap1\n      return\n        /* \"ds-auth/auth.sol\":984:1014  DSAuthority  public  authority */\n    tag_13:\n      tag_65\n      tag_66\n      jump\t// in\n    tag_65:\n      mload(0x40)\n      tag_67\n      swap2\n      swap1\n      tag_68\n      jump\t// in\n    tag_67:\n      mload(0x40)\n      dup1\n      swap2\n      sub\n      swap1\n      return\n        /* \"ds-roles/roles.sol\":2987:3146  function setPublicCapability(address code, bytes4 sig, bool enabled)... */\n    tag_14:\n      tag_69\n      0x04\n      dup1\n      calldatasize\n      sub\n      dup2\n      add\n      swap1\n      tag_70\n      swap2\n      swap1\n      tag_71\n      jump\t// in\n    tag_70:\n      tag_72\n      jump\t// in\n    tag_69:\n      stop\n        /* \"ds-roles/roles.sol\":2495:2618  function setRootUser(address who, bool enabled)... */\n    tag_15:\n      tag_73\n      0x04\n      dup1\n      calldatasize\n      sub\n      dup2\n      add\n      swap1\n      tag_74\n      swap2\n      swap1\n      tag_75\n      jump\t// in\n    tag_74:\n      tag_76\n      jump\t// in\n    tag_73:\n      stop\n        /* \"ds-roles/roles.sol\":1393:1521  function isUserRoot(address who)... */\n    tag_16:\n      tag_77\n      0x04\n      dup1\n      calldatasize\n      sub\n      dup2\n      add\n      swap1\n      tag_78\n      swap2\n      swap1\n      tag_22\n      jump\t// in\n    tag_78:\n      tag_79\n      jump\t// in\n    tag_77:\n      mload(0x40)\n      tag_80\n      swap2\n      swap1\n      tag_38\n      jump\t// in\n    tag_80:\n      mload(0x40)\n      dup1\n      swap2\n      sub\n      swap1\n      return\n        /* \"ds-roles/roles.sol\":1084:1217  function getUserRoles(address who)... */\n    tag_23:\n        /* \"ds-roles/roles.sol\":1164:1171  bytes32 */\n      0x00\n        /* \"ds-roles/roles.sol\":1194:1205  _user_roles */\n      0x03\n        /* \"ds-roles/roles.sol\":1194:1210  _user_roles[who] */\n      0x00\n        /* \"ds-roles/roles.sol\":1206:1209  who */\n      dup4\n        /* \"ds-roles/roles.sol\":1194:1210  _user_roles[who] */\n      0xffffffffffffffffffffffffffffffffffffffff\n      and\n      0xffffffffffffffffffffffffffffffffffffffff\n      and\n      dup2\n      mstore\n      0x20\n      add\n      swap1\n      dup2\n      mstore\n      0x20\n      add\n      0x00\n      keccak256\n      sload\n        /* \"ds-roles/roles.sol\":1187:1210  return _user_roles[who] */\n      swap1\n      pop\n        /* \"ds-roles/roles.sol\":1084:1217  function getUserRoles(address who)... */\n      swap2\n      swap1\n      pop\n      jump\t// out\n        /* \"ds-auth/auth.sol\":1153:1283  function setOwner(address owner_)... */\n    tag_28:\n        /* \"ds-auth/auth.sol\":1494:1527  isAuthorized(msg.sender, msg.sig) */\n      tag_83\n        /* \"ds-auth/auth.sol\":1507:1517  msg.sender */\n      caller\n        /* \"ds-auth/auth.sol\":1519:1526  msg.sig */\n      and(0xffffffff00000000000000000000000000000000000000000000000000000000, calldataload(0x00))\n        /* \"ds-auth/auth.sol\":1494:1506  isAuthorized */\n      tag_84\n        /* \"ds-auth/auth.sol\":1494:1527  isAuthorized(msg.sender, msg.sig) */\n      jump\t// in\n    tag_83:\n        /* \"ds-auth/auth.sol\":1486:1528  require(isAuthorized(msg.sender, msg.sig)) */\n      tag_85\n      jumpi\n      0x00\n      dup1\n      revert\n    tag_85:\n        /* \"ds-auth/auth.sol\":1237:1243  owner_ */\n      dup1\n        /* \"ds-auth/auth.sol\":1229:1234  owner */\n      0x01\n      0x00\n        /* \"ds-auth/auth.sol\":1229:1243  owner = owner_ */\n      0x0100\n      exp\n      dup2\n      sload\n      dup2\n      0xffffffffffffffffffffffffffffffffffffffff\n      mul\n      not\n      and\n      swap1\n      dup4\n      0xffffffffffffffffffffffffffffffffffffffff\n      and\n      mul\n      or\n      swap1\n      sstore\n      pop\n        /* \"ds-auth/auth.sol\":1270:1275  owner */\n      0x01\n      0x00\n      swap1\n      sload\n      swap1\n      0x0100\n      exp\n      swap1\n      div\n      0xffffffffffffffffffffffffffffffffffffffff\n      and\n        /* \"ds-auth/auth.sol\":1258:1276  LogSetOwner(owner) */\n      0xffffffffffffffffffffffffffffffffffffffff\n      and\n      0xce241d7ca1f669fee44b6fc00b8eba2df3bb514eed0f6f668f8f89096e81ed94\n      mload(0x40)\n      mload(0x40)\n      dup1\n      swap2\n      sub\n      swap1\n      log2\n        /* \"ds-auth/auth.sol\":1153:1283  function setOwner(address owner_)... */\n      pop\n      jump\t// out\n        /* \"ds-roles/roles.sol\":1223:1387  function getCapabilityRoles(address code, bytes4 sig)... */\n    tag_32:\n        /* \"ds-roles/roles.sol\":1322:1329  bytes32 */\n      0x00\n        /* \"ds-roles/roles.sol\":1352:1369  _capability_roles */\n      0x04\n        /* \"ds-roles/roles.sol\":1352:1375  _capability_roles[code] */\n      0x00\n        /* \"ds-roles/roles.sol\":1370:1374  code */\n      dup5\n        /* \"ds-roles/roles.sol\":1352:1375  _capability_roles[code] */\n      0xffffffffffffffffffffffffffffffffffffffff\n      and\n      0xffffffffffffffffffffffffffffffffffffffff\n      and\n      dup2\n      mstore\n      0x20\n      add\n      swap1\n      dup2\n      mstore\n      0x20\n      add\n      0x00\n      keccak256\n        /* \"ds-roles/roles.sol\":1352:1380  _capability_roles[code][sig] */\n      0x00\n        /* \"ds-roles/roles.sol\":1376:1379  sig */\n      dup4\n        /* \"ds-roles/roles.sol\":1352:1380  _capability_roles[code][sig] */\n      not(0xffffffffffffffffffffffffffffffffffffffffffffffffffffffff)\n      and\n      not(0xffffffffffffffffffffffffffffffffffffffffffffffffffffffff)\n      and\n      dup2\n      mstore\n      0x20\n      add\n      swap1\n      dup2\n      mstore\n      0x20\n      add\n      0x00\n      keccak256\n      sload\n        /* \"ds-roles/roles.sol\":1345:1380  return _capability_roles[code][sig] */\n      swap1\n      pop\n        /* \"ds-roles/roles.sol\":1223:1387  function getCapabilityRoles(address code, bytes4 sig)... */\n      swap3\n      swap2\n      pop\n      pop\n      jump\t// out\n        /* \"ds-roles/roles.sol\":1527:1691  function isCapabilityPublic(address code, bytes4 sig)... */\n    tag_36:\n        /* \"ds-roles/roles.sol\":1626:1630  bool */\n      0x00\n        /* \"ds-roles/roles.sol\":1653:1673  _public_capabilities */\n      0x05\n        /* \"ds-roles/roles.sol\":1653:1679  _public_capabilities[code] */\n      0x00\n        /* \"ds-roles/roles.sol\":1674:1678  code */\n      dup5\n        /* \"ds-roles/roles.sol\":1653:1679  _public_capabilities[code] */\n      0xffffffffffffffffffffffffffffffffffffffff\n      and\n      0xffffffffffffffffffffffffffffffffffffffff\n      and\n      dup2\n      mstore\n      0x20\n      add\n      swap1\n      dup2\n      mstore\n      0x20\n      add\n      0x00\n      keccak256\n        /* \"ds-roles/roles.sol\":1653:1684  _public_capabilities[code][sig] */\n      0x00\n        /* \"ds-roles/roles.sol\":1680:1683  sig */\n      dup4\n        /* \"ds-roles/roles.sol\":1653:1684  _public_capabilities[code][sig] */\n      not(0xffffffffffffffffffffffffffffffffffffffffffffffffffffffff)\n      and\n      not(0xffffffffffffffffffffffffffffffffffffffffffffffffffffffff)\n      and\n      dup2\n      mstore\n      0x20\n      add\n      swap1\n      dup2\n      mstore\n      0x20\n      add\n      0x00\n      keccak256\n      0x00\n      swap1\n      sload\n      swap1\n      0x0100\n      exp\n      swap1\n      div\n      0xff\n      and\n        /* \"ds-roles/roles.sol\":1646:1684  return _public_capabilities[code][sig] */\n      swap1\n      pop\n        /* \"ds-roles/roles.sol\":1527:1691  function isCapabilityPublic(address code, bytes4 sig)... */\n      swap3\n      swap2\n      pop\n      pop\n      jump\t// out\n        /* \"ds-roles/roles.sol\":2624:2981  function setUserRole(address who, uint8 role, bool enabled)... */\n    tag_42:\n        /* \"ds-auth/auth.sol\":1494:1527  isAuthorized(msg.sender, msg.sig) */\n      tag_90\n        /* \"ds-auth/auth.sol\":1507:1517  msg.sender */\n      caller\n        /* \"ds-auth/auth.sol\":1519:1526  msg.sig */\n      and(0xffffffff00000000000000000000000000000000000000000000000000000000, calldataload(0x00))\n        /* \"ds-auth/auth.sol\":1494:1506  isAuthorized */\n      tag_84\n        /* \"ds-auth/auth.sol\":1494:1527  isAuthorized(msg.sender, msg.sig) */\n      jump\t// in\n    tag_90:\n        /* \"ds-auth/auth.sol\":1486:1528  require(isAuthorized(msg.sender, msg.sig)) */\n      tag_91\n      jumpi\n      0x00\n      dup1\n      revert\n    tag_91:\n        /* \"ds-roles/roles.sol\":2726:2744  bytes32 last_roles */\n      0x00\n        /* \"ds-roles/roles.sol\":2747:2758  _user_roles */\n      0x03\n        /* \"ds-roles/roles.sol\":2747:2763  _user_roles[who] */\n      0x00\n        /* \"ds-roles/roles.sol\":2759:2762  who */\n      dup6\n        /* \"ds-roles/roles.sol\":2747:2763  _user_roles[who] */\n      0xffffffffffffffffffffffffffffffffffffffff\n      and\n      0xffffffffffffffffffffffffffffffffffffffff\n      and\n      dup2\n      mstore\n      0x20\n      add\n      swap1\n      dup2\n      mstore\n      0x20\n      add\n      0x00\n      keccak256\n      sload\n        /* \"ds-roles/roles.sol\":2726:2763  bytes32 last_roles = _user_roles[who] */\n      swap1\n      pop\n        /* \"ds-roles/roles.sol\":2773:2788  bytes32 shifted */\n      0x00\n        /* \"ds-roles/roles.sol\":2804:2808  role */\n      dup4\n        /* \"ds-roles/roles.sol\":2799:2808  1 << role */\n      0xff\n      and\n        /* \"ds-roles/roles.sol\":2799:2800  1 */\n      0x01\n        /* \"ds-roles/roles.sol\":2799:2808  1 << role */\n      swap1\n      shl\n        /* \"ds-roles/roles.sol\":2791:2809  bytes32(1 << role) */\n      0x00\n      shl\n        /* \"ds-roles/roles.sol\":2773:2809  bytes32 shifted = bytes32(1 << role) */\n      swap1\n      pop\n        /* \"ds-roles/roles.sol\":2823:2830  enabled */\n      dup3\n        /* \"ds-roles/roles.sol\":2819:2975  if( enabled ) {... */\n      iszero\n      tag_93\n      jumpi\n        /* \"ds-roles/roles.sol\":2879:2886  shifted */\n      dup1\n        /* \"ds-roles/roles.sol\":2866:2876  last_roles */\n      dup3\n        /* \"ds-roles/roles.sol\":2866:2886  last_roles | shifted */\n      or\n        /* \"ds-roles/roles.sol\":2847:2858  _user_roles */\n      0x03\n        /* \"ds-roles/roles.sol\":2847:2863  _user_roles[who] */\n      0x00\n        /* \"ds-roles/roles.sol\":2859:2862  who */\n      dup8\n        /* \"ds-roles/roles.sol\":2847:2863  _user_roles[who] */\n      0xffffffffffffffffffffffffffffffffffffffff\n      and\n      0xffffffffffffffffffffffffffffffffffffffff\n      and\n      dup2\n      mstore\n      0x20\n      add\n      swap1\n      dup2\n      mstore\n      0x20\n      add\n      0x00\n      keccak256\n        /* \"ds-roles/roles.sol\":2847:2886  _user_roles[who] = last_roles | shifted */\n      dup2\n      swap1\n      sstore\n      pop\n        /* \"ds-roles/roles.sol\":2819:2975  if( enabled ) {... */\n      jump(tag_94)\n    tag_93:\n        /* \"ds-roles/roles.sol\":2949:2964  BITNOT(shifted) */\n      tag_95\n        /* \"ds-roles/roles.sol\":2956:2963  shifted */\n      dup2\n        /* \"ds-roles/roles.sol\":2949:2955  BITNOT */\n      tag_96\n        /* \"ds-roles/roles.sol\":2949:2964  BITNOT(shifted) */\n      jump\t// in\n    tag_95:\n        /* \"ds-roles/roles.sol\":2936:2946  last_roles */\n      dup3\n        /* \"ds-roles/roles.sol\":2936:2964  last_roles & BITNOT(shifted) */\n      and\n        /* \"ds-roles/roles.sol\":2917:2928  _user_roles */\n      0x03\n        /* \"ds-roles/roles.sol\":2917:2933  _user_roles[who] */\n      0x00\n        /* \"ds-roles/roles.sol\":2929:2932  who */\n      dup8\n        /* \"ds-roles/roles.sol\":2917:2933  _user_roles[who] */\n      0xffffffffffffffffffffffffffffffffffffffff\n      and\n      0xffffffffffffffffffffffffffffffffffffffff\n      and\n      dup2\n      mstore\n      0x20\n      add\n      swap1\n      dup2\n      mstore\n      0x20\n      add\n      0x00\n      keccak256\n        /* \"ds-roles/roles.sol\":2917:2964  _user_roles[who] = last_roles & BITNOT(shifted) */\n      dup2\n      swap1\n      sstore\n      pop\n        /* \"ds-roles/roles.sol\":2819:2975  if( enabled ) {... */\n    tag_94:\n        /* \"ds-roles/roles.sol\":2716:2981  {... */\n      pop\n      pop\n        /* \"ds-roles/roles.sol\":2624:2981  function setUserRole(address who, uint8 role, bool enabled)... */\n      pop\n      pop\n      pop\n      jump\t// out\n        /* \"ds-auth/auth.sol\":1289:1456  function setAuthority(DSAuthority authority_)... */\n    tag_46:\n        /* \"ds-auth/auth.sol\":1494:1527  isAuthorized(msg.sender, msg.sig) */\n      tag_98\n        /* \"ds-auth/auth.sol\":1507:1517  msg.sender */\n      caller\n        /* \"ds-auth/auth.sol\":1519:1526  msg.sig */\n      and(0xffffffff00000000000000000000000000000000000000000000000000000000, calldataload(0x00))\n        /* \"ds-auth/auth.sol\":1494:1506  isAuthorized */\n      tag_84\n        /* \"ds-auth/auth.sol\":1494:1527  isAuthorized(msg.sender, msg.sig) */\n      jump\t// in\n    tag_98:\n        /* \"ds-auth/auth.sol\":1486:1528  require(isAuthorized(msg.sender, msg.sig)) */\n      tag_99\n      jumpi\n      0x00\n      dup1\n      revert\n    tag_99:\n        /* \"ds-auth/auth.sol\":1389:1399  authority_ */\n      dup1\n        /* \"ds-auth/auth.sol\":1377:1386  authority */\n      0x00\n      dup1\n        /* \"ds-auth/auth.sol\":1377:1399  authority = authority_ */\n      0x0100\n      exp\n      dup2\n      sload\n      dup2\n      0xffffffffffffffffffffffffffffffffffffffff\n      mul\n      not\n      and\n      swap1\n      dup4\n      0xffffffffffffffffffffffffffffffffffffffff\n      and\n      mul\n      or\n      swap1\n      sstore\n      pop\n        /* \"ds-auth/auth.sol\":1438:1447  authority */\n      0x00\n      dup1\n      sload\n      swap1\n      0x0100\n      exp\n      swap1\n      div\n      0xffffffffffffffffffffffffffffffffffffffff\n      and\n        /* \"ds-auth/auth.sol\":1414:1449  LogSetAuthority(address(authority)) */\n      0xffffffffffffffffffffffffffffffffffffffff\n      and\n      0x1abebea81bfa2637f28358c371278fb15ede7ea8dd28d2e03b112ff6d936ada4\n      mload(0x40)\n      mload(0x40)\n      dup1\n      swap2\n      sub\n      swap1\n      log2\n        /* \"ds-auth/auth.sol\":1289:1456  function setAuthority(DSAuthority authority_)... */\n      pop\n      jump\t// out\n        /* \"ds-roles/roles.sol\":3152:3564  function setRoleCapability(uint8 role, address code, bytes4 sig, bool enabled)... */\n    tag_50:\n        /* \"ds-auth/auth.sol\":1494:1527  isAuthorized(msg.sender, msg.sig) */\n      tag_102\n        /* \"ds-auth/auth.sol\":1507:1517  msg.sender */\n      caller\n        /* \"ds-auth/auth.sol\":1519:1526  msg.sig */\n      and(0xffffffff00000000000000000000000000000000000000000000000000000000, calldataload(0x00))\n        /* \"ds-auth/auth.sol\":1494:1506  isAuthorized */\n      tag_84\n        /* \"ds-auth/auth.sol\":1494:1527  isAuthorized(msg.sender, msg.sig) */\n      jump\t// in\n    tag_102:\n        /* \"ds-auth/auth.sol\":1486:1528  require(isAuthorized(msg.sender, msg.sig)) */\n      tag_103\n      jumpi\n      0x00\n      dup1\n      revert\n    tag_103:\n        /* \"ds-roles/roles.sol\":3273:3291  bytes32 last_roles */\n      0x00\n        /* \"ds-roles/roles.sol\":3294:3311  _capability_roles */\n      0x04\n        /* \"ds-roles/roles.sol\":3294:3317  _capability_roles[code] */\n      0x00\n        /* \"ds-roles/roles.sol\":3312:3316  code */\n      dup6\n        /* \"ds-roles/roles.sol\":3294:3317  _capability_roles[code] */\n      0xffffffffffffffffffffffffffffffffffffffff\n      and\n      0xffffffffffffffffffffffffffffffffffffffff\n      and\n      dup2\n      mstore\n      0x20\n      add\n      swap1\n      dup2\n      mstore\n      0x20\n      add\n      0x00\n      keccak256\n        /* \"ds-roles/roles.sol\":3294:3322  _capability_roles[code][sig] */\n      0x00\n        /* \"ds-roles/roles.sol\":3318:3321  sig */\n      dup5\n        /* \"ds-roles/roles.sol\":3294:3322  _capability_roles[code][sig] */\n      not(0xffffffffffffffffffffffffffffffffffffffffffffffffffffffff)\n      and\n      not(0xffffffffffffffffffffffffffffffffffffffffffffffffffffffff)\n      and\n      dup2\n      mstore\n      0x20\n      add\n      swap1\n      dup2\n      mstore\n      0x20\n      add\n      0x00\n      keccak256\n      sload\n        /* \"ds-roles/roles.sol\":3273:3322  bytes32 last_roles = _capability_roles[code][sig] */\n      swap1\n      pop\n        /* \"ds-roles/roles.sol\":3332:3347  bytes32 shifted */\n      0x00\n        /* \"ds-roles/roles.sol\":3363:3367  role */\n      dup6\n        /* \"ds-roles/roles.sol\":3358:3367  1 << role */\n      0xff\n      and\n        /* \"ds-roles/roles.sol\":3358:3359  1 */\n      0x01\n        /* \"ds-roles/roles.sol\":3358:3367  1 << role */\n      swap1\n      shl\n        /* \"ds-roles/roles.sol\":3350:3368  bytes32(1 << role) */\n      0x00\n      shl\n        /* \"ds-roles/roles.sol\":3332:3368  bytes32 shifted = bytes32(1 << role) */\n      swap1\n      pop\n        /* \"ds-roles/roles.sol\":3382:3389  enabled */\n      dup3\n        /* \"ds-roles/roles.sol\":3378:3558  if( enabled ) {... */\n      iszero\n      tag_105\n      jumpi\n        /* \"ds-roles/roles.sol\":3450:3457  shifted */\n      dup1\n        /* \"ds-roles/roles.sol\":3437:3447  last_roles */\n      dup3\n        /* \"ds-roles/roles.sol\":3437:3457  last_roles | shifted */\n      or\n        /* \"ds-roles/roles.sol\":3406:3423  _capability_roles */\n      0x04\n        /* \"ds-roles/roles.sol\":3406:3429  _capability_roles[code] */\n      0x00\n        /* \"ds-roles/roles.sol\":3424:3428  code */\n      dup8\n        /* \"ds-roles/roles.sol\":3406:3429  _capability_roles[code] */\n      0xffffffffffffffffffffffffffffffffffffffff\n      and\n      0xffffffffffffffffffffffffffffffffffffffff\n      and\n      dup2\n      mstore\n      0x20\n      add\n      swap1\n      dup2\n      mstore\n      0x20\n      add\n      0x00\n      keccak256\n        /* \"ds-roles/roles.sol\":3406:3434  _capability_roles[code][sig] */\n      0x00\n        /* \"ds-roles/roles.sol\":3430:3433  sig */\n      dup7\n        /* \"ds-roles/roles.sol\":3406:3434  _capability_roles[code][sig] */\n      not(0xffffffffffffffffffffffffffffffffffffffffffffffffffffffff)\n      and\n      not(0xffffffffffffffffffffffffffffffffffffffffffffffffffffffff)\n      and\n      dup2\n      mstore\n      0x20\n      add\n      swap1\n      dup2\n      mstore\n      0x20\n      add\n      0x00\n      keccak256\n        /* \"ds-roles/roles.sol\":3406:3457  _capability_roles[code][sig] = last_roles | shifted */\n      dup2\n      swap1\n      sstore\n      pop\n        /* \"ds-roles/roles.sol\":3378:3558  if( enabled ) {... */\n      jump(tag_106)\n    tag_105:\n        /* \"ds-roles/roles.sol\":3532:3547  BITNOT(shifted) */\n      tag_107\n        /* \"ds-roles/roles.sol\":3539:3546  shifted */\n      dup2\n        /* \"ds-roles/roles.sol\":3532:3538  BITNOT */\n      tag_96\n        /* \"ds-roles/roles.sol\":3532:3547  BITNOT(shifted) */\n      jump\t// in\n    tag_107:\n        /* \"ds-roles/roles.sol\":3519:3529  last_roles */\n      dup3\n        /* \"ds-roles/roles.sol\":3519:3547  last_roles & BITNOT(shifted) */\n      and\n        /* \"ds-roles/roles.sol\":3488:3505  _capability_roles */\n      0x04\n        /* \"ds-roles/roles.sol\":3488:3511  _capability_roles[code] */\n      0x00\n        /* \"ds-roles/roles.sol\":3506:3510  code */\n      dup8\n        /* \"ds-roles/roles.sol\":3488:3511  _capability_roles[code] */\n      0xffffffffffffffffffffffffffffffffffffffff\n      and\n      0xffffffffffffffffffffffffffffffffffffffff\n      and\n      dup2\n      mstore\n      0x20\n      add\n      swap1\n      dup2\n      mstore\n      0x20\n      add\n      0x00\n      keccak256\n        /* \"ds-roles/roles.sol\":3488:3516  _capability_roles[code][sig] */\n      0x00\n        /* \"ds-roles/roles.sol\":3512:3515  sig */\n      dup7\n        /* \"ds-roles/roles.sol\":3488:3516  _capability_roles[code][sig] */\n      not(0xffffffffffffffffffffffffffffffffffffffffffffffffffffffff)\n      and\n      not(0xffffffffffffffffffffffffffffffffffffffffffffffffffffffff)\n      and\n      dup2\n      mstore\n      0x20\n      add\n      swap1\n      dup2\n      mstore\n      0x20\n      add\n      0x00\n      keccak256\n        /* \"ds-roles/roles.sol\":3488:3547  _capability_roles[code][sig] = last_roles & BITNOT(shifted) */\n      dup2\n      swap1\n      sstore\n      pop\n        /* \"ds-roles/roles.sol\":3378:3558  if( enabled ) {... */\n    tag_106:\n        /* \"ds-roles/roles.sol\":3263:3564  {... */\n      pop\n      pop\n        /* \"ds-roles/roles.sol\":3152:3564  function setRoleCapability(uint8 role, address code, bytes4 sig, bool enabled)... */\n      pop\n      pop\n      pop\n      pop\n      jump\t// out\n        /* \"ds-auth/auth.sol\":1020:1046  address      public  owner */\n    tag_52:\n      0x01\n      0x00\n      swap1\n      sload\n      swap1\n      0x0100\n      exp\n      swap1\n      div\n      0xffffffffffffffffffffffffffffffffffffffff\n      and\n      dup2\n      jump\t// out\n        /* \"ds-roles/roles.sol\":1697:1940  function hasUserRole(address who, uint8 role)... */\n    tag_58:\n        /* \"ds-roles/roles.sol\":1788:1792  bool */\n      0x00\n        /* \"ds-roles/roles.sol\":1808:1821  bytes32 roles */\n      dup1\n        /* \"ds-roles/roles.sol\":1824:1841  getUserRoles(who) */\n      tag_109\n        /* \"ds-roles/roles.sol\":1837:1840  who */\n      dup5\n        /* \"ds-roles/roles.sol\":1824:1836  getUserRoles */\n      tag_23\n        /* \"ds-roles/roles.sol\":1824:1841  getUserRoles(who) */\n      jump\t// in\n    tag_109:\n        /* \"ds-roles/roles.sol\":1808:1841  bytes32 roles = getUserRoles(who) */\n      swap1\n      pop\n        /* \"ds-roles/roles.sol\":1851:1866  bytes32 shifted */\n      0x00\n        /* \"ds-roles/roles.sol\":1882:1886  role */\n      dup4\n        /* \"ds-roles/roles.sol\":1877:1886  1 << role */\n      0xff\n      and\n        /* \"ds-roles/roles.sol\":1877:1878  1 */\n      0x01\n        /* \"ds-roles/roles.sol\":1877:1886  1 << role */\n      swap1\n      shl\n        /* \"ds-roles/roles.sol\":1869:1887  bytes32(1 << role) */\n      0x00\n      shl\n        /* \"ds-roles/roles.sol\":1851:1887  bytes32 shifted = bytes32(1 << role) */\n      swap1\n      pop\n        /* \"ds-roles/roles.sol\":1926:1933  shifted */\n      dup1\n        /* \"ds-roles/roles.sol\":1918:1923  roles */\n      dup3\n        /* \"ds-roles/roles.sol\":1918:1933  roles & shifted */\n      and\n        /* \"ds-roles/roles.sol\":1912:1913  0 */\n      0x00\n        /* \"ds-roles/roles.sol\":1904:1914  bytes32(0) */\n      dup1\n      shl\n        /* \"ds-roles/roles.sol\":1904:1933  bytes32(0) != roles & shifted */\n      eq\n      iszero\n        /* \"ds-roles/roles.sol\":1897:1933  return bytes32(0) != roles & shifted */\n      swap3\n      pop\n      pop\n      pop\n        /* \"ds-roles/roles.sol\":1697:1940  function hasUserRole(address who, uint8 role)... */\n      swap3\n      swap2\n      pop\n      pop\n      jump\t// out\n        /* \"ds-roles/roles.sol\":1946:2383  function canCall(address caller, address code, bytes4 sig)... */\n    tag_63:\n        /* \"ds-roles/roles.sol\":2067:2071  bool */\n      0x00\n        /* \"ds-roles/roles.sol\":2091:2109  isUserRoot(caller) */\n      tag_111\n        /* \"ds-roles/roles.sol\":2102:2108  caller */\n      dup5\n        /* \"ds-roles/roles.sol\":2091:2101  isUserRoot */\n      tag_79\n        /* \"ds-roles/roles.sol\":2091:2109  isUserRoot(caller) */\n      jump\t// in\n    tag_111:\n        /* \"ds-roles/roles.sol\":2091:2142  isUserRoot(caller) || isCapabilityPublic(code, sig) */\n      dup1\n      tag_112\n      jumpi\n      pop\n        /* \"ds-roles/roles.sol\":2113:2142  isCapabilityPublic(code, sig) */\n      tag_113\n        /* \"ds-roles/roles.sol\":2132:2136  code */\n      dup4\n        /* \"ds-roles/roles.sol\":2138:2141  sig */\n      dup4\n        /* \"ds-roles/roles.sol\":2113:2131  isCapabilityPublic */\n      tag_36\n        /* \"ds-roles/roles.sol\":2113:2142  isCapabilityPublic(code, sig) */\n      jump\t// in\n    tag_113:\n        /* \"ds-roles/roles.sol\":2091:2142  isUserRoot(caller) || isCapabilityPublic(code, sig) */\n    tag_112:\n        /* \"ds-roles/roles.sol\":2087:2377  if( isUserRoot(caller) || isCapabilityPublic(code, sig) ) {... */\n      iszero\n      tag_114\n      jumpi\n        /* \"ds-roles/roles.sol\":2166:2170  true */\n      0x01\n        /* \"ds-roles/roles.sol\":2159:2170  return true */\n      swap1\n      pop\n      jump(tag_110)\n        /* \"ds-roles/roles.sol\":2087:2377  if( isUserRoot(caller) || isCapabilityPublic(code, sig) ) {... */\n    tag_114:\n        /* \"ds-roles/roles.sol\":2201:2218  bytes32 has_roles */\n      0x00\n        /* \"ds-roles/roles.sol\":2221:2241  getUserRoles(caller) */\n      tag_116\n        /* \"ds-roles/roles.sol\":2234:2240  caller */\n      dup6\n        /* \"ds-roles/roles.sol\":2221:2233  getUserRoles */\n      tag_23\n        /* \"ds-roles/roles.sol\":2221:2241  getUserRoles(caller) */\n      jump\t// in\n    tag_116:\n        /* \"ds-roles/roles.sol\":2201:2241  bytes32 has_roles = getUserRoles(caller) */\n      swap1\n      pop\n        /* \"ds-roles/roles.sol\":2255:2275  bytes32 needs_one_of */\n      0x00\n        /* \"ds-roles/roles.sol\":2278:2307  getCapabilityRoles(code, sig) */\n      tag_117\n        /* \"ds-roles/roles.sol\":2297:2301  code */\n      dup6\n        /* \"ds-roles/roles.sol\":2303:2306  sig */\n      dup6\n        /* \"ds-roles/roles.sol\":2278:2296  getCapabilityRoles */\n      tag_32\n        /* \"ds-roles/roles.sol\":2278:2307  getCapabilityRoles(code, sig) */\n      jump\t// in\n    tag_117:\n        /* \"ds-roles/roles.sol\":2255:2307  bytes32 needs_one_of = getCapabilityRoles(code, sig) */\n      swap1\n      pop\n        /* \"ds-roles/roles.sol\":2354:2366  needs_one_of */\n      dup1\n        /* \"ds-roles/roles.sol\":2342:2351  has_roles */\n      dup3\n        /* \"ds-roles/roles.sol\":2342:2366  has_roles & needs_one_of */\n      and\n        /* \"ds-roles/roles.sol\":2336:2337  0 */\n      0x00\n        /* \"ds-roles/roles.sol\":2328:2338  bytes32(0) */\n      dup1\n      shl\n        /* \"ds-roles/roles.sol\":2328:2366  bytes32(0) != has_roles & needs_one_of */\n      eq\n      iszero\n        /* \"ds-roles/roles.sol\":2321:2366  return bytes32(0) != has_roles & needs_one_of */\n      swap3\n      pop\n      pop\n      pop\n        /* \"ds-roles/roles.sol\":1946:2383  function canCall(address caller, address code, bytes4 sig)... */\n    tag_110:\n      swap4\n      swap3\n      pop\n      pop\n      pop\n      jump\t// out\n        /* \"ds-auth/auth.sol\":984:1014  DSAuthority  public  authority */\n    tag_66:\n      0x00\n      dup1\n      sload\n      swap1\n      0x0100\n      exp\n      swap1\n      div\n      0xffffffffffffffffffffffffffffffffffffffff\n      and\n      dup2\n      jump\t// out\n        /* \"ds-roles/roles.sol\":2987:3146  function setPublicCapability(address code, bytes4 sig, bool enabled)... */\n    tag_72:\n        /* \"ds-auth/auth.sol\":1494:1527  isAuthorized(msg.sender, msg.sig) */\n      tag_119\n        /* \"ds-auth/auth.sol\":1507:1517  msg.sender */\n      caller\n        /* \"ds-auth/auth.sol\":1519:1526  msg.sig */\n      and(0xffffffff00000000000000000000000000000000000000000000000000000000, calldataload(0x00))\n        /* \"ds-auth/auth.sol\":1494:1506  isAuthorized */\n      tag_84\n        /* \"ds-auth/auth.sol\":1494:1527  isAuthorized(msg.sender, msg.sig) */\n      jump\t// in\n    tag_119:\n        /* \"ds-auth/auth.sol\":1486:1528  require(isAuthorized(msg.sender, msg.sig)) */\n      tag_120\n      jumpi\n      0x00\n      dup1\n      revert\n    tag_120:\n        /* \"ds-roles/roles.sol\":3132:3139  enabled */\n      dup1\n        /* \"ds-roles/roles.sol\":3098:3118  _public_capabilities */\n      0x05\n        /* \"ds-roles/roles.sol\":3098:3124  _public_capabilities[code] */\n      0x00\n        /* \"ds-roles/roles.sol\":3119:3123  code */\n      dup6\n        /* \"ds-roles/roles.sol\":3098:3124  _public_capabilities[code] */\n      0xffffffffffffffffffffffffffffffffffffffff\n      and\n      0xffffffffffffffffffffffffffffffffffffffff\n      and\n      dup2\n      mstore\n      0x20\n      add\n      swap1\n      dup2\n      mstore\n      0x20\n      add\n      0x00\n      keccak256\n        /* \"ds-roles/roles.sol\":3098:3129  _public_capabilities[code][sig] */\n      0x00\n        /* \"ds-roles/roles.sol\":3125:3128  sig */\n      dup5\n        /* \"ds-roles/roles.sol\":3098:3129  _public_capabilities[code][sig] */\n      not(0xffffffffffffffffffffffffffffffffffffffffffffffffffffffff)\n      and\n      not(0xffffffffffffffffffffffffffffffffffffffffffffffffffffffff)\n      and\n      dup2\n      mstore\n      0x20\n      add\n      swap1\n      dup2\n      mstore\n      0x20\n      add\n      0x00\n      keccak256\n      0x00\n        /* \"ds-roles/roles.sol\":3098:3139  _public_capabilities[code][sig] = enabled */\n      0x0100\n      exp\n      dup2\n      sload\n      dup2\n      0xff\n      mul\n      not\n      and\n      swap1\n      dup4\n      iszero\n      iszero\n      mul\n      or\n      swap1\n      sstore\n      pop\n        /* \"ds-roles/roles.sol\":2987:3146  function setPublicCapability(address code, bytes4 sig, bool enabled)... */\n      pop\n      pop\n      pop\n      jump\t// out\n        /* \"ds-roles/roles.sol\":2495:2618  function setRootUser(address who, bool enabled)... */\n    tag_76:\n        /* \"ds-auth/auth.sol\":1494:1527  isAuthorized(msg.sender, msg.sig) */\n      tag_123\n        /* \"ds-auth/auth.sol\":1507:1517  msg.sender */\n      caller\n        /* \"ds-auth/auth.sol\":1519:1526  msg.sig */\n      and(0xffffffff00000000000000000000000000000000000000000000000000000000, calldataload(0x00))\n        /* \"ds-auth/auth.sol\":1494:1506  isAuthorized */\n      tag_84\n        /* \"ds-auth/auth.sol\":1494:1527  isAuthorized(msg.sender, msg.sig) */\n      jump\t// in\n    tag_123:\n        /* \"ds-auth/auth.sol\":1486:1528  require(isAuthorized(msg.sender, msg.sig)) */\n      tag_124\n      jumpi\n      0x00\n      dup1\n      revert\n    tag_124:\n        /* \"ds-roles/roles.sol\":2604:2611  enabled */\n      dup1\n        /* \"ds-roles/roles.sol\":2585:2596  _root_users */\n      0x02\n        /* \"ds-roles/roles.sol\":2585:2601  _root_users[who] */\n      0x00\n        /* \"ds-roles/roles.sol\":2597:2600  who */\n      dup5\n        /* \"ds-roles/roles.sol\":2585:2601  _root_users[who] */\n      0xffffffffffffffffffffffffffffffffffffffff\n      and\n      0xffffffffffffffffffffffffffffffffffffffff\n      and\n      dup2\n      mstore\n      0x20\n      add\n      swap1\n      dup2\n      mstore\n      0x20\n      add\n      0x00\n      keccak256\n      0x00\n        /* \"ds-roles/roles.sol\":2585:2611  _root_users[who] = enabled */\n      0x0100\n      exp\n      dup2\n      sload\n      dup2\n      0xff\n      mul\n      not\n      and\n      swap1\n      dup4\n      iszero\n      iszero\n      mul\n      or\n      swap1\n      sstore\n      pop\n        /* \"ds-roles/roles.sol\":2495:2618  function setRootUser(address who, bool enabled)... */\n      pop\n      pop\n      jump\t// out\n        /* \"ds-roles/roles.sol\":1393:1521  function isUserRoot(address who)... */\n    tag_79:\n        /* \"ds-roles/roles.sol\":1471:1475  bool */\n      0x00\n        /* \"ds-roles/roles.sol\":1498:1509  _root_users */\n      0x02\n        /* \"ds-roles/roles.sol\":1498:1514  _root_users[who] */\n      0x00\n        /* \"ds-roles/roles.sol\":1510:1513  who */\n      dup4\n        /* \"ds-roles/roles.sol\":1498:1514  _root_users[who] */\n      0xffffffffffffffffffffffffffffffffffffffff\n      and\n      0xffffffffffffffffffffffffffffffffffffffff\n      and\n      dup2\n      mstore\n      0x20\n      add\n      swap1\n      dup2\n      mstore\n      0x20\n      add\n      0x00\n      keccak256\n      0x00\n      swap1\n      sload\n      swap1\n      0x0100\n      exp\n      swap1\n      div\n      0xff\n      and\n        /* \"ds-roles/roles.sol\":1491:1514  return _root_users[who] */\n      swap1\n      pop\n        /* \"ds-roles/roles.sol\":1393:1521  function isUserRoot(address who)... */\n      swap2\n      swap1\n      pop\n      jump\t// out\n        /* \"ds-auth/auth.sol\":1552:1927  function isAuthorized(address src, bytes4 sig) internal view returns (bool) {... */\n    tag_84:\n        /* \"ds-auth/auth.sol\":1622:1626  bool */\n      0x00\n        /* \"ds-auth/auth.sol\":1657:1661  this */\n      address\n        /* \"ds-auth/auth.sol\":1642:1662  src == address(this) */\n      0xffffffffffffffffffffffffffffffffffffffff\n      and\n        /* \"ds-auth/auth.sol\":1642:1645  src */\n      dup4\n        /* \"ds-auth/auth.sol\":1642:1662  src == address(this) */\n      0xffffffffffffffffffffffffffffffffffffffff\n      and\n      sub\n        /* \"ds-auth/auth.sol\":1638:1921  if (src == address(this)) {... */\n      tag_128\n      jumpi\n        /* \"ds-auth/auth.sol\":1685:1689  true */\n      0x01\n        /* \"ds-auth/auth.sol\":1678:1689  return true */\n      swap1\n      pop\n      jump(tag_127)\n        /* \"ds-auth/auth.sol\":1638:1921  if (src == address(this)) {... */\n    tag_128:\n        /* \"ds-auth/auth.sol\":1717:1722  owner */\n      0x01\n      0x00\n      swap1\n      sload\n      swap1\n      0x0100\n      exp\n      swap1\n      div\n      0xffffffffffffffffffffffffffffffffffffffff\n      and\n        /* \"ds-auth/auth.sol\":1710:1722  src == owner */\n      0xffffffffffffffffffffffffffffffffffffffff\n      and\n        /* \"ds-auth/auth.sol\":1710:1713  src */\n      dup4\n        /* \"ds-auth/auth.sol\":1710:1722  src == owner */\n      0xffffffffffffffffffffffffffffffffffffffff\n      and\n      sub\n        /* \"ds-auth/auth.sol\":1706:1921  if (src == owner) {... */\n      tag_130\n      jumpi\n        /* \"ds-auth/auth.sol\":1745:1749  true */\n      0x01\n        /* \"ds-auth/auth.sol\":1738:1749  return true */\n      swap1\n      pop\n      jump(tag_127)\n        /* \"ds-auth/auth.sol\":1706:1921  if (src == owner) {... */\n    tag_130:\n        /* \"ds-auth/auth.sol\":1800:1801  0 */\n      0x00\n        /* \"ds-auth/auth.sol\":1770:1802  address(authority) == address(0) */\n      0xffffffffffffffffffffffffffffffffffffffff\n      and\n        /* \"ds-auth/auth.sol\":1778:1787  authority */\n      0x00\n      dup1\n      sload\n      swap1\n      0x0100\n      exp\n      swap1\n      div\n      0xffffffffffffffffffffffffffffffffffffffff\n      and\n        /* \"ds-auth/auth.sol\":1770:1802  address(authority) == address(0) */\n      0xffffffffffffffffffffffffffffffffffffffff\n      and\n      sub\n        /* \"ds-auth/auth.sol\":1766:1921  if (address(authority) == address(0)) {... */\n      tag_132\n      jumpi\n        /* \"ds-auth/auth.sol\":1825:1830  false */\n      0x00\n        /* \"ds-auth/auth.sol\":1818:1830  return false */\n      swap1\n      pop\n      jump(tag_127)\n        /* \"ds-auth/auth.sol\":1766:1921  if (address(authority) == address(0)) {... */\n    tag_132:\n        /* \"ds-auth/auth.sol\":1868:1877  authority */\n      0x00\n      dup1\n      sload\n      swap1\n      0x0100\n      exp\n      swap1\n      div\n      0xffffffffffffffffffffffffffffffffffffffff\n      and\n        /* \"ds-auth/auth.sol\":1868:1885  authority.canCall */\n      0xffffffffffffffffffffffffffffffffffffffff\n      and\n      0xb7009613\n        /* \"ds-auth/auth.sol\":1886:1889  src */\n      dup5\n        /* \"ds-auth/auth.sol\":1899:1903  this */\n      address\n        /* \"ds-auth/auth.sol\":1906:1909  sig */\n      dup6\n        /* \"ds-auth/auth.sol\":1868:1910  authority.canCall(src, address(this), sig) */\n      mload(0x40)\n      dup5\n      0xffffffff\n      and\n      0xe0\n      shl\n      dup2\n      mstore\n      0x04\n      add\n      tag_134\n      swap4\n      swap3\n      swap2\n      swap1\n      tag_135\n      jump\t// in\n    tag_134:\n      0x20\n      mload(0x40)\n      dup1\n      dup4\n      sub\n      dup2\n      dup7\n      gas\n      staticcall\n      iszero\n      dup1\n      iszero\n      tag_137\n      jumpi\n      returndatasize\n      0x00\n      dup1\n      returndatacopy\n      revert(0x00, returndatasize)\n    tag_137:\n      pop\n      pop\n      pop\n      pop\n      mload(0x40)\n      returndatasize\n      not(0x1f)\n      0x1f\n      dup3\n      add\n      and\n      dup3\n      add\n      dup1\n      0x40\n      mstore\n      pop\n      dup2\n      add\n      swap1\n      tag_138\n      swap2\n      swap1\n      tag_139\n      jump\t// in\n    tag_138:\n        /* \"ds-auth/auth.sol\":1861:1910  return authority.canCall(src, address(this), sig) */\n      swap1\n      pop\n        /* \"ds-auth/auth.sol\":1552:1927  function isAuthorized(address src, bytes4 sig) internal view returns (bool) {... */\n    tag_127:\n      swap3\n      swap2\n      pop\n      pop\n      jump\t// out\n        /* \"ds-roles/roles.sol\":2389:2489  function BITNOT(bytes32 input) internal pure returns (bytes32 output) {... */\n    tag_96:\n        /* \"ds-roles/roles.sol\":2443:2457  bytes32 output */\n      0x00\n        /* \"ds-roles/roles.sol\":2477:2482  input */\n      dup2\n        /* \"ds-roles/roles.sol\":2476:2482  ~input */\n      not\n        /* \"ds-roles/roles.sol\":2469:2482  return ~input */\n      swap1\n      pop\n        /* \"ds-roles/roles.sol\":2389:2489  function BITNOT(bytes32 input) internal pure returns (bytes32 output) {... */\n      swap2\n      swap1\n      pop\n      jump\t// out\n        /* \"#utility.yul\":88:205   */\n    tag_142:\n        /* \"#utility.yul\":197:198   */\n      0x00\n        /* \"#utility.yul\":194:195   */\n      dup1\n        /* \"#utility.yul\":187:199   */\n      revert\n        /* \"#utility.yul\":334:460   */\n    tag_144:\n        /* \"#utility.yul\":371:378   */\n      0x00\n        /* \"#utility.yul\":411:453   */\n      0xffffffffffffffffffffffffffffffffffffffff\n        /* \"#utility.yul\":404:409   */\n      dup3\n        /* \"#utility.yul\":400:454   */\n      and\n        /* \"#utility.yul\":389:454   */\n      swap1\n      pop\n        /* \"#utility.yul\":334:460   */\n      swap2\n      swap1\n      pop\n      jump\t// out\n        /* \"#utility.yul\":466:562   */\n    tag_145:\n        /* \"#utility.yul\":503:510   */\n      0x00\n        /* \"#utility.yul\":532:556   */\n      tag_177\n        /* \"#utility.yul\":550:555   */\n      dup3\n        /* \"#utility.yul\":532:556   */\n      tag_144\n      jump\t// in\n    tag_177:\n        /* \"#utility.yul\":521:556   */\n      swap1\n      pop\n        /* \"#utility.yul\":466:562   */\n      swap2\n      swap1\n      pop\n      jump\t// out\n        /* \"#utility.yul\":568:690   */\n    tag_146:\n        /* \"#utility.yul\":641:665   */\n      tag_179\n        /* \"#utility.yul\":659:664   */\n      dup2\n        /* \"#utility.yul\":641:665   */\n      tag_145\n      jump\t// in\n    tag_179:\n        /* \"#utility.yul\":634:639   */\n      dup2\n        /* \"#utility.yul\":631:666   */\n      eq\n        /* \"#utility.yul\":621:684   */\n      tag_180\n      jumpi\n        /* \"#utility.yul\":680:681   */\n      0x00\n        /* \"#utility.yul\":677:678   */\n      dup1\n        /* \"#utility.yul\":670:682   */\n      revert\n        /* \"#utility.yul\":621:684   */\n    tag_180:\n        /* \"#utility.yul\":568:690   */\n      pop\n      jump\t// out\n        /* \"#utility.yul\":696:835   */\n    tag_147:\n        /* \"#utility.yul\":742:747   */\n      0x00\n        /* \"#utility.yul\":780:786   */\n      dup2\n        /* \"#utility.yul\":767:787   */\n      calldataload\n        /* \"#utility.yul\":758:787   */\n      swap1\n      pop\n        /* \"#utility.yul\":796:829   */\n      tag_182\n        /* \"#utility.yul\":823:828   */\n      dup2\n        /* \"#utility.yul\":796:829   */\n      tag_146\n      jump\t// in\n    tag_182:\n        /* \"#utility.yul\":696:835   */\n      swap3\n      swap2\n      pop\n      pop\n      jump\t// out\n        /* \"#utility.yul\":841:1170   */\n    tag_22:\n        /* \"#utility.yul\":900:906   */\n      0x00\n        /* \"#utility.yul\":949:951   */\n      0x20\n        /* \"#utility.yul\":937:946   */\n      dup3\n        /* \"#utility.yul\":928:935   */\n      dup5\n        /* \"#utility.yul\":924:947   */\n      sub\n        /* \"#utility.yul\":920:952   */\n      slt\n        /* \"#utility.yul\":917:1036   */\n      iszero\n      tag_184\n      jumpi\n        /* \"#utility.yul\":955:1034   */\n      tag_185\n      tag_142\n      jump\t// in\n    tag_185:\n        /* \"#utility.yul\":917:1036   */\n    tag_184:\n        /* \"#utility.yul\":1075:1076   */\n      0x00\n        /* \"#utility.yul\":1100:1153   */\n      tag_186\n        /* \"#utility.yul\":1145:1152   */\n      dup5\n        /* \"#utility.yul\":1136:1142   */\n      dup3\n        /* \"#utility.yul\":1125:1134   */\n      dup6\n        /* \"#utility.yul\":1121:1143   */\n      add\n        /* \"#utility.yul\":1100:1153   */\n      tag_147\n      jump\t// in\n    tag_186:\n        /* \"#utility.yul\":1090:1153   */\n      swap2\n      pop\n        /* \"#utility.yul\":1046:1163   */\n      pop\n        /* \"#utility.yul\":841:1170   */\n      swap3\n      swap2\n      pop\n      pop\n      jump\t// out\n        /* \"#utility.yul\":1176:1253   */\n    tag_148:\n        /* \"#utility.yul\":1213:1220   */\n      0x00\n        /* \"#utility.yul\":1242:1247   */\n      dup2\n        /* \"#utility.yul\":1231:1247   */\n      swap1\n      pop\n        /* \"#utility.yul\":1176:1253   */\n      swap2\n      swap1\n      pop\n      jump\t// out\n        /* \"#utility.yul\":1259:1377   */\n    tag_149:\n        /* \"#utility.yul\":1346:1370   */\n      tag_189\n        /* \"#utility.yul\":1364:1369   */\n      dup2\n        /* \"#utility.yul\":1346:1370   */\n      tag_148\n      jump\t// in\n    tag_189:\n        /* \"#utility.yul\":1341:1344   */\n      dup3\n        /* \"#utility.yul\":1334:1371   */\n      mstore\n        /* \"#utility.yul\":1259:1377   */\n      pop\n      pop\n      jump\t// out\n        /* \"#utility.yul\":1383:1605   */\n    tag_25:\n        /* \"#utility.yul\":1476:1480   */\n      0x00\n        /* \"#utility.yul\":1514:1516   */\n      0x20\n        /* \"#utility.yul\":1503:1512   */\n      dup3\n        /* \"#utility.yul\":1499:1517   */\n      add\n        /* \"#utility.yul\":1491:1517   */\n      swap1\n      pop\n        /* \"#utility.yul\":1527:1598   */\n      tag_191\n        /* \"#utility.yul\":1595:1596   */\n      0x00\n        /* \"#utility.yul\":1584:1593   */\n      dup4\n        /* \"#utility.yul\":1580:1597   */\n      add\n        /* \"#utility.yul\":1571:1577   */\n      dup5\n        /* \"#utility.yul\":1527:1598   */\n      tag_149\n      jump\t// in\n    tag_191:\n        /* \"#utility.yul\":1383:1605   */\n      swap3\n      swap2\n      pop\n      pop\n      jump\t// out\n        /* \"#utility.yul\":1611:1760   */\n    tag_150:\n        /* \"#utility.yul\":1647:1654   */\n      0x00\n        /* \"#utility.yul\":1687:1753   */\n      0xffffffff00000000000000000000000000000000000000000000000000000000\n        /* \"#utility.yul\":1680:1685   */\n      dup3\n        /* \"#utility.yul\":1676:1754   */\n      and\n        /* \"#utility.yul\":1665:1754   */\n      swap1\n      pop\n        /* \"#utility.yul\":1611:1760   */\n      swap2\n      swap1\n      pop\n      jump\t// out\n        /* \"#utility.yul\":1766:1886   */\n    tag_151:\n        /* \"#utility.yul\":1838:1861   */\n      tag_194\n        /* \"#utility.yul\":1855:1860   */\n      dup2\n        /* \"#utility.yul\":1838:1861   */\n      tag_150\n      jump\t// in\n    tag_194:\n        /* \"#utility.yul\":1831:1836   */\n      dup2\n        /* \"#utility.yul\":1828:1862   */\n      eq\n        /* \"#utility.yul\":1818:1880   */\n      tag_195\n      jumpi\n        /* \"#utility.yul\":1876:1877   */\n      0x00\n        /* \"#utility.yul\":1873:1874   */\n      dup1\n        /* \"#utility.yul\":1866:1878   */\n      revert\n        /* \"#utility.yul\":1818:1880   */\n    tag_195:\n        /* \"#utility.yul\":1766:1886   */\n      pop\n      jump\t// out\n        /* \"#utility.yul\":1892:2029   */\n    tag_152:\n        /* \"#utility.yul\":1937:1942   */\n      0x00\n        /* \"#utility.yul\":1975:1981   */\n      dup2\n        /* \"#utility.yul\":1962:1982   */\n      calldataload\n        /* \"#utility.yul\":1953:1982   */\n      swap1\n      pop\n        /* \"#utility.yul\":1991:2023   */\n      tag_197\n        /* \"#utility.yul\":2017:2022   */\n      dup2\n        /* \"#utility.yul\":1991:2023   */\n      tag_151\n      jump\t// in\n    tag_197:\n        /* \"#utility.yul\":1892:2029   */\n      swap3\n      swap2\n      pop\n      pop\n      jump\t// out\n        /* \"#utility.yul\":2035:2507   */\n    tag_31:\n        /* \"#utility.yul\":2102:2108   */\n      0x00\n        /* \"#utility.yul\":2110:2116   */\n      dup1\n        /* \"#utility.yul\":2159:2161   */\n      0x40\n        /* \"#utility.yul\":2147:2156   */\n      dup4\n        /* \"#utility.yul\":2138:2145   */\n      dup6\n        /* \"#utility.yul\":2134:2157   */\n      sub\n        /* \"#utility.yul\":2130:2162   */\n      slt\n        /* \"#utility.yul\":2127:2246   */\n      iszero\n      tag_199\n      jumpi\n        /* \"#utility.yul\":2165:2244   */\n      tag_200\n      tag_142\n      jump\t// in\n    tag_200:\n        /* \"#utility.yul\":2127:2246   */\n    tag_199:\n        /* \"#utility.yul\":2285:2286   */\n      0x00\n        /* \"#utility.yul\":2310:2363   */\n      tag_201\n        /* \"#utility.yul\":2355:2362   */\n      dup6\n        /* \"#utility.yul\":2346:2352   */\n      dup3\n        /* \"#utility.yul\":2335:2344   */\n      dup7\n        /* \"#utility.yul\":2331:2353   */\n      add\n        /* \"#utility.yul\":2310:2363   */\n      tag_147\n      jump\t// in\n    tag_201:\n        /* \"#utility.yul\":2300:2363   */\n      swap3\n      pop\n        /* \"#utility.yul\":2256:2373   */\n      pop\n        /* \"#utility.yul\":2412:2414   */\n      0x20\n        /* \"#utility.yul\":2438:2490   */\n      tag_202\n        /* \"#utility.yul\":2482:2489   */\n      dup6\n        /* \"#utility.yul\":2473:2479   */\n      dup3\n        /* \"#utility.yul\":2462:2471   */\n      dup7\n        /* \"#utility.yul\":2458:2480   */\n      add\n        /* \"#utility.yul\":2438:2490   */\n      tag_152\n      jump\t// in\n    tag_202:\n        /* \"#utility.yul\":2428:2490   */\n      swap2\n      pop\n        /* \"#utility.yul\":2383:2500   */\n      pop\n        /* \"#utility.yul\":2035:2507   */\n      swap3\n      pop\n      swap3\n      swap1\n      pop\n      jump\t// out\n        /* \"#utility.yul\":2513:2603   */\n    tag_153:\n        /* \"#utility.yul\":2547:2554   */\n      0x00\n        /* \"#utility.yul\":2590:2595   */\n      dup2\n        /* \"#utility.yul\":2583:2596   */\n      iszero\n        /* \"#utility.yul\":2576:2597   */\n      iszero\n        /* \"#utility.yul\":2565:2597   */\n      swap1\n      pop\n        /* \"#utility.yul\":2513:2603   */\n      swap2\n      swap1\n      pop\n      jump\t// out\n        /* \"#utility.yul\":2609:2718   */\n    tag_154:\n        /* \"#utility.yul\":2690:2711   */\n      tag_205\n        /* \"#utility.yul\":2705:2710   */\n      dup2\n        /* \"#utility.yul\":2690:2711   */\n      tag_153\n      jump\t// in\n    tag_205:\n        /* \"#utility.yul\":2685:2688   */\n      dup3\n        /* \"#utility.yul\":2678:2712   */\n      mstore\n        /* \"#utility.yul\":2609:2718   */\n      pop\n      pop\n      jump\t// out\n        /* \"#utility.yul\":2724:2934   */\n    tag_38:\n        /* \"#utility.yul\":2811:2815   */\n      0x00\n        /* \"#utility.yul\":2849:2851   */\n      0x20\n        /* \"#utility.yul\":2838:2847   */\n      dup3\n        /* \"#utility.yul\":2834:2852   */\n      add\n        /* \"#utility.yul\":2826:2852   */\n      swap1\n      pop\n        /* \"#utility.yul\":2862:2927   */\n      tag_207\n        /* \"#utility.yul\":2924:2925   */\n      0x00\n        /* \"#utility.yul\":2913:2922   */\n      dup4\n        /* \"#utility.yul\":2909:2926   */\n      add\n        /* \"#utility.yul\":2900:2906   */\n      dup5\n        /* \"#utility.yul\":2862:2927   */\n      tag_154\n      jump\t// in\n    tag_207:\n        /* \"#utility.yul\":2724:2934   */\n      swap3\n      swap2\n      pop\n      pop\n      jump\t// out\n        /* \"#utility.yul\":2940:3026   */\n    tag_155:\n        /* \"#utility.yul\":2975:2982   */\n      0x00\n        /* \"#utility.yul\":3015:3019   */\n      0xff\n        /* \"#utility.yul\":3008:3013   */\n      dup3\n        /* \"#utility.yul\":3004:3020   */\n      and\n        /* \"#utility.yul\":2993:3020   */\n      swap1\n      pop\n        /* \"#utility.yul\":2940:3026   */\n      swap2\n      swap1\n      pop\n      jump\t// out\n        /* \"#utility.yul\":3032:3150   */\n    tag_156:\n        /* \"#utility.yul\":3103:3125   */\n      tag_210\n        /* \"#utility.yul\":3119:3124   */\n      dup2\n        /* \"#utility.yul\":3103:3125   */\n      tag_155\n      jump\t// in\n    tag_210:\n        /* \"#utility.yul\":3096:3101   */\n      dup2\n        /* \"#utility.yul\":3093:3126   */\n      eq\n        /* \"#utility.yul\":3083:3144   */\n      tag_211\n      jumpi\n        /* \"#utility.yul\":3140:3141   */\n      0x00\n        /* \"#utility.yul\":3137:3138   */\n      dup1\n        /* \"#utility.yul\":3130:3142   */\n      revert\n        /* \"#utility.yul\":3083:3144   */\n    tag_211:\n        /* \"#utility.yul\":3032:3150   */\n      pop\n      jump\t// out\n        /* \"#utility.yul\":3156:3291   */\n    tag_157:\n        /* \"#utility.yul\":3200:3205   */\n      0x00\n        /* \"#utility.yul\":3238:3244   */\n      dup2\n        /* \"#utility.yul\":3225:3245   */\n      calldataload\n        /* \"#utility.yul\":3216:3245   */\n      swap1\n      pop\n        /* \"#utility.yul\":3254:3285   */\n      tag_213\n        /* \"#utility.yul\":3279:3284   */\n      dup2\n        /* \"#utility.yul\":3254:3285   */\n      tag_156\n      jump\t// in\n    tag_213:\n        /* \"#utility.yul\":3156:3291   */\n      swap3\n      swap2\n      pop\n      pop\n      jump\t// out\n        /* \"#utility.yul\":3297:3413   */\n    tag_158:\n        /* \"#utility.yul\":3367:3388   */\n      tag_215\n        /* \"#utility.yul\":3382:3387   */\n      dup2\n        /* \"#utility.yul\":3367:3388   */\n      tag_153\n      jump\t// in\n    tag_215:\n        /* \"#utility.yul\":3360:3365   */\n      dup2\n        /* \"#utility.yul\":3357:3389   */\n      eq\n        /* \"#utility.yul\":3347:3407   */\n      tag_216\n      jumpi\n        /* \"#utility.yul\":3403:3404   */\n      0x00\n        /* \"#utility.yul\":3400:3401   */\n      dup1\n        /* \"#utility.yul\":3393:3405   */\n      revert\n        /* \"#utility.yul\":3347:3407   */\n    tag_216:\n        /* \"#utility.yul\":3297:3413   */\n      pop\n      jump\t// out\n        /* \"#utility.yul\":3419:3552   */\n    tag_159:\n        /* \"#utility.yul\":3462:3467   */\n      0x00\n        /* \"#utility.yul\":3500:3506   */\n      dup2\n        /* \"#utility.yul\":3487:3507   */\n      calldataload\n        /* \"#utility.yul\":3478:3507   */\n      swap1\n      pop\n        /* \"#utility.yul\":3516:3546   */\n      tag_218\n        /* \"#utility.yul\":3540:3545   */\n      dup2\n        /* \"#utility.yul\":3516:3546   */\n      tag_158\n      jump\t// in\n    tag_218:\n        /* \"#utility.yul\":3419:3552   */\n      swap3\n      swap2\n      pop\n      pop\n      jump\t// out\n        /* \"#utility.yul\":3558:4167   */\n    tag_41:\n        /* \"#utility.yul\":3630:3636   */\n      0x00\n        /* \"#utility.yul\":3638:3644   */\n      dup1\n        /* \"#utility.yul\":3646:3652   */\n      0x00\n        /* \"#utility.yul\":3695:3697   */\n      0x60\n        /* \"#utility.yul\":3683:3692   */\n      dup5\n        /* \"#utility.yul\":3674:3681   */\n      dup7\n        /* \"#utility.yul\":3670:3693   */\n      sub\n        /* \"#utility.yul\":3666:3698   */\n      slt\n        /* \"#utility.yul\":3663:3782   */\n      iszero\n      tag_220\n      jumpi\n        /* \"#utility.yul\":3701:3780   */\n      tag_221\n      tag_142\n      jump\t// in\n    tag_221:\n        /* \"#utility.yul\":3663:3782   */\n    tag_220:\n        /* \"#utility.yul\":3821:3822   */\n      0x00\n        /* \"#utility.yul\":3846:3899   */\n      tag_222\n        /* \"#utility.yul\":3891:3898   */\n      dup7\n        /* \"#utility.yul\":3882:3888   */\n      dup3\n        /* \"#utility.yul\":3871:3880   */\n      dup8\n        /* \"#utility.yul\":3867:3889   */\n      add\n        /* \"#utility.yul\":3846:3899   */\n      tag_147\n      jump\t// in\n    tag_222:\n        /* \"#utility.yul\":3836:3899   */\n      swap4\n      pop\n        /* \"#utility.yul\":3792:3909   */\n      pop\n        /* \"#utility.yul\":3948:3950   */\n      0x20\n        /* \"#utility.yul\":3974:4025   */\n      tag_223\n        /* \"#utility.yul\":4017:4024   */\n      dup7\n        /* \"#utility.yul\":4008:4014   */\n      dup3\n        /* \"#utility.yul\":3997:4006   */\n      dup8\n        /* \"#utility.yul\":3993:4015   */\n      add\n        /* \"#utility.yul\":3974:4025   */\n      tag_157\n      jump\t// in\n    tag_223:\n        /* \"#utility.yul\":3964:4025   */\n      swap3\n      pop\n        /* \"#utility.yul\":3919:4035   */\n      pop\n        /* \"#utility.yul\":4074:4076   */\n      0x40\n        /* \"#utility.yul\":4100:4150   */\n      tag_224\n        /* \"#utility.yul\":4142:4149   */\n      dup7\n        /* \"#utility.yul\":4133:4139   */\n      dup3\n        /* \"#utility.yul\":4122:4131   */\n      dup8\n        /* \"#utility.yul\":4118:4140   */\n      add\n        /* \"#utility.yul\":4100:4150   */\n      tag_159\n      jump\t// in\n    tag_224:\n        /* \"#utility.yul\":4090:4150   */\n      swap2\n      pop\n        /* \"#utility.yul\":4045:4160   */\n      pop\n        /* \"#utility.yul\":3558:4167   */\n      swap3\n      pop\n      swap3\n      pop\n      swap3\n      jump\t// out\n        /* \"#utility.yul\":4173:4287   */\n    tag_160:\n        /* \"#utility.yul\":4228:4235   */\n      0x00\n        /* \"#utility.yul\":4257:4281   */\n      tag_226\n        /* \"#utility.yul\":4275:4280   */\n      dup3\n        /* \"#utility.yul\":4257:4281   */\n      tag_145\n      jump\t// in\n    tag_226:\n        /* \"#utility.yul\":4246:4281   */\n      swap1\n      pop\n        /* \"#utility.yul\":4173:4287   */\n      swap2\n      swap1\n      pop\n      jump\t// out\n        /* \"#utility.yul\":4293:4451   */\n    tag_161:\n        /* \"#utility.yul\":4384:4426   */\n      tag_228\n        /* \"#utility.yul\":4420:4425   */\n      dup2\n        /* \"#utility.yul\":4384:4426   */\n      tag_160\n      jump\t// in\n    tag_228:\n        /* \"#utility.yul\":4377:4382   */\n      dup2\n        /* \"#utility.yul\":4374:4427   */\n      eq\n        /* \"#utility.yul\":4364:4445   */\n      tag_229\n      jumpi\n        /* \"#utility.yul\":4441:4442   */\n      0x00\n        /* \"#utility.yul\":4438:4439   */\n      dup1\n        /* \"#utility.yul\":4431:4443   */\n      revert\n        /* \"#utility.yul\":4364:4445   */\n    tag_229:\n        /* \"#utility.yul\":4293:4451   */\n      pop\n      jump\t// out\n        /* \"#utility.yul\":4457:4632   */\n    tag_162:\n        /* \"#utility.yul\":4521:4526   */\n      0x00\n        /* \"#utility.yul\":4559:4565   */\n      dup2\n        /* \"#utility.yul\":4546:4566   */\n      calldataload\n        /* \"#utility.yul\":4537:4566   */\n      swap1\n      pop\n        /* \"#utility.yul\":4575:4626   */\n      tag_231\n        /* \"#utility.yul\":4620:4625   */\n      dup2\n        /* \"#utility.yul\":4575:4626   */\n      tag_161\n      jump\t// in\n    tag_231:\n        /* \"#utility.yul\":4457:4632   */\n      swap3\n      swap2\n      pop\n      pop\n      jump\t// out\n        /* \"#utility.yul\":4638:5003   */\n    tag_45:\n        /* \"#utility.yul\":4715:4721   */\n      0x00\n        /* \"#utility.yul\":4764:4766   */\n      0x20\n        /* \"#utility.yul\":4752:4761   */\n      dup3\n        /* \"#utility.yul\":4743:4750   */\n      dup5\n        /* \"#utility.yul\":4739:4762   */\n      sub\n        /* \"#utility.yul\":4735:4767   */\n      slt\n        /* \"#utility.yul\":4732:4851   */\n      iszero\n      tag_233\n      jumpi\n        /* \"#utility.yul\":4770:4849   */\n      tag_234\n      tag_142\n      jump\t// in\n    tag_234:\n        /* \"#utility.yul\":4732:4851   */\n    tag_233:\n        /* \"#utility.yul\":4890:4891   */\n      0x00\n        /* \"#utility.yul\":4915:4986   */\n      tag_235\n        /* \"#utility.yul\":4978:4985   */\n      dup5\n        /* \"#utility.yul\":4969:4975   */\n      dup3\n        /* \"#utility.yul\":4958:4967   */\n      dup6\n        /* \"#utility.yul\":4954:4976   */\n      add\n        /* \"#utility.yul\":4915:4986   */\n      tag_162\n      jump\t// in\n    tag_235:\n        /* \"#utility.yul\":4905:4986   */\n      swap2\n      pop\n        /* \"#utility.yul\":4861:4996   */\n      pop\n        /* \"#utility.yul\":4638:5003   */\n      swap3\n      swap2\n      pop\n      pop\n      jump\t// out\n        /* \"#utility.yul\":5009:5762   */\n    tag_49:\n        /* \"#utility.yul\":5089:5095   */\n      0x00\n        /* \"#utility.yul\":5097:5103   */\n      dup1\n        /* \"#utility.yul\":5105:5111   */\n      0x00\n        /* \"#utility.yul\":5113:5119   */\n      dup1\n        /* \"#utility.yul\":5162:5165   */\n      0x80\n        /* \"#utility.yul\":5150:5159   */\n      dup6\n        /* \"#utility.yul\":5141:5148   */\n      dup8\n        /* \"#utility.yul\":5137:5160   */\n      sub\n        /* \"#utility.yul\":5133:5166   */\n      slt\n        /* \"#utility.yul\":5130:5250   */\n      iszero\n      tag_237\n      jumpi\n        /* \"#utility.yul\":5169:5248   */\n      tag_238\n      tag_142\n      jump\t// in\n    tag_238:\n        /* \"#utility.yul\":5130:5250   */\n    tag_237:\n        /* \"#utility.yul\":5289:5290   */\n      0x00\n        /* \"#utility.yul\":5314:5365   */\n      tag_239\n        /* \"#utility.yul\":5357:5364   */\n      dup8\n        /* \"#utility.yul\":5348:5354   */\n      dup3\n        /* \"#utility.yul\":5337:5346   */\n      dup9\n        /* \"#utility.yul\":5333:5355   */\n      add\n        /* \"#utility.yul\":5314:5365   */\n      tag_157\n      jump\t// in\n    tag_239:\n        /* \"#utility.yul\":5304:5365   */\n      swap5\n      pop\n        /* \"#utility.yul\":5260:5375   */\n      pop\n        /* \"#utility.yul\":5414:5416   */\n      0x20\n        /* \"#utility.yul\":5440:5493   */\n      tag_240\n        /* \"#utility.yul\":5485:5492   */\n      dup8\n        /* \"#utility.yul\":5476:5482   */\n      dup3\n        /* \"#utility.yul\":5465:5474   */\n      dup9\n        /* \"#utility.yul\":5461:5483   */\n      add\n        /* \"#utility.yul\":5440:5493   */\n      tag_147\n      jump\t// in\n    tag_240:\n        /* \"#utility.yul\":5430:5493   */\n      swap4\n      pop\n        /* \"#utility.yul\":5385:5503   */\n      pop\n        /* \"#utility.yul\":5542:5544   */\n      0x40\n        /* \"#utility.yul\":5568:5620   */\n      tag_241\n        /* \"#utility.yul\":5612:5619   */\n      dup8\n        /* \"#utility.yul\":5603:5609   */\n      dup3\n        /* \"#utility.yul\":5592:5601   */\n      dup9\n        /* \"#utility.yul\":5588:5610   */\n      add\n        /* \"#utility.yul\":5568:5620   */\n      tag_152\n      jump\t// in\n    tag_241:\n        /* \"#utility.yul\":5558:5620   */\n      swap3\n      pop\n        /* \"#utility.yul\":5513:5630   */\n      pop\n        /* \"#utility.yul\":5669:5671   */\n      0x60\n        /* \"#utility.yul\":5695:5745   */\n      tag_242\n        /* \"#utility.yul\":5737:5744   */\n      dup8\n        /* \"#utility.yul\":5728:5734   */\n      dup3\n        /* \"#utility.yul\":5717:5726   */\n      dup9\n        /* \"#utility.yul\":5713:5735   */\n      add\n        /* \"#utility.yul\":5695:5745   */\n      tag_159\n      jump\t// in\n    tag_242:\n        /* \"#utility.yul\":5685:5745   */\n      swap2\n      pop\n        /* \"#utility.yul\":5640:5755   */\n      pop\n        /* \"#utility.yul\":5009:5762   */\n      swap3\n      swap6\n      swap2\n      swap5\n      pop\n      swap3\n      pop\n      jump\t// out\n        /* \"#utility.yul\":5768:5886   */\n    tag_163:\n        /* \"#utility.yul\":5855:5879   */\n      tag_244\n        /* \"#utility.yul\":5873:5878   */\n      dup2\n        /* \"#utility.yul\":5855:5879   */\n      tag_145\n      jump\t// in\n    tag_244:\n        /* \"#utility.yul\":5850:5853   */\n      dup3\n        /* \"#utility.yul\":5843:5880   */\n      mstore\n        /* \"#utility.yul\":5768:5886   */\n      pop\n      pop\n      jump\t// out\n        /* \"#utility.yul\":5892:6114   */\n    tag_54:\n        /* \"#utility.yul\":5985:5989   */\n      0x00\n        /* \"#utility.yul\":6023:6025   */\n      0x20\n        /* \"#utility.yul\":6012:6021   */\n      dup3\n        /* \"#utility.yul\":6008:6026   */\n      add\n        /* \"#utility.yul\":6000:6026   */\n      swap1\n      pop\n        /* \"#utility.yul\":6036:6107   */\n      tag_246\n        /* \"#utility.yul\":6104:6105   */\n      0x00\n        /* \"#utility.yul\":6093:6102   */\n      dup4\n        /* \"#utility.yul\":6089:6106   */\n      add\n        /* \"#utility.yul\":6080:6086   */\n      dup5\n        /* \"#utility.yul\":6036:6107   */\n      tag_163\n      jump\t// in\n    tag_246:\n        /* \"#utility.yul\":5892:6114   */\n      swap3\n      swap2\n      pop\n      pop\n      jump\t// out\n        /* \"#utility.yul\":6120:6590   */\n    tag_57:\n        /* \"#utility.yul\":6186:6192   */\n      0x00\n        /* \"#utility.yul\":6194:6200   */\n      dup1\n        /* \"#utility.yul\":6243:6245   */\n      0x40\n        /* \"#utility.yul\":6231:6240   */\n      dup4\n        /* \"#utility.yul\":6222:6229   */\n      dup6\n        /* \"#utility.yul\":6218:6241   */\n      sub\n        /* \"#utility.yul\":6214:6246   */\n      slt\n        /* \"#utility.yul\":6211:6330   */\n      iszero\n      tag_248\n      jumpi\n        /* \"#utility.yul\":6249:6328   */\n      tag_249\n      tag_142\n      jump\t// in\n    tag_249:\n        /* \"#utility.yul\":6211:6330   */\n    tag_248:\n        /* \"#utility.yul\":6369:6370   */\n      0x00\n        /* \"#utility.yul\":6394:6447   */\n      tag_250\n        /* \"#utility.yul\":6439:6446   */\n      dup6\n        /* \"#utility.yul\":6430:6436   */\n      dup3\n        /* \"#utility.yul\":6419:6428   */\n      dup7\n        /* \"#utility.yul\":6415:6437   */\n      add\n        /* \"#utility.yul\":6394:6447   */\n      tag_147\n      jump\t// in\n    tag_250:\n        /* \"#utility.yul\":6384:6447   */\n      swap3\n      pop\n        /* \"#utility.yul\":6340:6457   */\n      pop\n        /* \"#utility.yul\":6496:6498   */\n      0x20\n        /* \"#utility.yul\":6522:6573   */\n      tag_251\n        /* \"#utility.yul\":6565:6572   */\n      dup6\n        /* \"#utility.yul\":6556:6562   */\n      dup3\n        /* \"#utility.yul\":6545:6554   */\n      dup7\n        /* \"#utility.yul\":6541:6563   */\n      add\n        /* \"#utility.yul\":6522:6573   */\n      tag_157\n      jump\t// in\n    tag_251:\n        /* \"#utility.yul\":6512:6573   */\n      swap2\n      pop\n        /* \"#utility.yul\":6467:6583   */\n      pop\n        /* \"#utility.yul\":6120:6590   */\n      swap3\n      pop\n      swap3\n      swap1\n      pop\n      jump\t// out\n        /* \"#utility.yul\":6596:7213   */\n    tag_62:\n        /* \"#utility.yul\":6672:6678   */\n      0x00\n        /* \"#utility.yul\":6680:6686   */\n      dup1\n        /* \"#utility.yul\":6688:6694   */\n      0x00\n        /* \"#utility.yul\":6737:6739   */\n      0x60\n        /* \"#utility.yul\":6725:6734   */\n      dup5\n        /* \"#utility.yul\":6716:6723   */\n      dup7\n        /* \"#utility.yul\":6712:6735   */\n      sub\n        /* \"#utility.yul\":6708:6740   */\n      slt\n        /* \"#utility.yul\":6705:6824   */\n      iszero\n      tag_253\n      jumpi\n        /* \"#utility.yul\":6743:6822   */\n      tag_254\n      tag_142\n      jump\t// in\n    tag_254:\n        /* \"#utility.yul\":6705:6824   */\n    tag_253:\n        /* \"#utility.yul\":6863:6864   */\n      0x00\n        /* \"#utility.yul\":6888:6941   */\n      tag_255\n        /* \"#utility.yul\":6933:6940   */\n      dup7\n        /* \"#utility.yul\":6924:6930   */\n      dup3\n        /* \"#utility.yul\":6913:6922   */\n      dup8\n        /* \"#utility.yul\":6909:6931   */\n      add\n        /* \"#utility.yul\":6888:6941   */\n      tag_147\n      jump\t// in\n    tag_255:\n        /* \"#utility.yul\":6878:6941   */\n      swap4\n      pop\n        /* \"#utility.yul\":6834:6951   */\n      pop\n        /* \"#utility.yul\":6990:6992   */\n      0x20\n        /* \"#utility.yul\":7016:7069   */\n      tag_256\n        /* \"#utility.yul\":7061:7068   */\n      dup7\n        /* \"#utility.yul\":7052:7058   */\n      dup3\n        /* \"#utility.yul\":7041:7050   */\n      dup8\n        /* \"#utility.yul\":7037:7059   */\n      add\n        /* \"#utility.yul\":7016:7069   */\n      tag_147\n      jump\t// in\n    tag_256:\n        /* \"#utility.yul\":7006:7069   */\n      swap3\n      pop\n        /* \"#utility.yul\":6961:7079   */\n      pop\n        /* \"#utility.yul\":7118:7120   */\n      0x40\n        /* \"#utility.yul\":7144:7196   */\n      tag_257\n        /* \"#utility.yul\":7188:7195   */\n      dup7\n        /* \"#utility.yul\":7179:7185   */\n      dup3\n        /* \"#utility.yul\":7168:7177   */\n      dup8\n        /* \"#utility.yul\":7164:7186   */\n      add\n        /* \"#utility.yul\":7144:7196   */\n      tag_152\n      jump\t// in\n    tag_257:\n        /* \"#utility.yul\":7134:7196   */\n      swap2\n      pop\n        /* \"#utility.yul\":7089:7206   */\n      pop\n        /* \"#utility.yul\":6596:7213   */\n      swap3\n      pop\n      swap3\n      pop\n      swap3\n      jump\t// out\n        /* \"#utility.yul\":7219:7279   */\n    tag_164:\n        /* \"#utility.yul\":7247:7250   */\n      0x00\n        /* \"#utility.yul\":7268:7273   */\n      dup2\n        /* \"#utility.yul\":7261:7273   */\n      swap1\n      pop\n        /* \"#utility.yul\":7219:7279   */\n      swap2\n      swap1\n      pop\n      jump\t// out\n        /* \"#utility.yul\":7285:7427   */\n    tag_165:\n        /* \"#utility.yul\":7335:7344   */\n      0x00\n        /* \"#utility.yul\":7368:7421   */\n      tag_260\n        /* \"#utility.yul\":7386:7420   */\n      tag_261\n        /* \"#utility.yul\":7395:7419   */\n      tag_262\n        /* \"#utility.yul\":7413:7418   */\n      dup5\n        /* \"#utility.yul\":7395:7419   */\n      tag_144\n      jump\t// in\n    tag_262:\n        /* \"#utility.yul\":7386:7420   */\n      tag_164\n      jump\t// in\n    tag_261:\n        /* \"#utility.yul\":7368:7421   */\n      tag_144\n      jump\t// in\n    tag_260:\n        /* \"#utility.yul\":7355:7421   */\n      swap1\n      pop\n        /* \"#utility.yul\":7285:7427   */\n      swap2\n      swap1\n      pop\n      jump\t// out\n        /* \"#utility.yul\":7433:7559   */\n    tag_166:\n        /* \"#utility.yul\":7483:7492   */\n      0x00\n        /* \"#utility.yul\":7516:7553   */\n      tag_264\n        /* \"#utility.yul\":7547:7552   */\n      dup3\n        /* \"#utility.yul\":7516:7553   */\n      tag_165\n      jump\t// in\n    tag_264:\n        /* \"#utility.yul\":7503:7553   */\n      swap1\n      pop\n        /* \"#utility.yul\":7433:7559   */\n      swap2\n      swap1\n      pop\n      jump\t// out\n        /* \"#utility.yul\":7565:7709   */\n    tag_167:\n        /* \"#utility.yul\":7633:7642   */\n      0x00\n        /* \"#utility.yul\":7666:7703   */\n      tag_266\n        /* \"#utility.yul\":7697:7702   */\n      dup3\n        /* \"#utility.yul\":7666:7703   */\n      tag_166\n      jump\t// in\n    tag_266:\n        /* \"#utility.yul\":7653:7703   */\n      swap1\n      pop\n        /* \"#utility.yul\":7565:7709   */\n      swap2\n      swap1\n      pop\n      jump\t// out\n        /* \"#utility.yul\":7715:7882   */\n    tag_168:\n        /* \"#utility.yul\":7820:7875   */\n      tag_268\n        /* \"#utility.yul\":7869:7874   */\n      dup2\n        /* \"#utility.yul\":7820:7875   */\n      tag_167\n      jump\t// in\n    tag_268:\n        /* \"#utility.yul\":7815:7818   */\n      dup3\n        /* \"#utility.yul\":7808:7876   */\n      mstore\n        /* \"#utility.yul\":7715:7882   */\n      pop\n      pop\n      jump\t// out\n        /* \"#utility.yul\":7888:8146   */\n    tag_68:\n        /* \"#utility.yul\":7999:8003   */\n      0x00\n        /* \"#utility.yul\":8037:8039   */\n      0x20\n        /* \"#utility.yul\":8026:8035   */\n      dup3\n        /* \"#utility.yul\":8022:8040   */\n      add\n        /* \"#utility.yul\":8014:8040   */\n      swap1\n      pop\n        /* \"#utility.yul\":8050:8139   */\n      tag_270\n        /* \"#utility.yul\":8136:8137   */\n      0x00\n        /* \"#utility.yul\":8125:8134   */\n      dup4\n        /* \"#utility.yul\":8121:8138   */\n      add\n        /* \"#utility.yul\":8112:8118   */\n      dup5\n        /* \"#utility.yul\":8050:8139   */\n      tag_168\n      jump\t// in\n    tag_270:\n        /* \"#utility.yul\":7888:8146   */\n      swap3\n      swap2\n      pop\n      pop\n      jump\t// out\n        /* \"#utility.yul\":8152:8763   */\n    tag_71:\n        /* \"#utility.yul\":8225:8231   */\n      0x00\n        /* \"#utility.yul\":8233:8239   */\n      dup1\n        /* \"#utility.yul\":8241:8247   */\n      0x00\n        /* \"#utility.yul\":8290:8292   */\n      0x60\n        /* \"#utility.yul\":8278:8287   */\n      dup5\n        /* \"#utility.yul\":8269:8276   */\n      dup7\n        /* \"#utility.yul\":8265:8288   */\n      sub\n        /* \"#utility.yul\":8261:8293   */\n      slt\n        /* \"#utility.yul\":8258:8377   */\n      iszero\n      tag_272\n      jumpi\n        /* \"#utility.yul\":8296:8375   */\n      tag_273\n      tag_142\n      jump\t// in\n    tag_273:\n        /* \"#utility.yul\":8258:8377   */\n    tag_272:\n        /* \"#utility.yul\":8416:8417   */\n      0x00\n        /* \"#utility.yul\":8441:8494   */\n      tag_274\n        /* \"#utility.yul\":8486:8493   */\n      dup7\n        /* \"#utility.yul\":8477:8483   */\n      dup3\n        /* \"#utility.yul\":8466:8475   */\n      dup8\n        /* \"#utility.yul\":8462:8484   */\n      add\n        /* \"#utility.yul\":8441:8494   */\n      tag_147\n      jump\t// in\n    tag_274:\n        /* \"#utility.yul\":8431:8494   */\n      swap4\n      pop\n        /* \"#utility.yul\":8387:8504   */\n      pop\n        /* \"#utility.yul\":8543:8545   */\n      0x20\n        /* \"#utility.yul\":8569:8621   */\n      tag_275\n        /* \"#utility.yul\":8613:8620   */\n      dup7\n        /* \"#utility.yul\":8604:8610   */\n      dup3\n        /* \"#utility.yul\":8593:8602   */\n      dup8\n        /* \"#utility.yul\":8589:8611   */\n      add\n        /* \"#utility.yul\":8569:8621   */\n      tag_152\n      jump\t// in\n    tag_275:\n        /* \"#utility.yul\":8559:8621   */\n      swap3\n      pop\n        /* \"#utility.yul\":8514:8631   */\n      pop\n        /* \"#utility.yul\":8670:8672   */\n      0x40\n        /* \"#utility.yul\":8696:8746   */\n      tag_276\n        /* \"#utility.yul\":8738:8745   */\n      dup7\n        /* \"#utility.yul\":8729:8735   */\n      dup3\n        /* \"#utility.yul\":8718:8727   */\n      dup8\n        /* \"#utility.yul\":8714:8736   */\n      add\n        /* \"#utility.yul\":8696:8746   */\n      tag_159\n      jump\t// in\n    tag_276:\n        /* \"#utility.yul\":8686:8746   */\n      swap2\n      pop\n        /* \"#utility.yul\":8641:8756   */\n      pop\n        /* \"#utility.yul\":8152:8763   */\n      swap3\n      pop\n      swap3\n      pop\n      swap3\n      jump\t// out\n        /* \"#utility.yul\":8769:9237   */\n    tag_75:\n        /* \"#utility.yul\":8834:8840   */\n      0x00\n        /* \"#utility.yul\":8842:8848   */\n      dup1\n        /* \"#utility.yul\":8891:8893   */\n      0x40\n        /* \"#utility.yul\":8879:8888   */\n      dup4\n        /* \"#utility.yul\":8870:8877   */\n      dup6\n        /* \"#utility.yul\":8866:8889   */\n      sub\n        /* \"#utility.yul\":8862:8894   */\n      slt\n        /* \"#utility.yul\":8859:8978   */\n      iszero\n      tag_278\n      jumpi\n        /* \"#utility.yul\":8897:8976   */\n      tag_279\n      tag_142\n      jump\t// in\n    tag_279:\n        /* \"#utility.yul\":8859:8978   */\n    tag_278:\n        /* \"#utility.yul\":9017:9018   */\n      0x00\n        /* \"#utility.yul\":9042:9095   */\n      tag_280\n        /* \"#utility.yul\":9087:9094   */\n      dup6\n        /* \"#utility.yul\":9078:9084   */\n      dup3\n        /* \"#utility.yul\":9067:9076   */\n      dup7\n        /* \"#utility.yul\":9063:9085   */\n      add\n        /* \"#utility.yul\":9042:9095   */\n      tag_147\n      jump\t// in\n    tag_280:\n        /* \"#utility.yul\":9032:9095   */\n      swap3\n      pop\n        /* \"#utility.yul\":8988:9105   */\n      pop\n        /* \"#utility.yul\":9144:9146   */\n      0x20\n        /* \"#utility.yul\":9170:9220   */\n      tag_281\n        /* \"#utility.yul\":9212:9219   */\n      dup6\n        /* \"#utility.yul\":9203:9209   */\n      dup3\n        /* \"#utility.yul\":9192:9201   */\n      dup7\n        /* \"#utility.yul\":9188:9210   */\n      add\n        /* \"#utility.yul\":9170:9220   */\n      tag_159\n      jump\t// in\n    tag_281:\n        /* \"#utility.yul\":9160:9220   */\n      swap2\n      pop\n        /* \"#utility.yul\":9115:9230   */\n      pop\n        /* \"#utility.yul\":8769:9237   */\n      swap3\n      pop\n      swap3\n      swap1\n      pop\n      jump\t// out\n        /* \"#utility.yul\":9243:9358   */\n    tag_169:\n        /* \"#utility.yul\":9328:9351   */\n      tag_283\n        /* \"#utility.yul\":9345:9350   */\n      dup2\n        /* \"#utility.yul\":9328:9351   */\n      tag_150\n      jump\t// in\n    tag_283:\n        /* \"#utility.yul\":9323:9326   */\n      dup3\n        /* \"#utility.yul\":9316:9352   */\n      mstore\n        /* \"#utility.yul\":9243:9358   */\n      pop\n      pop\n      jump\t// out\n        /* \"#utility.yul\":9364:9802   */\n    tag_135:\n        /* \"#utility.yul\":9511:9515   */\n      0x00\n        /* \"#utility.yul\":9549:9551   */\n      0x60\n        /* \"#utility.yul\":9538:9547   */\n      dup3\n        /* \"#utility.yul\":9534:9552   */\n      add\n        /* \"#utility.yul\":9526:9552   */\n      swap1\n      pop\n        /* \"#utility.yul\":9562:9633   */\n      tag_285\n        /* \"#utility.yul\":9630:9631   */\n      0x00\n        /* \"#utility.yul\":9619:9628   */\n      dup4\n        /* \"#utility.yul\":9615:9632   */\n      add\n        /* \"#utility.yul\":9606:9612   */\n      dup7\n        /* \"#utility.yul\":9562:9633   */\n      tag_163\n      jump\t// in\n    tag_285:\n        /* \"#utility.yul\":9643:9715   */\n      tag_286\n        /* \"#utility.yul\":9711:9713   */\n      0x20\n        /* \"#utility.yul\":9700:9709   */\n      dup4\n        /* \"#utility.yul\":9696:9714   */\n      add\n        /* \"#utility.yul\":9687:9693   */\n      dup6\n        /* \"#utility.yul\":9643:9715   */\n      tag_163\n      jump\t// in\n    tag_286:\n        /* \"#utility.yul\":9725:9795   */\n      tag_287\n        /* \"#utility.yul\":9791:9793   */\n      0x40\n        /* \"#utility.yul\":9780:9789   */\n      dup4\n        /* \"#utility.yul\":9776:9794   */\n      add\n        /* \"#utility.yul\":9767:9773   */\n      dup5\n        /* \"#utility.yul\":9725:9795   */\n      tag_169\n      jump\t// in\n    tag_287:\n        /* \"#utility.yul\":9364:9802   */\n      swap5\n      swap4\n      pop\n      pop\n      pop\n      pop\n      jump\t// out\n        /* \"#utility.yul\":9808:9945   */\n    tag_170:\n        /* \"#utility.yul\":9862:9867   */\n      0x00\n        /* \"#utility.yul\":9893:9899   */\n      dup2\n        /* \"#utility.yul\":9887:9900   */\n      mload\n        /* \"#utility.yul\":9878:9900   */\n      swap1\n      pop\n        /* \"#utility.yul\":9909:9939   */\n      tag_289\n        /* \"#utility.yul\":9933:9938   */\n      dup2\n        /* \"#utility.yul\":9909:9939   */\n      tag_158\n      jump\t// in\n    tag_289:\n        /* \"#utility.yul\":9808:9945   */\n      swap3\n      swap2\n      pop\n      pop\n      jump\t// out\n        /* \"#utility.yul\":9951:10296   */\n    tag_139:\n        /* \"#utility.yul\":10018:10024   */\n      0x00\n        /* \"#utility.yul\":10067:10069   */\n      0x20\n        /* \"#utility.yul\":10055:10064   */\n      dup3\n        /* \"#utility.yul\":10046:10053   */\n      dup5\n        /* \"#utility.yul\":10042:10065   */\n      sub\n        /* \"#utility.yul\":10038:10070   */\n      slt\n        /* \"#utility.yul\":10035:10154   */\n      iszero\n      tag_291\n      jumpi\n        /* \"#utility.yul\":10073:10152   */\n      tag_292\n      tag_142\n      jump\t// in\n    tag_292:\n        /* \"#utility.yul\":10035:10154   */\n    tag_291:\n        /* \"#utility.yul\":10193:10194   */\n      0x00\n        /* \"#utility.yul\":10218:10279   */\n      tag_293\n        /* \"#utility.yul\":10271:10278   */\n      dup5\n        /* \"#utility.yul\":10262:10268   */\n      dup3\n        /* \"#utility.yul\":10251:10260   */\n      dup6\n        /* \"#utility.yul\":10247:10269   */\n      add\n        /* \"#utility.yul\":10218:10279   */\n      tag_170\n      jump\t// in\n    tag_293:\n        /* \"#utility.yul\":10208:10279   */\n      swap2\n      pop\n        /* \"#utility.yul\":10164:10289   */\n      pop\n        /* \"#utility.yul\":9951:10296   */\n      swap3\n      swap2\n      pop\n      pop\n      jump\t// out\n\n    auxdata: 0xa2646970667358221220a21e56a6ed913e5e9347b894d2127d61921ee464abcf18ded414e1180a0210c564736f6c63430008140033\n}\n",
				"bytecode": {
					"linkReferences": {},
					"object": "608060405234801561000f575f80fd5b503360015f6101000a81548173ffffffffffffffffffffffffffffffffffffffff021916908373ffffffffffffffffffffffffffffffffffffffff1602179055503373ffffffffffffffffffffffffffffffffffffffff167fce241d7ca1f669fee44b6fc00b8eba2df3bb514eed0f6f668f8f89096e81ed9460405160405180910390a26112e4806100a05f395ff3fe608060405234801561000f575f80fd5b50600436106100e8575f3560e01c80638da5cb5b1161008a578063bf7e214f11610064578063bf7e214f1461026a578063c6b0263e14610288578063d381ba7c146102a4578063fbf80773146102c0576100e8565b80638da5cb5b146101ec578063a078f7371461020a578063b70096131461023a576100e8565b80632f47571f116100c65780632f47571f1461016857806367aff484146101985780637a9e5e4b146101b45780637d40583d146101d0576100e8565b806306a36aee146100ec57806313af40351461011c57806327538e9014610138575b5f80fd5b61010660048036038101906101019190610dd7565b6102f0565b6040516101139190610e1a565b60405180910390f35b61013660048036038101906101319190610dd7565b610336565b005b610152600480360381019061014d9190610e88565b610412565b60405161015f9190610e1a565b60405180910390f35b610182600480360381019061017d9190610e88565b6104a6565b60405161018f9190610ee0565b60405180910390f35b6101b260048036038101906101ad9190610f59565b610546565b005b6101ce60048036038101906101c99190610fe4565b61066c565b005b6101ea60048036038101906101e5919061100f565b610745565b005b6101f4610953565b6040516102019190611082565b60405180910390f35b610224600480360381019061021f919061109b565b610978565b6040516102319190610ee0565b60405180910390f35b610254600480360381019061024f91906110d9565b6109a4565b6040516102619190610ee0565b60405180910390f35b6102726109fa565b60405161027f9190611184565b60405180910390f35b6102a2600480360381019061029d919061119d565b610a1d565b005b6102be60048036038101906102b991906111ed565b610af8565b005b6102da60048036038101906102d59190610dd7565b610b85565b6040516102e79190610ee0565b60405180910390f35b5f60035f8373ffffffffffffffffffffffffffffffffffffffff1673ffffffffffffffffffffffffffffffffffffffff1681526020019081526020015f20549050919050565b610363335f357fffffffff0000000000000000000000000000000000000000000000000000000016610bd7565b61036b575f80fd5b8060015f6101000a81548173ffffffffffffffffffffffffffffffffffffffff021916908373ffffffffffffffffffffffffffffffffffffffff16021790555060015f9054906101000a900473ffffffffffffffffffffffffffffffffffffffff1673ffffffffffffffffffffffffffffffffffffffff167fce241d7ca1f669fee44b6fc00b8eba2df3bb514eed0f6f668f8f89096e81ed9460405160405180910390a250565b5f60045f8473ffffffffffffffffffffffffffffffffffffffff1673ffffffffffffffffffffffffffffffffffffffff1681526020019081526020015f205f837bffffffffffffffffffffffffffffffffffffffffffffffffffffffff19167bffffffffffffffffffffffffffffffffffffffffffffffffffffffff191681526020019081526020015f2054905092915050565b5f60055f8473ffffffffffffffffffffffffffffffffffffffff1673ffffffffffffffffffffffffffffffffffffffff1681526020019081526020015f205f837bffffffffffffffffffffffffffffffffffffffffffffffffffffffff19167bffffffffffffffffffffffffffffffffffffffffffffffffffffffff191681526020019081526020015f205f9054906101000a900460ff16905092915050565b610573335f357fffffffff0000000000000000000000000000000000000000000000000000000016610bd7565b61057b575f80fd5b5f60035f8573ffffffffffffffffffffffffffffffffffffffff1673ffffffffffffffffffffffffffffffffffffffff1681526020019081526020015f205490505f8360ff166001901b5f1b905082156106185780821760035f8773ffffffffffffffffffffffffffffffffffffffff1673ffffffffffffffffffffffffffffffffffffffff1681526020019081526020015f2081905550610665565b61062181610d6f565b821660035f8773ffffffffffffffffffffffffffffffffffffffff1673ffffffffffffffffffffffffffffffffffffffff1681526020019081526020015f20819055505b5050505050565b610699335f357fffffffff0000000000000000000000000000000000000000000000000000000016610bd7565b6106a1575f80fd5b805f806101000a81548173ffffffffffffffffffffffffffffffffffffffff021916908373ffffffffffffffffffffffffffffffffffffffff1602179055505f8054906101000a900473ffffffffffffffffffffffffffffffffffffffff1673ffffffffffffffffffffffffffffffffffffffff167f1abebea81bfa2637f28358c371278fb15ede7ea8dd28d2e03b112ff6d936ada460405160405180910390a250565b610772335f357fffffffff0000000000000000000000000000000000000000000000000000000016610bd7565b61077a575f80fd5b5f60045f8573ffffffffffffffffffffffffffffffffffffffff1673ffffffffffffffffffffffffffffffffffffffff1681526020019081526020015f205f847bffffffffffffffffffffffffffffffffffffffffffffffffffffffff19167bffffffffffffffffffffffffffffffffffffffffffffffffffffffff191681526020019081526020015f205490505f8560ff166001901b5f1b905082156108b15780821760045f8773ffffffffffffffffffffffffffffffffffffffff1673ffffffffffffffffffffffffffffffffffffffff1681526020019081526020015f205f867bffffffffffffffffffffffffffffffffffffffffffffffffffffffff19167bffffffffffffffffffffffffffffffffffffffffffffffffffffffff191681526020019081526020015f208190555061094b565b6108ba81610d6f565b821660045f8773ffffffffffffffffffffffffffffffffffffffff1673ffffffffffffffffffffffffffffffffffffffff1681526020019081526020015f205f867bffffffffffffffffffffffffffffffffffffffffffffffffffffffff19167bffffffffffffffffffffffffffffffffffffffffffffffffffffffff191681526020019081526020015f20819055505b505050505050565b60015f9054906101000a900473ffffffffffffffffffffffffffffffffffffffff1681565b5f80610983846102f0565b90505f8360ff166001901b5f1b90508082165f801b14159250505092915050565b5f6109ae84610b85565b806109bf57506109be83836104a6565b5b156109cd57600190506109f3565b5f6109d7856102f0565b90505f6109e48585610412565b90508082165f801b1415925050505b9392505050565b5f8054906101000a900473ffffffffffffffffffffffffffffffffffffffff1681565b610a4a335f357fffffffff0000000000000000000000000000000000000000000000000000000016610bd7565b610a52575f80fd5b8060055f8573ffffffffffffffffffffffffffffffffffffffff1673ffffffffffffffffffffffffffffffffffffffff1681526020019081526020015f205f847bffffffffffffffffffffffffffffffffffffffffffffffffffffffff19167bffffffffffffffffffffffffffffffffffffffffffffffffffffffff191681526020019081526020015f205f6101000a81548160ff021916908315150217905550505050565b610b25335f357fffffffff0000000000000000000000000000000000000000000000000000000016610bd7565b610b2d575f80fd5b8060025f8473ffffffffffffffffffffffffffffffffffffffff1673ffffffffffffffffffffffffffffffffffffffff1681526020019081526020015f205f6101000a81548160ff0219169083151502179055505050565b5f60025f8373ffffffffffffffffffffffffffffffffffffffff1673ffffffffffffffffffffffffffffffffffffffff1681526020019081526020015f205f9054906101000a900460ff169050919050565b5f3073ffffffffffffffffffffffffffffffffffffffff168373ffffffffffffffffffffffffffffffffffffffff1603610c145760019050610d69565b60015f9054906101000a900473ffffffffffffffffffffffffffffffffffffffff1673ffffffffffffffffffffffffffffffffffffffff168373ffffffffffffffffffffffffffffffffffffffff1603610c715760019050610d69565b5f73ffffffffffffffffffffffffffffffffffffffff165f8054906101000a900473ffffffffffffffffffffffffffffffffffffffff1673ffffffffffffffffffffffffffffffffffffffff1603610ccb575f9050610d69565b5f8054906101000a900473ffffffffffffffffffffffffffffffffffffffff1673ffffffffffffffffffffffffffffffffffffffff1663b70096138430856040518463ffffffff1660e01b8152600401610d279392919061123a565b602060405180830381865afa158015610d42573d5f803e3d5ffd5b505050506040513d601f19601f82011682018060405250810190610d669190611283565b90505b92915050565b5f81199050919050565b5f80fd5b5f73ffffffffffffffffffffffffffffffffffffffff82169050919050565b5f610da682610d7d565b9050919050565b610db681610d9c565b8114610dc0575f80fd5b50565b5f81359050610dd181610dad565b92915050565b5f60208284031215610dec57610deb610d79565b5b5f610df984828501610dc3565b91505092915050565b5f819050919050565b610e1481610e02565b82525050565b5f602082019050610e2d5f830184610e0b565b92915050565b5f7fffffffff0000000000000000000000000000000000000000000000000000000082169050919050565b610e6781610e33565b8114610e71575f80fd5b50565b5f81359050610e8281610e5e565b92915050565b5f8060408385031215610e9e57610e9d610d79565b5b5f610eab85828601610dc3565b9250506020610ebc85828601610e74565b9150509250929050565b5f8115159050919050565b610eda81610ec6565b82525050565b5f602082019050610ef35f830184610ed1565b92915050565b5f60ff82169050919050565b610f0e81610ef9565b8114610f18575f80fd5b50565b5f81359050610f2981610f05565b92915050565b610f3881610ec6565b8114610f42575f80fd5b50565b5f81359050610f5381610f2f565b92915050565b5f805f60608486031215610f7057610f6f610d79565b5b5f610f7d86828701610dc3565b9350506020610f8e86828701610f1b565b9250506040610f9f86828701610f45565b9150509250925092565b5f610fb382610d9c565b9050919050565b610fc381610fa9565b8114610fcd575f80fd5b50565b5f81359050610fde81610fba565b92915050565b5f60208284031215610ff957610ff8610d79565b5b5f61100684828501610fd0565b91505092915050565b5f805f806080858703121561102757611026610d79565b5b5f61103487828801610f1b565b945050602061104587828801610dc3565b935050604061105687828801610e74565b925050606061106787828801610f45565b91505092959194509250565b61107c81610d9c565b82525050565b5f6020820190506110955f830184611073565b92915050565b5f80604083850312156110b1576110b0610d79565b5b5f6110be85828601610dc3565b92505060206110cf85828601610f1b565b9150509250929050565b5f805f606084860312156110f0576110ef610d79565b5b5f6110fd86828701610dc3565b935050602061110e86828701610dc3565b925050604061111f86828701610e74565b9150509250925092565b5f819050919050565b5f61114c61114761114284610d7d565b611129565b610d7d565b9050919050565b5f61115d82611132565b9050919050565b5f61116e82611153565b9050919050565b61117e81611164565b82525050565b5f6020820190506111975f830184611175565b92915050565b5f805f606084860312156111b4576111b3610d79565b5b5f6111c186828701610dc3565b93505060206111d286828701610e74565b92505060406111e386828701610f45565b9150509250925092565b5f806040838503121561120357611202610d79565b5b5f61121085828601610dc3565b925050602061122185828601610f45565b9150509250929050565b61123481610e33565b82525050565b5f60608201905061124d5f830186611073565b61125a6020830185611073565b611267604083018461122b565b949350505050565b5f8151905061127d81610f2f565b92915050565b5f6020828403121561129857611297610d79565b5b5f6112a58482850161126f565b9150509291505056fea2646970667358221220a21e56a6ed913e5e9347b894d2127d61921ee464abcf18ded414e1180a0210c564736f6c63430008140033",
					"opcodes": "PUSH1 0x80 PUSH1 0x40 MSTORE CALLVALUE DUP1 ISZERO PUSH2 0xF JUMPI PUSH0 DUP1 REVERT JUMPDEST POP CALLER PUSH1 0x1 PUSH0 PUSH2 0x100 EXP DUP2 SLOAD DUP2 PUSH20 0xFFFFFFFFFFFFFFFFFFFFFFFFFFFFFFFFFFFFFFFF MUL NOT AND SWAP1 DUP4 PUSH20 0xFFFFFFFFFFFFFFFFFFFFFFFFFFFFFFFFFFFFFFFF AND MUL OR SWAP1 SSTORE POP CALLER PUSH20 0xFFFFFFFFFFFFFFFFFFFFFFFFFFFFFFFFFFFFFFFF AND PUSH32 0xCE241D7CA1F669FEE44B6FC00B8EBA2DF3BB514EED0F6F668F8F89096E81ED94 PUSH1 0x40 MLOAD PUSH1 0x40 MLOAD DUP1 SWAP2 SUB SWAP1 LOG2 PUSH2 0x12E4 DUP1 PUSH2 0xA0 PUSH0 CODECOPY PUSH0 RETURN INVALID PUSH1 0x80 PUSH1 0x40 MSTORE CALLVALUE DUP1 ISZERO PUSH2 0xF JUMPI PUSH0 DUP1 REVERT JUMPDEST POP PUSH1 0x4 CALLDATASIZE LT PUSH2 0xE8 JUMPI PUSH0 CALLDATALOAD PUSH1 0xE0 SHR DUP1 PUSH4 0x8DA5CB5B GT PUSH2 0x8A JUMPI DUP1 PUSH4 0xBF7E214F GT PUSH2 0x64 JUMPI DUP1 PUSH4 0xBF7E214F EQ PUSH2 0x26A JUMPI DUP1 PUSH4 0xC6B0263E EQ PUSH2 0x288 JUMPI DUP1 PUSH4 0xD381BA7C EQ PUSH2 0x2A4 JUMPI DUP1 PUSH4 0xFBF80773 EQ PUSH2 0x2C0 JUMPI PUSH2 0xE8 JUMP JUMPDEST DUP1 PUSH4 0x8DA5CB5B EQ PUSH2 0x1EC JUMPI DUP1 PUSH4 0xA078F737 EQ PUSH2 0x20A JUMPI DUP1 PUSH4 0xB7009613 EQ PUSH2 0x23A JUMPI PUSH2 0xE8 JUMP JUMPDEST DUP1 PUSH4 0x2F47571F GT PUSH2 0xC6 JUMPI DUP1 PUSH4 0x2F47571F EQ PUSH2 0x168 JUMPI DUP1 PUSH4 0x67AFF484 EQ PUSH2 0x198 JUMPI DUP1 PUSH4 0x7A9E5E4B EQ PUSH2 0x1B4 JUMPI DUP1 PUSH4 0x7D40583D EQ PUSH2 0x1D0 JUMPI PUSH2 0xE8 JUMP JUMPDEST DUP1 PUSH4 0x6A36AEE EQ PUSH2 0xEC JUMPI DUP1 PUSH4 0x13AF4035 EQ PUSH2 0x11C JUMPI DUP1 PUSH4 0x27538E90 EQ PUSH2 0x138 JUMPI JUMPDEST PUSH0 DUP1 REVERT JUMPDEST PUSH2 0x106 PUSH1 0x4 DUP1 CALLDATASIZE SUB DUP2 ADD SWAP1 PUSH2 0x101 SWAP2 SWAP1 PUSH2 0xDD7 JUMP JUMPDEST PUSH2 0x2F0 JUMP JUMPDEST PUSH1 0x40 MLOAD PUSH2 0x113 SWAP2 SWAP1 PUSH2 0xE1A JUMP JUMPDEST PUSH1 0x40 MLOAD DUP1 SWAP2 SUB SWAP1 RETURN JUMPDEST PUSH2 0x136 PUSH1 0x4 DUP1 CALLDATASIZE SUB DUP2 ADD SWAP1 PUSH2 0x131 SWAP2 SWAP1 PUSH2 0xDD7 JUMP JUMPDEST PUSH2 0x336 JUMP JUMPDEST STOP JUMPDEST PUSH2 0x152 PUSH1 0x4 DUP1 CALLDATASIZE SUB DUP2 ADD SWAP1 PUSH2 0x14D SWAP2 SWAP1 PUSH2 0xE88 JUMP JUMPDEST PUSH2 0x412 JUMP JUMPDEST PUSH1 0x40 MLOAD PUSH2 0x15F SWAP2 SWAP1 PUSH2 0xE1A JUMP JUMPDEST PUSH1 0x40 MLOAD DUP1 SWAP2 SUB SWAP1 RETURN JUMPDEST PUSH2 0x182 PUSH1 0x4 DUP1 CALLDATASIZE SUB DUP2 ADD SWAP1 PUSH2 0x17D SWAP2 SWAP1 PUSH2 0xE88 JUMP JUMPDEST PUSH2 0x4A6 JUMP JUMPDEST PUSH1 0x40 MLOAD PUSH2 0x18F SWAP2 SWAP1 PUSH2 0xEE0 JUMP JUMPDEST PUSH1 0x40 MLOAD DUP1 SWAP2 SUB SWAP1 RETURN JUMPDEST PUSH2 0x1B2 PUSH1 0x4 DUP1 CALLDATASIZE SUB DUP2 ADD SWAP1 PUSH2 0x1AD SWAP2 SWAP1 PUSH2 0xF59 JUMP JUMPDEST PUSH2 0x546 JUMP JUMPDEST STOP JUMPDEST PUSH2 0x1CE PUSH1 0x4 DUP1 CALLDATASIZE SUB DUP2 ADD SWAP1 PUSH2 0x1C9 SWAP2 SWAP1 PUSH2 0xFE4 JUMP JUMPDEST PUSH2 0x66C JUMP JUMPDEST STOP JUMPDEST PUSH2 0x1EA PUSH1 0x4 DUP1 CALLDATASIZE SUB DUP2 ADD SWAP1 PUSH2 0x1E5 SWAP2 SWAP1 PUSH2 0x100F JUMP JUMPDEST PUSH2 0x745 JUMP JUMPDEST STOP JUMPDEST PUSH2 0x1F4 PUSH2 0x953 JUMP JUMPDEST PUSH1 0x40 MLOAD PUSH2 0x201 SWAP2 SWAP1 PUSH2 0x1082 JUMP JUMPDEST PUSH1 0x40 MLOAD DUP1 SWAP2 SUB SWAP1 RETURN JUMPDEST PUSH2 0x224 PUSH1 0x4 DUP1 CALLDATASIZE SUB DUP2 ADD SWAP1 PUSH2 0x21F SWAP2 SWAP1 PUSH2 0x109B JUMP JUMPDEST PUSH2 0x978 JUMP JUMPDEST PUSH1 0x40 MLOAD PUSH2 0x231 SWAP2 SWAP1 PUSH2 0xEE0 JUMP JUMPDEST PUSH1 0x40 MLOAD DUP1 SWAP2 SUB SWAP1 RETURN JUMPDEST PUSH2 0x254 PUSH1 0x4 DUP1 CALLDATASIZE SUB DUP2 ADD SWAP1 PUSH2 0x24F SWAP2 SWAP1 PUSH2 0x10D9 JUMP JUMPDEST PUSH2 0x9A4 JUMP JUMPDEST PUSH1 0x40 MLOAD PUSH2 0x261 SWAP2 SWAP1 PUSH2 0xEE0 JUMP JUMPDEST PUSH1 0x40 MLOAD DUP1 SWAP2 SUB SWAP1 RETURN JUMPDEST PUSH2 0x272 PUSH2 0x9FA JUMP JUMPDEST PUSH1 0x40 MLOAD PUSH2 0x27F SWAP2 SWAP1 PUSH2 0x1184 JUMP JUMPDEST PUSH1 0x40 MLOAD DUP1 SWAP2 SUB SWAP1 RETURN JUMPDEST PUSH2 0x2A2 PUSH1 0x4 DUP1 CALLDATASIZE SUB DUP2 ADD SWAP1 PUSH2 0x29D SWAP2 SWAP1 PUSH2 0x119D JUMP JUMPDEST PUSH2 0xA1D JUMP JUMPDEST STOP JUMPDEST PUSH2 0x2BE PUSH1 0x4 DUP1 CALLDATASIZE SUB DUP2 ADD SWAP1 PUSH2 0x2B9 SWAP2 SWAP1 PUSH2 0x11ED JUMP JUMPDEST PUSH2 0xAF8 JUMP JUMPDEST STOP JUMPDEST PUSH2 0x2DA PUSH1 0x4 DUP1 CALLDATASIZE SUB DUP2 ADD SWAP1 PUSH2 0x2D5 SWAP2 SWAP1 PUSH2 0xDD7 JUMP JUMPDEST PUSH2 0xB85 JUMP JUMPDEST PUSH1 0x40 MLOAD PUSH2 0x2E7 SWAP2 SWAP1 PUSH2 0xEE0 JUMP JUMPDEST PUSH1 0x40 MLOAD DUP1 SWAP2 SUB SWAP1 RETURN JUMPDEST PUSH0 PUSH1 0x3 PUSH0 DUP4 PUSH20 0xFFFFFFFFFFFFFFFFFFFFFFFFFFFFFFFFFFFFFFFF AND PUSH20 0xFFFFFFFFFFFFFFFFFFFFFFFFFFFFFFFFFFFFFFFF AND DUP2 MSTORE PUSH1 0x20 ADD SWAP1 DUP2 MSTORE PUSH1 0x20 ADD PUSH0 KECCAK256 SLOAD SWAP1 POP SWAP2 SWAP1 POP JUMP JUMPDEST PUSH2 0x363 CALLER PUSH0 CALLDATALOAD PUSH32 0xFFFFFFFF00000000000000000000000000000000000000000000000000000000 AND PUSH2 0xBD7 JUMP JUMPDEST PUSH2 0x36B JUMPI PUSH0 DUP1 REVERT JUMPDEST DUP1 PUSH1 0x1 PUSH0 PUSH2 0x100 EXP DUP2 SLOAD DUP2 PUSH20 0xFFFFFFFFFFFFFFFFFFFFFFFFFFFFFFFFFFFFFFFF MUL NOT AND SWAP1 DUP4 PUSH20 0xFFFFFFFFFFFFFFFFFFFFFFFFFFFFFFFFFFFFFFFF AND MUL OR SWAP1 SSTORE POP PUSH1 0x1 PUSH0 SWAP1 SLOAD SWAP1 PUSH2 0x100 EXP SWAP1 DIV PUSH20 0xFFFFFFFFFFFFFFFFFFFFFFFFFFFFFFFFFFFFFFFF AND PUSH20 0xFFFFFFFFFFFFFFFFFFFFFFFFFFFFFFFFFFFFFFFF AND PUSH32 0xCE241D7CA1F669FEE44B6FC00B8EBA2DF3BB514EED0F6F668F8F89096E81ED94 PUSH1 0x40 MLOAD PUSH1 0x40 MLOAD DUP1 SWAP2 SUB SWAP1 LOG2 POP JUMP JUMPDEST PUSH0 PUSH1 0x4 PUSH0 DUP5 PUSH20 0xFFFFFFFFFFFFFFFFFFFFFFFFFFFFFFFFFFFFFFFF AND PUSH20 0xFFFFFFFFFFFFFFFFFFFFFFFFFFFFFFFFFFFFFFFF AND DUP2 MSTORE PUSH1 0x20 ADD SWAP1 DUP2 MSTORE PUSH1 0x20 ADD PUSH0 KECCAK256 PUSH0 DUP4 PUSH28 0xFFFFFFFFFFFFFFFFFFFFFFFFFFFFFFFFFFFFFFFFFFFFFFFFFFFFFFFF NOT AND PUSH28 0xFFFFFFFFFFFFFFFFFFFFFFFFFFFFFFFFFFFFFFFFFFFFFFFFFFFFFFFF NOT AND DUP2 MSTORE PUSH1 0x20 ADD SWAP1 DUP2 MSTORE PUSH1 0x20 ADD PUSH0 KECCAK256 SLOAD SWAP1 POP SWAP3 SWAP2 POP POP JUMP JUMPDEST PUSH0 PUSH1 0x5 PUSH0 DUP5 PUSH20 0xFFFFFFFFFFFFFFFFFFFFFFFFFFFFFFFFFFFFFFFF AND PUSH20 0xFFFFFFFFFFFFFFFFFFFFFFFFFFFFFFFFFFFFFFFF AND DUP2 MSTORE PUSH1 0x20 ADD SWAP1 DUP2 MSTORE PUSH1 0x20 ADD PUSH0 KECCAK256 PUSH0 DUP4 PUSH28 0xFFFFFFFFFFFFFFFFFFFFFFFFFFFFFFFFFFFFFFFFFFFFFFFFFFFFFFFF NOT AND PUSH28 0xFFFFFFFFFFFFFFFFFFFFFFFFFFFFFFFFFFFFFFFFFFFFFFFFFFFFFFFF NOT AND DUP2 MSTORE PUSH1 0x20 ADD SWAP1 DUP2 MSTORE PUSH1 0x20 ADD PUSH0 KECCAK256 PUSH0 SWAP1 SLOAD SWAP1 PUSH2 0x100 EXP SWAP1 DIV PUSH1 0xFF AND SWAP1 POP SWAP3 SWAP2 POP POP JUMP JUMPDEST PUSH2 0x573 CALLER PUSH0 CALLDATALOAD PUSH32 0xFFFFFFFF00000000000000000000000000000000000000000000000000000000 AND PUSH2 0xBD7 JUMP JUMPDEST PUSH2 0x57B JUMPI PUSH0 DUP1 REVERT JUMPDEST PUSH0 PUSH1 0x3 PUSH0 DUP6 PUSH20 0xFFFFFFFFFFFFFFFFFFFFFFFFFFFFFFFFFFFFFFFF AND PUSH20 0xFFFFFFFFFFFFFFFFFFFFFFFFFFFFFFFFFFFFFFFF AND DUP2 MSTORE PUSH1 0x20 ADD SWAP1 DUP2 MSTORE PUSH1 0x20 ADD PUSH0 KECCAK256 SLOAD SWAP1 POP PUSH0 DUP4 PUSH1 0xFF AND PUSH1 0x1 SWAP1 SHL PUSH0 SHL SWAP1 POP DUP3 ISZERO PUSH2 0x618 JUMPI DUP1 DUP3 OR PUSH1 0x3 PUSH0 DUP8 PUSH20 0xFFFFFFFFFFFFFFFFFFFFFFFFFFFFFFFFFFFFFFFF AND PUSH20 0xFFFFFFFFFFFFFFFFFFFFFFFFFFFFFFFFFFFFFFFF AND DUP2 MSTORE PUSH1 0x20 ADD SWAP1 DUP2 MSTORE PUSH1 0x20 ADD PUSH0 KECCAK256 DUP2 SWAP1 SSTORE POP PUSH2 0x665 JUMP JUMPDEST PUSH2 0x621 DUP2 PUSH2 0xD6F JUMP JUMPDEST DUP3 AND PUSH1 0x3 PUSH0 DUP8 PUSH20 0xFFFFFFFFFFFFFFFFFFFFFFFFFFFFFFFFFFFFFFFF AND PUSH20 0xFFFFFFFFFFFFFFFFFFFFFFFFFFFFFFFFFFFFFFFF AND DUP2 MSTORE PUSH1 0x20 ADD SWAP1 DUP2 MSTORE PUSH1 0x20 ADD PUSH0 KECCAK256 DUP2 SWAP1 SSTORE POP JUMPDEST POP POP POP POP POP JUMP JUMPDEST PUSH2 0x699 CALLER PUSH0 CALLDATALOAD PUSH32 0xFFFFFFFF00000000000000000000000000000000000000000000000000000000 AND PUSH2 0xBD7 JUMP JUMPDEST PUSH2 0x6A1 JUMPI PUSH0 DUP1 REVERT JUMPDEST DUP1 PUSH0 DUP1 PUSH2 0x100 EXP DUP2 SLOAD DUP2 PUSH20 0xFFFFFFFFFFFFFFFFFFFFFFFFFFFFFFFFFFFFFFFF MUL NOT AND SWAP1 DUP4 PUSH20 0xFFFFFFFFFFFFFFFFFFFFFFFFFFFFFFFFFFFFFFFF AND MUL OR SWAP1 SSTORE POP PUSH0 DUP1 SLOAD SWAP1 PUSH2 0x100 EXP SWAP1 DIV PUSH20 0xFFFFFFFFFFFFFFFFFFFFFFFFFFFFFFFFFFFFFFFF AND PUSH20 0xFFFFFFFFFFFFFFFFFFFFFFFFFFFFFFFFFFFFFFFF AND PUSH32 0x1ABEBEA81BFA2637F28358C371278FB15EDE7EA8DD28D2E03B112FF6D936ADA4 PUSH1 0x40 MLOAD PUSH1 0x40 MLOAD DUP1 SWAP2 SUB SWAP1 LOG2 POP JUMP JUMPDEST PUSH2 0x772 CALLER PUSH0 CALLDATALOAD PUSH32 0xFFFFFFFF00000000000000000000000000000000000000000000000000000000 AND PUSH2 0xBD7 JUMP JUMPDEST PUSH2 0x77A JUMPI PUSH0 DUP1 REVERT JUMPDEST PUSH0 PUSH1 0x4 PUSH0 DUP6 PUSH20 0xFFFFFFFFFFFFFFFFFFFFFFFFFFFFFFFFFFFFFFFF AND PUSH20 0xFFFFFFFFFFFFFFFFFFFFFFFFFFFFFFFFFFFFFFFF AND DUP2 MSTORE PUSH1 0x20 ADD SWAP1 DUP2 MSTORE PUSH1 0x20 ADD PUSH0 KECCAK256 PUSH0 DUP5 PUSH28 0xFFFFFFFFFFFFFFFFFFFFFFFFFFFFFFFFFFFFFFFFFFFFFFFFFFFFFFFF NOT AND PUSH28 0xFFFFFFFFFFFFFFFFFFFFFFFFFFFFFFFFFFFFFFFFFFFFFFFFFFFFFFFF NOT AND DUP2 MSTORE PUSH1 0x20 ADD SWAP1 DUP2 MSTORE PUSH1 0x20 ADD PUSH0 KECCAK256 SLOAD SWAP1 POP PUSH0 DUP6 PUSH1 0xFF AND PUSH1 0x1 SWAP1 SHL PUSH0 SHL SWAP1 POP DUP3 ISZERO PUSH2 0x8B1 JUMPI DUP1 DUP3 OR PUSH1 0x4 PUSH0 DUP8 PUSH20 0xFFFFFFFFFFFFFFFFFFFFFFFFFFFFFFFFFFFFFFFF AND PUSH20 0xFFFFFFFFFFFFFFFFFFFFFFFFFFFFFFFFFFFFFFFF AND DUP2 MSTORE PUSH1 0x20 ADD SWAP1 DUP2 MSTORE PUSH1 0x20 ADD PUSH0 KECCAK256 PUSH0 DUP7 PUSH28 0xFFFFFFFFFFFFFFFFFFFFFFFFFFFFFFFFFFFFFFFFFFFFFFFFFFFFFFFF NOT AND PUSH28 0xFFFFFFFFFFFFFFFFFFFFFFFFFFFFFFFFFFFFFFFFFFFFFFFFFFFFFFFF NOT AND DUP2 MSTORE PUSH1 0x20 ADD SWAP1 DUP2 MSTORE PUSH1 0x20 ADD PUSH0 KECCAK256 DUP2 SWAP1 SSTORE POP PUSH2 0x94B JUMP JUMPDEST PUSH2 0x8BA DUP2 PUSH2 0xD6F JUMP JUMPDEST DUP3 AND PUSH1 0x4 PUSH0 DUP8 PUSH20 0xFFFFFFFFFFFFFFFFFFFFFFFFFFFFFFFFFFFFFFFF AND PUSH20 0xFFFFFFFFFFFFFFFFFFFFFFFFFFFFFFFFFFFFFFFF AND DUP2 MSTORE PUSH1 0x20 ADD SWAP1 DUP2 MSTORE PUSH1 0x20 ADD PUSH0 KECCAK256 PUSH0 DUP7 PUSH28 0xFFFFFFFFFFFFFFFFFFFFFFFFFFFFFFFFFFFFFFFFFFFFFFFFFFFFFFFF NOT AND PUSH28 0xFFFFFFFFFFFFFFFFFFFFFFFFFFFFFFFFFFFFFFFFFFFFFFFFFFFFFFFF NOT AND DUP2 MSTORE PUSH1 0x20 ADD SWAP1 DUP2 MSTORE PUSH1 0x20 ADD PUSH0 KECCAK256 DUP2 SWAP1 SSTORE POP JUMPDEST POP POP POP POP POP POP JUMP JUMPDEST PUSH1 0x1 PUSH0 SWAP1 SLOAD SWAP1 PUSH2 0x100 EXP SWAP1 DIV PUSH20 0xFFFFFFFFFFFFFFFFFFFFFFFFFFFFFFFFFFFFFFFF AND DUP2 JUMP JUMPDEST PUSH0 DUP1 PUSH2 0x983 DUP5 PUSH2 0x2F0 JUMP JUMPDEST SWAP1 POP PUSH0 DUP4 PUSH1 0xFF AND PUSH1 0x1 SWAP1 SHL PUSH0 SHL SWAP1 POP DUP1 DUP3 AND PUSH0 DUP1 SHL EQ ISZERO SWAP3 POP POP POP SWAP3 SWAP2 POP POP JUMP JUMPDEST PUSH0 PUSH2 0x9AE DUP5 PUSH2 0xB85 JUMP JUMPDEST DUP1 PUSH2 0x9BF JUMPI POP PUSH2 0x9BE DUP4 DUP4 PUSH2 0x4A6 JUMP JUMPDEST JUMPDEST ISZERO PUSH2 0x9CD JUMPI PUSH1 0x1 SWAP1 POP PUSH2 0x9F3 JUMP JUMPDEST PUSH0 PUSH2 0x9D7 DUP6 PUSH2 0x2F0 JUMP JUMPDEST SWAP1 POP PUSH0 PUSH2 0x9E4 DUP6 DUP6 PUSH2 0x412 JUMP JUMPDEST SWAP1 POP DUP1 DUP3 AND PUSH0 DUP1 SHL EQ ISZERO SWAP3 POP POP POP JUMPDEST SWAP4 SWAP3 POP POP POP JUMP JUMPDEST PUSH0 DUP1 SLOAD SWAP1 PUSH2 0x100 EXP SWAP1 DIV PUSH20 0xFFFFFFFFFFFFFFFFFFFFFFFFFFFFFFFFFFFFFFFF AND DUP2 JUMP JUMPDEST PUSH2 0xA4A CALLER PUSH0 CALLDATALOAD PUSH32 0xFFFFFFFF00000000000000000000000000000000000000000000000000000000 AND PUSH2 0xBD7 JUMP JUMPDEST PUSH2 0xA52 JUMPI PUSH0 DUP1 REVERT JUMPDEST DUP1 PUSH1 0x5 PUSH0 DUP6 PUSH20 0xFFFFFFFFFFFFFFFFFFFFFFFFFFFFFFFFFFFFFFFF AND PUSH20 0xFFFFFFFFFFFFFFFFFFFFFFFFFFFFFFFFFFFFFFFF AND DUP2 MSTORE PUSH1 0x20 ADD SWAP1 DUP2 MSTORE PUSH1 0x20 ADD PUSH0 KECCAK256 PUSH0 DUP5 PUSH28 0xFFFFFFFFFFFFFFFFFFFFFFFFFFFFFFFFFFFFFFFFFFFFFFFFFFFFFFFF NOT AND PUSH28 0xFFFFFFFFFFFFFFFFFFFFFFFFFFFFFFFFFFFFFFFFFFFFFFFFFFFFFFFF NOT AND DUP2 MSTORE PUSH1 0x20 ADD SWAP1 DUP2 MSTORE PUSH1 0x20 ADD PUSH0 KECCAK256 PUSH0 PUSH2 0x100 EXP DUP2 SLOAD DUP2 PUSH1 0xFF MUL NOT AND SWAP1 DUP4 ISZERO ISZERO MUL OR SWAP1 SSTORE POP POP POP POP JUMP JUMPDEST PUSH2 0xB25 CALLER PUSH0 CALLDATALOAD PUSH32 0xFFFFFFFF00000000000000000000000000000000000000000000000000000000 AND PUSH2 0xBD7 JUMP JUMPDEST PUSH2 0xB2D JUMPI PUSH0 DUP1 REVERT JUMPDEST DUP1 PUSH1 0x2 PUSH0 DUP5 PUSH20 0xFFFFFFFFFFFFFFFFFFFFFFFFFFFFFFFFFFFFFFFF AND PUSH20 0xFFFFFFFFFFFFFFFFFFFFFFFFFFFFFFFFFFFFFFFF AND DUP2 MSTORE PUSH1 0x20 ADD SWAP1 DUP2 MSTORE PUSH1 0x20 ADD PUSH0 KECCAK256 PUSH0 PUSH2 0x100 EXP DUP2 SLOAD DUP2 PUSH1 0xFF MUL NOT AND SWAP1 DUP4 ISZERO ISZERO MUL OR SWAP1 SSTORE POP POP POP JUMP JUMPDEST PUSH0 PUSH1 0x2 PUSH0 DUP4 PUSH20 0xFFFFFFFFFFFFFFFFFFFFFFFFFFFFFFFFFFFFFFFF AND PUSH20 0xFFFFFFFFFFFFFFFFFFFFFFFFFFFFFFFFFFFFFFFF AND DUP2 MSTORE PUSH1 0x20 ADD SWAP1 DUP2 MSTORE PUSH1 0x20 ADD PUSH0 KECCAK256 PUSH0 SWAP1 SLOAD SWAP1 PUSH2 0x100 EXP SWAP1 DIV PUSH1 0xFF AND SWAP1 POP SWAP2 SWAP1 POP JUMP JUMPDEST PUSH0 ADDRESS PUSH20 0xFFFFFFFFFFFFFFFFFFFFFFFFFFFFFFFFFFFFFFFF AND DUP4 PUSH20 0xFFFFFFFFFFFFFFFFFFFFFFFFFFFFFFFFFFFFFFFF AND SUB PUSH2 0xC14 JUMPI PUSH1 0x1 SWAP1 POP PUSH2 0xD69 JUMP JUMPDEST PUSH1 0x1 PUSH0 SWAP1 SLOAD SWAP1 PUSH2 0x100 EXP SWAP1 DIV PUSH20 0xFFFFFFFFFFFFFFFFFFFFFFFFFFFFFFFFFFFFFFFF AND PUSH20 0xFFFFFFFFFFFFFFFFFFFFFFFFFFFFFFFFFFFFFFFF AND DUP4 PUSH20 0xFFFFFFFFFFFFFFFFFFFFFFFFFFFFFFFFFFFFFFFF AND SUB PUSH2 0xC71 JUMPI PUSH1 0x1 SWAP1 POP PUSH2 0xD69 JUMP JUMPDEST PUSH0 PUSH20 0xFFFFFFFFFFFFFFFFFFFFFFFFFFFFFFFFFFFFFFFF AND PUSH0 DUP1 SLOAD SWAP1 PUSH2 0x100 EXP SWAP1 DIV PUSH20 0xFFFFFFFFFFFFFFFFFFFFFFFFFFFFFFFFFFFFFFFF AND PUSH20 0xFFFFFFFFFFFFFFFFFFFFFFFFFFFFFFFFFFFFFFFF AND SUB PUSH2 0xCCB JUMPI PUSH0 SWAP1 POP PUSH2 0xD69 JUMP JUMPDEST PUSH0 DUP1 SLOAD SWAP1 PUSH2 0x100 EXP SWAP1 DIV PUSH20 0xFFFFFFFFFFFFFFFFFFFFFFFFFFFFFFFFFFFFFFFF AND PUSH20 0xFFFFFFFFFFFFFFFFFFFFFFFFFFFFFFFFFFFFFFFF AND PUSH4 0xB7009613 DUP5 ADDRESS DUP6 PUSH1 0x40 MLOAD DUP5 PUSH4 0xFFFFFFFF AND PUSH1 0xE0 SHL DUP2 MSTORE PUSH1 0x4 ADD PUSH2 0xD27 SWAP4 SWAP3 SWAP2 SWAP1 PUSH2 0x123A JUMP JUMPDEST PUSH1 0x20 PUSH1 0x40 MLOAD DUP1 DUP4 SUB DUP2 DUP7 GAS STATICCALL ISZERO DUP1 ISZERO PUSH2 0xD42 JUMPI RETURNDATASIZE PUSH0 DUP1 RETURNDATACOPY RETURNDATASIZE PUSH0 REVERT JUMPDEST POP POP POP POP PUSH1 0x40 MLOAD RETURNDATASIZE PUSH1 0x1F NOT PUSH1 0x1F DUP3 ADD AND DUP3 ADD DUP1 PUSH1 0x40 MSTORE POP DUP2 ADD SWAP1 PUSH2 0xD66 SWAP2 SWAP1 PUSH2 0x1283 JUMP JUMPDEST SWAP1 POP JUMPDEST SWAP3 SWAP2 POP POP JUMP JUMPDEST PUSH0 DUP2 NOT SWAP1 POP SWAP2 SWAP1 POP JUMP JUMPDEST PUSH0 DUP1 REVERT JUMPDEST PUSH0 PUSH20 0xFFFFFFFFFFFFFFFFFFFFFFFFFFFFFFFFFFFFFFFF DUP3 AND SWAP1 POP SWAP2 SWAP1 POP JUMP JUMPDEST PUSH0 PUSH2 0xDA6 DUP3 PUSH2 0xD7D JUMP JUMPDEST SWAP1 POP SWAP2 SWAP1 POP JUMP JUMPDEST PUSH2 0xDB6 DUP2 PUSH2 0xD9C JUMP JUMPDEST DUP2 EQ PUSH2 0xDC0 JUMPI PUSH0 DUP1 REVERT JUMPDEST POP JUMP JUMPDEST PUSH0 DUP2 CALLDATALOAD SWAP1 POP PUSH2 0xDD1 DUP2 PUSH2 0xDAD JUMP JUMPDEST SWAP3 SWAP2 POP POP JUMP JUMPDEST PUSH0 PUSH1 0x20 DUP3 DUP5 SUB SLT ISZERO PUSH2 0xDEC JUMPI PUSH2 0xDEB PUSH2 0xD79 JUMP JUMPDEST JUMPDEST PUSH0 PUSH2 0xDF9 DUP5 DUP3 DUP6 ADD PUSH2 0xDC3 JUMP JUMPDEST SWAP2 POP POP SWAP3 SWAP2 POP POP JUMP JUMPDEST PUSH0 DUP2 SWAP1 POP SWAP2 SWAP1 POP JUMP JUMPDEST PUSH2 0xE14 DUP2 PUSH2 0xE02 JUMP JUMPDEST DUP3 MSTORE POP POP JUMP JUMPDEST PUSH0 PUSH1 0x20 DUP3 ADD SWAP1 POP PUSH2 0xE2D PUSH0 DUP4 ADD DUP5 PUSH2 0xE0B JUMP JUMPDEST SWAP3 SWAP2 POP POP JUMP JUMPDEST PUSH0 PUSH32 0xFFFFFFFF00000000000000000000000000000000000000000000000000000000 DUP3 AND SWAP1 POP SWAP2 SWAP1 POP JUMP JUMPDEST PUSH2 0xE67 DUP2 PUSH2 0xE33 JUMP JUMPDEST DUP2 EQ PUSH2 0xE71 JUMPI PUSH0 DUP1 REVERT JUMPDEST POP JUMP JUMPDEST PUSH0 DUP2 CALLDATALOAD SWAP1 POP PUSH2 0xE82 DUP2 PUSH2 0xE5E JUMP JUMPDEST SWAP3 SWAP2 POP POP JUMP JUMPDEST PUSH0 DUP1 PUSH1 0x40 DUP4 DUP6 SUB SLT ISZERO PUSH2 0xE9E JUMPI PUSH2 0xE9D PUSH2 0xD79 JUMP JUMPDEST JUMPDEST PUSH0 PUSH2 0xEAB DUP6 DUP3 DUP7 ADD PUSH2 0xDC3 JUMP JUMPDEST SWAP3 POP POP PUSH1 0x20 PUSH2 0xEBC DUP6 DUP3 DUP7 ADD PUSH2 0xE74 JUMP JUMPDEST SWAP2 POP POP SWAP3 POP SWAP3 SWAP1 POP JUMP JUMPDEST PUSH0 DUP2 ISZERO ISZERO SWAP1 POP SWAP2 SWAP1 POP JUMP JUMPDEST PUSH2 0xEDA DUP2 PUSH2 0xEC6 JUMP JUMPDEST DUP3 MSTORE POP POP JUMP JUMPDEST PUSH0 PUSH1 0x20 DUP3 ADD SWAP1 POP PUSH2 0xEF3 PUSH0 DUP4 ADD DUP5 PUSH2 0xED1 JUMP JUMPDEST SWAP3 SWAP2 POP POP JUMP JUMPDEST PUSH0 PUSH1 0xFF DUP3 AND SWAP1 POP SWAP2 SWAP1 POP JUMP JUMPDEST PUSH2 0xF0E DUP2 PUSH2 0xEF9 JUMP JUMPDEST DUP2 EQ PUSH2 0xF18 JUMPI PUSH0 DUP1 REVERT JUMPDEST POP JUMP JUMPDEST PUSH0 DUP2 CALLDATALOAD SWAP1 POP PUSH2 0xF29 DUP2 PUSH2 0xF05 JUMP JUMPDEST SWAP3 SWAP2 POP POP JUMP JUMPDEST PUSH2 0xF38 DUP2 PUSH2 0xEC6 JUMP JUMPDEST DUP2 EQ PUSH2 0xF42 JUMPI PUSH0 DUP1 REVERT JUMPDEST POP JUMP JUMPDEST PUSH0 DUP2 CALLDATALOAD SWAP1 POP PUSH2 0xF53 DUP2 PUSH2 0xF2F JUMP JUMPDEST SWAP3 SWAP2 POP POP JUMP JUMPDEST PUSH0 DUP1 PUSH0 PUSH1 0x60 DUP5 DUP7 SUB SLT ISZERO PUSH2 0xF70 JUMPI PUSH2 0xF6F PUSH2 0xD79 JUMP JUMPDEST JUMPDEST PUSH0 PUSH2 0xF7D DUP7 DUP3 DUP8 ADD PUSH2 0xDC3 JUMP JUMPDEST SWAP4 POP POP PUSH1 0x20 PUSH2 0xF8E DUP7 DUP3 DUP8 ADD PUSH2 0xF1B JUMP JUMPDEST SWAP3 POP POP PUSH1 0x40 PUSH2 0xF9F DUP7 DUP3 DUP8 ADD PUSH2 0xF45 JUMP JUMPDEST SWAP2 POP POP SWAP3 POP SWAP3 POP SWAP3 JUMP JUMPDEST PUSH0 PUSH2 0xFB3 DUP3 PUSH2 0xD9C JUMP JUMPDEST SWAP1 POP SWAP2 SWAP1 POP JUMP JUMPDEST PUSH2 0xFC3 DUP2 PUSH2 0xFA9 JUMP JUMPDEST DUP2 EQ PUSH2 0xFCD JUMPI PUSH0 DUP1 REVERT JUMPDEST POP JUMP JUMPDEST PUSH0 DUP2 CALLDATALOAD SWAP1 POP PUSH2 0xFDE DUP2 PUSH2 0xFBA JUMP JUMPDEST SWAP3 SWAP2 POP POP JUMP JUMPDEST PUSH0 PUSH1 0x20 DUP3 DUP5 SUB SLT ISZERO PUSH2 0xFF9 JUMPI PUSH2 0xFF8 PUSH2 0xD79 JUMP JUMPDEST JUMPDEST PUSH0 PUSH2 0x1006 DUP5 DUP3 DUP6 ADD PUSH2 0xFD0 JUMP JUMPDEST SWAP2 POP POP SWAP3 SWAP2 POP POP JUMP JUMPDEST PUSH0 DUP1 PUSH0 DUP1 PUSH1 0x80 DUP6 DUP8 SUB SLT ISZERO PUSH2 0x1027 JUMPI PUSH2 0x1026 PUSH2 0xD79 JUMP JUMPDEST JUMPDEST PUSH0 PUSH2 0x1034 DUP8 DUP3 DUP9 ADD PUSH2 0xF1B JUMP JUMPDEST SWAP5 POP POP PUSH1 0x20 PUSH2 0x1045 DUP8 DUP3 DUP9 ADD PUSH2 0xDC3 JUMP JUMPDEST SWAP4 POP POP PUSH1 0x40 PUSH2 0x1056 DUP8 DUP3 DUP9 ADD PUSH2 0xE74 JUMP JUMPDEST SWAP3 POP POP PUSH1 0x60 PUSH2 0x1067 DUP8 DUP3 DUP9 ADD PUSH2 0xF45 JUMP JUMPDEST SWAP2 POP POP SWAP3 SWAP6 SWAP2 SWAP5 POP SWAP3 POP JUMP JUMPDEST PUSH2 0x107C DUP2 PUSH2 0xD9C JUMP JUMPDEST DUP3 MSTORE POP POP JUMP JUMPDEST PUSH0 PUSH1 0x20 DUP3 ADD SWAP1 POP PUSH2 0x1095 PUSH0 DUP4 ADD DUP5 PUSH2 0x1073 JUMP JUMPDEST SWAP3 SWAP2 POP POP JUMP JUMPDEST PUSH0 DUP1 PUSH1 0x40 DUP4 DUP6 SUB SLT ISZERO PUSH2 0x10B1 JUMPI PUSH2 0x10B0 PUSH2 0xD79 JUMP JUMPDEST JUMPDEST PUSH0 PUSH2 0x10BE DUP6 DUP3 DUP7 ADD PUSH2 0xDC3 JUMP JUMPDEST SWAP3 POP POP PUSH1 0x20 PUSH2 0x10CF DUP6 DUP3 DUP7 ADD PUSH2 0xF1B JUMP JUMPDEST SWAP2 POP POP SWAP3 POP SWAP3 SWAP1 POP JUMP JUMPDEST PUSH0 DUP1 PUSH0 PUSH1 0x60 DUP5 DUP7 SUB SLT ISZERO PUSH2 0x10F0 JUMPI PUSH2 0x10EF PUSH2 0xD79 JUMP JUMPDEST JUMPDEST PUSH0 PUSH2 0x10FD DUP7 DUP3 DUP8 ADD PUSH2 0xDC3 JUMP JUMPDEST SWAP4 POP POP PUSH1 0x20 PUSH2 0x110E DUP7 DUP3 DUP8 ADD PUSH2 0xDC3 JUMP JUMPDEST SWAP3 POP POP PUSH1 0x40 PUSH2 0x111F DUP7 DUP3 DUP8 ADD PUSH2 0xE74 JUMP JUMPDEST SWAP2 POP POP SWAP3 POP SWAP3 POP SWAP3 JUMP JUMPDEST PUSH0 DUP2 SWAP1 POP SWAP2 SWAP1 POP JUMP JUMPDEST PUSH0 PUSH2 0x114C PUSH2 0x1147 PUSH2 0x1142 DUP5 PUSH2 0xD7D JUMP JUMPDEST PUSH2 0x1129 JUMP JUMPDEST PUSH2 0xD7D JUMP JUMPDEST SWAP1 POP SWAP2 SWAP1 POP JUMP JUMPDEST PUSH0 PUSH2 0x115D DUP3 PUSH2 0x1132 JUMP JUMPDEST SWAP1 POP SWAP2 SWAP1 POP JUMP JUMPDEST PUSH0 PUSH2 0x116E DUP3 PUSH2 0x1153 JUMP JUMPDEST SWAP1 POP SWAP2 SWAP1 POP JUMP JUMPDEST PUSH2 0x117E DUP2 PUSH2 0x1164 JUMP JUMPDEST DUP3 MSTORE POP POP JUMP JUMPDEST PUSH0 PUSH1 0x20 DUP3 ADD SWAP1 POP PUSH2 0x1197 PUSH0 DUP4 ADD DUP5 PUSH2 0x1175 JUMP JUMPDEST SWAP3 SWAP2 POP POP JUMP JUMPDEST PUSH0 DUP1 PUSH0 PUSH1 0x60 DUP5 DUP7 SUB SLT ISZERO PUSH2 0x11B4 JUMPI PUSH2 0x11B3 PUSH2 0xD79 JUMP JUMPDEST JUMPDEST PUSH0 PUSH2 0x11C1 DUP7 DUP3 DUP8 ADD PUSH2 0xDC3 JUMP JUMPDEST SWAP4 POP POP PUSH1 0x20 PUSH2 0x11D2 DUP7 DUP3 DUP8 ADD PUSH2 0xE74 JUMP JUMPDEST SWAP3 POP POP PUSH1 0x40 PUSH2 0x11E3 DUP7 DUP3 DUP8 ADD PUSH2 0xF45 JUMP JUMPDEST SWAP2 POP POP SWAP3 POP SWAP3 POP SWAP3 JUMP JUMPDEST PUSH0 DUP1 PUSH1 0x40 DUP4 DUP6 SUB SLT ISZERO PUSH2 0x1203 JUMPI PUSH2 0x1202 PUSH2 0xD79 JUMP JUMPDEST JUMPDEST PUSH0 PUSH2 0x1210 DUP6 DUP3 DUP7 ADD PUSH2 0xDC3 JUMP JUMPDEST SWAP3 POP POP PUSH1 0x20 PUSH2 0x1221 DUP6 DUP3 DUP7 ADD PUSH2 0xF45 JUMP JUMPDEST SWAP2 POP POP SWAP3 POP SWAP3 SWAP1 POP JUMP JUMPDEST PUSH2 0x1234 DUP2 PUSH2 0xE33 JUMP JUMPDEST DUP3 MSTORE POP POP JUMP JUMPDEST PUSH0 PUSH1 0x60 DUP3 ADD SWAP1 POP PUSH2 0x124D PUSH0 DUP4 ADD DUP7 PUSH2 0x1073 JUMP JUMPDEST PUSH2 0x125A PUSH1 0x20 DUP4 ADD DUP6 PUSH2 0x1073 JUMP JUMPDEST PUSH2 0x1267 PUSH1 0x40 DUP4 ADD DUP5 PUSH2 0x122B JUMP JUMPDEST SWAP5 SWAP4 POP POP POP POP JUMP JUMPDEST PUSH0 DUP2 MLOAD SWAP1 POP PUSH2 0x127D DUP2 PUSH2 0xF2F JUMP JUMPDEST SWAP3 SWAP2 POP POP JUMP JUMPDEST PUSH0 PUSH1 0x20 DUP3 DUP5 SUB SLT ISZERO PUSH2 0x1298 JUMPI PUSH2 0x1297 PUSH2 0xD79 JUMP JUMPDEST JUMPDEST PUSH0 PUSH2 0x12A5 DUP5 DUP3 DUP6 ADD PUSH2 0x126F JUMP JUMPDEST SWAP2 POP POP SWAP3 SWAP2 POP POP JUMP INVALID LOG2 PUSH5 0x6970667358 0x22 SLT KECCAK256 LOG2 0x1E JUMP 0xA6 0xED SWAP2 RETURNDATACOPY 0x5E SWAP4 SELFBALANCE 0xB8 SWAP5 0xD2 SLT PUSH30 0x61921EE464ABCF18DED414E1180A0210C564736F6C634300081400330000 "
				},
				"gasEstimates": {
					"creation": {
						"codeDepositCost": "967200",
						"executionCost": "26431",
						"totalCost": "993631"
					},
					"external": {
						"authority()": "infinite",
						"canCall(address,address,bytes4)": "infinite",
						"getCapabilityRoles(address,bytes4)": "3168",
						"getUserRoles(address)": "2853",
						"hasUserRole(address,uint8)": "3164",
						"isCapabilityPublic(address,bytes4)": "3164",
						"isUserRoot(address)": "2958",
						"owner()": "2531",
						"setAuthority(address)": "infinite",
						"setOwner(address)": "infinite",
						"setPublicCapability(address,bytes4,bool)": "infinite",
						"setRoleCapability(uint8,address,bytes4,bool)": "infinite",
						"setRootUser(address,bool)": "infinite",
						"setUserRole(address,uint8,bool)": "infinite"
					},
					"internal": {
						"BITNOT(bytes32)": "30"
					}
				},
				"methodIdentifiers": {
					"authority()": "bf7e214f",
					"canCall(address,address,bytes4)": "b7009613",
					"getCapabilityRoles(address,bytes4)": "27538e90",
					"getUserRoles(address)": "06a36aee",
					"hasUserRole(address,uint8)": "a078f737",
					"isCapabilityPublic(address,bytes4)": "2f47571f",
					"isUserRoot(address)": "fbf80773",
					"owner()": "8da5cb5b",
					"setAuthority(address)": "7a9e5e4b",
					"setOwner(address)": "13af4035",
					"setPublicCapability(address,bytes4,bool)": "c6b0263e",
					"setRoleCapability(uint8,address,bytes4,bool)": "7d40583d",
					"setRootUser(address,bool)": "d381ba7c",
					"setUserRole(address,uint8,bool)": "67aff484"
				}
			},
			"storageLayout": {
				"storage": [
					{
						"astId": 27,
						"contract": "ds-roles/roles.sol:DSRoles",
						"label": "authority",
						"offset": 0,
						"slot": "0",
						"type": "t_contract(DSAuthority)13"
					},
					{
						"astId": 29,
						"contract": "ds-roles/roles.sol:DSRoles",
						"label": "owner",
						"offset": 0,
						"slot": "1",
						"type": "t_address"
					},
					{
						"astId": 155,
						"contract": "ds-roles/roles.sol:DSRoles",
						"label": "_root_users",
						"offset": 0,
						"slot": "2",
						"type": "t_mapping(t_address,t_bool)"
					},
					{
						"astId": 159,
						"contract": "ds-roles/roles.sol:DSRoles",
						"label": "_user_roles",
						"offset": 0,
						"slot": "3",
						"type": "t_mapping(t_address,t_bytes32)"
					},
					{
						"astId": 165,
						"contract": "ds-roles/roles.sol:DSRoles",
						"label": "_capability_roles",
						"offset": 0,
						"slot": "4",
						"type": "t_mapping(t_address,t_mapping(t_bytes4,t_bytes32))"
					},
					{
						"astId": 171,
						"contract": "ds-roles/roles.sol:DSRoles",
						"label": "_public_capabilities",
						"offset": 0,
						"slot": "5",
						"type": "t_mapping(t_address,t_mapping(t_bytes4,t_bool))"
					}
				],
				"types": {
					"t_address": {
						"encoding": "inplace",
						"label": "address",
						"numberOfBytes": "20"
					},
					"t_bool": {
						"encoding": "inplace",
						"label": "bool",
						"numberOfBytes": "1"
					},
					"t_bytes32": {
						"encoding": "inplace",
						"label": "bytes32",
						"numberOfBytes": "32"
					},
					"t_bytes4": {
						"encoding": "inplace",
						"label": "bytes4",
						"numberOfBytes": "4"
					},
					"t_contract(DSAuthority)13": {
						"encoding": "inplace",
						"label": "contract DSAuthority",
						"numberOfBytes": "20"
					},
					"t_mapping(t_address,t_bool)": {
						"encoding": "mapping",
						"key": "t_address",
						"label": "mapping(address => bool)",
						"numberOfBytes": "32",
						"value": "t_bool"
					},
					"t_mapping(t_address,t_bytes32)": {
						"encoding": "mapping",
						"key": "t_address",
						"label": "mapping(address => bytes32)",
						"numberOfBytes": "32",
						"value": "t_bytes32"
					},
					"t_mapping(t_address,t_mapping(t_bytes4,t_bool))": {
						"encoding": "mapping",
						"key": "t_address",
						"label": "mapping(address => mapping(bytes4 => bool))",
						"numberOfBytes": "32",
						"value": "t_mapping(t_bytes4,t_bool)"
					},
					"t_mapping(t_address,t_mapping(t_bytes4,t_bytes32))": {
						"encoding": "mapping",
						"key": "t_address",
						"label": "mapping(address => mapping(bytes4 => bytes32))",
						"numberOfBytes": "32",
						"value": "t_mapping(t_bytes4,t_bytes32)"
					},
					"t_mapping(t_bytes4,t_bool)": {
						"encoding": "mapping",
						"key": "t_bytes4",
						"label": "mapping(bytes4 => bool)",
						"numberOfBytes": "32",
						"value": "t_bool"
					},
					"t_mapping(t_bytes4,t_bytes32)": {
						"encoding": "mapping",
						"key": "t_bytes4",
						"label": "mapping(bytes4 => bytes32)",
						"numberOfBytes": "32",
						"value": "t_bytes32"
					}
				}
			},
			"userdoc": {
				"kind": "user",
				"methods": {},
				"version": 1
			}
		}
	}
}