{
	"/ds-auth/auth.sol": {
		"DSAuth": {
			"abi": [
				{
					"inputs": [],
					"stateMutability": "nonpayable",
					"type": "constructor"
				},
				{
					"anonymous": false,
					"inputs": [
						{
							"indexed": true,
							"internalType": "address",
							"name": "authority",
							"type": "address"
						}
					],
					"name": "LogSetAuthority",
					"type": "event"
				},
				{
					"anonymous": false,
					"inputs": [
						{
							"indexed": true,
							"internalType": "address",
							"name": "owner",
							"type": "address"
						}
					],
					"name": "LogSetOwner",
					"type": "event"
				},
				{
					"inputs": [],
					"name": "authority",
					"outputs": [
						{
							"internalType": "contract DSAuthority",
							"name": "",
							"type": "address"
						}
					],
					"stateMutability": "view",
					"type": "function"
				},
				{
					"inputs": [],
					"name": "owner",
					"outputs": [
						{
							"internalType": "address",
							"name": "",
							"type": "address"
						}
					],
					"stateMutability": "view",
					"type": "function"
				},
				{
					"inputs": [
						{
							"internalType": "contract DSAuthority",
							"name": "authority_",
							"type": "address"
						}
					],
					"name": "setAuthority",
					"outputs": [],
					"stateMutability": "nonpayable",
					"type": "function"
				},
				{
					"inputs": [
						{
							"internalType": "address",
							"name": "owner_",
							"type": "address"
						}
					],
					"name": "setOwner",
					"outputs": [],
					"stateMutability": "nonpayable",
					"type": "function"
				}
			],
			"devdoc": {
				"kind": "dev",
				"methods": {},
				"version": 1
			},
			"evm": {
				"assembly": "    /* \"/ds-auth/auth.sol\":945:1925  contract DSAuth is DSAuthEvents {... */\n  mstore(0x40, 0x80)\n    /* \"/ds-auth/auth.sol\":1052:1145  constructor() public {... */\n  callvalue\n  dup1\n  iszero\n  tag_1\n  jumpi\n  0x00\n  dup1\n  revert\ntag_1:\n  pop\n    /* \"/ds-auth/auth.sol\":1091:1101  msg.sender */\n  caller\n    /* \"/ds-auth/auth.sol\":1083:1088  owner */\n  0x01\n  0x00\n    /* \"/ds-auth/auth.sol\":1083:1101  owner = msg.sender */\n  0x0100\n  exp\n  dup2\n  sload\n  dup2\n  0xffffffffffffffffffffffffffffffffffffffff\n  mul\n  not\n  and\n  swap1\n  dup4\n  0xffffffffffffffffffffffffffffffffffffffff\n  and\n  mul\n  or\n  swap1\n  sstore\n  pop\n    /* \"/ds-auth/auth.sol\":1127:1137  msg.sender */\n  caller\n    /* \"/ds-auth/auth.sol\":1115:1138  LogSetOwner(msg.sender) */\n  0xffffffffffffffffffffffffffffffffffffffff\n  and\n  0xce241d7ca1f669fee44b6fc00b8eba2df3bb514eed0f6f668f8f89096e81ed94\n  mload(0x40)\n  mload(0x40)\n  dup1\n  swap2\n  sub\n  swap1\n  log2\n    /* \"/ds-auth/auth.sol\":945:1925  contract DSAuth is DSAuthEvents {... */\n  dataSize(sub_0)\n  dup1\n  dataOffset(sub_0)\n  0x00\n  codecopy\n  0x00\n  return\nstop\n\nsub_0: assembly {\n        /* \"/ds-auth/auth.sol\":945:1925  contract DSAuth is DSAuthEvents {... */\n      mstore(0x40, 0x80)\n      callvalue\n      dup1\n      iszero\n      tag_1\n      jumpi\n      0x00\n      dup1\n      revert\n    tag_1:\n      pop\n      jumpi(tag_2, lt(calldatasize, 0x04))\n      shr(0xe0, calldataload(0x00))\n      dup1\n      0x13af4035\n      eq\n      tag_3\n      jumpi\n      dup1\n      0x7a9e5e4b\n      eq\n      tag_4\n      jumpi\n      dup1\n      0x8da5cb5b\n      eq\n      tag_5\n      jumpi\n      dup1\n      0xbf7e214f\n      eq\n      tag_6\n      jumpi\n    tag_2:\n      0x00\n      dup1\n      revert\n        /* \"/ds-auth/auth.sol\":1151:1280  function setOwner(address owner_)... */\n    tag_3:\n      tag_7\n      0x04\n      dup1\n      calldatasize\n      sub\n      dup2\n      add\n      swap1\n      tag_8\n      swap2\n      swap1\n      tag_9\n      jump\t// in\n    tag_8:\n      tag_10\n      jump\t// in\n    tag_7:\n      stop\n        /* \"/ds-auth/auth.sol\":1286:1452  function setAuthority(DSAuthority authority_)... */\n    tag_4:\n      tag_11\n      0x04\n      dup1\n      calldatasize\n      sub\n      dup2\n      add\n      swap1\n      tag_12\n      swap2\n      swap1\n      tag_13\n      jump\t// in\n    tag_12:\n      tag_14\n      jump\t// in\n    tag_11:\n      stop\n        /* \"/ds-auth/auth.sol\":1019:1045  address      public  owner */\n    tag_5:\n      tag_15\n      tag_16\n      jump\t// in\n    tag_15:\n      mload(0x40)\n      tag_17\n      swap2\n      swap1\n      tag_18\n      jump\t// in\n    tag_17:\n      mload(0x40)\n      dup1\n      swap2\n      sub\n      swap1\n      return\n        /* \"/ds-auth/auth.sol\":983:1013  DSAuthority  public  authority */\n    tag_6:\n      tag_19\n      tag_20\n      jump\t// in\n    tag_19:\n      mload(0x40)\n      tag_21\n      swap2\n      swap1\n      tag_22\n      jump\t// in\n    tag_21:\n      mload(0x40)\n      dup1\n      swap2\n      sub\n      swap1\n      return\n        /* \"/ds-auth/auth.sol\":1151:1280  function setOwner(address owner_)... */\n    tag_10:\n        /* \"/ds-auth/auth.sol\":1490:1523  isAuthorized(msg.sender, msg.sig) */\n      tag_24\n        /* \"/ds-auth/auth.sol\":1503:1513  msg.sender */\n      caller\n        /* \"/ds-auth/auth.sol\":1515:1522  msg.sig */\n      and(0xffffffff00000000000000000000000000000000000000000000000000000000, calldataload(0x00))\n        /* \"/ds-auth/auth.sol\":1490:1502  isAuthorized */\n      tag_25\n        /* \"/ds-auth/auth.sol\":1490:1523  isAuthorized(msg.sender, msg.sig) */\n      jump\t// in\n    tag_24:\n        /* \"/ds-auth/auth.sol\":1482:1524  require(isAuthorized(msg.sender, msg.sig)) */\n      tag_26\n      jumpi\n      0x00\n      dup1\n      revert\n    tag_26:\n        /* \"/ds-auth/auth.sol\":1235:1241  owner_ */\n      dup1\n        /* \"/ds-auth/auth.sol\":1227:1232  owner */\n      0x01\n      0x00\n        /* \"/ds-auth/auth.sol\":1227:1241  owner = owner_ */\n      0x0100\n      exp\n      dup2\n      sload\n      dup2\n      0xffffffffffffffffffffffffffffffffffffffff\n      mul\n      not\n      and\n      swap1\n      dup4\n      0xffffffffffffffffffffffffffffffffffffffff\n      and\n      mul\n      or\n      swap1\n      sstore\n      pop\n        /* \"/ds-auth/auth.sol\":1267:1272  owner */\n      0x01\n      0x00\n      swap1\n      sload\n      swap1\n      0x0100\n      exp\n      swap1\n      div\n      0xffffffffffffffffffffffffffffffffffffffff\n      and\n        /* \"/ds-auth/auth.sol\":1255:1273  LogSetOwner(owner) */\n      0xffffffffffffffffffffffffffffffffffffffff\n      and\n      0xce241d7ca1f669fee44b6fc00b8eba2df3bb514eed0f6f668f8f89096e81ed94\n      mload(0x40)\n      mload(0x40)\n      dup1\n      swap2\n      sub\n      swap1\n      log2\n        /* \"/ds-auth/auth.sol\":1151:1280  function setOwner(address owner_)... */\n      pop\n      jump\t// out\n        /* \"/ds-auth/auth.sol\":1286:1452  function setAuthority(DSAuthority authority_)... */\n    tag_14:\n        /* \"/ds-auth/auth.sol\":1490:1523  isAuthorized(msg.sender, msg.sig) */\n      tag_29\n        /* \"/ds-auth/auth.sol\":1503:1513  msg.sender */\n      caller\n        /* \"/ds-auth/auth.sol\":1515:1522  msg.sig */\n      and(0xffffffff00000000000000000000000000000000000000000000000000000000, calldataload(0x00))\n        /* \"/ds-auth/auth.sol\":1490:1502  isAuthorized */\n      tag_25\n        /* \"/ds-auth/auth.sol\":1490:1523  isAuthorized(msg.sender, msg.sig) */\n      jump\t// in\n    tag_29:\n        /* \"/ds-auth/auth.sol\":1482:1524  require(isAuthorized(msg.sender, msg.sig)) */\n      tag_30\n      jumpi\n      0x00\n      dup1\n      revert\n    tag_30:\n        /* \"/ds-auth/auth.sol\":1386:1396  authority_ */\n      dup1\n        /* \"/ds-auth/auth.sol\":1374:1383  authority */\n      0x00\n      dup1\n        /* \"/ds-auth/auth.sol\":1374:1396  authority = authority_ */\n      0x0100\n      exp\n      dup2\n      sload\n      dup2\n      0xffffffffffffffffffffffffffffffffffffffff\n      mul\n      not\n      and\n      swap1\n      dup4\n      0xffffffffffffffffffffffffffffffffffffffff\n      and\n      mul\n      or\n      swap1\n      sstore\n      pop\n        /* \"/ds-auth/auth.sol\":1434:1443  authority */\n      0x00\n      dup1\n      sload\n      swap1\n      0x0100\n      exp\n      swap1\n      div\n      0xffffffffffffffffffffffffffffffffffffffff\n      and\n        /* \"/ds-auth/auth.sol\":1410:1445  LogSetAuthority(address(authority)) */\n      0xffffffffffffffffffffffffffffffffffffffff\n      and\n      0x1abebea81bfa2637f28358c371278fb15ede7ea8dd28d2e03b112ff6d936ada4\n      mload(0x40)\n      mload(0x40)\n      dup1\n      swap2\n      sub\n      swap1\n      log2\n        /* \"/ds-auth/auth.sol\":1286:1452  function setAuthority(DSAuthority authority_)... */\n      pop\n      jump\t// out\n        /* \"/ds-auth/auth.sol\":1019:1045  address      public  owner */\n    tag_16:\n      0x01\n      0x00\n      swap1\n      sload\n      swap1\n      0x0100\n      exp\n      swap1\n      div\n      0xffffffffffffffffffffffffffffffffffffffff\n      and\n      dup2\n      jump\t// out\n        /* \"/ds-auth/auth.sol\":983:1013  DSAuthority  public  authority */\n    tag_20:\n      0x00\n      dup1\n      sload\n      swap1\n      0x0100\n      exp\n      swap1\n      div\n      0xffffffffffffffffffffffffffffffffffffffff\n      and\n      dup2\n      jump\t// out\n        /* \"/ds-auth/auth.sol\":1548:1923  function isAuthorized(address src, bytes4 sig) internal view returns (bool) {... */\n    tag_25:\n        /* \"/ds-auth/auth.sol\":1618:1622  bool */\n      0x00\n        /* \"/ds-auth/auth.sol\":1653:1657  this */\n      address\n        /* \"/ds-auth/auth.sol\":1638:1658  src == address(this) */\n      0xffffffffffffffffffffffffffffffffffffffff\n      and\n        /* \"/ds-auth/auth.sol\":1638:1641  src */\n      dup4\n        /* \"/ds-auth/auth.sol\":1638:1658  src == address(this) */\n      0xffffffffffffffffffffffffffffffffffffffff\n      and\n      sub\n        /* \"/ds-auth/auth.sol\":1634:1917  if (src == address(this)) {... */\n      tag_33\n      jumpi\n        /* \"/ds-auth/auth.sol\":1681:1685  true */\n      0x01\n        /* \"/ds-auth/auth.sol\":1674:1685  return true */\n      swap1\n      pop\n      jump(tag_32)\n        /* \"/ds-auth/auth.sol\":1634:1917  if (src == address(this)) {... */\n    tag_33:\n        /* \"/ds-auth/auth.sol\":1713:1718  owner */\n      0x01\n      0x00\n      swap1\n      sload\n      swap1\n      0x0100\n      exp\n      swap1\n      div\n      0xffffffffffffffffffffffffffffffffffffffff\n      and\n        /* \"/ds-auth/auth.sol\":1706:1718  src == owner */\n      0xffffffffffffffffffffffffffffffffffffffff\n      and\n        /* \"/ds-auth/auth.sol\":1706:1709  src */\n      dup4\n        /* \"/ds-auth/auth.sol\":1706:1718  src == owner */\n      0xffffffffffffffffffffffffffffffffffffffff\n      and\n      sub\n        /* \"/ds-auth/auth.sol\":1702:1917  if (src == owner) {... */\n      tag_35\n      jumpi\n        /* \"/ds-auth/auth.sol\":1741:1745  true */\n      0x01\n        /* \"/ds-auth/auth.sol\":1734:1745  return true */\n      swap1\n      pop\n      jump(tag_32)\n        /* \"/ds-auth/auth.sol\":1702:1917  if (src == owner) {... */\n    tag_35:\n        /* \"/ds-auth/auth.sol\":1796:1797  0 */\n      0x00\n        /* \"/ds-auth/auth.sol\":1766:1798  address(authority) == address(0) */\n      0xffffffffffffffffffffffffffffffffffffffff\n      and\n        /* \"/ds-auth/auth.sol\":1774:1783  authority */\n      0x00\n      dup1\n      sload\n      swap1\n      0x0100\n      exp\n      swap1\n      div\n      0xffffffffffffffffffffffffffffffffffffffff\n      and\n        /* \"/ds-auth/auth.sol\":1766:1798  address(authority) == address(0) */\n      0xffffffffffffffffffffffffffffffffffffffff\n      and\n      sub\n        /* \"/ds-auth/auth.sol\":1762:1917  if (address(authority) == address(0)) {... */\n      tag_37\n      jumpi\n        /* \"/ds-auth/auth.sol\":1821:1826  false */\n      0x00\n        /* \"/ds-auth/auth.sol\":1814:1826  return false */\n      swap1\n      pop\n      jump(tag_32)\n        /* \"/ds-auth/auth.sol\":1762:1917  if (address(authority) == address(0)) {... */\n    tag_37:\n        /* \"/ds-auth/auth.sol\":1864:1873  authority */\n      0x00\n      dup1\n      sload\n      swap1\n      0x0100\n      exp\n      swap1\n      div\n      0xffffffffffffffffffffffffffffffffffffffff\n      and\n        /* \"/ds-auth/auth.sol\":1864:1881  authority.canCall */\n      0xffffffffffffffffffffffffffffffffffffffff\n      and\n      0xb7009613\n        /* \"/ds-auth/auth.sol\":1882:1885  src */\n      dup5\n        /* \"/ds-auth/auth.sol\":1895:1899  this */\n      address\n        /* \"/ds-auth/auth.sol\":1902:1905  sig */\n      dup6\n        /* \"/ds-auth/auth.sol\":1864:1906  authority.canCall(src, address(this), sig) */\n      mload(0x40)\n      dup5\n      0xffffffff\n      and\n      0xe0\n      shl\n      dup2\n      mstore\n      0x04\n      add\n      tag_39\n      swap4\n      swap3\n      swap2\n      swap1\n      tag_40\n      jump\t// in\n    tag_39:\n      0x20\n      mload(0x40)\n      dup1\n      dup4\n      sub\n      dup2\n      dup7\n      gas\n      staticcall\n      iszero\n      dup1\n      iszero\n      tag_42\n      jumpi\n      returndatasize\n      0x00\n      dup1\n      returndatacopy\n      revert(0x00, returndatasize)\n    tag_42:\n      pop\n      pop\n      pop\n      pop\n      mload(0x40)\n      returndatasize\n      not(0x1f)\n      0x1f\n      dup3\n      add\n      and\n      dup3\n      add\n      dup1\n      0x40\n      mstore\n      pop\n      dup2\n      add\n      swap1\n      tag_43\n      swap2\n      swap1\n      tag_44\n      jump\t// in\n    tag_43:\n        /* \"/ds-auth/auth.sol\":1857:1906  return authority.canCall(src, address(this), sig) */\n      swap1\n      pop\n        /* \"/ds-auth/auth.sol\":1548:1923  function isAuthorized(address src, bytes4 sig) internal view returns (bool) {... */\n    tag_32:\n      swap3\n      swap2\n      pop\n      pop\n      jump\t// out\n        /* \"#utility.yul\":88:205   */\n    tag_46:\n        /* \"#utility.yul\":197:198   */\n      0x00\n        /* \"#utility.yul\":194:195   */\n      dup1\n        /* \"#utility.yul\":187:199   */\n      revert\n        /* \"#utility.yul\":334:460   */\n    tag_48:\n        /* \"#utility.yul\":371:378   */\n      0x00\n        /* \"#utility.yul\":411:453   */\n      0xffffffffffffffffffffffffffffffffffffffff\n        /* \"#utility.yul\":404:409   */\n      dup3\n        /* \"#utility.yul\":400:454   */\n      and\n        /* \"#utility.yul\":389:454   */\n      swap1\n      pop\n        /* \"#utility.yul\":334:460   */\n      swap2\n      swap1\n      pop\n      jump\t// out\n        /* \"#utility.yul\":466:562   */\n    tag_49:\n        /* \"#utility.yul\":503:510   */\n      0x00\n        /* \"#utility.yul\":532:556   */\n      tag_72\n        /* \"#utility.yul\":550:555   */\n      dup3\n        /* \"#utility.yul\":532:556   */\n      tag_48\n      jump\t// in\n    tag_72:\n        /* \"#utility.yul\":521:556   */\n      swap1\n      pop\n        /* \"#utility.yul\":466:562   */\n      swap2\n      swap1\n      pop\n      jump\t// out\n        /* \"#utility.yul\":568:690   */\n    tag_50:\n        /* \"#utility.yul\":641:665   */\n      tag_74\n        /* \"#utility.yul\":659:664   */\n      dup2\n        /* \"#utility.yul\":641:665   */\n      tag_49\n      jump\t// in\n    tag_74:\n        /* \"#utility.yul\":634:639   */\n      dup2\n        /* \"#utility.yul\":631:666   */\n      eq\n        /* \"#utility.yul\":621:684   */\n      tag_75\n      jumpi\n        /* \"#utility.yul\":680:681   */\n      0x00\n        /* \"#utility.yul\":677:678   */\n      dup1\n        /* \"#utility.yul\":670:682   */\n      revert\n        /* \"#utility.yul\":621:684   */\n    tag_75:\n        /* \"#utility.yul\":568:690   */\n      pop\n      jump\t// out\n        /* \"#utility.yul\":696:835   */\n    tag_51:\n        /* \"#utility.yul\":742:747   */\n      0x00\n        /* \"#utility.yul\":780:786   */\n      dup2\n        /* \"#utility.yul\":767:787   */\n      calldataload\n        /* \"#utility.yul\":758:787   */\n      swap1\n      pop\n        /* \"#utility.yul\":796:829   */\n      tag_77\n        /* \"#utility.yul\":823:828   */\n      dup2\n        /* \"#utility.yul\":796:829   */\n      tag_50\n      jump\t// in\n    tag_77:\n        /* \"#utility.yul\":696:835   */\n      swap3\n      swap2\n      pop\n      pop\n      jump\t// out\n        /* \"#utility.yul\":841:1170   */\n    tag_9:\n        /* \"#utility.yul\":900:906   */\n      0x00\n        /* \"#utility.yul\":949:951   */\n      0x20\n        /* \"#utility.yul\":937:946   */\n      dup3\n        /* \"#utility.yul\":928:935   */\n      dup5\n        /* \"#utility.yul\":924:947   */\n      sub\n        /* \"#utility.yul\":920:952   */\n      slt\n        /* \"#utility.yul\":917:1036   */\n      iszero\n      tag_79\n      jumpi\n        /* \"#utility.yul\":955:1034   */\n      tag_80\n      tag_46\n      jump\t// in\n    tag_80:\n        /* \"#utility.yul\":917:1036   */\n    tag_79:\n        /* \"#utility.yul\":1075:1076   */\n      0x00\n        /* \"#utility.yul\":1100:1153   */\n      tag_81\n        /* \"#utility.yul\":1145:1152   */\n      dup5\n        /* \"#utility.yul\":1136:1142   */\n      dup3\n        /* \"#utility.yul\":1125:1134   */\n      dup6\n        /* \"#utility.yul\":1121:1143   */\n      add\n        /* \"#utility.yul\":1100:1153   */\n      tag_51\n      jump\t// in\n    tag_81:\n        /* \"#utility.yul\":1090:1153   */\n      swap2\n      pop\n        /* \"#utility.yul\":1046:1163   */\n      pop\n        /* \"#utility.yul\":841:1170   */\n      swap3\n      swap2\n      pop\n      pop\n      jump\t// out\n        /* \"#utility.yul\":1176:1290   */\n    tag_52:\n        /* \"#utility.yul\":1231:1238   */\n      0x00\n        /* \"#utility.yul\":1260:1284   */\n      tag_83\n        /* \"#utility.yul\":1278:1283   */\n      dup3\n        /* \"#utility.yul\":1260:1284   */\n      tag_49\n      jump\t// in\n    tag_83:\n        /* \"#utility.yul\":1249:1284   */\n      swap1\n      pop\n        /* \"#utility.yul\":1176:1290   */\n      swap2\n      swap1\n      pop\n      jump\t// out\n        /* \"#utility.yul\":1296:1454   */\n    tag_53:\n        /* \"#utility.yul\":1387:1429   */\n      tag_85\n        /* \"#utility.yul\":1423:1428   */\n      dup2\n        /* \"#utility.yul\":1387:1429   */\n      tag_52\n      jump\t// in\n    tag_85:\n        /* \"#utility.yul\":1380:1385   */\n      dup2\n        /* \"#utility.yul\":1377:1430   */\n      eq\n        /* \"#utility.yul\":1367:1448   */\n      tag_86\n      jumpi\n        /* \"#utility.yul\":1444:1445   */\n      0x00\n        /* \"#utility.yul\":1441:1442   */\n      dup1\n        /* \"#utility.yul\":1434:1446   */\n      revert\n        /* \"#utility.yul\":1367:1448   */\n    tag_86:\n        /* \"#utility.yul\":1296:1454   */\n      pop\n      jump\t// out\n        /* \"#utility.yul\":1460:1635   */\n    tag_54:\n        /* \"#utility.yul\":1524:1529   */\n      0x00\n        /* \"#utility.yul\":1562:1568   */\n      dup2\n        /* \"#utility.yul\":1549:1569   */\n      calldataload\n        /* \"#utility.yul\":1540:1569   */\n      swap1\n      pop\n        /* \"#utility.yul\":1578:1629   */\n      tag_88\n        /* \"#utility.yul\":1623:1628   */\n      dup2\n        /* \"#utility.yul\":1578:1629   */\n      tag_53\n      jump\t// in\n    tag_88:\n        /* \"#utility.yul\":1460:1635   */\n      swap3\n      swap2\n      pop\n      pop\n      jump\t// out\n        /* \"#utility.yul\":1641:2006   */\n    tag_13:\n        /* \"#utility.yul\":1718:1724   */\n      0x00\n        /* \"#utility.yul\":1767:1769   */\n      0x20\n        /* \"#utility.yul\":1755:1764   */\n      dup3\n        /* \"#utility.yul\":1746:1753   */\n      dup5\n        /* \"#utility.yul\":1742:1765   */\n      sub\n        /* \"#utility.yul\":1738:1770   */\n      slt\n        /* \"#utility.yul\":1735:1854   */\n      iszero\n      tag_90\n      jumpi\n        /* \"#utility.yul\":1773:1852   */\n      tag_91\n      tag_46\n      jump\t// in\n    tag_91:\n        /* \"#utility.yul\":1735:1854   */\n    tag_90:\n        /* \"#utility.yul\":1893:1894   */\n      0x00\n        /* \"#utility.yul\":1918:1989   */\n      tag_92\n        /* \"#utility.yul\":1981:1988   */\n      dup5\n        /* \"#utility.yul\":1972:1978   */\n      dup3\n        /* \"#utility.yul\":1961:1970   */\n      dup6\n        /* \"#utility.yul\":1957:1979   */\n      add\n        /* \"#utility.yul\":1918:1989   */\n      tag_54\n      jump\t// in\n    tag_92:\n        /* \"#utility.yul\":1908:1989   */\n      swap2\n      pop\n        /* \"#utility.yul\":1864:1999   */\n      pop\n        /* \"#utility.yul\":1641:2006   */\n      swap3\n      swap2\n      pop\n      pop\n      jump\t// out\n        /* \"#utility.yul\":2012:2130   */\n    tag_55:\n        /* \"#utility.yul\":2099:2123   */\n      tag_94\n        /* \"#utility.yul\":2117:2122   */\n      dup2\n        /* \"#utility.yul\":2099:2123   */\n      tag_49\n      jump\t// in\n    tag_94:\n        /* \"#utility.yul\":2094:2097   */\n      dup3\n        /* \"#utility.yul\":2087:2124   */\n      mstore\n        /* \"#utility.yul\":2012:2130   */\n      pop\n      pop\n      jump\t// out\n        /* \"#utility.yul\":2136:2358   */\n    tag_18:\n        /* \"#utility.yul\":2229:2233   */\n      0x00\n        /* \"#utility.yul\":2267:2269   */\n      0x20\n        /* \"#utility.yul\":2256:2265   */\n      dup3\n        /* \"#utility.yul\":2252:2270   */\n      add\n        /* \"#utility.yul\":2244:2270   */\n      swap1\n      pop\n        /* \"#utility.yul\":2280:2351   */\n      tag_96\n        /* \"#utility.yul\":2348:2349   */\n      0x00\n        /* \"#utility.yul\":2337:2346   */\n      dup4\n        /* \"#utility.yul\":2333:2350   */\n      add\n        /* \"#utility.yul\":2324:2330   */\n      dup5\n        /* \"#utility.yul\":2280:2351   */\n      tag_55\n      jump\t// in\n    tag_96:\n        /* \"#utility.yul\":2136:2358   */\n      swap3\n      swap2\n      pop\n      pop\n      jump\t// out\n        /* \"#utility.yul\":2364:2424   */\n    tag_56:\n        /* \"#utility.yul\":2392:2395   */\n      0x00\n        /* \"#utility.yul\":2413:2418   */\n      dup2\n        /* \"#utility.yul\":2406:2418   */\n      swap1\n      pop\n        /* \"#utility.yul\":2364:2424   */\n      swap2\n      swap1\n      pop\n      jump\t// out\n        /* \"#utility.yul\":2430:2572   */\n    tag_57:\n        /* \"#utility.yul\":2480:2489   */\n      0x00\n        /* \"#utility.yul\":2513:2566   */\n      tag_99\n        /* \"#utility.yul\":2531:2565   */\n      tag_100\n        /* \"#utility.yul\":2540:2564   */\n      tag_101\n        /* \"#utility.yul\":2558:2563   */\n      dup5\n        /* \"#utility.yul\":2540:2564   */\n      tag_48\n      jump\t// in\n    tag_101:\n        /* \"#utility.yul\":2531:2565   */\n      tag_56\n      jump\t// in\n    tag_100:\n        /* \"#utility.yul\":2513:2566   */\n      tag_48\n      jump\t// in\n    tag_99:\n        /* \"#utility.yul\":2500:2566   */\n      swap1\n      pop\n        /* \"#utility.yul\":2430:2572   */\n      swap2\n      swap1\n      pop\n      jump\t// out\n        /* \"#utility.yul\":2578:2704   */\n    tag_58:\n        /* \"#utility.yul\":2628:2637   */\n      0x00\n        /* \"#utility.yul\":2661:2698   */\n      tag_103\n        /* \"#utility.yul\":2692:2697   */\n      dup3\n        /* \"#utility.yul\":2661:2698   */\n      tag_57\n      jump\t// in\n    tag_103:\n        /* \"#utility.yul\":2648:2698   */\n      swap1\n      pop\n        /* \"#utility.yul\":2578:2704   */\n      swap2\n      swap1\n      pop\n      jump\t// out\n        /* \"#utility.yul\":2710:2854   */\n    tag_59:\n        /* \"#utility.yul\":2778:2787   */\n      0x00\n        /* \"#utility.yul\":2811:2848   */\n      tag_105\n        /* \"#utility.yul\":2842:2847   */\n      dup3\n        /* \"#utility.yul\":2811:2848   */\n      tag_58\n      jump\t// in\n    tag_105:\n        /* \"#utility.yul\":2798:2848   */\n      swap1\n      pop\n        /* \"#utility.yul\":2710:2854   */\n      swap2\n      swap1\n      pop\n      jump\t// out\n        /* \"#utility.yul\":2860:3027   */\n    tag_60:\n        /* \"#utility.yul\":2965:3020   */\n      tag_107\n        /* \"#utility.yul\":3014:3019   */\n      dup2\n        /* \"#utility.yul\":2965:3020   */\n      tag_59\n      jump\t// in\n    tag_107:\n        /* \"#utility.yul\":2960:2963   */\n      dup3\n        /* \"#utility.yul\":2953:3021   */\n      mstore\n        /* \"#utility.yul\":2860:3027   */\n      pop\n      pop\n      jump\t// out\n        /* \"#utility.yul\":3033:3291   */\n    tag_22:\n        /* \"#utility.yul\":3144:3148   */\n      0x00\n        /* \"#utility.yul\":3182:3184   */\n      0x20\n        /* \"#utility.yul\":3171:3180   */\n      dup3\n        /* \"#utility.yul\":3167:3185   */\n      add\n        /* \"#utility.yul\":3159:3185   */\n      swap1\n      pop\n        /* \"#utility.yul\":3195:3284   */\n      tag_109\n        /* \"#utility.yul\":3281:3282   */\n      0x00\n        /* \"#utility.yul\":3270:3279   */\n      dup4\n        /* \"#utility.yul\":3266:3283   */\n      add\n        /* \"#utility.yul\":3257:3263   */\n      dup5\n        /* \"#utility.yul\":3195:3284   */\n      tag_60\n      jump\t// in\n    tag_109:\n        /* \"#utility.yul\":3033:3291   */\n      swap3\n      swap2\n      pop\n      pop\n      jump\t// out\n        /* \"#utility.yul\":3297:3446   */\n    tag_61:\n        /* \"#utility.yul\":3333:3340   */\n      0x00\n        /* \"#utility.yul\":3373:3439   */\n      0xffffffff00000000000000000000000000000000000000000000000000000000\n        /* \"#utility.yul\":3366:3371   */\n      dup3\n        /* \"#utility.yul\":3362:3440   */\n      and\n        /* \"#utility.yul\":3351:3440   */\n      swap1\n      pop\n        /* \"#utility.yul\":3297:3446   */\n      swap2\n      swap1\n      pop\n      jump\t// out\n        /* \"#utility.yul\":3452:3567   */\n    tag_62:\n        /* \"#utility.yul\":3537:3560   */\n      tag_112\n        /* \"#utility.yul\":3554:3559   */\n      dup2\n        /* \"#utility.yul\":3537:3560   */\n      tag_61\n      jump\t// in\n    tag_112:\n        /* \"#utility.yul\":3532:3535   */\n      dup3\n        /* \"#utility.yul\":3525:3561   */\n      mstore\n        /* \"#utility.yul\":3452:3567   */\n      pop\n      pop\n      jump\t// out\n        /* \"#utility.yul\":3573:4011   */\n    tag_40:\n        /* \"#utility.yul\":3720:3724   */\n      0x00\n        /* \"#utility.yul\":3758:3760   */\n      0x60\n        /* \"#utility.yul\":3747:3756   */\n      dup3\n        /* \"#utility.yul\":3743:3761   */\n      add\n        /* \"#utility.yul\":3735:3761   */\n      swap1\n      pop\n        /* \"#utility.yul\":3771:3842   */\n      tag_114\n        /* \"#utility.yul\":3839:3840   */\n      0x00\n        /* \"#utility.yul\":3828:3837   */\n      dup4\n        /* \"#utility.yul\":3824:3841   */\n      add\n        /* \"#utility.yul\":3815:3821   */\n      dup7\n        /* \"#utility.yul\":3771:3842   */\n      tag_55\n      jump\t// in\n    tag_114:\n        /* \"#utility.yul\":3852:3924   */\n      tag_115\n        /* \"#utility.yul\":3920:3922   */\n      0x20\n        /* \"#utility.yul\":3909:3918   */\n      dup4\n        /* \"#utility.yul\":3905:3923   */\n      add\n        /* \"#utility.yul\":3896:3902   */\n      dup6\n        /* \"#utility.yul\":3852:3924   */\n      tag_55\n      jump\t// in\n    tag_115:\n        /* \"#utility.yul\":3934:4004   */\n      tag_116\n        /* \"#utility.yul\":4000:4002   */\n      0x40\n        /* \"#utility.yul\":3989:3998   */\n      dup4\n        /* \"#utility.yul\":3985:4003   */\n      add\n        /* \"#utility.yul\":3976:3982   */\n      dup5\n        /* \"#utility.yul\":3934:4004   */\n      tag_62\n      jump\t// in\n    tag_116:\n        /* \"#utility.yul\":3573:4011   */\n      swap5\n      swap4\n      pop\n      pop\n      pop\n      pop\n      jump\t// out\n        /* \"#utility.yul\":4017:4107   */\n    tag_63:\n        /* \"#utility.yul\":4051:4058   */\n      0x00\n        /* \"#utility.yul\":4094:4099   */\n      dup2\n        /* \"#utility.yul\":4087:4100   */\n      iszero\n        /* \"#utility.yul\":4080:4101   */\n      iszero\n        /* \"#utility.yul\":4069:4101   */\n      swap1\n      pop\n        /* \"#utility.yul\":4017:4107   */\n      swap2\n      swap1\n      pop\n      jump\t// out\n        /* \"#utility.yul\":4113:4229   */\n    tag_64:\n        /* \"#utility.yul\":4183:4204   */\n      tag_119\n        /* \"#utility.yul\":4198:4203   */\n      dup2\n        /* \"#utility.yul\":4183:4204   */\n      tag_63\n      jump\t// in\n    tag_119:\n        /* \"#utility.yul\":4176:4181   */\n      dup2\n        /* \"#utility.yul\":4173:4205   */\n      eq\n        /* \"#utility.yul\":4163:4223   */\n      tag_120\n      jumpi\n        /* \"#utility.yul\":4219:4220   */\n      0x00\n        /* \"#utility.yul\":4216:4217   */\n      dup1\n        /* \"#utility.yul\":4209:4221   */\n      revert\n        /* \"#utility.yul\":4163:4223   */\n    tag_120:\n        /* \"#utility.yul\":4113:4229   */\n      pop\n      jump\t// out\n        /* \"#utility.yul\":4235:4372   */\n    tag_65:\n        /* \"#utility.yul\":4289:4294   */\n      0x00\n        /* \"#utility.yul\":4320:4326   */\n      dup2\n        /* \"#utility.yul\":4314:4327   */\n      mload\n        /* \"#utility.yul\":4305:4327   */\n      swap1\n      pop\n        /* \"#utility.yul\":4336:4366   */\n      tag_122\n        /* \"#utility.yul\":4360:4365   */\n      dup2\n        /* \"#utility.yul\":4336:4366   */\n      tag_64\n      jump\t// in\n    tag_122:\n        /* \"#utility.yul\":4235:4372   */\n      swap3\n      swap2\n      pop\n      pop\n      jump\t// out\n        /* \"#utility.yul\":4378:4723   */\n    tag_44:\n        /* \"#utility.yul\":4445:4451   */\n      0x00\n        /* \"#utility.yul\":4494:4496   */\n      0x20\n        /* \"#utility.yul\":4482:4491   */\n      dup3\n        /* \"#utility.yul\":4473:4480   */\n      dup5\n        /* \"#utility.yul\":4469:4492   */\n      sub\n        /* \"#utility.yul\":4465:4497   */\n      slt\n        /* \"#utility.yul\":4462:4581   */\n      iszero\n      tag_124\n      jumpi\n        /* \"#utility.yul\":4500:4579   */\n      tag_125\n      tag_46\n      jump\t// in\n    tag_125:\n        /* \"#utility.yul\":4462:4581   */\n    tag_124:\n        /* \"#utility.yul\":4620:4621   */\n      0x00\n        /* \"#utility.yul\":4645:4706   */\n      tag_126\n        /* \"#utility.yul\":4698:4705   */\n      dup5\n        /* \"#utility.yul\":4689:4695   */\n      dup3\n        /* \"#utility.yul\":4678:4687   */\n      dup6\n        /* \"#utility.yul\":4674:4696   */\n      add\n        /* \"#utility.yul\":4645:4706   */\n      tag_65\n      jump\t// in\n    tag_126:\n        /* \"#utility.yul\":4635:4706   */\n      swap2\n      pop\n        /* \"#utility.yul\":4591:4716   */\n      pop\n        /* \"#utility.yul\":4378:4723   */\n      swap3\n      swap2\n      pop\n      pop\n      jump\t// out\n\n    auxdata: 0xa2646970667358221220840a49676b791e44112e4df8994f21032ce455a51345a42f5bd7cfd6ca7a756a64736f6c63430008140033\n}\n",
				"bytecode": {
					"linkReferences": {},
					"object": "608060405234801561000f575f80fd5b503360015f6101000a81548173ffffffffffffffffffffffffffffffffffffffff021916908373ffffffffffffffffffffffffffffffffffffffff1602179055503373ffffffffffffffffffffffffffffffffffffffff167fce241d7ca1f669fee44b6fc00b8eba2df3bb514eed0f6f668f8f89096e81ed9460405160405180910390a26106e7806100a05f395ff3fe608060405234801561000f575f80fd5b506004361061004a575f3560e01c806313af40351461004e5780637a9e5e4b1461006a5780638da5cb5b14610086578063bf7e214f146100a4575b5f80fd5b610068600480360381019061006391906104b5565b6100c2565b005b610084600480360381019061007f919061051b565b61019e565b005b61008e610277565b60405161009b9190610555565b60405180910390f35b6100ac61029c565b6040516100b991906105c9565b60405180910390f35b6100ef335f357fffffffff00000000000000000000000000000000000000000000000000000000166102bf565b6100f7575f80fd5b8060015f6101000a81548173ffffffffffffffffffffffffffffffffffffffff021916908373ffffffffffffffffffffffffffffffffffffffff16021790555060015f9054906101000a900473ffffffffffffffffffffffffffffffffffffffff1673ffffffffffffffffffffffffffffffffffffffff167fce241d7ca1f669fee44b6fc00b8eba2df3bb514eed0f6f668f8f89096e81ed9460405160405180910390a250565b6101cb335f357fffffffff00000000000000000000000000000000000000000000000000000000166102bf565b6101d3575f80fd5b805f806101000a81548173ffffffffffffffffffffffffffffffffffffffff021916908373ffffffffffffffffffffffffffffffffffffffff1602179055505f8054906101000a900473ffffffffffffffffffffffffffffffffffffffff1673ffffffffffffffffffffffffffffffffffffffff167f1abebea81bfa2637f28358c371278fb15ede7ea8dd28d2e03b112ff6d936ada460405160405180910390a250565b60015f9054906101000a900473ffffffffffffffffffffffffffffffffffffffff1681565b5f8054906101000a900473ffffffffffffffffffffffffffffffffffffffff1681565b5f3073ffffffffffffffffffffffffffffffffffffffff168373ffffffffffffffffffffffffffffffffffffffff16036102fc5760019050610451565b60015f9054906101000a900473ffffffffffffffffffffffffffffffffffffffff1673ffffffffffffffffffffffffffffffffffffffff168373ffffffffffffffffffffffffffffffffffffffff16036103595760019050610451565b5f73ffffffffffffffffffffffffffffffffffffffff165f8054906101000a900473ffffffffffffffffffffffffffffffffffffffff1673ffffffffffffffffffffffffffffffffffffffff16036103b3575f9050610451565b5f8054906101000a900473ffffffffffffffffffffffffffffffffffffffff1673ffffffffffffffffffffffffffffffffffffffff1663b70096138430856040518463ffffffff1660e01b815260040161040f9392919061061c565b602060405180830381865afa15801561042a573d5f803e3d5ffd5b505050506040513d601f19601f8201168201806040525081019061044e9190610686565b90505b92915050565b5f80fd5b5f73ffffffffffffffffffffffffffffffffffffffff82169050919050565b5f6104848261045b565b9050919050565b6104948161047a565b811461049e575f80fd5b50565b5f813590506104af8161048b565b92915050565b5f602082840312156104ca576104c9610457565b5b5f6104d7848285016104a1565b91505092915050565b5f6104ea8261047a565b9050919050565b6104fa816104e0565b8114610504575f80fd5b50565b5f81359050610515816104f1565b92915050565b5f602082840312156105305761052f610457565b5b5f61053d84828501610507565b91505092915050565b61054f8161047a565b82525050565b5f6020820190506105685f830184610546565b92915050565b5f819050919050565b5f61059161058c6105878461045b565b61056e565b61045b565b9050919050565b5f6105a282610577565b9050919050565b5f6105b382610598565b9050919050565b6105c3816105a9565b82525050565b5f6020820190506105dc5f8301846105ba565b92915050565b5f7fffffffff0000000000000000000000000000000000000000000000000000000082169050919050565b610616816105e2565b82525050565b5f60608201905061062f5f830186610546565b61063c6020830185610546565b610649604083018461060d565b949350505050565b5f8115159050919050565b61066581610651565b811461066f575f80fd5b50565b5f815190506106808161065c565b92915050565b5f6020828403121561069b5761069a610457565b5b5f6106a884828501610672565b9150509291505056fea2646970667358221220840a49676b791e44112e4df8994f21032ce455a51345a42f5bd7cfd6ca7a756a64736f6c63430008140033",
					"opcodes": "PUSH1 0x80 PUSH1 0x40 MSTORE CALLVALUE DUP1 ISZERO PUSH2 0xF JUMPI PUSH0 DUP1 REVERT JUMPDEST POP CALLER PUSH1 0x1 PUSH0 PUSH2 0x100 EXP DUP2 SLOAD DUP2 PUSH20 0xFFFFFFFFFFFFFFFFFFFFFFFFFFFFFFFFFFFFFFFF MUL NOT AND SWAP1 DUP4 PUSH20 0xFFFFFFFFFFFFFFFFFFFFFFFFFFFFFFFFFFFFFFFF AND MUL OR SWAP1 SSTORE POP CALLER PUSH20 0xFFFFFFFFFFFFFFFFFFFFFFFFFFFFFFFFFFFFFFFF AND PUSH32 0xCE241D7CA1F669FEE44B6FC00B8EBA2DF3BB514EED0F6F668F8F89096E81ED94 PUSH1 0x40 MLOAD PUSH1 0x40 MLOAD DUP1 SWAP2 SUB SWAP1 LOG2 PUSH2 0x6E7 DUP1 PUSH2 0xA0 PUSH0 CODECOPY PUSH0 RETURN INVALID PUSH1 0x80 PUSH1 0x40 MSTORE CALLVALUE DUP1 ISZERO PUSH2 0xF JUMPI PUSH0 DUP1 REVERT JUMPDEST POP PUSH1 0x4 CALLDATASIZE LT PUSH2 0x4A JUMPI PUSH0 CALLDATALOAD PUSH1 0xE0 SHR DUP1 PUSH4 0x13AF4035 EQ PUSH2 0x4E JUMPI DUP1 PUSH4 0x7A9E5E4B EQ PUSH2 0x6A JUMPI DUP1 PUSH4 0x8DA5CB5B EQ PUSH2 0x86 JUMPI DUP1 PUSH4 0xBF7E214F EQ PUSH2 0xA4 JUMPI JUMPDEST PUSH0 DUP1 REVERT JUMPDEST PUSH2 0x68 PUSH1 0x4 DUP1 CALLDATASIZE SUB DUP2 ADD SWAP1 PUSH2 0x63 SWAP2 SWAP1 PUSH2 0x4B5 JUMP JUMPDEST PUSH2 0xC2 JUMP JUMPDEST STOP JUMPDEST PUSH2 0x84 PUSH1 0x4 DUP1 CALLDATASIZE SUB DUP2 ADD SWAP1 PUSH2 0x7F SWAP2 SWAP1 PUSH2 0x51B JUMP JUMPDEST PUSH2 0x19E JUMP JUMPDEST STOP JUMPDEST PUSH2 0x8E PUSH2 0x277 JUMP JUMPDEST PUSH1 0x40 MLOAD PUSH2 0x9B SWAP2 SWAP1 PUSH2 0x555 JUMP JUMPDEST PUSH1 0x40 MLOAD DUP1 SWAP2 SUB SWAP1 RETURN JUMPDEST PUSH2 0xAC PUSH2 0x29C JUMP JUMPDEST PUSH1 0x40 MLOAD PUSH2 0xB9 SWAP2 SWAP1 PUSH2 0x5C9 JUMP JUMPDEST PUSH1 0x40 MLOAD DUP1 SWAP2 SUB SWAP1 RETURN JUMPDEST PUSH2 0xEF CALLER PUSH0 CALLDATALOAD PUSH32 0xFFFFFFFF00000000000000000000000000000000000000000000000000000000 AND PUSH2 0x2BF JUMP JUMPDEST PUSH2 0xF7 JUMPI PUSH0 DUP1 REVERT JUMPDEST DUP1 PUSH1 0x1 PUSH0 PUSH2 0x100 EXP DUP2 SLOAD DUP2 PUSH20 0xFFFFFFFFFFFFFFFFFFFFFFFFFFFFFFFFFFFFFFFF MUL NOT AND SWAP1 DUP4 PUSH20 0xFFFFFFFFFFFFFFFFFFFFFFFFFFFFFFFFFFFFFFFF AND MUL OR SWAP1 SSTORE POP PUSH1 0x1 PUSH0 SWAP1 SLOAD SWAP1 PUSH2 0x100 EXP SWAP1 DIV PUSH20 0xFFFFFFFFFFFFFFFFFFFFFFFFFFFFFFFFFFFFFFFF AND PUSH20 0xFFFFFFFFFFFFFFFFFFFFFFFFFFFFFFFFFFFFFFFF AND PUSH32 0xCE241D7CA1F669FEE44B6FC00B8EBA2DF3BB514EED0F6F668F8F89096E81ED94 PUSH1 0x40 MLOAD PUSH1 0x40 MLOAD DUP1 SWAP2 SUB SWAP1 LOG2 POP JUMP JUMPDEST PUSH2 0x1CB CALLER PUSH0 CALLDATALOAD PUSH32 0xFFFFFFFF00000000000000000000000000000000000000000000000000000000 AND PUSH2 0x2BF JUMP JUMPDEST PUSH2 0x1D3 JUMPI PUSH0 DUP1 REVERT JUMPDEST DUP1 PUSH0 DUP1 PUSH2 0x100 EXP DUP2 SLOAD DUP2 PUSH20 0xFFFFFFFFFFFFFFFFFFFFFFFFFFFFFFFFFFFFFFFF MUL NOT AND SWAP1 DUP4 PUSH20 0xFFFFFFFFFFFFFFFFFFFFFFFFFFFFFFFFFFFFFFFF AND MUL OR SWAP1 SSTORE POP PUSH0 DUP1 SLOAD SWAP1 PUSH2 0x100 EXP SWAP1 DIV PUSH20 0xFFFFFFFFFFFFFFFFFFFFFFFFFFFFFFFFFFFFFFFF AND PUSH20 0xFFFFFFFFFFFFFFFFFFFFFFFFFFFFFFFFFFFFFFFF AND PUSH32 0x1ABEBEA81BFA2637F28358C371278FB15EDE7EA8DD28D2E03B112FF6D936ADA4 PUSH1 0x40 MLOAD PUSH1 0x40 MLOAD DUP1 SWAP2 SUB SWAP1 LOG2 POP JUMP JUMPDEST PUSH1 0x1 PUSH0 SWAP1 SLOAD SWAP1 PUSH2 0x100 EXP SWAP1 DIV PUSH20 0xFFFFFFFFFFFFFFFFFFFFFFFFFFFFFFFFFFFFFFFF AND DUP2 JUMP JUMPDEST PUSH0 DUP1 SLOAD SWAP1 PUSH2 0x100 EXP SWAP1 DIV PUSH20 0xFFFFFFFFFFFFFFFFFFFFFFFFFFFFFFFFFFFFFFFF AND DUP2 JUMP JUMPDEST PUSH0 ADDRESS PUSH20 0xFFFFFFFFFFFFFFFFFFFFFFFFFFFFFFFFFFFFFFFF AND DUP4 PUSH20 0xFFFFFFFFFFFFFFFFFFFFFFFFFFFFFFFFFFFFFFFF AND SUB PUSH2 0x2FC JUMPI PUSH1 0x1 SWAP1 POP PUSH2 0x451 JUMP JUMPDEST PUSH1 0x1 PUSH0 SWAP1 SLOAD SWAP1 PUSH2 0x100 EXP SWAP1 DIV PUSH20 0xFFFFFFFFFFFFFFFFFFFFFFFFFFFFFFFFFFFFFFFF AND PUSH20 0xFFFFFFFFFFFFFFFFFFFFFFFFFFFFFFFFFFFFFFFF AND DUP4 PUSH20 0xFFFFFFFFFFFFFFFFFFFFFFFFFFFFFFFFFFFFFFFF AND SUB PUSH2 0x359 JUMPI PUSH1 0x1 SWAP1 POP PUSH2 0x451 JUMP JUMPDEST PUSH0 PUSH20 0xFFFFFFFFFFFFFFFFFFFFFFFFFFFFFFFFFFFFFFFF AND PUSH0 DUP1 SLOAD SWAP1 PUSH2 0x100 EXP SWAP1 DIV PUSH20 0xFFFFFFFFFFFFFFFFFFFFFFFFFFFFFFFFFFFFFFFF AND PUSH20 0xFFFFFFFFFFFFFFFFFFFFFFFFFFFFFFFFFFFFFFFF AND SUB PUSH2 0x3B3 JUMPI PUSH0 SWAP1 POP PUSH2 0x451 JUMP JUMPDEST PUSH0 DUP1 SLOAD SWAP1 PUSH2 0x100 EXP SWAP1 DIV PUSH20 0xFFFFFFFFFFFFFFFFFFFFFFFFFFFFFFFFFFFFFFFF AND PUSH20 0xFFFFFFFFFFFFFFFFFFFFFFFFFFFFFFFFFFFFFFFF AND PUSH4 0xB7009613 DUP5 ADDRESS DUP6 PUSH1 0x40 MLOAD DUP5 PUSH4 0xFFFFFFFF AND PUSH1 0xE0 SHL DUP2 MSTORE PUSH1 0x4 ADD PUSH2 0x40F SWAP4 SWAP3 SWAP2 SWAP1 PUSH2 0x61C JUMP JUMPDEST PUSH1 0x20 PUSH1 0x40 MLOAD DUP1 DUP4 SUB DUP2 DUP7 GAS STATICCALL ISZERO DUP1 ISZERO PUSH2 0x42A JUMPI RETURNDATASIZE PUSH0 DUP1 RETURNDATACOPY RETURNDATASIZE PUSH0 REVERT JUMPDEST POP POP POP POP PUSH1 0x40 MLOAD RETURNDATASIZE PUSH1 0x1F NOT PUSH1 0x1F DUP3 ADD AND DUP3 ADD DUP1 PUSH1 0x40 MSTORE POP DUP2 ADD SWAP1 PUSH2 0x44E SWAP2 SWAP1 PUSH2 0x686 JUMP JUMPDEST SWAP1 POP JUMPDEST SWAP3 SWAP2 POP POP JUMP JUMPDEST PUSH0 DUP1 REVERT JUMPDEST PUSH0 PUSH20 0xFFFFFFFFFFFFFFFFFFFFFFFFFFFFFFFFFFFFFFFF DUP3 AND SWAP1 POP SWAP2 SWAP1 POP JUMP JUMPDEST PUSH0 PUSH2 0x484 DUP3 PUSH2 0x45B JUMP JUMPDEST SWAP1 POP SWAP2 SWAP1 POP JUMP JUMPDEST PUSH2 0x494 DUP2 PUSH2 0x47A JUMP JUMPDEST DUP2 EQ PUSH2 0x49E JUMPI PUSH0 DUP1 REVERT JUMPDEST POP JUMP JUMPDEST PUSH0 DUP2 CALLDATALOAD SWAP1 POP PUSH2 0x4AF DUP2 PUSH2 0x48B JUMP JUMPDEST SWAP3 SWAP2 POP POP JUMP JUMPDEST PUSH0 PUSH1 0x20 DUP3 DUP5 SUB SLT ISZERO PUSH2 0x4CA JUMPI PUSH2 0x4C9 PUSH2 0x457 JUMP JUMPDEST JUMPDEST PUSH0 PUSH2 0x4D7 DUP5 DUP3 DUP6 ADD PUSH2 0x4A1 JUMP JUMPDEST SWAP2 POP POP SWAP3 SWAP2 POP POP JUMP JUMPDEST PUSH0 PUSH2 0x4EA DUP3 PUSH2 0x47A JUMP JUMPDEST SWAP1 POP SWAP2 SWAP1 POP JUMP JUMPDEST PUSH2 0x4FA DUP2 PUSH2 0x4E0 JUMP JUMPDEST DUP2 EQ PUSH2 0x504 JUMPI PUSH0 DUP1 REVERT JUMPDEST POP JUMP JUMPDEST PUSH0 DUP2 CALLDATALOAD SWAP1 POP PUSH2 0x515 DUP2 PUSH2 0x4F1 JUMP JUMPDEST SWAP3 SWAP2 POP POP JUMP JUMPDEST PUSH0 PUSH1 0x20 DUP3 DUP5 SUB SLT ISZERO PUSH2 0x530 JUMPI PUSH2 0x52F PUSH2 0x457 JUMP JUMPDEST JUMPDEST PUSH0 PUSH2 0x53D DUP5 DUP3 DUP6 ADD PUSH2 0x507 JUMP JUMPDEST SWAP2 POP POP SWAP3 SWAP2 POP POP JUMP JUMPDEST PUSH2 0x54F DUP2 PUSH2 0x47A JUMP JUMPDEST DUP3 MSTORE POP POP JUMP JUMPDEST PUSH0 PUSH1 0x20 DUP3 ADD SWAP1 POP PUSH2 0x568 PUSH0 DUP4 ADD DUP5 PUSH2 0x546 JUMP JUMPDEST SWAP3 SWAP2 POP POP JUMP JUMPDEST PUSH0 DUP2 SWAP1 POP SWAP2 SWAP1 POP JUMP JUMPDEST PUSH0 PUSH2 0x591 PUSH2 0x58C PUSH2 0x587 DUP5 PUSH2 0x45B JUMP JUMPDEST PUSH2 0x56E JUMP JUMPDEST PUSH2 0x45B JUMP JUMPDEST SWAP1 POP SWAP2 SWAP1 POP JUMP JUMPDEST PUSH0 PUSH2 0x5A2 DUP3 PUSH2 0x577 JUMP JUMPDEST SWAP1 POP SWAP2 SWAP1 POP JUMP JUMPDEST PUSH0 PUSH2 0x5B3 DUP3 PUSH2 0x598 JUMP JUMPDEST SWAP1 POP SWAP2 SWAP1 POP JUMP JUMPDEST PUSH2 0x5C3 DUP2 PUSH2 0x5A9 JUMP JUMPDEST DUP3 MSTORE POP POP JUMP JUMPDEST PUSH0 PUSH1 0x20 DUP3 ADD SWAP1 POP PUSH2 0x5DC PUSH0 DUP4 ADD DUP5 PUSH2 0x5BA JUMP JUMPDEST SWAP3 SWAP2 POP POP JUMP JUMPDEST PUSH0 PUSH32 0xFFFFFFFF00000000000000000000000000000000000000000000000000000000 DUP3 AND SWAP1 POP SWAP2 SWAP1 POP JUMP JUMPDEST PUSH2 0x616 DUP2 PUSH2 0x5E2 JUMP JUMPDEST DUP3 MSTORE POP POP JUMP JUMPDEST PUSH0 PUSH1 0x60 DUP3 ADD SWAP1 POP PUSH2 0x62F PUSH0 DUP4 ADD DUP7 PUSH2 0x546 JUMP JUMPDEST PUSH2 0x63C PUSH1 0x20 DUP4 ADD DUP6 PUSH2 0x546 JUMP JUMPDEST PUSH2 0x649 PUSH1 0x40 DUP4 ADD DUP5 PUSH2 0x60D JUMP JUMPDEST SWAP5 SWAP4 POP POP POP POP JUMP JUMPDEST PUSH0 DUP2 ISZERO ISZERO SWAP1 POP SWAP2 SWAP1 POP JUMP JUMPDEST PUSH2 0x665 DUP2 PUSH2 0x651 JUMP JUMPDEST DUP2 EQ PUSH2 0x66F JUMPI PUSH0 DUP1 REVERT JUMPDEST POP JUMP JUMPDEST PUSH0 DUP2 MLOAD SWAP1 POP PUSH2 0x680 DUP2 PUSH2 0x65C JUMP JUMPDEST SWAP3 SWAP2 POP POP JUMP JUMPDEST PUSH0 PUSH1 0x20 DUP3 DUP5 SUB SLT ISZERO PUSH2 0x69B JUMPI PUSH2 0x69A PUSH2 0x457 JUMP JUMPDEST JUMPDEST PUSH0 PUSH2 0x6A8 DUP5 DUP3 DUP6 ADD PUSH2 0x672 JUMP JUMPDEST SWAP2 POP POP SWAP3 SWAP2 POP POP JUMP INVALID LOG2 PUSH5 0x6970667358 0x22 SLT KECCAK256 DUP5 EXP 0x49 PUSH8 0x6B791E44112E4DF8 SWAP10 0x4F 0x21 SUB 0x2C 0xE4 SSTORE 0xA5 SGT GASLIMIT LOG4 0x2F JUMPDEST 0xD7 0xCF 0xD6 0xCA PUSH27 0x756A64736F6C634300081400330000000000000000000000000000 "
				},
				"gasEstimates": {
					"creation": {
						"codeDepositCost": "353400",
						"executionCost": "25816",
						"totalCost": "379216"
					},
					"external": {
						"authority()": "infinite",
						"owner()": "2530",
						"setAuthority(address)": "infinite",
						"setOwner(address)": "infinite"
					},
					"internal": {
						"isAuthorized(address,bytes4)": "infinite"
					}
				},
				"methodIdentifiers": {
					"authority()": "bf7e214f",
					"owner()": "8da5cb5b",
					"setAuthority(address)": "7a9e5e4b",
					"setOwner(address)": "13af4035"
				}
			},
			"storageLayout": {
				"storage": [
					{
						"astId": 27,
						"contract": "/ds-auth/auth.sol:DSAuth",
						"label": "authority",
						"offset": 0,
						"slot": "0",
						"type": "t_contract(DSAuthority)13"
					},
					{
						"astId": 29,
						"contract": "/ds-auth/auth.sol:DSAuth",
						"label": "owner",
						"offset": 0,
						"slot": "1",
						"type": "t_address"
					}
				],
				"types": {
					"t_address": {
						"encoding": "inplace",
						"label": "address",
						"numberOfBytes": "20"
					},
					"t_contract(DSAuthority)13": {
						"encoding": "inplace",
						"label": "contract DSAuthority",
						"numberOfBytes": "20"
					}
				}
			},
			"userdoc": {
				"kind": "user",
				"methods": {},
				"version": 1
			}
		}
	}
}