{
	"ds-value/value.sol": {
		"DSValue": {
			"abi": [
				{
					"anonymous": true,
					"inputs": [
						{
							"indexed": true,
							"internalType": "bytes4",
							"name": "sig",
							"type": "bytes4"
						},
						{
							"indexed": true,
							"internalType": "address",
							"name": "guy",
							"type": "address"
						},
						{
							"indexed": true,
							"internalType": "bytes32",
							"name": "foo",
							"type": "bytes32"
						},
						{
							"indexed": true,
							"internalType": "bytes32",
							"name": "bar",
							"type": "bytes32"
						},
						{
							"indexed": false,
							"internalType": "uint256",
							"name": "wad",
							"type": "uint256"
						},
						{
							"indexed": false,
							"internalType": "bytes",
							"name": "fax",
							"type": "bytes"
						}
					],
					"name": "LogNote",
					"type": "event"
				},
				{
					"anonymous": false,
					"inputs": [
						{
							"indexed": true,
							"internalType": "address",
							"name": "authority",
							"type": "address"
						}
					],
					"name": "LogSetAuthority",
					"type": "event"
				},
				{
					"anonymous": false,
					"inputs": [
						{
							"indexed": true,
							"internalType": "address",
							"name": "owner",
							"type": "address"
						}
					],
					"name": "LogSetOwner",
					"type": "event"
				},
				{
					"inputs": [],
					"name": "authority",
					"outputs": [
						{
							"internalType": "contract DSAuthority",
							"name": "",
							"type": "address"
						}
					],
					"stateMutability": "view",
					"type": "function"
				},
				{
					"inputs": [],
					"name": "owner",
					"outputs": [
						{
							"internalType": "address",
							"name": "",
							"type": "address"
						}
					],
					"stateMutability": "view",
					"type": "function"
				},
				{
					"inputs": [],
					"name": "peek",
					"outputs": [
						{
							"internalType": "bytes32",
							"name": "",
							"type": "bytes32"
						},
						{
							"internalType": "bool",
							"name": "",
							"type": "bool"
						}
					],
					"stateMutability": "view",
					"type": "function"
				},
				{
					"inputs": [
						{
							"internalType": "bytes32",
							"name": "wut",
							"type": "bytes32"
						}
					],
					"name": "poke",
					"outputs": [],
					"stateMutability": "payable",
					"type": "function"
				},
				{
					"inputs": [],
					"name": "read",
					"outputs": [
						{
							"internalType": "bytes32",
							"name": "",
							"type": "bytes32"
						}
					],
					"stateMutability": "view",
					"type": "function"
				},
				{
					"inputs": [
						{
							"internalType": "contract DSAuthority",
							"name": "authority_",
							"type": "address"
						}
					],
					"name": "setAuthority",
					"outputs": [],
					"stateMutability": "nonpayable",
					"type": "function"
				},
				{
					"inputs": [
						{
							"internalType": "address",
							"name": "owner_",
							"type": "address"
						}
					],
					"name": "setOwner",
					"outputs": [],
					"stateMutability": "nonpayable",
					"type": "function"
				},
				{
					"inputs": [],
					"name": "void",
					"outputs": [],
					"stateMutability": "payable",
					"type": "function"
				}
			],
			"devdoc": {
				"kind": "dev",
				"methods": {},
				"version": 1
			},
			"evm": {
				"assembly": "    /* \"ds-value/value.sol\":840:1443  contract DSValue is DSThing {... */\n  mstore(0x40, 0x80)\n  callvalue\n  dup1\n  iszero\n  tag_1\n  jumpi\n  0x00\n  dup1\n  revert\ntag_1:\n  pop\n    /* \"ds-auth/auth.sol\":1104:1109  owner */\n  0x01\n    /* \"ds-auth/auth.sol\":1104:1122  owner = msg.sender */\n  dup1\n  sload\n  not(sub(shl(0xa0, 0x01), 0x01))\n  and\n    /* \"ds-auth/auth.sol\":1112:1122  msg.sender */\n  caller\n    /* \"ds-auth/auth.sol\":1104:1122  owner = msg.sender */\n  swap1\n  dup2\n  or\n  swap1\n  swap2\n  sstore\n    /* \"ds-auth/auth.sol\":1137:1160  LogSetOwner(msg.sender) */\n  mload(0x40)\n  0xce241d7ca1f669fee44b6fc00b8eba2df3bb514eed0f6f668f8f89096e81ed94\n  swap1\n    /* \"ds-auth/auth.sol\":1104:1109  owner */\n  0x00\n  swap1\n    /* \"ds-auth/auth.sol\":1137:1160  LogSetOwner(msg.sender) */\n  log2\n    /* \"ds-value/value.sol\":840:1443  contract DSValue is DSThing {... */\n  dataSize(sub_0)\n  dup1\n  dataOffset(sub_0)\n  0x00\n  codecopy\n  0x00\n  return\nstop\n\nsub_0: assembly {\n        /* \"ds-value/value.sol\":840:1443  contract DSValue is DSThing {... */\n      mstore(0x40, 0x80)\n      jumpi(tag_1, lt(calldatasize, 0x04))\n      shr(0xe0, calldataload(0x00))\n      dup1\n      0x7a9e5e4b\n      gt\n      tag_10\n      jumpi\n      dup1\n      0x7a9e5e4b\n      eq\n      tag_6\n      jumpi\n      dup1\n      0x8da5cb5b\n      eq\n      tag_7\n      jumpi\n      dup1\n      0xac4c25b2\n      eq\n      tag_8\n      jumpi\n      dup1\n      0xbf7e214f\n      eq\n      tag_9\n      jumpi\n      0x00\n      dup1\n      revert\n    tag_10:\n      dup1\n      0x13af4035\n      eq\n      tag_2\n      jumpi\n      dup1\n      0x1504460f\n      eq\n      tag_3\n      jumpi\n      dup1\n      0x57de26a4\n      eq\n      tag_4\n      jumpi\n      dup1\n      0x59e02dd7\n      eq\n      tag_5\n      jumpi\n    tag_1:\n      0x00\n      dup1\n      revert\n        /* \"ds-auth/auth.sol\":1173:1303  function setOwner(address owner_)... */\n    tag_2:\n      callvalue\n      dup1\n      iszero\n      tag_11\n      jumpi\n      0x00\n      dup1\n      revert\n    tag_11:\n      pop\n      tag_12\n      tag_13\n      calldatasize\n      0x04\n      tag_14\n      jump\t// in\n    tag_13:\n      tag_15\n      jump\t// in\n    tag_12:\n      stop\n        /* \"ds-value/value.sol\":1249:1347  function poke(bytes32 wut) public note payable auth {... */\n    tag_3:\n      tag_12\n      tag_17\n      calldatasize\n      0x04\n      tag_18\n      jump\t// in\n    tag_17:\n      tag_19\n      jump\t// in\n        /* \"ds-value/value.sol\":998:1244  function read() public view returns (bytes32) {... */\n    tag_4:\n      callvalue\n      dup1\n      iszero\n      tag_20\n      jumpi\n      0x00\n      dup1\n      revert\n    tag_20:\n      pop\n      tag_21\n      tag_22\n      jump\t// in\n    tag_21:\n      mload(0x40)\n        /* \"#utility.yul\":733:758   */\n      swap1\n      dup2\n      mstore\n        /* \"#utility.yul\":721:723   */\n      0x20\n        /* \"#utility.yul\":706:724   */\n      add\n        /* \"ds-value/value.sol\":998:1244  function read() public view returns (bytes32) {... */\n    tag_23:\n      mload(0x40)\n      dup1\n      swap2\n      sub\n      swap1\n      return\n        /* \"ds-value/value.sol\":908:993  function peek() public view returns (bytes32, bool) {... */\n    tag_5:\n      callvalue\n      dup1\n      iszero\n      tag_25\n      jumpi\n      0x00\n      dup1\n      revert\n    tag_25:\n      pop\n        /* \"ds-value/value.sol\":978:981  val */\n      sload(0x02)\n        /* \"ds-value/value.sol\":982:985  has */\n      sload(0x01)\n      shl(0xa0, 0x01)\n      swap1\n      div\n      0xff\n      and\n        /* \"ds-value/value.sol\":908:993  function peek() public view returns (bytes32, bool) {... */\n      0x40\n      dup1\n      mload\n        /* \"#utility.yul\":937:962   */\n      swap3\n      dup4\n      mstore\n        /* \"#utility.yul\":1005:1019   */\n      swap1\n      iszero\n        /* \"#utility.yul\":998:1020   */\n      iszero\n        /* \"#utility.yul\":993:995   */\n      0x20\n        /* \"#utility.yul\":978:996   */\n      dup4\n      add\n        /* \"#utility.yul\":971:1021   */\n      mstore\n        /* \"#utility.yul\":910:928   */\n      add\n        /* \"ds-value/value.sol\":908:993  function peek() public view returns (bytes32, bool) {... */\n      tag_23\n        /* \"#utility.yul\":769:1027   */\n      jump\n        /* \"ds-auth/auth.sol\":1309:1476  function setAuthority(DSAuthority authority_)... */\n    tag_6:\n      callvalue\n      dup1\n      iszero\n      tag_30\n      jumpi\n      0x00\n      dup1\n      revert\n    tag_30:\n      pop\n      tag_12\n      tag_32\n      calldatasize\n      0x04\n      tag_14\n      jump\t// in\n    tag_32:\n      tag_34\n      jump\t// in\n        /* \"ds-auth/auth.sol\":1040:1066  address      public  owner */\n    tag_7:\n      callvalue\n      dup1\n      iszero\n      tag_35\n      jumpi\n      0x00\n      dup1\n      revert\n    tag_35:\n      pop\n      sload(0x01)\n      tag_36\n      swap1\n      sub(shl(0xa0, 0x01), 0x01)\n      and\n      dup2\n      jump\n    tag_36:\n      mload(0x40)\n      sub(shl(0xa0, 0x01), 0x01)\n        /* \"#utility.yul\":1466:1498   */\n      swap1\n      swap2\n      and\n        /* \"#utility.yul\":1448:1499   */\n      dup2\n      mstore\n        /* \"#utility.yul\":1436:1438   */\n      0x20\n        /* \"#utility.yul\":1421:1439   */\n      add\n        /* \"ds-auth/auth.sol\":1040:1066  address      public  owner */\n      tag_23\n        /* \"#utility.yul\":1302:1505   */\n      jump\n        /* \"ds-value/value.sol\":1352:1441  function void() public note payable auth {  // unset the value... */\n    tag_8:\n      tag_12\n      tag_41\n      jump\t// in\n        /* \"ds-auth/auth.sol\":1004:1034  DSAuthority  public  authority */\n    tag_9:\n      callvalue\n      dup1\n      iszero\n      tag_42\n      jumpi\n      0x00\n      dup1\n      revert\n    tag_42:\n      pop\n      sload(0x00)\n      tag_36\n      swap1\n      sub(shl(0xa0, 0x01), 0x01)\n      and\n      dup2\n      jump\n        /* \"ds-auth/auth.sol\":1173:1303  function setOwner(address owner_)... */\n    tag_15:\n        /* \"ds-auth/auth.sol\":1514:1547  isAuthorized(msg.sender, msg.sig) */\n      tag_48\n        /* \"ds-auth/auth.sol\":1527:1537  msg.sender */\n      caller\n        /* \"ds-auth/auth.sol\":1539:1546  msg.sig */\n      and(not(sub(shl(0xe0, 0x01), 0x01)), calldataload(0x00))\n        /* \"ds-auth/auth.sol\":1514:1526  isAuthorized */\n      tag_49\n        /* \"ds-auth/auth.sol\":1514:1547  isAuthorized(msg.sender, msg.sig) */\n      jump\t// in\n    tag_48:\n        /* \"ds-auth/auth.sol\":1506:1572  require(isAuthorized(msg.sender, msg.sig), \"ds-auth-unauthorized\") */\n      tag_50\n      jumpi\n      mload(0x40)\n      shl(0xe5, 0x461bcd)\n      dup2\n      mstore\n      0x04\n      add\n      tag_51\n      swap1\n      tag_52\n      jump\t// in\n    tag_51:\n      mload(0x40)\n      dup1\n      swap2\n      sub\n      swap1\n      revert\n    tag_50:\n        /* \"ds-auth/auth.sol\":1249:1254  owner */\n      0x01\n        /* \"ds-auth/auth.sol\":1249:1263  owner = owner_ */\n      dup1\n      sload\n      not(sub(shl(0xa0, 0x01), 0x01))\n      and\n      sub(shl(0xa0, 0x01), 0x01)\n      dup4\n      and\n      swap1\n      dup2\n      or\n      swap1\n      swap2\n      sstore\n        /* \"ds-auth/auth.sol\":1278:1296  LogSetOwner(owner) */\n      mload(0x40)\n      0xce241d7ca1f669fee44b6fc00b8eba2df3bb514eed0f6f668f8f89096e81ed94\n      swap1\n      0x00\n      swap1\n      log2\n        /* \"ds-auth/auth.sol\":1173:1303  function setOwner(address owner_)... */\n      pop\n      jump\t// out\n        /* \"ds-value/value.sol\":1249:1347  function poke(bytes32 wut) public note payable auth {... */\n    tag_19:\n        /* \"ds-note/note.sol\":1152:1211  LogNote(msg.sig, msg.sender, foo, bar, msg.value, msg.data) */\n      mload(0x40)\n        /* \"ds-note/note.sol\":1089:1090  4 */\n      0x04\n        /* \"ds-note/note.sol\":1076:1091  calldataload(4) */\n      calldataload\n      swap1\n        /* \"ds-note/note.sol\":1124:1126  36 */\n      0x24\n        /* \"ds-note/note.sol\":1111:1127  calldataload(36) */\n      calldataload\n      swap1\n      dup2\n      swap1\n        /* \"ds-note/note.sol\":1076:1091  calldataload(4) */\n      dup4\n      swap1\n        /* \"ds-note/note.sol\":1169:1179  msg.sender */\n      caller\n      swap1\n        /* \"ds-note/note.sol\":1003:1014  bytes32 foo */\n      0x00\n        /* \"ds-note/note.sol\":1160:1167  msg.sig */\n      dup1\n      calldataload\n      not(sub(shl(0xe0, 0x01), 0x01))\n      and\n      swap2\n        /* \"ds-note/note.sol\":1152:1211  LogNote(msg.sig, msg.sender, foo, bar, msg.value, msg.data) */\n      tag_55\n      swap2\n        /* \"ds-note/note.sol\":1191:1200  msg.value */\n      callvalue\n      swap2\n        /* \"ds-note/note.sol\":1202:1210  msg.data */\n      calldatasize\n      swap1\n        /* \"ds-note/note.sol\":1152:1211  LogNote(msg.sig, msg.sender, foo, bar, msg.value, msg.data) */\n      tag_56\n      jump\t// in\n    tag_55:\n      mload(0x40)\n      dup1\n      swap2\n      sub\n      swap1\n      log4\n        /* \"ds-auth/auth.sol\":1514:1547  isAuthorized(msg.sender, msg.sig) */\n      tag_58\n        /* \"ds-auth/auth.sol\":1527:1537  msg.sender */\n      caller\n        /* \"ds-auth/auth.sol\":1539:1546  msg.sig */\n      and(not(sub(shl(0xe0, 0x01), 0x01)), calldataload(0x00))\n        /* \"ds-auth/auth.sol\":1514:1526  isAuthorized */\n      tag_49\n        /* \"ds-auth/auth.sol\":1514:1547  isAuthorized(msg.sender, msg.sig) */\n      jump\t// in\n    tag_58:\n        /* \"ds-auth/auth.sol\":1506:1572  require(isAuthorized(msg.sender, msg.sig), \"ds-auth-unauthorized\") */\n      tag_59\n      jumpi\n      mload(0x40)\n      shl(0xe5, 0x461bcd)\n      dup2\n      mstore\n      0x04\n      add\n      tag_51\n      swap1\n      tag_52\n      jump\t// in\n    tag_59:\n      pop\n      pop\n        /* \"ds-value/value.sol\":1311:1314  val */\n      0x02\n        /* \"ds-value/value.sol\":1311:1320  val = wut */\n      sstore\n        /* \"ds-value/value.sol\":1336:1340  true */\n      0x01\n        /* \"ds-value/value.sol\":1330:1340  has = true */\n      dup1\n      sload\n      not(shl(0xa0, 0xff))\n      and\n      shl(0xa0, 0x01)\n      or\n      swap1\n      sstore\n        /* \"ds-value/value.sol\":1249:1347  function poke(bytes32 wut) public note payable auth {... */\n      jump\t// out\n        /* \"ds-value/value.sol\":998:1244  function read() public view returns (bytes32) {... */\n    tag_22:\n        /* \"ds-value/value.sol\":978:981  val */\n      sload(0x02)\n        /* \"ds-value/value.sol\":982:985  has */\n      sload(0x01)\n        /* \"ds-value/value.sol\":1035:1042  bytes32 */\n      0x00\n      swap2\n        /* \"ds-value/value.sol\":978:981  val */\n      swap1\n      shl(0xa0, 0x01)\n        /* \"ds-value/value.sol\":982:985  has */\n      swap1\n      div\n      0xff\n      and\n      dup1\n        /* \"ds-value/value.sol\":1126:1164  require(haz, \"DSValue: invalid value\") */\n      tag_64\n      jumpi\n      mload(0x40)\n      shl(0xe5, 0x461bcd)\n      dup2\n      mstore\n        /* \"#utility.yul\":2751:2753   */\n      0x20\n        /* \"ds-value/value.sol\":1126:1164  require(haz, \"DSValue: invalid value\") */\n      0x04\n      dup3\n      add\n        /* \"#utility.yul\":2733:2754   */\n      mstore\n        /* \"#utility.yul\":2790:2792   */\n      0x16\n        /* \"#utility.yul\":2770:2788   */\n      0x24\n      dup3\n      add\n        /* \"#utility.yul\":2763:2793   */\n      mstore\n      shl(0x50, 0x445356616c75653a20696e76616c69642076616c7565)\n        /* \"#utility.yul\":2809:2827   */\n      0x44\n      dup3\n      add\n        /* \"#utility.yul\":2802:2854   */\n      mstore\n        /* \"#utility.yul\":2871:2889   */\n      0x64\n      add\n        /* \"ds-value/value.sol\":1126:1164  require(haz, \"DSValue: invalid value\") */\n      tag_51\n        /* \"#utility.yul\":2549:2895   */\n      jump\n        /* \"ds-value/value.sol\":1126:1164  require(haz, \"DSValue: invalid value\") */\n    tag_64:\n      pop\n        /* \"ds-value/value.sol\":1234:1237  wut */\n      swap2\n        /* \"ds-value/value.sol\":998:1244  function read() public view returns (bytes32) {... */\n      swap1\n      pop\n      jump\t// out\n        /* \"ds-auth/auth.sol\":1309:1476  function setAuthority(DSAuthority authority_)... */\n    tag_34:\n        /* \"ds-auth/auth.sol\":1514:1547  isAuthorized(msg.sender, msg.sig) */\n      tag_69\n        /* \"ds-auth/auth.sol\":1527:1537  msg.sender */\n      caller\n        /* \"ds-auth/auth.sol\":1539:1546  msg.sig */\n      and(not(sub(shl(0xe0, 0x01), 0x01)), calldataload(0x00))\n        /* \"ds-auth/auth.sol\":1514:1526  isAuthorized */\n      tag_49\n        /* \"ds-auth/auth.sol\":1514:1547  isAuthorized(msg.sender, msg.sig) */\n      jump\t// in\n    tag_69:\n        /* \"ds-auth/auth.sol\":1506:1572  require(isAuthorized(msg.sender, msg.sig), \"ds-auth-unauthorized\") */\n      tag_70\n      jumpi\n      mload(0x40)\n      shl(0xe5, 0x461bcd)\n      dup2\n      mstore\n      0x04\n      add\n      tag_51\n      swap1\n      tag_52\n      jump\t// in\n    tag_70:\n        /* \"ds-auth/auth.sol\":1397:1406  authority */\n      0x00\n        /* \"ds-auth/auth.sol\":1397:1419  authority = authority_ */\n      dup1\n      sload\n      not(sub(shl(0xa0, 0x01), 0x01))\n      and\n      sub(shl(0xa0, 0x01), 0x01)\n      dup4\n      and\n      swap1\n      dup2\n      or\n      dup3\n      sstore\n        /* \"ds-auth/auth.sol\":1434:1469  LogSetAuthority(address(authority)) */\n      mload(0x40)\n        /* \"ds-auth/auth.sol\":1397:1419  authority = authority_ */\n      swap1\n      swap2\n        /* \"ds-auth/auth.sol\":1434:1469  LogSetAuthority(address(authority)) */\n      0x1abebea81bfa2637f28358c371278fb15ede7ea8dd28d2e03b112ff6d936ada4\n      swap2\n      log2\n        /* \"ds-auth/auth.sol\":1309:1476  function setAuthority(DSAuthority authority_)... */\n      pop\n      jump\t// out\n        /* \"ds-value/value.sol\":1352:1441  function void() public note payable auth {  // unset the value... */\n    tag_41:\n        /* \"ds-note/note.sol\":1152:1211  LogNote(msg.sig, msg.sender, foo, bar, msg.value, msg.data) */\n      mload(0x40)\n        /* \"ds-note/note.sol\":1089:1090  4 */\n      0x04\n        /* \"ds-note/note.sol\":1076:1091  calldataload(4) */\n      calldataload\n      swap1\n        /* \"ds-note/note.sol\":1124:1126  36 */\n      0x24\n        /* \"ds-note/note.sol\":1111:1127  calldataload(36) */\n      calldataload\n      swap1\n      dup2\n      swap1\n        /* \"ds-note/note.sol\":1076:1091  calldataload(4) */\n      dup4\n      swap1\n        /* \"ds-note/note.sol\":1169:1179  msg.sender */\n      caller\n      swap1\n        /* \"ds-note/note.sol\":1003:1014  bytes32 foo */\n      0x00\n        /* \"ds-note/note.sol\":1160:1167  msg.sig */\n      dup1\n      calldataload\n      not(sub(shl(0xe0, 0x01), 0x01))\n      and\n      swap2\n        /* \"ds-note/note.sol\":1152:1211  LogNote(msg.sig, msg.sender, foo, bar, msg.value, msg.data) */\n      tag_74\n      swap2\n        /* \"ds-note/note.sol\":1191:1200  msg.value */\n      callvalue\n      swap2\n        /* \"ds-note/note.sol\":1202:1210  msg.data */\n      calldatasize\n      swap1\n        /* \"ds-note/note.sol\":1152:1211  LogNote(msg.sig, msg.sender, foo, bar, msg.value, msg.data) */\n      tag_56\n      jump\t// in\n    tag_74:\n      mload(0x40)\n      dup1\n      swap2\n      sub\n      swap1\n      log4\n        /* \"ds-auth/auth.sol\":1514:1547  isAuthorized(msg.sender, msg.sig) */\n      tag_76\n        /* \"ds-auth/auth.sol\":1527:1537  msg.sender */\n      caller\n        /* \"ds-auth/auth.sol\":1539:1546  msg.sig */\n      and(not(sub(shl(0xe0, 0x01), 0x01)), calldataload(0x00))\n        /* \"ds-auth/auth.sol\":1514:1526  isAuthorized */\n      tag_49\n        /* \"ds-auth/auth.sol\":1514:1547  isAuthorized(msg.sender, msg.sig) */\n      jump\t// in\n    tag_76:\n        /* \"ds-auth/auth.sol\":1506:1572  require(isAuthorized(msg.sender, msg.sig), \"ds-auth-unauthorized\") */\n      tag_77\n      jumpi\n      mload(0x40)\n      shl(0xe5, 0x461bcd)\n      dup2\n      mstore\n      0x04\n      add\n      tag_51\n      swap1\n      tag_52\n      jump\t// in\n    tag_77:\n      pop\n      pop\n        /* \"ds-value/value.sol\":1423:1426  has */\n      0x01\n        /* \"ds-value/value.sol\":1423:1434  has = false */\n      dup1\n      sload\n      not(shl(0xa0, 0xff))\n      and\n      swap1\n      sstore\n        /* \"ds-value/value.sol\":1352:1441  function void() public note payable auth {  // unset the value... */\n      jump\t// out\n        /* \"ds-auth/auth.sol\":1596:1975  function isAuthorized(address src, bytes4 sig) internal view returns (bool) {... */\n    tag_49:\n        /* \"ds-auth/auth.sol\":1666:1670  bool */\n      0x00\n        /* \"ds-auth/auth.sol\":1701:1705  this */\n      address\n      sub(shl(0xa0, 0x01), 0x01)\n        /* \"ds-auth/auth.sol\":1686:1706  src == address(this) */\n      dup5\n      and\n      sub\n        /* \"ds-auth/auth.sol\":1682:1969  if (src == address(this)) {... */\n      tag_81\n      jumpi\n      pop\n        /* \"ds-auth/auth.sol\":1729:1733  true */\n      0x01\n        /* \"ds-auth/auth.sol\":1722:1733  return true */\n      jump(tag_86)\n        /* \"ds-auth/auth.sol\":1682:1969  if (src == address(this)) {... */\n    tag_81:\n        /* \"ds-auth/auth.sol\":1761:1766  owner */\n      sload(0x01)\n      sub(shl(0xa0, 0x01), 0x01)\n      swap1\n      dup2\n      and\n        /* \"ds-auth/auth.sol\":1754:1766  src == owner */\n      swap1\n      dup5\n      and\n      sub\n        /* \"ds-auth/auth.sol\":1750:1969  if (src == owner) {... */\n      tag_83\n      jumpi\n      pop\n        /* \"ds-auth/auth.sol\":1789:1793  true */\n      0x01\n        /* \"ds-auth/auth.sol\":1782:1793  return true */\n      jump(tag_86)\n        /* \"ds-auth/auth.sol\":1750:1969  if (src == owner) {... */\n    tag_83:\n        /* \"ds-auth/auth.sol\":1847:1848  0 */\n      0x00\n        /* \"ds-auth/auth.sol\":1814:1823  authority */\n      sload\n      sub(shl(0xa0, 0x01), 0x01)\n      and\n        /* \"ds-auth/auth.sol\":1810:1969  if (authority == DSAuthority(address(0))) {... */\n      tag_85\n      jumpi\n      pop\n        /* \"ds-auth/auth.sol\":1873:1878  false */\n      0x00\n        /* \"ds-auth/auth.sol\":1866:1878  return false */\n      jump(tag_86)\n        /* \"ds-auth/auth.sol\":1810:1969  if (authority == DSAuthority(address(0))) {... */\n    tag_85:\n        /* \"ds-auth/auth.sol\":1916:1925  authority */\n      sload(0x00)\n        /* \"ds-auth/auth.sol\":1916:1958  authority.canCall(src, address(this), sig) */\n      mload(0x40)\n      shl(0xe0, 0xb7009613)\n      dup2\n      mstore\n      sub(shl(0xa0, 0x01), 0x01)\n        /* \"#utility.yul\":3156:3171   */\n      dup6\n      dup2\n      and\n        /* \"ds-auth/auth.sol\":1916:1958  authority.canCall(src, address(this), sig) */\n      0x04\n      dup4\n      add\n        /* \"#utility.yul\":3138:3172   */\n      mstore\n        /* \"ds-auth/auth.sol\":1947:1951  this */\n      address\n        /* \"#utility.yul\":3188:3206   */\n      0x24\n      dup4\n      add\n        /* \"#utility.yul\":3181:3224   */\n      mstore\n      not(sub(shl(0xe0, 0x01), 0x01))\n        /* \"#utility.yul\":3260:3293   */\n      dup6\n      and\n        /* \"#utility.yul\":3240:3258   */\n      0x44\n      dup4\n      add\n        /* \"#utility.yul\":3233:3294   */\n      mstore\n        /* \"ds-auth/auth.sol\":1916:1925  authority */\n      swap1\n      swap2\n      and\n      swap1\n        /* \"ds-auth/auth.sol\":1916:1933  authority.canCall */\n      0xb7009613\n      swap1\n        /* \"#utility.yul\":3073:3091   */\n      0x64\n      add\n        /* \"ds-auth/auth.sol\":1916:1958  authority.canCall(src, address(this), sig) */\n      0x20\n      mload(0x40)\n      dup1\n      dup4\n      sub\n      dup2\n      dup7\n      gas\n      staticcall\n      iszero\n      dup1\n      iszero\n      tag_90\n      jumpi\n      returndatasize\n      0x00\n      dup1\n      returndatacopy\n      revert(0x00, returndatasize)\n    tag_90:\n      pop\n      pop\n      pop\n      pop\n      mload(0x40)\n      returndatasize\n      not(0x1f)\n      0x1f\n      dup3\n      add\n      and\n      dup3\n      add\n      dup1\n      0x40\n      mstore\n      pop\n      dup2\n      add\n      swap1\n      tag_91\n      swap2\n      swap1\n      tag_92\n      jump\t// in\n    tag_91:\n        /* \"ds-auth/auth.sol\":1909:1958  return authority.canCall(src, address(this), sig) */\n      swap1\n      pop\n        /* \"ds-auth/auth.sol\":1810:1969  if (authority == DSAuthority(address(0))) {... */\n    tag_86:\n        /* \"ds-auth/auth.sol\":1596:1975  function isAuthorized(address src, bytes4 sig) internal view returns (bool) {... */\n      swap3\n      swap2\n      pop\n      pop\n      jump\t// out\n        /* \"#utility.yul\":14:145   */\n    tag_93:\n      sub(shl(0xa0, 0x01), 0x01)\n        /* \"#utility.yul\":89:120   */\n      dup2\n      and\n        /* \"#utility.yul\":79:121   */\n      dup2\n      eq\n        /* \"#utility.yul\":69:139   */\n      tag_96\n      jumpi\n        /* \"#utility.yul\":135:136   */\n      0x00\n        /* \"#utility.yul\":132:133   */\n      dup1\n        /* \"#utility.yul\":125:137   */\n      revert\n        /* \"#utility.yul\":69:139   */\n    tag_96:\n        /* \"#utility.yul\":14:145   */\n      pop\n      jump\t// out\n        /* \"#utility.yul\":150:397   */\n    tag_14:\n        /* \"#utility.yul\":209:215   */\n      0x00\n        /* \"#utility.yul\":262:264   */\n      0x20\n        /* \"#utility.yul\":250:259   */\n      dup3\n        /* \"#utility.yul\":241:248   */\n      dup5\n        /* \"#utility.yul\":237:260   */\n      sub\n        /* \"#utility.yul\":233:265   */\n      slt\n        /* \"#utility.yul\":230:282   */\n      iszero\n      tag_98\n      jumpi\n        /* \"#utility.yul\":278:279   */\n      0x00\n        /* \"#utility.yul\":275:276   */\n      dup1\n        /* \"#utility.yul\":268:280   */\n      revert\n        /* \"#utility.yul\":230:282   */\n    tag_98:\n        /* \"#utility.yul\":317:326   */\n      dup2\n        /* \"#utility.yul\":304:327   */\n      calldataload\n        /* \"#utility.yul\":336:367   */\n      tag_99\n        /* \"#utility.yul\":361:366   */\n      dup2\n        /* \"#utility.yul\":336:367   */\n      tag_93\n      jump\t// in\n    tag_99:\n        /* \"#utility.yul\":386:391   */\n      swap4\n        /* \"#utility.yul\":150:397   */\n      swap3\n      pop\n      pop\n      pop\n      jump\t// out\n        /* \"#utility.yul\":402:582   */\n    tag_18:\n        /* \"#utility.yul\":461:467   */\n      0x00\n        /* \"#utility.yul\":514:516   */\n      0x20\n        /* \"#utility.yul\":502:511   */\n      dup3\n        /* \"#utility.yul\":493:500   */\n      dup5\n        /* \"#utility.yul\":489:512   */\n      sub\n        /* \"#utility.yul\":485:517   */\n      slt\n        /* \"#utility.yul\":482:534   */\n      iszero\n      tag_101\n      jumpi\n        /* \"#utility.yul\":530:531   */\n      0x00\n        /* \"#utility.yul\":527:528   */\n      dup1\n        /* \"#utility.yul\":520:532   */\n      revert\n        /* \"#utility.yul\":482:534   */\n    tag_101:\n      pop\n        /* \"#utility.yul\":553:576   */\n      calldataload\n      swap2\n        /* \"#utility.yul\":402:582   */\n      swap1\n      pop\n      jump\t// out\n        /* \"#utility.yul\":1736:2080   */\n    tag_52:\n        /* \"#utility.yul\":1938:1940   */\n      0x20\n        /* \"#utility.yul\":1920:1941   */\n      dup1\n      dup3\n      mstore\n        /* \"#utility.yul\":1977:1979   */\n      0x14\n        /* \"#utility.yul\":1957:1975   */\n      swap1\n      dup3\n      add\n        /* \"#utility.yul\":1950:1980   */\n      mstore\n      shl(0x62, 0x191ccb585d5d1a0b5d5b985d5d1a1bdc9a5e9959)\n        /* \"#utility.yul\":2011:2013   */\n      0x40\n        /* \"#utility.yul\":1996:2014   */\n      dup3\n      add\n        /* \"#utility.yul\":1989:2039   */\n      mstore\n        /* \"#utility.yul\":2071:2073   */\n      0x60\n        /* \"#utility.yul\":2056:2074   */\n      add\n      swap1\n        /* \"#utility.yul\":1736:2080   */\n      jump\t// out\n        /* \"#utility.yul\":2085:2544   */\n    tag_56:\n        /* \"#utility.yul\":2270:2276   */\n      dup4\n        /* \"#utility.yul\":2259:2268   */\n      dup2\n        /* \"#utility.yul\":2252:2277   */\n      mstore\n        /* \"#utility.yul\":2313:2315   */\n      0x40\n        /* \"#utility.yul\":2308:2310   */\n      0x20\n        /* \"#utility.yul\":2297:2306   */\n      dup3\n        /* \"#utility.yul\":2293:2311   */\n      add\n        /* \"#utility.yul\":2286:2316   */\n      mstore\n        /* \"#utility.yul\":2352:2358   */\n      dup2\n        /* \"#utility.yul\":2347:2349   */\n      0x40\n        /* \"#utility.yul\":2336:2345   */\n      dup3\n        /* \"#utility.yul\":2332:2350   */\n      add\n        /* \"#utility.yul\":2325:2359   */\n      mstore\n        /* \"#utility.yul\":2409:2415   */\n      dup2\n        /* \"#utility.yul\":2401:2407   */\n      dup4\n        /* \"#utility.yul\":2396:2398   */\n      0x60\n        /* \"#utility.yul\":2385:2394   */\n      dup4\n        /* \"#utility.yul\":2381:2399   */\n      add\n        /* \"#utility.yul\":2368:2416   */\n      calldatacopy\n        /* \"#utility.yul\":2465:2466   */\n      0x00\n        /* \"#utility.yul\":2436:2458   */\n      dup2\n      dup4\n      add\n        /* \"#utility.yul\":2460:2462   */\n      0x60\n        /* \"#utility.yul\":2432:2463   */\n      swap1\n      dup2\n      add\n        /* \"#utility.yul\":2425:2467   */\n      swap2\n      swap1\n      swap2\n      mstore\n        /* \"#utility.yul\":2528:2530   */\n      0x1f\n        /* \"#utility.yul\":2507:2522   */\n      swap1\n      swap3\n      add\n      not(0x1f)\n        /* \"#utility.yul\":2503:2532   */\n      and\n        /* \"#utility.yul\":2488:2533   */\n      add\n        /* \"#utility.yul\":2484:2538   */\n      add\n      swap3\n        /* \"#utility.yul\":2085:2544   */\n      swap2\n      pop\n      pop\n      jump\t// out\n        /* \"#utility.yul\":3305:3582   */\n    tag_92:\n        /* \"#utility.yul\":3372:3378   */\n      0x00\n        /* \"#utility.yul\":3425:3427   */\n      0x20\n        /* \"#utility.yul\":3413:3422   */\n      dup3\n        /* \"#utility.yul\":3404:3411   */\n      dup5\n        /* \"#utility.yul\":3400:3423   */\n      sub\n        /* \"#utility.yul\":3396:3428   */\n      slt\n        /* \"#utility.yul\":3393:3445   */\n      iszero\n      tag_114\n      jumpi\n        /* \"#utility.yul\":3441:3442   */\n      0x00\n        /* \"#utility.yul\":3438:3439   */\n      dup1\n        /* \"#utility.yul\":3431:3443   */\n      revert\n        /* \"#utility.yul\":3393:3445   */\n    tag_114:\n        /* \"#utility.yul\":3473:3482   */\n      dup2\n        /* \"#utility.yul\":3467:3483   */\n      mload\n        /* \"#utility.yul\":3526:3531   */\n      dup1\n        /* \"#utility.yul\":3519:3532   */\n      iszero\n        /* \"#utility.yul\":3512:3533   */\n      iszero\n        /* \"#utility.yul\":3505:3510   */\n      dup2\n        /* \"#utility.yul\":3502:3534   */\n      eq\n        /* \"#utility.yul\":3492:3552   */\n      tag_99\n      jumpi\n        /* \"#utility.yul\":3548:3549   */\n      0x00\n        /* \"#utility.yul\":3545:3546   */\n      dup1\n        /* \"#utility.yul\":3538:3550   */\n      revert\n\n    auxdata: 0xa2646970667358221220c3bd0dbf7346b824b4333c892d57f87f1c5078b67bb1b6eb3ed54e7ee829f1af64736f6c63430008140033\n}\n",
				"bytecode": {
					"linkReferences": {},
					"object": "608060405234801561000f575f80fd5b50600180546001600160a01b031916339081179091556040517fce241d7ca1f669fee44b6fc00b8eba2df3bb514eed0f6f668f8f89096e81ed94905f90a26105b38061005a5f395ff3fe608060405260043610610079575f3560e01c80637a9e5e4b1161004c5780637a9e5e4b146101095780638da5cb5b14610128578063ac4c25b21461015f578063bf7e214f14610167575f80fd5b806313af40351461007d5780631504460f1461009e57806357de26a4146100b157806359e02dd7146100d8575b5f80fd5b348015610088575f80fd5b5061009c6100973660046104c2565b610185565b005b61009c6100ac3660046104e4565b610208565b3480156100bc575f80fd5b506100c5610287565b6040519081526020015b60405180910390f35b3480156100e3575f80fd5b50600254600154600160a01b900460ff16604080519283529015156020830152016100cf565b348015610114575f80fd5b5061009c6101233660046104c2565b6102e6565b348015610133575f80fd5b50600154610147906001600160a01b031681565b6040516001600160a01b0390911681526020016100cf565b61009c61035e565b348015610172575f80fd5b505f54610147906001600160a01b031681565b61019a335f356001600160e01b0319166103d4565b6101bf5760405162461bcd60e51b81526004016101b6906104fb565b60405180910390fd5b600180546001600160a01b0319166001600160a01b0383169081179091556040517fce241d7ca1f669fee44b6fc00b8eba2df3bb514eed0f6f668f8f89096e81ed94905f90a250565b60405160043590602435908190839033905f80356001600160e01b031916916102349134913690610529565b60405180910390a4610251335f356001600160e01b0319166103d4565b61026d5760405162461bcd60e51b81526004016101b6906104fb565b50506002556001805460ff60a01b1916600160a01b179055565b6002546001545f9190600160a01b900460ff16806102e05760405162461bcd60e51b8152602060048201526016602482015275445356616c75653a20696e76616c69642076616c756560501b60448201526064016101b6565b50919050565b6102fb335f356001600160e01b0319166103d4565b6103175760405162461bcd60e51b81526004016101b6906104fb565b5f80546001600160a01b0319166001600160a01b038316908117825560405190917f1abebea81bfa2637f28358c371278fb15ede7ea8dd28d2e03b112ff6d936ada491a250565b60405160043590602435908190839033905f80356001600160e01b0319169161038a9134913690610529565b60405180910390a46103a7335f356001600160e01b0319166103d4565b6103c35760405162461bcd60e51b81526004016101b6906104fb565b50506001805460ff60a01b19169055565b5f306001600160a01b038416036103ed575060016104a5565b6001546001600160a01b039081169084160361040b575060016104a5565b5f546001600160a01b031661042157505f6104a5565b5f5460405163b700961360e01b81526001600160a01b0385811660048301523060248301526001600160e01b0319851660448301529091169063b700961390606401602060405180830381865afa15801561047e573d5f803e3d5ffd5b505050506040513d601f19601f820116820180604052508101906104a2919061055e565b90505b92915050565b6001600160a01b03811681146104bf575f80fd5b50565b5f602082840312156104d2575f80fd5b81356104dd816104ab565b9392505050565b5f602082840312156104f4575f80fd5b5035919050565b602080825260149082015273191ccb585d5d1a0b5d5b985d5d1a1bdc9a5e995960621b604082015260600190565b83815260406020820152816040820152818360608301375f818301606090810191909152601f909201601f1916010192915050565b5f6020828403121561056e575f80fd5b815180151581146104dd575f80fdfea2646970667358221220c3bd0dbf7346b824b4333c892d57f87f1c5078b67bb1b6eb3ed54e7ee829f1af64736f6c63430008140033",
					"opcodes": "PUSH1 0x80 PUSH1 0x40 MSTORE CALLVALUE DUP1 ISZERO PUSH2 0xF JUMPI PUSH0 DUP1 REVERT JUMPDEST POP PUSH1 0x1 DUP1 SLOAD PUSH1 0x1 PUSH1 0x1 PUSH1 0xA0 SHL SUB NOT AND CALLER SWAP1 DUP2 OR SWAP1 SWAP2 SSTORE PUSH1 0x40 MLOAD PUSH32 0xCE241D7CA1F669FEE44B6FC00B8EBA2DF3BB514EED0F6F668F8F89096E81ED94 SWAP1 PUSH0 SWAP1 LOG2 PUSH2 0x5B3 DUP1 PUSH2 0x5A PUSH0 CODECOPY PUSH0 RETURN INVALID PUSH1 0x80 PUSH1 0x40 MSTORE PUSH1 0x4 CALLDATASIZE LT PUSH2 0x79 JUMPI PUSH0 CALLDATALOAD PUSH1 0xE0 SHR DUP1 PUSH4 0x7A9E5E4B GT PUSH2 0x4C JUMPI DUP1 PUSH4 0x7A9E5E4B EQ PUSH2 0x109 JUMPI DUP1 PUSH4 0x8DA5CB5B EQ PUSH2 0x128 JUMPI DUP1 PUSH4 0xAC4C25B2 EQ PUSH2 0x15F JUMPI DUP1 PUSH4 0xBF7E214F EQ PUSH2 0x167 JUMPI PUSH0 DUP1 REVERT JUMPDEST DUP1 PUSH4 0x13AF4035 EQ PUSH2 0x7D JUMPI DUP1 PUSH4 0x1504460F EQ PUSH2 0x9E JUMPI DUP1 PUSH4 0x57DE26A4 EQ PUSH2 0xB1 JUMPI DUP1 PUSH4 0x59E02DD7 EQ PUSH2 0xD8 JUMPI JUMPDEST PUSH0 DUP1 REVERT JUMPDEST CALLVALUE DUP1 ISZERO PUSH2 0x88 JUMPI PUSH0 DUP1 REVERT JUMPDEST POP PUSH2 0x9C PUSH2 0x97 CALLDATASIZE PUSH1 0x4 PUSH2 0x4C2 JUMP JUMPDEST PUSH2 0x185 JUMP JUMPDEST STOP JUMPDEST PUSH2 0x9C PUSH2 0xAC CALLDATASIZE PUSH1 0x4 PUSH2 0x4E4 JUMP JUMPDEST PUSH2 0x208 JUMP JUMPDEST CALLVALUE DUP1 ISZERO PUSH2 0xBC JUMPI PUSH0 DUP1 REVERT JUMPDEST POP PUSH2 0xC5 PUSH2 0x287 JUMP JUMPDEST PUSH1 0x40 MLOAD SWAP1 DUP2 MSTORE PUSH1 0x20 ADD JUMPDEST PUSH1 0x40 MLOAD DUP1 SWAP2 SUB SWAP1 RETURN JUMPDEST CALLVALUE DUP1 ISZERO PUSH2 0xE3 JUMPI PUSH0 DUP1 REVERT JUMPDEST POP PUSH1 0x2 SLOAD PUSH1 0x1 SLOAD PUSH1 0x1 PUSH1 0xA0 SHL SWAP1 DIV PUSH1 0xFF AND PUSH1 0x40 DUP1 MLOAD SWAP3 DUP4 MSTORE SWAP1 ISZERO ISZERO PUSH1 0x20 DUP4 ADD MSTORE ADD PUSH2 0xCF JUMP JUMPDEST CALLVALUE DUP1 ISZERO PUSH2 0x114 JUMPI PUSH0 DUP1 REVERT JUMPDEST POP PUSH2 0x9C PUSH2 0x123 CALLDATASIZE PUSH1 0x4 PUSH2 0x4C2 JUMP JUMPDEST PUSH2 0x2E6 JUMP JUMPDEST CALLVALUE DUP1 ISZERO PUSH2 0x133 JUMPI PUSH0 DUP1 REVERT JUMPDEST POP PUSH1 0x1 SLOAD PUSH2 0x147 SWAP1 PUSH1 0x1 PUSH1 0x1 PUSH1 0xA0 SHL SUB AND DUP2 JUMP JUMPDEST PUSH1 0x40 MLOAD PUSH1 0x1 PUSH1 0x1 PUSH1 0xA0 SHL SUB SWAP1 SWAP2 AND DUP2 MSTORE PUSH1 0x20 ADD PUSH2 0xCF JUMP JUMPDEST PUSH2 0x9C PUSH2 0x35E JUMP JUMPDEST CALLVALUE DUP1 ISZERO PUSH2 0x172 JUMPI PUSH0 DUP1 REVERT JUMPDEST POP PUSH0 SLOAD PUSH2 0x147 SWAP1 PUSH1 0x1 PUSH1 0x1 PUSH1 0xA0 SHL SUB AND DUP2 JUMP JUMPDEST PUSH2 0x19A CALLER PUSH0 CALLDATALOAD PUSH1 0x1 PUSH1 0x1 PUSH1 0xE0 SHL SUB NOT AND PUSH2 0x3D4 JUMP JUMPDEST PUSH2 0x1BF JUMPI PUSH1 0x40 MLOAD PUSH3 0x461BCD PUSH1 0xE5 SHL DUP2 MSTORE PUSH1 0x4 ADD PUSH2 0x1B6 SWAP1 PUSH2 0x4FB JUMP JUMPDEST PUSH1 0x40 MLOAD DUP1 SWAP2 SUB SWAP1 REVERT JUMPDEST PUSH1 0x1 DUP1 SLOAD PUSH1 0x1 PUSH1 0x1 PUSH1 0xA0 SHL SUB NOT AND PUSH1 0x1 PUSH1 0x1 PUSH1 0xA0 SHL SUB DUP4 AND SWAP1 DUP2 OR SWAP1 SWAP2 SSTORE PUSH1 0x40 MLOAD PUSH32 0xCE241D7CA1F669FEE44B6FC00B8EBA2DF3BB514EED0F6F668F8F89096E81ED94 SWAP1 PUSH0 SWAP1 LOG2 POP JUMP JUMPDEST PUSH1 0x40 MLOAD PUSH1 0x4 CALLDATALOAD SWAP1 PUSH1 0x24 CALLDATALOAD SWAP1 DUP2 SWAP1 DUP4 SWAP1 CALLER SWAP1 PUSH0 DUP1 CALLDATALOAD PUSH1 0x1 PUSH1 0x1 PUSH1 0xE0 SHL SUB NOT AND SWAP2 PUSH2 0x234 SWAP2 CALLVALUE SWAP2 CALLDATASIZE SWAP1 PUSH2 0x529 JUMP JUMPDEST PUSH1 0x40 MLOAD DUP1 SWAP2 SUB SWAP1 LOG4 PUSH2 0x251 CALLER PUSH0 CALLDATALOAD PUSH1 0x1 PUSH1 0x1 PUSH1 0xE0 SHL SUB NOT AND PUSH2 0x3D4 JUMP JUMPDEST PUSH2 0x26D JUMPI PUSH1 0x40 MLOAD PUSH3 0x461BCD PUSH1 0xE5 SHL DUP2 MSTORE PUSH1 0x4 ADD PUSH2 0x1B6 SWAP1 PUSH2 0x4FB JUMP JUMPDEST POP POP PUSH1 0x2 SSTORE PUSH1 0x1 DUP1 SLOAD PUSH1 0xFF PUSH1 0xA0 SHL NOT AND PUSH1 0x1 PUSH1 0xA0 SHL OR SWAP1 SSTORE JUMP JUMPDEST PUSH1 0x2 SLOAD PUSH1 0x1 SLOAD PUSH0 SWAP2 SWAP1 PUSH1 0x1 PUSH1 0xA0 SHL SWAP1 DIV PUSH1 0xFF AND DUP1 PUSH2 0x2E0 JUMPI PUSH1 0x40 MLOAD PUSH3 0x461BCD PUSH1 0xE5 SHL DUP2 MSTORE PUSH1 0x20 PUSH1 0x4 DUP3 ADD MSTORE PUSH1 0x16 PUSH1 0x24 DUP3 ADD MSTORE PUSH22 0x445356616C75653A20696E76616C69642076616C7565 PUSH1 0x50 SHL PUSH1 0x44 DUP3 ADD MSTORE PUSH1 0x64 ADD PUSH2 0x1B6 JUMP JUMPDEST POP SWAP2 SWAP1 POP JUMP JUMPDEST PUSH2 0x2FB CALLER PUSH0 CALLDATALOAD PUSH1 0x1 PUSH1 0x1 PUSH1 0xE0 SHL SUB NOT AND PUSH2 0x3D4 JUMP JUMPDEST PUSH2 0x317 JUMPI PUSH1 0x40 MLOAD PUSH3 0x461BCD PUSH1 0xE5 SHL DUP2 MSTORE PUSH1 0x4 ADD PUSH2 0x1B6 SWAP1 PUSH2 0x4FB JUMP JUMPDEST PUSH0 DUP1 SLOAD PUSH1 0x1 PUSH1 0x1 PUSH1 0xA0 SHL SUB NOT AND PUSH1 0x1 PUSH1 0x1 PUSH1 0xA0 SHL SUB DUP4 AND SWAP1 DUP2 OR DUP3 SSTORE PUSH1 0x40 MLOAD SWAP1 SWAP2 PUSH32 0x1ABEBEA81BFA2637F28358C371278FB15EDE7EA8DD28D2E03B112FF6D936ADA4 SWAP2 LOG2 POP JUMP JUMPDEST PUSH1 0x40 MLOAD PUSH1 0x4 CALLDATALOAD SWAP1 PUSH1 0x24 CALLDATALOAD SWAP1 DUP2 SWAP1 DUP4 SWAP1 CALLER SWAP1 PUSH0 DUP1 CALLDATALOAD PUSH1 0x1 PUSH1 0x1 PUSH1 0xE0 SHL SUB NOT AND SWAP2 PUSH2 0x38A SWAP2 CALLVALUE SWAP2 CALLDATASIZE SWAP1 PUSH2 0x529 JUMP JUMPDEST PUSH1 0x40 MLOAD DUP1 SWAP2 SUB SWAP1 LOG4 PUSH2 0x3A7 CALLER PUSH0 CALLDATALOAD PUSH1 0x1 PUSH1 0x1 PUSH1 0xE0 SHL SUB NOT AND PUSH2 0x3D4 JUMP JUMPDEST PUSH2 0x3C3 JUMPI PUSH1 0x40 MLOAD PUSH3 0x461BCD PUSH1 0xE5 SHL DUP2 MSTORE PUSH1 0x4 ADD PUSH2 0x1B6 SWAP1 PUSH2 0x4FB JUMP JUMPDEST POP POP PUSH1 0x1 DUP1 SLOAD PUSH1 0xFF PUSH1 0xA0 SHL NOT AND SWAP1 SSTORE JUMP JUMPDEST PUSH0 ADDRESS PUSH1 0x1 PUSH1 0x1 PUSH1 0xA0 SHL SUB DUP5 AND SUB PUSH2 0x3ED JUMPI POP PUSH1 0x1 PUSH2 0x4A5 JUMP JUMPDEST PUSH1 0x1 SLOAD PUSH1 0x1 PUSH1 0x1 PUSH1 0xA0 SHL SUB SWAP1 DUP2 AND SWAP1 DUP5 AND SUB PUSH2 0x40B JUMPI POP PUSH1 0x1 PUSH2 0x4A5 JUMP JUMPDEST PUSH0 SLOAD PUSH1 0x1 PUSH1 0x1 PUSH1 0xA0 SHL SUB AND PUSH2 0x421 JUMPI POP PUSH0 PUSH2 0x4A5 JUMP JUMPDEST PUSH0 SLOAD PUSH1 0x40 MLOAD PUSH4 0xB7009613 PUSH1 0xE0 SHL DUP2 MSTORE PUSH1 0x1 PUSH1 0x1 PUSH1 0xA0 SHL SUB DUP6 DUP2 AND PUSH1 0x4 DUP4 ADD MSTORE ADDRESS PUSH1 0x24 DUP4 ADD MSTORE PUSH1 0x1 PUSH1 0x1 PUSH1 0xE0 SHL SUB NOT DUP6 AND PUSH1 0x44 DUP4 ADD MSTORE SWAP1 SWAP2 AND SWAP1 PUSH4 0xB7009613 SWAP1 PUSH1 0x64 ADD PUSH1 0x20 PUSH1 0x40 MLOAD DUP1 DUP4 SUB DUP2 DUP7 GAS STATICCALL ISZERO DUP1 ISZERO PUSH2 0x47E JUMPI RETURNDATASIZE PUSH0 DUP1 RETURNDATACOPY RETURNDATASIZE PUSH0 REVERT JUMPDEST POP POP POP POP PUSH1 0x40 MLOAD RETURNDATASIZE PUSH1 0x1F NOT PUSH1 0x1F DUP3 ADD AND DUP3 ADD DUP1 PUSH1 0x40 MSTORE POP DUP2 ADD SWAP1 PUSH2 0x4A2 SWAP2 SWAP1 PUSH2 0x55E JUMP JUMPDEST SWAP1 POP JUMPDEST SWAP3 SWAP2 POP POP JUMP JUMPDEST PUSH1 0x1 PUSH1 0x1 PUSH1 0xA0 SHL SUB DUP2 AND DUP2 EQ PUSH2 0x4BF JUMPI PUSH0 DUP1 REVERT JUMPDEST POP JUMP JUMPDEST PUSH0 PUSH1 0x20 DUP3 DUP5 SUB SLT ISZERO PUSH2 0x4D2 JUMPI PUSH0 DUP1 REVERT JUMPDEST DUP2 CALLDATALOAD PUSH2 0x4DD DUP2 PUSH2 0x4AB JUMP JUMPDEST SWAP4 SWAP3 POP POP POP JUMP JUMPDEST PUSH0 PUSH1 0x20 DUP3 DUP5 SUB SLT ISZERO PUSH2 0x4F4 JUMPI PUSH0 DUP1 REVERT JUMPDEST POP CALLDATALOAD SWAP2 SWAP1 POP JUMP JUMPDEST PUSH1 0x20 DUP1 DUP3 MSTORE PUSH1 0x14 SWAP1 DUP3 ADD MSTORE PUSH20 0x191CCB585D5D1A0B5D5B985D5D1A1BDC9A5E9959 PUSH1 0x62 SHL PUSH1 0x40 DUP3 ADD MSTORE PUSH1 0x60 ADD SWAP1 JUMP JUMPDEST DUP4 DUP2 MSTORE PUSH1 0x40 PUSH1 0x20 DUP3 ADD MSTORE DUP2 PUSH1 0x40 DUP3 ADD MSTORE DUP2 DUP4 PUSH1 0x60 DUP4 ADD CALLDATACOPY PUSH0 DUP2 DUP4 ADD PUSH1 0x60 SWAP1 DUP2 ADD SWAP2 SWAP1 SWAP2 MSTORE PUSH1 0x1F SWAP1 SWAP3 ADD PUSH1 0x1F NOT AND ADD ADD SWAP3 SWAP2 POP POP JUMP JUMPDEST PUSH0 PUSH1 0x20 DUP3 DUP5 SUB SLT ISZERO PUSH2 0x56E JUMPI PUSH0 DUP1 REVERT JUMPDEST DUP2 MLOAD DUP1 ISZERO ISZERO DUP2 EQ PUSH2 0x4DD JUMPI PUSH0 DUP1 REVERT INVALID LOG2 PUSH5 0x6970667358 0x22 SLT KECCAK256 0xC3 0xBD 0xD 0xBF PUSH20 0x46B824B4333C892D57F87F1C5078B67BB1B6EB3E 0xD5 0x4E PUSH31 0xE829F1AF64736F6C6343000814003300000000000000000000000000000000 "
				},
				"gasEstimates": {
					"creation": {
						"codeDepositCost": "291800",
						"executionCost": "25715",
						"totalCost": "317515"
					},
					"external": {
						"authority()": "2401",
						"owner()": "2358",
						"peek()": "4496",
						"poke(bytes32)": "infinite",
						"read()": "4555",
						"setAuthority(address)": "infinite",
						"setOwner(address)": "infinite",
						"void()": "infinite"
					}
				},
				"methodIdentifiers": {
					"authority()": "bf7e214f",
					"owner()": "8da5cb5b",
					"peek()": "59e02dd7",
					"poke(bytes32)": "1504460f",
					"read()": "57de26a4",
					"setAuthority(address)": "7a9e5e4b",
					"setOwner(address)": "13af4035",
					"void()": "ac4c25b2"
				}
			},
			"storageLayout": {
				"storage": [
					{
						"astId": 27,
						"contract": "ds-value/value.sol:DSValue",
						"label": "authority",
						"offset": 0,
						"slot": "0",
						"type": "t_contract(DSAuthority)13"
					},
					{
						"astId": 29,
						"contract": "ds-value/value.sol:DSValue",
						"label": "owner",
						"offset": 0,
						"slot": "1",
						"type": "t_address"
					},
					{
						"astId": 526,
						"contract": "ds-value/value.sol:DSValue",
						"label": "has",
						"offset": 20,
						"slot": "1",
						"type": "t_bool"
					},
					{
						"astId": 528,
						"contract": "ds-value/value.sol:DSValue",
						"label": "val",
						"offset": 0,
						"slot": "2",
						"type": "t_bytes32"
					}
				],
				"types": {
					"t_address": {
						"encoding": "inplace",
						"label": "address",
						"numberOfBytes": "20"
					},
					"t_bool": {
						"encoding": "inplace",
						"label": "bool",
						"numberOfBytes": "1"
					},
					"t_bytes32": {
						"encoding": "inplace",
						"label": "bytes32",
						"numberOfBytes": "32"
					},
					"t_contract(DSAuthority)13": {
						"encoding": "inplace",
						"label": "contract DSAuthority",
						"numberOfBytes": "20"
					}
				}
			},
			"userdoc": {
				"kind": "user",
				"methods": {},
				"version": 1
			}
		}
	}
}