{
	"ds-thing/thing.sol": {
		"DSThing": {
			"abi": [
				{
					"anonymous": true,
					"inputs": [
						{
							"indexed": true,
							"internalType": "bytes4",
							"name": "sig",
							"type": "bytes4"
						},
						{
							"indexed": true,
							"internalType": "address",
							"name": "guy",
							"type": "address"
						},
						{
							"indexed": true,
							"internalType": "bytes32",
							"name": "foo",
							"type": "bytes32"
						},
						{
							"indexed": true,
							"internalType": "bytes32",
							"name": "bar",
							"type": "bytes32"
						},
						{
							"indexed": false,
							"internalType": "uint256",
							"name": "wad",
							"type": "uint256"
						},
						{
							"indexed": false,
							"internalType": "bytes",
							"name": "fax",
							"type": "bytes"
						}
					],
					"name": "LogNote",
					"type": "event"
				},
				{
					"anonymous": false,
					"inputs": [
						{
							"indexed": true,
							"internalType": "address",
							"name": "authority",
							"type": "address"
						}
					],
					"name": "LogSetAuthority",
					"type": "event"
				},
				{
					"anonymous": false,
					"inputs": [
						{
							"indexed": true,
							"internalType": "address",
							"name": "owner",
							"type": "address"
						}
					],
					"name": "LogSetOwner",
					"type": "event"
				},
				{
					"inputs": [],
					"name": "authority",
					"outputs": [
						{
							"internalType": "contract DSAuthority",
							"name": "",
							"type": "address"
						}
					],
					"stateMutability": "view",
					"type": "function"
				},
				{
					"inputs": [],
					"name": "owner",
					"outputs": [
						{
							"internalType": "address",
							"name": "",
							"type": "address"
						}
					],
					"stateMutability": "view",
					"type": "function"
				},
				{
					"inputs": [
						{
							"internalType": "contract DSAuthority",
							"name": "authority_",
							"type": "address"
						}
					],
					"name": "setAuthority",
					"outputs": [],
					"stateMutability": "nonpayable",
					"type": "function"
				},
				{
					"inputs": [
						{
							"internalType": "address",
							"name": "owner_",
							"type": "address"
						}
					],
					"name": "setOwner",
					"outputs": [],
					"stateMutability": "nonpayable",
					"type": "function"
				}
			],
			"devdoc": {
				"kind": "dev",
				"methods": {},
				"version": 1
			},
			"evm": {
				"assembly": "    /* \"ds-thing/thing.sol\":861:1025  contract DSThing is DSAuth, DSNote, DSMath {... */\n  mstore(0x40, 0x80)\n  callvalue\n  dup1\n  iszero\n  tag_1\n  jumpi\n  0x00\n  dup1\n  revert\ntag_1:\n  pop\n    /* \"ds-auth/auth.sol\":1104:1109  owner */\n  0x01\n    /* \"ds-auth/auth.sol\":1104:1122  owner = msg.sender */\n  dup1\n  sload\n  not(sub(shl(0xa0, 0x01), 0x01))\n  and\n    /* \"ds-auth/auth.sol\":1112:1122  msg.sender */\n  caller\n    /* \"ds-auth/auth.sol\":1104:1122  owner = msg.sender */\n  swap1\n  dup2\n  or\n  swap1\n  swap2\n  sstore\n    /* \"ds-auth/auth.sol\":1137:1160  LogSetOwner(msg.sender) */\n  mload(0x40)\n  0xce241d7ca1f669fee44b6fc00b8eba2df3bb514eed0f6f668f8f89096e81ed94\n  swap1\n    /* \"ds-auth/auth.sol\":1104:1109  owner */\n  0x00\n  swap1\n    /* \"ds-auth/auth.sol\":1137:1160  LogSetOwner(msg.sender) */\n  log2\n    /* \"ds-thing/thing.sol\":861:1025  contract DSThing is DSAuth, DSNote, DSMath {... */\n  dataSize(sub_0)\n  dup1\n  dataOffset(sub_0)\n  0x00\n  codecopy\n  0x00\n  return\nstop\n\nsub_0: assembly {\n        /* \"ds-thing/thing.sol\":861:1025  contract DSThing is DSAuth, DSNote, DSMath {... */\n      mstore(0x40, 0x80)\n      callvalue\n      dup1\n      iszero\n      tag_1\n      jumpi\n      0x00\n      dup1\n      revert\n    tag_1:\n      pop\n      jumpi(tag_2, lt(calldatasize, 0x04))\n      shr(0xe0, calldataload(0x00))\n      dup1\n      0x13af4035\n      eq\n      tag_3\n      jumpi\n      dup1\n      0x7a9e5e4b\n      eq\n      tag_4\n      jumpi\n      dup1\n      0x8da5cb5b\n      eq\n      tag_5\n      jumpi\n      dup1\n      0xbf7e214f\n      eq\n      tag_6\n      jumpi\n    tag_2:\n      0x00\n      dup1\n      revert\n        /* \"ds-auth/auth.sol\":1173:1303  function setOwner(address owner_)... */\n    tag_3:\n      tag_7\n      tag_8\n      calldatasize\n      0x04\n      tag_9\n      jump\t// in\n    tag_8:\n      tag_10\n      jump\t// in\n    tag_7:\n      stop\n        /* \"ds-auth/auth.sol\":1309:1476  function setAuthority(DSAuthority authority_)... */\n    tag_4:\n      tag_7\n      tag_12\n      calldatasize\n      0x04\n      tag_9\n      jump\t// in\n    tag_12:\n      tag_14\n      jump\t// in\n        /* \"ds-auth/auth.sol\":1040:1066  address      public  owner */\n    tag_5:\n      sload(0x01)\n      tag_15\n      swap1\n      sub(shl(0xa0, 0x01), 0x01)\n      and\n      dup2\n      jump\n    tag_15:\n      mload(0x40)\n      sub(shl(0xa0, 0x01), 0x01)\n        /* \"#utility.yul\":836:868   */\n      swap1\n      swap2\n      and\n        /* \"#utility.yul\":818:869   */\n      dup2\n      mstore\n        /* \"#utility.yul\":806:808   */\n      0x20\n        /* \"#utility.yul\":791:809   */\n      add\n        /* \"ds-auth/auth.sol\":1040:1066  address      public  owner */\n      mload(0x40)\n      dup1\n      swap2\n      sub\n      swap1\n      return\n        /* \"ds-auth/auth.sol\":1004:1034  DSAuthority  public  authority */\n    tag_6:\n      sload(0x00)\n      tag_15\n      swap1\n      sub(shl(0xa0, 0x01), 0x01)\n      and\n      dup2\n      jump\n        /* \"ds-auth/auth.sol\":1173:1303  function setOwner(address owner_)... */\n    tag_10:\n        /* \"ds-auth/auth.sol\":1514:1547  isAuthorized(msg.sender, msg.sig) */\n      tag_24\n        /* \"ds-auth/auth.sol\":1527:1537  msg.sender */\n      caller\n        /* \"ds-auth/auth.sol\":1539:1546  msg.sig */\n      and(not(sub(shl(0xe0, 0x01), 0x01)), calldataload(0x00))\n        /* \"ds-auth/auth.sol\":1514:1526  isAuthorized */\n      tag_25\n        /* \"ds-auth/auth.sol\":1514:1547  isAuthorized(msg.sender, msg.sig) */\n      jump\t// in\n    tag_24:\n        /* \"ds-auth/auth.sol\":1506:1572  require(isAuthorized(msg.sender, msg.sig), \"ds-auth-unauthorized\") */\n      tag_26\n      jumpi\n      mload(0x40)\n      shl(0xe5, 0x461bcd)\n      dup2\n      mstore\n        /* \"#utility.yul\":1308:1310   */\n      0x20\n        /* \"ds-auth/auth.sol\":1506:1572  require(isAuthorized(msg.sender, msg.sig), \"ds-auth-unauthorized\") */\n      0x04\n      dup3\n      add\n        /* \"#utility.yul\":1290:1311   */\n      mstore\n        /* \"#utility.yul\":1347:1349   */\n      0x14\n        /* \"#utility.yul\":1327:1345   */\n      0x24\n      dup3\n      add\n        /* \"#utility.yul\":1320:1350   */\n      mstore\n      shl(0x62, 0x191ccb585d5d1a0b5d5b985d5d1a1bdc9a5e9959)\n        /* \"#utility.yul\":1366:1384   */\n      0x44\n      dup3\n      add\n        /* \"#utility.yul\":1359:1409   */\n      mstore\n        /* \"#utility.yul\":1426:1444   */\n      0x64\n      add\n        /* \"ds-auth/auth.sol\":1506:1572  require(isAuthorized(msg.sender, msg.sig), \"ds-auth-unauthorized\") */\n    tag_27:\n      mload(0x40)\n      dup1\n      swap2\n      sub\n      swap1\n      revert\n    tag_26:\n        /* \"ds-auth/auth.sol\":1249:1254  owner */\n      0x01\n        /* \"ds-auth/auth.sol\":1249:1263  owner = owner_ */\n      dup1\n      sload\n      not(sub(shl(0xa0, 0x01), 0x01))\n      and\n      sub(shl(0xa0, 0x01), 0x01)\n      dup4\n      and\n      swap1\n      dup2\n      or\n      swap1\n      swap2\n      sstore\n        /* \"ds-auth/auth.sol\":1278:1296  LogSetOwner(owner) */\n      mload(0x40)\n      0xce241d7ca1f669fee44b6fc00b8eba2df3bb514eed0f6f668f8f89096e81ed94\n      swap1\n      0x00\n      swap1\n      log2\n        /* \"ds-auth/auth.sol\":1173:1303  function setOwner(address owner_)... */\n      pop\n      jump\t// out\n        /* \"ds-auth/auth.sol\":1309:1476  function setAuthority(DSAuthority authority_)... */\n    tag_14:\n        /* \"ds-auth/auth.sol\":1514:1547  isAuthorized(msg.sender, msg.sig) */\n      tag_31\n        /* \"ds-auth/auth.sol\":1527:1537  msg.sender */\n      caller\n        /* \"ds-auth/auth.sol\":1539:1546  msg.sig */\n      and(not(sub(shl(0xe0, 0x01), 0x01)), calldataload(0x00))\n        /* \"ds-auth/auth.sol\":1514:1526  isAuthorized */\n      tag_25\n        /* \"ds-auth/auth.sol\":1514:1547  isAuthorized(msg.sender, msg.sig) */\n      jump\t// in\n    tag_31:\n        /* \"ds-auth/auth.sol\":1506:1572  require(isAuthorized(msg.sender, msg.sig), \"ds-auth-unauthorized\") */\n      tag_32\n      jumpi\n      mload(0x40)\n      shl(0xe5, 0x461bcd)\n      dup2\n      mstore\n        /* \"#utility.yul\":1308:1310   */\n      0x20\n        /* \"ds-auth/auth.sol\":1506:1572  require(isAuthorized(msg.sender, msg.sig), \"ds-auth-unauthorized\") */\n      0x04\n      dup3\n      add\n        /* \"#utility.yul\":1290:1311   */\n      mstore\n        /* \"#utility.yul\":1347:1349   */\n      0x14\n        /* \"#utility.yul\":1327:1345   */\n      0x24\n      dup3\n      add\n        /* \"#utility.yul\":1320:1350   */\n      mstore\n      shl(0x62, 0x191ccb585d5d1a0b5d5b985d5d1a1bdc9a5e9959)\n        /* \"#utility.yul\":1366:1384   */\n      0x44\n      dup3\n      add\n        /* \"#utility.yul\":1359:1409   */\n      mstore\n        /* \"#utility.yul\":1426:1444   */\n      0x64\n      add\n        /* \"ds-auth/auth.sol\":1506:1572  require(isAuthorized(msg.sender, msg.sig), \"ds-auth-unauthorized\") */\n      tag_27\n        /* \"#utility.yul\":1106:1450   */\n      jump\n        /* \"ds-auth/auth.sol\":1506:1572  require(isAuthorized(msg.sender, msg.sig), \"ds-auth-unauthorized\") */\n    tag_32:\n        /* \"ds-auth/auth.sol\":1397:1406  authority */\n      0x00\n        /* \"ds-auth/auth.sol\":1397:1419  authority = authority_ */\n      dup1\n      sload\n      not(sub(shl(0xa0, 0x01), 0x01))\n      and\n      sub(shl(0xa0, 0x01), 0x01)\n      dup4\n      and\n      swap1\n      dup2\n      or\n      dup3\n      sstore\n        /* \"ds-auth/auth.sol\":1434:1469  LogSetAuthority(address(authority)) */\n      mload(0x40)\n        /* \"ds-auth/auth.sol\":1397:1419  authority = authority_ */\n      swap1\n      swap2\n        /* \"ds-auth/auth.sol\":1434:1469  LogSetAuthority(address(authority)) */\n      0x1abebea81bfa2637f28358c371278fb15ede7ea8dd28d2e03b112ff6d936ada4\n      swap2\n      log2\n        /* \"ds-auth/auth.sol\":1309:1476  function setAuthority(DSAuthority authority_)... */\n      pop\n      jump\t// out\n        /* \"ds-auth/auth.sol\":1596:1975  function isAuthorized(address src, bytes4 sig) internal view returns (bool) {... */\n    tag_25:\n        /* \"ds-auth/auth.sol\":1666:1670  bool */\n      0x00\n        /* \"ds-auth/auth.sol\":1701:1705  this */\n      address\n      sub(shl(0xa0, 0x01), 0x01)\n        /* \"ds-auth/auth.sol\":1686:1706  src == address(this) */\n      dup5\n      and\n      sub\n        /* \"ds-auth/auth.sol\":1682:1969  if (src == address(this)) {... */\n      tag_36\n      jumpi\n      pop\n        /* \"ds-auth/auth.sol\":1729:1733  true */\n      0x01\n        /* \"ds-auth/auth.sol\":1722:1733  return true */\n      jump(tag_41)\n        /* \"ds-auth/auth.sol\":1682:1969  if (src == address(this)) {... */\n    tag_36:\n        /* \"ds-auth/auth.sol\":1761:1766  owner */\n      sload(0x01)\n      sub(shl(0xa0, 0x01), 0x01)\n      swap1\n      dup2\n      and\n        /* \"ds-auth/auth.sol\":1754:1766  src == owner */\n      swap1\n      dup5\n      and\n      sub\n        /* \"ds-auth/auth.sol\":1750:1969  if (src == owner) {... */\n      tag_38\n      jumpi\n      pop\n        /* \"ds-auth/auth.sol\":1789:1793  true */\n      0x01\n        /* \"ds-auth/auth.sol\":1782:1793  return true */\n      jump(tag_41)\n        /* \"ds-auth/auth.sol\":1750:1969  if (src == owner) {... */\n    tag_38:\n        /* \"ds-auth/auth.sol\":1847:1848  0 */\n      0x00\n        /* \"ds-auth/auth.sol\":1814:1823  authority */\n      sload\n      sub(shl(0xa0, 0x01), 0x01)\n      and\n        /* \"ds-auth/auth.sol\":1810:1969  if (authority == DSAuthority(address(0))) {... */\n      tag_40\n      jumpi\n      pop\n        /* \"ds-auth/auth.sol\":1873:1878  false */\n      0x00\n        /* \"ds-auth/auth.sol\":1866:1878  return false */\n      jump(tag_41)\n        /* \"ds-auth/auth.sol\":1810:1969  if (authority == DSAuthority(address(0))) {... */\n    tag_40:\n        /* \"ds-auth/auth.sol\":1916:1925  authority */\n      sload(0x00)\n        /* \"ds-auth/auth.sol\":1916:1958  authority.canCall(src, address(this), sig) */\n      mload(0x40)\n      shl(0xe0, 0xb7009613)\n      dup2\n      mstore\n      sub(shl(0xa0, 0x01), 0x01)\n        /* \"#utility.yul\":1711:1726   */\n      dup6\n      dup2\n      and\n        /* \"ds-auth/auth.sol\":1916:1958  authority.canCall(src, address(this), sig) */\n      0x04\n      dup4\n      add\n        /* \"#utility.yul\":1693:1727   */\n      mstore\n        /* \"ds-auth/auth.sol\":1947:1951  this */\n      address\n        /* \"#utility.yul\":1743:1761   */\n      0x24\n      dup4\n      add\n        /* \"#utility.yul\":1736:1779   */\n      mstore\n      not(sub(shl(0xe0, 0x01), 0x01))\n        /* \"#utility.yul\":1815:1848   */\n      dup6\n      and\n        /* \"#utility.yul\":1795:1813   */\n      0x44\n      dup4\n      add\n        /* \"#utility.yul\":1788:1849   */\n      mstore\n        /* \"ds-auth/auth.sol\":1916:1925  authority */\n      swap1\n      swap2\n      and\n      swap1\n        /* \"ds-auth/auth.sol\":1916:1933  authority.canCall */\n      0xb7009613\n      swap1\n        /* \"#utility.yul\":1628:1646   */\n      0x64\n      add\n        /* \"ds-auth/auth.sol\":1916:1958  authority.canCall(src, address(this), sig) */\n      0x20\n      mload(0x40)\n      dup1\n      dup4\n      sub\n      dup2\n      dup7\n      gas\n      staticcall\n      iszero\n      dup1\n      iszero\n      tag_45\n      jumpi\n      returndatasize\n      0x00\n      dup1\n      returndatacopy\n      revert(0x00, returndatasize)\n    tag_45:\n      pop\n      pop\n      pop\n      pop\n      mload(0x40)\n      returndatasize\n      not(0x1f)\n      0x1f\n      dup3\n      add\n      and\n      dup3\n      add\n      dup1\n      0x40\n      mstore\n      pop\n      dup2\n      add\n      swap1\n      tag_46\n      swap2\n      swap1\n      tag_47\n      jump\t// in\n    tag_46:\n        /* \"ds-auth/auth.sol\":1909:1958  return authority.canCall(src, address(this), sig) */\n      swap1\n      pop\n        /* \"ds-auth/auth.sol\":1810:1969  if (authority == DSAuthority(address(0))) {... */\n    tag_41:\n        /* \"ds-auth/auth.sol\":1596:1975  function isAuthorized(address src, bytes4 sig) internal view returns (bool) {... */\n      swap3\n      swap2\n      pop\n      pop\n      jump\t// out\n        /* \"#utility.yul\":14:145   */\n    tag_48:\n      sub(shl(0xa0, 0x01), 0x01)\n        /* \"#utility.yul\":89:120   */\n      dup2\n      and\n        /* \"#utility.yul\":79:121   */\n      dup2\n      eq\n        /* \"#utility.yul\":69:139   */\n      tag_51\n      jumpi\n        /* \"#utility.yul\":135:136   */\n      0x00\n        /* \"#utility.yul\":132:133   */\n      dup1\n        /* \"#utility.yul\":125:137   */\n      revert\n        /* \"#utility.yul\":69:139   */\n    tag_51:\n        /* \"#utility.yul\":14:145   */\n      pop\n      jump\t// out\n        /* \"#utility.yul\":150:397   */\n    tag_9:\n        /* \"#utility.yul\":209:215   */\n      0x00\n        /* \"#utility.yul\":262:264   */\n      0x20\n        /* \"#utility.yul\":250:259   */\n      dup3\n        /* \"#utility.yul\":241:248   */\n      dup5\n        /* \"#utility.yul\":237:260   */\n      sub\n        /* \"#utility.yul\":233:265   */\n      slt\n        /* \"#utility.yul\":230:282   */\n      iszero\n      tag_53\n      jumpi\n        /* \"#utility.yul\":278:279   */\n      0x00\n        /* \"#utility.yul\":275:276   */\n      dup1\n        /* \"#utility.yul\":268:280   */\n      revert\n        /* \"#utility.yul\":230:282   */\n    tag_53:\n        /* \"#utility.yul\":317:326   */\n      dup2\n        /* \"#utility.yul\":304:327   */\n      calldataload\n        /* \"#utility.yul\":336:367   */\n      tag_54\n        /* \"#utility.yul\":361:366   */\n      dup2\n        /* \"#utility.yul\":336:367   */\n      tag_48\n      jump\t// in\n    tag_54:\n        /* \"#utility.yul\":386:391   */\n      swap4\n        /* \"#utility.yul\":150:397   */\n      swap3\n      pop\n      pop\n      pop\n      jump\t// out\n        /* \"#utility.yul\":1860:2137   */\n    tag_47:\n        /* \"#utility.yul\":1927:1933   */\n      0x00\n        /* \"#utility.yul\":1980:1982   */\n      0x20\n        /* \"#utility.yul\":1968:1977   */\n      dup3\n        /* \"#utility.yul\":1959:1966   */\n      dup5\n        /* \"#utility.yul\":1955:1978   */\n      sub\n        /* \"#utility.yul\":1951:1983   */\n      slt\n        /* \"#utility.yul\":1948:2000   */\n      iszero\n      tag_63\n      jumpi\n        /* \"#utility.yul\":1996:1997   */\n      0x00\n        /* \"#utility.yul\":1993:1994   */\n      dup1\n        /* \"#utility.yul\":1986:1998   */\n      revert\n        /* \"#utility.yul\":1948:2000   */\n    tag_63:\n        /* \"#utility.yul\":2028:2037   */\n      dup2\n        /* \"#utility.yul\":2022:2038   */\n      mload\n        /* \"#utility.yul\":2081:2086   */\n      dup1\n        /* \"#utility.yul\":2074:2087   */\n      iszero\n        /* \"#utility.yul\":2067:2088   */\n      iszero\n        /* \"#utility.yul\":2060:2065   */\n      dup2\n        /* \"#utility.yul\":2057:2089   */\n      eq\n        /* \"#utility.yul\":2047:2107   */\n      tag_54\n      jumpi\n        /* \"#utility.yul\":2103:2104   */\n      0x00\n        /* \"#utility.yul\":2100:2101   */\n      dup1\n        /* \"#utility.yul\":2093:2105   */\n      revert\n\n    auxdata: 0xa2646970667358221220c211131f48e7ae42facee817ca824bd903641f53907a7476e820cfb2b45ed61564736f6c63430008140033\n}\n",
				"bytecode": {
					"linkReferences": {},
					"object": "608060405234801561000f575f80fd5b50600180546001600160a01b031916339081179091556040517fce241d7ca1f669fee44b6fc00b8eba2df3bb514eed0f6f668f8f89096e81ed94905f90a26103618061005a5f395ff3fe608060405234801561000f575f80fd5b506004361061004a575f3560e01c806313af40351461004e5780637a9e5e4b146100635780638da5cb5b14610076578063bf7e214f146100a5575b5f80fd5b61006161005c3660046102ea565b6100b7565b005b6100616100713660046102ea565b61015d565b600154610089906001600160a01b031681565b6040516001600160a01b03909116815260200160405180910390f35b5f54610089906001600160a01b031681565b6100cc335f356001600160e01b0319166101fc565b6101145760405162461bcd60e51b8152602060048201526014602482015273191ccb585d5d1a0b5d5b985d5d1a1bdc9a5e995960621b60448201526064015b60405180910390fd5b600180546001600160a01b0319166001600160a01b0383169081179091556040517fce241d7ca1f669fee44b6fc00b8eba2df3bb514eed0f6f668f8f89096e81ed94905f90a250565b610172335f356001600160e01b0319166101fc565b6101b55760405162461bcd60e51b8152602060048201526014602482015273191ccb585d5d1a0b5d5b985d5d1a1bdc9a5e995960621b604482015260640161010b565b5f80546001600160a01b0319166001600160a01b038316908117825560405190917f1abebea81bfa2637f28358c371278fb15ede7ea8dd28d2e03b112ff6d936ada491a250565b5f306001600160a01b03841603610215575060016102cd565b6001546001600160a01b0390811690841603610233575060016102cd565b5f546001600160a01b031661024957505f6102cd565b5f5460405163b700961360e01b81526001600160a01b0385811660048301523060248301526001600160e01b0319851660448301529091169063b700961390606401602060405180830381865afa1580156102a6573d5f803e3d5ffd5b505050506040513d601f19601f820116820180604052508101906102ca919061030c565b90505b92915050565b6001600160a01b03811681146102e7575f80fd5b50565b5f602082840312156102fa575f80fd5b8135610305816102d3565b9392505050565b5f6020828403121561031c575f80fd5b81518015158114610305575f80fdfea2646970667358221220c211131f48e7ae42facee817ca824bd903641f53907a7476e820cfb2b45ed61564736f6c63430008140033",
					"opcodes": "PUSH1 0x80 PUSH1 0x40 MSTORE CALLVALUE DUP1 ISZERO PUSH2 0xF JUMPI PUSH0 DUP1 REVERT JUMPDEST POP PUSH1 0x1 DUP1 SLOAD PUSH1 0x1 PUSH1 0x1 PUSH1 0xA0 SHL SUB NOT AND CALLER SWAP1 DUP2 OR SWAP1 SWAP2 SSTORE PUSH1 0x40 MLOAD PUSH32 0xCE241D7CA1F669FEE44B6FC00B8EBA2DF3BB514EED0F6F668F8F89096E81ED94 SWAP1 PUSH0 SWAP1 LOG2 PUSH2 0x361 DUP1 PUSH2 0x5A PUSH0 CODECOPY PUSH0 RETURN INVALID PUSH1 0x80 PUSH1 0x40 MSTORE CALLVALUE DUP1 ISZERO PUSH2 0xF JUMPI PUSH0 DUP1 REVERT JUMPDEST POP PUSH1 0x4 CALLDATASIZE LT PUSH2 0x4A JUMPI PUSH0 CALLDATALOAD PUSH1 0xE0 SHR DUP1 PUSH4 0x13AF4035 EQ PUSH2 0x4E JUMPI DUP1 PUSH4 0x7A9E5E4B EQ PUSH2 0x63 JUMPI DUP1 PUSH4 0x8DA5CB5B EQ PUSH2 0x76 JUMPI DUP1 PUSH4 0xBF7E214F EQ PUSH2 0xA5 JUMPI JUMPDEST PUSH0 DUP1 REVERT JUMPDEST PUSH2 0x61 PUSH2 0x5C CALLDATASIZE PUSH1 0x4 PUSH2 0x2EA JUMP JUMPDEST PUSH2 0xB7 JUMP JUMPDEST STOP JUMPDEST PUSH2 0x61 PUSH2 0x71 CALLDATASIZE PUSH1 0x4 PUSH2 0x2EA JUMP JUMPDEST PUSH2 0x15D JUMP JUMPDEST PUSH1 0x1 SLOAD PUSH2 0x89 SWAP1 PUSH1 0x1 PUSH1 0x1 PUSH1 0xA0 SHL SUB AND DUP2 JUMP JUMPDEST PUSH1 0x40 MLOAD PUSH1 0x1 PUSH1 0x1 PUSH1 0xA0 SHL SUB SWAP1 SWAP2 AND DUP2 MSTORE PUSH1 0x20 ADD PUSH1 0x40 MLOAD DUP1 SWAP2 SUB SWAP1 RETURN JUMPDEST PUSH0 SLOAD PUSH2 0x89 SWAP1 PUSH1 0x1 PUSH1 0x1 PUSH1 0xA0 SHL SUB AND DUP2 JUMP JUMPDEST PUSH2 0xCC CALLER PUSH0 CALLDATALOAD PUSH1 0x1 PUSH1 0x1 PUSH1 0xE0 SHL SUB NOT AND PUSH2 0x1FC JUMP JUMPDEST PUSH2 0x114 JUMPI PUSH1 0x40 MLOAD PUSH3 0x461BCD PUSH1 0xE5 SHL DUP2 MSTORE PUSH1 0x20 PUSH1 0x4 DUP3 ADD MSTORE PUSH1 0x14 PUSH1 0x24 DUP3 ADD MSTORE PUSH20 0x191CCB585D5D1A0B5D5B985D5D1A1BDC9A5E9959 PUSH1 0x62 SHL PUSH1 0x44 DUP3 ADD MSTORE PUSH1 0x64 ADD JUMPDEST PUSH1 0x40 MLOAD DUP1 SWAP2 SUB SWAP1 REVERT JUMPDEST PUSH1 0x1 DUP1 SLOAD PUSH1 0x1 PUSH1 0x1 PUSH1 0xA0 SHL SUB NOT AND PUSH1 0x1 PUSH1 0x1 PUSH1 0xA0 SHL SUB DUP4 AND SWAP1 DUP2 OR SWAP1 SWAP2 SSTORE PUSH1 0x40 MLOAD PUSH32 0xCE241D7CA1F669FEE44B6FC00B8EBA2DF3BB514EED0F6F668F8F89096E81ED94 SWAP1 PUSH0 SWAP1 LOG2 POP JUMP JUMPDEST PUSH2 0x172 CALLER PUSH0 CALLDATALOAD PUSH1 0x1 PUSH1 0x1 PUSH1 0xE0 SHL SUB NOT AND PUSH2 0x1FC JUMP JUMPDEST PUSH2 0x1B5 JUMPI PUSH1 0x40 MLOAD PUSH3 0x461BCD PUSH1 0xE5 SHL DUP2 MSTORE PUSH1 0x20 PUSH1 0x4 DUP3 ADD MSTORE PUSH1 0x14 PUSH1 0x24 DUP3 ADD MSTORE PUSH20 0x191CCB585D5D1A0B5D5B985D5D1A1BDC9A5E9959 PUSH1 0x62 SHL PUSH1 0x44 DUP3 ADD MSTORE PUSH1 0x64 ADD PUSH2 0x10B JUMP JUMPDEST PUSH0 DUP1 SLOAD PUSH1 0x1 PUSH1 0x1 PUSH1 0xA0 SHL SUB NOT AND PUSH1 0x1 PUSH1 0x1 PUSH1 0xA0 SHL SUB DUP4 AND SWAP1 DUP2 OR DUP3 SSTORE PUSH1 0x40 MLOAD SWAP1 SWAP2 PUSH32 0x1ABEBEA81BFA2637F28358C371278FB15EDE7EA8DD28D2E03B112FF6D936ADA4 SWAP2 LOG2 POP JUMP JUMPDEST PUSH0 ADDRESS PUSH1 0x1 PUSH1 0x1 PUSH1 0xA0 SHL SUB DUP5 AND SUB PUSH2 0x215 JUMPI POP PUSH1 0x1 PUSH2 0x2CD JUMP JUMPDEST PUSH1 0x1 SLOAD PUSH1 0x1 PUSH1 0x1 PUSH1 0xA0 SHL SUB SWAP1 DUP2 AND SWAP1 DUP5 AND SUB PUSH2 0x233 JUMPI POP PUSH1 0x1 PUSH2 0x2CD JUMP JUMPDEST PUSH0 SLOAD PUSH1 0x1 PUSH1 0x1 PUSH1 0xA0 SHL SUB AND PUSH2 0x249 JUMPI POP PUSH0 PUSH2 0x2CD JUMP JUMPDEST PUSH0 SLOAD PUSH1 0x40 MLOAD PUSH4 0xB7009613 PUSH1 0xE0 SHL DUP2 MSTORE PUSH1 0x1 PUSH1 0x1 PUSH1 0xA0 SHL SUB DUP6 DUP2 AND PUSH1 0x4 DUP4 ADD MSTORE ADDRESS PUSH1 0x24 DUP4 ADD MSTORE PUSH1 0x1 PUSH1 0x1 PUSH1 0xE0 SHL SUB NOT DUP6 AND PUSH1 0x44 DUP4 ADD MSTORE SWAP1 SWAP2 AND SWAP1 PUSH4 0xB7009613 SWAP1 PUSH1 0x64 ADD PUSH1 0x20 PUSH1 0x40 MLOAD DUP1 DUP4 SUB DUP2 DUP7 GAS STATICCALL ISZERO DUP1 ISZERO PUSH2 0x2A6 JUMPI RETURNDATASIZE PUSH0 DUP1 RETURNDATACOPY RETURNDATASIZE PUSH0 REVERT JUMPDEST POP POP POP POP PUSH1 0x40 MLOAD RETURNDATASIZE PUSH1 0x1F NOT PUSH1 0x1F DUP3 ADD AND DUP3 ADD DUP1 PUSH1 0x40 MSTORE POP DUP2 ADD SWAP1 PUSH2 0x2CA SWAP2 SWAP1 PUSH2 0x30C JUMP JUMPDEST SWAP1 POP JUMPDEST SWAP3 SWAP2 POP POP JUMP JUMPDEST PUSH1 0x1 PUSH1 0x1 PUSH1 0xA0 SHL SUB DUP2 AND DUP2 EQ PUSH2 0x2E7 JUMPI PUSH0 DUP1 REVERT JUMPDEST POP JUMP JUMPDEST PUSH0 PUSH1 0x20 DUP3 DUP5 SUB SLT ISZERO PUSH2 0x2FA JUMPI PUSH0 DUP1 REVERT JUMPDEST DUP2 CALLDATALOAD PUSH2 0x305 DUP2 PUSH2 0x2D3 JUMP JUMPDEST SWAP4 SWAP3 POP POP POP JUMP JUMPDEST PUSH0 PUSH1 0x20 DUP3 DUP5 SUB SLT ISZERO PUSH2 0x31C JUMPI PUSH0 DUP1 REVERT JUMPDEST DUP2 MLOAD DUP1 ISZERO ISZERO DUP2 EQ PUSH2 0x305 JUMPI PUSH0 DUP1 REVERT INVALID LOG2 PUSH5 0x6970667358 0x22 SLT KECCAK256 0xC2 GT SGT 0x1F BASEFEE 0xE7 0xAE TIMESTAMP STATICCALL 0xCE 0xE8 OR 0xCA DUP3 0x4B 0xD9 SUB PUSH5 0x1F53907A74 PUSH23 0xE820CFB2B45ED61564736F6C6343000814003300000000 "
				},
				"gasEstimates": {
					"creation": {
						"codeDepositCost": "173000",
						"executionCost": "25604",
						"totalCost": "198604"
					},
					"external": {
						"authority()": "2367",
						"owner()": "2346",
						"setAuthority(address)": "infinite",
						"setOwner(address)": "infinite"
					},
					"internal": {
						"S(string memory)": "infinite"
					}
				},
				"methodIdentifiers": {
					"authority()": "bf7e214f",
					"owner()": "8da5cb5b",
					"setAuthority(address)": "7a9e5e4b",
					"setOwner(address)": "13af4035"
				}
			},
			"storageLayout": {
				"storage": [
					{
						"astId": 27,
						"contract": "ds-thing/thing.sol:DSThing",
						"label": "authority",
						"offset": 0,
						"slot": "0",
						"type": "t_contract(DSAuthority)13"
					},
					{
						"astId": 29,
						"contract": "ds-thing/thing.sol:DSThing",
						"label": "owner",
						"offset": 0,
						"slot": "1",
						"type": "t_address"
					}
				],
				"types": {
					"t_address": {
						"encoding": "inplace",
						"label": "address",
						"numberOfBytes": "20"
					},
					"t_contract(DSAuthority)13": {
						"encoding": "inplace",
						"label": "contract DSAuthority",
						"numberOfBytes": "20"
					}
				}
			},
			"userdoc": {
				"kind": "user",
				"methods": {},
				"version": 1
			}
		}
	}
}