{
	"ds-value/value.sol": {
		"DSValue": {
			"abi": [
				{
					"anonymous": true,
					"inputs": [
						{
							"indexed": true,
							"internalType": "bytes4",
							"name": "sig",
							"type": "bytes4"
						},
						{
							"indexed": true,
							"internalType": "address",
							"name": "guy",
							"type": "address"
						},
						{
							"indexed": true,
							"internalType": "bytes32",
							"name": "foo",
							"type": "bytes32"
						},
						{
							"indexed": true,
							"internalType": "bytes32",
							"name": "bar",
							"type": "bytes32"
						},
						{
							"indexed": false,
							"internalType": "uint256",
							"name": "wad",
							"type": "uint256"
						},
						{
							"indexed": false,
							"internalType": "bytes",
							"name": "fax",
							"type": "bytes"
						}
					],
					"name": "LogNote",
					"type": "event"
				},
				{
					"anonymous": false,
					"inputs": [
						{
							"indexed": true,
							"internalType": "address",
							"name": "authority",
							"type": "address"
						}
					],
					"name": "LogSetAuthority",
					"type": "event"
				},
				{
					"anonymous": false,
					"inputs": [
						{
							"indexed": true,
							"internalType": "address",
							"name": "owner",
							"type": "address"
						}
					],
					"name": "LogSetOwner",
					"type": "event"
				},
				{
					"inputs": [],
					"name": "authority",
					"outputs": [
						{
							"internalType": "contract DSAuthority",
							"name": "",
							"type": "address"
						}
					],
					"stateMutability": "view",
					"type": "function"
				},
				{
					"inputs": [],
					"name": "owner",
					"outputs": [
						{
							"internalType": "address",
							"name": "",
							"type": "address"
						}
					],
					"stateMutability": "view",
					"type": "function"
				},
				{
					"inputs": [],
					"name": "peek",
					"outputs": [
						{
							"internalType": "uint256",
							"name": "",
							"type": "uint256"
						},
						{
							"internalType": "bool",
							"name": "",
							"type": "bool"
						}
					],
					"stateMutability": "view",
					"type": "function"
				},
				{
					"inputs": [
						{
							"internalType": "bytes32",
							"name": "wut",
							"type": "bytes32"
						}
					],
					"name": "poke",
					"outputs": [],
					"stateMutability": "payable",
					"type": "function"
				},
				{
					"inputs": [],
					"name": "read",
					"outputs": [
						{
							"internalType": "uint256",
							"name": "",
							"type": "uint256"
						}
					],
					"stateMutability": "view",
					"type": "function"
				},
				{
					"inputs": [
						{
							"internalType": "contract DSAuthority",
							"name": "authority_",
							"type": "address"
						}
					],
					"name": "setAuthority",
					"outputs": [],
					"stateMutability": "nonpayable",
					"type": "function"
				},
				{
					"inputs": [
						{
							"internalType": "address",
							"name": "owner_",
							"type": "address"
						}
					],
					"name": "setOwner",
					"outputs": [],
					"stateMutability": "nonpayable",
					"type": "function"
				},
				{
					"inputs": [],
					"name": "void",
					"outputs": [],
					"stateMutability": "payable",
					"type": "function"
				},
				{
					"inputs": [],
					"name": "wut",
					"outputs": [
						{
							"internalType": "uint256",
							"name": "",
							"type": "uint256"
						}
					],
					"stateMutability": "view",
					"type": "function"
				}
			],
			"devdoc": {
				"kind": "dev",
				"methods": {},
				"version": 1
			},
			"evm": {
				"assembly": "    /* \"ds-value/value.sol\":801:1364  contract DSValue is DSThing {... */\n  mstore(0x40, 0x80)\n  callvalue\n  dup1\n  iszero\n  tag_1\n  jumpi\n  0x00\n  dup1\n  revert\ntag_1:\n  pop\n    /* \"/ds-auth/auth.sol\":1091:1101  msg.sender */\n  caller\n    /* \"/ds-auth/auth.sol\":1083:1088  owner */\n  0x01\n  0x00\n    /* \"/ds-auth/auth.sol\":1083:1101  owner = msg.sender */\n  0x0100\n  exp\n  dup2\n  sload\n  dup2\n  0xffffffffffffffffffffffffffffffffffffffff\n  mul\n  not\n  and\n  swap1\n  dup4\n  0xffffffffffffffffffffffffffffffffffffffff\n  and\n  mul\n  or\n  swap1\n  sstore\n  pop\n    /* \"/ds-auth/auth.sol\":1127:1137  msg.sender */\n  caller\n    /* \"/ds-auth/auth.sol\":1115:1138  LogSetOwner(msg.sender) */\n  0xffffffffffffffffffffffffffffffffffffffff\n  and\n  0xce241d7ca1f669fee44b6fc00b8eba2df3bb514eed0f6f668f8f89096e81ed94\n  mload(0x40)\n  mload(0x40)\n  dup1\n  swap2\n  sub\n  swap1\n  log2\n    /* \"ds-value/value.sol\":801:1364  contract DSValue is DSThing {... */\n  dataSize(sub_0)\n  dup1\n  dataOffset(sub_0)\n  0x00\n  codecopy\n  0x00\n  return\nstop\n\nsub_0: assembly {\n        /* \"ds-value/value.sol\":801:1364  contract DSValue is DSThing {... */\n      mstore(0x40, 0x80)\n      jumpi(tag_1, lt(calldatasize, 0x04))\n      shr(0xe0, calldataload(0x00))\n      dup1\n      0x7a9e5e4b\n      gt\n      tag_11\n      jumpi\n      dup1\n      0x7a9e5e4b\n      eq\n      tag_6\n      jumpi\n      dup1\n      0x8da5cb5b\n      eq\n      tag_7\n      jumpi\n      dup1\n      0xac4c25b2\n      eq\n      tag_8\n      jumpi\n      dup1\n      0xaff72e31\n      eq\n      tag_9\n      jumpi\n      dup1\n      0xbf7e214f\n      eq\n      tag_10\n      jumpi\n      jump(tag_1)\n    tag_11:\n      dup1\n      0x13af4035\n      eq\n      tag_2\n      jumpi\n      dup1\n      0x1504460f\n      eq\n      tag_3\n      jumpi\n      dup1\n      0x57de26a4\n      eq\n      tag_4\n      jumpi\n      dup1\n      0x59e02dd7\n      eq\n      tag_5\n      jumpi\n    tag_1:\n      0x00\n      dup1\n      revert\n        /* \"/ds-auth/auth.sol\":1151:1280  function setOwner(address owner_)... */\n    tag_2:\n      callvalue\n      dup1\n      iszero\n      tag_12\n      jumpi\n      0x00\n      dup1\n      revert\n    tag_12:\n      pop\n      tag_13\n      0x04\n      dup1\n      calldatasize\n      sub\n      dup2\n      add\n      swap1\n      tag_14\n      swap2\n      swap1\n      tag_15\n      jump\t// in\n    tag_14:\n      tag_16\n      jump\t// in\n    tag_13:\n      stop\n        /* \"ds-value/value.sol\":1170:1268  function poke(bytes32 wut) public payable note auth {... */\n    tag_3:\n      tag_17\n      0x04\n      dup1\n      calldatasize\n      sub\n      dup2\n      add\n      swap1\n      tag_18\n      swap2\n      swap1\n      tag_19\n      jump\t// in\n    tag_18:\n      tag_20\n      jump\t// in\n    tag_17:\n      stop\n        /* \"ds-value/value.sol\":984:1165  function read() public view returns (uint) {... */\n    tag_4:\n      callvalue\n      dup1\n      iszero\n      tag_21\n      jumpi\n      0x00\n      dup1\n      revert\n    tag_21:\n      pop\n      tag_22\n      tag_23\n      jump\t// in\n    tag_22:\n      mload(0x40)\n      tag_24\n      swap2\n      swap1\n      tag_25\n      jump\t// in\n    tag_24:\n      mload(0x40)\n      dup1\n      swap2\n      sub\n      swap1\n      return\n        /* \"ds-value/value.sol\":895:978  function peek() public view returns (uint, bool) {... */\n    tag_5:\n      callvalue\n      dup1\n      iszero\n      tag_26\n      jumpi\n      0x00\n      dup1\n      revert\n    tag_26:\n      pop\n      tag_27\n      tag_28\n      jump\t// in\n    tag_27:\n      mload(0x40)\n      tag_29\n      swap3\n      swap2\n      swap1\n      tag_30\n      jump\t// in\n    tag_29:\n      mload(0x40)\n      dup1\n      swap2\n      sub\n      swap1\n      return\n        /* \"/ds-auth/auth.sol\":1286:1452  function setAuthority(DSAuthority authority_)... */\n    tag_6:\n      callvalue\n      dup1\n      iszero\n      tag_31\n      jumpi\n      0x00\n      dup1\n      revert\n    tag_31:\n      pop\n      tag_32\n      0x04\n      dup1\n      calldatasize\n      sub\n      dup2\n      add\n      swap1\n      tag_33\n      swap2\n      swap1\n      tag_34\n      jump\t// in\n    tag_33:\n      tag_35\n      jump\t// in\n    tag_32:\n      stop\n        /* \"/ds-auth/auth.sol\":1019:1045  address      public  owner */\n    tag_7:\n      callvalue\n      dup1\n      iszero\n      tag_36\n      jumpi\n      0x00\n      dup1\n      revert\n    tag_36:\n      pop\n      tag_37\n      tag_38\n      jump\t// in\n    tag_37:\n      mload(0x40)\n      tag_39\n      swap2\n      swap1\n      tag_40\n      jump\t// in\n    tag_39:\n      mload(0x40)\n      dup1\n      swap2\n      sub\n      swap1\n      return\n        /* \"ds-value/value.sol\":1273:1362  function void() public payable note auth {  // unset the value... */\n    tag_8:\n      tag_41\n      tag_42\n      jump\t// in\n    tag_41:\n      stop\n        /* \"ds-value/value.sol\":869:884  uint public wut */\n    tag_9:\n      callvalue\n      dup1\n      iszero\n      tag_43\n      jumpi\n      0x00\n      dup1\n      revert\n    tag_43:\n      pop\n      tag_44\n      tag_45\n      jump\t// in\n    tag_44:\n      mload(0x40)\n      tag_46\n      swap2\n      swap1\n      tag_25\n      jump\t// in\n    tag_46:\n      mload(0x40)\n      dup1\n      swap2\n      sub\n      swap1\n      return\n        /* \"/ds-auth/auth.sol\":983:1013  DSAuthority  public  authority */\n    tag_10:\n      callvalue\n      dup1\n      iszero\n      tag_47\n      jumpi\n      0x00\n      dup1\n      revert\n    tag_47:\n      pop\n      tag_48\n      tag_49\n      jump\t// in\n    tag_48:\n      mload(0x40)\n      tag_50\n      swap2\n      swap1\n      tag_51\n      jump\t// in\n    tag_50:\n      mload(0x40)\n      dup1\n      swap2\n      sub\n      swap1\n      return\n        /* \"/ds-auth/auth.sol\":1151:1280  function setOwner(address owner_)... */\n    tag_16:\n        /* \"/ds-auth/auth.sol\":1490:1523  isAuthorized(msg.sender, msg.sig) */\n      tag_53\n        /* \"/ds-auth/auth.sol\":1503:1513  msg.sender */\n      caller\n        /* \"/ds-auth/auth.sol\":1515:1522  msg.sig */\n      and(0xffffffff00000000000000000000000000000000000000000000000000000000, calldataload(0x00))\n        /* \"/ds-auth/auth.sol\":1490:1502  isAuthorized */\n      tag_54\n        /* \"/ds-auth/auth.sol\":1490:1523  isAuthorized(msg.sender, msg.sig) */\n      jump\t// in\n    tag_53:\n        /* \"/ds-auth/auth.sol\":1482:1524  require(isAuthorized(msg.sender, msg.sig)) */\n      tag_55\n      jumpi\n      0x00\n      dup1\n      revert\n    tag_55:\n        /* \"/ds-auth/auth.sol\":1235:1241  owner_ */\n      dup1\n        /* \"/ds-auth/auth.sol\":1227:1232  owner */\n      0x01\n      0x00\n        /* \"/ds-auth/auth.sol\":1227:1241  owner = owner_ */\n      0x0100\n      exp\n      dup2\n      sload\n      dup2\n      0xffffffffffffffffffffffffffffffffffffffff\n      mul\n      not\n      and\n      swap1\n      dup4\n      0xffffffffffffffffffffffffffffffffffffffff\n      and\n      mul\n      or\n      swap1\n      sstore\n      pop\n        /* \"/ds-auth/auth.sol\":1267:1272  owner */\n      0x01\n      0x00\n      swap1\n      sload\n      swap1\n      0x0100\n      exp\n      swap1\n      div\n      0xffffffffffffffffffffffffffffffffffffffff\n      and\n        /* \"/ds-auth/auth.sol\":1255:1273  LogSetOwner(owner) */\n      0xffffffffffffffffffffffffffffffffffffffff\n      and\n      0xce241d7ca1f669fee44b6fc00b8eba2df3bb514eed0f6f668f8f89096e81ed94\n      mload(0x40)\n      mload(0x40)\n      dup1\n      swap2\n      sub\n      swap1\n      log2\n        /* \"/ds-auth/auth.sol\":1151:1280  function setOwner(address owner_)... */\n      pop\n      jump\t// out\n        /* \"ds-value/value.sol\":1170:1268  function poke(bytes32 wut) public payable note auth {... */\n    tag_20:\n        /* \"/ds-note/note.sol\":1002:1013  bytes32 foo */\n      0x00\n        /* \"/ds-note/note.sol\":1023:1034  bytes32 bar */\n      dup1\n        /* \"/ds-note/note.sol\":1088:1089  4 */\n      0x04\n        /* \"/ds-note/note.sol\":1075:1090  calldataload(4) */\n      calldataload\n        /* \"/ds-note/note.sol\":1068:1090  foo := calldataload(4) */\n      swap2\n      pop\n        /* \"/ds-note/note.sol\":1123:1125  36 */\n      0x24\n        /* \"/ds-note/note.sol\":1110:1126  calldataload(36) */\n      calldataload\n        /* \"/ds-note/note.sol\":1103:1126  bar := calldataload(36) */\n      swap1\n      pop\n        /* \"/ds-note/note.sol\":1185:1188  bar */\n      dup1\n        /* \"/ds-note/note.sol\":1180:1183  foo */\n      dup3\n        /* \"/ds-note/note.sol\":1168:1178  msg.sender */\n      caller\n        /* \"/ds-note/note.sol\":1151:1210  LogNote(msg.sig, msg.sender, foo, bar, msg.value, msg.data) */\n      0xffffffffffffffffffffffffffffffffffffffff\n      and\n        /* \"/ds-note/note.sol\":1159:1166  msg.sig */\n      and(0xffffffff00000000000000000000000000000000000000000000000000000000, calldataload(0x00))\n        /* \"/ds-note/note.sol\":1151:1210  LogNote(msg.sig, msg.sender, foo, bar, msg.value, msg.data) */\n      not(0xffffffffffffffffffffffffffffffffffffffffffffffffffffffff)\n      and\n        /* \"/ds-note/note.sol\":1190:1199  msg.value */\n      callvalue\n        /* \"/ds-note/note.sol\":1201:1209  msg.data */\n      0x00\n      calldatasize\n        /* \"/ds-note/note.sol\":1151:1210  LogNote(msg.sig, msg.sender, foo, bar, msg.value, msg.data) */\n      mload(0x40)\n      tag_58\n      swap4\n      swap3\n      swap2\n      swap1\n      tag_59\n      jump\t// in\n    tag_58:\n      mload(0x40)\n      dup1\n      swap2\n      sub\n      swap1\n      log4\n        /* \"/ds-auth/auth.sol\":1490:1523  isAuthorized(msg.sender, msg.sig) */\n      tag_61\n        /* \"/ds-auth/auth.sol\":1503:1513  msg.sender */\n      caller\n        /* \"/ds-auth/auth.sol\":1515:1522  msg.sig */\n      and(0xffffffff00000000000000000000000000000000000000000000000000000000, calldataload(0x00))\n        /* \"/ds-auth/auth.sol\":1490:1502  isAuthorized */\n      tag_54\n        /* \"/ds-auth/auth.sol\":1490:1523  isAuthorized(msg.sender, msg.sig) */\n      jump\t// in\n    tag_61:\n        /* \"/ds-auth/auth.sol\":1482:1524  require(isAuthorized(msg.sender, msg.sig)) */\n      tag_62\n      jumpi\n      0x00\n      dup1\n      revert\n    tag_62:\n        /* \"ds-value/value.sol\":1238:1241  wut */\n      dup3\n        /* \"ds-value/value.sol\":1232:1235  val */\n      0x02\n        /* \"ds-value/value.sol\":1232:1241  val = wut */\n      dup2\n      swap1\n      sstore\n      pop\n        /* \"ds-value/value.sol\":1257:1261  true */\n      0x01\n        /* \"ds-value/value.sol\":1251:1254  has */\n      dup1\n      0x14\n        /* \"ds-value/value.sol\":1251:1261  has = true */\n      0x0100\n      exp\n      dup2\n      sload\n      dup2\n      0xff\n      mul\n      not\n      and\n      swap1\n      dup4\n      iszero\n      iszero\n      mul\n      or\n      swap1\n      sstore\n      pop\n        /* \"/ds-note/note.sol\":992:1229  {... */\n      pop\n      pop\n        /* \"ds-value/value.sol\":1170:1268  function poke(bytes32 wut) public payable note auth {... */\n      pop\n      jump\t// out\n        /* \"ds-value/value.sol\":984:1165  function read() public view returns (uint) {... */\n    tag_23:\n        /* \"ds-value/value.sol\":1021:1025  uint */\n      0x00\n        /* \"ds-value/value.sol\":1038:1051  uint wutLocal */\n      dup1\n        /* \"ds-value/value.sol\":1053:1066  bool hasLocal */\n      0x00\n        /* \"ds-value/value.sol\":1070:1076  peek() */\n      tag_65\n        /* \"ds-value/value.sol\":1070:1074  peek */\n      tag_28\n        /* \"ds-value/value.sol\":1070:1076  peek() */\n      jump\t// in\n    tag_65:\n        /* \"ds-value/value.sol\":1037:1076  (uint wutLocal, bool hasLocal) = peek() */\n      swap2\n      pop\n      swap2\n      pop\n        /* \"ds-value/value.sol\":1094:1102  hasLocal */\n      dup1\n        /* \"ds-value/value.sol\":1086:1133  require(hasLocal, \"DSValue: hasLocal is false\") */\n      tag_66\n      jumpi\n      mload(0x40)\n      0x08c379a000000000000000000000000000000000000000000000000000000000\n      dup2\n      mstore\n      0x04\n      add\n      tag_67\n      swap1\n      tag_68\n      jump\t// in\n    tag_67:\n      mload(0x40)\n      dup1\n      swap2\n      sub\n      swap1\n      revert\n    tag_66:\n        /* \"ds-value/value.sol\":1150:1158  wutLocal */\n      dup2\n        /* \"ds-value/value.sol\":1143:1158  return wutLocal */\n      swap3\n      pop\n      pop\n      pop\n        /* \"ds-value/value.sol\":984:1165  function read() public view returns (uint) {... */\n      swap1\n      jump\t// out\n        /* \"ds-value/value.sol\":895:978  function peek() public view returns (uint, bool) {... */\n    tag_28:\n        /* \"ds-value/value.sol\":932:936  uint */\n      0x00\n        /* \"ds-value/value.sol\":938:942  bool */\n      dup1\n        /* \"ds-value/value.sol\":962:965  wut */\n      sload(0x03)\n        /* \"ds-value/value.sol\":967:970  has */\n      0x01\n      0x14\n      swap1\n      sload\n      swap1\n      0x0100\n      exp\n      swap1\n      div\n      0xff\n      and\n        /* \"ds-value/value.sol\":954:971  return (wut, has) */\n      swap2\n      pop\n      swap2\n      pop\n        /* \"ds-value/value.sol\":895:978  function peek() public view returns (uint, bool) {... */\n      swap1\n      swap2\n      jump\t// out\n        /* \"/ds-auth/auth.sol\":1286:1452  function setAuthority(DSAuthority authority_)... */\n    tag_35:\n        /* \"/ds-auth/auth.sol\":1490:1523  isAuthorized(msg.sender, msg.sig) */\n      tag_71\n        /* \"/ds-auth/auth.sol\":1503:1513  msg.sender */\n      caller\n        /* \"/ds-auth/auth.sol\":1515:1522  msg.sig */\n      and(0xffffffff00000000000000000000000000000000000000000000000000000000, calldataload(0x00))\n        /* \"/ds-auth/auth.sol\":1490:1502  isAuthorized */\n      tag_54\n        /* \"/ds-auth/auth.sol\":1490:1523  isAuthorized(msg.sender, msg.sig) */\n      jump\t// in\n    tag_71:\n        /* \"/ds-auth/auth.sol\":1482:1524  require(isAuthorized(msg.sender, msg.sig)) */\n      tag_72\n      jumpi\n      0x00\n      dup1\n      revert\n    tag_72:\n        /* \"/ds-auth/auth.sol\":1386:1396  authority_ */\n      dup1\n        /* \"/ds-auth/auth.sol\":1374:1383  authority */\n      0x00\n      dup1\n        /* \"/ds-auth/auth.sol\":1374:1396  authority = authority_ */\n      0x0100\n      exp\n      dup2\n      sload\n      dup2\n      0xffffffffffffffffffffffffffffffffffffffff\n      mul\n      not\n      and\n      swap1\n      dup4\n      0xffffffffffffffffffffffffffffffffffffffff\n      and\n      mul\n      or\n      swap1\n      sstore\n      pop\n        /* \"/ds-auth/auth.sol\":1434:1443  authority */\n      0x00\n      dup1\n      sload\n      swap1\n      0x0100\n      exp\n      swap1\n      div\n      0xffffffffffffffffffffffffffffffffffffffff\n      and\n        /* \"/ds-auth/auth.sol\":1410:1445  LogSetAuthority(address(authority)) */\n      0xffffffffffffffffffffffffffffffffffffffff\n      and\n      0x1abebea81bfa2637f28358c371278fb15ede7ea8dd28d2e03b112ff6d936ada4\n      mload(0x40)\n      mload(0x40)\n      dup1\n      swap2\n      sub\n      swap1\n      log2\n        /* \"/ds-auth/auth.sol\":1286:1452  function setAuthority(DSAuthority authority_)... */\n      pop\n      jump\t// out\n        /* \"/ds-auth/auth.sol\":1019:1045  address      public  owner */\n    tag_38:\n      0x01\n      0x00\n      swap1\n      sload\n      swap1\n      0x0100\n      exp\n      swap1\n      div\n      0xffffffffffffffffffffffffffffffffffffffff\n      and\n      dup2\n      jump\t// out\n        /* \"ds-value/value.sol\":1273:1362  function void() public payable note auth {  // unset the value... */\n    tag_42:\n        /* \"/ds-note/note.sol\":1002:1013  bytes32 foo */\n      0x00\n        /* \"/ds-note/note.sol\":1023:1034  bytes32 bar */\n      dup1\n        /* \"/ds-note/note.sol\":1088:1089  4 */\n      0x04\n        /* \"/ds-note/note.sol\":1075:1090  calldataload(4) */\n      calldataload\n        /* \"/ds-note/note.sol\":1068:1090  foo := calldataload(4) */\n      swap2\n      pop\n        /* \"/ds-note/note.sol\":1123:1125  36 */\n      0x24\n        /* \"/ds-note/note.sol\":1110:1126  calldataload(36) */\n      calldataload\n        /* \"/ds-note/note.sol\":1103:1126  bar := calldataload(36) */\n      swap1\n      pop\n        /* \"/ds-note/note.sol\":1185:1188  bar */\n      dup1\n        /* \"/ds-note/note.sol\":1180:1183  foo */\n      dup3\n        /* \"/ds-note/note.sol\":1168:1178  msg.sender */\n      caller\n        /* \"/ds-note/note.sol\":1151:1210  LogNote(msg.sig, msg.sender, foo, bar, msg.value, msg.data) */\n      0xffffffffffffffffffffffffffffffffffffffff\n      and\n        /* \"/ds-note/note.sol\":1159:1166  msg.sig */\n      and(0xffffffff00000000000000000000000000000000000000000000000000000000, calldataload(0x00))\n        /* \"/ds-note/note.sol\":1151:1210  LogNote(msg.sig, msg.sender, foo, bar, msg.value, msg.data) */\n      not(0xffffffffffffffffffffffffffffffffffffffffffffffffffffffff)\n      and\n        /* \"/ds-note/note.sol\":1190:1199  msg.value */\n      callvalue\n        /* \"/ds-note/note.sol\":1201:1209  msg.data */\n      0x00\n      calldatasize\n        /* \"/ds-note/note.sol\":1151:1210  LogNote(msg.sig, msg.sender, foo, bar, msg.value, msg.data) */\n      mload(0x40)\n      tag_75\n      swap4\n      swap3\n      swap2\n      swap1\n      tag_59\n      jump\t// in\n    tag_75:\n      mload(0x40)\n      dup1\n      swap2\n      sub\n      swap1\n      log4\n        /* \"/ds-auth/auth.sol\":1490:1523  isAuthorized(msg.sender, msg.sig) */\n      tag_77\n        /* \"/ds-auth/auth.sol\":1503:1513  msg.sender */\n      caller\n        /* \"/ds-auth/auth.sol\":1515:1522  msg.sig */\n      and(0xffffffff00000000000000000000000000000000000000000000000000000000, calldataload(0x00))\n        /* \"/ds-auth/auth.sol\":1490:1502  isAuthorized */\n      tag_54\n        /* \"/ds-auth/auth.sol\":1490:1523  isAuthorized(msg.sender, msg.sig) */\n      jump\t// in\n    tag_77:\n        /* \"/ds-auth/auth.sol\":1482:1524  require(isAuthorized(msg.sender, msg.sig)) */\n      tag_78\n      jumpi\n      0x00\n      dup1\n      revert\n    tag_78:\n        /* \"ds-value/value.sol\":1350:1355  false */\n      0x00\n        /* \"ds-value/value.sol\":1344:1347  has */\n      0x01\n      0x14\n        /* \"ds-value/value.sol\":1344:1355  has = false */\n      0x0100\n      exp\n      dup2\n      sload\n      dup2\n      0xff\n      mul\n      not\n      and\n      swap1\n      dup4\n      iszero\n      iszero\n      mul\n      or\n      swap1\n      sstore\n      pop\n        /* \"/ds-note/note.sol\":992:1229  {... */\n      pop\n      pop\n        /* \"ds-value/value.sol\":1273:1362  function void() public payable note auth {  // unset the value... */\n      jump\t// out\n        /* \"ds-value/value.sol\":869:884  uint public wut */\n    tag_45:\n      sload(0x03)\n      dup2\n      jump\t// out\n        /* \"/ds-auth/auth.sol\":983:1013  DSAuthority  public  authority */\n    tag_49:\n      0x00\n      dup1\n      sload\n      swap1\n      0x0100\n      exp\n      swap1\n      div\n      0xffffffffffffffffffffffffffffffffffffffff\n      and\n      dup2\n      jump\t// out\n        /* \"/ds-auth/auth.sol\":1548:1923  function isAuthorized(address src, bytes4 sig) internal view returns (bool) {... */\n    tag_54:\n        /* \"/ds-auth/auth.sol\":1618:1622  bool */\n      0x00\n        /* \"/ds-auth/auth.sol\":1653:1657  this */\n      address\n        /* \"/ds-auth/auth.sol\":1638:1658  src == address(this) */\n      0xffffffffffffffffffffffffffffffffffffffff\n      and\n        /* \"/ds-auth/auth.sol\":1638:1641  src */\n      dup4\n        /* \"/ds-auth/auth.sol\":1638:1658  src == address(this) */\n      0xffffffffffffffffffffffffffffffffffffffff\n      and\n      sub\n        /* \"/ds-auth/auth.sol\":1634:1917  if (src == address(this)) {... */\n      tag_81\n      jumpi\n        /* \"/ds-auth/auth.sol\":1681:1685  true */\n      0x01\n        /* \"/ds-auth/auth.sol\":1674:1685  return true */\n      swap1\n      pop\n      jump(tag_80)\n        /* \"/ds-auth/auth.sol\":1634:1917  if (src == address(this)) {... */\n    tag_81:\n        /* \"/ds-auth/auth.sol\":1713:1718  owner */\n      0x01\n      0x00\n      swap1\n      sload\n      swap1\n      0x0100\n      exp\n      swap1\n      div\n      0xffffffffffffffffffffffffffffffffffffffff\n      and\n        /* \"/ds-auth/auth.sol\":1706:1718  src == owner */\n      0xffffffffffffffffffffffffffffffffffffffff\n      and\n        /* \"/ds-auth/auth.sol\":1706:1709  src */\n      dup4\n        /* \"/ds-auth/auth.sol\":1706:1718  src == owner */\n      0xffffffffffffffffffffffffffffffffffffffff\n      and\n      sub\n        /* \"/ds-auth/auth.sol\":1702:1917  if (src == owner) {... */\n      tag_83\n      jumpi\n        /* \"/ds-auth/auth.sol\":1741:1745  true */\n      0x01\n        /* \"/ds-auth/auth.sol\":1734:1745  return true */\n      swap1\n      pop\n      jump(tag_80)\n        /* \"/ds-auth/auth.sol\":1702:1917  if (src == owner) {... */\n    tag_83:\n        /* \"/ds-auth/auth.sol\":1796:1797  0 */\n      0x00\n        /* \"/ds-auth/auth.sol\":1766:1798  address(authority) == address(0) */\n      0xffffffffffffffffffffffffffffffffffffffff\n      and\n        /* \"/ds-auth/auth.sol\":1774:1783  authority */\n      0x00\n      dup1\n      sload\n      swap1\n      0x0100\n      exp\n      swap1\n      div\n      0xffffffffffffffffffffffffffffffffffffffff\n      and\n        /* \"/ds-auth/auth.sol\":1766:1798  address(authority) == address(0) */\n      0xffffffffffffffffffffffffffffffffffffffff\n      and\n      sub\n        /* \"/ds-auth/auth.sol\":1762:1917  if (address(authority) == address(0)) {... */\n      tag_85\n      jumpi\n        /* \"/ds-auth/auth.sol\":1821:1826  false */\n      0x00\n        /* \"/ds-auth/auth.sol\":1814:1826  return false */\n      swap1\n      pop\n      jump(tag_80)\n        /* \"/ds-auth/auth.sol\":1762:1917  if (address(authority) == address(0)) {... */\n    tag_85:\n        /* \"/ds-auth/auth.sol\":1864:1873  authority */\n      0x00\n      dup1\n      sload\n      swap1\n      0x0100\n      exp\n      swap1\n      div\n      0xffffffffffffffffffffffffffffffffffffffff\n      and\n        /* \"/ds-auth/auth.sol\":1864:1881  authority.canCall */\n      0xffffffffffffffffffffffffffffffffffffffff\n      and\n      0xb7009613\n        /* \"/ds-auth/auth.sol\":1882:1885  src */\n      dup5\n        /* \"/ds-auth/auth.sol\":1895:1899  this */\n      address\n        /* \"/ds-auth/auth.sol\":1902:1905  sig */\n      dup6\n        /* \"/ds-auth/auth.sol\":1864:1906  authority.canCall(src, address(this), sig) */\n      mload(0x40)\n      dup5\n      0xffffffff\n      and\n      0xe0\n      shl\n      dup2\n      mstore\n      0x04\n      add\n      tag_87\n      swap4\n      swap3\n      swap2\n      swap1\n      tag_88\n      jump\t// in\n    tag_87:\n      0x20\n      mload(0x40)\n      dup1\n      dup4\n      sub\n      dup2\n      dup7\n      gas\n      staticcall\n      iszero\n      dup1\n      iszero\n      tag_90\n      jumpi\n      returndatasize\n      0x00\n      dup1\n      returndatacopy\n      revert(0x00, returndatasize)\n    tag_90:\n      pop\n      pop\n      pop\n      pop\n      mload(0x40)\n      returndatasize\n      not(0x1f)\n      0x1f\n      dup3\n      add\n      and\n      dup3\n      add\n      dup1\n      0x40\n      mstore\n      pop\n      dup2\n      add\n      swap1\n      tag_91\n      swap2\n      swap1\n      tag_92\n      jump\t// in\n    tag_91:\n        /* \"/ds-auth/auth.sol\":1857:1906  return authority.canCall(src, address(this), sig) */\n      swap1\n      pop\n        /* \"/ds-auth/auth.sol\":1548:1923  function isAuthorized(address src, bytes4 sig) internal view returns (bool) {... */\n    tag_80:\n      swap3\n      swap2\n      pop\n      pop\n      jump\t// out\n        /* \"#utility.yul\":88:205   */\n    tag_94:\n        /* \"#utility.yul\":197:198   */\n      0x00\n        /* \"#utility.yul\":194:195   */\n      dup1\n        /* \"#utility.yul\":187:199   */\n      revert\n        /* \"#utility.yul\":334:460   */\n    tag_96:\n        /* \"#utility.yul\":371:378   */\n      0x00\n        /* \"#utility.yul\":411:453   */\n      0xffffffffffffffffffffffffffffffffffffffff\n        /* \"#utility.yul\":404:409   */\n      dup3\n        /* \"#utility.yul\":400:454   */\n      and\n        /* \"#utility.yul\":389:454   */\n      swap1\n      pop\n        /* \"#utility.yul\":334:460   */\n      swap2\n      swap1\n      pop\n      jump\t// out\n        /* \"#utility.yul\":466:562   */\n    tag_97:\n        /* \"#utility.yul\":503:510   */\n      0x00\n        /* \"#utility.yul\":532:556   */\n      tag_133\n        /* \"#utility.yul\":550:555   */\n      dup3\n        /* \"#utility.yul\":532:556   */\n      tag_96\n      jump\t// in\n    tag_133:\n        /* \"#utility.yul\":521:556   */\n      swap1\n      pop\n        /* \"#utility.yul\":466:562   */\n      swap2\n      swap1\n      pop\n      jump\t// out\n        /* \"#utility.yul\":568:690   */\n    tag_98:\n        /* \"#utility.yul\":641:665   */\n      tag_135\n        /* \"#utility.yul\":659:664   */\n      dup2\n        /* \"#utility.yul\":641:665   */\n      tag_97\n      jump\t// in\n    tag_135:\n        /* \"#utility.yul\":634:639   */\n      dup2\n        /* \"#utility.yul\":631:666   */\n      eq\n        /* \"#utility.yul\":621:684   */\n      tag_136\n      jumpi\n        /* \"#utility.yul\":680:681   */\n      0x00\n        /* \"#utility.yul\":677:678   */\n      dup1\n        /* \"#utility.yul\":670:682   */\n      revert\n        /* \"#utility.yul\":621:684   */\n    tag_136:\n        /* \"#utility.yul\":568:690   */\n      pop\n      jump\t// out\n        /* \"#utility.yul\":696:835   */\n    tag_99:\n        /* \"#utility.yul\":742:747   */\n      0x00\n        /* \"#utility.yul\":780:786   */\n      dup2\n        /* \"#utility.yul\":767:787   */\n      calldataload\n        /* \"#utility.yul\":758:787   */\n      swap1\n      pop\n        /* \"#utility.yul\":796:829   */\n      tag_138\n        /* \"#utility.yul\":823:828   */\n      dup2\n        /* \"#utility.yul\":796:829   */\n      tag_98\n      jump\t// in\n    tag_138:\n        /* \"#utility.yul\":696:835   */\n      swap3\n      swap2\n      pop\n      pop\n      jump\t// out\n        /* \"#utility.yul\":841:1170   */\n    tag_15:\n        /* \"#utility.yul\":900:906   */\n      0x00\n        /* \"#utility.yul\":949:951   */\n      0x20\n        /* \"#utility.yul\":937:946   */\n      dup3\n        /* \"#utility.yul\":928:935   */\n      dup5\n        /* \"#utility.yul\":924:947   */\n      sub\n        /* \"#utility.yul\":920:952   */\n      slt\n        /* \"#utility.yul\":917:1036   */\n      iszero\n      tag_140\n      jumpi\n        /* \"#utility.yul\":955:1034   */\n      tag_141\n      tag_94\n      jump\t// in\n    tag_141:\n        /* \"#utility.yul\":917:1036   */\n    tag_140:\n        /* \"#utility.yul\":1075:1076   */\n      0x00\n        /* \"#utility.yul\":1100:1153   */\n      tag_142\n        /* \"#utility.yul\":1145:1152   */\n      dup5\n        /* \"#utility.yul\":1136:1142   */\n      dup3\n        /* \"#utility.yul\":1125:1134   */\n      dup6\n        /* \"#utility.yul\":1121:1143   */\n      add\n        /* \"#utility.yul\":1100:1153   */\n      tag_99\n      jump\t// in\n    tag_142:\n        /* \"#utility.yul\":1090:1153   */\n      swap2\n      pop\n        /* \"#utility.yul\":1046:1163   */\n      pop\n        /* \"#utility.yul\":841:1170   */\n      swap3\n      swap2\n      pop\n      pop\n      jump\t// out\n        /* \"#utility.yul\":1176:1253   */\n    tag_100:\n        /* \"#utility.yul\":1213:1220   */\n      0x00\n        /* \"#utility.yul\":1242:1247   */\n      dup2\n        /* \"#utility.yul\":1231:1247   */\n      swap1\n      pop\n        /* \"#utility.yul\":1176:1253   */\n      swap2\n      swap1\n      pop\n      jump\t// out\n        /* \"#utility.yul\":1259:1381   */\n    tag_101:\n        /* \"#utility.yul\":1332:1356   */\n      tag_145\n        /* \"#utility.yul\":1350:1355   */\n      dup2\n        /* \"#utility.yul\":1332:1356   */\n      tag_100\n      jump\t// in\n    tag_145:\n        /* \"#utility.yul\":1325:1330   */\n      dup2\n        /* \"#utility.yul\":1322:1357   */\n      eq\n        /* \"#utility.yul\":1312:1375   */\n      tag_146\n      jumpi\n        /* \"#utility.yul\":1371:1372   */\n      0x00\n        /* \"#utility.yul\":1368:1369   */\n      dup1\n        /* \"#utility.yul\":1361:1373   */\n      revert\n        /* \"#utility.yul\":1312:1375   */\n    tag_146:\n        /* \"#utility.yul\":1259:1381   */\n      pop\n      jump\t// out\n        /* \"#utility.yul\":1387:1526   */\n    tag_102:\n        /* \"#utility.yul\":1433:1438   */\n      0x00\n        /* \"#utility.yul\":1471:1477   */\n      dup2\n        /* \"#utility.yul\":1458:1478   */\n      calldataload\n        /* \"#utility.yul\":1449:1478   */\n      swap1\n      pop\n        /* \"#utility.yul\":1487:1520   */\n      tag_148\n        /* \"#utility.yul\":1514:1519   */\n      dup2\n        /* \"#utility.yul\":1487:1520   */\n      tag_101\n      jump\t// in\n    tag_148:\n        /* \"#utility.yul\":1387:1526   */\n      swap3\n      swap2\n      pop\n      pop\n      jump\t// out\n        /* \"#utility.yul\":1532:1861   */\n    tag_19:\n        /* \"#utility.yul\":1591:1597   */\n      0x00\n        /* \"#utility.yul\":1640:1642   */\n      0x20\n        /* \"#utility.yul\":1628:1637   */\n      dup3\n        /* \"#utility.yul\":1619:1626   */\n      dup5\n        /* \"#utility.yul\":1615:1638   */\n      sub\n        /* \"#utility.yul\":1611:1643   */\n      slt\n        /* \"#utility.yul\":1608:1727   */\n      iszero\n      tag_150\n      jumpi\n        /* \"#utility.yul\":1646:1725   */\n      tag_151\n      tag_94\n      jump\t// in\n    tag_151:\n        /* \"#utility.yul\":1608:1727   */\n    tag_150:\n        /* \"#utility.yul\":1766:1767   */\n      0x00\n        /* \"#utility.yul\":1791:1844   */\n      tag_152\n        /* \"#utility.yul\":1836:1843   */\n      dup5\n        /* \"#utility.yul\":1827:1833   */\n      dup3\n        /* \"#utility.yul\":1816:1825   */\n      dup6\n        /* \"#utility.yul\":1812:1834   */\n      add\n        /* \"#utility.yul\":1791:1844   */\n      tag_102\n      jump\t// in\n    tag_152:\n        /* \"#utility.yul\":1781:1844   */\n      swap2\n      pop\n        /* \"#utility.yul\":1737:1854   */\n      pop\n        /* \"#utility.yul\":1532:1861   */\n      swap3\n      swap2\n      pop\n      pop\n      jump\t// out\n        /* \"#utility.yul\":1867:1944   */\n    tag_103:\n        /* \"#utility.yul\":1904:1911   */\n      0x00\n        /* \"#utility.yul\":1933:1938   */\n      dup2\n        /* \"#utility.yul\":1922:1938   */\n      swap1\n      pop\n        /* \"#utility.yul\":1867:1944   */\n      swap2\n      swap1\n      pop\n      jump\t// out\n        /* \"#utility.yul\":1950:2068   */\n    tag_104:\n        /* \"#utility.yul\":2037:2061   */\n      tag_155\n        /* \"#utility.yul\":2055:2060   */\n      dup2\n        /* \"#utility.yul\":2037:2061   */\n      tag_103\n      jump\t// in\n    tag_155:\n        /* \"#utility.yul\":2032:2035   */\n      dup3\n        /* \"#utility.yul\":2025:2062   */\n      mstore\n        /* \"#utility.yul\":1950:2068   */\n      pop\n      pop\n      jump\t// out\n        /* \"#utility.yul\":2074:2296   */\n    tag_25:\n        /* \"#utility.yul\":2167:2171   */\n      0x00\n        /* \"#utility.yul\":2205:2207   */\n      0x20\n        /* \"#utility.yul\":2194:2203   */\n      dup3\n        /* \"#utility.yul\":2190:2208   */\n      add\n        /* \"#utility.yul\":2182:2208   */\n      swap1\n      pop\n        /* \"#utility.yul\":2218:2289   */\n      tag_157\n        /* \"#utility.yul\":2286:2287   */\n      0x00\n        /* \"#utility.yul\":2275:2284   */\n      dup4\n        /* \"#utility.yul\":2271:2288   */\n      add\n        /* \"#utility.yul\":2262:2268   */\n      dup5\n        /* \"#utility.yul\":2218:2289   */\n      tag_104\n      jump\t// in\n    tag_157:\n        /* \"#utility.yul\":2074:2296   */\n      swap3\n      swap2\n      pop\n      pop\n      jump\t// out\n        /* \"#utility.yul\":2302:2392   */\n    tag_105:\n        /* \"#utility.yul\":2336:2343   */\n      0x00\n        /* \"#utility.yul\":2379:2384   */\n      dup2\n        /* \"#utility.yul\":2372:2385   */\n      iszero\n        /* \"#utility.yul\":2365:2386   */\n      iszero\n        /* \"#utility.yul\":2354:2386   */\n      swap1\n      pop\n        /* \"#utility.yul\":2302:2392   */\n      swap2\n      swap1\n      pop\n      jump\t// out\n        /* \"#utility.yul\":2398:2507   */\n    tag_106:\n        /* \"#utility.yul\":2479:2500   */\n      tag_160\n        /* \"#utility.yul\":2494:2499   */\n      dup2\n        /* \"#utility.yul\":2479:2500   */\n      tag_105\n      jump\t// in\n    tag_160:\n        /* \"#utility.yul\":2474:2477   */\n      dup3\n        /* \"#utility.yul\":2467:2501   */\n      mstore\n        /* \"#utility.yul\":2398:2507   */\n      pop\n      pop\n      jump\t// out\n        /* \"#utility.yul\":2513:2833   */\n    tag_30:\n        /* \"#utility.yul\":2628:2632   */\n      0x00\n        /* \"#utility.yul\":2666:2668   */\n      0x40\n        /* \"#utility.yul\":2655:2664   */\n      dup3\n        /* \"#utility.yul\":2651:2669   */\n      add\n        /* \"#utility.yul\":2643:2669   */\n      swap1\n      pop\n        /* \"#utility.yul\":2679:2750   */\n      tag_162\n        /* \"#utility.yul\":2747:2748   */\n      0x00\n        /* \"#utility.yul\":2736:2745   */\n      dup4\n        /* \"#utility.yul\":2732:2749   */\n      add\n        /* \"#utility.yul\":2723:2729   */\n      dup6\n        /* \"#utility.yul\":2679:2750   */\n      tag_104\n      jump\t// in\n    tag_162:\n        /* \"#utility.yul\":2760:2826   */\n      tag_163\n        /* \"#utility.yul\":2822:2824   */\n      0x20\n        /* \"#utility.yul\":2811:2820   */\n      dup4\n        /* \"#utility.yul\":2807:2825   */\n      add\n        /* \"#utility.yul\":2798:2804   */\n      dup5\n        /* \"#utility.yul\":2760:2826   */\n      tag_106\n      jump\t// in\n    tag_163:\n        /* \"#utility.yul\":2513:2833   */\n      swap4\n      swap3\n      pop\n      pop\n      pop\n      jump\t// out\n        /* \"#utility.yul\":2839:2953   */\n    tag_107:\n        /* \"#utility.yul\":2894:2901   */\n      0x00\n        /* \"#utility.yul\":2923:2947   */\n      tag_165\n        /* \"#utility.yul\":2941:2946   */\n      dup3\n        /* \"#utility.yul\":2923:2947   */\n      tag_97\n      jump\t// in\n    tag_165:\n        /* \"#utility.yul\":2912:2947   */\n      swap1\n      pop\n        /* \"#utility.yul\":2839:2953   */\n      swap2\n      swap1\n      pop\n      jump\t// out\n        /* \"#utility.yul\":2959:3117   */\n    tag_108:\n        /* \"#utility.yul\":3050:3092   */\n      tag_167\n        /* \"#utility.yul\":3086:3091   */\n      dup2\n        /* \"#utility.yul\":3050:3092   */\n      tag_107\n      jump\t// in\n    tag_167:\n        /* \"#utility.yul\":3043:3048   */\n      dup2\n        /* \"#utility.yul\":3040:3093   */\n      eq\n        /* \"#utility.yul\":3030:3111   */\n      tag_168\n      jumpi\n        /* \"#utility.yul\":3107:3108   */\n      0x00\n        /* \"#utility.yul\":3104:3105   */\n      dup1\n        /* \"#utility.yul\":3097:3109   */\n      revert\n        /* \"#utility.yul\":3030:3111   */\n    tag_168:\n        /* \"#utility.yul\":2959:3117   */\n      pop\n      jump\t// out\n        /* \"#utility.yul\":3123:3298   */\n    tag_109:\n        /* \"#utility.yul\":3187:3192   */\n      0x00\n        /* \"#utility.yul\":3225:3231   */\n      dup2\n        /* \"#utility.yul\":3212:3232   */\n      calldataload\n        /* \"#utility.yul\":3203:3232   */\n      swap1\n      pop\n        /* \"#utility.yul\":3241:3292   */\n      tag_170\n        /* \"#utility.yul\":3286:3291   */\n      dup2\n        /* \"#utility.yul\":3241:3292   */\n      tag_108\n      jump\t// in\n    tag_170:\n        /* \"#utility.yul\":3123:3298   */\n      swap3\n      swap2\n      pop\n      pop\n      jump\t// out\n        /* \"#utility.yul\":3304:3669   */\n    tag_34:\n        /* \"#utility.yul\":3381:3387   */\n      0x00\n        /* \"#utility.yul\":3430:3432   */\n      0x20\n        /* \"#utility.yul\":3418:3427   */\n      dup3\n        /* \"#utility.yul\":3409:3416   */\n      dup5\n        /* \"#utility.yul\":3405:3428   */\n      sub\n        /* \"#utility.yul\":3401:3433   */\n      slt\n        /* \"#utility.yul\":3398:3517   */\n      iszero\n      tag_172\n      jumpi\n        /* \"#utility.yul\":3436:3515   */\n      tag_173\n      tag_94\n      jump\t// in\n    tag_173:\n        /* \"#utility.yul\":3398:3517   */\n    tag_172:\n        /* \"#utility.yul\":3556:3557   */\n      0x00\n        /* \"#utility.yul\":3581:3652   */\n      tag_174\n        /* \"#utility.yul\":3644:3651   */\n      dup5\n        /* \"#utility.yul\":3635:3641   */\n      dup3\n        /* \"#utility.yul\":3624:3633   */\n      dup6\n        /* \"#utility.yul\":3620:3642   */\n      add\n        /* \"#utility.yul\":3581:3652   */\n      tag_109\n      jump\t// in\n    tag_174:\n        /* \"#utility.yul\":3571:3652   */\n      swap2\n      pop\n        /* \"#utility.yul\":3527:3662   */\n      pop\n        /* \"#utility.yul\":3304:3669   */\n      swap3\n      swap2\n      pop\n      pop\n      jump\t// out\n        /* \"#utility.yul\":3675:3793   */\n    tag_110:\n        /* \"#utility.yul\":3762:3786   */\n      tag_176\n        /* \"#utility.yul\":3780:3785   */\n      dup2\n        /* \"#utility.yul\":3762:3786   */\n      tag_97\n      jump\t// in\n    tag_176:\n        /* \"#utility.yul\":3757:3760   */\n      dup3\n        /* \"#utility.yul\":3750:3787   */\n      mstore\n        /* \"#utility.yul\":3675:3793   */\n      pop\n      pop\n      jump\t// out\n        /* \"#utility.yul\":3799:4021   */\n    tag_40:\n        /* \"#utility.yul\":3892:3896   */\n      0x00\n        /* \"#utility.yul\":3930:3932   */\n      0x20\n        /* \"#utility.yul\":3919:3928   */\n      dup3\n        /* \"#utility.yul\":3915:3933   */\n      add\n        /* \"#utility.yul\":3907:3933   */\n      swap1\n      pop\n        /* \"#utility.yul\":3943:4014   */\n      tag_178\n        /* \"#utility.yul\":4011:4012   */\n      0x00\n        /* \"#utility.yul\":4000:4009   */\n      dup4\n        /* \"#utility.yul\":3996:4013   */\n      add\n        /* \"#utility.yul\":3987:3993   */\n      dup5\n        /* \"#utility.yul\":3943:4014   */\n      tag_110\n      jump\t// in\n    tag_178:\n        /* \"#utility.yul\":3799:4021   */\n      swap3\n      swap2\n      pop\n      pop\n      jump\t// out\n        /* \"#utility.yul\":4027:4087   */\n    tag_111:\n        /* \"#utility.yul\":4055:4058   */\n      0x00\n        /* \"#utility.yul\":4076:4081   */\n      dup2\n        /* \"#utility.yul\":4069:4081   */\n      swap1\n      pop\n        /* \"#utility.yul\":4027:4087   */\n      swap2\n      swap1\n      pop\n      jump\t// out\n        /* \"#utility.yul\":4093:4235   */\n    tag_112:\n        /* \"#utility.yul\":4143:4152   */\n      0x00\n        /* \"#utility.yul\":4176:4229   */\n      tag_181\n        /* \"#utility.yul\":4194:4228   */\n      tag_182\n        /* \"#utility.yul\":4203:4227   */\n      tag_183\n        /* \"#utility.yul\":4221:4226   */\n      dup5\n        /* \"#utility.yul\":4203:4227   */\n      tag_96\n      jump\t// in\n    tag_183:\n        /* \"#utility.yul\":4194:4228   */\n      tag_111\n      jump\t// in\n    tag_182:\n        /* \"#utility.yul\":4176:4229   */\n      tag_96\n      jump\t// in\n    tag_181:\n        /* \"#utility.yul\":4163:4229   */\n      swap1\n      pop\n        /* \"#utility.yul\":4093:4235   */\n      swap2\n      swap1\n      pop\n      jump\t// out\n        /* \"#utility.yul\":4241:4367   */\n    tag_113:\n        /* \"#utility.yul\":4291:4300   */\n      0x00\n        /* \"#utility.yul\":4324:4361   */\n      tag_185\n        /* \"#utility.yul\":4355:4360   */\n      dup3\n        /* \"#utility.yul\":4324:4361   */\n      tag_112\n      jump\t// in\n    tag_185:\n        /* \"#utility.yul\":4311:4361   */\n      swap1\n      pop\n        /* \"#utility.yul\":4241:4367   */\n      swap2\n      swap1\n      pop\n      jump\t// out\n        /* \"#utility.yul\":4373:4517   */\n    tag_114:\n        /* \"#utility.yul\":4441:4450   */\n      0x00\n        /* \"#utility.yul\":4474:4511   */\n      tag_187\n        /* \"#utility.yul\":4505:4510   */\n      dup3\n        /* \"#utility.yul\":4474:4511   */\n      tag_113\n      jump\t// in\n    tag_187:\n        /* \"#utility.yul\":4461:4511   */\n      swap1\n      pop\n        /* \"#utility.yul\":4373:4517   */\n      swap2\n      swap1\n      pop\n      jump\t// out\n        /* \"#utility.yul\":4523:4690   */\n    tag_115:\n        /* \"#utility.yul\":4628:4683   */\n      tag_189\n        /* \"#utility.yul\":4677:4682   */\n      dup2\n        /* \"#utility.yul\":4628:4683   */\n      tag_114\n      jump\t// in\n    tag_189:\n        /* \"#utility.yul\":4623:4626   */\n      dup3\n        /* \"#utility.yul\":4616:4684   */\n      mstore\n        /* \"#utility.yul\":4523:4690   */\n      pop\n      pop\n      jump\t// out\n        /* \"#utility.yul\":4696:4954   */\n    tag_51:\n        /* \"#utility.yul\":4807:4811   */\n      0x00\n        /* \"#utility.yul\":4845:4847   */\n      0x20\n        /* \"#utility.yul\":4834:4843   */\n      dup3\n        /* \"#utility.yul\":4830:4848   */\n      add\n        /* \"#utility.yul\":4822:4848   */\n      swap1\n      pop\n        /* \"#utility.yul\":4858:4947   */\n      tag_191\n        /* \"#utility.yul\":4944:4945   */\n      0x00\n        /* \"#utility.yul\":4933:4942   */\n      dup4\n        /* \"#utility.yul\":4929:4946   */\n      add\n        /* \"#utility.yul\":4920:4926   */\n      dup5\n        /* \"#utility.yul\":4858:4947   */\n      tag_115\n      jump\t// in\n    tag_191:\n        /* \"#utility.yul\":4696:4954   */\n      swap3\n      swap2\n      pop\n      pop\n      jump\t// out\n        /* \"#utility.yul\":4960:5128   */\n    tag_116:\n        /* \"#utility.yul\":5043:5054   */\n      0x00\n        /* \"#utility.yul\":5077:5083   */\n      dup3\n        /* \"#utility.yul\":5072:5075   */\n      dup3\n        /* \"#utility.yul\":5065:5084   */\n      mstore\n        /* \"#utility.yul\":5117:5121   */\n      0x20\n        /* \"#utility.yul\":5112:5115   */\n      dup3\n        /* \"#utility.yul\":5108:5122   */\n      add\n        /* \"#utility.yul\":5093:5122   */\n      swap1\n      pop\n        /* \"#utility.yul\":4960:5128   */\n      swap3\n      swap2\n      pop\n      pop\n      jump\t// out\n        /* \"#utility.yul\":5134:5280   */\n    tag_117:\n        /* \"#utility.yul\":5231:5237   */\n      dup3\n        /* \"#utility.yul\":5226:5229   */\n      dup2\n        /* \"#utility.yul\":5221:5224   */\n      dup4\n        /* \"#utility.yul\":5208:5238   */\n      calldatacopy\n        /* \"#utility.yul\":5272:5273   */\n      0x00\n        /* \"#utility.yul\":5263:5269   */\n      dup4\n        /* \"#utility.yul\":5258:5261   */\n      dup4\n        /* \"#utility.yul\":5254:5270   */\n      add\n        /* \"#utility.yul\":5247:5274   */\n      mstore\n        /* \"#utility.yul\":5134:5280   */\n      pop\n      pop\n      pop\n      jump\t// out\n        /* \"#utility.yul\":5286:5388   */\n    tag_118:\n        /* \"#utility.yul\":5327:5333   */\n      0x00\n        /* \"#utility.yul\":5378:5380   */\n      0x1f\n        /* \"#utility.yul\":5374:5381   */\n      not\n        /* \"#utility.yul\":5369:5371   */\n      0x1f\n        /* \"#utility.yul\":5362:5367   */\n      dup4\n        /* \"#utility.yul\":5358:5372   */\n      add\n        /* \"#utility.yul\":5354:5382   */\n      and\n        /* \"#utility.yul\":5344:5382   */\n      swap1\n      pop\n        /* \"#utility.yul\":5286:5388   */\n      swap2\n      swap1\n      pop\n      jump\t// out\n        /* \"#utility.yul\":5416:5730   */\n    tag_119:\n        /* \"#utility.yul\":5512:5515   */\n      0x00\n        /* \"#utility.yul\":5533:5603   */\n      tag_196\n        /* \"#utility.yul\":5596:5602   */\n      dup4\n        /* \"#utility.yul\":5591:5594   */\n      dup6\n        /* \"#utility.yul\":5533:5603   */\n      tag_116\n      jump\t// in\n    tag_196:\n        /* \"#utility.yul\":5526:5603   */\n      swap4\n      pop\n        /* \"#utility.yul\":5613:5669   */\n      tag_197\n        /* \"#utility.yul\":5662:5668   */\n      dup4\n        /* \"#utility.yul\":5657:5660   */\n      dup6\n        /* \"#utility.yul\":5650:5655   */\n      dup5\n        /* \"#utility.yul\":5613:5669   */\n      tag_117\n      jump\t// in\n    tag_197:\n        /* \"#utility.yul\":5694:5723   */\n      tag_198\n        /* \"#utility.yul\":5716:5722   */\n      dup4\n        /* \"#utility.yul\":5694:5723   */\n      tag_118\n      jump\t// in\n    tag_198:\n        /* \"#utility.yul\":5689:5692   */\n      dup5\n        /* \"#utility.yul\":5685:5724   */\n      add\n        /* \"#utility.yul\":5678:5724   */\n      swap1\n      pop\n        /* \"#utility.yul\":5416:5730   */\n      swap4\n      swap3\n      pop\n      pop\n      pop\n      jump\t// out\n        /* \"#utility.yul\":5736:6175   */\n    tag_59:\n        /* \"#utility.yul\":5885:5889   */\n      0x00\n        /* \"#utility.yul\":5923:5925   */\n      0x40\n        /* \"#utility.yul\":5912:5921   */\n      dup3\n        /* \"#utility.yul\":5908:5926   */\n      add\n        /* \"#utility.yul\":5900:5926   */\n      swap1\n      pop\n        /* \"#utility.yul\":5936:6007   */\n      tag_200\n        /* \"#utility.yul\":6004:6005   */\n      0x00\n        /* \"#utility.yul\":5993:6002   */\n      dup4\n        /* \"#utility.yul\":5989:6006   */\n      add\n        /* \"#utility.yul\":5980:5986   */\n      dup7\n        /* \"#utility.yul\":5936:6007   */\n      tag_104\n      jump\t// in\n    tag_200:\n        /* \"#utility.yul\":6054:6063   */\n      dup2\n        /* \"#utility.yul\":6048:6052   */\n      dup2\n        /* \"#utility.yul\":6044:6064   */\n      sub\n        /* \"#utility.yul\":6039:6041   */\n      0x20\n        /* \"#utility.yul\":6028:6037   */\n      dup4\n        /* \"#utility.yul\":6024:6042   */\n      add\n        /* \"#utility.yul\":6017:6065   */\n      mstore\n        /* \"#utility.yul\":6082:6168   */\n      tag_201\n        /* \"#utility.yul\":6163:6167   */\n      dup2\n        /* \"#utility.yul\":6154:6160   */\n      dup5\n        /* \"#utility.yul\":6146:6152   */\n      dup7\n        /* \"#utility.yul\":6082:6168   */\n      tag_119\n      jump\t// in\n    tag_201:\n        /* \"#utility.yul\":6074:6168   */\n      swap1\n      pop\n        /* \"#utility.yul\":5736:6175   */\n      swap5\n      swap4\n      pop\n      pop\n      pop\n      pop\n      jump\t// out\n        /* \"#utility.yul\":6181:6350   */\n    tag_120:\n        /* \"#utility.yul\":6265:6276   */\n      0x00\n        /* \"#utility.yul\":6299:6305   */\n      dup3\n        /* \"#utility.yul\":6294:6297   */\n      dup3\n        /* \"#utility.yul\":6287:6306   */\n      mstore\n        /* \"#utility.yul\":6339:6343   */\n      0x20\n        /* \"#utility.yul\":6334:6337   */\n      dup3\n        /* \"#utility.yul\":6330:6344   */\n      add\n        /* \"#utility.yul\":6315:6344   */\n      swap1\n      pop\n        /* \"#utility.yul\":6181:6350   */\n      swap3\n      swap2\n      pop\n      pop\n      jump\t// out\n        /* \"#utility.yul\":6356:6532   */\n    tag_121:\n        /* \"#utility.yul\":6496:6524   */\n      0x445356616c75653a206861734c6f63616c2069732066616c7365000000000000\n        /* \"#utility.yul\":6492:6493   */\n      0x00\n        /* \"#utility.yul\":6484:6490   */\n      dup3\n        /* \"#utility.yul\":6480:6494   */\n      add\n        /* \"#utility.yul\":6473:6525   */\n      mstore\n        /* \"#utility.yul\":6356:6532   */\n      pop\n      jump\t// out\n        /* \"#utility.yul\":6538:6904   */\n    tag_122:\n        /* \"#utility.yul\":6680:6683   */\n      0x00\n        /* \"#utility.yul\":6701:6768   */\n      tag_205\n        /* \"#utility.yul\":6765:6767   */\n      0x1a\n        /* \"#utility.yul\":6760:6763   */\n      dup4\n        /* \"#utility.yul\":6701:6768   */\n      tag_120\n      jump\t// in\n    tag_205:\n        /* \"#utility.yul\":6694:6768   */\n      swap2\n      pop\n        /* \"#utility.yul\":6777:6870   */\n      tag_206\n        /* \"#utility.yul\":6866:6869   */\n      dup3\n        /* \"#utility.yul\":6777:6870   */\n      tag_121\n      jump\t// in\n    tag_206:\n        /* \"#utility.yul\":6895:6897   */\n      0x20\n        /* \"#utility.yul\":6890:6893   */\n      dup3\n        /* \"#utility.yul\":6886:6898   */\n      add\n        /* \"#utility.yul\":6879:6898   */\n      swap1\n      pop\n        /* \"#utility.yul\":6538:6904   */\n      swap2\n      swap1\n      pop\n      jump\t// out\n        /* \"#utility.yul\":6910:7329   */\n    tag_68:\n        /* \"#utility.yul\":7076:7080   */\n      0x00\n        /* \"#utility.yul\":7114:7116   */\n      0x20\n        /* \"#utility.yul\":7103:7112   */\n      dup3\n        /* \"#utility.yul\":7099:7117   */\n      add\n        /* \"#utility.yul\":7091:7117   */\n      swap1\n      pop\n        /* \"#utility.yul\":7163:7172   */\n      dup2\n        /* \"#utility.yul\":7157:7161   */\n      dup2\n        /* \"#utility.yul\":7153:7173   */\n      sub\n        /* \"#utility.yul\":7149:7150   */\n      0x00\n        /* \"#utility.yul\":7138:7147   */\n      dup4\n        /* \"#utility.yul\":7134:7151   */\n      add\n        /* \"#utility.yul\":7127:7174   */\n      mstore\n        /* \"#utility.yul\":7191:7322   */\n      tag_208\n        /* \"#utility.yul\":7317:7321   */\n      dup2\n        /* \"#utility.yul\":7191:7322   */\n      tag_122\n      jump\t// in\n    tag_208:\n        /* \"#utility.yul\":7183:7322   */\n      swap1\n      pop\n        /* \"#utility.yul\":6910:7329   */\n      swap2\n      swap1\n      pop\n      jump\t// out\n        /* \"#utility.yul\":7335:7484   */\n    tag_123:\n        /* \"#utility.yul\":7371:7378   */\n      0x00\n        /* \"#utility.yul\":7411:7477   */\n      0xffffffff00000000000000000000000000000000000000000000000000000000\n        /* \"#utility.yul\":7404:7409   */\n      dup3\n        /* \"#utility.yul\":7400:7478   */\n      and\n        /* \"#utility.yul\":7389:7478   */\n      swap1\n      pop\n        /* \"#utility.yul\":7335:7484   */\n      swap2\n      swap1\n      pop\n      jump\t// out\n        /* \"#utility.yul\":7490:7605   */\n    tag_124:\n        /* \"#utility.yul\":7575:7598   */\n      tag_211\n        /* \"#utility.yul\":7592:7597   */\n      dup2\n        /* \"#utility.yul\":7575:7598   */\n      tag_123\n      jump\t// in\n    tag_211:\n        /* \"#utility.yul\":7570:7573   */\n      dup3\n        /* \"#utility.yul\":7563:7599   */\n      mstore\n        /* \"#utility.yul\":7490:7605   */\n      pop\n      pop\n      jump\t// out\n        /* \"#utility.yul\":7611:8049   */\n    tag_88:\n        /* \"#utility.yul\":7758:7762   */\n      0x00\n        /* \"#utility.yul\":7796:7798   */\n      0x60\n        /* \"#utility.yul\":7785:7794   */\n      dup3\n        /* \"#utility.yul\":7781:7799   */\n      add\n        /* \"#utility.yul\":7773:7799   */\n      swap1\n      pop\n        /* \"#utility.yul\":7809:7880   */\n      tag_213\n        /* \"#utility.yul\":7877:7878   */\n      0x00\n        /* \"#utility.yul\":7866:7875   */\n      dup4\n        /* \"#utility.yul\":7862:7879   */\n      add\n        /* \"#utility.yul\":7853:7859   */\n      dup7\n        /* \"#utility.yul\":7809:7880   */\n      tag_110\n      jump\t// in\n    tag_213:\n        /* \"#utility.yul\":7890:7962   */\n      tag_214\n        /* \"#utility.yul\":7958:7960   */\n      0x20\n        /* \"#utility.yul\":7947:7956   */\n      dup4\n        /* \"#utility.yul\":7943:7961   */\n      add\n        /* \"#utility.yul\":7934:7940   */\n      dup6\n        /* \"#utility.yul\":7890:7962   */\n      tag_110\n      jump\t// in\n    tag_214:\n        /* \"#utility.yul\":7972:8042   */\n      tag_215\n        /* \"#utility.yul\":8038:8040   */\n      0x40\n        /* \"#utility.yul\":8027:8036   */\n      dup4\n        /* \"#utility.yul\":8023:8041   */\n      add\n        /* \"#utility.yul\":8014:8020   */\n      dup5\n        /* \"#utility.yul\":7972:8042   */\n      tag_124\n      jump\t// in\n    tag_215:\n        /* \"#utility.yul\":7611:8049   */\n      swap5\n      swap4\n      pop\n      pop\n      pop\n      pop\n      jump\t// out\n        /* \"#utility.yul\":8055:8171   */\n    tag_125:\n        /* \"#utility.yul\":8125:8146   */\n      tag_217\n        /* \"#utility.yul\":8140:8145   */\n      dup2\n        /* \"#utility.yul\":8125:8146   */\n      tag_105\n      jump\t// in\n    tag_217:\n        /* \"#utility.yul\":8118:8123   */\n      dup2\n        /* \"#utility.yul\":8115:8147   */\n      eq\n        /* \"#utility.yul\":8105:8165   */\n      tag_218\n      jumpi\n        /* \"#utility.yul\":8161:8162   */\n      0x00\n        /* \"#utility.yul\":8158:8159   */\n      dup1\n        /* \"#utility.yul\":8151:8163   */\n      revert\n        /* \"#utility.yul\":8105:8165   */\n    tag_218:\n        /* \"#utility.yul\":8055:8171   */\n      pop\n      jump\t// out\n        /* \"#utility.yul\":8177:8314   */\n    tag_126:\n        /* \"#utility.yul\":8231:8236   */\n      0x00\n        /* \"#utility.yul\":8262:8268   */\n      dup2\n        /* \"#utility.yul\":8256:8269   */\n      mload\n        /* \"#utility.yul\":8247:8269   */\n      swap1\n      pop\n        /* \"#utility.yul\":8278:8308   */\n      tag_220\n        /* \"#utility.yul\":8302:8307   */\n      dup2\n        /* \"#utility.yul\":8278:8308   */\n      tag_125\n      jump\t// in\n    tag_220:\n        /* \"#utility.yul\":8177:8314   */\n      swap3\n      swap2\n      pop\n      pop\n      jump\t// out\n        /* \"#utility.yul\":8320:8665   */\n    tag_92:\n        /* \"#utility.yul\":8387:8393   */\n      0x00\n        /* \"#utility.yul\":8436:8438   */\n      0x20\n        /* \"#utility.yul\":8424:8433   */\n      dup3\n        /* \"#utility.yul\":8415:8422   */\n      dup5\n        /* \"#utility.yul\":8411:8434   */\n      sub\n        /* \"#utility.yul\":8407:8439   */\n      slt\n        /* \"#utility.yul\":8404:8523   */\n      iszero\n      tag_222\n      jumpi\n        /* \"#utility.yul\":8442:8521   */\n      tag_223\n      tag_94\n      jump\t// in\n    tag_223:\n        /* \"#utility.yul\":8404:8523   */\n    tag_222:\n        /* \"#utility.yul\":8562:8563   */\n      0x00\n        /* \"#utility.yul\":8587:8648   */\n      tag_224\n        /* \"#utility.yul\":8640:8647   */\n      dup5\n        /* \"#utility.yul\":8631:8637   */\n      dup3\n        /* \"#utility.yul\":8620:8629   */\n      dup6\n        /* \"#utility.yul\":8616:8638   */\n      add\n        /* \"#utility.yul\":8587:8648   */\n      tag_126\n      jump\t// in\n    tag_224:\n        /* \"#utility.yul\":8577:8648   */\n      swap2\n      pop\n        /* \"#utility.yul\":8533:8658   */\n      pop\n        /* \"#utility.yul\":8320:8665   */\n      swap3\n      swap2\n      pop\n      pop\n      jump\t// out\n\n    auxdata: 0xa264697066735822122029e6eabc425d948ef5c4db375d71873b807b608600634e80de4110811910cb9a64736f6c63430008140033\n}\n",
				"bytecode": {
					"linkReferences": {},
					"object": "608060405234801561000f575f80fd5b503360015f6101000a81548173ffffffffffffffffffffffffffffffffffffffff021916908373ffffffffffffffffffffffffffffffffffffffff1602179055503373ffffffffffffffffffffffffffffffffffffffff167fce241d7ca1f669fee44b6fc00b8eba2df3bb514eed0f6f668f8f89096e81ed9460405160405180910390a2610bea806100a05f395ff3fe608060405260043610610085575f3560e01c80637a9e5e4b116100585780637a9e5e4b146101225780638da5cb5b1461014a578063ac4c25b214610174578063aff72e311461017e578063bf7e214f146101a857610085565b806313af4035146100895780631504460f146100b157806357de26a4146100cd57806359e02dd7146100f7575b5f80fd5b348015610094575f80fd5b506100af60048036038101906100aa91906107f1565b6101d2565b005b6100cb60048036038101906100c6919061084f565b6102ae565b005b3480156100d8575f80fd5b506100e161038b565b6040516100ee9190610892565b60405180910390f35b348015610102575f80fd5b5061010b6103e2565b6040516101199291906108c5565b60405180910390f35b34801561012d575f80fd5b5061014860048036038101906101439190610927565b6103ff565b005b348015610155575f80fd5b5061015e6104d8565b60405161016b9190610961565b60405180910390f35b61017c6104fd565b005b348015610189575f80fd5b506101926105d2565b60405161019f9190610892565b60405180910390f35b3480156101b3575f80fd5b506101bc6105d8565b6040516101c991906109d5565b60405180910390f35b6101ff335f357fffffffff00000000000000000000000000000000000000000000000000000000166105fb565b610207575f80fd5b8060015f6101000a81548173ffffffffffffffffffffffffffffffffffffffff021916908373ffffffffffffffffffffffffffffffffffffffff16021790555060015f9054906101000a900473ffffffffffffffffffffffffffffffffffffffff1673ffffffffffffffffffffffffffffffffffffffff167fce241d7ca1f669fee44b6fc00b8eba2df3bb514eed0f6f668f8f89096e81ed9460405160405180910390a250565b5f806004359150602435905080823373ffffffffffffffffffffffffffffffffffffffff165f357fffffffff00000000000000000000000000000000000000000000000000000000167bffffffffffffffffffffffffffffffffffffffffffffffffffffffff1916345f3660405161032893929190610a48565b60405180910390a461035d335f357fffffffff00000000000000000000000000000000000000000000000000000000166105fb565b610365575f80fd5b8260028190555060018060146101000a81548160ff021916908315150217905550505050565b5f805f6103966103e2565b91509150806103da576040517f08c379a00000000000000000000000000000000000000000000000000000000081526004016103d190610ad2565b60405180910390fd5b819250505090565b5f80600354600160149054906101000a900460ff16915091509091565b61042c335f357fffffffff00000000000000000000000000000000000000000000000000000000166105fb565b610434575f80fd5b805f806101000a81548173ffffffffffffffffffffffffffffffffffffffff021916908373ffffffffffffffffffffffffffffffffffffffff1602179055505f8054906101000a900473ffffffffffffffffffffffffffffffffffffffff1673ffffffffffffffffffffffffffffffffffffffff167f1abebea81bfa2637f28358c371278fb15ede7ea8dd28d2e03b112ff6d936ada460405160405180910390a250565b60015f9054906101000a900473ffffffffffffffffffffffffffffffffffffffff1681565b5f806004359150602435905080823373ffffffffffffffffffffffffffffffffffffffff165f357fffffffff00000000000000000000000000000000000000000000000000000000167bffffffffffffffffffffffffffffffffffffffffffffffffffffffff1916345f3660405161057793929190610a48565b60405180910390a46105ac335f357fffffffff00000000000000000000000000000000000000000000000000000000166105fb565b6105b4575f80fd5b5f600160146101000a81548160ff0219169083151502179055505050565b60035481565b5f8054906101000a900473ffffffffffffffffffffffffffffffffffffffff1681565b5f3073ffffffffffffffffffffffffffffffffffffffff168373ffffffffffffffffffffffffffffffffffffffff1603610638576001905061078d565b60015f9054906101000a900473ffffffffffffffffffffffffffffffffffffffff1673ffffffffffffffffffffffffffffffffffffffff168373ffffffffffffffffffffffffffffffffffffffff1603610695576001905061078d565b5f73ffffffffffffffffffffffffffffffffffffffff165f8054906101000a900473ffffffffffffffffffffffffffffffffffffffff1673ffffffffffffffffffffffffffffffffffffffff16036106ef575f905061078d565b5f8054906101000a900473ffffffffffffffffffffffffffffffffffffffff1673ffffffffffffffffffffffffffffffffffffffff1663b70096138430856040518463ffffffff1660e01b815260040161074b93929190610b2a565b602060405180830381865afa158015610766573d5f803e3d5ffd5b505050506040513d601f19601f8201168201806040525081019061078a9190610b89565b90505b92915050565b5f80fd5b5f73ffffffffffffffffffffffffffffffffffffffff82169050919050565b5f6107c082610797565b9050919050565b6107d0816107b6565b81146107da575f80fd5b50565b5f813590506107eb816107c7565b92915050565b5f6020828403121561080657610805610793565b5b5f610813848285016107dd565b91505092915050565b5f819050919050565b61082e8161081c565b8114610838575f80fd5b50565b5f8135905061084981610825565b92915050565b5f6020828403121561086457610863610793565b5b5f6108718482850161083b565b91505092915050565b5f819050919050565b61088c8161087a565b82525050565b5f6020820190506108a55f830184610883565b92915050565b5f8115159050919050565b6108bf816108ab565b82525050565b5f6040820190506108d85f830185610883565b6108e560208301846108b6565b9392505050565b5f6108f6826107b6565b9050919050565b610906816108ec565b8114610910575f80fd5b50565b5f81359050610921816108fd565b92915050565b5f6020828403121561093c5761093b610793565b5b5f61094984828501610913565b91505092915050565b61095b816107b6565b82525050565b5f6020820190506109745f830184610952565b92915050565b5f819050919050565b5f61099d61099861099384610797565b61097a565b610797565b9050919050565b5f6109ae82610983565b9050919050565b5f6109bf826109a4565b9050919050565b6109cf816109b5565b82525050565b5f6020820190506109e85f8301846109c6565b92915050565b5f82825260208201905092915050565b828183375f83830152505050565b5f601f19601f8301169050919050565b5f610a2783856109ee565b9350610a348385846109fe565b610a3d83610a0c565b840190509392505050565b5f604082019050610a5b5f830186610883565b8181036020830152610a6e818486610a1c565b9050949350505050565b5f82825260208201905092915050565b7f445356616c75653a206861734c6f63616c2069732066616c73650000000000005f82015250565b5f610abc601a83610a78565b9150610ac782610a88565b602082019050919050565b5f6020820190508181035f830152610ae981610ab0565b9050919050565b5f7fffffffff0000000000000000000000000000000000000000000000000000000082169050919050565b610b2481610af0565b82525050565b5f606082019050610b3d5f830186610952565b610b4a6020830185610952565b610b576040830184610b1b565b949350505050565b610b68816108ab565b8114610b72575f80fd5b50565b5f81519050610b8381610b5f565b92915050565b5f60208284031215610b9e57610b9d610793565b5b5f610bab84828501610b75565b9150509291505056fea264697066735822122029e6eabc425d948ef5c4db375d71873b807b608600634e80de4110811910cb9a64736f6c63430008140033",
					"opcodes": "PUSH1 0x80 PUSH1 0x40 MSTORE CALLVALUE DUP1 ISZERO PUSH2 0xF JUMPI PUSH0 DUP1 REVERT JUMPDEST POP CALLER PUSH1 0x1 PUSH0 PUSH2 0x100 EXP DUP2 SLOAD DUP2 PUSH20 0xFFFFFFFFFFFFFFFFFFFFFFFFFFFFFFFFFFFFFFFF MUL NOT AND SWAP1 DUP4 PUSH20 0xFFFFFFFFFFFFFFFFFFFFFFFFFFFFFFFFFFFFFFFF AND MUL OR SWAP1 SSTORE POP CALLER PUSH20 0xFFFFFFFFFFFFFFFFFFFFFFFFFFFFFFFFFFFFFFFF AND PUSH32 0xCE241D7CA1F669FEE44B6FC00B8EBA2DF3BB514EED0F6F668F8F89096E81ED94 PUSH1 0x40 MLOAD PUSH1 0x40 MLOAD DUP1 SWAP2 SUB SWAP1 LOG2 PUSH2 0xBEA DUP1 PUSH2 0xA0 PUSH0 CODECOPY PUSH0 RETURN INVALID PUSH1 0x80 PUSH1 0x40 MSTORE PUSH1 0x4 CALLDATASIZE LT PUSH2 0x85 JUMPI PUSH0 CALLDATALOAD PUSH1 0xE0 SHR DUP1 PUSH4 0x7A9E5E4B GT PUSH2 0x58 JUMPI DUP1 PUSH4 0x7A9E5E4B EQ PUSH2 0x122 JUMPI DUP1 PUSH4 0x8DA5CB5B EQ PUSH2 0x14A JUMPI DUP1 PUSH4 0xAC4C25B2 EQ PUSH2 0x174 JUMPI DUP1 PUSH4 0xAFF72E31 EQ PUSH2 0x17E JUMPI DUP1 PUSH4 0xBF7E214F EQ PUSH2 0x1A8 JUMPI PUSH2 0x85 JUMP JUMPDEST DUP1 PUSH4 0x13AF4035 EQ PUSH2 0x89 JUMPI DUP1 PUSH4 0x1504460F EQ PUSH2 0xB1 JUMPI DUP1 PUSH4 0x57DE26A4 EQ PUSH2 0xCD JUMPI DUP1 PUSH4 0x59E02DD7 EQ PUSH2 0xF7 JUMPI JUMPDEST PUSH0 DUP1 REVERT JUMPDEST CALLVALUE DUP1 ISZERO PUSH2 0x94 JUMPI PUSH0 DUP1 REVERT JUMPDEST POP PUSH2 0xAF PUSH1 0x4 DUP1 CALLDATASIZE SUB DUP2 ADD SWAP1 PUSH2 0xAA SWAP2 SWAP1 PUSH2 0x7F1 JUMP JUMPDEST PUSH2 0x1D2 JUMP JUMPDEST STOP JUMPDEST PUSH2 0xCB PUSH1 0x4 DUP1 CALLDATASIZE SUB DUP2 ADD SWAP1 PUSH2 0xC6 SWAP2 SWAP1 PUSH2 0x84F JUMP JUMPDEST PUSH2 0x2AE JUMP JUMPDEST STOP JUMPDEST CALLVALUE DUP1 ISZERO PUSH2 0xD8 JUMPI PUSH0 DUP1 REVERT JUMPDEST POP PUSH2 0xE1 PUSH2 0x38B JUMP JUMPDEST PUSH1 0x40 MLOAD PUSH2 0xEE SWAP2 SWAP1 PUSH2 0x892 JUMP JUMPDEST PUSH1 0x40 MLOAD DUP1 SWAP2 SUB SWAP1 RETURN JUMPDEST CALLVALUE DUP1 ISZERO PUSH2 0x102 JUMPI PUSH0 DUP1 REVERT JUMPDEST POP PUSH2 0x10B PUSH2 0x3E2 JUMP JUMPDEST PUSH1 0x40 MLOAD PUSH2 0x119 SWAP3 SWAP2 SWAP1 PUSH2 0x8C5 JUMP JUMPDEST PUSH1 0x40 MLOAD DUP1 SWAP2 SUB SWAP1 RETURN JUMPDEST CALLVALUE DUP1 ISZERO PUSH2 0x12D JUMPI PUSH0 DUP1 REVERT JUMPDEST POP PUSH2 0x148 PUSH1 0x4 DUP1 CALLDATASIZE SUB DUP2 ADD SWAP1 PUSH2 0x143 SWAP2 SWAP1 PUSH2 0x927 JUMP JUMPDEST PUSH2 0x3FF JUMP JUMPDEST STOP JUMPDEST CALLVALUE DUP1 ISZERO PUSH2 0x155 JUMPI PUSH0 DUP1 REVERT JUMPDEST POP PUSH2 0x15E PUSH2 0x4D8 JUMP JUMPDEST PUSH1 0x40 MLOAD PUSH2 0x16B SWAP2 SWAP1 PUSH2 0x961 JUMP JUMPDEST PUSH1 0x40 MLOAD DUP1 SWAP2 SUB SWAP1 RETURN JUMPDEST PUSH2 0x17C PUSH2 0x4FD JUMP JUMPDEST STOP JUMPDEST CALLVALUE DUP1 ISZERO PUSH2 0x189 JUMPI PUSH0 DUP1 REVERT JUMPDEST POP PUSH2 0x192 PUSH2 0x5D2 JUMP JUMPDEST PUSH1 0x40 MLOAD PUSH2 0x19F SWAP2 SWAP1 PUSH2 0x892 JUMP JUMPDEST PUSH1 0x40 MLOAD DUP1 SWAP2 SUB SWAP1 RETURN JUMPDEST CALLVALUE DUP1 ISZERO PUSH2 0x1B3 JUMPI PUSH0 DUP1 REVERT JUMPDEST POP PUSH2 0x1BC PUSH2 0x5D8 JUMP JUMPDEST PUSH1 0x40 MLOAD PUSH2 0x1C9 SWAP2 SWAP1 PUSH2 0x9D5 JUMP JUMPDEST PUSH1 0x40 MLOAD DUP1 SWAP2 SUB SWAP1 RETURN JUMPDEST PUSH2 0x1FF CALLER PUSH0 CALLDATALOAD PUSH32 0xFFFFFFFF00000000000000000000000000000000000000000000000000000000 AND PUSH2 0x5FB JUMP JUMPDEST PUSH2 0x207 JUMPI PUSH0 DUP1 REVERT JUMPDEST DUP1 PUSH1 0x1 PUSH0 PUSH2 0x100 EXP DUP2 SLOAD DUP2 PUSH20 0xFFFFFFFFFFFFFFFFFFFFFFFFFFFFFFFFFFFFFFFF MUL NOT AND SWAP1 DUP4 PUSH20 0xFFFFFFFFFFFFFFFFFFFFFFFFFFFFFFFFFFFFFFFF AND MUL OR SWAP1 SSTORE POP PUSH1 0x1 PUSH0 SWAP1 SLOAD SWAP1 PUSH2 0x100 EXP SWAP1 DIV PUSH20 0xFFFFFFFFFFFFFFFFFFFFFFFFFFFFFFFFFFFFFFFF AND PUSH20 0xFFFFFFFFFFFFFFFFFFFFFFFFFFFFFFFFFFFFFFFF AND PUSH32 0xCE241D7CA1F669FEE44B6FC00B8EBA2DF3BB514EED0F6F668F8F89096E81ED94 PUSH1 0x40 MLOAD PUSH1 0x40 MLOAD DUP1 SWAP2 SUB SWAP1 LOG2 POP JUMP JUMPDEST PUSH0 DUP1 PUSH1 0x4 CALLDATALOAD SWAP2 POP PUSH1 0x24 CALLDATALOAD SWAP1 POP DUP1 DUP3 CALLER PUSH20 0xFFFFFFFFFFFFFFFFFFFFFFFFFFFFFFFFFFFFFFFF AND PUSH0 CALLDATALOAD PUSH32 0xFFFFFFFF00000000000000000000000000000000000000000000000000000000 AND PUSH28 0xFFFFFFFFFFFFFFFFFFFFFFFFFFFFFFFFFFFFFFFFFFFFFFFFFFFFFFFF NOT AND CALLVALUE PUSH0 CALLDATASIZE PUSH1 0x40 MLOAD PUSH2 0x328 SWAP4 SWAP3 SWAP2 SWAP1 PUSH2 0xA48 JUMP JUMPDEST PUSH1 0x40 MLOAD DUP1 SWAP2 SUB SWAP1 LOG4 PUSH2 0x35D CALLER PUSH0 CALLDATALOAD PUSH32 0xFFFFFFFF00000000000000000000000000000000000000000000000000000000 AND PUSH2 0x5FB JUMP JUMPDEST PUSH2 0x365 JUMPI PUSH0 DUP1 REVERT JUMPDEST DUP3 PUSH1 0x2 DUP2 SWAP1 SSTORE POP PUSH1 0x1 DUP1 PUSH1 0x14 PUSH2 0x100 EXP DUP2 SLOAD DUP2 PUSH1 0xFF MUL NOT AND SWAP1 DUP4 ISZERO ISZERO MUL OR SWAP1 SSTORE POP POP POP POP JUMP JUMPDEST PUSH0 DUP1 PUSH0 PUSH2 0x396 PUSH2 0x3E2 JUMP JUMPDEST SWAP2 POP SWAP2 POP DUP1 PUSH2 0x3DA JUMPI PUSH1 0x40 MLOAD PUSH32 0x8C379A000000000000000000000000000000000000000000000000000000000 DUP2 MSTORE PUSH1 0x4 ADD PUSH2 0x3D1 SWAP1 PUSH2 0xAD2 JUMP JUMPDEST PUSH1 0x40 MLOAD DUP1 SWAP2 SUB SWAP1 REVERT JUMPDEST DUP2 SWAP3 POP POP POP SWAP1 JUMP JUMPDEST PUSH0 DUP1 PUSH1 0x3 SLOAD PUSH1 0x1 PUSH1 0x14 SWAP1 SLOAD SWAP1 PUSH2 0x100 EXP SWAP1 DIV PUSH1 0xFF AND SWAP2 POP SWAP2 POP SWAP1 SWAP2 JUMP JUMPDEST PUSH2 0x42C CALLER PUSH0 CALLDATALOAD PUSH32 0xFFFFFFFF00000000000000000000000000000000000000000000000000000000 AND PUSH2 0x5FB JUMP JUMPDEST PUSH2 0x434 JUMPI PUSH0 DUP1 REVERT JUMPDEST DUP1 PUSH0 DUP1 PUSH2 0x100 EXP DUP2 SLOAD DUP2 PUSH20 0xFFFFFFFFFFFFFFFFFFFFFFFFFFFFFFFFFFFFFFFF MUL NOT AND SWAP1 DUP4 PUSH20 0xFFFFFFFFFFFFFFFFFFFFFFFFFFFFFFFFFFFFFFFF AND MUL OR SWAP1 SSTORE POP PUSH0 DUP1 SLOAD SWAP1 PUSH2 0x100 EXP SWAP1 DIV PUSH20 0xFFFFFFFFFFFFFFFFFFFFFFFFFFFFFFFFFFFFFFFF AND PUSH20 0xFFFFFFFFFFFFFFFFFFFFFFFFFFFFFFFFFFFFFFFF AND PUSH32 0x1ABEBEA81BFA2637F28358C371278FB15EDE7EA8DD28D2E03B112FF6D936ADA4 PUSH1 0x40 MLOAD PUSH1 0x40 MLOAD DUP1 SWAP2 SUB SWAP1 LOG2 POP JUMP JUMPDEST PUSH1 0x1 PUSH0 SWAP1 SLOAD SWAP1 PUSH2 0x100 EXP SWAP1 DIV PUSH20 0xFFFFFFFFFFFFFFFFFFFFFFFFFFFFFFFFFFFFFFFF AND DUP2 JUMP JUMPDEST PUSH0 DUP1 PUSH1 0x4 CALLDATALOAD SWAP2 POP PUSH1 0x24 CALLDATALOAD SWAP1 POP DUP1 DUP3 CALLER PUSH20 0xFFFFFFFFFFFFFFFFFFFFFFFFFFFFFFFFFFFFFFFF AND PUSH0 CALLDATALOAD PUSH32 0xFFFFFFFF00000000000000000000000000000000000000000000000000000000 AND PUSH28 0xFFFFFFFFFFFFFFFFFFFFFFFFFFFFFFFFFFFFFFFFFFFFFFFFFFFFFFFF NOT AND CALLVALUE PUSH0 CALLDATASIZE PUSH1 0x40 MLOAD PUSH2 0x577 SWAP4 SWAP3 SWAP2 SWAP1 PUSH2 0xA48 JUMP JUMPDEST PUSH1 0x40 MLOAD DUP1 SWAP2 SUB SWAP1 LOG4 PUSH2 0x5AC CALLER PUSH0 CALLDATALOAD PUSH32 0xFFFFFFFF00000000000000000000000000000000000000000000000000000000 AND PUSH2 0x5FB JUMP JUMPDEST PUSH2 0x5B4 JUMPI PUSH0 DUP1 REVERT JUMPDEST PUSH0 PUSH1 0x1 PUSH1 0x14 PUSH2 0x100 EXP DUP2 SLOAD DUP2 PUSH1 0xFF MUL NOT AND SWAP1 DUP4 ISZERO ISZERO MUL OR SWAP1 SSTORE POP POP POP JUMP JUMPDEST PUSH1 0x3 SLOAD DUP2 JUMP JUMPDEST PUSH0 DUP1 SLOAD SWAP1 PUSH2 0x100 EXP SWAP1 DIV PUSH20 0xFFFFFFFFFFFFFFFFFFFFFFFFFFFFFFFFFFFFFFFF AND DUP2 JUMP JUMPDEST PUSH0 ADDRESS PUSH20 0xFFFFFFFFFFFFFFFFFFFFFFFFFFFFFFFFFFFFFFFF AND DUP4 PUSH20 0xFFFFFFFFFFFFFFFFFFFFFFFFFFFFFFFFFFFFFFFF AND SUB PUSH2 0x638 JUMPI PUSH1 0x1 SWAP1 POP PUSH2 0x78D JUMP JUMPDEST PUSH1 0x1 PUSH0 SWAP1 SLOAD SWAP1 PUSH2 0x100 EXP SWAP1 DIV PUSH20 0xFFFFFFFFFFFFFFFFFFFFFFFFFFFFFFFFFFFFFFFF AND PUSH20 0xFFFFFFFFFFFFFFFFFFFFFFFFFFFFFFFFFFFFFFFF AND DUP4 PUSH20 0xFFFFFFFFFFFFFFFFFFFFFFFFFFFFFFFFFFFFFFFF AND SUB PUSH2 0x695 JUMPI PUSH1 0x1 SWAP1 POP PUSH2 0x78D JUMP JUMPDEST PUSH0 PUSH20 0xFFFFFFFFFFFFFFFFFFFFFFFFFFFFFFFFFFFFFFFF AND PUSH0 DUP1 SLOAD SWAP1 PUSH2 0x100 EXP SWAP1 DIV PUSH20 0xFFFFFFFFFFFFFFFFFFFFFFFFFFFFFFFFFFFFFFFF AND PUSH20 0xFFFFFFFFFFFFFFFFFFFFFFFFFFFFFFFFFFFFFFFF AND SUB PUSH2 0x6EF JUMPI PUSH0 SWAP1 POP PUSH2 0x78D JUMP JUMPDEST PUSH0 DUP1 SLOAD SWAP1 PUSH2 0x100 EXP SWAP1 DIV PUSH20 0xFFFFFFFFFFFFFFFFFFFFFFFFFFFFFFFFFFFFFFFF AND PUSH20 0xFFFFFFFFFFFFFFFFFFFFFFFFFFFFFFFFFFFFFFFF AND PUSH4 0xB7009613 DUP5 ADDRESS DUP6 PUSH1 0x40 MLOAD DUP5 PUSH4 0xFFFFFFFF AND PUSH1 0xE0 SHL DUP2 MSTORE PUSH1 0x4 ADD PUSH2 0x74B SWAP4 SWAP3 SWAP2 SWAP1 PUSH2 0xB2A JUMP JUMPDEST PUSH1 0x20 PUSH1 0x40 MLOAD DUP1 DUP4 SUB DUP2 DUP7 GAS STATICCALL ISZERO DUP1 ISZERO PUSH2 0x766 JUMPI RETURNDATASIZE PUSH0 DUP1 RETURNDATACOPY RETURNDATASIZE PUSH0 REVERT JUMPDEST POP POP POP POP PUSH1 0x40 MLOAD RETURNDATASIZE PUSH1 0x1F NOT PUSH1 0x1F DUP3 ADD AND DUP3 ADD DUP1 PUSH1 0x40 MSTORE POP DUP2 ADD SWAP1 PUSH2 0x78A SWAP2 SWAP1 PUSH2 0xB89 JUMP JUMPDEST SWAP1 POP JUMPDEST SWAP3 SWAP2 POP POP JUMP JUMPDEST PUSH0 DUP1 REVERT JUMPDEST PUSH0 PUSH20 0xFFFFFFFFFFFFFFFFFFFFFFFFFFFFFFFFFFFFFFFF DUP3 AND SWAP1 POP SWAP2 SWAP1 POP JUMP JUMPDEST PUSH0 PUSH2 0x7C0 DUP3 PUSH2 0x797 JUMP JUMPDEST SWAP1 POP SWAP2 SWAP1 POP JUMP JUMPDEST PUSH2 0x7D0 DUP2 PUSH2 0x7B6 JUMP JUMPDEST DUP2 EQ PUSH2 0x7DA JUMPI PUSH0 DUP1 REVERT JUMPDEST POP JUMP JUMPDEST PUSH0 DUP2 CALLDATALOAD SWAP1 POP PUSH2 0x7EB DUP2 PUSH2 0x7C7 JUMP JUMPDEST SWAP3 SWAP2 POP POP JUMP JUMPDEST PUSH0 PUSH1 0x20 DUP3 DUP5 SUB SLT ISZERO PUSH2 0x806 JUMPI PUSH2 0x805 PUSH2 0x793 JUMP JUMPDEST JUMPDEST PUSH0 PUSH2 0x813 DUP5 DUP3 DUP6 ADD PUSH2 0x7DD JUMP JUMPDEST SWAP2 POP POP SWAP3 SWAP2 POP POP JUMP JUMPDEST PUSH0 DUP2 SWAP1 POP SWAP2 SWAP1 POP JUMP JUMPDEST PUSH2 0x82E DUP2 PUSH2 0x81C JUMP JUMPDEST DUP2 EQ PUSH2 0x838 JUMPI PUSH0 DUP1 REVERT JUMPDEST POP JUMP JUMPDEST PUSH0 DUP2 CALLDATALOAD SWAP1 POP PUSH2 0x849 DUP2 PUSH2 0x825 JUMP JUMPDEST SWAP3 SWAP2 POP POP JUMP JUMPDEST PUSH0 PUSH1 0x20 DUP3 DUP5 SUB SLT ISZERO PUSH2 0x864 JUMPI PUSH2 0x863 PUSH2 0x793 JUMP JUMPDEST JUMPDEST PUSH0 PUSH2 0x871 DUP5 DUP3 DUP6 ADD PUSH2 0x83B JUMP JUMPDEST SWAP2 POP POP SWAP3 SWAP2 POP POP JUMP JUMPDEST PUSH0 DUP2 SWAP1 POP SWAP2 SWAP1 POP JUMP JUMPDEST PUSH2 0x88C DUP2 PUSH2 0x87A JUMP JUMPDEST DUP3 MSTORE POP POP JUMP JUMPDEST PUSH0 PUSH1 0x20 DUP3 ADD SWAP1 POP PUSH2 0x8A5 PUSH0 DUP4 ADD DUP5 PUSH2 0x883 JUMP JUMPDEST SWAP3 SWAP2 POP POP JUMP JUMPDEST PUSH0 DUP2 ISZERO ISZERO SWAP1 POP SWAP2 SWAP1 POP JUMP JUMPDEST PUSH2 0x8BF DUP2 PUSH2 0x8AB JUMP JUMPDEST DUP3 MSTORE POP POP JUMP JUMPDEST PUSH0 PUSH1 0x40 DUP3 ADD SWAP1 POP PUSH2 0x8D8 PUSH0 DUP4 ADD DUP6 PUSH2 0x883 JUMP JUMPDEST PUSH2 0x8E5 PUSH1 0x20 DUP4 ADD DUP5 PUSH2 0x8B6 JUMP JUMPDEST SWAP4 SWAP3 POP POP POP JUMP JUMPDEST PUSH0 PUSH2 0x8F6 DUP3 PUSH2 0x7B6 JUMP JUMPDEST SWAP1 POP SWAP2 SWAP1 POP JUMP JUMPDEST PUSH2 0x906 DUP2 PUSH2 0x8EC JUMP JUMPDEST DUP2 EQ PUSH2 0x910 JUMPI PUSH0 DUP1 REVERT JUMPDEST POP JUMP JUMPDEST PUSH0 DUP2 CALLDATALOAD SWAP1 POP PUSH2 0x921 DUP2 PUSH2 0x8FD JUMP JUMPDEST SWAP3 SWAP2 POP POP JUMP JUMPDEST PUSH0 PUSH1 0x20 DUP3 DUP5 SUB SLT ISZERO PUSH2 0x93C JUMPI PUSH2 0x93B PUSH2 0x793 JUMP JUMPDEST JUMPDEST PUSH0 PUSH2 0x949 DUP5 DUP3 DUP6 ADD PUSH2 0x913 JUMP JUMPDEST SWAP2 POP POP SWAP3 SWAP2 POP POP JUMP JUMPDEST PUSH2 0x95B DUP2 PUSH2 0x7B6 JUMP JUMPDEST DUP3 MSTORE POP POP JUMP JUMPDEST PUSH0 PUSH1 0x20 DUP3 ADD SWAP1 POP PUSH2 0x974 PUSH0 DUP4 ADD DUP5 PUSH2 0x952 JUMP JUMPDEST SWAP3 SWAP2 POP POP JUMP JUMPDEST PUSH0 DUP2 SWAP1 POP SWAP2 SWAP1 POP JUMP JUMPDEST PUSH0 PUSH2 0x99D PUSH2 0x998 PUSH2 0x993 DUP5 PUSH2 0x797 JUMP JUMPDEST PUSH2 0x97A JUMP JUMPDEST PUSH2 0x797 JUMP JUMPDEST SWAP1 POP SWAP2 SWAP1 POP JUMP JUMPDEST PUSH0 PUSH2 0x9AE DUP3 PUSH2 0x983 JUMP JUMPDEST SWAP1 POP SWAP2 SWAP1 POP JUMP JUMPDEST PUSH0 PUSH2 0x9BF DUP3 PUSH2 0x9A4 JUMP JUMPDEST SWAP1 POP SWAP2 SWAP1 POP JUMP JUMPDEST PUSH2 0x9CF DUP2 PUSH2 0x9B5 JUMP JUMPDEST DUP3 MSTORE POP POP JUMP JUMPDEST PUSH0 PUSH1 0x20 DUP3 ADD SWAP1 POP PUSH2 0x9E8 PUSH0 DUP4 ADD DUP5 PUSH2 0x9C6 JUMP JUMPDEST SWAP3 SWAP2 POP POP JUMP JUMPDEST PUSH0 DUP3 DUP3 MSTORE PUSH1 0x20 DUP3 ADD SWAP1 POP SWAP3 SWAP2 POP POP JUMP JUMPDEST DUP3 DUP2 DUP4 CALLDATACOPY PUSH0 DUP4 DUP4 ADD MSTORE POP POP POP JUMP JUMPDEST PUSH0 PUSH1 0x1F NOT PUSH1 0x1F DUP4 ADD AND SWAP1 POP SWAP2 SWAP1 POP JUMP JUMPDEST PUSH0 PUSH2 0xA27 DUP4 DUP6 PUSH2 0x9EE JUMP JUMPDEST SWAP4 POP PUSH2 0xA34 DUP4 DUP6 DUP5 PUSH2 0x9FE JUMP JUMPDEST PUSH2 0xA3D DUP4 PUSH2 0xA0C JUMP JUMPDEST DUP5 ADD SWAP1 POP SWAP4 SWAP3 POP POP POP JUMP JUMPDEST PUSH0 PUSH1 0x40 DUP3 ADD SWAP1 POP PUSH2 0xA5B PUSH0 DUP4 ADD DUP7 PUSH2 0x883 JUMP JUMPDEST DUP2 DUP2 SUB PUSH1 0x20 DUP4 ADD MSTORE PUSH2 0xA6E DUP2 DUP5 DUP7 PUSH2 0xA1C JUMP JUMPDEST SWAP1 POP SWAP5 SWAP4 POP POP POP POP JUMP JUMPDEST PUSH0 DUP3 DUP3 MSTORE PUSH1 0x20 DUP3 ADD SWAP1 POP SWAP3 SWAP2 POP POP JUMP JUMPDEST PUSH32 0x445356616C75653A206861734C6F63616C2069732066616C7365000000000000 PUSH0 DUP3 ADD MSTORE POP JUMP JUMPDEST PUSH0 PUSH2 0xABC PUSH1 0x1A DUP4 PUSH2 0xA78 JUMP JUMPDEST SWAP2 POP PUSH2 0xAC7 DUP3 PUSH2 0xA88 JUMP JUMPDEST PUSH1 0x20 DUP3 ADD SWAP1 POP SWAP2 SWAP1 POP JUMP JUMPDEST PUSH0 PUSH1 0x20 DUP3 ADD SWAP1 POP DUP2 DUP2 SUB PUSH0 DUP4 ADD MSTORE PUSH2 0xAE9 DUP2 PUSH2 0xAB0 JUMP JUMPDEST SWAP1 POP SWAP2 SWAP1 POP JUMP JUMPDEST PUSH0 PUSH32 0xFFFFFFFF00000000000000000000000000000000000000000000000000000000 DUP3 AND SWAP1 POP SWAP2 SWAP1 POP JUMP JUMPDEST PUSH2 0xB24 DUP2 PUSH2 0xAF0 JUMP JUMPDEST DUP3 MSTORE POP POP JUMP JUMPDEST PUSH0 PUSH1 0x60 DUP3 ADD SWAP1 POP PUSH2 0xB3D PUSH0 DUP4 ADD DUP7 PUSH2 0x952 JUMP JUMPDEST PUSH2 0xB4A PUSH1 0x20 DUP4 ADD DUP6 PUSH2 0x952 JUMP JUMPDEST PUSH2 0xB57 PUSH1 0x40 DUP4 ADD DUP5 PUSH2 0xB1B JUMP JUMPDEST SWAP5 SWAP4 POP POP POP POP JUMP JUMPDEST PUSH2 0xB68 DUP2 PUSH2 0x8AB JUMP JUMPDEST DUP2 EQ PUSH2 0xB72 JUMPI PUSH0 DUP1 REVERT JUMPDEST POP JUMP JUMPDEST PUSH0 DUP2 MLOAD SWAP1 POP PUSH2 0xB83 DUP2 PUSH2 0xB5F JUMP JUMPDEST SWAP3 SWAP2 POP POP JUMP JUMPDEST PUSH0 PUSH1 0x20 DUP3 DUP5 SUB SLT ISZERO PUSH2 0xB9E JUMPI PUSH2 0xB9D PUSH2 0x793 JUMP JUMPDEST JUMPDEST PUSH0 PUSH2 0xBAB DUP5 DUP3 DUP6 ADD PUSH2 0xB75 JUMP JUMPDEST SWAP2 POP POP SWAP3 SWAP2 POP POP JUMP INVALID LOG2 PUSH5 0x6970667358 0x22 SLT KECCAK256 0x29 0xE6 0xEA 0xBC TIMESTAMP 0x5D SWAP5 DUP15 CREATE2 0xC4 0xDB CALLDATACOPY 0x5D PUSH18 0x873B807B608600634E80DE4110811910CB9A PUSH5 0x736F6C6343 STOP ADDMOD EQ STOP CALLER "
				},
				"gasEstimates": {
					"creation": {
						"codeDepositCost": "610000",
						"executionCost": "26068",
						"totalCost": "636068"
					},
					"external": {
						"authority()": "infinite",
						"owner()": "2530",
						"peek()": "4804",
						"poke(bytes32)": "infinite",
						"read()": "4843",
						"setAuthority(address)": "infinite",
						"setOwner(address)": "infinite",
						"void()": "infinite",
						"wut()": "2491"
					}
				},
				"methodIdentifiers": {
					"authority()": "bf7e214f",
					"owner()": "8da5cb5b",
					"peek()": "59e02dd7",
					"poke(bytes32)": "1504460f",
					"read()": "57de26a4",
					"setAuthority(address)": "7a9e5e4b",
					"setOwner(address)": "13af4035",
					"void()": "ac4c25b2",
					"wut()": "aff72e31"
				}
			},
			"storageLayout": {
				"storage": [
					{
						"astId": 27,
						"contract": "ds-value/value.sol:DSValue",
						"label": "authority",
						"offset": 0,
						"slot": "0",
						"type": "t_contract(DSAuthority)13"
					},
					{
						"astId": 29,
						"contract": "ds-value/value.sol:DSValue",
						"label": "owner",
						"offset": 0,
						"slot": "1",
						"type": "t_address"
					},
					{
						"astId": 526,
						"contract": "ds-value/value.sol:DSValue",
						"label": "has",
						"offset": 20,
						"slot": "1",
						"type": "t_bool"
					},
					{
						"astId": 528,
						"contract": "ds-value/value.sol:DSValue",
						"label": "val",
						"offset": 0,
						"slot": "2",
						"type": "t_bytes32"
					},
					{
						"astId": 530,
						"contract": "ds-value/value.sol:DSValue",
						"label": "wut",
						"offset": 0,
						"slot": "3",
						"type": "t_uint256"
					}
				],
				"types": {
					"t_address": {
						"encoding": "inplace",
						"label": "address",
						"numberOfBytes": "20"
					},
					"t_bool": {
						"encoding": "inplace",
						"label": "bool",
						"numberOfBytes": "1"
					},
					"t_bytes32": {
						"encoding": "inplace",
						"label": "bytes32",
						"numberOfBytes": "32"
					},
					"t_contract(DSAuthority)13": {
						"encoding": "inplace",
						"label": "contract DSAuthority",
						"numberOfBytes": "20"
					},
					"t_uint256": {
						"encoding": "inplace",
						"label": "uint256",
						"numberOfBytes": "32"
					}
				}
			},
			"userdoc": {
				"kind": "user",
				"methods": {},
				"version": 1
			}
		}
	}
}