{
	"ds-guard/guard.sol": {
		"DSGuardFactory": {
			"abi": [
				{
					"inputs": [
						{
							"internalType": "address",
							"name": "",
							"type": "address"
						}
					],
					"name": "isGuard",
					"outputs": [
						{
							"internalType": "bool",
							"name": "",
							"type": "bool"
						}
					],
					"stateMutability": "view",
					"type": "function"
				},
				{
					"inputs": [],
					"name": "newGuard",
					"outputs": [
						{
							"internalType": "contract DSGuard",
							"name": "guard",
							"type": "address"
						}
					],
					"stateMutability": "nonpayable",
					"type": "function"
				}
			],
			"devdoc": {
				"kind": "dev",
				"methods": {},
				"version": 1
			},
			"evm": {
				"assembly": "    /* \"ds-guard/guard.sol\":2325:2571  contract DSGuardFactory {... */\n  mstore(0x40, 0x80)\n  callvalue\n  dup1\n  iszero\n  tag_1\n  jumpi\n  0x00\n  dup1\n  revert\ntag_1:\n  pop\n  dataSize(sub_0)\n  dup1\n  dataOffset(sub_0)\n  0x00\n  codecopy\n  0x00\n  return\nstop\n\nsub_0: assembly {\n        /* \"ds-guard/guard.sol\":2325:2571  contract DSGuardFactory {... */\n      mstore(0x40, 0x80)\n      callvalue\n      dup1\n      iszero\n      tag_1\n      jumpi\n      0x00\n      dup1\n      revert\n    tag_1:\n      pop\n      jumpi(tag_2, lt(calldatasize, 0x04))\n      shr(0xe0, calldataload(0x00))\n      dup1\n      0x489c1202\n      eq\n      tag_3\n      jumpi\n      dup1\n      0x65688cc9\n      eq\n      tag_4\n      jumpi\n    tag_2:\n      0x00\n      dup1\n      revert\n        /* \"ds-guard/guard.sol\":2355:2397  mapping (address => bool)  public  isGuard */\n    tag_3:\n      tag_5\n      tag_6\n      calldatasize\n      0x04\n      tag_7\n      jump\t// in\n    tag_6:\n      0x00\n      0x20\n      dup2\n      swap1\n      mstore\n      swap1\n      dup2\n      mstore\n      0x40\n      swap1\n      keccak256\n      sload\n      0xff\n      and\n      dup2\n      jump\n    tag_5:\n      mload(0x40)\n        /* \"#utility.yul\":470:484   */\n      swap1\n      iszero\n        /* \"#utility.yul\":463:485   */\n      iszero\n        /* \"#utility.yul\":445:486   */\n      dup2\n      mstore\n        /* \"#utility.yul\":433:435   */\n      0x20\n        /* \"#utility.yul\":418:436   */\n      add\n        /* \"ds-guard/guard.sol\":2355:2397  mapping (address => bool)  public  isGuard */\n    tag_9:\n      mload(0x40)\n      dup1\n      swap2\n      sub\n      swap1\n      return\n        /* \"ds-guard/guard.sol\":2404:2569  function newGuard() public returns (DSGuard guard) {... */\n    tag_4:\n      tag_11\n      tag_12\n      jump\t// in\n    tag_11:\n      mload(0x40)\n      sub(shl(0xa0, 0x01), 0x01)\n        /* \"#utility.yul\":676:708   */\n      swap1\n      swap2\n      and\n        /* \"#utility.yul\":658:709   */\n      dup2\n      mstore\n        /* \"#utility.yul\":646:648   */\n      0x20\n        /* \"#utility.yul\":631:649   */\n      add\n        /* \"ds-guard/guard.sol\":2404:2569  function newGuard() public returns (DSGuard guard) {... */\n      tag_9\n        /* \"#utility.yul\":497:715   */\n      jump\n        /* \"ds-guard/guard.sol\":2404:2569  function newGuard() public returns (DSGuard guard) {... */\n    tag_12:\n        /* \"ds-guard/guard.sol\":2440:2453  DSGuard guard */\n      0x00\n        /* \"ds-guard/guard.sol\":2473:2486  new DSGuard() */\n      mload(0x40)\n      tag_16\n      swap1\n      tag_17\n      jump\t// in\n    tag_16:\n      mload(0x40)\n      dup1\n      swap2\n      sub\n      swap1\n      0x00\n      create\n      dup1\n      iszero\n      dup1\n      iszero\n      tag_18\n      jumpi\n      returndatasize\n      0x00\n      dup1\n      returndatacopy\n      revert(0x00, returndatasize)\n    tag_18:\n      pop\n        /* \"ds-guard/guard.sol\":2496:2522  guard.setOwner(msg.sender) */\n      mload(0x40)\n      shl(0xe0, 0x13af4035)\n      dup2\n      mstore\n        /* \"ds-guard/guard.sol\":2511:2521  msg.sender */\n      caller\n        /* \"ds-guard/guard.sol\":2496:2522  guard.setOwner(msg.sender) */\n      0x04\n      dup3\n      add\n        /* \"#utility.yul\":658:709   */\n      mstore\n        /* \"ds-guard/guard.sol\":2465:2486  guard = new DSGuard() */\n      swap1\n      swap2\n      pop\n      sub(shl(0xa0, 0x01), 0x01)\n        /* \"ds-guard/guard.sol\":2496:2510  guard.setOwner */\n      dup3\n      and\n      swap1\n      0x13af4035\n      swap1\n        /* \"#utility.yul\":631:649   */\n      0x24\n      add\n        /* \"ds-guard/guard.sol\":2496:2522  guard.setOwner(msg.sender) */\n      0x00\n      mload(0x40)\n      dup1\n      dup4\n      sub\n      dup2\n      0x00\n      dup8\n      dup1\n      extcodesize\n      iszero\n      dup1\n      iszero\n      tag_21\n      jumpi\n      0x00\n      dup1\n      revert\n    tag_21:\n      pop\n      gas\n      call\n      iszero\n      dup1\n      iszero\n      tag_23\n      jumpi\n      returndatasize\n      0x00\n      dup1\n      returndatacopy\n      revert(0x00, returndatasize)\n    tag_23:\n      pop\n      pop\n      pop\n      sub(shl(0xa0, 0x01), 0x01)\n        /* \"ds-guard/guard.sol\":2532:2555  isGuard[address(guard)] */\n      dup3\n      and\n        /* \"ds-guard/guard.sol\":2532:2539  isGuard */\n      0x00\n        /* \"ds-guard/guard.sol\":2532:2555  isGuard[address(guard)] */\n      swap1\n      dup2\n      mstore\n      0x20\n      dup2\n      swap1\n      mstore\n      0x40\n      swap1\n      keccak256\n        /* \"ds-guard/guard.sol\":2532:2562  isGuard[address(guard)] = true */\n      dup1\n      sload\n      not(0xff)\n      and\n        /* \"ds-guard/guard.sol\":2558:2562  true */\n      0x01\n        /* \"ds-guard/guard.sol\":2532:2562  isGuard[address(guard)] = true */\n      or\n      swap1\n      sstore\n      pop\n        /* \"ds-guard/guard.sol\":2548:2553  guard */\n      swap1\n        /* \"ds-guard/guard.sol\":2404:2569  function newGuard() public returns (DSGuard guard) {... */\n      jump\t// out\n    tag_17:\n      dataSize(sub_0)\n      dup1\n      dataOffset(sub_0)\n      dup4\n      codecopy\n      add\n      swap1\n      jump\t// out\n        /* \"#utility.yul\":14:300   */\n    tag_7:\n        /* \"#utility.yul\":73:79   */\n      0x00\n        /* \"#utility.yul\":126:128   */\n      0x20\n        /* \"#utility.yul\":114:123   */\n      dup3\n        /* \"#utility.yul\":105:112   */\n      dup5\n        /* \"#utility.yul\":101:124   */\n      sub\n        /* \"#utility.yul\":97:129   */\n      slt\n        /* \"#utility.yul\":94:146   */\n      iszero\n      tag_26\n      jumpi\n        /* \"#utility.yul\":142:143   */\n      0x00\n        /* \"#utility.yul\":139:140   */\n      dup1\n        /* \"#utility.yul\":132:144   */\n      revert\n        /* \"#utility.yul\":94:146   */\n    tag_26:\n        /* \"#utility.yul\":168:191   */\n      dup2\n      calldataload\n      sub(shl(0xa0, 0x01), 0x01)\n        /* \"#utility.yul\":220:251   */\n      dup2\n      and\n        /* \"#utility.yul\":210:252   */\n      dup2\n      eq\n        /* \"#utility.yul\":200:270   */\n      tag_27\n      jumpi\n        /* \"#utility.yul\":266:267   */\n      0x00\n        /* \"#utility.yul\":263:264   */\n      dup1\n        /* \"#utility.yul\":256:268   */\n      revert\n        /* \"#utility.yul\":200:270   */\n    tag_27:\n        /* \"#utility.yul\":289:294   */\n      swap4\n        /* \"#utility.yul\":14:300   */\n      swap3\n      pop\n      pop\n      pop\n      jump\t// out\n    stop\n\n    sub_0: assembly {\n            /* \"ds-guard/guard.sol\":1055:2323  contract DSGuard is DSAuth, DSAuthority, DSGuardEvents {... */\n          mstore(0x40, 0x80)\n          callvalue\n          dup1\n          iszero\n          tag_1\n          jumpi\n          0x00\n          dup1\n          revert\n        tag_1:\n          pop\n            /* \"ds-auth/auth.sol\":1104:1109  owner */\n          0x01\n            /* \"ds-auth/auth.sol\":1104:1122  owner = msg.sender */\n          dup1\n          sload\n          not(sub(shl(0xa0, 0x01), 0x01))\n          and\n            /* \"ds-auth/auth.sol\":1112:1122  msg.sender */\n          caller\n            /* \"ds-auth/auth.sol\":1104:1122  owner = msg.sender */\n          swap1\n          dup2\n          or\n          swap1\n          swap2\n          sstore\n            /* \"ds-auth/auth.sol\":1137:1160  LogSetOwner(msg.sender) */\n          mload(0x40)\n          0xce241d7ca1f669fee44b6fc00b8eba2df3bb514eed0f6f668f8f89096e81ed94\n          swap1\n            /* \"ds-auth/auth.sol\":1104:1109  owner */\n          0x00\n          swap1\n            /* \"ds-auth/auth.sol\":1137:1160  LogSetOwner(msg.sender) */\n          log2\n            /* \"ds-guard/guard.sol\":1055:2323  contract DSGuard is DSAuth, DSAuthority, DSGuardEvents {... */\n          dataSize(sub_0)\n          dup1\n          dataOffset(sub_0)\n          0x00\n          codecopy\n          0x00\n          return\n        stop\n\n        sub_0: assembly {\n                /* \"ds-guard/guard.sol\":1055:2323  contract DSGuard is DSAuth, DSAuthority, DSGuardEvents {... */\n              mstore(0x40, 0x80)\n              callvalue\n              dup1\n              iszero\n              tag_1\n              jumpi\n              0x00\n              dup1\n              revert\n            tag_1:\n              pop\n              jumpi(tag_2, lt(calldatasize, 0x04))\n              shr(0xe0, calldataload(0x00))\n              dup1\n              0xa8542f66\n              gt\n              tag_13\n              jumpi\n              dup1\n              0xa8542f66\n              eq\n              tag_8\n              jumpi\n              dup1\n              0xb7009613\n              eq\n              tag_9\n              jumpi\n              dup1\n              0xbf7e214f\n              eq\n              tag_10\n              jumpi\n              dup1\n              0xcbeea68c\n              eq\n              tag_11\n              jumpi\n              dup1\n              0xf0217ce5\n              eq\n              tag_12\n              jumpi\n              0x00\n              dup1\n              revert\n            tag_13:\n              dup1\n              0x13af4035\n              eq\n              tag_3\n              jumpi\n              dup1\n              0x2bc3217d\n              eq\n              tag_4\n              jumpi\n              dup1\n              0x79d88d87\n              eq\n              tag_5\n              jumpi\n              dup1\n              0x7a9e5e4b\n              eq\n              tag_6\n              jumpi\n              dup1\n              0x8da5cb5b\n              eq\n              tag_7\n              jumpi\n            tag_2:\n              0x00\n              dup1\n              revert\n                /* \"ds-auth/auth.sol\":1173:1303  function setOwner(address owner_)... */\n            tag_3:\n              tag_14\n              tag_15\n              calldatasize\n              0x04\n              tag_16\n              jump\t// in\n            tag_15:\n              tag_17\n              jump\t// in\n            tag_14:\n              stop\n                /* \"ds-guard/guard.sol\":2184:2320  function forbid(address src, address dst, bytes32 sig) public {... */\n            tag_4:\n              tag_14\n              tag_19\n              calldatasize\n              0x04\n              tag_20\n              jump\t// in\n            tag_19:\n              tag_21\n              jump\t// in\n                /* \"ds-guard/guard.sol\":1888:2037  function forbid(bytes32 src, bytes32 dst, bytes32 sig) public auth {... */\n            tag_5:\n              tag_14\n              tag_23\n              calldatasize\n              0x04\n              tag_24\n              jump\t// in\n            tag_23:\n              tag_25\n              jump\t// in\n                /* \"ds-auth/auth.sol\":1309:1476  function setAuthority(DSAuthority authority_)... */\n            tag_6:\n              tag_14\n              tag_27\n              calldatasize\n              0x04\n              tag_16\n              jump\t// in\n            tag_27:\n              tag_29\n              jump\t// in\n                /* \"ds-auth/auth.sol\":1040:1066  address      public  owner */\n            tag_7:\n              sload(0x01)\n              tag_30\n              swap1\n              sub(shl(0xa0, 0x01), 0x01)\n              and\n              dup2\n              jump\n            tag_30:\n              mload(0x40)\n              sub(shl(0xa0, 0x01), 0x01)\n                /* \"#utility.yul\":1618:1650   */\n              swap1\n              swap2\n              and\n                /* \"#utility.yul\":1600:1651   */\n              dup2\n              mstore\n                /* \"#utility.yul\":1588:1590   */\n              0x20\n                /* \"#utility.yul\":1573:1591   */\n              add\n                /* \"ds-auth/auth.sol\":1040:1066  address      public  owner */\n            tag_32:\n              mload(0x40)\n              dup1\n              swap2\n              sub\n              swap1\n              return\n                /* \"ds-guard/guard.sol\":1116:1172  bytes32 constant public ANY = bytes32(type(uint256).max) */\n            tag_8:\n              tag_34\n              not(0x00)\n              dup2\n              jump\n            tag_34:\n              mload(0x40)\n                /* \"#utility.yul\":1808:1833   */\n              swap1\n              dup2\n              mstore\n                /* \"#utility.yul\":1796:1798   */\n              0x20\n                /* \"#utility.yul\":1781:1799   */\n              add\n                /* \"ds-guard/guard.sol\":1116:1172  bytes32 constant public ANY = bytes32(type(uint256).max) */\n              tag_32\n                /* \"#utility.yul\":1662:1839   */\n              jump\n                /* \"ds-guard/guard.sol\":1257:1728  function canCall(... */\n            tag_9:\n              tag_38\n              tag_39\n              calldatasize\n              0x04\n              tag_40\n              jump\t// in\n            tag_39:\n              tag_41\n              jump\t// in\n            tag_38:\n              mload(0x40)\n                /* \"#utility.yul\":2584:2598   */\n              swap1\n              iszero\n                /* \"#utility.yul\":2577:2599   */\n              iszero\n                /* \"#utility.yul\":2559:2600   */\n              dup2\n              mstore\n                /* \"#utility.yul\":2547:2549   */\n              0x20\n                /* \"#utility.yul\":2532:2550   */\n              add\n                /* \"ds-guard/guard.sol\":1257:1728  function canCall(... */\n              tag_32\n                /* \"#utility.yul\":2419:2606   */\n              jump\n                /* \"ds-auth/auth.sol\":1004:1034  DSAuthority  public  authority */\n            tag_10:\n              sload(0x00)\n              tag_30\n              swap1\n              sub(shl(0xa0, 0x01), 0x01)\n              and\n              dup2\n              jump\n                /* \"ds-guard/guard.sol\":2043:2179  function permit(address src, address dst, bytes32 sig) public {... */\n            tag_11:\n              tag_14\n              tag_49\n              calldatasize\n              0x04\n              tag_20\n              jump\t// in\n            tag_49:\n              tag_50\n              jump\t// in\n                /* \"ds-guard/guard.sol\":1734:1882  function permit(bytes32 src, bytes32 dst, bytes32 sig) public auth {... */\n            tag_12:\n              tag_14\n              tag_52\n              calldatasize\n              0x04\n              tag_24\n              jump\t// in\n            tag_52:\n              tag_53\n              jump\t// in\n                /* \"ds-auth/auth.sol\":1173:1303  function setOwner(address owner_)... */\n            tag_17:\n                /* \"ds-auth/auth.sol\":1514:1547  isAuthorized(msg.sender, msg.sig) */\n              tag_55\n                /* \"ds-auth/auth.sol\":1527:1537  msg.sender */\n              caller\n                /* \"ds-auth/auth.sol\":1539:1546  msg.sig */\n              and(not(sub(shl(0xe0, 0x01), 0x01)), calldataload(0x00))\n                /* \"ds-auth/auth.sol\":1514:1526  isAuthorized */\n              tag_56\n                /* \"ds-auth/auth.sol\":1514:1547  isAuthorized(msg.sender, msg.sig) */\n              jump\t// in\n            tag_55:\n                /* \"ds-auth/auth.sol\":1506:1572  require(isAuthorized(msg.sender, msg.sig), \"ds-auth-unauthorized\") */\n              tag_57\n              jumpi\n              mload(0x40)\n              shl(0xe5, 0x461bcd)\n              dup2\n              mstore\n              0x04\n              add\n              tag_58\n              swap1\n              tag_59\n              jump\t// in\n            tag_58:\n              mload(0x40)\n              dup1\n              swap2\n              sub\n              swap1\n              revert\n            tag_57:\n                /* \"ds-auth/auth.sol\":1249:1254  owner */\n              0x01\n                /* \"ds-auth/auth.sol\":1249:1263  owner = owner_ */\n              dup1\n              sload\n              not(sub(shl(0xa0, 0x01), 0x01))\n              and\n              sub(shl(0xa0, 0x01), 0x01)\n              dup4\n              and\n              swap1\n              dup2\n              or\n              swap1\n              swap2\n              sstore\n                /* \"ds-auth/auth.sol\":1278:1296  LogSetOwner(owner) */\n              mload(0x40)\n              0xce241d7ca1f669fee44b6fc00b8eba2df3bb514eed0f6f668f8f89096e81ed94\n              swap1\n              0x00\n              swap1\n              log2\n                /* \"ds-auth/auth.sol\":1173:1303  function setOwner(address owner_)... */\n              pop\n              jump\t// out\n                /* \"ds-guard/guard.sol\":2184:2320  function forbid(address src, address dst, bytes32 sig) public {... */\n            tag_21:\n                /* \"ds-guard/guard.sol\":2256:2313  forbid(bytes32(bytes20(src)), bytes32(bytes20(dst)), sig) */\n              tag_62\n                /* \"ds-guard/guard.sol\":2279:2282  src */\n              dup4\n                /* \"ds-guard/guard.sol\":2271:2283  bytes20(src) */\n              0x60\n              shl\n              sub(shl(0x60, 0x01), 0x01)\n                /* \"ds-guard/guard.sol\":2263:2284  bytes32(bytes20(src)) */\n              not\n              and\n                /* \"ds-guard/guard.sol\":2302:2305  dst */\n              dup4\n                /* \"ds-guard/guard.sol\":2294:2306  bytes20(dst) */\n              0x60\n              shl\n              sub(shl(0x60, 0x01), 0x01)\n                /* \"ds-guard/guard.sol\":2286:2307  bytes32(bytes20(dst)) */\n              not\n              and\n                /* \"ds-guard/guard.sol\":2309:2312  sig */\n              dup4\n                /* \"ds-guard/guard.sol\":2256:2262  forbid */\n              tag_25\n                /* \"ds-guard/guard.sol\":2256:2313  forbid(bytes32(bytes20(src)), bytes32(bytes20(dst)), sig) */\n              jump\t// in\n            tag_62:\n                /* \"ds-guard/guard.sol\":2184:2320  function forbid(address src, address dst, bytes32 sig) public {... */\n              pop\n              pop\n              pop\n              jump\t// out\n                /* \"ds-guard/guard.sol\":1888:2037  function forbid(bytes32 src, bytes32 dst, bytes32 sig) public auth {... */\n            tag_25:\n                /* \"ds-auth/auth.sol\":1514:1547  isAuthorized(msg.sender, msg.sig) */\n              tag_64\n                /* \"ds-auth/auth.sol\":1527:1537  msg.sender */\n              caller\n                /* \"ds-auth/auth.sol\":1539:1546  msg.sig */\n              and(not(sub(shl(0xe0, 0x01), 0x01)), calldataload(0x00))\n                /* \"ds-auth/auth.sol\":1514:1526  isAuthorized */\n              tag_56\n                /* \"ds-auth/auth.sol\":1514:1547  isAuthorized(msg.sender, msg.sig) */\n              jump\t// in\n            tag_64:\n                /* \"ds-auth/auth.sol\":1506:1572  require(isAuthorized(msg.sender, msg.sig), \"ds-auth-unauthorized\") */\n              tag_65\n              jumpi\n              mload(0x40)\n              shl(0xe5, 0x461bcd)\n              dup2\n              mstore\n              0x04\n              add\n              tag_58\n              swap1\n              tag_59\n              jump\t// in\n            tag_65:\n                /* \"ds-guard/guard.sol\":1986:1991  false */\n              0x00\n                /* \"ds-guard/guard.sol\":1965:1973  acl[src] */\n              dup4\n              dup2\n              mstore\n                /* \"ds-guard/guard.sol\":1965:1968  acl */\n              0x02\n                /* \"ds-guard/guard.sol\":1965:1973  acl[src] */\n              0x20\n              swap1\n              dup2\n              mstore\n              0x40\n              dup1\n              dup4\n              keccak256\n                /* \"ds-guard/guard.sol\":1965:1978  acl[src][dst] */\n              dup6\n              dup5\n              mstore\n              dup3\n              mstore\n              dup1\n              dup4\n              keccak256\n                /* \"ds-guard/guard.sol\":1965:1983  acl[src][dst][sig] */\n              dup5\n              dup5\n              mstore\n              swap1\n              swap2\n              mstore\n              dup1\n              dup3\n              keccak256\n                /* \"ds-guard/guard.sol\":1965:1991  acl[src][dst][sig] = false */\n              dup1\n              sload\n              not(0xff)\n              and\n              swap1\n              sstore\n                /* \"ds-guard/guard.sol\":2006:2030  LogForbid(src, dst, sig) */\n              mload\n                /* \"ds-guard/guard.sol\":1979:1982  sig */\n              dup3\n              swap2\n                /* \"ds-guard/guard.sol\":1974:1977  dst */\n              dup5\n              swap2\n                /* \"ds-guard/guard.sol\":1969:1972  src */\n              dup7\n              swap2\n                /* \"ds-guard/guard.sol\":2006:2030  LogForbid(src, dst, sig) */\n              0x95ba64c95d85e67ac83a0476c4a62ac2cf8ab2d0407545b8c9d79c3eefa62829\n              swap2\n              log4\n                /* \"ds-guard/guard.sol\":1888:2037  function forbid(bytes32 src, bytes32 dst, bytes32 sig) public auth {... */\n              pop\n              pop\n              pop\n              jump\t// out\n                /* \"ds-auth/auth.sol\":1309:1476  function setAuthority(DSAuthority authority_)... */\n            tag_29:\n                /* \"ds-auth/auth.sol\":1514:1547  isAuthorized(msg.sender, msg.sig) */\n              tag_69\n                /* \"ds-auth/auth.sol\":1527:1537  msg.sender */\n              caller\n                /* \"ds-auth/auth.sol\":1539:1546  msg.sig */\n              and(not(sub(shl(0xe0, 0x01), 0x01)), calldataload(0x00))\n                /* \"ds-auth/auth.sol\":1514:1526  isAuthorized */\n              tag_56\n                /* \"ds-auth/auth.sol\":1514:1547  isAuthorized(msg.sender, msg.sig) */\n              jump\t// in\n            tag_69:\n                /* \"ds-auth/auth.sol\":1506:1572  require(isAuthorized(msg.sender, msg.sig), \"ds-auth-unauthorized\") */\n              tag_70\n              jumpi\n              mload(0x40)\n              shl(0xe5, 0x461bcd)\n              dup2\n              mstore\n              0x04\n              add\n              tag_58\n              swap1\n              tag_59\n              jump\t// in\n            tag_70:\n                /* \"ds-auth/auth.sol\":1397:1406  authority */\n              0x00\n                /* \"ds-auth/auth.sol\":1397:1419  authority = authority_ */\n              dup1\n              sload\n              not(sub(shl(0xa0, 0x01), 0x01))\n              and\n              sub(shl(0xa0, 0x01), 0x01)\n              dup4\n              and\n              swap1\n              dup2\n              or\n              dup3\n              sstore\n                /* \"ds-auth/auth.sol\":1434:1469  LogSetAuthority(address(authority)) */\n              mload(0x40)\n                /* \"ds-auth/auth.sol\":1397:1419  authority = authority_ */\n              swap1\n              swap2\n                /* \"ds-auth/auth.sol\":1434:1469  LogSetAuthority(address(authority)) */\n              0x1abebea81bfa2637f28358c371278fb15ede7ea8dd28d2e03b112ff6d936ada4\n              swap2\n              log2\n                /* \"ds-auth/auth.sol\":1309:1476  function setAuthority(DSAuthority authority_)... */\n              pop\n              jump\t// out\n                /* \"ds-guard/guard.sol\":1257:1728  function canCall(... */\n            tag_41:\n              not(0xffffffffffffffffffffffff)\n                /* \"ds-guard/guard.sol\":1387:1400  bytes20(src_) */\n              0x60\n              dup5\n              dup2\n              shl\n                /* \"ds-guard/guard.sol\":1379:1401  bytes32(bytes20(src_)) */\n              dup3\n              and\n                /* \"ds-guard/guard.sol\":1349:1353  bool */\n              0x00\n                /* \"ds-guard/guard.sol\":1465:1473  acl[src] */\n              dup2\n              dup2\n              mstore\n                /* \"ds-guard/guard.sol\":1465:1468  acl */\n              0x02\n                /* \"ds-guard/guard.sol\":1465:1473  acl[src] */\n              0x20\n              swap1\n              dup2\n              mstore\n              0x40\n              dup1\n              dup4\n              keccak256\n                /* \"ds-guard/guard.sol\":1433:1446  bytes20(dst_) */\n              swap5\n              dup9\n              swap1\n              shl\n                /* \"ds-guard/guard.sol\":1425:1447  bytes32(bytes20(dst_)) */\n              swap1\n              swap6\n              and\n                /* \"ds-guard/guard.sol\":1465:1478  acl[src][dst] */\n              dup1\n              dup4\n              mstore\n              swap4\n              dup2\n              mstore\n              dup5\n              dup3\n              keccak256\n              not(sub(shl(0xe0, 0x01), 0x01))\n                /* \"ds-guard/guard.sol\":1465:1483  acl[src][dst][sig] */\n              dup8\n              and\n              dup4\n              mstore\n              swap1\n              mstore\n              swap3\n              dup4\n              keccak256\n              sload\n                /* \"ds-guard/guard.sol\":1379:1401  bytes32(bytes20(src_)) */\n              swap1\n              swap2\n                /* \"ds-guard/guard.sol\":1425:1447  bytes32(bytes20(dst_)) */\n              swap1\n                /* \"ds-guard/guard.sol\":1465:1483  acl[src][dst][sig] */\n              0xff\n              and\n              dup1\n                /* \"ds-guard/guard.sol\":1465:1517  acl[src][dst][sig]... */\n              tag_74\n              jumpi\n              pop\n                /* \"ds-guard/guard.sol\":1499:1507  acl[src] */\n              0x00\n              dup3\n              dup2\n              mstore\n                /* \"ds-guard/guard.sol\":1499:1502  acl */\n              0x02\n                /* \"ds-guard/guard.sol\":1499:1507  acl[src] */\n              0x20\n              swap1\n              dup2\n              mstore\n              0x40\n              dup1\n              dup4\n              keccak256\n                /* \"ds-guard/guard.sol\":1499:1512  acl[src][dst] */\n              dup5\n              dup5\n              mstore\n              dup3\n              mstore\n              dup1\n              dup4\n              keccak256\n              not(0x00)\n                /* \"ds-guard/guard.sol\":1499:1517  acl[src][dst][ANY] */\n              dup5\n              mstore\n              swap1\n              swap2\n              mstore\n              swap1\n              keccak256\n              sload\n              0xff\n              and\n                /* \"ds-guard/guard.sol\":1465:1517  acl[src][dst][sig]... */\n            tag_74:\n                /* \"ds-guard/guard.sol\":1465:1551  acl[src][dst][sig]... */\n              dup1\n              tag_75\n              jumpi\n              pop\n                /* \"ds-guard/guard.sol\":1533:1541  acl[src] */\n              0x00\n              dup3\n              dup2\n              mstore\n                /* \"ds-guard/guard.sol\":1533:1536  acl */\n              0x02\n                /* \"ds-guard/guard.sol\":1533:1541  acl[src] */\n              0x20\n              swap1\n              dup2\n              mstore\n              0x40\n              dup1\n              dup4\n              keccak256\n              not(0x00)\n                /* \"ds-guard/guard.sol\":1533:1546  acl[src][ANY] */\n              dup5\n              mstore\n              dup3\n              mstore\n              dup1\n              dup4\n              keccak256\n              not(sub(shl(0xe0, 0x01), 0x01))\n                /* \"ds-guard/guard.sol\":1533:1551  acl[src][ANY][sig] */\n              dup9\n              and\n              dup5\n              mstore\n              swap1\n              swap2\n              mstore\n              swap1\n              keccak256\n              sload\n              0xff\n              and\n                /* \"ds-guard/guard.sol\":1465:1551  acl[src][dst][sig]... */\n            tag_75:\n                /* \"ds-guard/guard.sol\":1465:1585  acl[src][dst][sig]... */\n              dup1\n              tag_76\n              jumpi\n              pop\n                /* \"ds-guard/guard.sol\":1567:1575  acl[src] */\n              0x00\n              dup3\n              dup2\n              mstore\n                /* \"ds-guard/guard.sol\":1567:1570  acl */\n              0x02\n                /* \"ds-guard/guard.sol\":1567:1575  acl[src] */\n              0x20\n              swap1\n              dup2\n              mstore\n              0x40\n              dup1\n              dup4\n              keccak256\n              not(0x00)\n                /* \"ds-guard/guard.sol\":1567:1580  acl[src][ANY] */\n              dup5\n              mstore\n              dup3\n              mstore\n              dup1\n              dup4\n              keccak256\n                /* \"ds-guard/guard.sol\":1567:1585  acl[src][ANY][ANY] */\n              swap1\n              swap2\n              mstore\n              swap1\n              keccak256\n              sload\n              0xff\n              and\n                /* \"ds-guard/guard.sol\":1465:1585  acl[src][dst][sig]... */\n            tag_76:\n                /* \"ds-guard/guard.sol\":1465:1619  acl[src][dst][sig]... */\n              dup1\n              tag_77\n              jumpi\n              pop\n                /* \"ds-guard/guard.sol\":1601:1609  acl[ANY] */\n              0x00\n                /* \"ds-guard/guard.sol\":1601:1614  acl[ANY][dst] */\n              dup2\n              dup2\n              mstore\n                /* \"ds-guard/guard.sol\":1601:1609  acl[ANY] */\n              0x38b5b2ceac7637132d27514ffcf440b705287635075af7b8bd5adcaa6a4cc5bb\n              0x20\n                /* \"ds-guard/guard.sol\":1601:1614  acl[ANY][dst] */\n              swap1\n              dup2\n              mstore\n                /* \"ds-guard/guard.sol\":1601:1609  acl[ANY] */\n              0x40\n                /* \"ds-guard/guard.sol\":1601:1614  acl[ANY][dst] */\n              dup1\n              dup4\n              keccak256\n              not(sub(shl(0xe0, 0x01), 0x01))\n                /* \"ds-guard/guard.sol\":1601:1619  acl[ANY][dst][sig] */\n              dup9\n              and\n              dup5\n              mstore\n              swap1\n              swap2\n              mstore\n              swap1\n              keccak256\n              sload\n              0xff\n              and\n                /* \"ds-guard/guard.sol\":1465:1619  acl[src][dst][sig]... */\n            tag_77:\n                /* \"ds-guard/guard.sol\":1465:1653  acl[src][dst][sig]... */\n              dup1\n              tag_78\n              jumpi\n              pop\n                /* \"ds-guard/guard.sol\":1635:1643  acl[ANY] */\n              0x00\n                /* \"ds-guard/guard.sol\":1635:1648  acl[ANY][dst] */\n              dup2\n              dup2\n              mstore\n                /* \"ds-guard/guard.sol\":1635:1643  acl[ANY] */\n              0x38b5b2ceac7637132d27514ffcf440b705287635075af7b8bd5adcaa6a4cc5bb\n              0x20\n                /* \"ds-guard/guard.sol\":1635:1648  acl[ANY][dst] */\n              swap1\n              dup2\n              mstore\n                /* \"ds-guard/guard.sol\":1635:1643  acl[ANY] */\n              0x40\n                /* \"ds-guard/guard.sol\":1635:1648  acl[ANY][dst] */\n              dup1\n              dup4\n              keccak256\n              not(0x00)\n                /* \"ds-guard/guard.sol\":1635:1653  acl[ANY][dst][ANY] */\n              dup5\n              mstore\n              swap1\n              swap2\n              mstore\n              swap1\n              keccak256\n              sload\n              0xff\n              and\n                /* \"ds-guard/guard.sol\":1465:1653  acl[src][dst][sig]... */\n            tag_78:\n                /* \"ds-guard/guard.sol\":1465:1687  acl[src][dst][sig]... */\n              dup1\n              tag_79\n              jumpi\n              pop\n              not(sub(shl(0xe0, 0x01), 0x01))\n                /* \"ds-guard/guard.sol\":1669:1687  acl[ANY][ANY][sig] */\n              dup5\n              and\n                /* \"ds-guard/guard.sol\":1669:1677  acl[ANY] */\n              0x00\n                /* \"ds-guard/guard.sol\":1669:1687  acl[ANY][ANY][sig] */\n              swap1\n              dup2\n              mstore\n                /* \"ds-guard/guard.sol\":1669:1682  acl[ANY][ANY] */\n              0x47fa60fbc027ac3984ea309688a33182f4193c478b40ba8d294eb2cd3ddc4d97\n                /* \"ds-guard/guard.sol\":1669:1677  acl[ANY] */\n              0x20\n                /* \"ds-guard/guard.sol\":1669:1687  acl[ANY][ANY][sig] */\n              mstore\n                /* \"ds-guard/guard.sol\":1669:1677  acl[ANY] */\n              0x40\n                /* \"ds-guard/guard.sol\":1669:1687  acl[ANY][ANY][sig] */\n              swap1\n              keccak256\n              sload\n              0xff\n              and\n                /* \"ds-guard/guard.sol\":1465:1687  acl[src][dst][sig]... */\n            tag_79:\n                /* \"ds-guard/guard.sol\":1465:1721  acl[src][dst][sig]... */\n              dup1\n              tag_80\n              jumpi\n              pop\n              not(0x00)\n                /* \"ds-guard/guard.sol\":1703:1711  acl[ANY] */\n              0x00\n              mstore\n                /* \"ds-guard/guard.sol\":1703:1716  acl[ANY][ANY] */\n              0x47fa60fbc027ac3984ea309688a33182f4193c478b40ba8d294eb2cd3ddc4d97\n                /* \"ds-guard/guard.sol\":1703:1711  acl[ANY] */\n              0x20\n                /* \"ds-guard/guard.sol\":1703:1721  acl[ANY][ANY][ANY] */\n              mstore\n              and(0xff, sload(0xf423d1317b37667cd26005728bffa7c8b0499e133951fcf8e814d4fc5f4c98f6))\n                /* \"ds-guard/guard.sol\":1465:1721  acl[src][dst][sig]... */\n            tag_80:\n                /* \"ds-guard/guard.sol\":1458:1721  return acl[src][dst][sig]... */\n              swap7\n                /* \"ds-guard/guard.sol\":1257:1728  function canCall(... */\n              swap6\n              pop\n              pop\n              pop\n              pop\n              pop\n              pop\n              jump\t// out\n                /* \"ds-guard/guard.sol\":2043:2179  function permit(address src, address dst, bytes32 sig) public {... */\n            tag_50:\n                /* \"ds-guard/guard.sol\":2115:2172  permit(bytes32(bytes20(src)), bytes32(bytes20(dst)), sig) */\n              tag_62\n                /* \"ds-guard/guard.sol\":2138:2141  src */\n              dup4\n                /* \"ds-guard/guard.sol\":2130:2142  bytes20(src) */\n              0x60\n              shl\n              sub(shl(0x60, 0x01), 0x01)\n                /* \"ds-guard/guard.sol\":2122:2143  bytes32(bytes20(src)) */\n              not\n              and\n                /* \"ds-guard/guard.sol\":2161:2164  dst */\n              dup4\n                /* \"ds-guard/guard.sol\":2153:2165  bytes20(dst) */\n              0x60\n              shl\n              sub(shl(0x60, 0x01), 0x01)\n                /* \"ds-guard/guard.sol\":2145:2166  bytes32(bytes20(dst)) */\n              not\n              and\n                /* \"ds-guard/guard.sol\":2168:2171  sig */\n              dup4\n                /* \"ds-guard/guard.sol\":1734:1882  function permit(bytes32 src, bytes32 dst, bytes32 sig) public auth {... */\n            tag_53:\n                /* \"ds-auth/auth.sol\":1514:1547  isAuthorized(msg.sender, msg.sig) */\n              tag_84\n                /* \"ds-auth/auth.sol\":1527:1537  msg.sender */\n              caller\n                /* \"ds-auth/auth.sol\":1539:1546  msg.sig */\n              and(not(sub(shl(0xe0, 0x01), 0x01)), calldataload(0x00))\n                /* \"ds-auth/auth.sol\":1514:1526  isAuthorized */\n              tag_56\n                /* \"ds-auth/auth.sol\":1514:1547  isAuthorized(msg.sender, msg.sig) */\n              jump\t// in\n            tag_84:\n                /* \"ds-auth/auth.sol\":1506:1572  require(isAuthorized(msg.sender, msg.sig), \"ds-auth-unauthorized\") */\n              tag_85\n              jumpi\n              mload(0x40)\n              shl(0xe5, 0x461bcd)\n              dup2\n              mstore\n              0x04\n              add\n              tag_58\n              swap1\n              tag_59\n              jump\t// in\n            tag_85:\n                /* \"ds-guard/guard.sol\":1811:1819  acl[src] */\n              0x00\n              dup4\n              dup2\n              mstore\n                /* \"ds-guard/guard.sol\":1811:1814  acl */\n              0x02\n                /* \"ds-guard/guard.sol\":1811:1819  acl[src] */\n              0x20\n              swap1\n              dup2\n              mstore\n              0x40\n              dup1\n              dup4\n              keccak256\n                /* \"ds-guard/guard.sol\":1811:1824  acl[src][dst] */\n              dup6\n              dup5\n              mstore\n              dup3\n              mstore\n              dup1\n              dup4\n              keccak256\n                /* \"ds-guard/guard.sol\":1811:1829  acl[src][dst][sig] */\n              dup5\n              dup5\n              mstore\n              swap1\n              swap2\n              mstore\n              dup1\n              dup3\n              keccak256\n                /* \"ds-guard/guard.sol\":1811:1836  acl[src][dst][sig] = true */\n              dup1\n              sload\n              not(0xff)\n              and\n                /* \"ds-guard/guard.sol\":1832:1836  true */\n              0x01\n                /* \"ds-guard/guard.sol\":1811:1836  acl[src][dst][sig] = true */\n              or\n              swap1\n              sstore\n                /* \"ds-guard/guard.sol\":1851:1875  LogPermit(src, dst, sig) */\n              mload\n                /* \"ds-guard/guard.sol\":1825:1828  sig */\n              dup3\n              swap2\n                /* \"ds-guard/guard.sol\":1820:1823  dst */\n              dup5\n              swap2\n                /* \"ds-guard/guard.sol\":1815:1818  src */\n              dup7\n              swap2\n                /* \"ds-guard/guard.sol\":1851:1875  LogPermit(src, dst, sig) */\n              0x6f50375045128971c5469d343039ba7b8e30a5b190453737b28bda6f7a306771\n              swap2\n              log4\n                /* \"ds-guard/guard.sol\":1734:1882  function permit(bytes32 src, bytes32 dst, bytes32 sig) public auth {... */\n              pop\n              pop\n              pop\n              jump\t// out\n                /* \"ds-auth/auth.sol\":1596:1975  function isAuthorized(address src, bytes4 sig) internal view returns (bool) {... */\n            tag_56:\n                /* \"ds-auth/auth.sol\":1666:1670  bool */\n              0x00\n                /* \"ds-auth/auth.sol\":1701:1705  this */\n              address\n              sub(shl(0xa0, 0x01), 0x01)\n                /* \"ds-auth/auth.sol\":1686:1706  src == address(this) */\n              dup5\n              and\n              sub\n                /* \"ds-auth/auth.sol\":1682:1969  if (src == address(this)) {... */\n              tag_89\n              jumpi\n              pop\n                /* \"ds-auth/auth.sol\":1729:1733  true */\n              0x01\n                /* \"ds-auth/auth.sol\":1722:1733  return true */\n              jump(tag_94)\n                /* \"ds-auth/auth.sol\":1682:1969  if (src == address(this)) {... */\n            tag_89:\n                /* \"ds-auth/auth.sol\":1761:1766  owner */\n              sload(0x01)\n              sub(shl(0xa0, 0x01), 0x01)\n              swap1\n              dup2\n              and\n                /* \"ds-auth/auth.sol\":1754:1766  src == owner */\n              swap1\n              dup5\n              and\n              sub\n                /* \"ds-auth/auth.sol\":1750:1969  if (src == owner) {... */\n              tag_91\n              jumpi\n              pop\n                /* \"ds-auth/auth.sol\":1789:1793  true */\n              0x01\n                /* \"ds-auth/auth.sol\":1782:1793  return true */\n              jump(tag_94)\n                /* \"ds-auth/auth.sol\":1750:1969  if (src == owner) {... */\n            tag_91:\n                /* \"ds-auth/auth.sol\":1847:1848  0 */\n              0x00\n                /* \"ds-auth/auth.sol\":1814:1823  authority */\n              sload\n              sub(shl(0xa0, 0x01), 0x01)\n              and\n                /* \"ds-auth/auth.sol\":1810:1969  if (authority == DSAuthority(address(0))) {... */\n              tag_93\n              jumpi\n              pop\n                /* \"ds-auth/auth.sol\":1873:1878  false */\n              0x00\n                /* \"ds-auth/auth.sol\":1866:1878  return false */\n              jump(tag_94)\n                /* \"ds-auth/auth.sol\":1810:1969  if (authority == DSAuthority(address(0))) {... */\n            tag_93:\n                /* \"ds-auth/auth.sol\":1916:1925  authority */\n              sload(0x00)\n                /* \"ds-auth/auth.sol\":1916:1958  authority.canCall(src, address(this), sig) */\n              mload(0x40)\n              shl(0xe0, 0xb7009613)\n              dup2\n              mstore\n              sub(shl(0xa0, 0x01), 0x01)\n                /* \"#utility.yul\":3442:3457   */\n              dup6\n              dup2\n              and\n                /* \"ds-auth/auth.sol\":1916:1958  authority.canCall(src, address(this), sig) */\n              0x04\n              dup4\n              add\n                /* \"#utility.yul\":3424:3458   */\n              mstore\n                /* \"ds-auth/auth.sol\":1947:1951  this */\n              address\n                /* \"#utility.yul\":3474:3492   */\n              0x24\n              dup4\n              add\n                /* \"#utility.yul\":3467:3510   */\n              mstore\n              not(sub(shl(0xe0, 0x01), 0x01))\n                /* \"#utility.yul\":3546:3579   */\n              dup6\n              and\n                /* \"#utility.yul\":3526:3544   */\n              0x44\n              dup4\n              add\n                /* \"#utility.yul\":3519:3580   */\n              mstore\n                /* \"ds-auth/auth.sol\":1916:1925  authority */\n              swap1\n              swap2\n              and\n              swap1\n                /* \"ds-auth/auth.sol\":1916:1933  authority.canCall */\n              0xb7009613\n              swap1\n                /* \"#utility.yul\":3359:3377   */\n              0x64\n              add\n                /* \"ds-auth/auth.sol\":1916:1958  authority.canCall(src, address(this), sig) */\n              0x20\n              mload(0x40)\n              dup1\n              dup4\n              sub\n              dup2\n              dup7\n              gas\n              staticcall\n              iszero\n              dup1\n              iszero\n              tag_98\n              jumpi\n              returndatasize\n              0x00\n              dup1\n              returndatacopy\n              revert(0x00, returndatasize)\n            tag_98:\n              pop\n              pop\n              pop\n              pop\n              mload(0x40)\n              returndatasize\n              not(0x1f)\n              0x1f\n              dup3\n              add\n              and\n              dup3\n              add\n              dup1\n              0x40\n              mstore\n              pop\n              dup2\n              add\n              swap1\n              tag_99\n              swap2\n              swap1\n              tag_100\n              jump\t// in\n            tag_99:\n                /* \"ds-auth/auth.sol\":1909:1958  return authority.canCall(src, address(this), sig) */\n              swap1\n              pop\n                /* \"ds-auth/auth.sol\":1810:1969  if (authority == DSAuthority(address(0))) {... */\n            tag_94:\n                /* \"ds-auth/auth.sol\":1596:1975  function isAuthorized(address src, bytes4 sig) internal view returns (bool) {... */\n              swap3\n              swap2\n              pop\n              pop\n              jump\t// out\n                /* \"#utility.yul\":14:145   */\n            tag_101:\n              sub(shl(0xa0, 0x01), 0x01)\n                /* \"#utility.yul\":89:120   */\n              dup2\n              and\n                /* \"#utility.yul\":79:121   */\n              dup2\n              eq\n                /* \"#utility.yul\":69:139   */\n              tag_104\n              jumpi\n                /* \"#utility.yul\":135:136   */\n              0x00\n                /* \"#utility.yul\":132:133   */\n              dup1\n                /* \"#utility.yul\":125:137   */\n              revert\n                /* \"#utility.yul\":69:139   */\n            tag_104:\n                /* \"#utility.yul\":14:145   */\n              pop\n              jump\t// out\n                /* \"#utility.yul\":150:397   */\n            tag_16:\n                /* \"#utility.yul\":209:215   */\n              0x00\n                /* \"#utility.yul\":262:264   */\n              0x20\n                /* \"#utility.yul\":250:259   */\n              dup3\n                /* \"#utility.yul\":241:248   */\n              dup5\n                /* \"#utility.yul\":237:260   */\n              sub\n                /* \"#utility.yul\":233:265   */\n              slt\n                /* \"#utility.yul\":230:282   */\n              iszero\n              tag_106\n              jumpi\n                /* \"#utility.yul\":278:279   */\n              0x00\n                /* \"#utility.yul\":275:276   */\n              dup1\n                /* \"#utility.yul\":268:280   */\n              revert\n                /* \"#utility.yul\":230:282   */\n            tag_106:\n                /* \"#utility.yul\":317:326   */\n              dup2\n                /* \"#utility.yul\":304:327   */\n              calldataload\n                /* \"#utility.yul\":336:367   */\n              tag_107\n                /* \"#utility.yul\":361:366   */\n              dup2\n                /* \"#utility.yul\":336:367   */\n              tag_101\n              jump\t// in\n            tag_107:\n                /* \"#utility.yul\":386:391   */\n              swap4\n                /* \"#utility.yul\":150:397   */\n              swap3\n              pop\n              pop\n              pop\n              jump\t// out\n                /* \"#utility.yul\":402:858   */\n            tag_20:\n                /* \"#utility.yul\":479:485   */\n              0x00\n                /* \"#utility.yul\":487:493   */\n              dup1\n                /* \"#utility.yul\":495:501   */\n              0x00\n                /* \"#utility.yul\":548:550   */\n              0x60\n                /* \"#utility.yul\":536:545   */\n              dup5\n                /* \"#utility.yul\":527:534   */\n              dup7\n                /* \"#utility.yul\":523:546   */\n              sub\n                /* \"#utility.yul\":519:551   */\n              slt\n                /* \"#utility.yul\":516:568   */\n              iszero\n              tag_109\n              jumpi\n                /* \"#utility.yul\":564:565   */\n              0x00\n                /* \"#utility.yul\":561:562   */\n              dup1\n                /* \"#utility.yul\":554:566   */\n              revert\n                /* \"#utility.yul\":516:568   */\n            tag_109:\n                /* \"#utility.yul\":603:612   */\n              dup4\n                /* \"#utility.yul\":590:613   */\n              calldataload\n                /* \"#utility.yul\":622:653   */\n              tag_110\n                /* \"#utility.yul\":647:652   */\n              dup2\n                /* \"#utility.yul\":622:653   */\n              tag_101\n              jump\t// in\n            tag_110:\n                /* \"#utility.yul\":672:677   */\n              swap3\n              pop\n                /* \"#utility.yul\":729:731   */\n              0x20\n                /* \"#utility.yul\":714:732   */\n              dup5\n              add\n                /* \"#utility.yul\":701:733   */\n              calldataload\n                /* \"#utility.yul\":742:775   */\n              tag_111\n                /* \"#utility.yul\":701:733   */\n              dup2\n                /* \"#utility.yul\":742:775   */\n              tag_101\n              jump\t// in\n            tag_111:\n                /* \"#utility.yul\":402:858   */\n              swap3\n              swap6\n                /* \"#utility.yul\":794:801   */\n              swap3\n              swap5\n              pop\n              pop\n              pop\n                /* \"#utility.yul\":848:850   */\n              0x40\n                /* \"#utility.yul\":833:851   */\n              swap2\n              swap1\n              swap2\n              add\n                /* \"#utility.yul\":820:852   */\n              calldataload\n              swap1\n                /* \"#utility.yul\":402:858   */\n              jump\t// out\n                /* \"#utility.yul\":863:1179   */\n            tag_24:\n                /* \"#utility.yul\":940:946   */\n              0x00\n                /* \"#utility.yul\":948:954   */\n              dup1\n                /* \"#utility.yul\":956:962   */\n              0x00\n                /* \"#utility.yul\":1009:1011   */\n              0x60\n                /* \"#utility.yul\":997:1006   */\n              dup5\n                /* \"#utility.yul\":988:995   */\n              dup7\n                /* \"#utility.yul\":984:1007   */\n              sub\n                /* \"#utility.yul\":980:1012   */\n              slt\n                /* \"#utility.yul\":977:1029   */\n              iszero\n              tag_113\n              jumpi\n                /* \"#utility.yul\":1025:1026   */\n              0x00\n                /* \"#utility.yul\":1022:1023   */\n              dup1\n                /* \"#utility.yul\":1015:1027   */\n              revert\n                /* \"#utility.yul\":977:1029   */\n            tag_113:\n              pop\n              pop\n                /* \"#utility.yul\":1048:1071   */\n              dup2\n              calldataload\n              swap4\n                /* \"#utility.yul\":1118:1120   */\n              0x20\n                /* \"#utility.yul\":1103:1121   */\n              dup4\n              add\n                /* \"#utility.yul\":1090:1122   */\n              calldataload\n              swap4\n              pop\n                /* \"#utility.yul\":1169:1171   */\n              0x40\n                /* \"#utility.yul\":1154:1172   */\n              swap1\n              swap3\n              add\n                /* \"#utility.yul\":1141:1173   */\n              calldataload\n              swap2\n                /* \"#utility.yul\":863:1179   */\n              swap1\n              pop\n              jump\t// out\n                /* \"#utility.yul\":1844:2414   */\n            tag_40:\n                /* \"#utility.yul\":1920:1926   */\n              0x00\n                /* \"#utility.yul\":1928:1934   */\n              dup1\n                /* \"#utility.yul\":1936:1942   */\n              0x00\n                /* \"#utility.yul\":1989:1991   */\n              0x60\n                /* \"#utility.yul\":1977:1986   */\n              dup5\n                /* \"#utility.yul\":1968:1975   */\n              dup7\n                /* \"#utility.yul\":1964:1987   */\n              sub\n                /* \"#utility.yul\":1960:1992   */\n              slt\n                /* \"#utility.yul\":1957:2009   */\n              iszero\n              tag_120\n              jumpi\n                /* \"#utility.yul\":2005:2006   */\n              0x00\n                /* \"#utility.yul\":2002:2003   */\n              dup1\n                /* \"#utility.yul\":1995:2007   */\n              revert\n                /* \"#utility.yul\":1957:2009   */\n            tag_120:\n                /* \"#utility.yul\":2044:2053   */\n              dup4\n                /* \"#utility.yul\":2031:2054   */\n              calldataload\n                /* \"#utility.yul\":2063:2094   */\n              tag_121\n                /* \"#utility.yul\":2088:2093   */\n              dup2\n                /* \"#utility.yul\":2063:2094   */\n              tag_101\n              jump\t// in\n            tag_121:\n                /* \"#utility.yul\":2113:2118   */\n              swap3\n              pop\n                /* \"#utility.yul\":2170:2172   */\n              0x20\n                /* \"#utility.yul\":2155:2173   */\n              dup5\n              add\n                /* \"#utility.yul\":2142:2174   */\n              calldataload\n                /* \"#utility.yul\":2183:2216   */\n              tag_122\n                /* \"#utility.yul\":2142:2174   */\n              dup2\n                /* \"#utility.yul\":2183:2216   */\n              tag_101\n              jump\t// in\n            tag_122:\n                /* \"#utility.yul\":2235:2242   */\n              swap2\n              pop\n                /* \"#utility.yul\":2294:2296   */\n              0x40\n                /* \"#utility.yul\":2279:2297   */\n              dup5\n              add\n                /* \"#utility.yul\":2266:2298   */\n              calldataload\n              not(sub(shl(0xe0, 0x01), 0x01))\n                /* \"#utility.yul\":2329:2363   */\n              dup2\n              and\n                /* \"#utility.yul\":2317:2364   */\n              dup2\n              eq\n                /* \"#utility.yul\":2307:2382   */\n              tag_123\n              jumpi\n                /* \"#utility.yul\":2378:2379   */\n              0x00\n                /* \"#utility.yul\":2375:2376   */\n              dup1\n                /* \"#utility.yul\":2368:2380   */\n              revert\n                /* \"#utility.yul\":2307:2382   */\n            tag_123:\n                /* \"#utility.yul\":2401:2408   */\n              dup1\n                /* \"#utility.yul\":2391:2408   */\n              swap2\n              pop\n              pop\n                /* \"#utility.yul\":1844:2414   */\n              swap3\n              pop\n              swap3\n              pop\n              swap3\n              jump\t// out\n                /* \"#utility.yul\":2837:3181   */\n            tag_59:\n                /* \"#utility.yul\":3039:3041   */\n              0x20\n                /* \"#utility.yul\":3021:3042   */\n              dup1\n              dup3\n              mstore\n                /* \"#utility.yul\":3078:3080   */\n              0x14\n                /* \"#utility.yul\":3058:3076   */\n              swap1\n              dup3\n              add\n                /* \"#utility.yul\":3051:3081   */\n              mstore\n              shl(0x62, 0x191ccb585d5d1a0b5d5b985d5d1a1bdc9a5e9959)\n                /* \"#utility.yul\":3112:3114   */\n              0x40\n                /* \"#utility.yul\":3097:3115   */\n              dup3\n              add\n                /* \"#utility.yul\":3090:3140   */\n              mstore\n                /* \"#utility.yul\":3172:3174   */\n              0x60\n                /* \"#utility.yul\":3157:3175   */\n              add\n              swap1\n                /* \"#utility.yul\":2837:3181   */\n              jump\t// out\n                /* \"#utility.yul\":3591:3868   */\n            tag_100:\n                /* \"#utility.yul\":3658:3664   */\n              0x00\n                /* \"#utility.yul\":3711:3713   */\n              0x20\n                /* \"#utility.yul\":3699:3708   */\n              dup3\n                /* \"#utility.yul\":3690:3697   */\n              dup5\n                /* \"#utility.yul\":3686:3709   */\n              sub\n                /* \"#utility.yul\":3682:3714   */\n              slt\n                /* \"#utility.yul\":3679:3731   */\n              iszero\n              tag_129\n              jumpi\n                /* \"#utility.yul\":3727:3728   */\n              0x00\n                /* \"#utility.yul\":3724:3725   */\n              dup1\n                /* \"#utility.yul\":3717:3729   */\n              revert\n                /* \"#utility.yul\":3679:3731   */\n            tag_129:\n                /* \"#utility.yul\":3759:3768   */\n              dup2\n                /* \"#utility.yul\":3753:3769   */\n              mload\n                /* \"#utility.yul\":3812:3817   */\n              dup1\n                /* \"#utility.yul\":3805:3818   */\n              iszero\n                /* \"#utility.yul\":3798:3819   */\n              iszero\n                /* \"#utility.yul\":3791:3796   */\n              dup2\n                /* \"#utility.yul\":3788:3820   */\n              eq\n                /* \"#utility.yul\":3778:3838   */\n              tag_107\n              jumpi\n                /* \"#utility.yul\":3834:3835   */\n              0x00\n                /* \"#utility.yul\":3831:3832   */\n              dup1\n                /* \"#utility.yul\":3824:3836   */\n              revert\n\n            auxdata: 0xa26469706673582212205f362ef0007a771c58a6f5b85ab91e6285e99a84a09468a9f639c4b2b59b892064736f6c63430008140033\n        }\n    }\n\n    auxdata: 0xa264697066735822122055ef0195ba7ad426058dff74e582e9475501d1d654588714659d34b98fdbe01164736f6c63430008140033\n}\n",
				"bytecode": {
					"linkReferences": {},
					"object": "608060405234801561000f575f80fd5b50610a3b8061001d5f395ff3fe608060405234801561000f575f80fd5b5060043610610034575f3560e01c8063489c12021461003857806365688cc91461006f575b5f80fd5b61005a61004636600461013f565b5f6020819052908152604090205460ff1681565b60405190151581526020015b60405180910390f35b61007761008f565b6040516001600160a01b039091168152602001610066565b5f60405161009c90610132565b604051809103905ff0801580156100b5573d5f803e3d5ffd5b506040516313af403560e01b81523360048201529091506001600160a01b038216906313af4035906024015f604051808303815f87803b1580156100f7575f80fd5b505af1158015610109573d5f803e3d5ffd5b5050506001600160a01b0382165f908152602081905260409020805460ff191660011790555090565b6108998061016d83390190565b5f6020828403121561014f575f80fd5b81356001600160a01b0381168114610165575f80fd5b939250505056fe608060405234801561000f575f80fd5b50600180546001600160a01b031916339081179091556040517fce241d7ca1f669fee44b6fc00b8eba2df3bb514eed0f6f668f8f89096e81ed94905f90a261083f8061005a5f395ff3fe608060405234801561000f575f80fd5b506004361061009b575f3560e01c8063a8542f6611610063578063a8542f661461011d578063b700961314610133578063bf7e214f14610156578063cbeea68c14610168578063f0217ce51461017b575f80fd5b806313af40351461009f5780632bc3217d146100b457806379d88d87146100c75780637a9e5e4b146100da5780638da5cb5b146100ed575b5f80fd5b6100b26100ad3660046106df565b61018e565b005b6100b26100c2366004610701565b610211565b6100b26100d536600461073f565b61023b565b6100b26100e83660046106df565b6102c4565b600154610100906001600160a01b031681565b6040516001600160a01b0390911681526020015b60405180910390f35b6101255f1981565b604051908152602001610114565b610146610141366004610768565b61033c565b6040519015158152602001610114565b5f54610100906001600160a01b031681565b6100b2610176366004610701565b610544565b6100b261018936600461073f565b610565565b6101a3335f356001600160e01b0319166105f1565b6101c85760405162461bcd60e51b81526004016101bf906107bc565b60405180910390fd5b600180546001600160a01b0319166001600160a01b0383169081179091556040517fce241d7ca1f669fee44b6fc00b8eba2df3bb514eed0f6f668f8f89096e81ed94905f90a250565b6102368360601b6001600160601b0319168360601b6001600160601b0319168361023b565b505050565b610250335f356001600160e01b0319166105f1565b61026c5760405162461bcd60e51b81526004016101bf906107bc565b5f8381526002602090815260408083208584528252808320848452909152808220805460ff19169055518291849186917f95ba64c95d85e67ac83a0476c4a62ac2cf8ab2d0407545b8c9d79c3eefa6282991a4505050565b6102d9335f356001600160e01b0319166105f1565b6102f55760405162461bcd60e51b81526004016101bf906107bc565b5f80546001600160a01b0319166001600160a01b038316908117825560405190917f1abebea81bfa2637f28358c371278fb15ede7ea8dd28d2e03b112ff6d936ada491a250565b6bffffffffffffffffffffffff19606084811b82165f8181526002602090815260408083209488901b9095168083529381528482206001600160e01b03198716835290529283205490919060ff16806103b657505f82815260026020908152604080832084845282528083205f19845290915290205460ff165b806103ec57505f8281526002602090815260408083205f19845282528083206001600160e01b03198816845290915290205460ff165b8061041557505f8281526002602090815260408083205f198452825280832090915290205460ff165b8061046157505f8181527f38b5b2ceac7637132d27514ffcf440b705287635075af7b8bd5adcaa6a4cc5bb602090815260408083206001600160e01b03198816845290915290205460ff165b806104a457505f8181527f38b5b2ceac7637132d27514ffcf440b705287635075af7b8bd5adcaa6a4cc5bb602090815260408083205f19845290915290205460ff165b806104e657506001600160e01b031984165f9081527f47fa60fbc027ac3984ea309688a33182f4193c478b40ba8d294eb2cd3ddc4d97602052604090205460ff165b8061053a57505f195f527f47fa60fbc027ac3984ea309688a33182f4193c478b40ba8d294eb2cd3ddc4d976020527ff423d1317b37667cd26005728bffa7c8b0499e133951fcf8e814d4fc5f4c98f65460ff165b9695505050505050565b6102368360601b6001600160601b0319168360601b6001600160601b031916835b61057a335f356001600160e01b0319166105f1565b6105965760405162461bcd60e51b81526004016101bf906107bc565b5f8381526002602090815260408083208584528252808320848452909152808220805460ff19166001179055518291849186917f6f50375045128971c5469d343039ba7b8e30a5b190453737b28bda6f7a30677191a4505050565b5f306001600160a01b0384160361060a575060016106c2565b6001546001600160a01b0390811690841603610628575060016106c2565b5f546001600160a01b031661063e57505f6106c2565b5f5460405163b700961360e01b81526001600160a01b0385811660048301523060248301526001600160e01b0319851660448301529091169063b700961390606401602060405180830381865afa15801561069b573d5f803e3d5ffd5b505050506040513d601f19601f820116820180604052508101906106bf91906107ea565b90505b92915050565b6001600160a01b03811681146106dc575f80fd5b50565b5f602082840312156106ef575f80fd5b81356106fa816106c8565b9392505050565b5f805f60608486031215610713575f80fd5b833561071e816106c8565b9250602084013561072e816106c8565b929592945050506040919091013590565b5f805f60608486031215610751575f80fd5b505081359360208301359350604090920135919050565b5f805f6060848603121561077a575f80fd5b8335610785816106c8565b92506020840135610795816106c8565b915060408401356001600160e01b0319811681146107b1575f80fd5b809150509250925092565b602080825260149082015273191ccb585d5d1a0b5d5b985d5d1a1bdc9a5e995960621b604082015260600190565b5f602082840312156107fa575f80fd5b815180151581146106fa575f80fdfea26469706673582212205f362ef0007a771c58a6f5b85ab91e6285e99a84a09468a9f639c4b2b59b892064736f6c63430008140033a264697066735822122055ef0195ba7ad426058dff74e582e9475501d1d654588714659d34b98fdbe01164736f6c63430008140033",
					"opcodes": "PUSH1 0x80 PUSH1 0x40 MSTORE CALLVALUE DUP1 ISZERO PUSH2 0xF JUMPI PUSH0 DUP1 REVERT JUMPDEST POP PUSH2 0xA3B DUP1 PUSH2 0x1D PUSH0 CODECOPY PUSH0 RETURN INVALID PUSH1 0x80 PUSH1 0x40 MSTORE CALLVALUE DUP1 ISZERO PUSH2 0xF JUMPI PUSH0 DUP1 REVERT JUMPDEST POP PUSH1 0x4 CALLDATASIZE LT PUSH2 0x34 JUMPI PUSH0 CALLDATALOAD PUSH1 0xE0 SHR DUP1 PUSH4 0x489C1202 EQ PUSH2 0x38 JUMPI DUP1 PUSH4 0x65688CC9 EQ PUSH2 0x6F JUMPI JUMPDEST PUSH0 DUP1 REVERT JUMPDEST PUSH2 0x5A PUSH2 0x46 CALLDATASIZE PUSH1 0x4 PUSH2 0x13F JUMP JUMPDEST PUSH0 PUSH1 0x20 DUP2 SWAP1 MSTORE SWAP1 DUP2 MSTORE PUSH1 0x40 SWAP1 KECCAK256 SLOAD PUSH1 0xFF AND DUP2 JUMP JUMPDEST PUSH1 0x40 MLOAD SWAP1 ISZERO ISZERO DUP2 MSTORE PUSH1 0x20 ADD JUMPDEST PUSH1 0x40 MLOAD DUP1 SWAP2 SUB SWAP1 RETURN JUMPDEST PUSH2 0x77 PUSH2 0x8F JUMP JUMPDEST PUSH1 0x40 MLOAD PUSH1 0x1 PUSH1 0x1 PUSH1 0xA0 SHL SUB SWAP1 SWAP2 AND DUP2 MSTORE PUSH1 0x20 ADD PUSH2 0x66 JUMP JUMPDEST PUSH0 PUSH1 0x40 MLOAD PUSH2 0x9C SWAP1 PUSH2 0x132 JUMP JUMPDEST PUSH1 0x40 MLOAD DUP1 SWAP2 SUB SWAP1 PUSH0 CREATE DUP1 ISZERO DUP1 ISZERO PUSH2 0xB5 JUMPI RETURNDATASIZE PUSH0 DUP1 RETURNDATACOPY RETURNDATASIZE PUSH0 REVERT JUMPDEST POP PUSH1 0x40 MLOAD PUSH4 0x13AF4035 PUSH1 0xE0 SHL DUP2 MSTORE CALLER PUSH1 0x4 DUP3 ADD MSTORE SWAP1 SWAP2 POP PUSH1 0x1 PUSH1 0x1 PUSH1 0xA0 SHL SUB DUP3 AND SWAP1 PUSH4 0x13AF4035 SWAP1 PUSH1 0x24 ADD PUSH0 PUSH1 0x40 MLOAD DUP1 DUP4 SUB DUP2 PUSH0 DUP8 DUP1 EXTCODESIZE ISZERO DUP1 ISZERO PUSH2 0xF7 JUMPI PUSH0 DUP1 REVERT JUMPDEST POP GAS CALL ISZERO DUP1 ISZERO PUSH2 0x109 JUMPI RETURNDATASIZE PUSH0 DUP1 RETURNDATACOPY RETURNDATASIZE PUSH0 REVERT JUMPDEST POP POP POP PUSH1 0x1 PUSH1 0x1 PUSH1 0xA0 SHL SUB DUP3 AND PUSH0 SWAP1 DUP2 MSTORE PUSH1 0x20 DUP2 SWAP1 MSTORE PUSH1 0x40 SWAP1 KECCAK256 DUP1 SLOAD PUSH1 0xFF NOT AND PUSH1 0x1 OR SWAP1 SSTORE POP SWAP1 JUMP JUMPDEST PUSH2 0x899 DUP1 PUSH2 0x16D DUP4 CODECOPY ADD SWAP1 JUMP JUMPDEST PUSH0 PUSH1 0x20 DUP3 DUP5 SUB SLT ISZERO PUSH2 0x14F JUMPI PUSH0 DUP1 REVERT JUMPDEST DUP2 CALLDATALOAD PUSH1 0x1 PUSH1 0x1 PUSH1 0xA0 SHL SUB DUP2 AND DUP2 EQ PUSH2 0x165 JUMPI PUSH0 DUP1 REVERT JUMPDEST SWAP4 SWAP3 POP POP POP JUMP INVALID PUSH1 0x80 PUSH1 0x40 MSTORE CALLVALUE DUP1 ISZERO PUSH2 0xF JUMPI PUSH0 DUP1 REVERT JUMPDEST POP PUSH1 0x1 DUP1 SLOAD PUSH1 0x1 PUSH1 0x1 PUSH1 0xA0 SHL SUB NOT AND CALLER SWAP1 DUP2 OR SWAP1 SWAP2 SSTORE PUSH1 0x40 MLOAD PUSH32 0xCE241D7CA1F669FEE44B6FC00B8EBA2DF3BB514EED0F6F668F8F89096E81ED94 SWAP1 PUSH0 SWAP1 LOG2 PUSH2 0x83F DUP1 PUSH2 0x5A PUSH0 CODECOPY PUSH0 RETURN INVALID PUSH1 0x80 PUSH1 0x40 MSTORE CALLVALUE DUP1 ISZERO PUSH2 0xF JUMPI PUSH0 DUP1 REVERT JUMPDEST POP PUSH1 0x4 CALLDATASIZE LT PUSH2 0x9B JUMPI PUSH0 CALLDATALOAD PUSH1 0xE0 SHR DUP1 PUSH4 0xA8542F66 GT PUSH2 0x63 JUMPI DUP1 PUSH4 0xA8542F66 EQ PUSH2 0x11D JUMPI DUP1 PUSH4 0xB7009613 EQ PUSH2 0x133 JUMPI DUP1 PUSH4 0xBF7E214F EQ PUSH2 0x156 JUMPI DUP1 PUSH4 0xCBEEA68C EQ PUSH2 0x168 JUMPI DUP1 PUSH4 0xF0217CE5 EQ PUSH2 0x17B JUMPI PUSH0 DUP1 REVERT JUMPDEST DUP1 PUSH4 0x13AF4035 EQ PUSH2 0x9F JUMPI DUP1 PUSH4 0x2BC3217D EQ PUSH2 0xB4 JUMPI DUP1 PUSH4 0x79D88D87 EQ PUSH2 0xC7 JUMPI DUP1 PUSH4 0x7A9E5E4B EQ PUSH2 0xDA JUMPI DUP1 PUSH4 0x8DA5CB5B EQ PUSH2 0xED JUMPI JUMPDEST PUSH0 DUP1 REVERT JUMPDEST PUSH2 0xB2 PUSH2 0xAD CALLDATASIZE PUSH1 0x4 PUSH2 0x6DF JUMP JUMPDEST PUSH2 0x18E JUMP JUMPDEST STOP JUMPDEST PUSH2 0xB2 PUSH2 0xC2 CALLDATASIZE PUSH1 0x4 PUSH2 0x701 JUMP JUMPDEST PUSH2 0x211 JUMP JUMPDEST PUSH2 0xB2 PUSH2 0xD5 CALLDATASIZE PUSH1 0x4 PUSH2 0x73F JUMP JUMPDEST PUSH2 0x23B JUMP JUMPDEST PUSH2 0xB2 PUSH2 0xE8 CALLDATASIZE PUSH1 0x4 PUSH2 0x6DF JUMP JUMPDEST PUSH2 0x2C4 JUMP JUMPDEST PUSH1 0x1 SLOAD PUSH2 0x100 SWAP1 PUSH1 0x1 PUSH1 0x1 PUSH1 0xA0 SHL SUB AND DUP2 JUMP JUMPDEST PUSH1 0x40 MLOAD PUSH1 0x1 PUSH1 0x1 PUSH1 0xA0 SHL SUB SWAP1 SWAP2 AND DUP2 MSTORE PUSH1 0x20 ADD JUMPDEST PUSH1 0x40 MLOAD DUP1 SWAP2 SUB SWAP1 RETURN JUMPDEST PUSH2 0x125 PUSH0 NOT DUP2 JUMP JUMPDEST PUSH1 0x40 MLOAD SWAP1 DUP2 MSTORE PUSH1 0x20 ADD PUSH2 0x114 JUMP JUMPDEST PUSH2 0x146 PUSH2 0x141 CALLDATASIZE PUSH1 0x4 PUSH2 0x768 JUMP JUMPDEST PUSH2 0x33C JUMP JUMPDEST PUSH1 0x40 MLOAD SWAP1 ISZERO ISZERO DUP2 MSTORE PUSH1 0x20 ADD PUSH2 0x114 JUMP JUMPDEST PUSH0 SLOAD PUSH2 0x100 SWAP1 PUSH1 0x1 PUSH1 0x1 PUSH1 0xA0 SHL SUB AND DUP2 JUMP JUMPDEST PUSH2 0xB2 PUSH2 0x176 CALLDATASIZE PUSH1 0x4 PUSH2 0x701 JUMP JUMPDEST PUSH2 0x544 JUMP JUMPDEST PUSH2 0xB2 PUSH2 0x189 CALLDATASIZE PUSH1 0x4 PUSH2 0x73F JUMP JUMPDEST PUSH2 0x565 JUMP JUMPDEST PUSH2 0x1A3 CALLER PUSH0 CALLDATALOAD PUSH1 0x1 PUSH1 0x1 PUSH1 0xE0 SHL SUB NOT AND PUSH2 0x5F1 JUMP JUMPDEST PUSH2 0x1C8 JUMPI PUSH1 0x40 MLOAD PUSH3 0x461BCD PUSH1 0xE5 SHL DUP2 MSTORE PUSH1 0x4 ADD PUSH2 0x1BF SWAP1 PUSH2 0x7BC JUMP JUMPDEST PUSH1 0x40 MLOAD DUP1 SWAP2 SUB SWAP1 REVERT JUMPDEST PUSH1 0x1 DUP1 SLOAD PUSH1 0x1 PUSH1 0x1 PUSH1 0xA0 SHL SUB NOT AND PUSH1 0x1 PUSH1 0x1 PUSH1 0xA0 SHL SUB DUP4 AND SWAP1 DUP2 OR SWAP1 SWAP2 SSTORE PUSH1 0x40 MLOAD PUSH32 0xCE241D7CA1F669FEE44B6FC00B8EBA2DF3BB514EED0F6F668F8F89096E81ED94 SWAP1 PUSH0 SWAP1 LOG2 POP JUMP JUMPDEST PUSH2 0x236 DUP4 PUSH1 0x60 SHL PUSH1 0x1 PUSH1 0x1 PUSH1 0x60 SHL SUB NOT AND DUP4 PUSH1 0x60 SHL PUSH1 0x1 PUSH1 0x1 PUSH1 0x60 SHL SUB NOT AND DUP4 PUSH2 0x23B JUMP JUMPDEST POP POP POP JUMP JUMPDEST PUSH2 0x250 CALLER PUSH0 CALLDATALOAD PUSH1 0x1 PUSH1 0x1 PUSH1 0xE0 SHL SUB NOT AND PUSH2 0x5F1 JUMP JUMPDEST PUSH2 0x26C JUMPI PUSH1 0x40 MLOAD PUSH3 0x461BCD PUSH1 0xE5 SHL DUP2 MSTORE PUSH1 0x4 ADD PUSH2 0x1BF SWAP1 PUSH2 0x7BC JUMP JUMPDEST PUSH0 DUP4 DUP2 MSTORE PUSH1 0x2 PUSH1 0x20 SWAP1 DUP2 MSTORE PUSH1 0x40 DUP1 DUP4 KECCAK256 DUP6 DUP5 MSTORE DUP3 MSTORE DUP1 DUP4 KECCAK256 DUP5 DUP5 MSTORE SWAP1 SWAP2 MSTORE DUP1 DUP3 KECCAK256 DUP1 SLOAD PUSH1 0xFF NOT AND SWAP1 SSTORE MLOAD DUP3 SWAP2 DUP5 SWAP2 DUP7 SWAP2 PUSH32 0x95BA64C95D85E67AC83A0476C4A62AC2CF8AB2D0407545B8C9D79C3EEFA62829 SWAP2 LOG4 POP POP POP JUMP JUMPDEST PUSH2 0x2D9 CALLER PUSH0 CALLDATALOAD PUSH1 0x1 PUSH1 0x1 PUSH1 0xE0 SHL SUB NOT AND PUSH2 0x5F1 JUMP JUMPDEST PUSH2 0x2F5 JUMPI PUSH1 0x40 MLOAD PUSH3 0x461BCD PUSH1 0xE5 SHL DUP2 MSTORE PUSH1 0x4 ADD PUSH2 0x1BF SWAP1 PUSH2 0x7BC JUMP JUMPDEST PUSH0 DUP1 SLOAD PUSH1 0x1 PUSH1 0x1 PUSH1 0xA0 SHL SUB NOT AND PUSH1 0x1 PUSH1 0x1 PUSH1 0xA0 SHL SUB DUP4 AND SWAP1 DUP2 OR DUP3 SSTORE PUSH1 0x40 MLOAD SWAP1 SWAP2 PUSH32 0x1ABEBEA81BFA2637F28358C371278FB15EDE7EA8DD28D2E03B112FF6D936ADA4 SWAP2 LOG2 POP JUMP JUMPDEST PUSH12 0xFFFFFFFFFFFFFFFFFFFFFFFF NOT PUSH1 0x60 DUP5 DUP2 SHL DUP3 AND PUSH0 DUP2 DUP2 MSTORE PUSH1 0x2 PUSH1 0x20 SWAP1 DUP2 MSTORE PUSH1 0x40 DUP1 DUP4 KECCAK256 SWAP5 DUP9 SWAP1 SHL SWAP1 SWAP6 AND DUP1 DUP4 MSTORE SWAP4 DUP2 MSTORE DUP5 DUP3 KECCAK256 PUSH1 0x1 PUSH1 0x1 PUSH1 0xE0 SHL SUB NOT DUP8 AND DUP4 MSTORE SWAP1 MSTORE SWAP3 DUP4 KECCAK256 SLOAD SWAP1 SWAP2 SWAP1 PUSH1 0xFF AND DUP1 PUSH2 0x3B6 JUMPI POP PUSH0 DUP3 DUP2 MSTORE PUSH1 0x2 PUSH1 0x20 SWAP1 DUP2 MSTORE PUSH1 0x40 DUP1 DUP4 KECCAK256 DUP5 DUP5 MSTORE DUP3 MSTORE DUP1 DUP4 KECCAK256 PUSH0 NOT DUP5 MSTORE SWAP1 SWAP2 MSTORE SWAP1 KECCAK256 SLOAD PUSH1 0xFF AND JUMPDEST DUP1 PUSH2 0x3EC JUMPI POP PUSH0 DUP3 DUP2 MSTORE PUSH1 0x2 PUSH1 0x20 SWAP1 DUP2 MSTORE PUSH1 0x40 DUP1 DUP4 KECCAK256 PUSH0 NOT DUP5 MSTORE DUP3 MSTORE DUP1 DUP4 KECCAK256 PUSH1 0x1 PUSH1 0x1 PUSH1 0xE0 SHL SUB NOT DUP9 AND DUP5 MSTORE SWAP1 SWAP2 MSTORE SWAP1 KECCAK256 SLOAD PUSH1 0xFF AND JUMPDEST DUP1 PUSH2 0x415 JUMPI POP PUSH0 DUP3 DUP2 MSTORE PUSH1 0x2 PUSH1 0x20 SWAP1 DUP2 MSTORE PUSH1 0x40 DUP1 DUP4 KECCAK256 PUSH0 NOT DUP5 MSTORE DUP3 MSTORE DUP1 DUP4 KECCAK256 SWAP1 SWAP2 MSTORE SWAP1 KECCAK256 SLOAD PUSH1 0xFF AND JUMPDEST DUP1 PUSH2 0x461 JUMPI POP PUSH0 DUP2 DUP2 MSTORE PUSH32 0x38B5B2CEAC7637132D27514FFCF440B705287635075AF7B8BD5ADCAA6A4CC5BB PUSH1 0x20 SWAP1 DUP2 MSTORE PUSH1 0x40 DUP1 DUP4 KECCAK256 PUSH1 0x1 PUSH1 0x1 PUSH1 0xE0 SHL SUB NOT DUP9 AND DUP5 MSTORE SWAP1 SWAP2 MSTORE SWAP1 KECCAK256 SLOAD PUSH1 0xFF AND JUMPDEST DUP1 PUSH2 0x4A4 JUMPI POP PUSH0 DUP2 DUP2 MSTORE PUSH32 0x38B5B2CEAC7637132D27514FFCF440B705287635075AF7B8BD5ADCAA6A4CC5BB PUSH1 0x20 SWAP1 DUP2 MSTORE PUSH1 0x40 DUP1 DUP4 KECCAK256 PUSH0 NOT DUP5 MSTORE SWAP1 SWAP2 MSTORE SWAP1 KECCAK256 SLOAD PUSH1 0xFF AND JUMPDEST DUP1 PUSH2 0x4E6 JUMPI POP PUSH1 0x1 PUSH1 0x1 PUSH1 0xE0 SHL SUB NOT DUP5 AND PUSH0 SWAP1 DUP2 MSTORE PUSH32 0x47FA60FBC027AC3984EA309688A33182F4193C478B40BA8D294EB2CD3DDC4D97 PUSH1 0x20 MSTORE PUSH1 0x40 SWAP1 KECCAK256 SLOAD PUSH1 0xFF AND JUMPDEST DUP1 PUSH2 0x53A JUMPI POP PUSH0 NOT PUSH0 MSTORE PUSH32 0x47FA60FBC027AC3984EA309688A33182F4193C478B40BA8D294EB2CD3DDC4D97 PUSH1 0x20 MSTORE PUSH32 0xF423D1317B37667CD26005728BFFA7C8B0499E133951FCF8E814D4FC5F4C98F6 SLOAD PUSH1 0xFF AND JUMPDEST SWAP7 SWAP6 POP POP POP POP POP POP JUMP JUMPDEST PUSH2 0x236 DUP4 PUSH1 0x60 SHL PUSH1 0x1 PUSH1 0x1 PUSH1 0x60 SHL SUB NOT AND DUP4 PUSH1 0x60 SHL PUSH1 0x1 PUSH1 0x1 PUSH1 0x60 SHL SUB NOT AND DUP4 JUMPDEST PUSH2 0x57A CALLER PUSH0 CALLDATALOAD PUSH1 0x1 PUSH1 0x1 PUSH1 0xE0 SHL SUB NOT AND PUSH2 0x5F1 JUMP JUMPDEST PUSH2 0x596 JUMPI PUSH1 0x40 MLOAD PUSH3 0x461BCD PUSH1 0xE5 SHL DUP2 MSTORE PUSH1 0x4 ADD PUSH2 0x1BF SWAP1 PUSH2 0x7BC JUMP JUMPDEST PUSH0 DUP4 DUP2 MSTORE PUSH1 0x2 PUSH1 0x20 SWAP1 DUP2 MSTORE PUSH1 0x40 DUP1 DUP4 KECCAK256 DUP6 DUP5 MSTORE DUP3 MSTORE DUP1 DUP4 KECCAK256 DUP5 DUP5 MSTORE SWAP1 SWAP2 MSTORE DUP1 DUP3 KECCAK256 DUP1 SLOAD PUSH1 0xFF NOT AND PUSH1 0x1 OR SWAP1 SSTORE MLOAD DUP3 SWAP2 DUP5 SWAP2 DUP7 SWAP2 PUSH32 0x6F50375045128971C5469D343039BA7B8E30A5B190453737B28BDA6F7A306771 SWAP2 LOG4 POP POP POP JUMP JUMPDEST PUSH0 ADDRESS PUSH1 0x1 PUSH1 0x1 PUSH1 0xA0 SHL SUB DUP5 AND SUB PUSH2 0x60A JUMPI POP PUSH1 0x1 PUSH2 0x6C2 JUMP JUMPDEST PUSH1 0x1 SLOAD PUSH1 0x1 PUSH1 0x1 PUSH1 0xA0 SHL SUB SWAP1 DUP2 AND SWAP1 DUP5 AND SUB PUSH2 0x628 JUMPI POP PUSH1 0x1 PUSH2 0x6C2 JUMP JUMPDEST PUSH0 SLOAD PUSH1 0x1 PUSH1 0x1 PUSH1 0xA0 SHL SUB AND PUSH2 0x63E JUMPI POP PUSH0 PUSH2 0x6C2 JUMP JUMPDEST PUSH0 SLOAD PUSH1 0x40 MLOAD PUSH4 0xB7009613 PUSH1 0xE0 SHL DUP2 MSTORE PUSH1 0x1 PUSH1 0x1 PUSH1 0xA0 SHL SUB DUP6 DUP2 AND PUSH1 0x4 DUP4 ADD MSTORE ADDRESS PUSH1 0x24 DUP4 ADD MSTORE PUSH1 0x1 PUSH1 0x1 PUSH1 0xE0 SHL SUB NOT DUP6 AND PUSH1 0x44 DUP4 ADD MSTORE SWAP1 SWAP2 AND SWAP1 PUSH4 0xB7009613 SWAP1 PUSH1 0x64 ADD PUSH1 0x20 PUSH1 0x40 MLOAD DUP1 DUP4 SUB DUP2 DUP7 GAS STATICCALL ISZERO DUP1 ISZERO PUSH2 0x69B JUMPI RETURNDATASIZE PUSH0 DUP1 RETURNDATACOPY RETURNDATASIZE PUSH0 REVERT JUMPDEST POP POP POP POP PUSH1 0x40 MLOAD RETURNDATASIZE PUSH1 0x1F NOT PUSH1 0x1F DUP3 ADD AND DUP3 ADD DUP1 PUSH1 0x40 MSTORE POP DUP2 ADD SWAP1 PUSH2 0x6BF SWAP2 SWAP1 PUSH2 0x7EA JUMP JUMPDEST SWAP1 POP JUMPDEST SWAP3 SWAP2 POP POP JUMP JUMPDEST PUSH1 0x1 PUSH1 0x1 PUSH1 0xA0 SHL SUB DUP2 AND DUP2 EQ PUSH2 0x6DC JUMPI PUSH0 DUP1 REVERT JUMPDEST POP JUMP JUMPDEST PUSH0 PUSH1 0x20 DUP3 DUP5 SUB SLT ISZERO PUSH2 0x6EF JUMPI PUSH0 DUP1 REVERT JUMPDEST DUP2 CALLDATALOAD PUSH2 0x6FA DUP2 PUSH2 0x6C8 JUMP JUMPDEST SWAP4 SWAP3 POP POP POP JUMP JUMPDEST PUSH0 DUP1 PUSH0 PUSH1 0x60 DUP5 DUP7 SUB SLT ISZERO PUSH2 0x713 JUMPI PUSH0 DUP1 REVERT JUMPDEST DUP4 CALLDATALOAD PUSH2 0x71E DUP2 PUSH2 0x6C8 JUMP JUMPDEST SWAP3 POP PUSH1 0x20 DUP5 ADD CALLDATALOAD PUSH2 0x72E DUP2 PUSH2 0x6C8 JUMP JUMPDEST SWAP3 SWAP6 SWAP3 SWAP5 POP POP POP PUSH1 0x40 SWAP2 SWAP1 SWAP2 ADD CALLDATALOAD SWAP1 JUMP JUMPDEST PUSH0 DUP1 PUSH0 PUSH1 0x60 DUP5 DUP7 SUB SLT ISZERO PUSH2 0x751 JUMPI PUSH0 DUP1 REVERT JUMPDEST POP POP DUP2 CALLDATALOAD SWAP4 PUSH1 0x20 DUP4 ADD CALLDATALOAD SWAP4 POP PUSH1 0x40 SWAP1 SWAP3 ADD CALLDATALOAD SWAP2 SWAP1 POP JUMP JUMPDEST PUSH0 DUP1 PUSH0 PUSH1 0x60 DUP5 DUP7 SUB SLT ISZERO PUSH2 0x77A JUMPI PUSH0 DUP1 REVERT JUMPDEST DUP4 CALLDATALOAD PUSH2 0x785 DUP2 PUSH2 0x6C8 JUMP JUMPDEST SWAP3 POP PUSH1 0x20 DUP5 ADD CALLDATALOAD PUSH2 0x795 DUP2 PUSH2 0x6C8 JUMP JUMPDEST SWAP2 POP PUSH1 0x40 DUP5 ADD CALLDATALOAD PUSH1 0x1 PUSH1 0x1 PUSH1 0xE0 SHL SUB NOT DUP2 AND DUP2 EQ PUSH2 0x7B1 JUMPI PUSH0 DUP1 REVERT JUMPDEST DUP1 SWAP2 POP POP SWAP3 POP SWAP3 POP SWAP3 JUMP JUMPDEST PUSH1 0x20 DUP1 DUP3 MSTORE PUSH1 0x14 SWAP1 DUP3 ADD MSTORE PUSH20 0x191CCB585D5D1A0B5D5B985D5D1A1BDC9A5E9959 PUSH1 0x62 SHL PUSH1 0x40 DUP3 ADD MSTORE PUSH1 0x60 ADD SWAP1 JUMP JUMPDEST PUSH0 PUSH1 0x20 DUP3 DUP5 SUB SLT ISZERO PUSH2 0x7FA JUMPI PUSH0 DUP1 REVERT JUMPDEST DUP2 MLOAD DUP1 ISZERO ISZERO DUP2 EQ PUSH2 0x6FA JUMPI PUSH0 DUP1 REVERT INVALID LOG2 PUSH5 0x6970667358 0x22 SLT KECCAK256 PUSH0 CALLDATASIZE 0x2E CREATE STOP PUSH27 0x771C58A6F5B85AB91E6285E99A84A09468A9F639C4B2B59B892064 PUSH20 0x6F6C63430008140033A264697066735822122055 0xEF ADD SWAP6 0xBA PUSH27 0xD426058DFF74E582E9475501D1D654588714659D34B98FDBE01164 PUSH20 0x6F6C634300081400330000000000000000000000 "
				},
				"gasEstimates": {
					"creation": {
						"codeDepositCost": "523800",
						"executionCost": "554",
						"totalCost": "524354"
					},
					"external": {
						"isGuard(address)": "2463",
						"newGuard()": "infinite"
					}
				},
				"methodIdentifiers": {
					"isGuard(address)": "489c1202",
					"newGuard()": "65688cc9"
				}
			},
			"storageLayout": {
				"storage": [
					{
						"astId": 401,
						"contract": "ds-guard/guard.sol:DSGuardFactory",
						"label": "isGuard",
						"offset": 0,
						"slot": "0",
						"type": "t_mapping(t_address,t_bool)"
					}
				],
				"types": {
					"t_address": {
						"encoding": "inplace",
						"label": "address",
						"numberOfBytes": "20"
					},
					"t_bool": {
						"encoding": "inplace",
						"label": "bool",
						"numberOfBytes": "1"
					},
					"t_mapping(t_address,t_bool)": {
						"encoding": "mapping",
						"key": "t_address",
						"label": "mapping(address => bool)",
						"numberOfBytes": "32",
						"value": "t_bool"
					}
				}
			},
			"userdoc": {
				"kind": "user",
				"methods": {},
				"version": 1
			}
		}
	}
}